{
  "contractName": "Government",
  "abi": [
    {
      "inputs": [
        {
          "internalType": "string",
          "name": "_name",
          "type": "string"
        },
        {
          "internalType": "string",
          "name": "_symbol",
          "type": "string"
        },
        {
          "internalType": "string",
          "name": "_ipfs_hash",
          "type": "string"
        },
        {
          "internalType": "address",
          "name": "vFactory",
          "type": "address"
        },
        {
          "internalType": "address",
          "name": "oFactory",
          "type": "address"
        }
      ],
      "stateMutability": "nonpayable",
      "type": "constructor"
    },
    {
      "anonymous": false,
      "inputs": [
        {
          "indexed": true,
          "internalType": "address",
          "name": "org",
          "type": "address"
        }
      ],
      "name": "OrganizationApproval",
      "type": "event"
    },
    {
      "anonymous": false,
      "inputs": [
        {
          "indexed": true,
          "internalType": "address",
          "name": "org",
          "type": "address"
        }
      ],
      "name": "OrganizationRegistration",
      "type": "event"
    },
    {
      "anonymous": false,
      "inputs": [
        {
          "indexed": true,
          "internalType": "address",
          "name": "user",
          "type": "address"
        }
      ],
      "name": "RegisterIndividual",
      "type": "event"
    },
    {
      "anonymous": false,
      "inputs": [
        {
          "indexed": true,
          "internalType": "address",
          "name": "user",
          "type": "address"
        },
        {
          "indexed": true,
          "internalType": "address",
          "name": "vaccine_address",
          "type": "address"
        },
        {
          "indexed": true,
          "internalType": "string",
          "name": "batch_id",
          "type": "string"
        }
      ],
      "name": "Vaccinate",
      "type": "event"
    },
    {
      "anonymous": false,
      "inputs": [
        {
          "indexed": true,
          "internalType": "address",
          "name": "vaccine",
          "type": "address"
        }
      ],
      "name": "VaccineApproved",
      "type": "event"
    },
    {
      "inputs": [],
      "name": "orgFactoryAddress",
      "outputs": [
        {
          "internalType": "address",
          "name": "",
          "type": "address"
        }
      ],
      "stateMutability": "view",
      "type": "function",
      "constant": true
    },
    {
      "inputs": [
        {
          "internalType": "address",
          "name": "",
          "type": "address"
        }
      ],
      "name": "organizationApprovalStatus",
      "outputs": [
        {
          "internalType": "bool",
          "name": "",
          "type": "bool"
        }
      ],
      "stateMutability": "view",
      "type": "function",
      "constant": true
    },
    {
      "inputs": [],
      "name": "owner",
      "outputs": [
        {
          "internalType": "address",
          "name": "",
          "type": "address"
        }
      ],
      "stateMutability": "view",
      "type": "function",
      "constant": true
    },
    {
      "inputs": [],
      "name": "superAdmin",
      "outputs": [
        {
          "internalType": "address",
          "name": "",
          "type": "address"
        }
      ],
      "stateMutability": "view",
      "type": "function",
      "constant": true
    },
    {
      "inputs": [
        {
          "internalType": "address",
          "name": "",
          "type": "address"
        }
      ],
      "name": "users",
      "outputs": [
        {
          "internalType": "uint256",
          "name": "year_of_birth",
          "type": "uint256"
        },
        {
          "internalType": "enum Government.Gender",
          "name": "gender",
          "type": "uint8"
        },
        {
          "internalType": "string",
          "name": "namehash",
          "type": "string"
        },
        {
          "internalType": "string",
          "name": "imagehash",
          "type": "string"
        },
        {
          "internalType": "bool",
          "name": "registered",
          "type": "bool"
        }
      ],
      "stateMutability": "view",
      "type": "function",
      "constant": true
    },
    {
      "inputs": [
        {
          "internalType": "address",
          "name": "",
          "type": "address"
        }
      ],
      "name": "vaccineApprovalStatus",
      "outputs": [
        {
          "internalType": "bool",
          "name": "",
          "type": "bool"
        }
      ],
      "stateMutability": "view",
      "type": "function",
      "constant": true
    },
    {
      "inputs": [],
      "name": "vaccineFactoryAddress",
      "outputs": [
        {
          "internalType": "address",
          "name": "",
          "type": "address"
        }
      ],
      "stateMutability": "view",
      "type": "function",
      "constant": true
    },
    {
      "inputs": [],
      "name": "name",
      "outputs": [
        {
          "internalType": "string",
          "name": "",
          "type": "string"
        }
      ],
      "stateMutability": "view",
      "type": "function",
      "constant": true
    },
    {
      "inputs": [],
      "name": "symbol",
      "outputs": [
        {
          "internalType": "string",
          "name": "",
          "type": "string"
        }
      ],
      "stateMutability": "view",
      "type": "function",
      "constant": true
    },
    {
      "inputs": [],
      "name": "ipfs_hash",
      "outputs": [
        {
          "internalType": "string",
          "name": "",
          "type": "string"
        }
      ],
      "stateMutability": "view",
      "type": "function",
      "constant": true
    },
    {
      "inputs": [
        {
          "internalType": "address",
          "name": "user_address",
          "type": "address"
        }
      ],
      "name": "getUser",
      "outputs": [
        {
          "components": [
            {
              "internalType": "uint256",
              "name": "year_of_birth",
              "type": "uint256"
            },
            {
              "internalType": "enum Government.Gender",
              "name": "gender",
              "type": "uint8"
            },
            {
              "internalType": "string",
              "name": "namehash",
              "type": "string"
            },
            {
              "internalType": "string",
              "name": "imagehash",
              "type": "string"
            },
            {
              "components": [
                {
                  "internalType": "address",
                  "name": "vaccine_address",
                  "type": "address"
                },
                {
                  "internalType": "string",
                  "name": "batch",
                  "type": "string"
                },
                {
                  "internalType": "uint256",
                  "name": "datetime",
                  "type": "uint256"
                }
              ],
              "internalType": "struct Government.Vaccine[]",
              "name": "vaccines",
              "type": "tuple[]"
            },
            {
              "internalType": "bool",
              "name": "registered",
              "type": "bool"
            }
          ],
          "internalType": "struct Government.User",
          "name": "",
          "type": "tuple"
        }
      ],
      "stateMutability": "view",
      "type": "function",
      "constant": true
    },
    {
      "inputs": [
        {
          "internalType": "address",
          "name": "vaccine",
          "type": "address"
        }
      ],
      "name": "approveVaccine",
      "outputs": [],
      "stateMutability": "nonpayable",
      "type": "function"
    },
    {
      "inputs": [
        {
          "internalType": "uint256",
          "name": "year_of_birth",
          "type": "uint256"
        },
        {
          "internalType": "enum Government.Gender",
          "name": "gender",
          "type": "uint8"
        },
        {
          "internalType": "string",
          "name": "namehash",
          "type": "string"
        },
        {
          "internalType": "string",
          "name": "imagehash",
          "type": "string"
        }
      ],
      "name": "registerIndividual",
      "outputs": [],
      "stateMutability": "nonpayable",
      "type": "function"
    },
    {
      "inputs": [],
      "name": "registerOrganization",
      "outputs": [],
      "stateMutability": "nonpayable",
      "type": "function"
    },
    {
      "inputs": [
        {
          "internalType": "address",
          "name": "org_address",
          "type": "address"
        }
      ],
      "name": "approveOrganization",
      "outputs": [],
      "stateMutability": "nonpayable",
      "type": "function"
    },
    {
      "inputs": [
        {
          "internalType": "address",
          "name": "to",
          "type": "address"
        },
        {
          "internalType": "address",
          "name": "vaccine_address",
          "type": "address"
        },
        {
          "internalType": "string",
          "name": "batch_id",
          "type": "string"
        }
      ],
      "name": "vaccinate",
      "outputs": [],
      "stateMutability": "nonpayable",
      "type": "function"
    },
    {
      "inputs": [
        {
          "internalType": "address",
          "name": "vaccine_address",
          "type": "address"
        }
      ],
      "name": "getRequiredVaccineCount",
      "outputs": [
        {
          "internalType": "uint256",
          "name": "",
          "type": "uint256"
        }
      ],
      "stateMutability": "view",
      "type": "function",
      "constant": true
    },
    {
      "inputs": [],
      "name": "getApprovedOrganizations",
      "outputs": [
        {
          "components": [
            {
              "internalType": "string",
              "name": "name",
              "type": "string"
            },
            {
              "internalType": "string",
              "name": "url",
              "type": "string"
            },
            {
              "internalType": "string",
              "name": "logo_hash",
              "type": "string"
            },
            {
              "internalType": "string",
              "name": "document_hash",
              "type": "string"
            },
            {
              "internalType": "string",
              "name": "location",
              "type": "string"
            },
            {
              "internalType": "string",
              "name": "phone",
              "type": "string"
            },
            {
              "internalType": "string",
              "name": "email",
              "type": "string"
            }
          ],
          "internalType": "struct OrgDetails[]",
          "name": "",
          "type": "tuple[]"
        }
      ],
      "stateMutability": "view",
      "type": "function",
      "constant": true
    },
    {
      "inputs": [],
      "name": "getRegisteredOrganizations",
      "outputs": [
        {
          "components": [
            {
              "internalType": "string",
              "name": "name",
              "type": "string"
            },
            {
              "internalType": "string",
              "name": "url",
              "type": "string"
            },
            {
              "internalType": "string",
              "name": "logo_hash",
              "type": "string"
            },
            {
              "internalType": "string",
              "name": "document_hash",
              "type": "string"
            },
            {
              "internalType": "string",
              "name": "location",
              "type": "string"
            },
            {
              "internalType": "string",
              "name": "phone",
              "type": "string"
            },
            {
              "internalType": "string",
              "name": "email",
              "type": "string"
            }
          ],
          "internalType": "struct OrgDetails[]",
          "name": "",
          "type": "tuple[]"
        }
      ],
      "stateMutability": "view",
      "type": "function",
      "constant": true
    }
  ],
  "bytecode": "0x60806040523480156200001157600080fd5b5060405162002ba238038062002ba28339818101604052810190620000379190620002d5565b336000806101000a81548173ffffffffffffffffffffffffffffffffffffffff021916908373ffffffffffffffffffffffffffffffffffffffff16021790555084600190805190602001906200008f92919062000190565b508360029080519060200190620000a892919062000190565b508260039080519060200190620000c192919062000190565b5080601160006101000a81548173ffffffffffffffffffffffffffffffffffffffff021916908373ffffffffffffffffffffffffffffffffffffffff16021790555081601060006101000a81548173ffffffffffffffffffffffffffffffffffffffff021916908373ffffffffffffffffffffffffffffffffffffffff16021790555033600f60006101000a81548173ffffffffffffffffffffffffffffffffffffffff021916908373ffffffffffffffffffffffffffffffffffffffff16021790555050505050506200058c565b8280546200019e9062000483565b90600052602060002090601f016020900481019282620001c257600085556200020e565b82601f10620001dd57805160ff19168380011785556200020e565b828001600101855582156200020e579182015b828111156200020d578251825591602001919060010190620001f0565b5b5090506200021d919062000221565b5090565b5b808211156200023c57600081600090555060010162000222565b5090565b6000620002576200025184620003e3565b620003ba565b90508281526020810184848401111562000276576200027562000552565b5b620002838482856200044d565b509392505050565b6000815190506200029c8162000572565b92915050565b600082601f830112620002ba57620002b96200054d565b5b8151620002cc84826020860162000240565b91505092915050565b600080600080600060a08688031215620002f457620002f36200055c565b5b600086015167ffffffffffffffff81111562000315576200031462000557565b5b6200032388828901620002a2565b955050602086015167ffffffffffffffff81111562000347576200034662000557565b5b6200035588828901620002a2565b945050604086015167ffffffffffffffff81111562000379576200037862000557565b5b6200038788828901620002a2565b93505060606200039a888289016200028b565b9250506080620003ad888289016200028b565b9150509295509295909350565b6000620003c6620003d9565b9050620003d48282620004b9565b919050565b6000604051905090565b600067ffffffffffffffff8211156200040157620004006200051e565b5b6200040c8262000561565b9050602081019050919050565b600062000426826200042d565b9050919050565b600073ffffffffffffffffffffffffffffffffffffffff82169050919050565b60005b838110156200046d57808201518184015260208101905062000450565b838111156200047d576000848401525b50505050565b600060028204905060018216806200049c57607f821691505b60208210811415620004b357620004b2620004ef565b5b50919050565b620004c48262000561565b810181811067ffffffffffffffff82111715620004e657620004e56200051e565b5b80604052505050565b7f4e487b7100000000000000000000000000000000000000000000000000000000600052602260045260246000fd5b7f4e487b7100000000000000000000000000000000000000000000000000000000600052604160045260246000fd5b600080fd5b600080fd5b600080fd5b600080fd5b6000601f19601f8301169050919050565b6200057d8162000419565b81146200058957600080fd5b50565b612606806200059c6000396000f3fe608060405234801561001057600080fd5b50600436106101215760003560e01c80638ac4dc0e116100ad578063a87430ba11610071578063a87430ba146102f6578063ba3333941461032a578063ec06ea6514610348578063f1a0625d14610366578063fcc8bd5c1461038457610121565b80638ac4dc0e1461023e5780638da5cb5b1461026e57806395d0109f1461028c57806395d89b41146102bc5780639cc52761146102da57610121565b8063542977e0116100f4578063542977e0146101885780635fa932e8146101b85780636f28cef9146101d45780636f77926b146101f0578063809051db1461022057610121565b806306fdde03146101265780630794be4f1461014457806329575f6a1461016057806353e42da31461017e575b600080fd5b61012e6103a2565b60405161013b9190611fb7565b60405180910390f35b61015e600480360381019061015991906118bf565b610434565b005b61016861064a565b6040516101759190611f3d565b60405180910390f35b610186610670565b005b6101a2600480360381019061019d9190611892565b610718565b6040516101af9190611f9c565b60405180910390f35b6101d260048036038101906101cd91906119a4565b610738565b005b6101ee60048036038101906101e99190611892565b6109d1565b005b61020a60048036038101906102059190611892565b610a6f565b6040516102179190612059565b60405180910390f35b610228610d9d565b6040516102359190611fb7565b60405180910390f35b61025860048036038101906102539190611892565b610e2f565b604051610265919061207b565b60405180910390f35b610276610ebb565b6040516102839190611f3d565b60405180910390f35b6102a660048036038101906102a19190611892565b610edf565b6040516102b39190611f9c565b60405180910390f35b6102c4610eff565b6040516102d19190611fb7565b60405180910390f35b6102f460048036038101906102ef9190611892565b610f91565b005b610310600480360381019061030b9190611892565b61107c565b604051610321959493929190612096565b60405180910390f35b6103326111dc565b60405161033f9190611f7a565b60405180910390f35b61035061129a565b60405161035d9190611f3d565b60405180910390f35b61036e6112c0565b60405161037b9190611f7a565b60405180910390f35b61038c61137e565b6040516103999190611f3d565b60405180910390f35b6060600180546103b190612330565b80601f01602080910402602001604051908101604052809291908181526020018280546103dd90612330565b801561042a5780601f106103ff5761010080835404028352916020019161042a565b820191906000526020600020905b81548152906001019060200180831161040d57829003601f168201915b5050505050905090565b600760003373ffffffffffffffffffffffffffffffffffffffff1673ffffffffffffffffffffffffffffffffffffffff16815260200190815260200160002060009054906101000a900460ff166104c0576040517f08c379a00000000000000000000000000000000000000000000000000000000081526004016104b790611fd9565b60405180910390fd5b6104c9836113a4565b600e60008473ffffffffffffffffffffffffffffffffffffffff1673ffffffffffffffffffffffffffffffffffffffff16815260200190815260200160002060040160405180606001604052808473ffffffffffffffffffffffffffffffffffffffff16815260200183815260200142815250908060018154018082558091505060019003906000526020600020906003020160009091909190915060008201518160000160006101000a81548173ffffffffffffffffffffffffffffffffffffffff021916908373ffffffffffffffffffffffffffffffffffffffff16021790555060208201518160010190805190602001906105c892919061143d565b50604082015181600201555050806040516105e39190611f26565b60405180910390208273ffffffffffffffffffffffffffffffffffffffff168473ffffffffffffffffffffffffffffffffffffffff167f9a75fe3f17676affc24f086f5a7083548487770509445ac8b5460c965e5e626060405160405180910390a4505050565b600f60009054906101000a900473ffffffffffffffffffffffffffffffffffffffff1681565b600b339080600181540180825580915050600190039060005260206000200160009091909190916101000a81548173ffffffffffffffffffffffffffffffffffffffff021916908373ffffffffffffffffffffffffffffffffffffffff1602179055503373ffffffffffffffffffffffffffffffffffffffff167fe0e8f801ed1f4ee20c0a93d2636c61498648007f572818a6d657a44c6dfc6c4560405160405180910390a2565b60066020528060005260406000206000915054906101000a900460ff1681565b60001515600e60003373ffffffffffffffffffffffffffffffffffffffff1673ffffffffffffffffffffffffffffffffffffffff16815260200190815260200160002060050160009054906101000a900460ff161515146107ce576040517f08c379a00000000000000000000000000000000000000000000000000000000081526004016107c590611ff9565b60405180910390fd5b83600e60003373ffffffffffffffffffffffffffffffffffffffff1673ffffffffffffffffffffffffffffffffffffffff1681526020019081526020016000206000018190555082600e60003373ffffffffffffffffffffffffffffffffffffffff1673ffffffffffffffffffffffffffffffffffffffff16815260200190815260200160002060010160006101000a81548160ff0219169083600281111561087a576108796123ad565b5b021790555081600e60003373ffffffffffffffffffffffffffffffffffffffff1673ffffffffffffffffffffffffffffffffffffffff16815260200190815260200160002060020190805190602001906108d592919061143d565b5080600e60003373ffffffffffffffffffffffffffffffffffffffff1673ffffffffffffffffffffffffffffffffffffffff168152602001908152602001600020600301908051906020019061092c92919061143d565b506001600e60003373ffffffffffffffffffffffffffffffffffffffff1673ffffffffffffffffffffffffffffffffffffffff16815260200190815260200160002060050160006101000a81548160ff0219169083151502179055503373ffffffffffffffffffffffffffffffffffffffff167fec2103278c3c80a6d7b51d03d161f98073de470c933d17309f7e46ebccd8c1ea60405160405180910390a250505050565b6001600660008373ffffffffffffffffffffffffffffffffffffffff1673ffffffffffffffffffffffffffffffffffffffff16815260200190815260200160002060006101000a81548160ff0219169083151502179055508073ffffffffffffffffffffffffffffffffffffffff167f099536b6271cc2d0994bb7793d3418af371ea9504e25339f266c43d84309bbec60405160405180910390a250565b610a776114c3565b600e60008373ffffffffffffffffffffffffffffffffffffffff1673ffffffffffffffffffffffffffffffffffffffff1681526020019081526020016000206040518060c0016040529081600082015481526020016001820160009054906101000a900460ff166002811115610af057610aef6123ad565b5b6002811115610b0257610b016123ad565b5b8152602001600282018054610b1690612330565b80601f0160208091040260200160405190810160405280929190818152602001828054610b4290612330565b8015610b8f5780601f10610b6457610100808354040283529160200191610b8f565b820191906000526020600020905b815481529060010190602001808311610b7257829003601f168201915b50505050508152602001600382018054610ba890612330565b80601f0160208091040260200160405190810160405280929190818152602001828054610bd490612330565b8015610c215780601f10610bf657610100808354040283529160200191610c21565b820191906000526020600020905b815481529060010190602001808311610c0457829003601f168201915b5050505050815260200160048201805480602002602001604051908101604052809291908181526020016000905b82821015610d7357838290600052602060002090600302016040518060600160405290816000820160009054906101000a900473ffffffffffffffffffffffffffffffffffffffff1673ffffffffffffffffffffffffffffffffffffffff1673ffffffffffffffffffffffffffffffffffffffff168152602001600182018054610cd890612330565b80601f0160208091040260200160405190810160405280929190818152602001828054610d0490612330565b8015610d515780601f10610d2657610100808354040283529160200191610d51565b820191906000526020600020905b815481529060010190602001808311610d3457829003601f168201915b5050505050815260200160028201548152505081526020019060010190610c4f565b5050505081526020016005820160009054906101000a900460ff1615151515815250509050919050565b606060038054610dac90612330565b80601f0160208091040260200160405190810160405280929190818152602001828054610dd890612330565b8015610e255780601f10610dfa57610100808354040283529160200191610e25565b820191906000526020600020905b815481529060010190602001808311610e0857829003601f168201915b5050505050905090565b6000808290508073ffffffffffffffffffffffffffffffffffffffff16635bffa9916040518163ffffffff1660e01b815260040160206040518083038186803b158015610e7b57600080fd5b505afa158015610e8f573d6000803e3d6000fd5b505050506040513d601f19601f82011682018060405250810190610eb39190611977565b915050919050565b60008054906101000a900473ffffffffffffffffffffffffffffffffffffffff1681565b60076020528060005260406000206000915054906101000a900460ff1681565b606060028054610f0e90612330565b80601f0160208091040260200160405190810160405280929190818152602001828054610f3a90612330565b8015610f875780601f10610f5c57610100808354040283529160200191610f87565b820191906000526020600020905b815481529060010190602001808311610f6a57829003601f168201915b5050505050905090565b600f60009054906101000a900473ffffffffffffffffffffffffffffffffffffffff1673ffffffffffffffffffffffffffffffffffffffff163373ffffffffffffffffffffffffffffffffffffffff1614611021576040517f08c379a000000000000000000000000000000000000000000000000000000000815260040161101890612019565b60405180910390fd5b6001600760008373ffffffffffffffffffffffffffffffffffffffff1673ffffffffffffffffffffffffffffffffffffffff16815260200190815260200160002060006101000a81548160ff02191690831515021790555050565b600e6020528060005260406000206000915090508060000154908060010160009054906101000a900460ff16908060020180546110b890612330565b80601f01602080910402602001604051908101604052809291908181526020018280546110e490612330565b80156111315780601f1061110657610100808354040283529160200191611131565b820191906000526020600020905b81548152906001019060200180831161111457829003601f168201915b50505050509080600301805461114690612330565b80601f016020809104026020016040519081016040528092919081815260200182805461117290612330565b80156111bf5780601f10611194576101008083540402835291602001916111bf565b820191906000526020600020905b8154815290600101906020018083116111a257829003601f168201915b5050505050908060050160009054906101000a900460ff16905085565b60606000601160009054906101000a900473ffffffffffffffffffffffffffffffffffffffff1690508073ffffffffffffffffffffffffffffffffffffffff1663939f6281600c6040518263ffffffff1660e01b815260040161123f9190611f58565b60006040518083038186803b15801561125757600080fd5b505afa15801561126b573d6000803e3d6000fd5b505050506040513d6000823e3d601f19601f82011682018060405250810190611294919061192e565b91505090565b601060009054906101000a900473ffffffffffffffffffffffffffffffffffffffff1681565b60606000601160009054906101000a900473ffffffffffffffffffffffffffffffffffffffff1690508073ffffffffffffffffffffffffffffffffffffffff1663939f6281600b6040518263ffffffff1660e01b81526004016113239190611f58565b60006040518083038186803b15801561133b57600080fd5b505afa15801561134f573d6000803e3d6000fd5b505050506040513d6000823e3d601f19601f82011682018060405250810190611378919061192e565b91505090565b601160009054906101000a900473ffffffffffffffffffffffffffffffffffffffff1681565b60011515600e60008373ffffffffffffffffffffffffffffffffffffffff1673ffffffffffffffffffffffffffffffffffffffff16815260200190815260200160002060050160009054906101000a900460ff1615151461143a576040517f08c379a000000000000000000000000000000000000000000000000000000000815260040161143190612039565b60405180910390fd5b50565b82805461144990612330565b90600052602060002090601f01602090048101928261146b57600085556114b2565b82601f1061148457805160ff19168380011785556114b2565b828001600101855582156114b2579182015b828111156114b1578251825591602001919060010190611496565b5b5090506114bf919061150d565b5090565b6040518060c0016040528060008152602001600060028111156114e9576114e86123ad565b5b81526020016060815260200160608152602001606081526020016000151581525090565b5b8082111561152657600081600090555060010161150e565b5090565b600061153d6115388461211c565b6120f7565b905080838252602082019050828560208602820111156115605761155f61245c565b5b60005b858110156115ae57815167ffffffffffffffff8111156115865761158561244d565b5b80860161159389826116f0565b85526020850194506020840193505050600181019050611563565b5050509392505050565b60006115cb6115c684612148565b6120f7565b9050828152602081018484840111156115e7576115e6612461565b5b6115f28482856122ee565b509392505050565b600061160d61160884612148565b6120f7565b90508281526020810184848401111561162957611628612461565b5b6116348482856122fd565b509392505050565b60008135905061164b81612592565b92915050565b600082601f8301126116665761166561244d565b5b815161167684826020860161152a565b91505092915050565b60008135905061168e816125a9565b92915050565b600082601f8301126116a9576116a861244d565b5b81356116b98482602086016115b8565b91505092915050565b600082601f8301126116d7576116d661244d565b5b81516116e78482602086016115fa565b91505092915050565b600060e0828403121561170657611705612452565b5b61171060e06120f7565b9050600082015167ffffffffffffffff8111156117305761172f612457565b5b61173c848285016116c2565b600083015250602082015167ffffffffffffffff8111156117605761175f612457565b5b61176c848285016116c2565b602083015250604082015167ffffffffffffffff8111156117905761178f612457565b5b61179c848285016116c2565b604083015250606082015167ffffffffffffffff8111156117c0576117bf612457565b5b6117cc848285016116c2565b606083015250608082015167ffffffffffffffff8111156117f0576117ef612457565b5b6117fc848285016116c2565b60808301525060a082015167ffffffffffffffff8111156118205761181f612457565b5b61182c848285016116c2565b60a08301525060c082015167ffffffffffffffff8111156118505761184f612457565b5b61185c848285016116c2565b60c08301525092915050565b600081359050611877816125b9565b92915050565b60008151905061188c816125b9565b92915050565b6000602082840312156118a8576118a761246b565b5b60006118b68482850161163c565b91505092915050565b6000806000606084860312156118d8576118d761246b565b5b60006118e68682870161163c565b93505060206118f78682870161163c565b925050604084013567ffffffffffffffff81111561191857611917612466565b5b61192486828701611694565b9150509250925092565b6000602082840312156119445761194361246b565b5b600082015167ffffffffffffffff81111561196257611961612466565b5b61196e84828501611651565b91505092915050565b60006020828403121561198d5761198c61246b565b5b600061199b8482850161187d565b91505092915050565b600080600080608085870312156119be576119bd61246b565b5b60006119cc87828801611868565b94505060206119dd8782880161167f565b935050604085013567ffffffffffffffff8111156119fe576119fd612466565b5b611a0a87828801611694565b925050606085013567ffffffffffffffff811115611a2b57611a2a612466565b5b611a3787828801611694565b91505092959194509250565b6000611a4f8383611a83565b60208301905092915050565b6000611a678383611d5b565b905092915050565b6000611a7b8383611eb8565b905092915050565b611a8c81612281565b82525050565b611a9b81612281565b82525050565b6000611aac826121ae565b611ab68185612201565b9350611ac183612179565b8060005b83811015611af957611ad68261243a565b611ae08882611a43565b9750611aeb836121da565b925050600181019050611ac5565b5085935050505092915050565b6000611b11826121b9565b611b1b8185612212565b935083602082028501611b2d8561218e565b8060005b85811015611b695784840389528151611b4a8582611a5b565b9450611b55836121e7565b925060208a01995050600181019050611b31565b50829750879550505050505092915050565b6000611b86826121c4565b611b908185612223565b935083602082028501611ba28561219e565b8060005b85811015611bde5784840389528151611bbf8582611a6f565b9450611bca836121f4565b925060208a01995050600181019050611ba6565b50829750879550505050505092915050565b611bf981612293565b82525050565b611c0881612293565b82525050565b611c17816122dc565b82525050565b611c26816122dc565b82525050565b6000611c37826121cf565b611c418185612234565b9350611c518185602086016122fd565b611c5a81612470565b840191505092915050565b6000611c70826121cf565b611c7a8185612245565b9350611c8a8185602086016122fd565b611c9381612470565b840191505092915050565b6000611ca9826121cf565b611cb38185612256565b9350611cc38185602086016122fd565b80840191505092915050565b6000611cdc602983612245565b9150611ce78261248e565b604082019050919050565b6000611cff601383612245565b9150611d0a826124dd565b602082019050919050565b6000611d22602483612245565b9150611d2d82612506565b604082019050919050565b6000611d45601183612245565b9150611d5082612555565b602082019050919050565b600060e0830160008301518482036000860152611d788282611c2c565b91505060208301518482036020860152611d928282611c2c565b91505060408301518482036040860152611dac8282611c2c565b91505060608301518482036060860152611dc68282611c2c565b91505060808301518482036080860152611de08282611c2c565b91505060a083015184820360a0860152611dfa8282611c2c565b91505060c083015184820360c0860152611e148282611c2c565b9150508091505092915050565b600060c083016000830151611e396000860182611f08565b506020830151611e4c6020860182611c0e565b5060408301518482036040860152611e648282611c2c565b91505060608301518482036060860152611e7e8282611c2c565b91505060808301518482036080860152611e988282611b7b565b91505060a0830151611ead60a0860182611bf0565b508091505092915050565b6000606083016000830151611ed06000860182611a83565b5060208301518482036020860152611ee88282611c2c565b9150506040830151611efd6040860182611f08565b508091505092915050565b611f11816122d2565b82525050565b611f20816122d2565b82525050565b6000611f328284611c9e565b915081905092915050565b6000602082019050611f526000830184611a92565b92915050565b60006020820190508181036000830152611f728184611aa1565b905092915050565b60006020820190508181036000830152611f948184611b06565b905092915050565b6000602082019050611fb16000830184611bff565b92915050565b60006020820190508181036000830152611fd18184611c65565b905092915050565b60006020820190508181036000830152611ff281611ccf565b9050919050565b6000602082019050818103600083015261201281611cf2565b9050919050565b6000602082019050818103600083015261203281611d15565b9050919050565b6000602082019050818103600083015261205281611d38565b9050919050565b600060208201905081810360008301526120738184611e21565b905092915050565b60006020820190506120906000830184611f17565b92915050565b600060a0820190506120ab6000830188611f17565b6120b86020830187611c1d565b81810360408301526120ca8186611c65565b905081810360608301526120de8185611c65565b90506120ed6080830184611bff565b9695505050505050565b6000612101612112565b905061210d828261237c565b919050565b6000604051905090565b600067ffffffffffffffff8211156121375761213661240b565b5b602082029050602081019050919050565b600067ffffffffffffffff8211156121635761216261240b565b5b61216c82612470565b9050602081019050919050565b60008190508160005260206000209050919050565b6000819050602082019050919050565b6000819050602082019050919050565b600081549050919050565b600081519050919050565b600081519050919050565b600081519050919050565b6000600182019050919050565b6000602082019050919050565b6000602082019050919050565b600082825260208201905092915050565b600082825260208201905092915050565b600082825260208201905092915050565b600082825260208201905092915050565b600082825260208201905092915050565b600081905092915050565b600073ffffffffffffffffffffffffffffffffffffffff82169050919050565b600061228c826122b2565b9050919050565b60008115159050919050565b60008190506122ad8261257e565b919050565b600073ffffffffffffffffffffffffffffffffffffffff82169050919050565b6000819050919050565b60006122e78261229f565b9050919050565b82818337600083830152505050565b60005b8381101561231b578082015181840152602081019050612300565b8381111561232a576000848401525b50505050565b6000600282049050600182168061234857607f821691505b6020821081141561235c5761235b6123dc565b5b50919050565b600061237561237083612481565b612261565b9050919050565b61238582612470565b810181811067ffffffffffffffff821117156123a4576123a361240b565b5b80604052505050565b7f4e487b7100000000000000000000000000000000000000000000000000000000600052602160045260246000fd5b7f4e487b7100000000000000000000000000000000000000000000000000000000600052602260045260246000fd5b7f4e487b7100000000000000000000000000000000000000000000000000000000600052604160045260246000fd5b60006124468254612362565b9050919050565b600080fd5b600080fd5b600080fd5b600080fd5b600080fd5b600080fd5b600080fd5b6000601f19601f8301169050919050565b60008160001c9050919050565b7f4f6e6c7920617070726f766564206f7267616e697a6174696f6e2063616e207660008201527f616363696e6174652e0000000000000000000000000000000000000000000000602082015250565b7f416c726561647920726567697374657265642e00000000000000000000000000600082015250565b7f4f6e6c792061646d696e2063616e20706572666f726d207468652066756e637460008201527f696f6e2e00000000000000000000000000000000000000000000000000000000602082015250565b7f556e726567697374657265642075736572000000000000000000000000000000600082015250565b6003811061258f5761258e6123ad565b5b50565b61259b81612281565b81146125a657600080fd5b50565b600381106125b657600080fd5b50565b6125c2816122d2565b81146125cd57600080fd5b5056fea2646970667358221220e5d1c44de05ddd34cbc6fb5d9e09bd2553fb47711e7230afb7019df1841c7a8964736f6c63430008050033",
  "immutableReferences": {},
  "source": "// SPDX-License-Identifier: MIT\npragma solidity >=0.7.5;\npragma experimental ABIEncoderV2;\n\nuint256 constant ORG_REGISTRATION_COST = 10;\n\nstruct OrgDetails {\n    string name;\n    string url;\n    string logo_hash;\n    string document_hash;\n    string location;\n    string phone;\n    string email;\n}\n\ninterface IGOrganization {\n    function name() external view returns (string memory);\n\n    function symbol() external view returns (string memory);\n\n    function ipfs_hash() external view returns (string memory);\n}\n\ninterface IGVaccine {\n    function approve(\n        address to,\n        uint256 batchId,\n        uint256 quantity\n    ) external;\n\n    function transferFrom(\n        address from,\n        address to,\n        uint256 batchId\n    ) external;\n\n    function getVaccineSchedule() external view returns (uint256[] memory);\n\n    function getVaccineScheduleLength() external view returns (uint256);\n}\n\ninterface IGOrganizationFactory {\n    function getSpeficiedOrganizationDetails(address[] memory orgAddrs)\n        external\n        view\n        returns (OrgDetails[] memory);\n}\n\ncontract Government {\n    address public owner;\n\n    string private name_;\n    string private symbol_;\n    string private ipfs_hash_;\n\n    uint256 fully_vaccinated;\n    uint256 partially_vaccinated;\n\n    mapping(address => bool) public vaccineApprovalStatus;\n    mapping(address => bool) public organizationApprovalStatus;\n\n    mapping(string => bool) org_names;\n    mapping(string => bool) org_symbols;\n    mapping(string => bool) org_ipfs_hash;\n\n    address[] registeredOrganizations;\n    address[] approvedOrganizations;\n    address[] rejectedOrganizations;\n\n    enum Gender {\n        MALE,\n        FEMALE,\n        UNSPECIFIED\n    }\n\n    enum VaccineStatus {\n        UNVACCINATED,\n        PARTIALLY_VACCINATED,\n        FULLY_VACCINATED\n    }\n\n    struct Vaccine {\n        address vaccine_address;\n        // string vaccine_name;\n        string batch;\n        uint256 datetime;\n    }\n\n    struct User {\n        uint256 year_of_birth;\n        Gender gender;\n        string namehash;\n        string imagehash;\n        Vaccine[] vaccines;\n        bool registered;\n    }\n    mapping(address => User) public users;\n\n    event OrganizationApproval(address indexed org);\n    event OrganizationRegistration(address indexed org);\n    event VaccineApproved(address indexed vaccine);\n    event RegisterIndividual(address indexed user);\n    event Vaccinate(\n        address indexed user,\n        address indexed vaccine_address,\n        string indexed batch_id\n    );\n\n    address public superAdmin;\n\t\taddress public vaccineFactoryAddress;\n\t\taddress public orgFactoryAddress;\n\n    // Constructor\n    constructor(\n        string memory _name,\n        string memory _symbol,\n        string memory _ipfs_hash,\n\t\t\t\taddress vFactory,\n\t\t\t\taddress oFactory\n    ) {\n        owner = msg.sender;\n        name_ = _name;\n        symbol_ = _symbol;\n        ipfs_hash_ = _ipfs_hash;\n\t\t\t\torgFactoryAddress = oFactory;\n\t\t\t\tvaccineFactoryAddress = vFactory;\n        superAdmin = msg.sender;\n    }\n\n    function name() public view returns (string memory) {\n        return name_;\n    }\n\n    function symbol() public view returns (string memory) {\n        return symbol_;\n    }\n\n    function ipfs_hash() public view returns (string memory) {\n        return ipfs_hash_;\n    }\n\n    function getUser(address user_address) public view returns (User memory) {\n        return users[user_address];\n    }\n\n    function approveVaccine(address vaccine) public {\n        vaccineApprovalStatus[vaccine] = true;\n        emit VaccineApproved(vaccine);\n    }\n\n    function registerIndividual(\n        uint256 year_of_birth,\n        Gender gender,\n        string memory namehash,\n        string memory imagehash\n    ) public {\n        require(users[msg.sender].registered == false, \"Already registered.\");\n        users[msg.sender].year_of_birth = year_of_birth;\n        users[msg.sender].gender = gender;\n        users[msg.sender].namehash = namehash;\n        users[msg.sender].imagehash = imagehash;\n        users[msg.sender].registered = true;\n        emit RegisterIndividual(msg.sender);\n    }\n\n    function registerOrganization() public {\n        // if (msg.value < ORG_REGISTRATION_COST) {\n        // \t\trevert(\"Insufficient amount.\");\n        // }\n        // require(!org_ipfs_hash[_ipfs_hash], \"Organization already registered.\");\n        // require(!org_names[_name], \"Organization name already taken.\");\n        // require(!org_symbols[_symbol], \"Organization symbol already taken.\");\n        // org_ipfs_hash[_ipfs_hash] = true;\n        // org_names[_name] = true;\n        // org_symbols[_symbol] = true;\n        registeredOrganizations.push(msg.sender);\n        emit OrganizationRegistration(msg.sender);\n    }\n\n    function approveOrganization(address org_address) public onlySuperAdmin {\n        // IGOrganization org = IGOrganization(org_address);\n        // require(org_ipfs_hash[org.ipfs_hash()], \"Organization not registered.\");\n        // require(org_names[org.name()], \"Organization not registered.\");\n        // require(org_symbols[org.symbol()], \"Organization not registered.\");\n        organizationApprovalStatus[org_address] = true;\n        // emit OrganizationApproval(org_address, org.name(), org.symbol());\n    }\n\n    function vaccinate(\n        address to,\n        address vaccine_address,\n        string memory batch_id\n    ) public onlyApprovedOrganization {\n        checkUserRegistration(to);\n        users[to].vaccines.push(\n            Vaccine(vaccine_address, batch_id, block.timestamp)\n        );\n        // users[to].vaccine_address = vaccine_address;\n        // users[to].batches.push(batch_id);\n        // users[to].datetime.push(block.timestamp);\n        // users[to].vaccine_count += 1;\n        // changeStatus(to);\n        emit Vaccinate(to, vaccine_address, batch_id);\n    }\n\n    modifier onlyApprovedOrganization() {\n        require(\n            organizationApprovalStatus[msg.sender],\n            \"Only approved organization can vaccinate.\"\n        );\n        _;\n    }\n\n    function checkUserRegistration(address user) private view {\n        require(users[user].registered == true, \"Unregistered user\");\n    }\n\n    function getRequiredVaccineCount(address vaccine_address)\n        public\n        view\n        returns (uint256)\n    {\n        IGVaccine vaccine = IGVaccine(vaccine_address);\n        return vaccine.getVaccineScheduleLength();\n    }\n\n    // function changeStatus(address user) private {\n    //     VaccineStatus status = getVaccineStatusOf(user);\n    //     if (status == VaccineStatus.FULLY_VACCINATED) {\n    //       fully_vaccinated += 1;\n    //     }\n    //     if (status == VaccineStatus.PARTIALLY_VACCINATED) {\n    //       \tpartially_vaccinated += 1;\n    //     }\n    // }\n\n    // function getVaccineStatusOf(address user)\n    //     public\n    //     view\n    //     returns (VaccineStatus status)\n    // {\n    //     uint256 user_vaccineCount = users[user].vaccine_count;\n    //     uint256 required_vaccineCount = getRequiredVaccineCount(users[user].vaccine_address);\n\n    //     if (user_vaccineCount == 0) {\n    //         return VaccineStatus.UNVACCINATED;\n    //     }\n    //     if (user_vaccineCount < required_vaccineCount) {\n    //         return VaccineStatus.PARTIALLY_VACCINATED;\n    //     }\n    //     if (user_vaccineCount == required_vaccineCount) {\n    //         return VaccineStatus.FULLY_VACCINATED;\n    //     }\n    // }\n\n    modifier onlySuperAdmin() {\n        require(\n            msg.sender == superAdmin,\n            \"Only admin can perform the function.\"\n        );\n        _;\n    }\n\n    function getApprovedOrganizations()\n        public\n        view\n        returns (OrgDetails[] memory)\n    {\n\t\t\tIGOrganizationFactory oFactory = IGOrganizationFactory(orgFactoryAddress);\n\t\t\treturn oFactory.getSpeficiedOrganizationDetails(approvedOrganizations);\n\t\t}\n\n    function getRegisteredOrganizations()\n        public\n        view\n        returns (OrgDetails[] memory)\n    {\n\t\t\tIGOrganizationFactory oFactory = IGOrganizationFactory(orgFactoryAddress);\n\t\t\treturn oFactory.getSpeficiedOrganizationDetails(registeredOrganizations);\n\t\t}\n}\n ",
  "sourcePath": "/home/prajwolrg/School/Vaccination/vaccine-solidity/contracts/Government.sol",
  "compiler": {
    "name": "solc",
    "version": "0.8.5+commit.a4f2e591.Emscripten.clang"
  },
  "schemaVersion": "3.4.4",
  "updatedAt": "2022-04-14T16:12:06.242Z",
  "networkType": "ethereum",
  "devdoc": {
    "kind": "dev",
    "methods": {},
    "version": 1
  },
  "userdoc": {
    "kind": "user",
    "methods": {},
    "version": 1
  }
}