{
  "contractName": "Government",
  "abi": [
    {
      "inputs": [
        {
          "internalType": "string",
          "name": "_name",
          "type": "string"
        },
        {
          "internalType": "string",
          "name": "_symbol",
          "type": "string"
        },
        {
          "internalType": "string",
          "name": "_ipfs_hash",
          "type": "string"
        }
      ],
      "stateMutability": "nonpayable",
      "type": "constructor"
    },
    {
      "anonymous": false,
      "inputs": [
        {
          "indexed": true,
          "internalType": "address",
          "name": "org",
          "type": "address"
        },
        {
          "indexed": true,
          "internalType": "string",
          "name": "name",
          "type": "string"
        },
        {
          "indexed": true,
          "internalType": "string",
          "name": "symbol",
          "type": "string"
        }
      ],
      "name": "OrganizationApproval",
      "type": "event"
    },
    {
      "anonymous": false,
      "inputs": [
        {
          "indexed": true,
          "internalType": "address",
          "name": "org",
          "type": "address"
        },
        {
          "indexed": true,
          "internalType": "string",
          "name": "name",
          "type": "string"
        },
        {
          "indexed": true,
          "internalType": "string",
          "name": "symbol",
          "type": "string"
        }
      ],
      "name": "OrganizationRegistration",
      "type": "event"
    },
    {
      "anonymous": false,
      "inputs": [
        {
          "indexed": true,
          "internalType": "address",
          "name": "user",
          "type": "address"
        }
      ],
      "name": "RegisterIndividual",
      "type": "event"
    },
    {
      "anonymous": false,
      "inputs": [
        {
          "indexed": true,
          "internalType": "address",
          "name": "user",
          "type": "address"
        },
        {
          "indexed": true,
          "internalType": "address",
          "name": "vaccine_address",
          "type": "address"
        },
        {
          "indexed": true,
          "internalType": "string",
          "name": "batch_id",
          "type": "string"
        }
      ],
      "name": "Vaccinate",
      "type": "event"
    },
    {
      "anonymous": false,
      "inputs": [
        {
          "indexed": true,
          "internalType": "address",
          "name": "vaccine",
          "type": "address"
        }
      ],
      "name": "VaccineApproved",
      "type": "event"
    },
    {
      "inputs": [],
      "name": "owner",
      "outputs": [
        {
          "internalType": "address",
          "name": "",
          "type": "address"
        }
      ],
      "stateMutability": "view",
      "type": "function",
      "constant": true
    },
    {
      "inputs": [
        {
          "internalType": "address",
          "name": "",
          "type": "address"
        }
      ],
      "name": "users",
      "outputs": [
        {
          "internalType": "uint256",
          "name": "year_of_birth",
          "type": "uint256"
        },
        {
          "internalType": "enum Government.Gender",
          "name": "gender",
          "type": "uint8"
        },
        {
          "internalType": "string",
          "name": "namehash",
          "type": "string"
        },
        {
          "internalType": "string",
          "name": "imagehash",
          "type": "string"
        },
        {
          "internalType": "bool",
          "name": "registered",
          "type": "bool"
        }
      ],
      "stateMutability": "view",
      "type": "function",
      "constant": true
    },
    {
      "inputs": [],
      "name": "name",
      "outputs": [
        {
          "internalType": "string",
          "name": "",
          "type": "string"
        }
      ],
      "stateMutability": "view",
      "type": "function",
      "constant": true
    },
    {
      "inputs": [],
      "name": "symbol",
      "outputs": [
        {
          "internalType": "string",
          "name": "",
          "type": "string"
        }
      ],
      "stateMutability": "view",
      "type": "function",
      "constant": true
    },
    {
      "inputs": [],
      "name": "ipfs_hash",
      "outputs": [
        {
          "internalType": "string",
          "name": "",
          "type": "string"
        }
      ],
      "stateMutability": "view",
      "type": "function",
      "constant": true
    },
    {
      "inputs": [
        {
          "internalType": "address",
          "name": "user_address",
          "type": "address"
        }
      ],
      "name": "getUser",
      "outputs": [
        {
          "components": [
            {
              "internalType": "uint256",
              "name": "year_of_birth",
              "type": "uint256"
            },
            {
              "internalType": "enum Government.Gender",
              "name": "gender",
              "type": "uint8"
            },
            {
              "internalType": "string",
              "name": "namehash",
              "type": "string"
            },
            {
              "internalType": "string",
              "name": "imagehash",
              "type": "string"
            },
            {
              "components": [
                {
                  "internalType": "address",
                  "name": "vaccine_address",
                  "type": "address"
                },
                {
                  "internalType": "string",
                  "name": "batch",
                  "type": "string"
                },
                {
                  "internalType": "uint256",
                  "name": "datetime",
                  "type": "uint256"
                }
              ],
              "internalType": "struct Government.Vaccine[]",
              "name": "vaccines",
              "type": "tuple[]"
            },
            {
              "internalType": "bool",
              "name": "registered",
              "type": "bool"
            }
          ],
          "internalType": "struct Government.User",
          "name": "",
          "type": "tuple"
        }
      ],
      "stateMutability": "view",
      "type": "function",
      "constant": true
    },
    {
      "inputs": [
        {
          "internalType": "address",
          "name": "vaccine",
          "type": "address"
        }
      ],
      "name": "approveVaccine",
      "outputs": [],
      "stateMutability": "nonpayable",
      "type": "function"
    },
    {
      "inputs": [
        {
          "internalType": "uint256",
          "name": "year_of_birth",
          "type": "uint256"
        },
        {
          "internalType": "enum Government.Gender",
          "name": "gender",
          "type": "uint8"
        },
        {
          "internalType": "string",
          "name": "namehash",
          "type": "string"
        },
        {
          "internalType": "string",
          "name": "imagehash",
          "type": "string"
        }
      ],
      "name": "registerIndividual",
      "outputs": [],
      "stateMutability": "nonpayable",
      "type": "function"
    },
    {
      "inputs": [
        {
          "internalType": "string",
          "name": "_name",
          "type": "string"
        },
        {
          "internalType": "string",
          "name": "_symbol",
          "type": "string"
        },
        {
          "internalType": "string",
          "name": "_ipfs_hash",
          "type": "string"
        }
      ],
      "name": "registerOrganization",
      "outputs": [],
      "stateMutability": "nonpayable",
      "type": "function"
    },
    {
      "inputs": [
        {
          "internalType": "address",
          "name": "org_address",
          "type": "address"
        }
      ],
      "name": "approveOrganization",
      "outputs": [],
      "stateMutability": "nonpayable",
      "type": "function"
    },
    {
      "inputs": [
        {
          "internalType": "address",
          "name": "to",
          "type": "address"
        },
        {
          "internalType": "address",
          "name": "vaccine_address",
          "type": "address"
        },
        {
          "internalType": "string",
          "name": "batch_id",
          "type": "string"
        }
      ],
      "name": "vaccinate",
      "outputs": [],
      "stateMutability": "nonpayable",
      "type": "function"
    },
    {
      "inputs": [
        {
          "internalType": "address",
          "name": "vaccine_address",
          "type": "address"
        }
      ],
      "name": "getRequiredVaccineCount",
      "outputs": [
        {
          "internalType": "uint256",
          "name": "",
          "type": "uint256"
        }
      ],
      "stateMutability": "view",
      "type": "function",
      "constant": true
    }
  ],
  "bytecode": "0x60806040523480156200001157600080fd5b50604051620028b2380380620028b28339818101604052810190620000379190620001f9565b336000806101000a81548173ffffffffffffffffffffffffffffffffffffffff021916908373ffffffffffffffffffffffffffffffffffffffff16021790555082600190805190602001906200008f929190620000cb565b508160029080519060200190620000a8929190620000cb565b508060039080519060200190620000c1929190620000cb565b5050505062000436565b828054620000d99062000347565b90600052602060002090601f016020900481019282620000fd576000855562000149565b82601f106200011857805160ff191683800117855562000149565b8280016001018555821562000149579182015b82811115620001485782518255916020019190600101906200012b565b5b5090506200015891906200015c565b5090565b5b80821115620001775760008160009055506001016200015d565b5090565b6000620001926200018c84620002db565b620002b2565b905082815260208101848484011115620001b157620001b062000416565b5b620001be84828562000311565b509392505050565b600082601f830112620001de57620001dd62000411565b5b8151620001f08482602086016200017b565b91505092915050565b60008060006060848603121562000215576200021462000420565b5b600084015167ffffffffffffffff8111156200023657620002356200041b565b5b6200024486828701620001c6565b935050602084015167ffffffffffffffff8111156200026857620002676200041b565b5b6200027686828701620001c6565b925050604084015167ffffffffffffffff8111156200029a57620002996200041b565b5b620002a886828701620001c6565b9150509250925092565b6000620002be620002d1565b9050620002cc82826200037d565b919050565b6000604051905090565b600067ffffffffffffffff821115620002f957620002f8620003e2565b5b620003048262000425565b9050602081019050919050565b60005b838110156200033157808201518184015260208101905062000314565b8381111562000341576000848401525b50505050565b600060028204905060018216806200036057607f821691505b60208210811415620003775762000376620003b3565b5b50919050565b620003888262000425565b810181811067ffffffffffffffff82111715620003aa57620003a9620003e2565b5b80604052505050565b7f4e487b7100000000000000000000000000000000000000000000000000000000600052602260045260246000fd5b7f4e487b7100000000000000000000000000000000000000000000000000000000600052604160045260246000fd5b600080fd5b600080fd5b600080fd5b600080fd5b6000601f19601f8301169050919050565b61246c80620004466000396000f3fe608060405234801561001057600080fd5b50600436106100b45760003560e01c8063809051db11610071578063809051db146101775780638ac4dc0e146101955780638da5cb5b146101c557806395d89b41146101e35780639cc5276114610201578063a87430ba1461021d576100b4565b806306fdde03146100b95780630794be4f146100d75780632ee5144f146100f35780635fa932e81461010f5780636f28cef91461012b5780636f77926b14610147575b600080fd5b6100c1610251565b6040516100ce9190611e4e565b60405180910390f35b6100f160048036038101906100ec9190611871565b6102e3565b005b61010d60048036038101906101089190611929565b6104f9565b005b610129600480360381019061012491906119fd565b610756565b005b61014560048036038101906101409190611844565b6109ef565b005b610161600480360381019061015c9190611844565b610a8d565b60405161016e9190611f50565b60405180910390f35b61017f610dbb565b60405161018c9190611e4e565b60405180910390f35b6101af60048036038101906101aa9190611844565b610e4d565b6040516101bc9190611f72565b60405180910390f35b6101cd610ed9565b6040516101da9190611e33565b60405180910390f35b6101eb610efd565b6040516101f89190611e4e565b60405180910390f35b61021b60048036038101906102169190611844565b610f8f565b005b61023760048036038101906102329190611844565b61142a565b604051610248959493929190611f8d565b60405180910390f35b60606001805461026090612164565b80601f016020809104026020016040519081016040528092919081815260200182805461028c90612164565b80156102d95780601f106102ae576101008083540402835291602001916102d9565b820191906000526020600020905b8154815290600101906020018083116102bc57829003601f168201915b5050505050905090565b600760003373ffffffffffffffffffffffffffffffffffffffff1673ffffffffffffffffffffffffffffffffffffffff16815260200190815260200160002060009054906101000a900460ff1661036f576040517f08c379a000000000000000000000000000000000000000000000000000000000815260040161036690611e70565b60405180910390fd5b6103788361158a565b600b60008473ffffffffffffffffffffffffffffffffffffffff1673ffffffffffffffffffffffffffffffffffffffff16815260200190815260200160002060040160405180606001604052808473ffffffffffffffffffffffffffffffffffffffff16815260200183815260200142815250908060018154018082558091505060019003906000526020600020906003020160009091909190915060008201518160000160006101000a81548173ffffffffffffffffffffffffffffffffffffffff021916908373ffffffffffffffffffffffffffffffffffffffff1602179055506020820151816001019080519060200190610477929190611623565b50604082015181600201555050806040516104929190611e1c565b60405180910390208273ffffffffffffffffffffffffffffffffffffffff168473ffffffffffffffffffffffffffffffffffffffff167f9a75fe3f17676affc24f086f5a7083548487770509445ac8b5460c965e5e626060405160405180910390a4505050565b600a816040516105099190611e1c565b908152602001604051809103902060009054906101000a900460ff1615610565576040517f08c379a000000000000000000000000000000000000000000000000000000000815260040161055c90611ed0565b60405180910390fd5b6008836040516105759190611e1c565b908152602001604051809103902060009054906101000a900460ff16156105d1576040517f08c379a00000000000000000000000000000000000000000000000000000000081526004016105c890611f30565b60405180910390fd5b6009826040516105e19190611e1c565b908152602001604051809103902060009054906101000a900460ff161561063d576040517f08c379a000000000000000000000000000000000000000000000000000000000815260040161063490611e90565b60405180910390fd5b6001600a8260405161064f9190611e1c565b908152602001604051809103902060006101000a81548160ff02191690831515021790555060016008846040516106869190611e1c565b908152602001604051809103902060006101000a81548160ff02191690831515021790555060016009836040516106bd9190611e1c565b908152602001604051809103902060006101000a81548160ff021916908315150217905550816040516106f09190611e1c565b6040518091039020836040516107069190611e1c565b60405180910390203373ffffffffffffffffffffffffffffffffffffffff167fb255ca779f863f852f19c3f0e9a3d0223e20abb1f1b1eda9dd4127587410f24b60405160405180910390a4505050565b60001515600b60003373ffffffffffffffffffffffffffffffffffffffff1673ffffffffffffffffffffffffffffffffffffffff16815260200190815260200160002060050160009054906101000a900460ff161515146107ec576040517f08c379a00000000000000000000000000000000000000000000000000000000081526004016107e390611eb0565b60405180910390fd5b83600b60003373ffffffffffffffffffffffffffffffffffffffff1673ffffffffffffffffffffffffffffffffffffffff1681526020019081526020016000206000018190555082600b60003373ffffffffffffffffffffffffffffffffffffffff1673ffffffffffffffffffffffffffffffffffffffff16815260200190815260200160002060010160006101000a81548160ff02191690836002811115610898576108976121c7565b5b021790555081600b60003373ffffffffffffffffffffffffffffffffffffffff1673ffffffffffffffffffffffffffffffffffffffff16815260200190815260200160002060020190805190602001906108f3929190611623565b5080600b60003373ffffffffffffffffffffffffffffffffffffffff1673ffffffffffffffffffffffffffffffffffffffff168152602001908152602001600020600301908051906020019061094a929190611623565b506001600b60003373ffffffffffffffffffffffffffffffffffffffff1673ffffffffffffffffffffffffffffffffffffffff16815260200190815260200160002060050160006101000a81548160ff0219169083151502179055503373ffffffffffffffffffffffffffffffffffffffff167fec2103278c3c80a6d7b51d03d161f98073de470c933d17309f7e46ebccd8c1ea60405160405180910390a250505050565b6001600660008373ffffffffffffffffffffffffffffffffffffffff1673ffffffffffffffffffffffffffffffffffffffff16815260200190815260200160002060006101000a81548160ff0219169083151502179055508073ffffffffffffffffffffffffffffffffffffffff167f099536b6271cc2d0994bb7793d3418af371ea9504e25339f266c43d84309bbec60405160405180910390a250565b610a956116a9565b600b60008373ffffffffffffffffffffffffffffffffffffffff1673ffffffffffffffffffffffffffffffffffffffff1681526020019081526020016000206040518060c0016040529081600082015481526020016001820160009054906101000a900460ff166002811115610b0e57610b0d6121c7565b5b6002811115610b2057610b1f6121c7565b5b8152602001600282018054610b3490612164565b80601f0160208091040260200160405190810160405280929190818152602001828054610b6090612164565b8015610bad5780601f10610b8257610100808354040283529160200191610bad565b820191906000526020600020905b815481529060010190602001808311610b9057829003601f168201915b50505050508152602001600382018054610bc690612164565b80601f0160208091040260200160405190810160405280929190818152602001828054610bf290612164565b8015610c3f5780601f10610c1457610100808354040283529160200191610c3f565b820191906000526020600020905b815481529060010190602001808311610c2257829003601f168201915b5050505050815260200160048201805480602002602001604051908101604052809291908181526020016000905b82821015610d9157838290600052602060002090600302016040518060600160405290816000820160009054906101000a900473ffffffffffffffffffffffffffffffffffffffff1673ffffffffffffffffffffffffffffffffffffffff1673ffffffffffffffffffffffffffffffffffffffff168152602001600182018054610cf690612164565b80601f0160208091040260200160405190810160405280929190818152602001828054610d2290612164565b8015610d6f5780601f10610d4457610100808354040283529160200191610d6f565b820191906000526020600020905b815481529060010190602001808311610d5257829003601f168201915b5050505050815260200160028201548152505081526020019060010190610c6d565b5050505081526020016005820160009054906101000a900460ff1615151515815250509050919050565b606060038054610dca90612164565b80601f0160208091040260200160405190810160405280929190818152602001828054610df690612164565b8015610e435780601f10610e1857610100808354040283529160200191610e43565b820191906000526020600020905b815481529060010190602001808311610e2657829003601f168201915b5050505050905090565b6000808290508073ffffffffffffffffffffffffffffffffffffffff16635bffa9916040518163ffffffff1660e01b815260040160206040518083038186803b158015610e9957600080fd5b505afa158015610ead573d6000803e3d6000fd5b505050506040513d601f19601f82011682018060405250810190610ed191906119d0565b915050919050565b60008054906101000a900473ffffffffffffffffffffffffffffffffffffffff1681565b606060028054610f0c90612164565b80601f0160208091040260200160405190810160405280929190818152602001828054610f3890612164565b8015610f855780601f10610f5a57610100808354040283529160200191610f85565b820191906000526020600020905b815481529060010190602001808311610f6857829003601f168201915b5050505050905090565b6000819050600a8173ffffffffffffffffffffffffffffffffffffffff1663809051db6040518163ffffffff1660e01b815260040160006040518083038186803b158015610fdc57600080fd5b505afa158015610ff0573d6000803e3d6000fd5b505050506040513d6000823e3d601f19601f8201168201806040525081019061101991906118e0565b6040516110269190611e1c565b908152602001604051809103902060009054906101000a900460ff16611081576040517f08c379a000000000000000000000000000000000000000000000000000000000815260040161107890611f10565b60405180910390fd5b60088173ffffffffffffffffffffffffffffffffffffffff166306fdde036040518163ffffffff1660e01b815260040160006040518083038186803b1580156110c957600080fd5b505afa1580156110dd573d6000803e3d6000fd5b505050506040513d6000823e3d601f19601f8201168201806040525081019061110691906118e0565b6040516111139190611e1c565b908152602001604051809103902060009054906101000a900460ff1661116e576040517f08c379a000000000000000000000000000000000000000000000000000000000815260040161116590611f10565b60405180910390fd5b60098173ffffffffffffffffffffffffffffffffffffffff166395d89b416040518163ffffffff1660e01b815260040160006040518083038186803b1580156111b657600080fd5b505afa1580156111ca573d6000803e3d6000fd5b505050506040513d6000823e3d601f19601f820116820180604052508101906111f391906118e0565b6040516112009190611e1c565b908152602001604051809103902060009054906101000a900460ff1661125b576040517f08c379a000000000000000000000000000000000000000000000000000000000815260040161125290611f10565b60405180910390fd5b6001600760008473ffffffffffffffffffffffffffffffffffffffff1673ffffffffffffffffffffffffffffffffffffffff16815260200190815260200160002060006101000a81548160ff0219169083151502179055508073ffffffffffffffffffffffffffffffffffffffff166395d89b416040518163ffffffff1660e01b815260040160006040518083038186803b1580156112f957600080fd5b505afa15801561130d573d6000803e3d6000fd5b505050506040513d6000823e3d601f19601f8201168201806040525081019061133691906118e0565b6040516113439190611e1c565b60405180910390208173ffffffffffffffffffffffffffffffffffffffff166306fdde036040518163ffffffff1660e01b815260040160006040518083038186803b15801561139157600080fd5b505afa1580156113a5573d6000803e3d6000fd5b505050506040513d6000823e3d601f19601f820116820180604052508101906113ce91906118e0565b6040516113db9190611e1c565b60405180910390208373ffffffffffffffffffffffffffffffffffffffff167f766c7fa2145043707ada5844e096d145ac69415335a16fae3f1d088c58c1cf4e60405160405180910390a45050565b600b6020528060005260406000206000915090508060000154908060010160009054906101000a900460ff169080600201805461146690612164565b80601f016020809104026020016040519081016040528092919081815260200182805461149290612164565b80156114df5780601f106114b4576101008083540402835291602001916114df565b820191906000526020600020905b8154815290600101906020018083116114c257829003601f168201915b5050505050908060030180546114f490612164565b80601f016020809104026020016040519081016040528092919081815260200182805461152090612164565b801561156d5780601f106115425761010080835404028352916020019161156d565b820191906000526020600020905b81548152906001019060200180831161155057829003601f168201915b5050505050908060050160009054906101000a900460ff16905085565b60011515600b60008373ffffffffffffffffffffffffffffffffffffffff1673ffffffffffffffffffffffffffffffffffffffff16815260200190815260200160002060050160009054906101000a900460ff16151514611620576040517f08c379a000000000000000000000000000000000000000000000000000000000815260040161161790611ef0565b60405180910390fd5b50565b82805461162f90612164565b90600052602060002090601f0160209004810192826116515760008555611698565b82601f1061166a57805160ff1916838001178555611698565b82800160010185558215611698579182015b8281111561169757825182559160200191906001019061167c565b5b5090506116a591906116f3565b5090565b6040518060c0016040528060008152602001600060028111156116cf576116ce6121c7565b5b81526020016060815260200160608152602001606081526020016000151581525090565b5b8082111561170c5760008160009055506001016116f4565b5090565b600061172361171e84612013565b611fee565b90508281526020810184848401111561173f5761173e612259565b5b61174a848285612122565b509392505050565b600061176561176084612013565b611fee565b90508281526020810184848401111561178157611780612259565b5b61178c848285612131565b509392505050565b6000813590506117a3816123f8565b92915050565b6000813590506117b88161240f565b92915050565b600082601f8301126117d3576117d2612254565b5b81356117e3848260208601611710565b91505092915050565b600082601f83011261180157611800612254565b5b8151611811848260208601611752565b91505092915050565b6000813590506118298161241f565b92915050565b60008151905061183e8161241f565b92915050565b60006020828403121561185a57611859612263565b5b600061186884828501611794565b91505092915050565b60008060006060848603121561188a57611889612263565b5b600061189886828701611794565b93505060206118a986828701611794565b925050604084013567ffffffffffffffff8111156118ca576118c961225e565b5b6118d6868287016117be565b9150509250925092565b6000602082840312156118f6576118f5612263565b5b600082015167ffffffffffffffff8111156119145761191361225e565b5b611920848285016117ec565b91505092915050565b60008060006060848603121561194257611941612263565b5b600084013567ffffffffffffffff8111156119605761195f61225e565b5b61196c868287016117be565b935050602084013567ffffffffffffffff81111561198d5761198c61225e565b5b611999868287016117be565b925050604084013567ffffffffffffffff8111156119ba576119b961225e565b5b6119c6868287016117be565b9150509250925092565b6000602082840312156119e6576119e5612263565b5b60006119f48482850161182f565b91505092915050565b60008060008060808587031215611a1757611a16612263565b5b6000611a258782880161181a565b9450506020611a36878288016117a9565b935050604085013567ffffffffffffffff811115611a5757611a5661225e565b5b611a63878288016117be565b925050606085013567ffffffffffffffff811115611a8457611a8361225e565b5b611a90878288016117be565b91505092959194509250565b6000611aa88383611dae565b905092915050565b611ab9816120b5565b82525050565b611ac8816120b5565b82525050565b6000611ad982612054565b611ae38185612077565b935083602082028501611af585612044565b8060005b85811015611b315784840389528151611b128582611a9c565b9450611b1d8361206a565b925060208a01995050600181019050611af9565b50829750879550505050505092915050565b611b4c816120c7565b82525050565b611b5b816120c7565b82525050565b611b6a81612110565b82525050565b611b7981612110565b82525050565b6000611b8a8261205f565b611b948185612088565b9350611ba4818560208601612131565b611bad81612268565b840191505092915050565b6000611bc38261205f565b611bcd8185612099565b9350611bdd818560208601612131565b611be681612268565b840191505092915050565b6000611bfc8261205f565b611c0681856120aa565b9350611c16818560208601612131565b80840191505092915050565b6000611c2f602983612099565b9150611c3a82612279565b604082019050919050565b6000611c52602283612099565b9150611c5d826122c8565b604082019050919050565b6000611c75601383612099565b9150611c8082612317565b602082019050919050565b6000611c98602083612099565b9150611ca382612340565b602082019050919050565b6000611cbb601183612099565b9150611cc682612369565b602082019050919050565b6000611cde601c83612099565b9150611ce982612392565b602082019050919050565b6000611d01602083612099565b9150611d0c826123bb565b602082019050919050565b600060c083016000830151611d2f6000860182611dfe565b506020830151611d426020860182611b61565b5060408301518482036040860152611d5a8282611b7f565b91505060608301518482036060860152611d748282611b7f565b91505060808301518482036080860152611d8e8282611ace565b91505060a0830151611da360a0860182611b43565b508091505092915050565b6000606083016000830151611dc66000860182611ab0565b5060208301518482036020860152611dde8282611b7f565b9150506040830151611df36040860182611dfe565b508091505092915050565b611e0781612106565b82525050565b611e1681612106565b82525050565b6000611e288284611bf1565b915081905092915050565b6000602082019050611e486000830184611abf565b92915050565b60006020820190508181036000830152611e688184611bb8565b905092915050565b60006020820190508181036000830152611e8981611c22565b9050919050565b60006020820190508181036000830152611ea981611c45565b9050919050565b60006020820190508181036000830152611ec981611c68565b9050919050565b60006020820190508181036000830152611ee981611c8b565b9050919050565b60006020820190508181036000830152611f0981611cae565b9050919050565b60006020820190508181036000830152611f2981611cd1565b9050919050565b60006020820190508181036000830152611f4981611cf4565b9050919050565b60006020820190508181036000830152611f6a8184611d17565b905092915050565b6000602082019050611f876000830184611e0d565b92915050565b600060a082019050611fa26000830188611e0d565b611faf6020830187611b70565b8181036040830152611fc18186611bb8565b90508181036060830152611fd58185611bb8565b9050611fe46080830184611b52565b9695505050505050565b6000611ff8612009565b90506120048282612196565b919050565b6000604051905090565b600067ffffffffffffffff82111561202e5761202d612225565b5b61203782612268565b9050602081019050919050565b6000819050602082019050919050565b600081519050919050565b600081519050919050565b6000602082019050919050565b600082825260208201905092915050565b600082825260208201905092915050565b600082825260208201905092915050565b600081905092915050565b60006120c0826120e6565b9050919050565b60008115159050919050565b60008190506120e1826123e4565b919050565b600073ffffffffffffffffffffffffffffffffffffffff82169050919050565b6000819050919050565b600061211b826120d3565b9050919050565b82818337600083830152505050565b60005b8381101561214f578082015181840152602081019050612134565b8381111561215e576000848401525b50505050565b6000600282049050600182168061217c57607f821691505b602082108114156121905761218f6121f6565b5b50919050565b61219f82612268565b810181811067ffffffffffffffff821117156121be576121bd612225565b5b80604052505050565b7f4e487b7100000000000000000000000000000000000000000000000000000000600052602160045260246000fd5b7f4e487b7100000000000000000000000000000000000000000000000000000000600052602260045260246000fd5b7f4e487b7100000000000000000000000000000000000000000000000000000000600052604160045260246000fd5b600080fd5b600080fd5b600080fd5b600080fd5b6000601f19601f8301169050919050565b7f4f6e6c7920617070726f766564206f7267616e697a6174696f6e2063616e207660008201527f616363696e6174652e0000000000000000000000000000000000000000000000602082015250565b7f4f7267616e697a6174696f6e2073796d626f6c20616c72656164792074616b6560008201527f6e2e000000000000000000000000000000000000000000000000000000000000602082015250565b7f416c726561647920726567697374657265642e00000000000000000000000000600082015250565b7f4f7267616e697a6174696f6e20616c726561647920726567697374657265642e600082015250565b7f556e726567697374657265642075736572000000000000000000000000000000600082015250565b7f4f7267616e697a6174696f6e206e6f7420726567697374657265642e00000000600082015250565b7f4f7267616e697a6174696f6e206e616d6520616c72656164792074616b656e2e600082015250565b600381106123f5576123f46121c7565b5b50565b612401816120b5565b811461240c57600080fd5b50565b6003811061241c57600080fd5b50565b61242881612106565b811461243357600080fd5b5056fea2646970667358221220b7a3382b6e369364dd5919acbb42e4f8fd8027de4ce779a72f512d021437d31a64736f6c63430008050033",
  "immutableReferences": {},
  "source": "// SPDX-License-Identifier: MIT\npragma solidity >= 0.7.5;\npragma experimental ABIEncoderV2;\n\nuint256 constant ORG_REGISTRATION_COST = 10;\n\ninterface IGOrganization {\n\tfunction name() external view returns(string memory);\n\tfunction symbol() external view returns(string memory);\n\tfunction ipfs_hash() external view returns(string memory);\n}\n\ninterface IGVaccine {\n  function approve(address to, uint256 batchId, uint256 quantity) external;\n  function transferFrom(address from, address to, uint256 batchId) external;\n  function getVaccineSchedule() external view returns(uint256[] memory);\n  function getVaccineScheduleLength() external view returns(uint256);\n}\n\ncontract Government {\n  address public owner;\n\n\tstring private name_;\n\tstring private symbol_;\n\tstring private ipfs_hash_;\n\n\tuint256 fully_vaccinated;\n\tuint256 partially_vaccinated;\n\n\tmapping(address => bool) vaccineApprovalStatus;\n\tmapping(address => bool) organizationApprovalStatus;\n\n\tmapping (string => bool) org_names;\n\tmapping (string => bool) org_symbols;\n\tmapping (string => bool) org_ipfs_hash;\n\n\tenum Gender {\n\t\t\tMALE,\n\t\t\tFEMALE,\n\t\t\tUNSPECIFIED\n\t}\n\n  enum VaccineStatus {\n      UNVACCINATED,\n      PARTIALLY_VACCINATED,\n      FULLY_VACCINATED\n  }\n\n\tstruct Vaccine {\n\t\taddress vaccine_address;\n\t\t// string vaccine_name;\n\t\tstring batch;\n\t\tuint256 datetime;\n\t}\n\n\n\tstruct User {\n\t\t\tuint256 year_of_birth;\n\t\t\tGender gender;\n\t\t\tstring namehash;\n\t\t\tstring imagehash;\n\t\t\tVaccine[] vaccines;\n\t\t\tbool registered;\n\t}\n\tmapping(address => User) public users;\n\n  event OrganizationApproval(address indexed org, string indexed name, string indexed symbol);\n\tevent OrganizationRegistration(address indexed org, string indexed name, string indexed symbol);\n\tevent VaccineApproved(address indexed vaccine);\n\tevent RegisterIndividual(address indexed user);\n  event Vaccinate(address indexed user, address indexed vaccine_address, string indexed batch_id);\n\n  // Constructor\n  constructor(string memory _name, string memory _symbol, string memory _ipfs_hash) {\n    owner = msg.sender;\n\t\tname_ = _name;\n\t\tsymbol_ = _symbol;\n\t\tipfs_hash_ = _ipfs_hash;\n  }\n\n\tfunction name() public view returns(string memory){\n\t\treturn name_;\n\t}\n\n\tfunction symbol() public view returns(string memory){\n\t\treturn symbol_;\n\t}\n\n\tfunction ipfs_hash() public view returns(string memory){\n\t\treturn ipfs_hash_;\n\t}\n\n\tfunction getUser(address user_address) public view returns(User memory) {\n\t\treturn users[user_address];\n\t}\n\n\tfunction approveVaccine(address vaccine) public {\n\t\tvaccineApprovalStatus[vaccine] = true;\n\t\temit VaccineApproved(vaccine);\n\t}\n\n\tfunction registerIndividual(\n\t\t\tuint256 year_of_birth,\n\t\t\tGender gender,\n\t\t\tstring memory namehash,\n\t\t\tstring memory imagehash\n\t) public {\n\t\t\trequire(users[msg.sender].registered == false, \"Already registered.\");\n\t\t\tusers[msg.sender].year_of_birth = year_of_birth;\n\t\t\tusers[msg.sender].gender = gender;\n\t\t\tusers[msg.sender].namehash = namehash;\n\t\t\tusers[msg.sender].imagehash = imagehash;\n\t\t\tusers[msg.sender].registered = true;\n\t\t\temit RegisterIndividual(msg.sender);\n\t}\n\n\tfunction registerOrganization(string memory _name, string memory _symbol, string memory _ipfs_hash)\n\t\t\tpublic\n\t{\n\t\t\t// if (msg.value < ORG_REGISTRATION_COST) {\n\t\t\t// \t\trevert(\"Insufficient amount.\");\n\t\t\t// }\n\t\t\trequire(!org_ipfs_hash[_ipfs_hash], \"Organization already registered.\");\n\t\t\trequire(!org_names[_name], \"Organization name already taken.\");\n\t\t\trequire(!org_symbols[_symbol], \"Organization symbol already taken.\");\n\t\t\torg_ipfs_hash[_ipfs_hash] = true;\n\t\t\torg_names[_name] = true;\n\t\t\torg_symbols[_symbol] = true;\n\t\t\temit OrganizationRegistration(msg.sender, _name, _symbol);\n\t}\n\n  function approveOrganization(address org_address) public {\n\t\tIGOrganization org = IGOrganization(org_address);\n\t\trequire(org_ipfs_hash[org.ipfs_hash()], \"Organization not registered.\");\n\t\trequire(org_names[org.name()], \"Organization not registered.\");\n\t\trequire(org_symbols[org.symbol()], \"Organization not registered.\");\n\t\torganizationApprovalStatus[org_address] = true;\n\t\temit OrganizationApproval(org_address, org.name(), org.symbol());\n  }\n\n\tfunction vaccinate(\n\t\t\taddress to,\n\t\t\taddress vaccine_address,\n\t\t\tstring memory batch_id\n\t) public onlyApprovedOrganization {\n\t\t\tcheckUserRegistration(to);\n\t\t\tusers[to].vaccines.push(Vaccine(vaccine_address, batch_id, block.timestamp));\n\t\t\t// users[to].vaccine_address = vaccine_address;\n\t\t\t// users[to].batches.push(batch_id);\n\t\t\t// users[to].datetime.push(block.timestamp);\n\t\t\t// users[to].vaccine_count += 1;\n\t\t\t// changeStatus(to);\n\t\t\temit Vaccinate(to, vaccine_address, batch_id);\n\t}\n\n    modifier onlyApprovedOrganization() {\n        require(organizationApprovalStatus[msg.sender], \"Only approved organization can vaccinate.\");\n        _;\n    }\n\n    function checkUserRegistration(address user) private view {\n        require(users[user].registered == true, \"Unregistered user\");\n    }\n\n    function getRequiredVaccineCount(address vaccine_address)\n        public\n        view\n        returns (uint256)\n    {\n        IGVaccine vaccine = IGVaccine(vaccine_address);\n        return vaccine.getVaccineScheduleLength();\n    }\n\n    // function changeStatus(address user) private {\n    //     VaccineStatus status = getVaccineStatusOf(user);\n    //     if (status == VaccineStatus.FULLY_VACCINATED) {\n    //       fully_vaccinated += 1;\n    //     }\n    //     if (status == VaccineStatus.PARTIALLY_VACCINATED) {\n    //       \tpartially_vaccinated += 1;\n    //     }\n    // }\n\n    // function getVaccineStatusOf(address user)\n    //     public\n    //     view\n    //     returns (VaccineStatus status)\n    // {\n    //     uint256 user_vaccineCount = users[user].vaccine_count;\n    //     uint256 required_vaccineCount = getRequiredVaccineCount(users[user].vaccine_address);\n\n    //     if (user_vaccineCount == 0) {\n    //         return VaccineStatus.UNVACCINATED;\n    //     }\n    //     if (user_vaccineCount < required_vaccineCount) {\n    //         return VaccineStatus.PARTIALLY_VACCINATED;\n    //     }\n    //     if (user_vaccineCount == required_vaccineCount) {\n    //         return VaccineStatus.FULLY_VACCINATED;\n    //     }\n    // }\n\n\n\n}\n",
  "sourcePath": "/home/prajwolrg/School/Vaccination/vaccine-solidity/contracts/Government.sol",
  "compiler": {
    "name": "solc",
    "version": "0.8.5+commit.a4f2e591.Emscripten.clang"
  },
  "schemaVersion": "3.4.4",
  "updatedAt": "2022-04-14T08:50:44.075Z",
  "networkType": "ethereum",
  "devdoc": {
    "kind": "dev",
    "methods": {},
    "version": 1
  },
  "userdoc": {
    "kind": "user",
    "methods": {},
    "version": 1
  }
}