{
  "contractName": "Government",
  "abi": [
    {
      "inputs": [
        {
          "internalType": "string",
          "name": "_name",
          "type": "string"
        },
        {
          "internalType": "string",
          "name": "_symbol",
          "type": "string"
        },
        {
          "internalType": "string",
          "name": "_ipfs_hash",
          "type": "string"
        }
      ],
      "stateMutability": "nonpayable",
      "type": "constructor"
    },
    {
      "anonymous": false,
      "inputs": [
        {
          "indexed": true,
          "internalType": "address",
          "name": "org",
          "type": "address"
        },
        {
          "indexed": true,
          "internalType": "string",
          "name": "name",
          "type": "string"
        },
        {
          "indexed": true,
          "internalType": "string",
          "name": "symbol",
          "type": "string"
        }
      ],
      "name": "OrganizationApproval",
      "type": "event"
    },
    {
      "anonymous": false,
      "inputs": [
        {
          "indexed": true,
          "internalType": "address",
          "name": "org",
          "type": "address"
        },
        {
          "indexed": true,
          "internalType": "string",
          "name": "name",
          "type": "string"
        },
        {
          "indexed": true,
          "internalType": "string",
          "name": "symbol",
          "type": "string"
        }
      ],
      "name": "OrganizationRegistration",
      "type": "event"
    },
    {
      "anonymous": false,
      "inputs": [
        {
          "indexed": true,
          "internalType": "address",
          "name": "user",
          "type": "address"
        }
      ],
      "name": "RegisterIndividual",
      "type": "event"
    },
    {
      "anonymous": false,
      "inputs": [
        {
          "indexed": true,
          "internalType": "address",
          "name": "user",
          "type": "address"
        },
        {
          "indexed": true,
          "internalType": "address",
          "name": "vaccine_address",
          "type": "address"
        },
        {
          "indexed": true,
          "internalType": "uint256",
          "name": "batch_id",
          "type": "uint256"
        }
      ],
      "name": "Vaccinate",
      "type": "event"
    },
    {
      "anonymous": false,
      "inputs": [
        {
          "indexed": true,
          "internalType": "address",
          "name": "vaccine",
          "type": "address"
        }
      ],
      "name": "VaccineApproved",
      "type": "event"
    },
    {
      "inputs": [],
      "name": "owner",
      "outputs": [
        {
          "internalType": "address",
          "name": "",
          "type": "address"
        }
      ],
      "stateMutability": "view",
      "type": "function",
      "constant": true
    },
    {
      "inputs": [
        {
          "internalType": "address",
          "name": "",
          "type": "address"
        }
      ],
      "name": "users",
      "outputs": [
        {
          "internalType": "uint256",
          "name": "year_of_birth",
          "type": "uint256"
        },
        {
          "internalType": "enum Government.Gender",
          "name": "gender",
          "type": "uint8"
        },
        {
          "internalType": "string",
          "name": "namehash",
          "type": "string"
        },
        {
          "internalType": "string",
          "name": "imagehash",
          "type": "string"
        },
        {
          "internalType": "address",
          "name": "vaccine_address",
          "type": "address"
        },
        {
          "internalType": "uint256",
          "name": "vaccine_count",
          "type": "uint256"
        },
        {
          "internalType": "bool",
          "name": "registered",
          "type": "bool"
        }
      ],
      "stateMutability": "view",
      "type": "function",
      "constant": true
    },
    {
      "inputs": [],
      "name": "name",
      "outputs": [
        {
          "internalType": "string",
          "name": "",
          "type": "string"
        }
      ],
      "stateMutability": "view",
      "type": "function",
      "constant": true
    },
    {
      "inputs": [],
      "name": "symbol",
      "outputs": [
        {
          "internalType": "string",
          "name": "",
          "type": "string"
        }
      ],
      "stateMutability": "view",
      "type": "function",
      "constant": true
    },
    {
      "inputs": [],
      "name": "ipfs_hash",
      "outputs": [
        {
          "internalType": "string",
          "name": "",
          "type": "string"
        }
      ],
      "stateMutability": "view",
      "type": "function",
      "constant": true
    },
    {
      "inputs": [
        {
          "internalType": "address",
          "name": "user_address",
          "type": "address"
        }
      ],
      "name": "getUser",
      "outputs": [
        {
          "components": [
            {
              "internalType": "uint256",
              "name": "year_of_birth",
              "type": "uint256"
            },
            {
              "internalType": "enum Government.Gender",
              "name": "gender",
              "type": "uint8"
            },
            {
              "internalType": "string",
              "name": "namehash",
              "type": "string"
            },
            {
              "internalType": "string",
              "name": "imagehash",
              "type": "string"
            },
            {
              "internalType": "address",
              "name": "vaccine_address",
              "type": "address"
            },
            {
              "internalType": "uint256[]",
              "name": "batches",
              "type": "uint256[]"
            },
            {
              "internalType": "uint256[]",
              "name": "datetime",
              "type": "uint256[]"
            },
            {
              "internalType": "uint256",
              "name": "vaccine_count",
              "type": "uint256"
            },
            {
              "internalType": "bool",
              "name": "registered",
              "type": "bool"
            }
          ],
          "internalType": "struct Government.User",
          "name": "",
          "type": "tuple"
        }
      ],
      "stateMutability": "view",
      "type": "function",
      "constant": true
    },
    {
      "inputs": [
        {
          "internalType": "address",
          "name": "vaccine",
          "type": "address"
        }
      ],
      "name": "approveVaccine",
      "outputs": [],
      "stateMutability": "nonpayable",
      "type": "function"
    },
    {
      "inputs": [
        {
          "internalType": "uint256",
          "name": "year_of_birth",
          "type": "uint256"
        },
        {
          "internalType": "enum Government.Gender",
          "name": "gender",
          "type": "uint8"
        },
        {
          "internalType": "string",
          "name": "namehash",
          "type": "string"
        },
        {
          "internalType": "string",
          "name": "imagehash",
          "type": "string"
        }
      ],
      "name": "registerIndividual",
      "outputs": [],
      "stateMutability": "nonpayable",
      "type": "function"
    },
    {
      "inputs": [
        {
          "internalType": "string",
          "name": "_name",
          "type": "string"
        },
        {
          "internalType": "string",
          "name": "_symbol",
          "type": "string"
        },
        {
          "internalType": "string",
          "name": "_ipfs_hash",
          "type": "string"
        }
      ],
      "name": "registerOrganization",
      "outputs": [],
      "stateMutability": "nonpayable",
      "type": "function"
    },
    {
      "inputs": [
        {
          "internalType": "address",
          "name": "org_address",
          "type": "address"
        }
      ],
      "name": "approveOrganization",
      "outputs": [],
      "stateMutability": "nonpayable",
      "type": "function"
    },
    {
      "inputs": [
        {
          "internalType": "address",
          "name": "to",
          "type": "address"
        },
        {
          "internalType": "address",
          "name": "vaccine_address",
          "type": "address"
        },
        {
          "internalType": "uint256",
          "name": "batch_id",
          "type": "uint256"
        }
      ],
      "name": "vaccinate",
      "outputs": [],
      "stateMutability": "nonpayable",
      "type": "function"
    },
    {
      "inputs": [
        {
          "internalType": "address",
          "name": "user",
          "type": "address"
        }
      ],
      "name": "getUserVaccineCount",
      "outputs": [
        {
          "internalType": "uint256",
          "name": "",
          "type": "uint256"
        }
      ],
      "stateMutability": "view",
      "type": "function",
      "constant": true
    },
    {
      "inputs": [
        {
          "internalType": "address",
          "name": "vaccine_address",
          "type": "address"
        }
      ],
      "name": "getRequiredVaccineCount",
      "outputs": [
        {
          "internalType": "uint256",
          "name": "",
          "type": "uint256"
        }
      ],
      "stateMutability": "view",
      "type": "function",
      "constant": true
    },
    {
      "inputs": [
        {
          "internalType": "address",
          "name": "user",
          "type": "address"
        }
      ],
      "name": "getVaccineStatusOf",
      "outputs": [
        {
          "internalType": "enum Government.VaccineStatus",
          "name": "status",
          "type": "uint8"
        }
      ],
      "stateMutability": "view",
      "type": "function",
      "constant": true
    }
  ],
  "bytecode": "0x60806040523480156200001157600080fd5b5060405162002ca938038062002ca98339818101604052810190620000379190620001f9565b336000806101000a81548173ffffffffffffffffffffffffffffffffffffffff021916908373ffffffffffffffffffffffffffffffffffffffff16021790555082600190805190602001906200008f929190620000cb565b508160029080519060200190620000a8929190620000cb565b508060039080519060200190620000c1929190620000cb565b5050505062000436565b828054620000d99062000347565b90600052602060002090601f016020900481019282620000fd576000855562000149565b82601f106200011857805160ff191683800117855562000149565b8280016001018555821562000149579182015b82811115620001485782518255916020019190600101906200012b565b5b5090506200015891906200015c565b5090565b5b80821115620001775760008160009055506001016200015d565b5090565b6000620001926200018c84620002db565b620002b2565b905082815260208101848484011115620001b157620001b062000416565b5b620001be84828562000311565b509392505050565b600082601f830112620001de57620001dd62000411565b5b8151620001f08482602086016200017b565b91505092915050565b60008060006060848603121562000215576200021462000420565b5b600084015167ffffffffffffffff8111156200023657620002356200041b565b5b6200024486828701620001c6565b935050602084015167ffffffffffffffff8111156200026857620002676200041b565b5b6200027686828701620001c6565b925050604084015167ffffffffffffffff8111156200029a57620002996200041b565b5b620002a886828701620001c6565b9150509250925092565b6000620002be620002d1565b9050620002cc82826200037d565b919050565b6000604051905090565b600067ffffffffffffffff821115620002f957620002f8620003e2565b5b620003048262000425565b9050602081019050919050565b60005b838110156200033157808201518184015260208101905062000314565b8381111562000341576000848401525b50505050565b600060028204905060018216806200036057607f821691505b60208210811415620003775762000376620003b3565b5b50919050565b620003888262000425565b810181811067ffffffffffffffff82111715620003aa57620003a9620003e2565b5b80604052505050565b7f4e487b7100000000000000000000000000000000000000000000000000000000600052602260045260246000fd5b7f4e487b7100000000000000000000000000000000000000000000000000000000600052604160045260246000fd5b600080fd5b600080fd5b600080fd5b600080fd5b6000601f19601f8301169050919050565b61286380620004466000396000f3fe608060405234801561001057600080fd5b50600436106100ea5760003560e01c8063809051db1161008c57806391db02f81161006657806391db02f81461024957806395d89b41146102795780639cc5276114610297578063a87430ba146102b3576100ea565b8063809051db146101dd5780638ac4dc0e146101fb5780638da5cb5b1461022b576100ea565b80635fa932e8116100c85780635fa932e8146101455780636b847d55146101615780636f28cef9146101915780636f77926b146101ad576100ea565b806306fdde03146100ef5780632ee5144f1461010d5780635b99672a14610129575b600080fd5b6100f76102e9565b604051610104919061216b565b60405180910390f35b61012760048036038101906101229190611c3c565b61037b565b005b610143600480360381019061013e9190611ba0565b6105d8565b005b61015f600480360381019061015a9190611d10565b610883565b005b61017b60048036038101906101769190611b73565b610b1c565b604051610188919061228f565b60405180910390f35b6101ab60048036038101906101a69190611b73565b610b6d565b005b6101c760048036038101906101c29190611b73565b610c0b565b6040516101d4919061226d565b60405180910390f35b6101e5610ef9565b6040516101f2919061216b565b60405180910390f35b61021560048036038101906102109190611b73565b610f8b565b604051610222919061228f565b60405180910390f35b610233611017565b6040516102409190612135565b60405180910390f35b610263600480360381019061025e9190611b73565b61103b565b6040516102709190612150565b60405180910390f35b610281611134565b60405161028e919061216b565b60405180910390f35b6102b160048036038101906102ac9190611b73565b6111c6565b005b6102cd60048036038101906102c89190611b73565b611661565b6040516102e097969594939291906122aa565b60405180910390f35b6060600180546102f890612518565b80601f016020809104026020016040519081016040528092919081815260200182805461032490612518565b80156103715780601f1061034657610100808354040283529160200191610371565b820191906000526020600020905b81548152906001019060200180831161035457829003601f168201915b5050505050905090565b600a8160405161038b919061211e565b908152602001604051809103902060009054906101000a900460ff16156103e7576040517f08c379a00000000000000000000000000000000000000000000000000000000081526004016103de906121ed565b60405180910390fd5b6008836040516103f7919061211e565b908152602001604051809103902060009054906101000a900460ff1615610453576040517f08c379a000000000000000000000000000000000000000000000000000000000815260040161044a9061224d565b60405180910390fd5b600982604051610463919061211e565b908152602001604051809103902060009054906101000a900460ff16156104bf576040517f08c379a00000000000000000000000000000000000000000000000000000000081526004016104b6906121ad565b60405180910390fd5b6001600a826040516104d1919061211e565b908152602001604051809103902060006101000a81548160ff0219169083151502179055506001600884604051610508919061211e565b908152602001604051809103902060006101000a81548160ff021916908315150217905550600160098360405161053f919061211e565b908152602001604051809103902060006101000a81548160ff02191690831515021790555081604051610572919061211e565b604051809103902083604051610588919061211e565b60405180910390203373ffffffffffffffffffffffffffffffffffffffff167fb255ca779f863f852f19c3f0e9a3d0223e20abb1f1b1eda9dd4127587410f24b60405160405180910390a4505050565b600760003373ffffffffffffffffffffffffffffffffffffffff1673ffffffffffffffffffffffffffffffffffffffff16815260200190815260200160002060009054906101000a900460ff16610664576040517f08c379a000000000000000000000000000000000000000000000000000000000815260040161065b9061218d565b60405180910390fd5b61066d836117ed565b81600b60008573ffffffffffffffffffffffffffffffffffffffff1673ffffffffffffffffffffffffffffffffffffffff16815260200190815260200160002060040160006101000a81548173ffffffffffffffffffffffffffffffffffffffff021916908373ffffffffffffffffffffffffffffffffffffffff160217905550600b60008473ffffffffffffffffffffffffffffffffffffffff1673ffffffffffffffffffffffffffffffffffffffff168152602001908152602001600020600501819080600181540180825580915050600190039060005260206000200160009091909190915055600b60008473ffffffffffffffffffffffffffffffffffffffff1673ffffffffffffffffffffffffffffffffffffffff1681526020019081526020016000206006014290806001815401808255809150506001900390600052602060002001600090919091909150556001600b60008573ffffffffffffffffffffffffffffffffffffffff1673ffffffffffffffffffffffffffffffffffffffff168152602001908152602001600020600701600082825461081391906123ee565b9250508190555061082383611886565b808273ffffffffffffffffffffffffffffffffffffffff168473ffffffffffffffffffffffffffffffffffffffff167f9e6af0c684915377edf9066ce801180417552e33b396c07ec717a6fa7e7a6aa460405160405180910390a4505050565b60001515600b60003373ffffffffffffffffffffffffffffffffffffffff1673ffffffffffffffffffffffffffffffffffffffff16815260200190815260200160002060080160009054906101000a900460ff16151514610919576040517f08c379a0000000000000000000000000000000000000000000000000000000008152600401610910906121cd565b60405180910390fd5b83600b60003373ffffffffffffffffffffffffffffffffffffffff1673ffffffffffffffffffffffffffffffffffffffff1681526020019081526020016000206000018190555082600b60003373ffffffffffffffffffffffffffffffffffffffff1673ffffffffffffffffffffffffffffffffffffffff16815260200190815260200160002060010160006101000a81548160ff021916908360028111156109c5576109c46125aa565b5b021790555081600b60003373ffffffffffffffffffffffffffffffffffffffff1673ffffffffffffffffffffffffffffffffffffffff1681526020019081526020016000206002019080519060200190610a20929190611926565b5080600b60003373ffffffffffffffffffffffffffffffffffffffff1673ffffffffffffffffffffffffffffffffffffffff1681526020019081526020016000206003019080519060200190610a77929190611926565b506001600b60003373ffffffffffffffffffffffffffffffffffffffff1673ffffffffffffffffffffffffffffffffffffffff16815260200190815260200160002060080160006101000a81548160ff0219169083151502179055503373ffffffffffffffffffffffffffffffffffffffff167fec2103278c3c80a6d7b51d03d161f98073de470c933d17309f7e46ebccd8c1ea60405160405180910390a250505050565b600080600b60008473ffffffffffffffffffffffffffffffffffffffff1673ffffffffffffffffffffffffffffffffffffffff16815260200190815260200160002060070154905080915050919050565b6001600660008373ffffffffffffffffffffffffffffffffffffffff1673ffffffffffffffffffffffffffffffffffffffff16815260200190815260200160002060006101000a81548160ff0219169083151502179055508073ffffffffffffffffffffffffffffffffffffffff167f099536b6271cc2d0994bb7793d3418af371ea9504e25339f266c43d84309bbec60405160405180910390a250565b610c136119ac565b600b60008373ffffffffffffffffffffffffffffffffffffffff1673ffffffffffffffffffffffffffffffffffffffff16815260200190815260200160002060405180610120016040529081600082015481526020016001820160009054906101000a900460ff166002811115610c8d57610c8c6125aa565b5b6002811115610c9f57610c9e6125aa565b5b8152602001600282018054610cb390612518565b80601f0160208091040260200160405190810160405280929190818152602001828054610cdf90612518565b8015610d2c5780601f10610d0157610100808354040283529160200191610d2c565b820191906000526020600020905b815481529060010190602001808311610d0f57829003601f168201915b50505050508152602001600382018054610d4590612518565b80601f0160208091040260200160405190810160405280929190818152602001828054610d7190612518565b8015610dbe5780601f10610d9357610100808354040283529160200191610dbe565b820191906000526020600020905b815481529060010190602001808311610da157829003601f168201915b505050505081526020016004820160009054906101000a900473ffffffffffffffffffffffffffffffffffffffff1673ffffffffffffffffffffffffffffffffffffffff1673ffffffffffffffffffffffffffffffffffffffff16815260200160058201805480602002602001604051908101604052809291908181526020018280548015610e6c57602002820191906000526020600020905b815481526020019060010190808311610e58575b5050505050815260200160068201805480602002602001604051908101604052809291908181526020018280548015610ec457602002820191906000526020600020905b815481526020019060010190808311610eb0575b50505050508152602001600782015481526020016008820160009054906101000a900460ff1615151515815250509050919050565b606060038054610f0890612518565b80601f0160208091040260200160405190810160405280929190818152602001828054610f3490612518565b8015610f815780601f10610f5657610100808354040283529160200191610f81565b820191906000526020600020905b815481529060010190602001808311610f6457829003601f168201915b5050505050905090565b6000808290508073ffffffffffffffffffffffffffffffffffffffff16635bffa9916040518163ffffffff1660e01b815260040160206040518083038186803b158015610fd757600080fd5b505afa158015610feb573d6000803e3d6000fd5b505050506040513d601f19601f8201168201806040525081019061100f9190611ce3565b915050919050565b60008054906101000a900473ffffffffffffffffffffffffffffffffffffffff1681565b600080600b60008473ffffffffffffffffffffffffffffffffffffffff1673ffffffffffffffffffffffffffffffffffffffff16815260200190815260200160002060070154905060006110f0600b60008673ffffffffffffffffffffffffffffffffffffffff1673ffffffffffffffffffffffffffffffffffffffff16815260200190815260200160002060040160009054906101000a900473ffffffffffffffffffffffffffffffffffffffff16610f8b565b905060008214156111065760009250505061112f565b808210156111195760019250505061112f565b8082141561112c5760029250505061112f565b50505b919050565b60606002805461114390612518565b80601f016020809104026020016040519081016040528092919081815260200182805461116f90612518565b80156111bc5780601f10611191576101008083540402835291602001916111bc565b820191906000526020600020905b81548152906001019060200180831161119f57829003601f168201915b5050505050905090565b6000819050600a8173ffffffffffffffffffffffffffffffffffffffff1663809051db6040518163ffffffff1660e01b815260040160006040518083038186803b15801561121357600080fd5b505afa158015611227573d6000803e3d6000fd5b505050506040513d6000823e3d601f19601f820116820180604052508101906112509190611bf3565b60405161125d919061211e565b908152602001604051809103902060009054906101000a900460ff166112b8576040517f08c379a00000000000000000000000000000000000000000000000000000000081526004016112af9061222d565b60405180910390fd5b60088173ffffffffffffffffffffffffffffffffffffffff166306fdde036040518163ffffffff1660e01b815260040160006040518083038186803b15801561130057600080fd5b505afa158015611314573d6000803e3d6000fd5b505050506040513d6000823e3d601f19601f8201168201806040525081019061133d9190611bf3565b60405161134a919061211e565b908152602001604051809103902060009054906101000a900460ff166113a5576040517f08c379a000000000000000000000000000000000000000000000000000000000815260040161139c9061222d565b60405180910390fd5b60098173ffffffffffffffffffffffffffffffffffffffff166395d89b416040518163ffffffff1660e01b815260040160006040518083038186803b1580156113ed57600080fd5b505afa158015611401573d6000803e3d6000fd5b505050506040513d6000823e3d601f19601f8201168201806040525081019061142a9190611bf3565b604051611437919061211e565b908152602001604051809103902060009054906101000a900460ff16611492576040517f08c379a00000000000000000000000000000000000000000000000000000000081526004016114899061222d565b60405180910390fd5b6001600760008473ffffffffffffffffffffffffffffffffffffffff1673ffffffffffffffffffffffffffffffffffffffff16815260200190815260200160002060006101000a81548160ff0219169083151502179055508073ffffffffffffffffffffffffffffffffffffffff166395d89b416040518163ffffffff1660e01b815260040160006040518083038186803b15801561153057600080fd5b505afa158015611544573d6000803e3d6000fd5b505050506040513d6000823e3d601f19601f8201168201806040525081019061156d9190611bf3565b60405161157a919061211e565b60405180910390208173ffffffffffffffffffffffffffffffffffffffff166306fdde036040518163ffffffff1660e01b815260040160006040518083038186803b1580156115c857600080fd5b505afa1580156115dc573d6000803e3d6000fd5b505050506040513d6000823e3d601f19601f820116820180604052508101906116059190611bf3565b604051611612919061211e565b60405180910390208373ffffffffffffffffffffffffffffffffffffffff167f766c7fa2145043707ada5844e096d145ac69415335a16fae3f1d088c58c1cf4e60405160405180910390a45050565b600b6020528060005260406000206000915090508060000154908060010160009054906101000a900460ff169080600201805461169d90612518565b80601f01602080910402602001604051908101604052809291908181526020018280546116c990612518565b80156117165780601f106116eb57610100808354040283529160200191611716565b820191906000526020600020905b8154815290600101906020018083116116f957829003601f168201915b50505050509080600301805461172b90612518565b80601f016020809104026020016040519081016040528092919081815260200182805461175790612518565b80156117a45780601f10611779576101008083540402835291602001916117a4565b820191906000526020600020905b81548152906001019060200180831161178757829003601f168201915b5050505050908060040160009054906101000a900473ffffffffffffffffffffffffffffffffffffffff16908060070154908060080160009054906101000a900460ff16905087565b60011515600b60008373ffffffffffffffffffffffffffffffffffffffff1673ffffffffffffffffffffffffffffffffffffffff16815260200190815260200160002060080160009054906101000a900460ff16151514611883576040517f08c379a000000000000000000000000000000000000000000000000000000000815260040161187a9061220d565b60405180910390fd5b50565b60006118918261103b565b90506002808111156118a6576118a56125aa565b5b8160028111156118b9576118b86125aa565b5b14156118da576001600460008282546118d291906123ee565b925050819055505b600160028111156118ee576118ed6125aa565b5b816002811115611901576119006125aa565b5b14156119225760016005600082825461191a91906123ee565b925050819055505b5050565b82805461193290612518565b90600052602060002090601f016020900481019282611954576000855561199b565b82601f1061196d57805160ff191683800117855561199b565b8280016001018555821561199b579182015b8281111561199a57825182559160200191906001019061197f565b5b5090506119a89190611a22565b5090565b60405180610120016040528060008152602001600060028111156119d3576119d26125aa565b5b81526020016060815260200160608152602001600073ffffffffffffffffffffffffffffffffffffffff1681526020016060815260200160608152602001600081526020016000151581525090565b5b80821115611a3b576000816000905550600101611a23565b5090565b6000611a52611a4d8461234c565b612327565b905082815260208101848484011115611a6e57611a6d61263c565b5b611a798482856124d6565b509392505050565b6000611a94611a8f8461234c565b612327565b905082815260208101848484011115611ab057611aaf61263c565b5b611abb8482856124e5565b509392505050565b600081359050611ad2816127ef565b92915050565b600081359050611ae781612806565b92915050565b600082601f830112611b0257611b01612637565b5b8135611b12848260208601611a3f565b91505092915050565b600082601f830112611b3057611b2f612637565b5b8151611b40848260208601611a81565b91505092915050565b600081359050611b5881612816565b92915050565b600081519050611b6d81612816565b92915050565b600060208284031215611b8957611b88612646565b5b6000611b9784828501611ac3565b91505092915050565b600080600060608486031215611bb957611bb8612646565b5b6000611bc786828701611ac3565b9350506020611bd886828701611ac3565b9250506040611be986828701611b49565b9150509250925092565b600060208284031215611c0957611c08612646565b5b600082015167ffffffffffffffff811115611c2757611c26612641565b5b611c3384828501611b1b565b91505092915050565b600080600060608486031215611c5557611c54612646565b5b600084013567ffffffffffffffff811115611c7357611c72612641565b5b611c7f86828701611aed565b935050602084013567ffffffffffffffff811115611ca057611c9f612641565b5b611cac86828701611aed565b925050604084013567ffffffffffffffff811115611ccd57611ccc612641565b5b611cd986828701611aed565b9150509250925092565b600060208284031215611cf957611cf8612646565b5b6000611d0784828501611b5e565b91505092915050565b60008060008060808587031215611d2a57611d29612646565b5b6000611d3887828801611b49565b9450506020611d4987828801611ad8565b935050604085013567ffffffffffffffff811115611d6a57611d69612641565b5b611d7687828801611aed565b925050606085013567ffffffffffffffff811115611d9757611d96612641565b5b611da387828801611aed565b91505092959194509250565b6000611dbb8383612100565b60208301905092915050565b611dd081612444565b82525050565b611ddf81612444565b82525050565b6000611df08261238d565b611dfa81856123b0565b9350611e058361237d565b8060005b83811015611e36578151611e1d8882611daf565b9750611e28836123a3565b925050600181019050611e09565b5085935050505092915050565b611e4c81612456565b82525050565b611e5b81612456565b82525050565b611e6a816124b2565b82525050565b611e79816124b2565b82525050565b611e88816124c4565b82525050565b6000611e9982612398565b611ea381856123c1565b9350611eb38185602086016124e5565b611ebc8161264b565b840191505092915050565b6000611ed282612398565b611edc81856123d2565b9350611eec8185602086016124e5565b611ef58161264b565b840191505092915050565b6000611f0b82612398565b611f1581856123e3565b9350611f258185602086016124e5565b80840191505092915050565b6000611f3e6029836123d2565b9150611f498261265c565b604082019050919050565b6000611f616022836123d2565b9150611f6c826126ab565b604082019050919050565b6000611f846013836123d2565b9150611f8f826126fa565b602082019050919050565b6000611fa76020836123d2565b9150611fb282612723565b602082019050919050565b6000611fca6011836123d2565b9150611fd58261274c565b602082019050919050565b6000611fed601c836123d2565b9150611ff882612775565b602082019050919050565b60006120106020836123d2565b915061201b8261279e565b602082019050919050565b60006101208301600083015161203f6000860182612100565b5060208301516120526020860182611e61565b506040830151848203604086015261206a8282611e8e565b915050606083015184820360608601526120848282611e8e565b91505060808301516120996080860182611dc7565b5060a083015184820360a08601526120b18282611de5565b91505060c083015184820360c08601526120cb8282611de5565b91505060e08301516120e060e0860182612100565b506101008301516120f5610100860182611e43565b508091505092915050565b612109816124a8565b82525050565b612118816124a8565b82525050565b600061212a8284611f00565b915081905092915050565b600060208201905061214a6000830184611dd6565b92915050565b60006020820190506121656000830184611e7f565b92915050565b600060208201905081810360008301526121858184611ec7565b905092915050565b600060208201905081810360008301526121a681611f31565b9050919050565b600060208201905081810360008301526121c681611f54565b9050919050565b600060208201905081810360008301526121e681611f77565b9050919050565b6000602082019050818103600083015261220681611f9a565b9050919050565b6000602082019050818103600083015261222681611fbd565b9050919050565b6000602082019050818103600083015261224681611fe0565b9050919050565b6000602082019050818103600083015261226681612003565b9050919050565b600060208201905081810360008301526122878184612026565b905092915050565b60006020820190506122a4600083018461210f565b92915050565b600060e0820190506122bf600083018a61210f565b6122cc6020830189611e70565b81810360408301526122de8188611ec7565b905081810360608301526122f28187611ec7565b90506123016080830186611dd6565b61230e60a083018561210f565b61231b60c0830184611e52565b98975050505050505050565b6000612331612342565b905061233d828261254a565b919050565b6000604051905090565b600067ffffffffffffffff82111561236757612366612608565b5b6123708261264b565b9050602081019050919050565b6000819050602082019050919050565b600081519050919050565b600081519050919050565b6000602082019050919050565b600082825260208201905092915050565b600082825260208201905092915050565b600082825260208201905092915050565b600081905092915050565b60006123f9826124a8565b9150612404836124a8565b9250827fffffffffffffffffffffffffffffffffffffffffffffffffffffffffffffffff038211156124395761243861257b565b5b828201905092915050565b600061244f82612488565b9050919050565b60008115159050919050565b6000819050612470826127c7565b919050565b6000819050612483826127db565b919050565b600073ffffffffffffffffffffffffffffffffffffffff82169050919050565b6000819050919050565b60006124bd82612462565b9050919050565b60006124cf82612475565b9050919050565b82818337600083830152505050565b60005b838110156125035780820151818401526020810190506124e8565b83811115612512576000848401525b50505050565b6000600282049050600182168061253057607f821691505b60208210811415612544576125436125d9565b5b50919050565b6125538261264b565b810181811067ffffffffffffffff8211171561257257612571612608565b5b80604052505050565b7f4e487b7100000000000000000000000000000000000000000000000000000000600052601160045260246000fd5b7f4e487b7100000000000000000000000000000000000000000000000000000000600052602160045260246000fd5b7f4e487b7100000000000000000000000000000000000000000000000000000000600052602260045260246000fd5b7f4e487b7100000000000000000000000000000000000000000000000000000000600052604160045260246000fd5b600080fd5b600080fd5b600080fd5b600080fd5b6000601f19601f8301169050919050565b7f4f6e6c7920617070726f766564206f7267616e697a6174696f6e2063616e207660008201527f616363696e6174652e0000000000000000000000000000000000000000000000602082015250565b7f4f7267616e697a6174696f6e2073796d626f6c20616c72656164792074616b6560008201527f6e2e000000000000000000000000000000000000000000000000000000000000602082015250565b7f416c726561647920726567697374657265642e00000000000000000000000000600082015250565b7f4f7267616e697a6174696f6e20616c726561647920726567697374657265642e600082015250565b7f556e726567697374657265642075736572000000000000000000000000000000600082015250565b7f4f7267616e697a6174696f6e206e6f7420726567697374657265642e00000000600082015250565b7f4f7267616e697a6174696f6e206e616d6520616c72656164792074616b656e2e600082015250565b600381106127d8576127d76125aa565b5b50565b600381106127ec576127eb6125aa565b5b50565b6127f881612444565b811461280357600080fd5b50565b6003811061281357600080fd5b50565b61281f816124a8565b811461282a57600080fd5b5056fea2646970667358221220e5e7e34d3585ee0504f72ea2ebb47fbd29a8a0b0580998d1c713f7615b627d4964736f6c63430008050033",
  "immutableReferences": {},
  "source": "// SPDX-License-Identifier: MIT\npragma solidity >= 0.7.5;\npragma experimental ABIEncoderV2;\n\nuint256 constant ORG_REGISTRATION_COST = 10;\n\ninterface IGOrganization {\n\tfunction name() external view returns(string memory);\n\tfunction symbol() external view returns(string memory);\n\tfunction ipfs_hash() external view returns(string memory);\n}\n\ninterface IGVaccine {\n  function approve(address to, uint256 batchId, uint256 quantity) external;\n  function transferFrom(address from, address to, uint256 batchId) external;\n  function getVaccineSchedule() external view returns(uint256[] memory);\n  function getVaccineScheduleLength() external view returns(uint256);\n}\n\ncontract Government {\n  address public owner;\n\n\tstring private name_;\n\tstring private symbol_;\n\tstring private ipfs_hash_;\n\n\tuint256 fully_vaccinated;\n\tuint256 partially_vaccinated;\n\n\tmapping(address => bool) vaccineApprovalStatus;\n\tmapping(address => bool) organizationApprovalStatus;\n\n\tmapping (string => bool) org_names;\n\tmapping (string => bool) org_symbols;\n\tmapping (string => bool) org_ipfs_hash;\n\n\tenum Gender {\n\t\t\tMALE,\n\t\t\tFEMALE,\n\t\t\tUNSPECIFIED\n\t}\n\n  enum VaccineStatus {\n      UNVACCINATED,\n      PARTIALLY_VACCINATED,\n      FULLY_VACCINATED\n  }\n\n\n\tstruct User {\n\t\t\tuint256 year_of_birth;\n\t\t\tGender gender;\n\t\t\tstring namehash;\n\t\t\tstring imagehash;\n\t\t\taddress vaccine_address;\n\t\t\tuint256[] batches;\n\t\t\tuint256[] datetime;\n\t\t\tuint256 vaccine_count;\n\t\t\tbool registered;\n\t}\n\tmapping(address => User) public users;\n\n  event OrganizationApproval(address indexed org, string indexed name, string indexed symbol);\n\tevent OrganizationRegistration(address indexed org, string indexed name, string indexed symbol);\n\tevent VaccineApproved(address indexed vaccine);\n\tevent RegisterIndividual(address indexed user);\n  event Vaccinate(address indexed user, address indexed vaccine_address, uint256 indexed batch_id);\n\n  // Constructor\n  constructor(string memory _name, string memory _symbol, string memory _ipfs_hash) {\n    owner = msg.sender;\n\t\tname_ = _name;\n\t\tsymbol_ = _symbol;\n\t\tipfs_hash_ = _ipfs_hash;\n  }\n\n\tfunction name() public view returns(string memory){\n\t\treturn name_;\n\t}\n\n\tfunction symbol() public view returns(string memory){\n\t\treturn symbol_;\n\t}\n\n\tfunction ipfs_hash() public view returns(string memory){\n\t\treturn ipfs_hash_;\n\t}\n\n\tfunction getUser(address user_address) public view returns(User memory) {\n\t\treturn users[user_address];\n\t}\n\n\tfunction approveVaccine(address vaccine) public {\n\t\tvaccineApprovalStatus[vaccine] = true;\n\t\temit VaccineApproved(vaccine);\n\t}\n\n\tfunction registerIndividual(\n\t\t\tuint256 year_of_birth,\n\t\t\tGender gender,\n\t\t\tstring memory namehash,\n\t\t\tstring memory imagehash\n\t) public {\n\t\t\trequire(users[msg.sender].registered == false, \"Already registered.\");\n\t\t\tusers[msg.sender].year_of_birth = year_of_birth;\n\t\t\tusers[msg.sender].gender = gender;\n\t\t\tusers[msg.sender].namehash = namehash;\n\t\t\tusers[msg.sender].imagehash = imagehash;\n\t\t\tusers[msg.sender].registered = true;\n\t\t\temit RegisterIndividual(msg.sender);\n\t}\n\n\tfunction registerOrganization(string memory _name, string memory _symbol, string memory _ipfs_hash)\n\t\t\tpublic\n\t{\n\t\t\t// if (msg.value < ORG_REGISTRATION_COST) {\n\t\t\t// \t\trevert(\"Insufficient amount.\");\n\t\t\t// }\n\t\t\trequire(!org_ipfs_hash[_ipfs_hash], \"Organization already registered.\");\n\t\t\trequire(!org_names[_name], \"Organization name already taken.\");\n\t\t\trequire(!org_symbols[_symbol], \"Organization symbol already taken.\");\n\t\t\torg_ipfs_hash[_ipfs_hash] = true;\n\t\t\torg_names[_name] = true;\n\t\t\torg_symbols[_symbol] = true;\n\t\t\temit OrganizationRegistration(msg.sender, _name, _symbol);\n\t}\n\n  function approveOrganization(address org_address) public {\n\t\tIGOrganization org = IGOrganization(org_address);\n\t\trequire(org_ipfs_hash[org.ipfs_hash()], \"Organization not registered.\");\n\t\trequire(org_names[org.name()], \"Organization not registered.\");\n\t\trequire(org_symbols[org.symbol()], \"Organization not registered.\");\n\t\torganizationApprovalStatus[org_address] = true;\n\t\temit OrganizationApproval(org_address, org.name(), org.symbol());\n  }\n\n\tfunction vaccinate(\n\t\t\taddress to,\n\t\t\taddress vaccine_address,\n\t\t\tuint256 batch_id\n\t) public onlyApprovedOrganization {\n\t\t\tcheckUserRegistration(to);\n\t\t\tusers[to].vaccine_address = vaccine_address;\n\t\t\tusers[to].batches.push(batch_id);\n\t\t\tusers[to].datetime.push(block.timestamp);\n\t\t\tusers[to].vaccine_count += 1;\n\t\t\tchangeStatus(to);\n\t\t\temit Vaccinate(to, vaccine_address, batch_id);\n\t}\n\n    modifier onlyApprovedOrganization() {\n        require(organizationApprovalStatus[msg.sender], \"Only approved organization can vaccinate.\");\n        _;\n    }\n\n    function checkUserRegistration(address user) private view {\n        require(users[user].registered == true, \"Unregistered user\");\n    }\n\n    function getUserVaccineCount(address user) public view returns (uint256) {\n        uint256 count = users[user].vaccine_count;\n        return count;\n    }\n\n    function getRequiredVaccineCount(address vaccine_address)\n        public\n        view\n        returns (uint256)\n    {\n        IGVaccine vaccine = IGVaccine(vaccine_address);\n        return vaccine.getVaccineScheduleLength();\n    }\n\n    function changeStatus(address user) private {\n        VaccineStatus status = getVaccineStatusOf(user);\n        if (status == VaccineStatus.FULLY_VACCINATED) {\n          fully_vaccinated += 1;\n        }\n        if (status == VaccineStatus.PARTIALLY_VACCINATED) {\n          \tpartially_vaccinated += 1;\n        }\n    }\n\n    function getVaccineStatusOf(address user)\n        public\n        view\n        returns (VaccineStatus status)\n    {\n        uint256 user_vaccineCount = users[user].vaccine_count;\n        uint256 required_vaccineCount = getRequiredVaccineCount(users[user].vaccine_address);\n\n        if (user_vaccineCount == 0) {\n            return VaccineStatus.UNVACCINATED;\n        }\n        if (user_vaccineCount < required_vaccineCount) {\n            return VaccineStatus.PARTIALLY_VACCINATED;\n        }\n        if (user_vaccineCount == required_vaccineCount) {\n            return VaccineStatus.FULLY_VACCINATED;\n        }\n    }\n\n\n\n}\n",
  "sourcePath": "/home/prajwolrg/School/Vaccination/vaccine-solidity/contracts/Government.sol",
  "compiler": {
    "name": "solc",
    "version": "0.8.5+commit.a4f2e591.Emscripten.clang"
  },
  "schemaVersion": "3.4.4",
  "updatedAt": "2022-04-14T05:36:12.859Z",
  "networkType": "ethereum",
  "devdoc": {
    "kind": "dev",
    "methods": {},
    "version": 1
  },
  "userdoc": {
    "kind": "user",
    "methods": {},
    "version": 1
  }
}