{
  "contractName": "Government",
  "abi": [
    {
      "inputs": [
        {
          "internalType": "string",
          "name": "_name",
          "type": "string"
        },
        {
          "internalType": "string",
          "name": "_symbol",
          "type": "string"
        },
        {
          "internalType": "string",
          "name": "_ipfs_hash",
          "type": "string"
        },
        {
          "internalType": "address",
          "name": "vFactory",
          "type": "address"
        },
        {
          "internalType": "address",
          "name": "oFactory",
          "type": "address"
        }
      ],
      "stateMutability": "nonpayable",
      "type": "constructor"
    },
    {
      "anonymous": false,
      "inputs": [
        {
          "indexed": true,
          "internalType": "address",
          "name": "org",
          "type": "address"
        }
      ],
      "name": "OrganizationApproval",
      "type": "event"
    },
    {
      "anonymous": false,
      "inputs": [
        {
          "indexed": true,
          "internalType": "address",
          "name": "org",
          "type": "address"
        }
      ],
      "name": "OrganizationRegistration",
      "type": "event"
    },
    {
      "anonymous": false,
      "inputs": [
        {
          "indexed": true,
          "internalType": "address",
          "name": "user",
          "type": "address"
        }
      ],
      "name": "RegisterIndividual",
      "type": "event"
    },
    {
      "anonymous": false,
      "inputs": [
        {
          "indexed": true,
          "internalType": "address",
          "name": "user",
          "type": "address"
        },
        {
          "indexed": true,
          "internalType": "address",
          "name": "vaccine_address",
          "type": "address"
        },
        {
          "indexed": true,
          "internalType": "string",
          "name": "batch_id",
          "type": "string"
        }
      ],
      "name": "Vaccinate",
      "type": "event"
    },
    {
      "anonymous": false,
      "inputs": [
        {
          "indexed": true,
          "internalType": "address",
          "name": "vaccine",
          "type": "address"
        }
      ],
      "name": "VaccineApproved",
      "type": "event"
    },
    {
      "inputs": [],
      "name": "orgFactoryAddress",
      "outputs": [
        {
          "internalType": "address",
          "name": "",
          "type": "address"
        }
      ],
      "stateMutability": "view",
      "type": "function",
      "constant": true
    },
    {
      "inputs": [
        {
          "internalType": "address",
          "name": "",
          "type": "address"
        }
      ],
      "name": "organizationApprovalStatus",
      "outputs": [
        {
          "internalType": "bool",
          "name": "",
          "type": "bool"
        }
      ],
      "stateMutability": "view",
      "type": "function",
      "constant": true
    },
    {
      "inputs": [],
      "name": "owner",
      "outputs": [
        {
          "internalType": "address",
          "name": "",
          "type": "address"
        }
      ],
      "stateMutability": "view",
      "type": "function",
      "constant": true
    },
    {
      "inputs": [],
      "name": "superAdmin",
      "outputs": [
        {
          "internalType": "address",
          "name": "",
          "type": "address"
        }
      ],
      "stateMutability": "view",
      "type": "function",
      "constant": true
    },
    {
      "inputs": [
        {
          "internalType": "address",
          "name": "",
          "type": "address"
        }
      ],
      "name": "users",
      "outputs": [
        {
          "internalType": "uint256",
          "name": "year_of_birth",
          "type": "uint256"
        },
        {
          "internalType": "enum Government.Gender",
          "name": "gender",
          "type": "uint8"
        },
        {
          "internalType": "string",
          "name": "namehash",
          "type": "string"
        },
        {
          "internalType": "string",
          "name": "imagehash",
          "type": "string"
        },
        {
          "internalType": "bool",
          "name": "registered",
          "type": "bool"
        },
        {
          "internalType": "address",
          "name": "org",
          "type": "address"
        }
      ],
      "stateMutability": "view",
      "type": "function",
      "constant": true
    },
    {
      "inputs": [
        {
          "internalType": "address",
          "name": "",
          "type": "address"
        }
      ],
      "name": "vaccineApprovalStatus",
      "outputs": [
        {
          "internalType": "bool",
          "name": "",
          "type": "bool"
        }
      ],
      "stateMutability": "view",
      "type": "function",
      "constant": true
    },
    {
      "inputs": [],
      "name": "vaccineFactoryAddress",
      "outputs": [
        {
          "internalType": "address",
          "name": "",
          "type": "address"
        }
      ],
      "stateMutability": "view",
      "type": "function",
      "constant": true
    },
    {
      "inputs": [],
      "name": "name",
      "outputs": [
        {
          "internalType": "string",
          "name": "",
          "type": "string"
        }
      ],
      "stateMutability": "view",
      "type": "function",
      "constant": true
    },
    {
      "inputs": [],
      "name": "symbol",
      "outputs": [
        {
          "internalType": "string",
          "name": "",
          "type": "string"
        }
      ],
      "stateMutability": "view",
      "type": "function",
      "constant": true
    },
    {
      "inputs": [],
      "name": "ipfs_hash",
      "outputs": [
        {
          "internalType": "string",
          "name": "",
          "type": "string"
        }
      ],
      "stateMutability": "view",
      "type": "function",
      "constant": true
    },
    {
      "inputs": [
        {
          "internalType": "address",
          "name": "user_address",
          "type": "address"
        }
      ],
      "name": "getUser",
      "outputs": [
        {
          "components": [
            {
              "internalType": "uint256",
              "name": "year_of_birth",
              "type": "uint256"
            },
            {
              "internalType": "enum Government.Gender",
              "name": "gender",
              "type": "uint8"
            },
            {
              "internalType": "string",
              "name": "namehash",
              "type": "string"
            },
            {
              "internalType": "string",
              "name": "imagehash",
              "type": "string"
            },
            {
              "components": [
                {
                  "internalType": "address",
                  "name": "vaccine_address",
                  "type": "address"
                },
                {
                  "internalType": "string",
                  "name": "vaccine_name",
                  "type": "string"
                },
                {
                  "internalType": "string",
                  "name": "batch",
                  "type": "string"
                },
                {
                  "internalType": "uint256",
                  "name": "datetime",
                  "type": "uint256"
                },
                {
                  "internalType": "address",
                  "name": "org",
                  "type": "address"
                },
                {
                  "internalType": "string",
                  "name": "org_name",
                  "type": "string"
                },
                {
                  "internalType": "address",
                  "name": "hp",
                  "type": "address"
                }
              ],
              "internalType": "struct Government.Vaccine[]",
              "name": "vaccines",
              "type": "tuple[]"
            },
            {
              "internalType": "bool",
              "name": "registered",
              "type": "bool"
            },
            {
              "internalType": "address",
              "name": "org",
              "type": "address"
            }
          ],
          "internalType": "struct Government.User",
          "name": "",
          "type": "tuple"
        }
      ],
      "stateMutability": "view",
      "type": "function",
      "constant": true
    },
    {
      "inputs": [
        {
          "internalType": "address",
          "name": "vaccine",
          "type": "address"
        }
      ],
      "name": "approveVaccine",
      "outputs": [],
      "stateMutability": "nonpayable",
      "type": "function"
    },
    {
      "inputs": [
        {
          "internalType": "address",
          "name": "vaccine",
          "type": "address"
        }
      ],
      "name": "getVaccineApprovalStatus",
      "outputs": [
        {
          "internalType": "bool",
          "name": "",
          "type": "bool"
        }
      ],
      "stateMutability": "view",
      "type": "function",
      "constant": true
    },
    {
      "inputs": [
        {
          "internalType": "address",
          "name": "org",
          "type": "address"
        }
      ],
      "name": "getOrganizationApprovalStatus",
      "outputs": [
        {
          "internalType": "bool",
          "name": "",
          "type": "bool"
        }
      ],
      "stateMutability": "view",
      "type": "function",
      "constant": true
    },
    {
      "inputs": [
        {
          "internalType": "uint256",
          "name": "year_of_birth",
          "type": "uint256"
        },
        {
          "internalType": "enum Government.Gender",
          "name": "gender",
          "type": "uint8"
        },
        {
          "internalType": "string",
          "name": "namehash",
          "type": "string"
        },
        {
          "internalType": "string",
          "name": "imagehash",
          "type": "string"
        }
      ],
      "name": "registerIndividual",
      "outputs": [],
      "stateMutability": "nonpayable",
      "type": "function"
    },
    {
      "inputs": [],
      "name": "registerOrganization",
      "outputs": [],
      "stateMutability": "nonpayable",
      "type": "function"
    },
    {
      "inputs": [
        {
          "internalType": "address",
          "name": "org_address",
          "type": "address"
        }
      ],
      "name": "approveOrganization",
      "outputs": [],
      "stateMutability": "nonpayable",
      "type": "function"
    },
    {
      "inputs": [
        {
          "internalType": "address",
          "name": "person",
          "type": "address"
        }
      ],
      "name": "approveHealthPerson",
      "outputs": [],
      "stateMutability": "nonpayable",
      "type": "function"
    },
    {
      "inputs": [
        {
          "internalType": "address",
          "name": "person",
          "type": "address"
        }
      ],
      "name": "disapproveHealthPerson",
      "outputs": [],
      "stateMutability": "nonpayable",
      "type": "function"
    },
    {
      "inputs": [
        {
          "internalType": "address",
          "name": "to",
          "type": "address"
        },
        {
          "internalType": "address",
          "name": "vaccine_address",
          "type": "address"
        },
        {
          "internalType": "string",
          "name": "batch_id",
          "type": "string"
        }
      ],
      "name": "vaccinate",
      "outputs": [],
      "stateMutability": "nonpayable",
      "type": "function"
    },
    {
      "inputs": [
        {
          "internalType": "address",
          "name": "vaccine_address",
          "type": "address"
        }
      ],
      "name": "getRequiredVaccineCount",
      "outputs": [
        {
          "internalType": "uint256",
          "name": "",
          "type": "uint256"
        }
      ],
      "stateMutability": "view",
      "type": "function",
      "constant": true
    },
    {
      "inputs": [],
      "name": "getApprovedOrganizations",
      "outputs": [
        {
          "components": [
            {
              "internalType": "string",
              "name": "name",
              "type": "string"
            },
            {
              "internalType": "string",
              "name": "url",
              "type": "string"
            },
            {
              "internalType": "string",
              "name": "logo_hash",
              "type": "string"
            },
            {
              "internalType": "string",
              "name": "document_hash",
              "type": "string"
            },
            {
              "internalType": "string",
              "name": "location",
              "type": "string"
            },
            {
              "internalType": "string",
              "name": "phone",
              "type": "string"
            },
            {
              "internalType": "string",
              "name": "email",
              "type": "string"
            }
          ],
          "internalType": "struct OrgDetails[]",
          "name": "",
          "type": "tuple[]"
        }
      ],
      "stateMutability": "view",
      "type": "function",
      "constant": true
    },
    {
      "inputs": [],
      "name": "getRegisteredOrganizations",
      "outputs": [
        {
          "components": [
            {
              "internalType": "string",
              "name": "name",
              "type": "string"
            },
            {
              "internalType": "string",
              "name": "url",
              "type": "string"
            },
            {
              "internalType": "string",
              "name": "logo_hash",
              "type": "string"
            },
            {
              "internalType": "string",
              "name": "document_hash",
              "type": "string"
            },
            {
              "internalType": "string",
              "name": "location",
              "type": "string"
            },
            {
              "internalType": "string",
              "name": "phone",
              "type": "string"
            },
            {
              "internalType": "string",
              "name": "email",
              "type": "string"
            }
          ],
          "internalType": "struct OrgDetails[]",
          "name": "",
          "type": "tuple[]"
        }
      ],
      "stateMutability": "view",
      "type": "function",
      "constant": true
    }
  ],
  "bytecode": "0x60806040523480156200001157600080fd5b50604051620038d1380380620038d18339818101604052810190620000379190620002d5565b336000806101000a81548173ffffffffffffffffffffffffffffffffffffffff021916908373ffffffffffffffffffffffffffffffffffffffff16021790555084600190805190602001906200008f92919062000190565b508360029080519060200190620000a892919062000190565b508260039080519060200190620000c192919062000190565b5080601260006101000a81548173ffffffffffffffffffffffffffffffffffffffff021916908373ffffffffffffffffffffffffffffffffffffffff16021790555081601160006101000a81548173ffffffffffffffffffffffffffffffffffffffff021916908373ffffffffffffffffffffffffffffffffffffffff16021790555033601060006101000a81548173ffffffffffffffffffffffffffffffffffffffff021916908373ffffffffffffffffffffffffffffffffffffffff16021790555050505050506200058c565b8280546200019e9062000483565b90600052602060002090601f016020900481019282620001c257600085556200020e565b82601f10620001dd57805160ff19168380011785556200020e565b828001600101855582156200020e579182015b828111156200020d578251825591602001919060010190620001f0565b5b5090506200021d919062000221565b5090565b5b808211156200023c57600081600090555060010162000222565b5090565b6000620002576200025184620003e3565b620003ba565b90508281526020810184848401111562000276576200027562000552565b5b620002838482856200044d565b509392505050565b6000815190506200029c8162000572565b92915050565b600082601f830112620002ba57620002b96200054d565b5b8151620002cc84826020860162000240565b91505092915050565b600080600080600060a08688031215620002f457620002f36200055c565b5b600086015167ffffffffffffffff81111562000315576200031462000557565b5b6200032388828901620002a2565b955050602086015167ffffffffffffffff81111562000347576200034662000557565b5b6200035588828901620002a2565b945050604086015167ffffffffffffffff81111562000379576200037862000557565b5b6200038788828901620002a2565b93505060606200039a888289016200028b565b9250506080620003ad888289016200028b565b9150509295509295909350565b6000620003c6620003d9565b9050620003d48282620004b9565b919050565b6000604051905090565b600067ffffffffffffffff8211156200040157620004006200051e565b5b6200040c8262000561565b9050602081019050919050565b600062000426826200042d565b9050919050565b600073ffffffffffffffffffffffffffffffffffffffff82169050919050565b60005b838110156200046d57808201518184015260208101905062000450565b838111156200047d576000848401525b50505050565b600060028204905060018216806200049c57607f821691505b60208210811415620004b357620004b2620004ef565b5b50919050565b620004c48262000561565b810181811067ffffffffffffffff82111715620004e657620004e56200051e565b5b80604052505050565b7f4e487b7100000000000000000000000000000000000000000000000000000000600052602260045260246000fd5b7f4e487b7100000000000000000000000000000000000000000000000000000000600052604160045260246000fd5b600080fd5b600080fd5b600080fd5b600080fd5b6000601f19601f8301169050919050565b6200057d8162000419565b81146200058957600080fd5b50565b613335806200059c6000396000f3fe608060405234801561001057600080fd5b506004361061014d5760003560e01c80636f77926b116100c35780639cc527611161007c5780639cc527611461039e578063a87430ba146103ba578063ba333394146103ef578063ec06ea651461040d578063f1a0625d1461042b578063fcc8bd5c146104495761014d565b80636f77926b146102b4578063809051db146102e45780638ac4dc0e146103025780638da5cb5b1461033257806395d0109f1461035057806395d89b41146103805761014d565b806353e42da31161011557806353e42da3146101e2578063542977e0146101ec57806355bfb4381461021c5780635d3ed95a1461024c5780635fa932e81461027c5780636f28cef9146102985761014d565b806306fdde03146101525780630794be4f1461017057806325de97ef1461018c578063281481d5146101a857806329575f6a146101c4575b600080fd5b61015a610467565b6040516101679190612bd7565b60405180910390f35b61018a600480360381019061018591906123c0565b6104f9565b005b6101a660048036038101906101a19190612393565b61093d565b005b6101c260048036038101906101bd9190612393565b610b9c565b005b6101cc610cb6565b6040516101d99190612b5d565b60405180910390f35b6101ea610cdc565b005b61020660048036038101906102019190612393565b610d84565b6040516102139190612bbc565b60405180910390f35b61023660048036038101906102319190612393565b610da4565b6040516102439190612bbc565b60405180910390f35b61026660048036038101906102619190612393565b610dfa565b6040516102739190612bbc565b60405180910390f35b610296600480360381019061029191906124ee565b610e50565b005b6102b260048036038101906102ad9190612393565b6110e9565b005b6102ce60048036038101906102c99190612393565b611307565b6040516102db9190612cd9565b60405180910390f35b6102ec61185b565b6040516102f99190612bd7565b60405180910390f35b61031c60048036038101906103179190612393565b6118ed565b6040516103299190612cfb565b60405180910390f35b61033a611979565b6040516103479190612b5d565b60405180910390f35b61036a60048036038101906103659190612393565b61199d565b6040516103779190612bbc565b60405180910390f35b6103886119bd565b6040516103959190612bd7565b60405180910390f35b6103b860048036038101906103b39190612393565b611a4f565b005b6103d460048036038101906103cf9190612393565b611b3a565b6040516103e696959493929190612d16565b60405180910390f35b6103f7611cc0565b6040516104049190612b9a565b60405180910390f35b610415611d7e565b6040516104229190612b5d565b60405180910390f35b610433611da4565b6040516104409190612b9a565b60405180910390f35b610451611e62565b60405161045e9190612b5d565b60405180910390f35b60606001805461047690612fbe565b80601f01602080910402602001604051908101604052809291908181526020018280546104a290612fbe565b80156104ef5780601f106104c4576101008083540402835291602001916104ef565b820191906000526020600020905b8154815290600101906020018083116104d257829003601f168201915b5050505050905090565b600760003373ffffffffffffffffffffffffffffffffffffffff1673ffffffffffffffffffffffffffffffffffffffff16815260200190815260200160002060009054906101000a900460ff16610585576040517f08c379a000000000000000000000000000000000000000000000000000000000815260040161057c90612bf9565b60405180910390fd5b61058e83611e88565b600082905060008173ffffffffffffffffffffffffffffffffffffffff166306fdde036040518163ffffffff1660e01b815260040160006040518083038186803b1580156105db57600080fd5b505afa1580156105ef573d6000803e3d6000fd5b505050506040513d6000823e3d601f19601f820116820180604052508101906106189190612478565b9050600033905060008173ffffffffffffffffffffffffffffffffffffffff166306fdde036040518163ffffffff1660e01b815260040160006040518083038186803b15801561066757600080fd5b505afa15801561067b573d6000803e3d6000fd5b505050506040513d6000823e3d601f19601f820116820180604052508101906106a49190612478565b90506000329050600f60008973ffffffffffffffffffffffffffffffffffffffff1673ffffffffffffffffffffffffffffffffffffffff1681526020019081526020016000206004016040518060e001604052808973ffffffffffffffffffffffffffffffffffffffff1681526020018681526020018881526020014281526020013373ffffffffffffffffffffffffffffffffffffffff1681526020018481526020018373ffffffffffffffffffffffffffffffffffffffff16815250908060018154018082558091505060019003906000526020600020906007020160009091909190915060008201518160000160006101000a81548173ffffffffffffffffffffffffffffffffffffffff021916908373ffffffffffffffffffffffffffffffffffffffff16021790555060208201518160010190805190602001906107ee929190611f21565b50604082015181600201908051906020019061080b929190611f21565b506060820151816003015560808201518160040160006101000a81548173ffffffffffffffffffffffffffffffffffffffff021916908373ffffffffffffffffffffffffffffffffffffffff16021790555060a0820151816005019080519060200190610879929190611f21565b5060c08201518160060160006101000a81548173ffffffffffffffffffffffffffffffffffffffff021916908373ffffffffffffffffffffffffffffffffffffffff1602179055505050856040516108d19190612b46565b60405180910390208773ffffffffffffffffffffffffffffffffffffffff168973ffffffffffffffffffffffffffffffffffffffff167f9a75fe3f17676affc24f086f5a7083548487770509445ac8b5460c965e5e626060405160405180910390a45050505050505050565b600760003373ffffffffffffffffffffffffffffffffffffffff1673ffffffffffffffffffffffffffffffffffffffff16815260200190815260200160002060009054906101000a900460ff166109c9576040517f08c379a00000000000000000000000000000000000000000000000000000000081526004016109c090612bf9565b60405180910390fd5b6109d281611e88565b6000600f60008373ffffffffffffffffffffffffffffffffffffffff1673ffffffffffffffffffffffffffffffffffffffff16815260200190815260200160002060050160019054906101000a900473ffffffffffffffffffffffffffffffffffffffff169050600073ffffffffffffffffffffffffffffffffffffffff168173ffffffffffffffffffffffffffffffffffffffff1614610aa8576040517f08c379a0000000000000000000000000000000000000000000000000000000008152600401610a9f90612cb9565b60405180910390fd5b3373ffffffffffffffffffffffffffffffffffffffff168173ffffffffffffffffffffffffffffffffffffffff161415610b17576040517f08c379a0000000000000000000000000000000000000000000000000000000008152600401610b0e90612c19565b60405180910390fd5b33600f60008473ffffffffffffffffffffffffffffffffffffffff1673ffffffffffffffffffffffffffffffffffffffff16815260200190815260200160002060050160016101000a81548173ffffffffffffffffffffffffffffffffffffffff021916908373ffffffffffffffffffffffffffffffffffffffff1602179055505050565b600760003373ffffffffffffffffffffffffffffffffffffffff1673ffffffffffffffffffffffffffffffffffffffff16815260200190815260200160002060009054906101000a900460ff16610c28576040517f08c379a0000000000000000000000000000000000000000000000000000000008152600401610c1f90612bf9565b60405180910390fd5b610c3181611e88565b6000600f60008373ffffffffffffffffffffffffffffffffffffffff1673ffffffffffffffffffffffffffffffffffffffff16815260200190815260200160002060050160016101000a81548173ffffffffffffffffffffffffffffffffffffffff021916908373ffffffffffffffffffffffffffffffffffffffff16021790555050565b601060009054906101000a900473ffffffffffffffffffffffffffffffffffffffff1681565b600b339080600181540180825580915050600190039060005260206000200160009091909190916101000a81548173ffffffffffffffffffffffffffffffffffffffff021916908373ffffffffffffffffffffffffffffffffffffffff1602179055503373ffffffffffffffffffffffffffffffffffffffff167fe0e8f801ed1f4ee20c0a93d2636c61498648007f572818a6d657a44c6dfc6c4560405160405180910390a2565b60066020528060005260406000206000915054906101000a900460ff1681565b6000600760008373ffffffffffffffffffffffffffffffffffffffff1673ffffffffffffffffffffffffffffffffffffffff16815260200190815260200160002060009054906101000a900460ff169050919050565b6000600660008373ffffffffffffffffffffffffffffffffffffffff1673ffffffffffffffffffffffffffffffffffffffff16815260200190815260200160002060009054906101000a900460ff169050919050565b60001515600f60003373ffffffffffffffffffffffffffffffffffffffff1673ffffffffffffffffffffffffffffffffffffffff16815260200190815260200160002060050160009054906101000a900460ff16151514610ee6576040517f08c379a0000000000000000000000000000000000000000000000000000000008152600401610edd90612c39565b60405180910390fd5b83600f60003373ffffffffffffffffffffffffffffffffffffffff1673ffffffffffffffffffffffffffffffffffffffff1681526020019081526020016000206000018190555082600f60003373ffffffffffffffffffffffffffffffffffffffff1673ffffffffffffffffffffffffffffffffffffffff16815260200190815260200160002060010160006101000a81548160ff02191690836002811115610f9257610f9161303b565b5b021790555081600f60003373ffffffffffffffffffffffffffffffffffffffff1673ffffffffffffffffffffffffffffffffffffffff1681526020019081526020016000206002019080519060200190610fed929190611f21565b5080600f60003373ffffffffffffffffffffffffffffffffffffffff1673ffffffffffffffffffffffffffffffffffffffff1681526020019081526020016000206003019080519060200190611044929190611f21565b506001600f60003373ffffffffffffffffffffffffffffffffffffffff1673ffffffffffffffffffffffffffffffffffffffff16815260200190815260200160002060050160006101000a81548160ff0219169083151502179055503373ffffffffffffffffffffffffffffffffffffffff167fec2103278c3c80a6d7b51d03d161f98073de470c933d17309f7e46ebccd8c1ea60405160405180910390a250505050565b601060009054906101000a900473ffffffffffffffffffffffffffffffffffffffff1673ffffffffffffffffffffffffffffffffffffffff163373ffffffffffffffffffffffffffffffffffffffff1614611179576040517f08c379a000000000000000000000000000000000000000000000000000000000815260040161117090612c79565b60405180910390fd5b600660008273ffffffffffffffffffffffffffffffffffffffff1673ffffffffffffffffffffffffffffffffffffffff16815260200190815260200160002060009054906101000a900460ff1615611206576040517f08c379a00000000000000000000000000000000000000000000000000000000081526004016111fd90612c59565b60405180910390fd5b6001600660008373ffffffffffffffffffffffffffffffffffffffff1673ffffffffffffffffffffffffffffffffffffffff16815260200190815260200160002060006101000a81548160ff021916908315150217905550600e819080600181540180825580915050600190039060005260206000200160009091909190916101000a81548173ffffffffffffffffffffffffffffffffffffffff021916908373ffffffffffffffffffffffffffffffffffffffff1602179055508073ffffffffffffffffffffffffffffffffffffffff167f099536b6271cc2d0994bb7793d3418af371ea9504e25339f266c43d84309bbec60405160405180910390a250565b61130f611fa7565b600f60008373ffffffffffffffffffffffffffffffffffffffff1673ffffffffffffffffffffffffffffffffffffffff1681526020019081526020016000206040518060e0016040529081600082015481526020016001820160009054906101000a900460ff1660028111156113885761138761303b565b5b600281111561139a5761139961303b565b5b81526020016002820180546113ae90612fbe565b80601f01602080910402602001604051908101604052809291908181526020018280546113da90612fbe565b80156114275780601f106113fc57610100808354040283529160200191611427565b820191906000526020600020905b81548152906001019060200180831161140a57829003601f168201915b5050505050815260200160038201805461144090612fbe565b80601f016020809104026020016040519081016040528092919081815260200182805461146c90612fbe565b80156114b95780601f1061148e576101008083540402835291602001916114b9565b820191906000526020600020905b81548152906001019060200180831161149c57829003601f168201915b5050505050815260200160048201805480602002602001604051908101604052809291908181526020016000905b828210156117db57838290600052602060002090600702016040518060e00160405290816000820160009054906101000a900473ffffffffffffffffffffffffffffffffffffffff1673ffffffffffffffffffffffffffffffffffffffff1673ffffffffffffffffffffffffffffffffffffffff16815260200160018201805461157090612fbe565b80601f016020809104026020016040519081016040528092919081815260200182805461159c90612fbe565b80156115e95780601f106115be576101008083540402835291602001916115e9565b820191906000526020600020905b8154815290600101906020018083116115cc57829003601f168201915b5050505050815260200160028201805461160290612fbe565b80601f016020809104026020016040519081016040528092919081815260200182805461162e90612fbe565b801561167b5780601f106116505761010080835404028352916020019161167b565b820191906000526020600020905b81548152906001019060200180831161165e57829003601f168201915b50505050508152602001600382015481526020016004820160009054906101000a900473ffffffffffffffffffffffffffffffffffffffff1673ffffffffffffffffffffffffffffffffffffffff1673ffffffffffffffffffffffffffffffffffffffff1681526020016005820180546116f490612fbe565b80601f016020809104026020016040519081016040528092919081815260200182805461172090612fbe565b801561176d5780601f106117425761010080835404028352916020019161176d565b820191906000526020600020905b81548152906001019060200180831161175057829003601f168201915b505050505081526020016006820160009054906101000a900473ffffffffffffffffffffffffffffffffffffffff1673ffffffffffffffffffffffffffffffffffffffff1673ffffffffffffffffffffffffffffffffffffffff1681525050815260200190600101906114e7565b5050505081526020016005820160009054906101000a900460ff161515151581526020016005820160019054906101000a900473ffffffffffffffffffffffffffffffffffffffff1673ffffffffffffffffffffffffffffffffffffffff1673ffffffffffffffffffffffffffffffffffffffff16815250509050919050565b60606003805461186a90612fbe565b80601f016020809104026020016040519081016040528092919081815260200182805461189690612fbe565b80156118e35780601f106118b8576101008083540402835291602001916118e3565b820191906000526020600020905b8154815290600101906020018083116118c657829003601f168201915b5050505050905090565b6000808290508073ffffffffffffffffffffffffffffffffffffffff16635bffa9916040518163ffffffff1660e01b815260040160206040518083038186803b15801561193957600080fd5b505afa15801561194d573d6000803e3d6000fd5b505050506040513d601f19601f8201168201806040525081019061197191906124c1565b915050919050565b60008054906101000a900473ffffffffffffffffffffffffffffffffffffffff1681565b60076020528060005260406000206000915054906101000a900460ff1681565b6060600280546119cc90612fbe565b80601f01602080910402602001604051908101604052809291908181526020018280546119f890612fbe565b8015611a455780601f10611a1a57610100808354040283529160200191611a45565b820191906000526020600020905b815481529060010190602001808311611a2857829003601f168201915b5050505050905090565b601060009054906101000a900473ffffffffffffffffffffffffffffffffffffffff1673ffffffffffffffffffffffffffffffffffffffff163373ffffffffffffffffffffffffffffffffffffffff1614611adf576040517f08c379a0000000000000000000000000000000000000000000000000000000008152600401611ad690612c79565b60405180910390fd5b6001600760008373ffffffffffffffffffffffffffffffffffffffff1673ffffffffffffffffffffffffffffffffffffffff16815260200190815260200160002060006101000a81548160ff02191690831515021790555050565b600f6020528060005260406000206000915090508060000154908060010160009054906101000a900460ff1690806002018054611b7690612fbe565b80601f0160208091040260200160405190810160405280929190818152602001828054611ba290612fbe565b8015611bef5780601f10611bc457610100808354040283529160200191611bef565b820191906000526020600020905b815481529060010190602001808311611bd257829003601f168201915b505050505090806003018054611c0490612fbe565b80601f0160208091040260200160405190810160405280929190818152602001828054611c3090612fbe565b8015611c7d5780601f10611c5257610100808354040283529160200191611c7d565b820191906000526020600020905b815481529060010190602001808311611c6057829003601f168201915b5050505050908060050160009054906101000a900460ff16908060050160019054906101000a900473ffffffffffffffffffffffffffffffffffffffff16905086565b60606000601260009054906101000a900473ffffffffffffffffffffffffffffffffffffffff1690508073ffffffffffffffffffffffffffffffffffffffff1663939f6281600c6040518263ffffffff1660e01b8152600401611d239190612b78565b60006040518083038186803b158015611d3b57600080fd5b505afa158015611d4f573d6000803e3d6000fd5b505050506040513d6000823e3d601f19601f82011682018060405250810190611d78919061242f565b91505090565b601160009054906101000a900473ffffffffffffffffffffffffffffffffffffffff1681565b60606000601260009054906101000a900473ffffffffffffffffffffffffffffffffffffffff1690508073ffffffffffffffffffffffffffffffffffffffff1663939f6281600b6040518263ffffffff1660e01b8152600401611e079190612b78565b60006040518083038186803b158015611e1f57600080fd5b505afa158015611e33573d6000803e3d6000fd5b505050506040513d6000823e3d601f19601f82011682018060405250810190611e5c919061242f565b91505090565b601260009054906101000a900473ffffffffffffffffffffffffffffffffffffffff1681565b60011515600f60008373ffffffffffffffffffffffffffffffffffffffff1673ffffffffffffffffffffffffffffffffffffffff16815260200190815260200160002060050160009054906101000a900460ff16151514611f1e576040517f08c379a0000000000000000000000000000000000000000000000000000000008152600401611f1590612c99565b60405180910390fd5b50565b828054611f2d90612fbe565b90600052602060002090601f016020900481019282611f4f5760008555611f96565b82601f10611f6857805160ff1916838001178555611f96565b82800160010185558215611f96579182015b82811115611f95578251825591602001919060010190611f7a565b5b509050611fa3919061200e565b5090565b6040518060e001604052806000815260200160006002811115611fcd57611fcc61303b565b5b8152602001606081526020016060815260200160608152602001600015158152602001600073ffffffffffffffffffffffffffffffffffffffff1681525090565b5b8082111561202757600081600090555060010161200f565b5090565b600061203e61203984612daa565b612d85565b90508083825260208201905082856020860282011115612061576120606130ea565b5b60005b858110156120af57815167ffffffffffffffff811115612087576120866130db565b5b80860161209489826121f1565b85526020850194506020840193505050600181019050612064565b5050509392505050565b60006120cc6120c784612dd6565b612d85565b9050828152602081018484840111156120e8576120e76130ef565b5b6120f3848285612f7c565b509392505050565b600061210e61210984612dd6565b612d85565b90508281526020810184848401111561212a576121296130ef565b5b612135848285612f8b565b509392505050565b60008135905061214c816132c1565b92915050565b600082601f830112612167576121666130db565b5b815161217784826020860161202b565b91505092915050565b60008135905061218f816132d8565b92915050565b600082601f8301126121aa576121a96130db565b5b81356121ba8482602086016120b9565b91505092915050565b600082601f8301126121d8576121d76130db565b5b81516121e88482602086016120fb565b91505092915050565b600060e08284031215612207576122066130e0565b5b61221160e0612d85565b9050600082015167ffffffffffffffff811115612231576122306130e5565b5b61223d848285016121c3565b600083015250602082015167ffffffffffffffff811115612261576122606130e5565b5b61226d848285016121c3565b602083015250604082015167ffffffffffffffff811115612291576122906130e5565b5b61229d848285016121c3565b604083015250606082015167ffffffffffffffff8111156122c1576122c06130e5565b5b6122cd848285016121c3565b606083015250608082015167ffffffffffffffff8111156122f1576122f06130e5565b5b6122fd848285016121c3565b60808301525060a082015167ffffffffffffffff811115612321576123206130e5565b5b61232d848285016121c3565b60a08301525060c082015167ffffffffffffffff811115612351576123506130e5565b5b61235d848285016121c3565b60c08301525092915050565b600081359050612378816132e8565b92915050565b60008151905061238d816132e8565b92915050565b6000602082840312156123a9576123a86130f9565b5b60006123b78482850161213d565b91505092915050565b6000806000606084860312156123d9576123d86130f9565b5b60006123e78682870161213d565b93505060206123f88682870161213d565b925050604084013567ffffffffffffffff811115612419576124186130f4565b5b61242586828701612195565b9150509250925092565b600060208284031215612445576124446130f9565b5b600082015167ffffffffffffffff811115612463576124626130f4565b5b61246f84828501612152565b91505092915050565b60006020828403121561248e5761248d6130f9565b5b600082015167ffffffffffffffff8111156124ac576124ab6130f4565b5b6124b8848285016121c3565b91505092915050565b6000602082840312156124d7576124d66130f9565b5b60006124e58482850161237e565b91505092915050565b60008060008060808587031215612508576125076130f9565b5b600061251687828801612369565b945050602061252787828801612180565b935050604085013567ffffffffffffffff811115612548576125476130f4565b5b61255487828801612195565b925050606085013567ffffffffffffffff811115612575576125746130f4565b5b61258187828801612195565b91505092959194509250565b600061259983836125cd565b60208301905092915050565b60006125b1838361290e565b905092915050565b60006125c58383612a7e565b905092915050565b6125d681612f0f565b82525050565b6125e581612f0f565b82525050565b60006125f682612e3c565b6126008185612e8f565b935061260b83612e07565b8060005b8381101561264357612620826130c8565b61262a888261258d565b975061263583612e68565b92505060018101905061260f565b5085935050505092915050565b600061265b82612e47565b6126658185612ea0565b93508360208202850161267785612e1c565b8060005b858110156126b3578484038952815161269485826125a5565b945061269f83612e75565b925060208a0199505060018101905061267b565b50829750879550505050505092915050565b60006126d082612e52565b6126da8185612eb1565b9350836020820285016126ec85612e2c565b8060005b85811015612728578484038952815161270985826125b9565b945061271483612e82565b925060208a019950506001810190506126f0565b50829750879550505050505092915050565b61274381612f21565b82525050565b61275281612f21565b82525050565b61276181612f6a565b82525050565b61277081612f6a565b82525050565b600061278182612e5d565b61278b8185612ec2565b935061279b818560208601612f8b565b6127a4816130fe565b840191505092915050565b60006127ba82612e5d565b6127c48185612ed3565b93506127d4818560208601612f8b565b6127dd816130fe565b840191505092915050565b60006127f382612e5d565b6127fd8185612ee4565b935061280d818560208601612f8b565b80840191505092915050565b6000612826602983612ed3565b91506128318261311c565b604082019050919050565b6000612849601e83612ed3565b91506128548261316b565b602082019050919050565b600061286c601383612ed3565b915061287782613194565b602082019050919050565b600061288f601883612ed3565b915061289a826131bd565b602082019050919050565b60006128b2602483612ed3565b91506128bd826131e6565b604082019050919050565b60006128d5601183612ed3565b91506128e082613235565b602082019050919050565b60006128f8602f83612ed3565b91506129038261325e565b604082019050919050565b600060e083016000830151848203600086015261292b8282612776565b915050602083015184820360208601526129458282612776565b9150506040830151848203604086015261295f8282612776565b915050606083015184820360608601526129798282612776565b915050608083015184820360808601526129938282612776565b91505060a083015184820360a08601526129ad8282612776565b91505060c083015184820360c08601526129c78282612776565b9150508091505092915050565b600060e0830160008301516129ec6000860182612b28565b5060208301516129ff6020860182612758565b5060408301518482036040860152612a178282612776565b91505060608301518482036060860152612a318282612776565b91505060808301518482036080860152612a4b82826126c5565b91505060a0830151612a6060a086018261273a565b5060c0830151612a7360c08601826125cd565b508091505092915050565b600060e083016000830151612a9660008601826125cd565b5060208301518482036020860152612aae8282612776565b91505060408301518482036040860152612ac88282612776565b9150506060830151612add6060860182612b28565b506080830151612af060808601826125cd565b5060a083015184820360a0860152612b088282612776565b91505060c0830151612b1d60c08601826125cd565b508091505092915050565b612b3181612f60565b82525050565b612b4081612f60565b82525050565b6000612b5282846127e8565b915081905092915050565b6000602082019050612b7260008301846125dc565b92915050565b60006020820190508181036000830152612b9281846125eb565b905092915050565b60006020820190508181036000830152612bb48184612650565b905092915050565b6000602082019050612bd16000830184612749565b92915050565b60006020820190508181036000830152612bf181846127af565b905092915050565b60006020820190508181036000830152612c1281612819565b9050919050565b60006020820190508181036000830152612c328161283c565b9050919050565b60006020820190508181036000830152612c528161285f565b9050919050565b60006020820190508181036000830152612c7281612882565b9050919050565b60006020820190508181036000830152612c92816128a5565b9050919050565b60006020820190508181036000830152612cb2816128c8565b9050919050565b60006020820190508181036000830152612cd2816128eb565b9050919050565b60006020820190508181036000830152612cf381846129d4565b905092915050565b6000602082019050612d106000830184612b37565b92915050565b600060c082019050612d2b6000830189612b37565b612d386020830188612767565b8181036040830152612d4a81876127af565b90508181036060830152612d5e81866127af565b9050612d6d6080830185612749565b612d7a60a08301846125dc565b979650505050505050565b6000612d8f612da0565b9050612d9b828261300a565b919050565b6000604051905090565b600067ffffffffffffffff821115612dc557612dc4613099565b5b602082029050602081019050919050565b600067ffffffffffffffff821115612df157612df0613099565b5b612dfa826130fe565b9050602081019050919050565b60008190508160005260206000209050919050565b6000819050602082019050919050565b6000819050602082019050919050565b600081549050919050565b600081519050919050565b600081519050919050565b600081519050919050565b6000600182019050919050565b6000602082019050919050565b6000602082019050919050565b600082825260208201905092915050565b600082825260208201905092915050565b600082825260208201905092915050565b600082825260208201905092915050565b600082825260208201905092915050565b600081905092915050565b600073ffffffffffffffffffffffffffffffffffffffff82169050919050565b6000612f1a82612f40565b9050919050565b60008115159050919050565b6000819050612f3b826132ad565b919050565b600073ffffffffffffffffffffffffffffffffffffffff82169050919050565b6000819050919050565b6000612f7582612f2d565b9050919050565b82818337600083830152505050565b60005b83811015612fa9578082015181840152602081019050612f8e565b83811115612fb8576000848401525b50505050565b60006002820490506001821680612fd657607f821691505b60208210811415612fea57612fe961306a565b5b50919050565b6000613003612ffe8361310f565b612eef565b9050919050565b613013826130fe565b810181811067ffffffffffffffff8211171561303257613031613099565b5b80604052505050565b7f4e487b7100000000000000000000000000000000000000000000000000000000600052602160045260246000fd5b7f4e487b7100000000000000000000000000000000000000000000000000000000600052602260045260246000fd5b7f4e487b7100000000000000000000000000000000000000000000000000000000600052604160045260246000fd5b60006130d48254612ff0565b9050919050565b600080fd5b600080fd5b600080fd5b600080fd5b600080fd5b600080fd5b600080fd5b6000601f19601f8301169050919050565b60008160001c9050919050565b7f4f6e6c7920617070726f766564206f7267616e697a6174696f6e2063616e207660008201527f616363696e6174652e0000000000000000000000000000000000000000000000602082015250565b7f4865616c7468706572736f6e20616c726561647920617070726f7665642e0000600082015250565b7f416c726561647920726567697374657265642e00000000000000000000000000600082015250565b7f56616363696e6520616c726561647920617070726f7665640000000000000000600082015250565b7f4f6e6c792061646d696e2063616e20706572666f726d207468652066756e637460008201527f696f6e2e00000000000000000000000000000000000000000000000000000000602082015250565b7f556e726567697374657265642075736572000000000000000000000000000000600082015250565b7f4865616c7468706572736f6e20616c726561647920617070726f76656420627960008201527f20646966666572656e74206f72672e0000000000000000000000000000000000602082015250565b600381106132be576132bd61303b565b5b50565b6132ca81612f0f565b81146132d557600080fd5b50565b600381106132e557600080fd5b50565b6132f181612f60565b81146132fc57600080fd5b5056fea26469706673582212208d6d89a5cbcc043dffc3aa8ce5c42b20a275f00c234a78b33b11b4b5054ac01764736f6c63430008050033",
  "immutableReferences": {},
  "source": "// SPDX-License-Identifier: MIT\npragma solidity >=0.7.5;\npragma experimental ABIEncoderV2;\n\nuint256 constant ORG_REGISTRATION_COST = 10;\n\nstruct OrgDetails {\n    string name;\n    string url;\n    string logo_hash;\n    string document_hash;\n    string location;\n    string phone;\n    string email;\n}\n\ninterface IGOrganization {\n    function name() external view returns (string memory);\n\n    function symbol() external view returns (string memory);\n\n    function ipfs_hash() external view returns (string memory);\n}\n\ninterface IGVaccine {\n    function approve(\n        address to,\n        uint256 batchId,\n        uint256 quantity\n    ) external;\n\n    function transferFrom(\n        address from,\n        address to,\n        uint256 batchId\n    ) external;\n\n    function getVaccineSchedule() external view returns (uint256[] memory);\n\n    function getVaccineScheduleLength() external view returns (uint256);\n\n    function name() external view returns (string memory);\n}\n\ninterface IGOrganizationFactory {\n    function getSpeficiedOrganizationDetails(address[] memory orgAddrs)\n        external\n        view\n        returns (OrgDetails[] memory);\n}\n\ncontract Government {\n    address public owner;\n\n    string private name_;\n    string private symbol_;\n    string private ipfs_hash_;\n\n    uint256 fully_vaccinated;\n    uint256 partially_vaccinated;\n\n    mapping(address => bool) public vaccineApprovalStatus;\n    mapping(address => bool) public organizationApprovalStatus;\n\n    mapping(string => bool) org_names;\n    mapping(string => bool) org_symbols;\n    mapping(string => bool) org_ipfs_hash;\n\n    address[] registeredOrganizations;\n    address[] approvedOrganizations;\n    address[] rejectedOrganizations;\n\n    address[] approvedVaccines;\n\n    enum Gender {\n        MALE,\n        FEMALE,\n        UNSPECIFIED\n    }\n\n    struct Vaccine {\n        address vaccine_address;\n        string vaccine_name;\n        string batch;\n        uint256 datetime;\n        address org;\n        string org_name;\n        address hp;\n    }\n\n    struct User {\n        uint256 year_of_birth;\n        Gender gender;\n        string namehash;\n        string imagehash;\n        Vaccine[] vaccines;\n        bool registered;\n        address org;\n    }\n    mapping(address => User) public users;\n\n    event OrganizationApproval(address indexed org);\n    event OrganizationRegistration(address indexed org);\n    event VaccineApproved(address indexed vaccine);\n    event RegisterIndividual(address indexed user);\n    event Vaccinate(\n        address indexed user,\n        address indexed vaccine_address,\n        string indexed batch_id\n    );\n\n    address public superAdmin;\n\t\taddress public vaccineFactoryAddress;\n\t\taddress public orgFactoryAddress;\n\n    // Constructor\n    constructor(\n        string memory _name,\n        string memory _symbol,\n        string memory _ipfs_hash,\n\t\t\t\taddress vFactory,\n\t\t\t\taddress oFactory\n    ) {\n        owner = msg.sender;\n        name_ = _name;\n        symbol_ = _symbol;\n        ipfs_hash_ = _ipfs_hash;\n\t\t\t\torgFactoryAddress = oFactory;\n\t\t\t\tvaccineFactoryAddress = vFactory;\n        superAdmin = msg.sender;\n    }\n\n    function name() public view returns (string memory) {\n        return name_;\n    }\n\n    function symbol() public view returns (string memory) {\n        return symbol_;\n    }\n\n    function ipfs_hash() public view returns (string memory) {\n        return ipfs_hash_;\n    }\n\n    function getUser(address user_address) public view returns (User memory) {\n        return users[user_address];\n    }\n\n    function approveVaccine(address vaccine) public onlySuperAdmin {\n        require(!vaccineApprovalStatus[vaccine], \"Vaccine already approved\");\n        vaccineApprovalStatus[vaccine] = true;\n        approvedVaccines.push(vaccine);\n        emit VaccineApproved(vaccine);\n    }\n\n    function getVaccineApprovalStatus(address vaccine) public view returns(bool) {\n        return vaccineApprovalStatus[vaccine];\n    }\n\n    function getOrganizationApprovalStatus(address org) public view returns(bool) {\n        return organizationApprovalStatus[org];\n    }\n\n    function registerIndividual(\n        uint256 year_of_birth,\n        Gender gender,\n        string memory namehash,\n        string memory imagehash\n    ) public {\n        require(users[msg.sender].registered == false, \"Already registered.\");\n        users[msg.sender].year_of_birth = year_of_birth;\n        users[msg.sender].gender = gender;\n        users[msg.sender].namehash = namehash;\n        users[msg.sender].imagehash = imagehash;\n        users[msg.sender].registered = true;\n        emit RegisterIndividual(msg.sender);\n    }\n\n    function registerOrganization() public {\n        // if (msg.value < ORG_REGISTRATION_COST) {\n        // \t\trevert(\"Insufficient amount.\");\n        // }\n        // require(!org_ipfs_hash[_ipfs_hash], \"Organization already registered.\");\n        // require(!org_names[_name], \"Organization name already taken.\");\n        // require(!org_symbols[_symbol], \"Organization symbol already taken.\");\n        // org_ipfs_hash[_ipfs_hash] = true;\n        // org_names[_name] = true;\n        // org_symbols[_symbol] = true;\n        registeredOrganizations.push(msg.sender);\n        emit OrganizationRegistration(msg.sender);\n    }\n\n    function approveOrganization(address org_address) public onlySuperAdmin {\n        // IGOrganization org = IGOrganization(org_address);\n        // require(org_ipfs_hash[org.ipfs_hash()], \"Organization not registered.\");\n        // require(org_names[org.name()], \"Organization not registered.\");\n        // require(org_symbols[org.symbol()], \"Organization not registered.\");\n        organizationApprovalStatus[org_address] = true;\n        // emit OrganizationApproval(org_address, org.name(), org.symbol());\n    }\n\n    function approveHealthPerson(address person) public onlyApprovedOrganization {\n        checkUserRegistration(person);\n        address prevOrg = users[person].org;\n        require(prevOrg == address(0), 'Healthperson already approved by different org.');\n        require(prevOrg != msg.sender, 'Healthperson already approved.');\n        users[person].org = msg.sender;\n    }\n\n    function disapproveHealthPerson(address person) public onlyApprovedOrganization {\n        checkUserRegistration(person);\n        users[person].org = address(0);\n    }\n\n    function vaccinate(\n        address to,\n        address vaccine_address,\n        string memory batch_id\n    ) public onlyApprovedOrganization {\n        checkUserRegistration(to);\n        IGVaccine vaccine = IGVaccine(vaccine_address);\n        string memory vaccine_name = vaccine.name();\n        IGOrganization org = IGOrganization(msg.sender);\n        string memory org_name = org.name();\n        address hp = tx.origin;\n        users[to].vaccines.push(\n            Vaccine(vaccine_address, vaccine_name, batch_id, block.timestamp, msg.sender, org_name, hp)\n        );\n        // users[to].vaccine_address = vaccine_address;\n        // users[to].batches.push(batch_id);\n        // users[to].datetime.push(block.timestamp);\n        // users[to].vaccine_count += 1;\n        // changeStatus(to);\n        emit Vaccinate(to, vaccine_address, batch_id);\n    }\n\n    modifier onlyApprovedOrganization() {\n        require(\n            organizationApprovalStatus[msg.sender],\n            \"Only approved organization can vaccinate.\"\n        );\n        _;\n    }\n\n    function checkUserRegistration(address user) private view {\n        require(users[user].registered == true, \"Unregistered user\");\n    }\n\n    function getRequiredVaccineCount(address vaccine_address)\n        public\n        view\n        returns (uint256)\n    {\n        IGVaccine vaccine = IGVaccine(vaccine_address);\n        return vaccine.getVaccineScheduleLength();\n    }\n\n    // function changeStatus(address user) private {\n    //     VaccineStatus status = getVaccineStatusOf(user);\n    //     if (status == VaccineStatus.FULLY_VACCINATED) {\n    //       fully_vaccinated += 1;\n    //     }\n    //     if (status == VaccineStatus.PARTIALLY_VACCINATED) {\n    //       \tpartially_vaccinated += 1;\n    //     }\n    // }\n\n    // function getVaccineStatusOf(address user)\n    //     public\n    //     view\n    //     returns (VaccineStatus status)\n    // {\n    //     uint256 user_vaccineCount = users[user].vaccine_count;\n    //     uint256 required_vaccineCount = getRequiredVaccineCount(users[user].vaccine_address);\n\n    //     if (user_vaccineCount == 0) {\n    //         return VaccineStatus.UNVACCINATED;\n    //     }\n    //     if (user_vaccineCount < required_vaccineCount) {\n    //         return VaccineStatus.PARTIALLY_VACCINATED;\n    //     }\n    //     if (user_vaccineCount == required_vaccineCount) {\n    //         return VaccineStatus.FULLY_VACCINATED;\n    //     }\n    // }\n\n    modifier onlySuperAdmin() {\n        require(\n            msg.sender == superAdmin,\n            \"Only admin can perform the function.\"\n        );\n        _;\n    }\n\n    function getApprovedOrganizations()\n        public\n        view\n        returns (OrgDetails[] memory)\n    {\n\t\t\tIGOrganizationFactory oFactory = IGOrganizationFactory(orgFactoryAddress);\n\t\t\treturn oFactory.getSpeficiedOrganizationDetails(approvedOrganizations);\n\t\t}\n\n    function getRegisteredOrganizations()\n        public\n        view\n        returns (OrgDetails[] memory)\n    {\n\t\t\tIGOrganizationFactory oFactory = IGOrganizationFactory(orgFactoryAddress);\n\t\t\treturn oFactory.getSpeficiedOrganizationDetails(registeredOrganizations);\n\t\t}\n}\n ",
  "sourcePath": "/home/prajwolrg/School/Vaccination/vaccine-solidity/contracts/Government.sol",
  "compiler": {
    "name": "solc",
    "version": "0.8.5+commit.a4f2e591.Emscripten.clang"
  },
  "schemaVersion": "3.4.4",
  "updatedAt": "2022-04-15T10:50:27.660Z",
  "networkType": "ethereum",
  "devdoc": {
    "kind": "dev",
    "methods": {},
    "version": 1
  },
  "userdoc": {
    "kind": "user",
    "methods": {},
    "version": 1
  }
}