{
  "contractName": "Government",
  "abi": [
    {
      "inputs": [
        {
          "internalType": "string",
          "name": "_name",
          "type": "string"
        },
        {
          "internalType": "string",
          "name": "_symbol",
          "type": "string"
        },
        {
          "internalType": "string",
          "name": "_ipfs_hash",
          "type": "string"
        }
      ],
      "stateMutability": "nonpayable",
      "type": "constructor"
    },
    {
      "anonymous": false,
      "inputs": [
        {
          "indexed": true,
          "internalType": "address",
          "name": "org",
          "type": "address"
        },
        {
          "indexed": true,
          "internalType": "string",
          "name": "name",
          "type": "string"
        },
        {
          "indexed": true,
          "internalType": "string",
          "name": "symbol",
          "type": "string"
        }
      ],
      "name": "OrganizationApproval",
      "type": "event"
    },
    {
      "anonymous": false,
      "inputs": [
        {
          "indexed": true,
          "internalType": "address",
          "name": "org",
          "type": "address"
        },
        {
          "indexed": true,
          "internalType": "string",
          "name": "name",
          "type": "string"
        },
        {
          "indexed": true,
          "internalType": "string",
          "name": "symbol",
          "type": "string"
        }
      ],
      "name": "OrganizationRegistration",
      "type": "event"
    },
    {
      "anonymous": false,
      "inputs": [
        {
          "indexed": true,
          "internalType": "address",
          "name": "user",
          "type": "address"
        }
      ],
      "name": "RegisterIndividual",
      "type": "event"
    },
    {
      "anonymous": false,
      "inputs": [
        {
          "indexed": true,
          "internalType": "address",
          "name": "user",
          "type": "address"
        },
        {
          "indexed": true,
          "internalType": "address",
          "name": "vaccine_address",
          "type": "address"
        },
        {
          "indexed": true,
          "internalType": "string",
          "name": "batch_id",
          "type": "string"
        }
      ],
      "name": "Vaccinate",
      "type": "event"
    },
    {
      "anonymous": false,
      "inputs": [
        {
          "indexed": true,
          "internalType": "address",
          "name": "vaccine",
          "type": "address"
        }
      ],
      "name": "VaccineApproved",
      "type": "event"
    },
    {
      "inputs": [],
      "name": "owner",
      "outputs": [
        {
          "internalType": "address",
          "name": "",
          "type": "address"
        }
      ],
      "stateMutability": "view",
      "type": "function",
      "constant": true
    },
    {
      "inputs": [
        {
          "internalType": "address",
          "name": "",
          "type": "address"
        }
      ],
      "name": "users",
      "outputs": [
        {
          "internalType": "uint256",
          "name": "year_of_birth",
          "type": "uint256"
        },
        {
          "internalType": "enum Government.Gender",
          "name": "gender",
          "type": "uint8"
        },
        {
          "internalType": "string",
          "name": "namehash",
          "type": "string"
        },
        {
          "internalType": "string",
          "name": "imagehash",
          "type": "string"
        },
        {
          "internalType": "bool",
          "name": "registered",
          "type": "bool"
        }
      ],
      "stateMutability": "view",
      "type": "function",
      "constant": true
    },
    {
      "inputs": [],
      "name": "name",
      "outputs": [
        {
          "internalType": "string",
          "name": "",
          "type": "string"
        }
      ],
      "stateMutability": "view",
      "type": "function",
      "constant": true
    },
    {
      "inputs": [],
      "name": "symbol",
      "outputs": [
        {
          "internalType": "string",
          "name": "",
          "type": "string"
        }
      ],
      "stateMutability": "view",
      "type": "function",
      "constant": true
    },
    {
      "inputs": [],
      "name": "ipfs_hash",
      "outputs": [
        {
          "internalType": "string",
          "name": "",
          "type": "string"
        }
      ],
      "stateMutability": "view",
      "type": "function",
      "constant": true
    },
    {
      "inputs": [
        {
          "internalType": "address",
          "name": "user_address",
          "type": "address"
        }
      ],
      "name": "getUser",
      "outputs": [
        {
          "components": [
            {
              "internalType": "uint256",
              "name": "year_of_birth",
              "type": "uint256"
            },
            {
              "internalType": "enum Government.Gender",
              "name": "gender",
              "type": "uint8"
            },
            {
              "internalType": "string",
              "name": "namehash",
              "type": "string"
            },
            {
              "internalType": "string",
              "name": "imagehash",
              "type": "string"
            },
            {
              "components": [
                {
                  "internalType": "address",
                  "name": "vaccine_address",
                  "type": "address"
                },
                {
                  "internalType": "string",
                  "name": "batch",
                  "type": "string"
                },
                {
                  "internalType": "uint256",
                  "name": "datetime",
                  "type": "uint256"
                }
              ],
              "internalType": "struct Government.Vaccine[]",
              "name": "vaccines",
              "type": "tuple[]"
            },
            {
              "internalType": "bool",
              "name": "registered",
              "type": "bool"
            }
          ],
          "internalType": "struct Government.User",
          "name": "",
          "type": "tuple"
        }
      ],
      "stateMutability": "view",
      "type": "function",
      "constant": true
    },
    {
      "inputs": [
        {
          "internalType": "address",
          "name": "vaccine",
          "type": "address"
        }
      ],
      "name": "approveVaccine",
      "outputs": [],
      "stateMutability": "nonpayable",
      "type": "function"
    },
    {
      "inputs": [
        {
          "internalType": "uint256",
          "name": "year_of_birth",
          "type": "uint256"
        },
        {
          "internalType": "enum Government.Gender",
          "name": "gender",
          "type": "uint8"
        },
        {
          "internalType": "string",
          "name": "namehash",
          "type": "string"
        },
        {
          "internalType": "string",
          "name": "imagehash",
          "type": "string"
        }
      ],
      "name": "registerIndividual",
      "outputs": [],
      "stateMutability": "nonpayable",
      "type": "function"
    },
    {
      "inputs": [],
      "name": "registerOrganization",
      "outputs": [],
      "stateMutability": "nonpayable",
      "type": "function"
    },
    {
      "inputs": [
        {
          "internalType": "address",
          "name": "org_address",
          "type": "address"
        }
      ],
      "name": "approveOrganization",
      "outputs": [],
      "stateMutability": "nonpayable",
      "type": "function"
    },
    {
      "inputs": [
        {
          "internalType": "address",
          "name": "to",
          "type": "address"
        },
        {
          "internalType": "address",
          "name": "vaccine_address",
          "type": "address"
        },
        {
          "internalType": "string",
          "name": "batch_id",
          "type": "string"
        }
      ],
      "name": "vaccinate",
      "outputs": [],
      "stateMutability": "nonpayable",
      "type": "function"
    },
    {
      "inputs": [
        {
          "internalType": "address",
          "name": "vaccine_address",
          "type": "address"
        }
      ],
      "name": "getRequiredVaccineCount",
      "outputs": [
        {
          "internalType": "uint256",
          "name": "",
          "type": "uint256"
        }
      ],
      "stateMutability": "view",
      "type": "function",
      "constant": true
    }
  ],
  "bytecode": "0x60806040523480156200001157600080fd5b5060405162001f3238038062001f328339818101604052810190620000379190620001f9565b336000806101000a81548173ffffffffffffffffffffffffffffffffffffffff021916908373ffffffffffffffffffffffffffffffffffffffff16021790555082600190805190602001906200008f929190620000cb565b508160029080519060200190620000a8929190620000cb565b508060039080519060200190620000c1929190620000cb565b5050505062000436565b828054620000d99062000347565b90600052602060002090601f016020900481019282620000fd576000855562000149565b82601f106200011857805160ff191683800117855562000149565b8280016001018555821562000149579182015b82811115620001485782518255916020019190600101906200012b565b5b5090506200015891906200015c565b5090565b5b80821115620001775760008160009055506001016200015d565b5090565b6000620001926200018c84620002db565b620002b2565b905082815260208101848484011115620001b157620001b062000416565b5b620001be84828562000311565b509392505050565b600082601f830112620001de57620001dd62000411565b5b8151620001f08482602086016200017b565b91505092915050565b60008060006060848603121562000215576200021462000420565b5b600084015167ffffffffffffffff8111156200023657620002356200041b565b5b6200024486828701620001c6565b935050602084015167ffffffffffffffff8111156200026857620002676200041b565b5b6200027686828701620001c6565b925050604084015167ffffffffffffffff8111156200029a57620002996200041b565b5b620002a886828701620001c6565b9150509250925092565b6000620002be620002d1565b9050620002cc82826200037d565b919050565b6000604051905090565b600067ffffffffffffffff821115620002f957620002f8620003e2565b5b620003048262000425565b9050602081019050919050565b60005b838110156200033157808201518184015260208101905062000314565b8381111562000341576000848401525b50505050565b600060028204905060018216806200036057607f821691505b60208210811415620003775762000376620003b3565b5b50919050565b620003888262000425565b810181811067ffffffffffffffff82111715620003aa57620003a9620003e2565b5b80604052505050565b7f4e487b7100000000000000000000000000000000000000000000000000000000600052602260045260246000fd5b7f4e487b7100000000000000000000000000000000000000000000000000000000600052604160045260246000fd5b600080fd5b600080fd5b600080fd5b600080fd5b6000601f19601f8301169050919050565b611aec80620004466000396000f3fe608060405234801561001057600080fd5b50600436106100b45760003560e01c8063809051db11610071578063809051db146101655780638ac4dc0e146101835780638da5cb5b146101b357806395d89b41146101d15780639cc52761146101ef578063a87430ba1461020b576100b4565b806306fdde03146100b95780630794be4f146100d757806353e42da3146100f35780635fa932e8146100fd5780636f28cef9146101195780636f77926b14610135575b600080fd5b6100c161023f565b6040516100ce9190611618565b60405180910390f35b6100f160048036038101906100ec91906111b7565b6102d1565b005b6100fb6104e7565b005b61011760048036038101906101129190611253565b61054c565b005b610133600480360381019061012e919061118a565b6107e5565b005b61014f600480360381019061014a919061118a565b610883565b60405161015c919061169a565b60405180910390f35b61016d610bb1565b60405161017a9190611618565b60405180910390f35b61019d6004803603810190610198919061118a565b610c43565b6040516101aa91906116bc565b60405180910390f35b6101bb610ccf565b6040516101c891906115fd565b60405180910390f35b6101d9610cf3565b6040516101e69190611618565b60405180910390f35b6102096004803603810190610204919061118a565b610d85565b005b6102256004803603810190610220919061118a565b610de0565b6040516102369594939291906116d7565b60405180910390f35b60606001805461024e906118ae565b80601f016020809104026020016040519081016040528092919081815260200182805461027a906118ae565b80156102c75780601f1061029c576101008083540402835291602001916102c7565b820191906000526020600020905b8154815290600101906020018083116102aa57829003601f168201915b5050505050905090565b600760003373ffffffffffffffffffffffffffffffffffffffff1673ffffffffffffffffffffffffffffffffffffffff16815260200190815260200160002060009054906101000a900460ff1661035d576040517f08c379a00000000000000000000000000000000000000000000000000000000081526004016103549061163a565b60405180910390fd5b61036683610f40565b600e60008473ffffffffffffffffffffffffffffffffffffffff1673ffffffffffffffffffffffffffffffffffffffff16815260200190815260200160002060040160405180606001604052808473ffffffffffffffffffffffffffffffffffffffff16815260200183815260200142815250908060018154018082558091505060019003906000526020600020906003020160009091909190915060008201518160000160006101000a81548173ffffffffffffffffffffffffffffffffffffffff021916908373ffffffffffffffffffffffffffffffffffffffff1602179055506020820151816001019080519060200190610465929190610fd9565b506040820151816002015550508060405161048091906115e6565b60405180910390208273ffffffffffffffffffffffffffffffffffffffff168473ffffffffffffffffffffffffffffffffffffffff167f9a75fe3f17676affc24f086f5a7083548487770509445ac8b5460c965e5e626060405160405180910390a4505050565b600b339080600181540180825580915050600190039060005260206000200160009091909190916101000a81548173ffffffffffffffffffffffffffffffffffffffff021916908373ffffffffffffffffffffffffffffffffffffffff160217905550565b60001515600e60003373ffffffffffffffffffffffffffffffffffffffff1673ffffffffffffffffffffffffffffffffffffffff16815260200190815260200160002060050160009054906101000a900460ff161515146105e2576040517f08c379a00000000000000000000000000000000000000000000000000000000081526004016105d99061165a565b60405180910390fd5b83600e60003373ffffffffffffffffffffffffffffffffffffffff1673ffffffffffffffffffffffffffffffffffffffff1681526020019081526020016000206000018190555082600e60003373ffffffffffffffffffffffffffffffffffffffff1673ffffffffffffffffffffffffffffffffffffffff16815260200190815260200160002060010160006101000a81548160ff0219169083600281111561068e5761068d611911565b5b021790555081600e60003373ffffffffffffffffffffffffffffffffffffffff1673ffffffffffffffffffffffffffffffffffffffff16815260200190815260200160002060020190805190602001906106e9929190610fd9565b5080600e60003373ffffffffffffffffffffffffffffffffffffffff1673ffffffffffffffffffffffffffffffffffffffff1681526020019081526020016000206003019080519060200190610740929190610fd9565b506001600e60003373ffffffffffffffffffffffffffffffffffffffff1673ffffffffffffffffffffffffffffffffffffffff16815260200190815260200160002060050160006101000a81548160ff0219169083151502179055503373ffffffffffffffffffffffffffffffffffffffff167fec2103278c3c80a6d7b51d03d161f98073de470c933d17309f7e46ebccd8c1ea60405160405180910390a250505050565b6001600660008373ffffffffffffffffffffffffffffffffffffffff1673ffffffffffffffffffffffffffffffffffffffff16815260200190815260200160002060006101000a81548160ff0219169083151502179055508073ffffffffffffffffffffffffffffffffffffffff167f099536b6271cc2d0994bb7793d3418af371ea9504e25339f266c43d84309bbec60405160405180910390a250565b61088b61105f565b600e60008373ffffffffffffffffffffffffffffffffffffffff1673ffffffffffffffffffffffffffffffffffffffff1681526020019081526020016000206040518060c0016040529081600082015481526020016001820160009054906101000a900460ff16600281111561090457610903611911565b5b600281111561091657610915611911565b5b815260200160028201805461092a906118ae565b80601f0160208091040260200160405190810160405280929190818152602001828054610956906118ae565b80156109a35780601f10610978576101008083540402835291602001916109a3565b820191906000526020600020905b81548152906001019060200180831161098657829003601f168201915b505050505081526020016003820180546109bc906118ae565b80601f01602080910402602001604051908101604052809291908181526020018280546109e8906118ae565b8015610a355780601f10610a0a57610100808354040283529160200191610a35565b820191906000526020600020905b815481529060010190602001808311610a1857829003601f168201915b5050505050815260200160048201805480602002602001604051908101604052809291908181526020016000905b82821015610b8757838290600052602060002090600302016040518060600160405290816000820160009054906101000a900473ffffffffffffffffffffffffffffffffffffffff1673ffffffffffffffffffffffffffffffffffffffff1673ffffffffffffffffffffffffffffffffffffffff168152602001600182018054610aec906118ae565b80601f0160208091040260200160405190810160405280929190818152602001828054610b18906118ae565b8015610b655780601f10610b3a57610100808354040283529160200191610b65565b820191906000526020600020905b815481529060010190602001808311610b4857829003601f168201915b5050505050815260200160028201548152505081526020019060010190610a63565b5050505081526020016005820160009054906101000a900460ff1615151515815250509050919050565b606060038054610bc0906118ae565b80601f0160208091040260200160405190810160405280929190818152602001828054610bec906118ae565b8015610c395780601f10610c0e57610100808354040283529160200191610c39565b820191906000526020600020905b815481529060010190602001808311610c1c57829003601f168201915b5050505050905090565b6000808290508073ffffffffffffffffffffffffffffffffffffffff16635bffa9916040518163ffffffff1660e01b815260040160206040518083038186803b158015610c8f57600080fd5b505afa158015610ca3573d6000803e3d6000fd5b505050506040513d601f19601f82011682018060405250810190610cc79190611226565b915050919050565b60008054906101000a900473ffffffffffffffffffffffffffffffffffffffff1681565b606060028054610d02906118ae565b80601f0160208091040260200160405190810160405280929190818152602001828054610d2e906118ae565b8015610d7b5780601f10610d5057610100808354040283529160200191610d7b565b820191906000526020600020905b815481529060010190602001808311610d5e57829003601f168201915b5050505050905090565b6001600760008373ffffffffffffffffffffffffffffffffffffffff1673ffffffffffffffffffffffffffffffffffffffff16815260200190815260200160002060006101000a81548160ff02191690831515021790555050565b600e6020528060005260406000206000915090508060000154908060010160009054906101000a900460ff1690806002018054610e1c906118ae565b80601f0160208091040260200160405190810160405280929190818152602001828054610e48906118ae565b8015610e955780601f10610e6a57610100808354040283529160200191610e95565b820191906000526020600020905b815481529060010190602001808311610e7857829003601f168201915b505050505090806003018054610eaa906118ae565b80601f0160208091040260200160405190810160405280929190818152602001828054610ed6906118ae565b8015610f235780601f10610ef857610100808354040283529160200191610f23565b820191906000526020600020905b815481529060010190602001808311610f0657829003601f168201915b5050505050908060050160009054906101000a900460ff16905085565b60011515600e60008373ffffffffffffffffffffffffffffffffffffffff1673ffffffffffffffffffffffffffffffffffffffff16815260200190815260200160002060050160009054906101000a900460ff16151514610fd6576040517f08c379a0000000000000000000000000000000000000000000000000000000008152600401610fcd9061167a565b60405180910390fd5b50565b828054610fe5906118ae565b90600052602060002090601f016020900481019282611007576000855561104e565b82601f1061102057805160ff191683800117855561104e565b8280016001018555821561104e579182015b8281111561104d578251825591602001919060010190611032565b5b50905061105b91906110a9565b5090565b6040518060c00160405280600081526020016000600281111561108557611084611911565b5b81526020016060815260200160608152602001606081526020016000151581525090565b5b808211156110c25760008160009055506001016110aa565b5090565b60006110d96110d48461175d565b611738565b9050828152602081018484840111156110f5576110f46119a3565b5b61110084828561186c565b509392505050565b60008135905061111781611a78565b92915050565b60008135905061112c81611a8f565b92915050565b600082601f8301126111475761114661199e565b5b81356111578482602086016110c6565b91505092915050565b60008135905061116f81611a9f565b92915050565b60008151905061118481611a9f565b92915050565b6000602082840312156111a05761119f6119ad565b5b60006111ae84828501611108565b91505092915050565b6000806000606084860312156111d0576111cf6119ad565b5b60006111de86828701611108565b93505060206111ef86828701611108565b925050604084013567ffffffffffffffff8111156112105761120f6119a8565b5b61121c86828701611132565b9150509250925092565b60006020828403121561123c5761123b6119ad565b5b600061124a84828501611175565b91505092915050565b6000806000806080858703121561126d5761126c6119ad565b5b600061127b87828801611160565b945050602061128c8782880161111d565b935050604085013567ffffffffffffffff8111156112ad576112ac6119a8565b5b6112b987828801611132565b925050606085013567ffffffffffffffff8111156112da576112d96119a8565b5b6112e687828801611132565b91505092959194509250565b60006112fe8383611578565b905092915050565b61130f816117ff565b82525050565b61131e816117ff565b82525050565b600061132f8261179e565b61133981856117c1565b93508360208202850161134b8561178e565b8060005b85811015611387578484038952815161136885826112f2565b9450611373836117b4565b925060208a0199505060018101905061134f565b50829750879550505050505092915050565b6113a281611811565b82525050565b6113b181611811565b82525050565b6113c08161185a565b82525050565b6113cf8161185a565b82525050565b60006113e0826117a9565b6113ea81856117d2565b93506113fa81856020860161187b565b611403816119b2565b840191505092915050565b6000611419826117a9565b61142381856117e3565b935061143381856020860161187b565b61143c816119b2565b840191505092915050565b6000611452826117a9565b61145c81856117f4565b935061146c81856020860161187b565b80840191505092915050565b60006114856029836117e3565b9150611490826119c3565b604082019050919050565b60006114a86013836117e3565b91506114b382611a12565b602082019050919050565b60006114cb6011836117e3565b91506114d682611a3b565b602082019050919050565b600060c0830160008301516114f960008601826115c8565b50602083015161150c60208601826113b7565b506040830151848203604086015261152482826113d5565b9150506060830151848203606086015261153e82826113d5565b915050608083015184820360808601526115588282611324565b91505060a083015161156d60a0860182611399565b508091505092915050565b60006060830160008301516115906000860182611306565b50602083015184820360208601526115a882826113d5565b91505060408301516115bd60408601826115c8565b508091505092915050565b6115d181611850565b82525050565b6115e081611850565b82525050565b60006115f28284611447565b915081905092915050565b60006020820190506116126000830184611315565b92915050565b60006020820190508181036000830152611632818461140e565b905092915050565b6000602082019050818103600083015261165381611478565b9050919050565b600060208201905081810360008301526116738161149b565b9050919050565b60006020820190508181036000830152611693816114be565b9050919050565b600060208201905081810360008301526116b481846114e1565b905092915050565b60006020820190506116d160008301846115d7565b92915050565b600060a0820190506116ec60008301886115d7565b6116f960208301876113c6565b818103604083015261170b818661140e565b9050818103606083015261171f818561140e565b905061172e60808301846113a8565b9695505050505050565b6000611742611753565b905061174e82826118e0565b919050565b6000604051905090565b600067ffffffffffffffff8211156117785761177761196f565b5b611781826119b2565b9050602081019050919050565b6000819050602082019050919050565b600081519050919050565b600081519050919050565b6000602082019050919050565b600082825260208201905092915050565b600082825260208201905092915050565b600082825260208201905092915050565b600081905092915050565b600061180a82611830565b9050919050565b60008115159050919050565b600081905061182b82611a64565b919050565b600073ffffffffffffffffffffffffffffffffffffffff82169050919050565b6000819050919050565b60006118658261181d565b9050919050565b82818337600083830152505050565b60005b8381101561189957808201518184015260208101905061187e565b838111156118a8576000848401525b50505050565b600060028204905060018216806118c657607f821691505b602082108114156118da576118d9611940565b5b50919050565b6118e9826119b2565b810181811067ffffffffffffffff821117156119085761190761196f565b5b80604052505050565b7f4e487b7100000000000000000000000000000000000000000000000000000000600052602160045260246000fd5b7f4e487b7100000000000000000000000000000000000000000000000000000000600052602260045260246000fd5b7f4e487b7100000000000000000000000000000000000000000000000000000000600052604160045260246000fd5b600080fd5b600080fd5b600080fd5b600080fd5b6000601f19601f8301169050919050565b7f4f6e6c7920617070726f766564206f7267616e697a6174696f6e2063616e207660008201527f616363696e6174652e0000000000000000000000000000000000000000000000602082015250565b7f416c726561647920726567697374657265642e00000000000000000000000000600082015250565b7f556e726567697374657265642075736572000000000000000000000000000000600082015250565b60038110611a7557611a74611911565b5b50565b611a81816117ff565b8114611a8c57600080fd5b50565b60038110611a9c57600080fd5b50565b611aa881611850565b8114611ab357600080fd5b5056fea2646970667358221220cdd2154c7afc4a778e08d38af921732bf05721e26e3e7fd44e9baaedd3d5c26864736f6c63430008050033",
  "immutableReferences": {},
  "source": "// SPDX-License-Identifier: MIT\npragma solidity >= 0.7.5;\npragma experimental ABIEncoderV2;\n\nuint256 constant ORG_REGISTRATION_COST = 10;\n\ninterface IGOrganization {\n\tfunction name() external view returns(string memory);\n\tfunction symbol() external view returns(string memory);\n\tfunction ipfs_hash() external view returns(string memory);\n}\n\ninterface IGVaccine {\n  function approve(address to, uint256 batchId, uint256 quantity) external;\n  function transferFrom(address from, address to, uint256 batchId) external;\n  function getVaccineSchedule() external view returns(uint256[] memory);\n  function getVaccineScheduleLength() external view returns(uint256);\n}\n\ncontract Government {\n  address public owner;\n\n\tstring private name_;\n\tstring private symbol_;\n\tstring private ipfs_hash_;\n\n\tuint256 fully_vaccinated;\n\tuint256 partially_vaccinated;\n\n\tmapping(address => bool) vaccineApprovalStatus;\n\tmapping(address => bool) organizationApprovalStatus;\n\n\tmapping (string => bool) org_names;\n\tmapping (string => bool) org_symbols;\n\tmapping (string => bool) org_ipfs_hash;\n\n\taddress[] registeredOrganizations;\n\taddress[] approvedOrganizations;\n\taddress[] rejectedOrganizations;\n\n\tenum Gender {\n\t\t\tMALE,\n\t\t\tFEMALE,\n\t\t\tUNSPECIFIED\n\t}\n\n  enum VaccineStatus {\n      UNVACCINATED,\n      PARTIALLY_VACCINATED,\n      FULLY_VACCINATED\n  }\n\n\tstruct Vaccine {\n\t\taddress vaccine_address;\n\t\t// string vaccine_name;\n\t\tstring batch;\n\t\tuint256 datetime;\n\t}\n\n\n\tstruct User {\n\t\t\tuint256 year_of_birth;\n\t\t\tGender gender;\n\t\t\tstring namehash;\n\t\t\tstring imagehash;\n\t\t\tVaccine[] vaccines;\n\t\t\tbool registered;\n\t}\n\tmapping(address => User) public users;\n\n  event OrganizationApproval(address indexed org, string indexed name, string indexed symbol);\n\tevent OrganizationRegistration(address indexed org, string indexed name, string indexed symbol);\n\tevent VaccineApproved(address indexed vaccine);\n\tevent RegisterIndividual(address indexed user);\n  event Vaccinate(address indexed user, address indexed vaccine_address, string indexed batch_id);\n\n  // Constructor\n  constructor(string memory _name, string memory _symbol, string memory _ipfs_hash) {\n    owner = msg.sender;\n\t\tname_ = _name;\n\t\tsymbol_ = _symbol;\n\t\tipfs_hash_ = _ipfs_hash;\n  }\n\n\tfunction name() public view returns(string memory){\n\t\treturn name_;\n\t}\n\n\tfunction symbol() public view returns(string memory){\n\t\treturn symbol_;\n\t}\n\n\tfunction ipfs_hash() public view returns(string memory){\n\t\treturn ipfs_hash_;\n\t}\n\n\tfunction getUser(address user_address) public view returns(User memory) {\n\t\treturn users[user_address];\n\t}\n\n\tfunction approveVaccine(address vaccine) public {\n\t\tvaccineApprovalStatus[vaccine] = true;\n\t\temit VaccineApproved(vaccine);\n\t}\n\n\tfunction registerIndividual(\n\t\t\tuint256 year_of_birth,\n\t\t\tGender gender,\n\t\t\tstring memory namehash,\n\t\t\tstring memory imagehash\n\t) public {\n\t\t\trequire(users[msg.sender].registered == false, \"Already registered.\");\n\t\t\tusers[msg.sender].year_of_birth = year_of_birth;\n\t\t\tusers[msg.sender].gender = gender;\n\t\t\tusers[msg.sender].namehash = namehash;\n\t\t\tusers[msg.sender].imagehash = imagehash;\n\t\t\tusers[msg.sender].registered = true;\n\t\t\temit RegisterIndividual(msg.sender);\n\t}\n\n\tfunction registerOrganization()\n\t\t\tpublic\n\t{\n\t\t\t// if (msg.value < ORG_REGISTRATION_COST) {\n\t\t\t// \t\trevert(\"Insufficient amount.\");\n\t\t\t// }\n\t\t\t// require(!org_ipfs_hash[_ipfs_hash], \"Organization already registered.\");\n\t\t\t// require(!org_names[_name], \"Organization name already taken.\");\n\t\t\t// require(!org_symbols[_symbol], \"Organization symbol already taken.\");\n\t\t\t// org_ipfs_hash[_ipfs_hash] = true;\n\t\t\t// org_names[_name] = true;\n\t\t\t// org_symbols[_symbol] = true;\n\t\t\tregisteredOrganizations.push(msg.sender);\n\t\t\t// emit OrganizationRegistration(msg.sender, _name, _symbol);\n\t}\n\n  function approveOrganization(address org_address) public {\n\t\t// IGOrganization org = IGOrganization(org_address);\n\t\t// require(org_ipfs_hash[org.ipfs_hash()], \"Organization not registered.\");\n\t\t// require(org_names[org.name()], \"Organization not registered.\");\n\t\t// require(org_symbols[org.symbol()], \"Organization not registered.\");\n\t\torganizationApprovalStatus[org_address] = true;\n\t\t// emit OrganizationApproval(org_address, org.name(), org.symbol());\n  }\n\n\tfunction vaccinate(\n\t\t\taddress to,\n\t\t\taddress vaccine_address,\n\t\t\tstring memory batch_id\n\t) public onlyApprovedOrganization {\n\t\t\tcheckUserRegistration(to);\n\t\t\tusers[to].vaccines.push(Vaccine(vaccine_address, batch_id, block.timestamp));\n\t\t\t// users[to].vaccine_address = vaccine_address;\n\t\t\t// users[to].batches.push(batch_id);\n\t\t\t// users[to].datetime.push(block.timestamp);\n\t\t\t// users[to].vaccine_count += 1;\n\t\t\t// changeStatus(to);\n\t\t\temit Vaccinate(to, vaccine_address, batch_id);\n\t}\n\n    modifier onlyApprovedOrganization() {\n        require(organizationApprovalStatus[msg.sender], \"Only approved organization can vaccinate.\");\n        _;\n    }\n\n    function checkUserRegistration(address user) private view {\n        require(users[user].registered == true, \"Unregistered user\");\n    }\n\n    function getRequiredVaccineCount(address vaccine_address)\n        public\n        view\n        returns (uint256)\n    {\n        IGVaccine vaccine = IGVaccine(vaccine_address);\n        return vaccine.getVaccineScheduleLength();\n    }\n\n    // function changeStatus(address user) private {\n    //     VaccineStatus status = getVaccineStatusOf(user);\n    //     if (status == VaccineStatus.FULLY_VACCINATED) {\n    //       fully_vaccinated += 1;\n    //     }\n    //     if (status == VaccineStatus.PARTIALLY_VACCINATED) {\n    //       \tpartially_vaccinated += 1;\n    //     }\n    // }\n\n    // function getVaccineStatusOf(address user)\n    //     public\n    //     view\n    //     returns (VaccineStatus status)\n    // {\n    //     uint256 user_vaccineCount = users[user].vaccine_count;\n    //     uint256 required_vaccineCount = getRequiredVaccineCount(users[user].vaccine_address);\n\n    //     if (user_vaccineCount == 0) {\n    //         return VaccineStatus.UNVACCINATED;\n    //     }\n    //     if (user_vaccineCount < required_vaccineCount) {\n    //         return VaccineStatus.PARTIALLY_VACCINATED;\n    //     }\n    //     if (user_vaccineCount == required_vaccineCount) {\n    //         return VaccineStatus.FULLY_VACCINATED;\n    //     }\n    // }\n\n\n\n}\n",
  "sourcePath": "/home/prajwolrg/School/Vaccination/vaccine-solidity/contracts/Government.sol",
  "compiler": {
    "name": "solc",
    "version": "0.8.5+commit.a4f2e591.Emscripten.clang"
  },
  "schemaVersion": "3.4.4",
  "updatedAt": "2022-04-14T11:11:31.889Z",
  "networkType": "ethereum",
  "devdoc": {
    "kind": "dev",
    "methods": {},
    "version": 1
  },
  "userdoc": {
    "kind": "user",
    "methods": {},
    "version": 1
  }
}