{
  "contractName": "Government",
  "abi": [
    {
      "inputs": [
        {
          "internalType": "string",
          "name": "_name",
          "type": "string"
        },
        {
          "internalType": "string",
          "name": "_symbol",
          "type": "string"
        },
        {
          "internalType": "string",
          "name": "_ipfs_hash",
          "type": "string"
        },
        {
          "internalType": "address",
          "name": "vFactory",
          "type": "address"
        },
        {
          "internalType": "address",
          "name": "oFactory",
          "type": "address"
        }
      ],
      "stateMutability": "nonpayable",
      "type": "constructor"
    },
    {
      "anonymous": false,
      "inputs": [
        {
          "indexed": true,
          "internalType": "address",
          "name": "org",
          "type": "address"
        }
      ],
      "name": "OrganizationApproval",
      "type": "event"
    },
    {
      "anonymous": false,
      "inputs": [
        {
          "indexed": true,
          "internalType": "address",
          "name": "org",
          "type": "address"
        }
      ],
      "name": "OrganizationRegistration",
      "type": "event"
    },
    {
      "anonymous": false,
      "inputs": [
        {
          "indexed": true,
          "internalType": "address",
          "name": "user",
          "type": "address"
        }
      ],
      "name": "RegisterIndividual",
      "type": "event"
    },
    {
      "anonymous": false,
      "inputs": [
        {
          "indexed": true,
          "internalType": "address",
          "name": "user",
          "type": "address"
        },
        {
          "indexed": true,
          "internalType": "address",
          "name": "vaccine_address",
          "type": "address"
        },
        {
          "indexed": true,
          "internalType": "string",
          "name": "batch_id",
          "type": "string"
        }
      ],
      "name": "Vaccinate",
      "type": "event"
    },
    {
      "anonymous": false,
      "inputs": [
        {
          "indexed": true,
          "internalType": "address",
          "name": "vaccine",
          "type": "address"
        }
      ],
      "name": "VaccineApproved",
      "type": "event"
    },
    {
      "inputs": [],
      "name": "orgFactoryAddress",
      "outputs": [
        {
          "internalType": "address",
          "name": "",
          "type": "address"
        }
      ],
      "stateMutability": "view",
      "type": "function",
      "constant": true
    },
    {
      "inputs": [
        {
          "internalType": "address",
          "name": "",
          "type": "address"
        }
      ],
      "name": "organizationApprovalStatus",
      "outputs": [
        {
          "internalType": "bool",
          "name": "",
          "type": "bool"
        }
      ],
      "stateMutability": "view",
      "type": "function",
      "constant": true
    },
    {
      "inputs": [],
      "name": "owner",
      "outputs": [
        {
          "internalType": "address",
          "name": "",
          "type": "address"
        }
      ],
      "stateMutability": "view",
      "type": "function",
      "constant": true
    },
    {
      "inputs": [],
      "name": "superAdmin",
      "outputs": [
        {
          "internalType": "address",
          "name": "",
          "type": "address"
        }
      ],
      "stateMutability": "view",
      "type": "function",
      "constant": true
    },
    {
      "inputs": [
        {
          "internalType": "address",
          "name": "",
          "type": "address"
        }
      ],
      "name": "users",
      "outputs": [
        {
          "internalType": "uint256",
          "name": "year_of_birth",
          "type": "uint256"
        },
        {
          "internalType": "enum Government.Gender",
          "name": "gender",
          "type": "uint8"
        },
        {
          "internalType": "string",
          "name": "namehash",
          "type": "string"
        },
        {
          "internalType": "string",
          "name": "imagehash",
          "type": "string"
        },
        {
          "internalType": "bool",
          "name": "registered",
          "type": "bool"
        },
        {
          "internalType": "address",
          "name": "org",
          "type": "address"
        }
      ],
      "stateMutability": "view",
      "type": "function",
      "constant": true
    },
    {
      "inputs": [
        {
          "internalType": "address",
          "name": "",
          "type": "address"
        }
      ],
      "name": "vaccineApprovalStatus",
      "outputs": [
        {
          "internalType": "bool",
          "name": "",
          "type": "bool"
        }
      ],
      "stateMutability": "view",
      "type": "function",
      "constant": true
    },
    {
      "inputs": [],
      "name": "vaccineFactoryAddress",
      "outputs": [
        {
          "internalType": "address",
          "name": "",
          "type": "address"
        }
      ],
      "stateMutability": "view",
      "type": "function",
      "constant": true
    },
    {
      "inputs": [],
      "name": "name",
      "outputs": [
        {
          "internalType": "string",
          "name": "",
          "type": "string"
        }
      ],
      "stateMutability": "view",
      "type": "function",
      "constant": true
    },
    {
      "inputs": [],
      "name": "symbol",
      "outputs": [
        {
          "internalType": "string",
          "name": "",
          "type": "string"
        }
      ],
      "stateMutability": "view",
      "type": "function",
      "constant": true
    },
    {
      "inputs": [],
      "name": "ipfs_hash",
      "outputs": [
        {
          "internalType": "string",
          "name": "",
          "type": "string"
        }
      ],
      "stateMutability": "view",
      "type": "function",
      "constant": true
    },
    {
      "inputs": [
        {
          "internalType": "address",
          "name": "user_address",
          "type": "address"
        }
      ],
      "name": "getUser",
      "outputs": [
        {
          "components": [
            {
              "internalType": "uint256",
              "name": "year_of_birth",
              "type": "uint256"
            },
            {
              "internalType": "enum Government.Gender",
              "name": "gender",
              "type": "uint8"
            },
            {
              "internalType": "string",
              "name": "namehash",
              "type": "string"
            },
            {
              "internalType": "string",
              "name": "imagehash",
              "type": "string"
            },
            {
              "components": [
                {
                  "internalType": "address",
                  "name": "vaccine_address",
                  "type": "address"
                },
                {
                  "internalType": "string",
                  "name": "vaccine_name",
                  "type": "string"
                },
                {
                  "internalType": "string",
                  "name": "batch",
                  "type": "string"
                },
                {
                  "internalType": "uint256",
                  "name": "datetime",
                  "type": "uint256"
                },
                {
                  "internalType": "address",
                  "name": "org",
                  "type": "address"
                },
                {
                  "internalType": "string",
                  "name": "org_name",
                  "type": "string"
                },
                {
                  "internalType": "address",
                  "name": "hp",
                  "type": "address"
                }
              ],
              "internalType": "struct Government.Vaccine[]",
              "name": "vaccines",
              "type": "tuple[]"
            },
            {
              "internalType": "bool",
              "name": "registered",
              "type": "bool"
            },
            {
              "internalType": "address",
              "name": "org",
              "type": "address"
            }
          ],
          "internalType": "struct Government.User",
          "name": "",
          "type": "tuple"
        }
      ],
      "stateMutability": "view",
      "type": "function",
      "constant": true
    },
    {
      "inputs": [
        {
          "internalType": "address",
          "name": "vaccine",
          "type": "address"
        }
      ],
      "name": "approveVaccine",
      "outputs": [],
      "stateMutability": "nonpayable",
      "type": "function"
    },
    {
      "inputs": [
        {
          "internalType": "uint256",
          "name": "year_of_birth",
          "type": "uint256"
        },
        {
          "internalType": "enum Government.Gender",
          "name": "gender",
          "type": "uint8"
        },
        {
          "internalType": "string",
          "name": "namehash",
          "type": "string"
        },
        {
          "internalType": "string",
          "name": "imagehash",
          "type": "string"
        }
      ],
      "name": "registerIndividual",
      "outputs": [],
      "stateMutability": "nonpayable",
      "type": "function"
    },
    {
      "inputs": [],
      "name": "registerOrganization",
      "outputs": [],
      "stateMutability": "nonpayable",
      "type": "function"
    },
    {
      "inputs": [
        {
          "internalType": "address",
          "name": "org_address",
          "type": "address"
        }
      ],
      "name": "approveOrganization",
      "outputs": [],
      "stateMutability": "nonpayable",
      "type": "function"
    },
    {
      "inputs": [
        {
          "internalType": "address",
          "name": "person",
          "type": "address"
        }
      ],
      "name": "approveHealthPerson",
      "outputs": [],
      "stateMutability": "nonpayable",
      "type": "function"
    },
    {
      "inputs": [
        {
          "internalType": "address",
          "name": "person",
          "type": "address"
        }
      ],
      "name": "disapproveHealthPerson",
      "outputs": [],
      "stateMutability": "nonpayable",
      "type": "function"
    },
    {
      "inputs": [
        {
          "internalType": "address",
          "name": "to",
          "type": "address"
        },
        {
          "internalType": "address",
          "name": "vaccine_address",
          "type": "address"
        },
        {
          "internalType": "string",
          "name": "batch_id",
          "type": "string"
        }
      ],
      "name": "vaccinate",
      "outputs": [],
      "stateMutability": "nonpayable",
      "type": "function"
    },
    {
      "inputs": [
        {
          "internalType": "address",
          "name": "vaccine_address",
          "type": "address"
        }
      ],
      "name": "getRequiredVaccineCount",
      "outputs": [
        {
          "internalType": "uint256",
          "name": "",
          "type": "uint256"
        }
      ],
      "stateMutability": "view",
      "type": "function",
      "constant": true
    },
    {
      "inputs": [],
      "name": "getApprovedOrganizations",
      "outputs": [
        {
          "components": [
            {
              "internalType": "string",
              "name": "name",
              "type": "string"
            },
            {
              "internalType": "string",
              "name": "url",
              "type": "string"
            },
            {
              "internalType": "string",
              "name": "logo_hash",
              "type": "string"
            },
            {
              "internalType": "string",
              "name": "document_hash",
              "type": "string"
            },
            {
              "internalType": "string",
              "name": "location",
              "type": "string"
            },
            {
              "internalType": "string",
              "name": "phone",
              "type": "string"
            },
            {
              "internalType": "string",
              "name": "email",
              "type": "string"
            }
          ],
          "internalType": "struct OrgDetails[]",
          "name": "",
          "type": "tuple[]"
        }
      ],
      "stateMutability": "view",
      "type": "function",
      "constant": true
    },
    {
      "inputs": [],
      "name": "getRegisteredOrganizations",
      "outputs": [
        {
          "components": [
            {
              "internalType": "string",
              "name": "name",
              "type": "string"
            },
            {
              "internalType": "string",
              "name": "url",
              "type": "string"
            },
            {
              "internalType": "string",
              "name": "logo_hash",
              "type": "string"
            },
            {
              "internalType": "string",
              "name": "document_hash",
              "type": "string"
            },
            {
              "internalType": "string",
              "name": "location",
              "type": "string"
            },
            {
              "internalType": "string",
              "name": "phone",
              "type": "string"
            },
            {
              "internalType": "string",
              "name": "email",
              "type": "string"
            }
          ],
          "internalType": "struct OrgDetails[]",
          "name": "",
          "type": "tuple[]"
        }
      ],
      "stateMutability": "view",
      "type": "function",
      "constant": true
    }
  ],
  "bytecode": "0x60806040523480156200001157600080fd5b50604051620035c3380380620035c38339818101604052810190620000379190620002d5565b336000806101000a81548173ffffffffffffffffffffffffffffffffffffffff021916908373ffffffffffffffffffffffffffffffffffffffff16021790555084600190805190602001906200008f92919062000190565b508360029080519060200190620000a892919062000190565b508260039080519060200190620000c192919062000190565b5080601160006101000a81548173ffffffffffffffffffffffffffffffffffffffff021916908373ffffffffffffffffffffffffffffffffffffffff16021790555081601060006101000a81548173ffffffffffffffffffffffffffffffffffffffff021916908373ffffffffffffffffffffffffffffffffffffffff16021790555033600f60006101000a81548173ffffffffffffffffffffffffffffffffffffffff021916908373ffffffffffffffffffffffffffffffffffffffff16021790555050505050506200058c565b8280546200019e9062000483565b90600052602060002090601f016020900481019282620001c257600085556200020e565b82601f10620001dd57805160ff19168380011785556200020e565b828001600101855582156200020e579182015b828111156200020d578251825591602001919060010190620001f0565b5b5090506200021d919062000221565b5090565b5b808211156200023c57600081600090555060010162000222565b5090565b6000620002576200025184620003e3565b620003ba565b90508281526020810184848401111562000276576200027562000552565b5b620002838482856200044d565b509392505050565b6000815190506200029c8162000572565b92915050565b600082601f830112620002ba57620002b96200054d565b5b8151620002cc84826020860162000240565b91505092915050565b600080600080600060a08688031215620002f457620002f36200055c565b5b600086015167ffffffffffffffff81111562000315576200031462000557565b5b6200032388828901620002a2565b955050602086015167ffffffffffffffff81111562000347576200034662000557565b5b6200035588828901620002a2565b945050604086015167ffffffffffffffff81111562000379576200037862000557565b5b6200038788828901620002a2565b93505060606200039a888289016200028b565b9250506080620003ad888289016200028b565b9150509295509295909350565b6000620003c6620003d9565b9050620003d48282620004b9565b919050565b6000604051905090565b600067ffffffffffffffff8211156200040157620004006200051e565b5b6200040c8262000561565b9050602081019050919050565b600062000426826200042d565b9050919050565b600073ffffffffffffffffffffffffffffffffffffffff82169050919050565b60005b838110156200046d57808201518184015260208101905062000450565b838111156200047d576000848401525b50505050565b600060028204905060018216806200049c57607f821691505b60208210811415620004b357620004b2620004ef565b5b50919050565b620004c48262000561565b810181811067ffffffffffffffff82111715620004e657620004e56200051e565b5b80604052505050565b7f4e487b7100000000000000000000000000000000000000000000000000000000600052602260045260246000fd5b7f4e487b7100000000000000000000000000000000000000000000000000000000600052604160045260246000fd5b600080fd5b600080fd5b600080fd5b600080fd5b6000601f19601f8301169050919050565b6200057d8162000419565b81146200058957600080fd5b50565b613027806200059c6000396000f3fe608060405234801561001057600080fd5b50600436106101375760003560e01c8063809051db116100b85780639cc527611161007c5780639cc5276114610328578063a87430ba14610344578063ba33339414610379578063ec06ea6514610397578063f1a0625d146103b5578063fcc8bd5c146103d357610137565b8063809051db1461026e5780638ac4dc0e1461028c5780638da5cb5b146102bc57806395d0109f146102da57806395d89b411461030a57610137565b806353e42da3116100ff57806353e42da3146101cc578063542977e0146101d65780635fa932e8146102065780636f28cef9146102225780636f77926b1461023e57610137565b806306fdde031461013c5780630794be4f1461015a57806325de97ef14610176578063281481d51461019257806329575f6a146101ae575b600080fd5b6101446103f1565b6040516101519190612912565b60405180910390f35b610174600480360381019061016f919061211e565b610483565b005b610190600480360381019061018b91906120f1565b6108c7565b005b6101ac60048036038101906101a791906120f1565b610b26565b005b6101b6610c40565b6040516101c39190612898565b60405180910390f35b6101d4610c66565b005b6101f060048036038101906101eb91906120f1565b610d0e565b6040516101fd91906128f7565b60405180910390f35b610220600480360381019061021b919061224c565b610d2e565b005b61023c600480360381019061023791906120f1565b610fc7565b005b610258600480360381019061025391906120f1565b611065565b60405161026591906129f4565b60405180910390f35b6102766115b9565b6040516102839190612912565b60405180910390f35b6102a660048036038101906102a191906120f1565b61164b565b6040516102b39190612a16565b60405180910390f35b6102c46116d7565b6040516102d19190612898565b60405180910390f35b6102f460048036038101906102ef91906120f1565b6116fb565b60405161030191906128f7565b60405180910390f35b61031261171b565b60405161031f9190612912565b60405180910390f35b610342600480360381019061033d91906120f1565b6117ad565b005b61035e600480360381019061035991906120f1565b611898565b60405161037096959493929190612a31565b60405180910390f35b610381611a1e565b60405161038e91906128d5565b60405180910390f35b61039f611adc565b6040516103ac9190612898565b60405180910390f35b6103bd611b02565b6040516103ca91906128d5565b60405180910390f35b6103db611bc0565b6040516103e89190612898565b60405180910390f35b60606001805461040090612cd9565b80601f016020809104026020016040519081016040528092919081815260200182805461042c90612cd9565b80156104795780601f1061044e57610100808354040283529160200191610479565b820191906000526020600020905b81548152906001019060200180831161045c57829003601f168201915b5050505050905090565b600760003373ffffffffffffffffffffffffffffffffffffffff1673ffffffffffffffffffffffffffffffffffffffff16815260200190815260200160002060009054906101000a900460ff1661050f576040517f08c379a000000000000000000000000000000000000000000000000000000000815260040161050690612934565b60405180910390fd5b61051883611be6565b600082905060008173ffffffffffffffffffffffffffffffffffffffff166306fdde036040518163ffffffff1660e01b815260040160006040518083038186803b15801561056557600080fd5b505afa158015610579573d6000803e3d6000fd5b505050506040513d6000823e3d601f19601f820116820180604052508101906105a291906121d6565b9050600033905060008173ffffffffffffffffffffffffffffffffffffffff166306fdde036040518163ffffffff1660e01b815260040160006040518083038186803b1580156105f157600080fd5b505afa158015610605573d6000803e3d6000fd5b505050506040513d6000823e3d601f19601f8201168201806040525081019061062e91906121d6565b90506000329050600e60008973ffffffffffffffffffffffffffffffffffffffff1673ffffffffffffffffffffffffffffffffffffffff1681526020019081526020016000206004016040518060e001604052808973ffffffffffffffffffffffffffffffffffffffff1681526020018681526020018881526020014281526020013373ffffffffffffffffffffffffffffffffffffffff1681526020018481526020018373ffffffffffffffffffffffffffffffffffffffff16815250908060018154018082558091505060019003906000526020600020906007020160009091909190915060008201518160000160006101000a81548173ffffffffffffffffffffffffffffffffffffffff021916908373ffffffffffffffffffffffffffffffffffffffff1602179055506020820151816001019080519060200190610778929190611c7f565b506040820151816002019080519060200190610795929190611c7f565b506060820151816003015560808201518160040160006101000a81548173ffffffffffffffffffffffffffffffffffffffff021916908373ffffffffffffffffffffffffffffffffffffffff16021790555060a0820151816005019080519060200190610803929190611c7f565b5060c08201518160060160006101000a81548173ffffffffffffffffffffffffffffffffffffffff021916908373ffffffffffffffffffffffffffffffffffffffff16021790555050508560405161085b9190612881565b60405180910390208773ffffffffffffffffffffffffffffffffffffffff168973ffffffffffffffffffffffffffffffffffffffff167f9a75fe3f17676affc24f086f5a7083548487770509445ac8b5460c965e5e626060405160405180910390a45050505050505050565b600760003373ffffffffffffffffffffffffffffffffffffffff1673ffffffffffffffffffffffffffffffffffffffff16815260200190815260200160002060009054906101000a900460ff16610953576040517f08c379a000000000000000000000000000000000000000000000000000000000815260040161094a90612934565b60405180910390fd5b61095c81611be6565b6000600e60008373ffffffffffffffffffffffffffffffffffffffff1673ffffffffffffffffffffffffffffffffffffffff16815260200190815260200160002060050160019054906101000a900473ffffffffffffffffffffffffffffffffffffffff169050600073ffffffffffffffffffffffffffffffffffffffff168173ffffffffffffffffffffffffffffffffffffffff1614610a32576040517f08c379a0000000000000000000000000000000000000000000000000000000008152600401610a29906129d4565b60405180910390fd5b3373ffffffffffffffffffffffffffffffffffffffff168173ffffffffffffffffffffffffffffffffffffffff161415610aa1576040517f08c379a0000000000000000000000000000000000000000000000000000000008152600401610a9890612954565b60405180910390fd5b33600e60008473ffffffffffffffffffffffffffffffffffffffff1673ffffffffffffffffffffffffffffffffffffffff16815260200190815260200160002060050160016101000a81548173ffffffffffffffffffffffffffffffffffffffff021916908373ffffffffffffffffffffffffffffffffffffffff1602179055505050565b600760003373ffffffffffffffffffffffffffffffffffffffff1673ffffffffffffffffffffffffffffffffffffffff16815260200190815260200160002060009054906101000a900460ff16610bb2576040517f08c379a0000000000000000000000000000000000000000000000000000000008152600401610ba990612934565b60405180910390fd5b610bbb81611be6565b6000600e60008373ffffffffffffffffffffffffffffffffffffffff1673ffffffffffffffffffffffffffffffffffffffff16815260200190815260200160002060050160016101000a81548173ffffffffffffffffffffffffffffffffffffffff021916908373ffffffffffffffffffffffffffffffffffffffff16021790555050565b600f60009054906101000a900473ffffffffffffffffffffffffffffffffffffffff1681565b600b339080600181540180825580915050600190039060005260206000200160009091909190916101000a81548173ffffffffffffffffffffffffffffffffffffffff021916908373ffffffffffffffffffffffffffffffffffffffff1602179055503373ffffffffffffffffffffffffffffffffffffffff167fe0e8f801ed1f4ee20c0a93d2636c61498648007f572818a6d657a44c6dfc6c4560405160405180910390a2565b60066020528060005260406000206000915054906101000a900460ff1681565b60001515600e60003373ffffffffffffffffffffffffffffffffffffffff1673ffffffffffffffffffffffffffffffffffffffff16815260200190815260200160002060050160009054906101000a900460ff16151514610dc4576040517f08c379a0000000000000000000000000000000000000000000000000000000008152600401610dbb90612974565b60405180910390fd5b83600e60003373ffffffffffffffffffffffffffffffffffffffff1673ffffffffffffffffffffffffffffffffffffffff1681526020019081526020016000206000018190555082600e60003373ffffffffffffffffffffffffffffffffffffffff1673ffffffffffffffffffffffffffffffffffffffff16815260200190815260200160002060010160006101000a81548160ff02191690836002811115610e7057610e6f612d56565b5b021790555081600e60003373ffffffffffffffffffffffffffffffffffffffff1673ffffffffffffffffffffffffffffffffffffffff1681526020019081526020016000206002019080519060200190610ecb929190611c7f565b5080600e60003373ffffffffffffffffffffffffffffffffffffffff1673ffffffffffffffffffffffffffffffffffffffff1681526020019081526020016000206003019080519060200190610f22929190611c7f565b506001600e60003373ffffffffffffffffffffffffffffffffffffffff1673ffffffffffffffffffffffffffffffffffffffff16815260200190815260200160002060050160006101000a81548160ff0219169083151502179055503373ffffffffffffffffffffffffffffffffffffffff167fec2103278c3c80a6d7b51d03d161f98073de470c933d17309f7e46ebccd8c1ea60405160405180910390a250505050565b6001600660008373ffffffffffffffffffffffffffffffffffffffff1673ffffffffffffffffffffffffffffffffffffffff16815260200190815260200160002060006101000a81548160ff0219169083151502179055508073ffffffffffffffffffffffffffffffffffffffff167f099536b6271cc2d0994bb7793d3418af371ea9504e25339f266c43d84309bbec60405160405180910390a250565b61106d611d05565b600e60008373ffffffffffffffffffffffffffffffffffffffff1673ffffffffffffffffffffffffffffffffffffffff1681526020019081526020016000206040518060e0016040529081600082015481526020016001820160009054906101000a900460ff1660028111156110e6576110e5612d56565b5b60028111156110f8576110f7612d56565b5b815260200160028201805461110c90612cd9565b80601f016020809104026020016040519081016040528092919081815260200182805461113890612cd9565b80156111855780601f1061115a57610100808354040283529160200191611185565b820191906000526020600020905b81548152906001019060200180831161116857829003601f168201915b5050505050815260200160038201805461119e90612cd9565b80601f01602080910402602001604051908101604052809291908181526020018280546111ca90612cd9565b80156112175780601f106111ec57610100808354040283529160200191611217565b820191906000526020600020905b8154815290600101906020018083116111fa57829003601f168201915b5050505050815260200160048201805480602002602001604051908101604052809291908181526020016000905b8282101561153957838290600052602060002090600702016040518060e00160405290816000820160009054906101000a900473ffffffffffffffffffffffffffffffffffffffff1673ffffffffffffffffffffffffffffffffffffffff1673ffffffffffffffffffffffffffffffffffffffff1681526020016001820180546112ce90612cd9565b80601f01602080910402602001604051908101604052809291908181526020018280546112fa90612cd9565b80156113475780601f1061131c57610100808354040283529160200191611347565b820191906000526020600020905b81548152906001019060200180831161132a57829003601f168201915b5050505050815260200160028201805461136090612cd9565b80601f016020809104026020016040519081016040528092919081815260200182805461138c90612cd9565b80156113d95780601f106113ae576101008083540402835291602001916113d9565b820191906000526020600020905b8154815290600101906020018083116113bc57829003601f168201915b50505050508152602001600382015481526020016004820160009054906101000a900473ffffffffffffffffffffffffffffffffffffffff1673ffffffffffffffffffffffffffffffffffffffff1673ffffffffffffffffffffffffffffffffffffffff16815260200160058201805461145290612cd9565b80601f016020809104026020016040519081016040528092919081815260200182805461147e90612cd9565b80156114cb5780601f106114a0576101008083540402835291602001916114cb565b820191906000526020600020905b8154815290600101906020018083116114ae57829003601f168201915b505050505081526020016006820160009054906101000a900473ffffffffffffffffffffffffffffffffffffffff1673ffffffffffffffffffffffffffffffffffffffff1673ffffffffffffffffffffffffffffffffffffffff168152505081526020019060010190611245565b5050505081526020016005820160009054906101000a900460ff161515151581526020016005820160019054906101000a900473ffffffffffffffffffffffffffffffffffffffff1673ffffffffffffffffffffffffffffffffffffffff1673ffffffffffffffffffffffffffffffffffffffff16815250509050919050565b6060600380546115c890612cd9565b80601f01602080910402602001604051908101604052809291908181526020018280546115f490612cd9565b80156116415780601f1061161657610100808354040283529160200191611641565b820191906000526020600020905b81548152906001019060200180831161162457829003601f168201915b5050505050905090565b6000808290508073ffffffffffffffffffffffffffffffffffffffff16635bffa9916040518163ffffffff1660e01b815260040160206040518083038186803b15801561169757600080fd5b505afa1580156116ab573d6000803e3d6000fd5b505050506040513d601f19601f820116820180604052508101906116cf919061221f565b915050919050565b60008054906101000a900473ffffffffffffffffffffffffffffffffffffffff1681565b60076020528060005260406000206000915054906101000a900460ff1681565b60606002805461172a90612cd9565b80601f016020809104026020016040519081016040528092919081815260200182805461175690612cd9565b80156117a35780601f10611778576101008083540402835291602001916117a3565b820191906000526020600020905b81548152906001019060200180831161178657829003601f168201915b5050505050905090565b600f60009054906101000a900473ffffffffffffffffffffffffffffffffffffffff1673ffffffffffffffffffffffffffffffffffffffff163373ffffffffffffffffffffffffffffffffffffffff161461183d576040517f08c379a000000000000000000000000000000000000000000000000000000000815260040161183490612994565b60405180910390fd5b6001600760008373ffffffffffffffffffffffffffffffffffffffff1673ffffffffffffffffffffffffffffffffffffffff16815260200190815260200160002060006101000a81548160ff02191690831515021790555050565b600e6020528060005260406000206000915090508060000154908060010160009054906101000a900460ff16908060020180546118d490612cd9565b80601f016020809104026020016040519081016040528092919081815260200182805461190090612cd9565b801561194d5780601f106119225761010080835404028352916020019161194d565b820191906000526020600020905b81548152906001019060200180831161193057829003601f168201915b50505050509080600301805461196290612cd9565b80601f016020809104026020016040519081016040528092919081815260200182805461198e90612cd9565b80156119db5780601f106119b0576101008083540402835291602001916119db565b820191906000526020600020905b8154815290600101906020018083116119be57829003601f168201915b5050505050908060050160009054906101000a900460ff16908060050160019054906101000a900473ffffffffffffffffffffffffffffffffffffffff16905086565b60606000601160009054906101000a900473ffffffffffffffffffffffffffffffffffffffff1690508073ffffffffffffffffffffffffffffffffffffffff1663939f6281600c6040518263ffffffff1660e01b8152600401611a8191906128b3565b60006040518083038186803b158015611a9957600080fd5b505afa158015611aad573d6000803e3d6000fd5b505050506040513d6000823e3d601f19601f82011682018060405250810190611ad6919061218d565b91505090565b601060009054906101000a900473ffffffffffffffffffffffffffffffffffffffff1681565b60606000601160009054906101000a900473ffffffffffffffffffffffffffffffffffffffff1690508073ffffffffffffffffffffffffffffffffffffffff1663939f6281600b6040518263ffffffff1660e01b8152600401611b6591906128b3565b60006040518083038186803b158015611b7d57600080fd5b505afa158015611b91573d6000803e3d6000fd5b505050506040513d6000823e3d601f19601f82011682018060405250810190611bba919061218d565b91505090565b601160009054906101000a900473ffffffffffffffffffffffffffffffffffffffff1681565b60011515600e60008373ffffffffffffffffffffffffffffffffffffffff1673ffffffffffffffffffffffffffffffffffffffff16815260200190815260200160002060050160009054906101000a900460ff16151514611c7c576040517f08c379a0000000000000000000000000000000000000000000000000000000008152600401611c73906129b4565b60405180910390fd5b50565b828054611c8b90612cd9565b90600052602060002090601f016020900481019282611cad5760008555611cf4565b82601f10611cc657805160ff1916838001178555611cf4565b82800160010185558215611cf4579182015b82811115611cf3578251825591602001919060010190611cd8565b5b509050611d019190611d6c565b5090565b6040518060e001604052806000815260200160006002811115611d2b57611d2a612d56565b5b8152602001606081526020016060815260200160608152602001600015158152602001600073ffffffffffffffffffffffffffffffffffffffff1681525090565b5b80821115611d85576000816000905550600101611d6d565b5090565b6000611d9c611d9784612ac5565b612aa0565b90508083825260208201905082856020860282011115611dbf57611dbe612e05565b5b60005b85811015611e0d57815167ffffffffffffffff811115611de557611de4612df6565b5b808601611df28982611f4f565b85526020850194506020840193505050600181019050611dc2565b5050509392505050565b6000611e2a611e2584612af1565b612aa0565b905082815260208101848484011115611e4657611e45612e0a565b5b611e51848285612c97565b509392505050565b6000611e6c611e6784612af1565b612aa0565b905082815260208101848484011115611e8857611e87612e0a565b5b611e93848285612ca6565b509392505050565b600081359050611eaa81612fb3565b92915050565b600082601f830112611ec557611ec4612df6565b5b8151611ed5848260208601611d89565b91505092915050565b600081359050611eed81612fca565b92915050565b600082601f830112611f0857611f07612df6565b5b8135611f18848260208601611e17565b91505092915050565b600082601f830112611f3657611f35612df6565b5b8151611f46848260208601611e59565b91505092915050565b600060e08284031215611f6557611f64612dfb565b5b611f6f60e0612aa0565b9050600082015167ffffffffffffffff811115611f8f57611f8e612e00565b5b611f9b84828501611f21565b600083015250602082015167ffffffffffffffff811115611fbf57611fbe612e00565b5b611fcb84828501611f21565b602083015250604082015167ffffffffffffffff811115611fef57611fee612e00565b5b611ffb84828501611f21565b604083015250606082015167ffffffffffffffff81111561201f5761201e612e00565b5b61202b84828501611f21565b606083015250608082015167ffffffffffffffff81111561204f5761204e612e00565b5b61205b84828501611f21565b60808301525060a082015167ffffffffffffffff81111561207f5761207e612e00565b5b61208b84828501611f21565b60a08301525060c082015167ffffffffffffffff8111156120af576120ae612e00565b5b6120bb84828501611f21565b60c08301525092915050565b6000813590506120d681612fda565b92915050565b6000815190506120eb81612fda565b92915050565b60006020828403121561210757612106612e14565b5b600061211584828501611e9b565b91505092915050565b60008060006060848603121561213757612136612e14565b5b600061214586828701611e9b565b935050602061215686828701611e9b565b925050604084013567ffffffffffffffff81111561217757612176612e0f565b5b61218386828701611ef3565b9150509250925092565b6000602082840312156121a3576121a2612e14565b5b600082015167ffffffffffffffff8111156121c1576121c0612e0f565b5b6121cd84828501611eb0565b91505092915050565b6000602082840312156121ec576121eb612e14565b5b600082015167ffffffffffffffff81111561220a57612209612e0f565b5b61221684828501611f21565b91505092915050565b60006020828403121561223557612234612e14565b5b6000612243848285016120dc565b91505092915050565b6000806000806080858703121561226657612265612e14565b5b6000612274878288016120c7565b945050602061228587828801611ede565b935050604085013567ffffffffffffffff8111156122a6576122a5612e0f565b5b6122b287828801611ef3565b925050606085013567ffffffffffffffff8111156122d3576122d2612e0f565b5b6122df87828801611ef3565b91505092959194509250565b60006122f7838361232b565b60208301905092915050565b600061230f8383612649565b905092915050565b600061232383836127b9565b905092915050565b61233481612c2a565b82525050565b61234381612c2a565b82525050565b600061235482612b57565b61235e8185612baa565b935061236983612b22565b8060005b838110156123a15761237e82612de3565b61238888826122eb565b975061239383612b83565b92505060018101905061236d565b5085935050505092915050565b60006123b982612b62565b6123c38185612bbb565b9350836020820285016123d585612b37565b8060005b8581101561241157848403895281516123f28582612303565b94506123fd83612b90565b925060208a019950506001810190506123d9565b50829750879550505050505092915050565b600061242e82612b6d565b6124388185612bcc565b93508360208202850161244a85612b47565b8060005b8581101561248657848403895281516124678582612317565b945061247283612b9d565b925060208a0199505060018101905061244e565b50829750879550505050505092915050565b6124a181612c3c565b82525050565b6124b081612c3c565b82525050565b6124bf81612c85565b82525050565b6124ce81612c85565b82525050565b60006124df82612b78565b6124e98185612bdd565b93506124f9818560208601612ca6565b61250281612e19565b840191505092915050565b600061251882612b78565b6125228185612bee565b9350612532818560208601612ca6565b61253b81612e19565b840191505092915050565b600061255182612b78565b61255b8185612bff565b935061256b818560208601612ca6565b80840191505092915050565b6000612584602983612bee565b915061258f82612e37565b604082019050919050565b60006125a7601e83612bee565b91506125b282612e86565b602082019050919050565b60006125ca601383612bee565b91506125d582612eaf565b602082019050919050565b60006125ed602483612bee565b91506125f882612ed8565b604082019050919050565b6000612610601183612bee565b915061261b82612f27565b602082019050919050565b6000612633602f83612bee565b915061263e82612f50565b604082019050919050565b600060e083016000830151848203600086015261266682826124d4565b9150506020830151848203602086015261268082826124d4565b9150506040830151848203604086015261269a82826124d4565b915050606083015184820360608601526126b482826124d4565b915050608083015184820360808601526126ce82826124d4565b91505060a083015184820360a08601526126e882826124d4565b91505060c083015184820360c086015261270282826124d4565b9150508091505092915050565b600060e0830160008301516127276000860182612863565b50602083015161273a60208601826124b6565b506040830151848203604086015261275282826124d4565b9150506060830151848203606086015261276c82826124d4565b915050608083015184820360808601526127868282612423565b91505060a083015161279b60a0860182612498565b5060c08301516127ae60c086018261232b565b508091505092915050565b600060e0830160008301516127d1600086018261232b565b50602083015184820360208601526127e982826124d4565b9150506040830151848203604086015261280382826124d4565b91505060608301516128186060860182612863565b50608083015161282b608086018261232b565b5060a083015184820360a086015261284382826124d4565b91505060c083015161285860c086018261232b565b508091505092915050565b61286c81612c7b565b82525050565b61287b81612c7b565b82525050565b600061288d8284612546565b915081905092915050565b60006020820190506128ad600083018461233a565b92915050565b600060208201905081810360008301526128cd8184612349565b905092915050565b600060208201905081810360008301526128ef81846123ae565b905092915050565b600060208201905061290c60008301846124a7565b92915050565b6000602082019050818103600083015261292c818461250d565b905092915050565b6000602082019050818103600083015261294d81612577565b9050919050565b6000602082019050818103600083015261296d8161259a565b9050919050565b6000602082019050818103600083015261298d816125bd565b9050919050565b600060208201905081810360008301526129ad816125e0565b9050919050565b600060208201905081810360008301526129cd81612603565b9050919050565b600060208201905081810360008301526129ed81612626565b9050919050565b60006020820190508181036000830152612a0e818461270f565b905092915050565b6000602082019050612a2b6000830184612872565b92915050565b600060c082019050612a466000830189612872565b612a5360208301886124c5565b8181036040830152612a65818761250d565b90508181036060830152612a79818661250d565b9050612a8860808301856124a7565b612a9560a083018461233a565b979650505050505050565b6000612aaa612abb565b9050612ab68282612d25565b919050565b6000604051905090565b600067ffffffffffffffff821115612ae057612adf612db4565b5b602082029050602081019050919050565b600067ffffffffffffffff821115612b0c57612b0b612db4565b5b612b1582612e19565b9050602081019050919050565b60008190508160005260206000209050919050565b6000819050602082019050919050565b6000819050602082019050919050565b600081549050919050565b600081519050919050565b600081519050919050565b600081519050919050565b6000600182019050919050565b6000602082019050919050565b6000602082019050919050565b600082825260208201905092915050565b600082825260208201905092915050565b600082825260208201905092915050565b600082825260208201905092915050565b600082825260208201905092915050565b600081905092915050565b600073ffffffffffffffffffffffffffffffffffffffff82169050919050565b6000612c3582612c5b565b9050919050565b60008115159050919050565b6000819050612c5682612f9f565b919050565b600073ffffffffffffffffffffffffffffffffffffffff82169050919050565b6000819050919050565b6000612c9082612c48565b9050919050565b82818337600083830152505050565b60005b83811015612cc4578082015181840152602081019050612ca9565b83811115612cd3576000848401525b50505050565b60006002820490506001821680612cf157607f821691505b60208210811415612d0557612d04612d85565b5b50919050565b6000612d1e612d1983612e2a565b612c0a565b9050919050565b612d2e82612e19565b810181811067ffffffffffffffff82111715612d4d57612d4c612db4565b5b80604052505050565b7f4e487b7100000000000000000000000000000000000000000000000000000000600052602160045260246000fd5b7f4e487b7100000000000000000000000000000000000000000000000000000000600052602260045260246000fd5b7f4e487b7100000000000000000000000000000000000000000000000000000000600052604160045260246000fd5b6000612def8254612d0b565b9050919050565b600080fd5b600080fd5b600080fd5b600080fd5b600080fd5b600080fd5b600080fd5b6000601f19601f8301169050919050565b60008160001c9050919050565b7f4f6e6c7920617070726f766564206f7267616e697a6174696f6e2063616e207660008201527f616363696e6174652e0000000000000000000000000000000000000000000000602082015250565b7f4865616c7468706572736f6e20616c726561647920617070726f7665642e0000600082015250565b7f416c726561647920726567697374657265642e00000000000000000000000000600082015250565b7f4f6e6c792061646d696e2063616e20706572666f726d207468652066756e637460008201527f696f6e2e00000000000000000000000000000000000000000000000000000000602082015250565b7f556e726567697374657265642075736572000000000000000000000000000000600082015250565b7f4865616c7468706572736f6e20616c726561647920617070726f76656420627960008201527f20646966666572656e74206f72672e0000000000000000000000000000000000602082015250565b60038110612fb057612faf612d56565b5b50565b612fbc81612c2a565b8114612fc757600080fd5b50565b60038110612fd757600080fd5b50565b612fe381612c7b565b8114612fee57600080fd5b5056fea264697066735822122045a40656f2998900d1338f27a3c920a446f7faa2ccc2905f20e5fb284b182b3f64736f6c63430008050033",
  "immutableReferences": {},
  "source": "// SPDX-License-Identifier: MIT\npragma solidity >=0.7.5;\npragma experimental ABIEncoderV2;\n\nuint256 constant ORG_REGISTRATION_COST = 10;\n\nstruct OrgDetails {\n    string name;\n    string url;\n    string logo_hash;\n    string document_hash;\n    string location;\n    string phone;\n    string email;\n}\n\ninterface IGOrganization {\n    function name() external view returns (string memory);\n\n    function symbol() external view returns (string memory);\n\n    function ipfs_hash() external view returns (string memory);\n}\n\ninterface IGVaccine {\n    function approve(\n        address to,\n        uint256 batchId,\n        uint256 quantity\n    ) external;\n\n    function transferFrom(\n        address from,\n        address to,\n        uint256 batchId\n    ) external;\n\n    function getVaccineSchedule() external view returns (uint256[] memory);\n\n    function getVaccineScheduleLength() external view returns (uint256);\n\n    function name() external view returns (string memory);\n}\n\ninterface IGOrganizationFactory {\n    function getSpeficiedOrganizationDetails(address[] memory orgAddrs)\n        external\n        view\n        returns (OrgDetails[] memory);\n}\n\ncontract Government {\n    address public owner;\n\n    string private name_;\n    string private symbol_;\n    string private ipfs_hash_;\n\n    uint256 fully_vaccinated;\n    uint256 partially_vaccinated;\n\n    mapping(address => bool) public vaccineApprovalStatus;\n    mapping(address => bool) public organizationApprovalStatus;\n\n    mapping(string => bool) org_names;\n    mapping(string => bool) org_symbols;\n    mapping(string => bool) org_ipfs_hash;\n\n    address[] registeredOrganizations;\n    address[] approvedOrganizations;\n    address[] rejectedOrganizations;\n\n    enum Gender {\n        MALE,\n        FEMALE,\n        UNSPECIFIED\n    }\n\n    struct Vaccine {\n        address vaccine_address;\n        string vaccine_name;\n        string batch;\n        uint256 datetime;\n        address org;\n        string org_name;\n        address hp;\n    }\n\n    struct User {\n        uint256 year_of_birth;\n        Gender gender;\n        string namehash;\n        string imagehash;\n        Vaccine[] vaccines;\n        bool registered;\n        address org;\n    }\n    mapping(address => User) public users;\n\n    event OrganizationApproval(address indexed org);\n    event OrganizationRegistration(address indexed org);\n    event VaccineApproved(address indexed vaccine);\n    event RegisterIndividual(address indexed user);\n    event Vaccinate(\n        address indexed user,\n        address indexed vaccine_address,\n        string indexed batch_id\n    );\n\n    address public superAdmin;\n\t\taddress public vaccineFactoryAddress;\n\t\taddress public orgFactoryAddress;\n\n    // Constructor\n    constructor(\n        string memory _name,\n        string memory _symbol,\n        string memory _ipfs_hash,\n\t\t\t\taddress vFactory,\n\t\t\t\taddress oFactory\n    ) {\n        owner = msg.sender;\n        name_ = _name;\n        symbol_ = _symbol;\n        ipfs_hash_ = _ipfs_hash;\n\t\t\t\torgFactoryAddress = oFactory;\n\t\t\t\tvaccineFactoryAddress = vFactory;\n        superAdmin = msg.sender;\n    }\n\n    function name() public view returns (string memory) {\n        return name_;\n    }\n\n    function symbol() public view returns (string memory) {\n        return symbol_;\n    }\n\n    function ipfs_hash() public view returns (string memory) {\n        return ipfs_hash_;\n    }\n\n    function getUser(address user_address) public view returns (User memory) {\n        return users[user_address];\n    }\n\n    function approveVaccine(address vaccine) public {\n        vaccineApprovalStatus[vaccine] = true;\n        emit VaccineApproved(vaccine);\n    }\n\n    function registerIndividual(\n        uint256 year_of_birth,\n        Gender gender,\n        string memory namehash,\n        string memory imagehash\n    ) public {\n        require(users[msg.sender].registered == false, \"Already registered.\");\n        users[msg.sender].year_of_birth = year_of_birth;\n        users[msg.sender].gender = gender;\n        users[msg.sender].namehash = namehash;\n        users[msg.sender].imagehash = imagehash;\n        users[msg.sender].registered = true;\n        emit RegisterIndividual(msg.sender);\n    }\n\n    function registerOrganization() public {\n        // if (msg.value < ORG_REGISTRATION_COST) {\n        // \t\trevert(\"Insufficient amount.\");\n        // }\n        // require(!org_ipfs_hash[_ipfs_hash], \"Organization already registered.\");\n        // require(!org_names[_name], \"Organization name already taken.\");\n        // require(!org_symbols[_symbol], \"Organization symbol already taken.\");\n        // org_ipfs_hash[_ipfs_hash] = true;\n        // org_names[_name] = true;\n        // org_symbols[_symbol] = true;\n        registeredOrganizations.push(msg.sender);\n        emit OrganizationRegistration(msg.sender);\n    }\n\n    function approveOrganization(address org_address) public onlySuperAdmin {\n        // IGOrganization org = IGOrganization(org_address);\n        // require(org_ipfs_hash[org.ipfs_hash()], \"Organization not registered.\");\n        // require(org_names[org.name()], \"Organization not registered.\");\n        // require(org_symbols[org.symbol()], \"Organization not registered.\");\n        organizationApprovalStatus[org_address] = true;\n        // emit OrganizationApproval(org_address, org.name(), org.symbol());\n    }\n\n    function approveHealthPerson(address person) public onlyApprovedOrganization {\n        checkUserRegistration(person);\n        address prevOrg = users[person].org;\n        require(prevOrg == address(0), 'Healthperson already approved by different org.');\n        require(prevOrg != msg.sender, 'Healthperson already approved.');\n        users[person].org = msg.sender;\n    }\n\n    function disapproveHealthPerson(address person) public onlyApprovedOrganization {\n        checkUserRegistration(person);\n        users[person].org = address(0);\n    }\n\n    function vaccinate(\n        address to,\n        address vaccine_address,\n        string memory batch_id\n    ) public onlyApprovedOrganization {\n        checkUserRegistration(to);\n        IGVaccine vaccine = IGVaccine(vaccine_address);\n        string memory vaccine_name = vaccine.name();\n        IGOrganization org = IGOrganization(msg.sender);\n        string memory org_name = org.name();\n        address hp = tx.origin;\n        users[to].vaccines.push(\n            Vaccine(vaccine_address, vaccine_name, batch_id, block.timestamp, msg.sender, org_name, hp)\n        );\n        // users[to].vaccine_address = vaccine_address;\n        // users[to].batches.push(batch_id);\n        // users[to].datetime.push(block.timestamp);\n        // users[to].vaccine_count += 1;\n        // changeStatus(to);\n        emit Vaccinate(to, vaccine_address, batch_id);\n    }\n\n    modifier onlyApprovedOrganization() {\n        require(\n            organizationApprovalStatus[msg.sender],\n            \"Only approved organization can vaccinate.\"\n        );\n        _;\n    }\n\n    function checkUserRegistration(address user) private view {\n        require(users[user].registered == true, \"Unregistered user\");\n    }\n\n    function getRequiredVaccineCount(address vaccine_address)\n        public\n        view\n        returns (uint256)\n    {\n        IGVaccine vaccine = IGVaccine(vaccine_address);\n        return vaccine.getVaccineScheduleLength();\n    }\n\n    // function changeStatus(address user) private {\n    //     VaccineStatus status = getVaccineStatusOf(user);\n    //     if (status == VaccineStatus.FULLY_VACCINATED) {\n    //       fully_vaccinated += 1;\n    //     }\n    //     if (status == VaccineStatus.PARTIALLY_VACCINATED) {\n    //       \tpartially_vaccinated += 1;\n    //     }\n    // }\n\n    // function getVaccineStatusOf(address user)\n    //     public\n    //     view\n    //     returns (VaccineStatus status)\n    // {\n    //     uint256 user_vaccineCount = users[user].vaccine_count;\n    //     uint256 required_vaccineCount = getRequiredVaccineCount(users[user].vaccine_address);\n\n    //     if (user_vaccineCount == 0) {\n    //         return VaccineStatus.UNVACCINATED;\n    //     }\n    //     if (user_vaccineCount < required_vaccineCount) {\n    //         return VaccineStatus.PARTIALLY_VACCINATED;\n    //     }\n    //     if (user_vaccineCount == required_vaccineCount) {\n    //         return VaccineStatus.FULLY_VACCINATED;\n    //     }\n    // }\n\n    modifier onlySuperAdmin() {\n        require(\n            msg.sender == superAdmin,\n            \"Only admin can perform the function.\"\n        );\n        _;\n    }\n\n    function getApprovedOrganizations()\n        public\n        view\n        returns (OrgDetails[] memory)\n    {\n\t\t\tIGOrganizationFactory oFactory = IGOrganizationFactory(orgFactoryAddress);\n\t\t\treturn oFactory.getSpeficiedOrganizationDetails(approvedOrganizations);\n\t\t}\n\n    function getRegisteredOrganizations()\n        public\n        view\n        returns (OrgDetails[] memory)\n    {\n\t\t\tIGOrganizationFactory oFactory = IGOrganizationFactory(orgFactoryAddress);\n\t\t\treturn oFactory.getSpeficiedOrganizationDetails(registeredOrganizations);\n\t\t}\n}\n ",
  "sourcePath": "/home/prajwolrg/School/Vaccination/vaccine-solidity/contracts/Government.sol",
  "compiler": {
    "name": "solc",
    "version": "0.8.5+commit.a4f2e591.Emscripten.clang"
  },
  "schemaVersion": "3.4.4",
  "updatedAt": "2022-04-15T09:13:12.299Z",
  "networkType": "ethereum",
  "devdoc": {
    "kind": "dev",
    "methods": {},
    "version": 1
  },
  "userdoc": {
    "kind": "user",
    "methods": {},
    "version": 1
  }
}