{
  "contractName": "OrganizationFactory",
  "abi": [
    {
      "inputs": [
        {
          "internalType": "uint256",
          "name": "",
          "type": "uint256"
        }
      ],
      "name": "orgs",
      "outputs": [
        {
          "internalType": "contract Organization",
          "name": "",
          "type": "address"
        }
      ],
      "stateMutability": "view",
      "type": "function",
      "constant": true
    },
    {
      "inputs": [
        {
          "internalType": "address",
          "name": "gov",
          "type": "address"
        },
        {
          "internalType": "string",
          "name": "name",
          "type": "string"
        },
        {
          "internalType": "string",
          "name": "symbol",
          "type": "string"
        },
        {
          "internalType": "string",
          "name": "ipfs_hash",
          "type": "string"
        }
      ],
      "name": "createOrganization",
      "outputs": [],
      "stateMutability": "nonpayable",
      "type": "function"
    },
    {
      "inputs": [],
      "name": "getOrganizations",
      "outputs": [
        {
          "internalType": "contract Organization[]",
          "name": "",
          "type": "address[]"
        }
      ],
      "stateMutability": "view",
      "type": "function",
      "constant": true
    }
  ],
  "bytecode": "0x608060405234801561001057600080fd5b5061223e806100206000396000f3fe60806040523480156200001157600080fd5b5060043610620000465760003560e01c80633f9803d6146200004b5780634f5c2e6c146200006b5780639754a3a814620000a1575b600080fd5b620000696004803603810190620000639190620002fa565b620000c3565b005b620000896004803603810190620000839190620003c9565b62000170565b60405162000098919062000579565b60405180910390f35b620000ab620001b0565b604051620000ba919062000555565b60405180910390f35b600084848484604051620000d79062000240565b620000e69493929190620004f3565b604051809103906000f08015801562000103573d6000803e3d6000fd5b5090506000819080600181540180825580915050600190039060005260206000200160009091909190916101000a81548173ffffffffffffffffffffffffffffffffffffffff021916908373ffffffffffffffffffffffffffffffffffffffff1602179055505050505050565b600081815481106200018157600080fd5b906000526020600020016000915054906101000a900473ffffffffffffffffffffffffffffffffffffffff1681565b606060008054806020026020016040519081016040528092919081815260200182805480156200023657602002820191906000526020600020905b8160009054906101000a900473ffffffffffffffffffffffffffffffffffffffff1673ffffffffffffffffffffffffffffffffffffffff1681526020019060010190808311620001eb575b5050505050905090565b611a5580620007b483390190565b6000620002656200025f84620005bf565b62000596565b9050828152602081018484840111156200028457620002836200075f565b5b62000291848285620006b0565b509392505050565b600081359050620002aa816200077f565b92915050565b600082601f830112620002c857620002c76200075a565b5b8135620002da8482602086016200024e565b91505092915050565b600081359050620002f48162000799565b92915050565b6000806000806080858703121562000317576200031662000769565b5b6000620003278782880162000299565b945050602085013567ffffffffffffffff8111156200034b576200034a62000764565b5b6200035987828801620002b0565b935050604085013567ffffffffffffffff8111156200037d576200037c62000764565b5b6200038b87828801620002b0565b925050606085013567ffffffffffffffff811115620003af57620003ae62000764565b5b620003bd87828801620002b0565b91505092959194509250565b600060208284031215620003e257620003e162000769565b5b6000620003f284828501620002e3565b91505092915050565b600062000409838362000490565b60208301905092915050565b62000420816200064a565b82525050565b6000620004338262000605565b6200043f818562000628565b93506200044c83620005f5565b8060005b8381101562000483578151620004678882620003fb565b975062000474836200061b565b92505060018101905062000450565b5085935050505092915050565b6200049b8162000688565b82525050565b620004ac8162000688565b82525050565b6000620004bf8262000610565b620004cb818562000639565b9350620004dd818560208601620006bf565b620004e8816200076e565b840191505092915050565b60006080820190506200050a600083018762000415565b81810360208301526200051e8186620004b2565b90508181036040830152620005348185620004b2565b905081810360608301526200054a8184620004b2565b905095945050505050565b6000602082019050818103600083015262000571818462000426565b905092915050565b6000602082019050620005906000830184620004a1565b92915050565b6000620005a2620005b5565b9050620005b08282620006f5565b919050565b6000604051905090565b600067ffffffffffffffff821115620005dd57620005dc6200072b565b5b620005e8826200076e565b9050602081019050919050565b6000819050602082019050919050565b600081519050919050565b600081519050919050565b6000602082019050919050565b600082825260208201905092915050565b600082825260208201905092915050565b600062000657826200065e565b9050919050565b600073ffffffffffffffffffffffffffffffffffffffff82169050919050565b6000819050919050565b600062000695826200069c565b9050919050565b6000620006a9826200065e565b9050919050565b82818337600083830152505050565b60005b83811015620006df578082015181840152602081019050620006c2565b83811115620006ef576000848401525b50505050565b62000700826200076e565b810181811067ffffffffffffffff821117156200072257620007216200072b565b5b80604052505050565b7f4e487b7100000000000000000000000000000000000000000000000000000000600052604160045260246000fd5b600080fd5b600080fd5b600080fd5b600080fd5b6000601f19601f8301169050919050565b6200078a816200064a565b81146200079657600080fd5b50565b620007a4816200067e565b8114620007b057600080fd5b5056fe60806040523480156200001157600080fd5b5060405162001a5538038062001a558339818101604052810190620000379190620002e5565b33600a60006101000a81548173ffffffffffffffffffffffffffffffffffffffff021916908373ffffffffffffffffffffffffffffffffffffffff160217905550836000806101000a81548173ffffffffffffffffffffffffffffffffffffffff021916908373ffffffffffffffffffffffffffffffffffffffff16021790555060008054906101000a900473ffffffffffffffffffffffffffffffffffffffff1673ffffffffffffffffffffffffffffffffffffffff16632ee5144f8484846040518463ffffffff1660e01b81526004016200011793929190620003f5565b600060405180830381600087803b1580156200013257600080fd5b505af115801562000147573d6000803e3d6000fd5b50505050826004908051906020019062000163929190620001a0565b5081600590805190602001906200017c929190620001a0565b50806006908051906020019062000195929190620001a0565b505050505062000635565b828054620001ae906200052c565b90600052602060002090601f016020900481019282620001d257600085556200021e565b82601f10620001ed57805160ff19168380011785556200021e565b828001600101855582156200021e579182015b828111156200021d57825182559160200191906001019062000200565b5b5090506200022d919062000231565b5090565b5b808211156200024c57600081600090555060010162000232565b5090565b600062000267620002618462000470565b62000447565b905082815260208101848484011115620002865762000285620005fb565b5b62000293848285620004f6565b509392505050565b600081519050620002ac816200061b565b92915050565b600082601f830112620002ca57620002c9620005f6565b5b8151620002dc84826020860162000250565b91505092915050565b6000806000806080858703121562000302576200030162000605565b5b600062000312878288016200029b565b945050602085015167ffffffffffffffff81111562000336576200033562000600565b5b6200034487828801620002b2565b935050604085015167ffffffffffffffff81111562000368576200036762000600565b5b6200037687828801620002b2565b925050606085015167ffffffffffffffff8111156200039a576200039962000600565b5b620003a887828801620002b2565b91505092959194509250565b6000620003c182620004a6565b620003cd8185620004b1565b9350620003df818560208601620004f6565b620003ea816200060a565b840191505092915050565b60006060820190508181036000830152620004118186620003b4565b90508181036020830152620004278185620003b4565b905081810360408301526200043d8184620003b4565b9050949350505050565b60006200045362000466565b905062000461828262000562565b919050565b6000604051905090565b600067ffffffffffffffff8211156200048e576200048d620005c7565b5b62000499826200060a565b9050602081019050919050565b600081519050919050565b600082825260208201905092915050565b6000620004cf82620004d6565b9050919050565b600073ffffffffffffffffffffffffffffffffffffffff82169050919050565b60005b8381101562000516578082015181840152602081019050620004f9565b8381111562000526576000848401525b50505050565b600060028204905060018216806200054557607f821691505b602082108114156200055c576200055b62000598565b5b50919050565b6200056d826200060a565b810181811067ffffffffffffffff821117156200058f576200058e620005c7565b5b80604052505050565b7f4e487b7100000000000000000000000000000000000000000000000000000000600052602260045260246000fd5b7f4e487b7100000000000000000000000000000000000000000000000000000000600052604160045260246000fd5b600080fd5b600080fd5b600080fd5b600080fd5b6000601f19601f8301169050919050565b6200062681620004c2565b81146200063257600080fd5b50565b61141080620006456000396000f3fe608060405234801561001057600080fd5b50600436106100cf5760003560e01c8063809051db1161008c57806395d89b411161006657806395d89b41146101ee578063a7d41ac11461020c578063c38f7ef01461022a578063c6bc8fd11461025a576100cf565b8063809051db146101945780638da5cb5b146101b25780638fe17ae6146101d0576100cf565b806306fdde03146100d45780630794be4f146100f25780632140fb801461010e57806325de97ef1461013e578063281481d51461015a5780634baf1a0f14610176575b600080fd5b6100dc610278565b6040516100e99190610fda565b60405180910390f35b61010c60048036038101906101079190610d6a565b61030a565b005b61012860048036038101906101239190610dd9565b610542565b6040516101359190610f14565b60405180910390f35b61015860048036038101906101539190610d3d565b610581565b005b610174600480360381019061016f9190610d3d565b61063f565b005b61017e610848565b60405161018b919061101c565b60405180910390f35b61019c61084e565b6040516101a99190610fda565b60405180910390f35b6101ba6108e0565b6040516101c79190610f14565b60405180910390f35b6101d8610906565b6040516101e5919061101c565b60405180910390f35b6101f661090c565b6040516102039190610fda565b60405180910390f35b61021461099e565b6040516102219190610f9d565b60405180910390f35b610244600480360381019061023f9190610d3d565b610b4e565b6040516102519190610fbf565b60405180910390f35b610262610b6e565b60405161026f9190610fda565b60405180910390f35b606060048054610287906111f6565b80601f01602080910402602001604051908101604052809291908181526020018280546102b3906111f6565b80156103005780601f106102d557610100808354040283529160200191610300565b820191906000526020600020905b8154815290600101906020018083116102e357829003601f168201915b5050505050905090565b600960003373ffffffffffffffffffffffffffffffffffffffff1673ffffffffffffffffffffffffffffffffffffffff16815260200190815260200160002060009054906101000a900460ff16610396576040517f08c379a000000000000000000000000000000000000000000000000000000000815260040161038d90610ffc565b60405180910390fd5b60008290506001600260008282546103ae91906110e2565b925050819055506001600360008282546103c891906110e2565b9250508190555060008054906101000a900473ffffffffffffffffffffffffffffffffffffffff1673ffffffffffffffffffffffffffffffffffffffff16630794be4f8585856040518463ffffffff1660e01b815260040161042c93929190610f2f565b600060405180830381600087803b15801561044657600080fd5b505af115801561045a573d6000803e3d6000fd5b505050508073ffffffffffffffffffffffffffffffffffffffff16636103986285846040518363ffffffff1660e01b8152600401610499929190610f6d565b600060405180830381600087803b1580156104b357600080fd5b505af11580156104c7573d6000803e3d6000fd5b505050508273ffffffffffffffffffffffffffffffffffffffff163373ffffffffffffffffffffffffffffffffffffffff168573ffffffffffffffffffffffffffffffffffffffff167f92bcccd59a6e4cf458463ac7a1aaaa2e64a7394411981fcbde52bd37dd75f14560405160405180910390a450505050565b6008818154811061055257600080fd5b906000526020600020016000915054906101000a900473ffffffffffffffffffffffffffffffffffffffff1681565b6008819080600181540180825580915050600190039060005260206000200160009091909190916101000a81548173ffffffffffffffffffffffffffffffffffffffff021916908373ffffffffffffffffffffffffffffffffffffffff1602179055506001600960008373ffffffffffffffffffffffffffffffffffffffff1673ffffffffffffffffffffffffffffffffffffffff16815260200190815260200160002060006101000a81548160ff02191690831515021790555050565b600060016008805490506106539190611138565b67ffffffffffffffff81111561066c5761066b61132f565b5b60405190808252806020026020018201604052801561069a5781602001602082028036833780820191505090505b5090506000805b60088054905081101561082b578373ffffffffffffffffffffffffffffffffffffffff16600882815481106106d9576106d8611300565b5b9060005260206000200160009054906101000a900473ffffffffffffffffffffffffffffffffffffffff1673ffffffffffffffffffffffffffffffffffffffff16141561077d576000600960008673ffffffffffffffffffffffffffffffffffffffff1673ffffffffffffffffffffffffffffffffffffffff16815260200190815260200160002060006101000a81548160ff021916908315150217905550610818565b6008818154811061079157610790611300565b5b9060005260206000200160009054906101000a900473ffffffffffffffffffffffffffffffffffffffff168383815181106107cf576107ce611300565b5b602002602001019073ffffffffffffffffffffffffffffffffffffffff16908173ffffffffffffffffffffffffffffffffffffffff1681525050818061081490611259565b9250505b808061082390611259565b9150506106a1565b508160089080519060200190610842929190610bfc565b50505050565b60025481565b60606006805461085d906111f6565b80601f0160208091040260200160405190810160405280929190818152602001828054610889906111f6565b80156108d65780601f106108ab576101008083540402835291602001916108d6565b820191906000526020600020905b8154815290600101906020018083116108b957829003601f168201915b5050505050905090565b600160009054906101000a900473ffffffffffffffffffffffffffffffffffffffff1681565b60035481565b60606005805461091b906111f6565b80601f0160208091040260200160405190810160405280929190818152602001828054610947906111f6565b80156109945780601f1061096957610100808354040283529160200191610994565b820191906000526020600020905b81548152906001019060200180831161097757829003601f168201915b5050505050905090565b6060600060088054905067ffffffffffffffff8111156109c1576109c061132f565b5b6040519080825280602002602001820160405280156109ef5781602001602082028036833780820191505090505b509050600080600091505b600880549050821015610b45576009600060088481548110610a1f57610a1e611300565b5b9060005260206000200160009054906101000a900473ffffffffffffffffffffffffffffffffffffffff1673ffffffffffffffffffffffffffffffffffffffff1673ffffffffffffffffffffffffffffffffffffffff16815260200190815260200160002060009054906101000a900460ff1615610b325760088281548110610aab57610aaa611300565b5b9060005260206000200160009054906101000a900473ffffffffffffffffffffffffffffffffffffffff16838281518110610ae957610ae8611300565b5b602002602001019073ffffffffffffffffffffffffffffffffffffffff16908173ffffffffffffffffffffffffffffffffffffffff16815250508080610b2e90611259565b9150505b8180610b3d90611259565b9250506109fa565b82935050505090565b60096020528060005260406000206000915054906101000a900460ff1681565b60078054610b7b906111f6565b80601f0160208091040260200160405190810160405280929190818152602001828054610ba7906111f6565b8015610bf45780601f10610bc957610100808354040283529160200191610bf4565b820191906000526020600020905b815481529060010190602001808311610bd757829003601f168201915b505050505081565b828054828255906000526020600020908101928215610c75579160200282015b82811115610c745782518260006101000a81548173ffffffffffffffffffffffffffffffffffffffff021916908373ffffffffffffffffffffffffffffffffffffffff16021790555091602001919060010190610c1c565b5b509050610c829190610c86565b5090565b5b80821115610c9f576000816000905550600101610c87565b5090565b6000610cb6610cb18461105c565b611037565b905082815260208101848484011115610cd257610cd1611363565b5b610cdd8482856111b4565b509392505050565b600081359050610cf4816113ac565b92915050565b600082601f830112610d0f57610d0e61135e565b5b8135610d1f848260208601610ca3565b91505092915050565b600081359050610d37816113c3565b92915050565b600060208284031215610d5357610d5261136d565b5b6000610d6184828501610ce5565b91505092915050565b600080600060608486031215610d8357610d8261136d565b5b6000610d9186828701610ce5565b9350506020610da286828701610ce5565b925050604084013567ffffffffffffffff811115610dc357610dc2611368565b5b610dcf86828701610cfa565b9150509250925092565b600060208284031215610def57610dee61136d565b5b6000610dfd84828501610d28565b91505092915050565b6000610e128383610e1e565b60208301905092915050565b610e278161116c565b82525050565b610e368161116c565b82525050565b6000610e478261109d565b610e5181856110c0565b9350610e5c8361108d565b8060005b83811015610e8d578151610e748882610e06565b9750610e7f836110b3565b925050600181019050610e60565b5085935050505092915050565b610ea38161117e565b82525050565b6000610eb4826110a8565b610ebe81856110d1565b9350610ece8185602086016111c3565b610ed781611372565b840191505092915050565b6000610eef601a836110d1565b9150610efa82611383565b602082019050919050565b610f0e816111aa565b82525050565b6000602082019050610f296000830184610e2d565b92915050565b6000606082019050610f446000830186610e2d565b610f516020830185610e2d565b8181036040830152610f638184610ea9565b9050949350505050565b6000604082019050610f826000830185610e2d565b8181036020830152610f948184610ea9565b90509392505050565b60006020820190508181036000830152610fb78184610e3c565b905092915050565b6000602082019050610fd46000830184610e9a565b92915050565b60006020820190508181036000830152610ff48184610ea9565b905092915050565b6000602082019050818103600083015261101581610ee2565b9050919050565b60006020820190506110316000830184610f05565b92915050565b6000611041611052565b905061104d8282611228565b919050565b6000604051905090565b600067ffffffffffffffff8211156110775761107661132f565b5b61108082611372565b9050602081019050919050565b6000819050602082019050919050565b600081519050919050565b600081519050919050565b6000602082019050919050565b600082825260208201905092915050565b600082825260208201905092915050565b60006110ed826111aa565b91506110f8836111aa565b9250827fffffffffffffffffffffffffffffffffffffffffffffffffffffffffffffffff0382111561112d5761112c6112a2565b5b828201905092915050565b6000611143826111aa565b915061114e836111aa565b925082821015611161576111606112a2565b5b828203905092915050565b60006111778261118a565b9050919050565b60008115159050919050565b600073ffffffffffffffffffffffffffffffffffffffff82169050919050565b6000819050919050565b82818337600083830152505050565b60005b838110156111e15780820151818401526020810190506111c6565b838111156111f0576000848401525b50505050565b6000600282049050600182168061120e57607f821691505b60208210811415611222576112216112d1565b5b50919050565b61123182611372565b810181811067ffffffffffffffff821117156112505761124f61132f565b5b80604052505050565b6000611264826111aa565b91507fffffffffffffffffffffffffffffffffffffffffffffffffffffffffffffffff821415611297576112966112a2565b5b600182019050919050565b7f4e487b7100000000000000000000000000000000000000000000000000000000600052601160045260246000fd5b7f4e487b7100000000000000000000000000000000000000000000000000000000600052602260045260246000fd5b7f4e487b7100000000000000000000000000000000000000000000000000000000600052603260045260246000fd5b7f4e487b7100000000000000000000000000000000000000000000000000000000600052604160045260246000fd5b600080fd5b600080fd5b600080fd5b600080fd5b6000601f19601f8301169050919050565b7f4865616c7468506572736f6e206e6f7420617070726f7665642e000000000000600082015250565b6113b58161116c565b81146113c057600080fd5b50565b6113cc816111aa565b81146113d757600080fd5b5056fea26469706673582212207f08b722aff2bca4f280aba3d08e797dba932e707cd6db64d2d2103d80d8994764736f6c63430008050033a2646970667358221220d9ad74ae62f948f8fa82f1da10f9d424e90b3854d178d43aec8a3cccd629112d64736f6c63430008050033",
  "immutableReferences": {},
  "source": "// SPDX-License-Identifier: MIT\npragma solidity >=0.7.5;\npragma experimental ABIEncoderV2;\n\ninterface IOGovernment {\n    function registerOrganization(\n        string memory _name,\n        string memory _symbol,\n        string memory _ipfs_hash\n    ) external;\n\n    function checkUserRegistration(address user) external view;\n\n    function vaccinate(\n        address to,\n        address vaccine_address,\n        string memory batch_id\n    ) external;\n}\n\ninterface IOVaccine {\n    function approve(\n        address to,\n        uint256 batchId,\n        uint256 quantity\n    ) external;\n\n    function transferFrom(\n        address from,\n        address to,\n        uint256 batchId\n    ) external;\n\n    function name() external view returns (string memory);\n\n    function vaccinate(address to, string memory batchId) external;\n}\n\ncontract Organization {\n    IOGovernment gov;\n    address public owner;\n    uint256 public partially_vaccinated;\n    uint256 public fully_vaccinated;\n\n    string private name_;\n    string private symbol_;\n    string private ipfs_hash_;\n    string public location_;\n\n    address[] public healthPersons;\n    mapping(address => bool) public healthPersonApprovalStatus;\n\n    address superAdmin;\n\n    event HealthPersonAdded(address indexed account);\n    event Vaccined(\n        address indexed user,\n        address indexed healthPerson,\n        address indexed vaccine\n    );\n\n    // Constructor\n    constructor(\n        address government,\n        string memory _name,\n        string memory _symbol,\n        string memory _ipfs_hash\n    ) {\n        superAdmin = msg.sender;\n        gov = IOGovernment(government);\n        gov.registerOrganization(_name, _symbol, _ipfs_hash);\n        name_ = _name;\n        symbol_ = _symbol;\n        ipfs_hash_ = _ipfs_hash;\n    }\n\n    function name() public view returns (string memory) {\n        return name_;\n    }\n\n    function symbol() public view returns (string memory) {\n        return symbol_;\n    }\n\n    function ipfs_hash() public view returns (string memory) {\n        return ipfs_hash_;\n    }\n\n    function approveHealthPerson(address person) public {\n        healthPersons.push(person);\n        healthPersonApprovalStatus[person] = true;\n    }\n\n    function disapproveHealthPerson(address person) public {\n      address[] memory hps = new address[](healthPersons.length - 1);\n\n\t\t\tuint j = 0;\n      for (uint i = 0; i < healthPersons.length; i++) {\n          if (healthPersons[i] == person) {\n            healthPersonApprovalStatus[person] = false;\n          } else {\n            hps[j] = healthPersons[i];\n            j++;\n          }\n      }\n      healthPersons = hps;\n    }\n\n    function vaccinate(\n        address to,\n        address vaccine_address,\n        string memory batch_id\n    ) public onlyHealthPerson {\n        IOVaccine vaccine = IOVaccine(vaccine_address);\n        partially_vaccinated += 1;\n        fully_vaccinated += 1;\n        gov.vaccinate(to, vaccine_address, batch_id);\n        vaccine.vaccinate(to, batch_id);\n        emit Vaccined(to, msg.sender, vaccine_address);\n    }\n\n    modifier onlyHealthPerson() {\n        require(\n            healthPersonApprovalStatus[msg.sender],\n            \"HealthPerson not approved.\"\n        );\n        _;\n    }\n\n    function getApprovedHealthPersons() public view returns (address[] memory) {\n        address[] memory hps = new address[](healthPersons.length);\n        uint256 i = 0;\n        uint256 j = 0;\n        for (i = 0; i < healthPersons.length; i++) {\n            if (healthPersonApprovalStatus[healthPersons[i]]) {\n                hps[j] = (healthPersons[i]);\n                j++;\n            }\n        }\n        return hps;\n    }\n}\n\ncontract OrganizationFactory{\n    Organization[] public orgs;\n\n    function createOrganization(address gov, string memory name, string memory symbol, string memory ipfs_hash) public {\n        Organization org = new Organization(gov, name, symbol, ipfs_hash);\n        orgs.push(org);\n    }\n\n    function getOrganizations() public view returns (Organization[] memory) {\n        return orgs;\n    }\n}",
  "sourcePath": "/home/prajwolrg/School/Vaccination/vaccine-solidity/contracts/Organization.sol",
  "compiler": {
    "name": "solc",
    "version": "0.8.5+commit.a4f2e591.Emscripten.clang"
  },
  "schemaVersion": "3.4.4",
  "updatedAt": "2022-04-14T08:50:44.191Z",
  "networkType": "ethereum",
  "devdoc": {
    "kind": "dev",
    "methods": {},
    "version": 1
  },
  "userdoc": {
    "kind": "user",
    "methods": {},
    "version": 1
  }
}