{
  "contractName": "Organization",
  "abi": [
    {
      "inputs": [
        {
          "internalType": "address",
          "name": "government",
          "type": "address"
        },
        {
          "internalType": "string",
          "name": "_name",
          "type": "string"
        },
        {
          "internalType": "string",
          "name": "_url",
          "type": "string"
        },
        {
          "internalType": "string",
          "name": "_logo_hash",
          "type": "string"
        },
        {
          "internalType": "string",
          "name": "_document_hash",
          "type": "string"
        },
        {
          "internalType": "string",
          "name": "_location",
          "type": "string"
        },
        {
          "internalType": "string",
          "name": "_phone",
          "type": "string"
        },
        {
          "internalType": "string",
          "name": "_email",
          "type": "string"
        }
      ],
      "stateMutability": "nonpayable",
      "type": "constructor"
    },
    {
      "anonymous": false,
      "inputs": [
        {
          "indexed": true,
          "internalType": "address",
          "name": "account",
          "type": "address"
        }
      ],
      "name": "HealthPersonAdded",
      "type": "event"
    },
    {
      "anonymous": false,
      "inputs": [
        {
          "indexed": true,
          "internalType": "address",
          "name": "user",
          "type": "address"
        },
        {
          "indexed": true,
          "internalType": "address",
          "name": "healthPerson",
          "type": "address"
        },
        {
          "indexed": true,
          "internalType": "address",
          "name": "vaccine",
          "type": "address"
        }
      ],
      "name": "Vaccined",
      "type": "event"
    },
    {
      "inputs": [],
      "name": "fully_vaccinated",
      "outputs": [
        {
          "internalType": "uint256",
          "name": "",
          "type": "uint256"
        }
      ],
      "stateMutability": "view",
      "type": "function",
      "constant": true
    },
    {
      "inputs": [
        {
          "internalType": "address",
          "name": "",
          "type": "address"
        }
      ],
      "name": "healthPersonApprovalStatus",
      "outputs": [
        {
          "internalType": "bool",
          "name": "",
          "type": "bool"
        }
      ],
      "stateMutability": "view",
      "type": "function",
      "constant": true
    },
    {
      "inputs": [
        {
          "internalType": "uint256",
          "name": "",
          "type": "uint256"
        }
      ],
      "name": "healthPersons",
      "outputs": [
        {
          "internalType": "address",
          "name": "",
          "type": "address"
        }
      ],
      "stateMutability": "view",
      "type": "function",
      "constant": true
    },
    {
      "inputs": [],
      "name": "owner",
      "outputs": [
        {
          "internalType": "address",
          "name": "",
          "type": "address"
        }
      ],
      "stateMutability": "view",
      "type": "function",
      "constant": true
    },
    {
      "inputs": [],
      "name": "partially_vaccinated",
      "outputs": [
        {
          "internalType": "uint256",
          "name": "",
          "type": "uint256"
        }
      ],
      "stateMutability": "view",
      "type": "function",
      "constant": true
    },
    {
      "inputs": [],
      "name": "superAdmin",
      "outputs": [
        {
          "internalType": "address",
          "name": "",
          "type": "address"
        }
      ],
      "stateMutability": "view",
      "type": "function",
      "constant": true
    },
    {
      "inputs": [],
      "name": "name",
      "outputs": [
        {
          "internalType": "string",
          "name": "",
          "type": "string"
        }
      ],
      "stateMutability": "view",
      "type": "function",
      "constant": true
    },
    {
      "inputs": [],
      "name": "url",
      "outputs": [
        {
          "internalType": "string",
          "name": "",
          "type": "string"
        }
      ],
      "stateMutability": "view",
      "type": "function",
      "constant": true
    },
    {
      "inputs": [],
      "name": "logo_hash",
      "outputs": [
        {
          "internalType": "string",
          "name": "",
          "type": "string"
        }
      ],
      "stateMutability": "view",
      "type": "function",
      "constant": true
    },
    {
      "inputs": [],
      "name": "document_hash",
      "outputs": [
        {
          "internalType": "string",
          "name": "",
          "type": "string"
        }
      ],
      "stateMutability": "view",
      "type": "function",
      "constant": true
    },
    {
      "inputs": [],
      "name": "location",
      "outputs": [
        {
          "internalType": "string",
          "name": "",
          "type": "string"
        }
      ],
      "stateMutability": "view",
      "type": "function",
      "constant": true
    },
    {
      "inputs": [],
      "name": "phone",
      "outputs": [
        {
          "internalType": "string",
          "name": "",
          "type": "string"
        }
      ],
      "stateMutability": "view",
      "type": "function",
      "constant": true
    },
    {
      "inputs": [],
      "name": "email",
      "outputs": [
        {
          "internalType": "string",
          "name": "",
          "type": "string"
        }
      ],
      "stateMutability": "view",
      "type": "function",
      "constant": true
    },
    {
      "inputs": [
        {
          "internalType": "address",
          "name": "person",
          "type": "address"
        }
      ],
      "name": "approveHealthPerson",
      "outputs": [],
      "stateMutability": "nonpayable",
      "type": "function"
    },
    {
      "inputs": [
        {
          "internalType": "address",
          "name": "person",
          "type": "address"
        }
      ],
      "name": "disapproveHealthPerson",
      "outputs": [],
      "stateMutability": "nonpayable",
      "type": "function"
    },
    {
      "inputs": [
        {
          "internalType": "address",
          "name": "to",
          "type": "address"
        },
        {
          "internalType": "address",
          "name": "vaccine_address",
          "type": "address"
        },
        {
          "internalType": "string",
          "name": "batch_id",
          "type": "string"
        }
      ],
      "name": "vaccinate",
      "outputs": [],
      "stateMutability": "nonpayable",
      "type": "function"
    },
    {
      "inputs": [],
      "name": "getApprovedHealthPersons",
      "outputs": [
        {
          "internalType": "address[]",
          "name": "",
          "type": "address[]"
        }
      ],
      "stateMutability": "view",
      "type": "function",
      "constant": true
    }
  ],
  "bytecode": "0x60806040523480156200001157600080fd5b5060405162001fa138038062001fa183398181016040528101906200003791906200033c565b32600d60006101000a81548173ffffffffffffffffffffffffffffffffffffffff021916908373ffffffffffffffffffffffffffffffffffffffff160217905550866004908051906020019062000090929190620001f7565b508560059080519060200190620000a9929190620001f7565b508460069080519060200190620000c2929190620001f7565b508360079080519060200190620000db929190620001f7565b508260089080519060200190620000f4929190620001f7565b5081600990805190602001906200010d929190620001f7565b5080600a908051906020019062000126929190620001f7565b50876000806101000a81548173ffffffffffffffffffffffffffffffffffffffff021916908373ffffffffffffffffffffffffffffffffffffffff16021790555060008054906101000a900473ffffffffffffffffffffffffffffffffffffffff1673ffffffffffffffffffffffffffffffffffffffff166353e42da36040518163ffffffff1660e01b8152600401600060405180830381600087803b158015620001d057600080fd5b505af1158015620001e5573d6000803e3d6000fd5b505050505050505050505050620006b0565b8280546200020590620005a7565b90600052602060002090601f01602090048101928262000229576000855562000275565b82601f106200024457805160ff191683800117855562000275565b8280016001018555821562000275579182015b828111156200027457825182559160200191906001019062000257565b5b50905062000284919062000288565b5090565b5b80821115620002a357600081600090555060010162000289565b5090565b6000620002be620002b88462000507565b620004de565b905082815260208101848484011115620002dd57620002dc62000676565b5b620002ea84828562000571565b509392505050565b600081519050620003038162000696565b92915050565b600082601f83011262000321576200032062000671565b5b815162000333848260208601620002a7565b91505092915050565b600080600080600080600080610100898b03121562000360576200035f62000680565b5b6000620003708b828c01620002f2565b985050602089015167ffffffffffffffff8111156200039457620003936200067b565b5b620003a28b828c0162000309565b975050604089015167ffffffffffffffff811115620003c657620003c56200067b565b5b620003d48b828c0162000309565b965050606089015167ffffffffffffffff811115620003f857620003f76200067b565b5b620004068b828c0162000309565b955050608089015167ffffffffffffffff8111156200042a57620004296200067b565b5b620004388b828c0162000309565b94505060a089015167ffffffffffffffff8111156200045c576200045b6200067b565b5b6200046a8b828c0162000309565b93505060c089015167ffffffffffffffff8111156200048e576200048d6200067b565b5b6200049c8b828c0162000309565b92505060e089015167ffffffffffffffff811115620004c057620004bf6200067b565b5b620004ce8b828c0162000309565b9150509295985092959890939650565b6000620004ea620004fd565b9050620004f88282620005dd565b919050565b6000604051905090565b600067ffffffffffffffff82111562000525576200052462000642565b5b620005308262000685565b9050602081019050919050565b60006200054a8262000551565b9050919050565b600073ffffffffffffffffffffffffffffffffffffffff82169050919050565b60005b838110156200059157808201518184015260208101905062000574565b83811115620005a1576000848401525b50505050565b60006002820490506001821680620005c057607f821691505b60208210811415620005d757620005d662000613565b5b50919050565b620005e88262000685565b810181811067ffffffffffffffff821117156200060a576200060962000642565b5b80604052505050565b7f4e487b7100000000000000000000000000000000000000000000000000000000600052602260045260246000fd5b7f4e487b7100000000000000000000000000000000000000000000000000000000600052604160045260246000fd5b600080fd5b600080fd5b600080fd5b600080fd5b6000601f19601f8301169050919050565b620006a1816200053d565b8114620006ad57600080fd5b50565b6118e180620006c06000396000f3fe608060405234801561001057600080fd5b506004361061010b5760003560e01c80635600f04f116100a25780638fe17ae6116100715780638fe17ae6146102845780639284f497146102a2578063a7d41ac1146102c0578063c38f7ef0146102de578063f05883c61461030e5761010b565b80635600f04f1461020c5780637e0acf041461022a578063820e93f5146102485780638da5cb5b146102665761010b565b8063281481d5116100de578063281481d51461019657806329575f6a146101b25780634baf1a0f146101d0578063516f279e146101ee5761010b565b806306fdde03146101105780630794be4f1461012e5780632140fb801461014a57806325de97ef1461017a575b600080fd5b61011861032c565b604051610125919061143c565b60405180910390f35b610148600480360381019061014391906111a9565b6103be565b005b610164600480360381019061015f9190611218565b6105f6565b6040516101719190611376565b60405180910390f35b610194600480360381019061018f919061117c565b610635565b005b6101b060048036038101906101ab919061117c565b61080e565b005b6101ba610aa7565b6040516101c79190611376565b60405180910390f35b6101d8610acd565b6040516101e5919061149e565b60405180910390f35b6101f6610ad3565b604051610203919061143c565b60405180910390f35b610214610b65565b604051610221919061143c565b60405180910390f35b610232610bf7565b60405161023f919061143c565b60405180910390f35b610250610c89565b60405161025d919061143c565b60405180910390f35b61026e610d1b565b60405161027b9190611376565b60405180910390f35b61028c610d41565b604051610299919061149e565b60405180910390f35b6102aa610d47565b6040516102b7919061143c565b60405180910390f35b6102c8610dd9565b6040516102d591906113ff565b60405180910390f35b6102f860048036038101906102f3919061117c565b610f89565b6040516103059190611421565b60405180910390f35b610316610fa9565b604051610323919061143c565b60405180910390f35b60606004805461033b90611678565b80601f016020809104026020016040519081016040528092919081815260200182805461036790611678565b80156103b45780601f10610389576101008083540402835291602001916103b4565b820191906000526020600020905b81548152906001019060200180831161039757829003601f168201915b5050505050905090565b600c60003373ffffffffffffffffffffffffffffffffffffffff1673ffffffffffffffffffffffffffffffffffffffff16815260200190815260200160002060009054906101000a900460ff1661044a576040517f08c379a00000000000000000000000000000000000000000000000000000000081526004016104419061145e565b60405180910390fd5b60008290506001600260008282546104629190611564565b9250508190555060016003600082825461047c9190611564565b9250508190555060008054906101000a900473ffffffffffffffffffffffffffffffffffffffff1673ffffffffffffffffffffffffffffffffffffffff16630794be4f8585856040518463ffffffff1660e01b81526004016104e093929190611391565b600060405180830381600087803b1580156104fa57600080fd5b505af115801561050e573d6000803e3d6000fd5b505050508073ffffffffffffffffffffffffffffffffffffffff16636103986285846040518363ffffffff1660e01b815260040161054d9291906113cf565b600060405180830381600087803b15801561056757600080fd5b505af115801561057b573d6000803e3d6000fd5b505050508273ffffffffffffffffffffffffffffffffffffffff163373ffffffffffffffffffffffffffffffffffffffff168573ffffffffffffffffffffffffffffffffffffffff167f92bcccd59a6e4cf458463ac7a1aaaa2e64a7394411981fcbde52bd37dd75f14560405160405180910390a450505050565b600b818154811061060657600080fd5b906000526020600020016000915054906101000a900473ffffffffffffffffffffffffffffffffffffffff1681565b600d60009054906101000a900473ffffffffffffffffffffffffffffffffffffffff1673ffffffffffffffffffffffffffffffffffffffff163373ffffffffffffffffffffffffffffffffffffffff16146106c5576040517f08c379a00000000000000000000000000000000000000000000000000000000081526004016106bc9061147e565b60405180910390fd5b600b819080600181540180825580915050600190039060005260206000200160009091909190916101000a81548173ffffffffffffffffffffffffffffffffffffffff021916908373ffffffffffffffffffffffffffffffffffffffff1602179055506001600c60008373ffffffffffffffffffffffffffffffffffffffff1673ffffffffffffffffffffffffffffffffffffffff16815260200190815260200160002060006101000a81548160ff02191690831515021790555060008054906101000a900473ffffffffffffffffffffffffffffffffffffffff1673ffffffffffffffffffffffffffffffffffffffff166325de97ef826040518263ffffffff1660e01b81526004016107d99190611376565b600060405180830381600087803b1580156107f357600080fd5b505af1158015610807573d6000803e3d6000fd5b5050505050565b600d60009054906101000a900473ffffffffffffffffffffffffffffffffffffffff1673ffffffffffffffffffffffffffffffffffffffff163373ffffffffffffffffffffffffffffffffffffffff161461089e576040517f08c379a00000000000000000000000000000000000000000000000000000000081526004016108959061147e565b60405180910390fd5b60006001600b805490506108b291906115ba565b67ffffffffffffffff8111156108cb576108ca6117b1565b5b6040519080825280602002602001820160405280156108f95781602001602082028036833780820191505090505b5090506000805b600b80549050811015610a8a578373ffffffffffffffffffffffffffffffffffffffff16600b828154811061093857610937611782565b5b9060005260206000200160009054906101000a900473ffffffffffffffffffffffffffffffffffffffff1673ffffffffffffffffffffffffffffffffffffffff1614156109dc576000600c60008673ffffffffffffffffffffffffffffffffffffffff1673ffffffffffffffffffffffffffffffffffffffff16815260200190815260200160002060006101000a81548160ff021916908315150217905550610a77565b600b81815481106109f0576109ef611782565b5b9060005260206000200160009054906101000a900473ffffffffffffffffffffffffffffffffffffffff16838381518110610a2e57610a2d611782565b5b602002602001019073ffffffffffffffffffffffffffffffffffffffff16908173ffffffffffffffffffffffffffffffffffffffff16815250508180610a73906116db565b9250505b8080610a82906116db565b915050610900565b5081600b9080519060200190610aa192919061103b565b50505050565b600d60009054906101000a900473ffffffffffffffffffffffffffffffffffffffff1681565b60025481565b606060088054610ae290611678565b80601f0160208091040260200160405190810160405280929190818152602001828054610b0e90611678565b8015610b5b5780601f10610b3057610100808354040283529160200191610b5b565b820191906000526020600020905b815481529060010190602001808311610b3e57829003601f168201915b5050505050905090565b606060058054610b7490611678565b80601f0160208091040260200160405190810160405280929190818152602001828054610ba090611678565b8015610bed5780601f10610bc257610100808354040283529160200191610bed565b820191906000526020600020905b815481529060010190602001808311610bd057829003601f168201915b5050505050905090565b606060068054610c0690611678565b80601f0160208091040260200160405190810160405280929190818152602001828054610c3290611678565b8015610c7f5780601f10610c5457610100808354040283529160200191610c7f565b820191906000526020600020905b815481529060010190602001808311610c6257829003601f168201915b5050505050905090565b6060600a8054610c9890611678565b80601f0160208091040260200160405190810160405280929190818152602001828054610cc490611678565b8015610d115780601f10610ce657610100808354040283529160200191610d11565b820191906000526020600020905b815481529060010190602001808311610cf457829003601f168201915b5050505050905090565b600160009054906101000a900473ffffffffffffffffffffffffffffffffffffffff1681565b60035481565b606060098054610d5690611678565b80601f0160208091040260200160405190810160405280929190818152602001828054610d8290611678565b8015610dcf5780601f10610da457610100808354040283529160200191610dcf565b820191906000526020600020905b815481529060010190602001808311610db257829003601f168201915b5050505050905090565b60606000600b8054905067ffffffffffffffff811115610dfc57610dfb6117b1565b5b604051908082528060200260200182016040528015610e2a5781602001602082028036833780820191505090505b509050600080600091505b600b80549050821015610f8057600c6000600b8481548110610e5a57610e59611782565b5b9060005260206000200160009054906101000a900473ffffffffffffffffffffffffffffffffffffffff1673ffffffffffffffffffffffffffffffffffffffff1673ffffffffffffffffffffffffffffffffffffffff16815260200190815260200160002060009054906101000a900460ff1615610f6d57600b8281548110610ee657610ee5611782565b5b9060005260206000200160009054906101000a900473ffffffffffffffffffffffffffffffffffffffff16838281518110610f2457610f23611782565b5b602002602001019073ffffffffffffffffffffffffffffffffffffffff16908173ffffffffffffffffffffffffffffffffffffffff16815250508080610f69906116db565b9150505b8180610f78906116db565b925050610e35565b82935050505090565b600c6020528060005260406000206000915054906101000a900460ff1681565b606060078054610fb890611678565b80601f0160208091040260200160405190810160405280929190818152602001828054610fe490611678565b80156110315780601f1061100657610100808354040283529160200191611031565b820191906000526020600020905b81548152906001019060200180831161101457829003601f168201915b5050505050905090565b8280548282559060005260206000209081019282156110b4579160200282015b828111156110b35782518260006101000a81548173ffffffffffffffffffffffffffffffffffffffff021916908373ffffffffffffffffffffffffffffffffffffffff1602179055509160200191906001019061105b565b5b5090506110c191906110c5565b5090565b5b808211156110de5760008160009055506001016110c6565b5090565b60006110f56110f0846114de565b6114b9565b905082815260208101848484011115611111576111106117e5565b5b61111c848285611636565b509392505050565b6000813590506111338161187d565b92915050565b600082601f83011261114e5761114d6117e0565b5b813561115e8482602086016110e2565b91505092915050565b60008135905061117681611894565b92915050565b600060208284031215611192576111916117ef565b5b60006111a084828501611124565b91505092915050565b6000806000606084860312156111c2576111c16117ef565b5b60006111d086828701611124565b93505060206111e186828701611124565b925050604084013567ffffffffffffffff811115611202576112016117ea565b5b61120e86828701611139565b9150509250925092565b60006020828403121561122e5761122d6117ef565b5b600061123c84828501611167565b91505092915050565b6000611251838361125d565b60208301905092915050565b611266816115ee565b82525050565b611275816115ee565b82525050565b60006112868261151f565b6112908185611542565b935061129b8361150f565b8060005b838110156112cc5781516112b38882611245565b97506112be83611535565b92505060018101905061129f565b5085935050505092915050565b6112e281611600565b82525050565b60006112f38261152a565b6112fd8185611553565b935061130d818560208601611645565b611316816117f4565b840191505092915050565b600061132e601a83611553565b915061133982611805565b602082019050919050565b6000611351602483611553565b915061135c8261182e565b604082019050919050565b6113708161162c565b82525050565b600060208201905061138b600083018461126c565b92915050565b60006060820190506113a6600083018661126c565b6113b3602083018561126c565b81810360408301526113c581846112e8565b9050949350505050565b60006040820190506113e4600083018561126c565b81810360208301526113f681846112e8565b90509392505050565b60006020820190508181036000830152611419818461127b565b905092915050565b600060208201905061143660008301846112d9565b92915050565b6000602082019050818103600083015261145681846112e8565b905092915050565b6000602082019050818103600083015261147781611321565b9050919050565b6000602082019050818103600083015261149781611344565b9050919050565b60006020820190506114b36000830184611367565b92915050565b60006114c36114d4565b90506114cf82826116aa565b919050565b6000604051905090565b600067ffffffffffffffff8211156114f9576114f86117b1565b5b611502826117f4565b9050602081019050919050565b6000819050602082019050919050565b600081519050919050565b600081519050919050565b6000602082019050919050565b600082825260208201905092915050565b600082825260208201905092915050565b600061156f8261162c565b915061157a8361162c565b9250827fffffffffffffffffffffffffffffffffffffffffffffffffffffffffffffffff038211156115af576115ae611724565b5b828201905092915050565b60006115c58261162c565b91506115d08361162c565b9250828210156115e3576115e2611724565b5b828203905092915050565b60006115f98261160c565b9050919050565b60008115159050919050565b600073ffffffffffffffffffffffffffffffffffffffff82169050919050565b6000819050919050565b82818337600083830152505050565b60005b83811015611663578082015181840152602081019050611648565b83811115611672576000848401525b50505050565b6000600282049050600182168061169057607f821691505b602082108114156116a4576116a3611753565b5b50919050565b6116b3826117f4565b810181811067ffffffffffffffff821117156116d2576116d16117b1565b5b80604052505050565b60006116e68261162c565b91507fffffffffffffffffffffffffffffffffffffffffffffffffffffffffffffffff82141561171957611718611724565b5b600182019050919050565b7f4e487b7100000000000000000000000000000000000000000000000000000000600052601160045260246000fd5b7f4e487b7100000000000000000000000000000000000000000000000000000000600052602260045260246000fd5b7f4e487b7100000000000000000000000000000000000000000000000000000000600052603260045260246000fd5b7f4e487b7100000000000000000000000000000000000000000000000000000000600052604160045260246000fd5b600080fd5b600080fd5b600080fd5b600080fd5b6000601f19601f8301169050919050565b7f4865616c7468506572736f6e206e6f7420617070726f7665642e000000000000600082015250565b7f4f6e6c792061646d696e2063616e20706572666f726d207468652066756e637460008201527f696f6e2e00000000000000000000000000000000000000000000000000000000602082015250565b611886816115ee565b811461189157600080fd5b50565b61189d8161162c565b81146118a857600080fd5b5056fea2646970667358221220d14f5c145f373a3be71b3445ce1f587a4873e94c8a1449afccdd84253f5fabef64736f6c63430008050033",
  "immutableReferences": {},
  "source": "// SPDX-License-Identifier: MIT\npragma solidity >=0.7.5;\npragma experimental ABIEncoderV2;\n\ninterface IOGovernment {\n    function registerOrganization() external;\n    function checkUserRegistration(address user) external view;\n    function vaccinate( address to, address vaccine_address, string memory batch_id) external;\n    function approveHealthPerson(address person) external;\n    function disapproveHealthPerson(address person) external; \n}\n\ninterface IOVaccine {\n    function approve( address to, uint256 batchId, uint256 quantity) external;\n\n    function transferFrom( address from, address to, uint256 batchId) external;\n\n    function name() external view returns (string memory);\n\n    function vaccinate(address to, string memory batchId) external;\n}\n\ninterface IFOrganization {\n    function name() external view returns(string memory);\n    function url() external view returns(string memory);\n    function logo_hash() external view returns(string memory);\n    function document_hash() external view returns(string memory);\n    function location() external view returns (string memory);\n    function phone() external view returns (string memory);\n    function email() external view returns(string memory);\n}\n\ncontract Organization {\n    IOGovernment gov;\n    address public owner;\n    uint256 public partially_vaccinated;\n    uint256 public fully_vaccinated;\n\n    string private name_;\n    string private url_;\n    string private logo_hash_;\n    string private document_hash_;\n    string private location_;\n    string private phone_;\n    string private email_;\n\n    address[] public healthPersons;\n    mapping(address => bool) public healthPersonApprovalStatus;\n\n    address public superAdmin;\n\n    event HealthPersonAdded(address indexed account);\n    event Vaccined(\n        address indexed user,\n        address indexed healthPerson,\n        address indexed vaccine\n    );\n\n    // Constructor\n    constructor(\n        address government,\n        string memory _name,\n        string memory _url,\n        string memory _logo_hash,\n        string memory _document_hash,\n        string memory _location,\n        string memory _phone,\n        string memory _email\n    ) {\n        superAdmin = tx.origin;\n\n        name_ = _name;\n        url_ = _url;\n        logo_hash_ = _logo_hash;\n        document_hash_ = _document_hash;\n        location_ = _location;\n        phone_ = _phone;\n        email_ = _email;\n\n        gov = IOGovernment(government);\n        gov.registerOrganization();\n    }\n\n    function name() public view returns (string memory) {\n        return name_;\n    }\n\n    function url() public view returns (string memory) {\n        return url_;\n    }\n\n    function logo_hash() public view returns (string memory) {\n        return logo_hash_;\n    }\n\n    function document_hash() public view returns (string memory) {\n        return document_hash_;\n    }\n\n    function location() public view returns (string memory) {\n        return location_;\n    }\n\n    function phone() public view returns (string memory) {\n        return phone_;\n    }\n\n    function email() public view returns (string memory) {\n        return email_;\n    }\n\n    modifier onlySuperAdmin() {\n        require(\n            msg.sender == superAdmin,\n            \"Only admin can perform the function.\"\n        );\n        _;\n    }\n\n    function approveHealthPerson(address person) public onlySuperAdmin {\n        healthPersons.push(person);\n        healthPersonApprovalStatus[person] = true;\n        gov.approveHealthPerson(person);\n    }\n\n    function disapproveHealthPerson(address person) public onlySuperAdmin{\n        address[] memory hps = new address[](healthPersons.length - 1);\n\n        uint256 j = 0;\n        for (uint256 i = 0; i < healthPersons.length; i++) {\n            if (healthPersons[i] == person) {\n                healthPersonApprovalStatus[person] = false;\n            } else {\n                hps[j] = healthPersons[i];\n                j++;\n            }\n        }\n        healthPersons = hps;\n    }\n\n    function vaccinate(\n        address to,\n        address vaccine_address,\n        string memory batch_id\n    ) public onlyHealthPerson {\n        IOVaccine vaccine = IOVaccine(vaccine_address);\n        partially_vaccinated += 1;\n        fully_vaccinated += 1;\n        gov.vaccinate(to, vaccine_address, batch_id);\n        vaccine.vaccinate(to, batch_id);\n        emit Vaccined(to, msg.sender, vaccine_address);\n    }\n\n    modifier onlyHealthPerson() {\n        require(\n            healthPersonApprovalStatus[msg.sender],\n            \"HealthPerson not approved.\"\n        );\n        _;\n    }\n\n    function getApprovedHealthPersons() public view returns (address[] memory) {\n        address[] memory hps = new address[](healthPersons.length);\n        uint256 i = 0;\n        uint256 j = 0;\n        for (i = 0; i < healthPersons.length; i++) {\n            if (healthPersonApprovalStatus[healthPersons[i]]) {\n                hps[j] = (healthPersons[i]);\n                j++;\n            }\n        }\n        return hps;\n    }\n}\n\ncontract OrganizationFactory {\n    Organization[] public orgs;\n    address[] public orgAddresses;\n    struct OrgDetails {\n        string name;\n        string url;\n        string logo_hash;\n        string document_hash;\n        string location;\n        string phone;\n        string email;\n    }\n    mapping(address => uint256) orgIndex;\n\n    function createOrganization(\n        address gov,\n        string memory name,\n        string memory url,\n        string memory logo_hash,\n        string memory document_hash,\n        string memory location,\n        string memory phone,\n        string memory email\n    ) public {\n        Organization org = new Organization(\n            gov,\n            name,\n            url,\n            logo_hash,\n            document_hash,\n            location,\n            phone,\n            email\n        );\n        orgs.push(org);\n    }\n\n    function getOrganizationAddresses() public view returns (Organization[] memory) {\n        return orgs;\n    }\n\n    function getOrganizationDetails(address orgAddress)\n        public\n        view\n        returns (OrgDetails memory)\n    {\n        IFOrganization org = IFOrganization(orgAddress);\n\n        string memory name = org.name();\n        string memory url = org.url();\n        string memory logo_hash = org.logo_hash();\n        string memory document_hash = org.document_hash();\n        string memory location = org.location();\n        string memory phone = org.phone();\n        string memory email = org.email();\n        return\n            OrgDetails(\n                name,\n                url,\n                logo_hash,\n                document_hash,\n                location,\n                phone,\n                email\n            );\n    }\n\n    function getAllOrganizationsWithDetails() public view returns (OrgDetails[] memory) {\n        OrgDetails[] memory organizations = new OrgDetails[](orgs.length);\n        for (uint i=0; i<orgs.length; i++) {\n            organizations[i] = getOrganizationDetails(address(orgs[i]));\n        }\n        return organizations;\n    }\n\n    function getSpeficiedOrganizationDetails(address[] memory orgAddrs) public view returns (OrgDetails[] memory) {\n        OrgDetails[] memory organizations = new OrgDetails[](orgAddrs.length);\n        for (uint i=0; i<orgs.length; i++) {\n            organizations[i] = getOrganizationDetails(orgAddrs[i]);\n        }\n        return organizations;\n    }\n}\n",
  "sourcePath": "/home/prajwolrg/School/Vaccination/vaccine-solidity/contracts/Organization.sol",
  "compiler": {
    "name": "solc",
    "version": "0.8.5+commit.a4f2e591.Emscripten.clang"
  },
  "schemaVersion": "3.4.4",
  "updatedAt": "2022-04-15T10:05:46.094Z",
  "networkType": "ethereum",
  "devdoc": {
    "kind": "dev",
    "methods": {},
    "version": 1
  },
  "userdoc": {
    "kind": "user",
    "methods": {},
    "version": 1
  }
}