{
  "contractName": "OrganizationFactory",
  "abi": [
    {
      "inputs": [
        {
          "internalType": "uint256",
          "name": "",
          "type": "uint256"
        }
      ],
      "name": "orgAddresses",
      "outputs": [
        {
          "internalType": "address",
          "name": "",
          "type": "address"
        }
      ],
      "stateMutability": "view",
      "type": "function",
      "constant": true
    },
    {
      "inputs": [
        {
          "internalType": "uint256",
          "name": "",
          "type": "uint256"
        }
      ],
      "name": "orgs",
      "outputs": [
        {
          "internalType": "contract Organization",
          "name": "",
          "type": "address"
        }
      ],
      "stateMutability": "view",
      "type": "function",
      "constant": true
    },
    {
      "inputs": [
        {
          "internalType": "address",
          "name": "gov",
          "type": "address"
        },
        {
          "internalType": "string",
          "name": "name",
          "type": "string"
        },
        {
          "internalType": "string",
          "name": "url",
          "type": "string"
        },
        {
          "internalType": "string",
          "name": "logo_hash",
          "type": "string"
        },
        {
          "internalType": "string",
          "name": "document_hash",
          "type": "string"
        },
        {
          "internalType": "string",
          "name": "location",
          "type": "string"
        },
        {
          "internalType": "string",
          "name": "phone",
          "type": "string"
        },
        {
          "internalType": "string",
          "name": "email",
          "type": "string"
        }
      ],
      "name": "createOrganization",
      "outputs": [],
      "stateMutability": "nonpayable",
      "type": "function"
    },
    {
      "inputs": [],
      "name": "getOrganizationAddresses",
      "outputs": [
        {
          "internalType": "contract Organization[]",
          "name": "",
          "type": "address[]"
        }
      ],
      "stateMutability": "view",
      "type": "function",
      "constant": true
    },
    {
      "inputs": [
        {
          "internalType": "address",
          "name": "orgAddress",
          "type": "address"
        }
      ],
      "name": "getOrganizationDetails",
      "outputs": [
        {
          "components": [
            {
              "internalType": "string",
              "name": "name",
              "type": "string"
            },
            {
              "internalType": "string",
              "name": "url",
              "type": "string"
            },
            {
              "internalType": "string",
              "name": "logo_hash",
              "type": "string"
            },
            {
              "internalType": "string",
              "name": "document_hash",
              "type": "string"
            },
            {
              "internalType": "string",
              "name": "location",
              "type": "string"
            },
            {
              "internalType": "string",
              "name": "phone",
              "type": "string"
            },
            {
              "internalType": "string",
              "name": "email",
              "type": "string"
            }
          ],
          "internalType": "struct OrganizationFactory.OrgDetails",
          "name": "",
          "type": "tuple"
        }
      ],
      "stateMutability": "view",
      "type": "function",
      "constant": true
    },
    {
      "inputs": [],
      "name": "getAllOrganizationsWithDetails",
      "outputs": [
        {
          "components": [
            {
              "internalType": "string",
              "name": "name",
              "type": "string"
            },
            {
              "internalType": "string",
              "name": "url",
              "type": "string"
            },
            {
              "internalType": "string",
              "name": "logo_hash",
              "type": "string"
            },
            {
              "internalType": "string",
              "name": "document_hash",
              "type": "string"
            },
            {
              "internalType": "string",
              "name": "location",
              "type": "string"
            },
            {
              "internalType": "string",
              "name": "phone",
              "type": "string"
            },
            {
              "internalType": "string",
              "name": "email",
              "type": "string"
            }
          ],
          "internalType": "struct OrganizationFactory.OrgDetails[]",
          "name": "",
          "type": "tuple[]"
        }
      ],
      "stateMutability": "view",
      "type": "function",
      "constant": true
    },
    {
      "inputs": [
        {
          "internalType": "address[]",
          "name": "orgAddrs",
          "type": "address[]"
        }
      ],
      "name": "getSpeficiedOrganizationDetails",
      "outputs": [
        {
          "components": [
            {
              "internalType": "string",
              "name": "name",
              "type": "string"
            },
            {
              "internalType": "string",
              "name": "url",
              "type": "string"
            },
            {
              "internalType": "string",
              "name": "logo_hash",
              "type": "string"
            },
            {
              "internalType": "string",
              "name": "document_hash",
              "type": "string"
            },
            {
              "internalType": "string",
              "name": "location",
              "type": "string"
            },
            {
              "internalType": "string",
              "name": "phone",
              "type": "string"
            },
            {
              "internalType": "string",
              "name": "email",
              "type": "string"
            }
          ],
          "internalType": "struct OrganizationFactory.OrgDetails[]",
          "name": "",
          "type": "tuple[]"
        }
      ],
      "stateMutability": "view",
      "type": "function",
      "constant": true
    }
  ],
  "bytecode": "0x608060405234801561001057600080fd5b50613a67806100206000396000f3fe60806040523480156200001157600080fd5b5060043610620000885760003560e01c806359387d2b116200006357806359387d2b146200011957806361ba81d8146200013b578063939f62811462000171578063d3cf9a6214620001a75762000088565b806321d0326f146200008d57806333c651fd14620000c35780634f5c2e6c14620000e3575b600080fd5b620000ab6004803603810190620000a5919062000e26565b620001c9565b604051620000ba9190620011d0565b60405180910390f35b620000e16004803603810190620000db919062000be2565b62000209565b005b620001016004803603810190620000fb919062000e26565b620002c2565b604051620001109190620012f4565b60405180910390f35b6200012362000302565b604051620001329190620012d0565b60405180910390f35b62000159600480360381019062000153919062000bb0565b62000403565b60405162000168919062001311565b60405180910390f35b6200018f600480360381019062000189919062000d84565b62000821565b6040516200019e9190620012d0565b60405180910390f35b620001b1620008fd565b604051620001c09190620012ac565b60405180910390f35b60018181548110620001da57600080fd5b906000526020600020016000915054906101000a900473ffffffffffffffffffffffffffffffffffffffff1681565b6000888888888888888860405162000221906200098d565b62000234989796959493929190620011ed565b604051809103906000f08015801562000251573d6000803e3d6000fd5b5090506000819080600181540180825580915050600190039060005260206000200160009091909190916101000a81548173ffffffffffffffffffffffffffffffffffffffff021916908373ffffffffffffffffffffffffffffffffffffffff160217905550505050505050505050565b60008181548110620002d357600080fd5b906000526020600020016000915054906101000a900473ffffffffffffffffffffffffffffffffffffffff1681565b60606000808054905067ffffffffffffffff811115620003275762000326620015ef565b5b6040519080825280602002602001820160405280156200036457816020015b620003506200099b565b815260200190600190039081620003465790505b50905060005b600080549050811015620003fb57620003c460008281548110620003935762000392620015c0565b5b9060005260206000200160009054906101000a900473ffffffffffffffffffffffffffffffffffffffff1662000403565b828281518110620003da57620003d9620015c0565b5b60200260200101819052508080620003f29062001543565b9150506200036a565b508091505090565b6200040d6200099b565b600082905060008173ffffffffffffffffffffffffffffffffffffffff166306fdde036040518163ffffffff1660e01b815260040160006040518083038186803b1580156200045b57600080fd5b505afa15801562000470573d6000803e3d6000fd5b505050506040513d6000823e3d601f19601f820116820180604052508101906200049b919062000dd5565b905060008273ffffffffffffffffffffffffffffffffffffffff16635600f04f6040518163ffffffff1660e01b815260040160006040518083038186803b158015620004e657600080fd5b505afa158015620004fb573d6000803e3d6000fd5b505050506040513d6000823e3d601f19601f8201168201806040525081019062000526919062000dd5565b905060008373ffffffffffffffffffffffffffffffffffffffff16637e0acf046040518163ffffffff1660e01b815260040160006040518083038186803b1580156200057157600080fd5b505afa15801562000586573d6000803e3d6000fd5b505050506040513d6000823e3d601f19601f82011682018060405250810190620005b1919062000dd5565b905060008473ffffffffffffffffffffffffffffffffffffffff1663f05883c66040518163ffffffff1660e01b815260040160006040518083038186803b158015620005fc57600080fd5b505afa15801562000611573d6000803e3d6000fd5b505050506040513d6000823e3d601f19601f820116820180604052508101906200063c919062000dd5565b905060008573ffffffffffffffffffffffffffffffffffffffff1663516f279e6040518163ffffffff1660e01b815260040160006040518083038186803b1580156200068757600080fd5b505afa1580156200069c573d6000803e3d6000fd5b505050506040513d6000823e3d601f19601f82011682018060405250810190620006c7919062000dd5565b905060008673ffffffffffffffffffffffffffffffffffffffff16639284f4976040518163ffffffff1660e01b815260040160006040518083038186803b1580156200071257600080fd5b505afa15801562000727573d6000803e3d6000fd5b505050506040513d6000823e3d601f19601f8201168201806040525081019062000752919062000dd5565b905060008773ffffffffffffffffffffffffffffffffffffffff1663820e93f56040518163ffffffff1660e01b815260040160006040518083038186803b1580156200079d57600080fd5b505afa158015620007b2573d6000803e3d6000fd5b505050506040513d6000823e3d601f19601f82011682018060405250810190620007dd919062000dd5565b90506040518060e001604052808881526020018781526020018681526020018581526020018481526020018381526020018281525098505050505050505050919050565b60606000825167ffffffffffffffff811115620008435762000842620015ef565b5b6040519080825280602002602001820160405280156200088057816020015b6200086c6200099b565b815260200190600190039081620008625790505b50905060005b600080549050811015620008f357620008bc848281518110620008ae57620008ad620015c0565b5b602002602001015162000403565b828281518110620008d257620008d1620015c0565b5b60200260200101819052508080620008ea9062001543565b91505062000886565b5080915050919050565b606060008054806020026020016040519081016040528092919081815260200182805480156200098357602002820191906000526020600020905b8160009054906101000a900473ffffffffffffffffffffffffffffffffffffffff1673ffffffffffffffffffffffffffffffffffffffff168152602001906001019080831162000938575b5050505050905090565b6123b5806200167d83390190565b6040518060e00160405280606081526020016060815260200160608152602001606081526020016060815260200160608152602001606081525090565b6000620009ef620009e9846200135e565b62001335565b9050808382526020820190508285602086028201111562000a155762000a1462001623565b5b60005b8581101562000a49578162000a2e888262000ae9565b84526020840193506020830192505060018101905062000a18565b5050509392505050565b600062000a6a62000a64846200138d565b62001335565b90508281526020810184848401111562000a895762000a8862001628565b5b62000a96848285620014c8565b509392505050565b600062000ab562000aaf846200138d565b62001335565b90508281526020810184848401111562000ad45762000ad362001628565b5b62000ae1848285620014d7565b509392505050565b60008135905062000afa8162001648565b92915050565b600082601f83011262000b185762000b176200161e565b5b813562000b2a848260208601620009d8565b91505092915050565b600082601f83011262000b4b5762000b4a6200161e565b5b813562000b5d84826020860162000a53565b91505092915050565b600082601f83011262000b7e5762000b7d6200161e565b5b815162000b9084826020860162000a9e565b91505092915050565b60008135905062000baa8162001662565b92915050565b60006020828403121562000bc95762000bc862001632565b5b600062000bd98482850162000ae9565b91505092915050565b600080600080600080600080610100898b03121562000c065762000c0562001632565b5b600062000c168b828c0162000ae9565b985050602089013567ffffffffffffffff81111562000c3a5762000c396200162d565b5b62000c488b828c0162000b33565b975050604089013567ffffffffffffffff81111562000c6c5762000c6b6200162d565b5b62000c7a8b828c0162000b33565b965050606089013567ffffffffffffffff81111562000c9e5762000c9d6200162d565b5b62000cac8b828c0162000b33565b955050608089013567ffffffffffffffff81111562000cd05762000ccf6200162d565b5b62000cde8b828c0162000b33565b94505060a089013567ffffffffffffffff81111562000d025762000d016200162d565b5b62000d108b828c0162000b33565b93505060c089013567ffffffffffffffff81111562000d345762000d336200162d565b5b62000d428b828c0162000b33565b92505060e089013567ffffffffffffffff81111562000d665762000d656200162d565b5b62000d748b828c0162000b33565b9150509295985092959890939650565b60006020828403121562000d9d5762000d9c62001632565b5b600082013567ffffffffffffffff81111562000dbe5762000dbd6200162d565b5b62000dcc8482850162000b00565b91505092915050565b60006020828403121562000dee5762000ded62001632565b5b600082015167ffffffffffffffff81111562000e0f5762000e0e6200162d565b5b62000e1d8482850162000b66565b91505092915050565b60006020828403121562000e3f5762000e3e62001632565b5b600062000e4f8482850162000b99565b91505092915050565b600062000e66838362000f84565b60208301905092915050565b600062000e80838362001028565b905092915050565b62000e938162001462565b82525050565b600062000ea682620013e3565b62000eb281856200141e565b935062000ebf83620013c3565b8060005b8381101562000ef657815162000eda888262000e58565b975062000ee78362001404565b92505060018101905062000ec3565b5085935050505092915050565b600062000f1082620013ee565b62000f1c81856200142f565b93508360208202850162000f3085620013d3565b8060005b8581101562000f72578484038952815162000f50858262000e72565b945062000f5d8362001411565b925060208a0199505060018101905062000f34565b50829750879550505050505092915050565b62000f8f81620014a0565b82525050565b62000fa081620014a0565b82525050565b600062000fb382620013f9565b62000fbf818562001440565b935062000fd1818560208601620014d7565b62000fdc8162001637565b840191505092915050565b600062000ff482620013f9565b62001000818562001451565b935062001012818560208601620014d7565b6200101d8162001637565b840191505092915050565b600060e083016000830151848203600086015262001047828262000fa6565b9150506020830151848203602086015262001063828262000fa6565b915050604083015184820360408601526200107f828262000fa6565b915050606083015184820360608601526200109b828262000fa6565b91505060808301518482036080860152620010b7828262000fa6565b91505060a083015184820360a0860152620010d3828262000fa6565b91505060c083015184820360c0860152620010ef828262000fa6565b9150508091505092915050565b600060e08301600083015184820360008601526200111b828262000fa6565b9150506020830151848203602086015262001137828262000fa6565b9150506040830151848203604086015262001153828262000fa6565b915050606083015184820360608601526200116f828262000fa6565b915050608083015184820360808601526200118b828262000fa6565b91505060a083015184820360a0860152620011a7828262000fa6565b91505060c083015184820360c0860152620011c3828262000fa6565b9150508091505092915050565b6000602082019050620011e7600083018462000e88565b92915050565b60006101008201905062001205600083018b62000e88565b818103602083015262001219818a62000fe7565b905081810360408301526200122f818962000fe7565b9050818103606083015262001245818862000fe7565b905081810360808301526200125b818762000fe7565b905081810360a083015262001271818662000fe7565b905081810360c083015262001287818562000fe7565b905081810360e08301526200129d818462000fe7565b90509998505050505050505050565b60006020820190508181036000830152620012c8818462000e99565b905092915050565b60006020820190508181036000830152620012ec818462000f03565b905092915050565b60006020820190506200130b600083018462000f95565b92915050565b600060208201905081810360008301526200132d8184620010fc565b905092915050565b60006200134162001354565b90506200134f82826200150d565b919050565b6000604051905090565b600067ffffffffffffffff8211156200137c576200137b620015ef565b5b602082029050602081019050919050565b600067ffffffffffffffff821115620013ab57620013aa620015ef565b5b620013b68262001637565b9050602081019050919050565b6000819050602082019050919050565b6000819050602082019050919050565b600081519050919050565b600081519050919050565b600081519050919050565b6000602082019050919050565b6000602082019050919050565b600082825260208201905092915050565b600082825260208201905092915050565b600082825260208201905092915050565b600082825260208201905092915050565b60006200146f8262001476565b9050919050565b600073ffffffffffffffffffffffffffffffffffffffff82169050919050565b6000819050919050565b6000620014ad82620014b4565b9050919050565b6000620014c18262001476565b9050919050565b82818337600083830152505050565b60005b83811015620014f7578082015181840152602081019050620014da565b8381111562001507576000848401525b50505050565b620015188262001637565b810181811067ffffffffffffffff821117156200153a5762001539620015ef565b5b80604052505050565b6000620015508262001496565b91507fffffffffffffffffffffffffffffffffffffffffffffffffffffffffffffffff82141562001586576200158562001591565b5b600182019050919050565b7f4e487b7100000000000000000000000000000000000000000000000000000000600052601160045260246000fd5b7f4e487b7100000000000000000000000000000000000000000000000000000000600052603260045260246000fd5b7f4e487b7100000000000000000000000000000000000000000000000000000000600052604160045260246000fd5b600080fd5b600080fd5b600080fd5b600080fd5b600080fd5b6000601f19601f8301169050919050565b620016538162001462565b81146200165f57600080fd5b50565b6200166d8162001496565b81146200167957600080fd5b5056fe60806040523480156200001157600080fd5b50604051620023b5380380620023b583398181016040528101906200003791906200033c565b32600f60006101000a81548173ffffffffffffffffffffffffffffffffffffffff021916908373ffffffffffffffffffffffffffffffffffffffff160217905550866004908051906020019062000090929190620001f7565b508560059080519060200190620000a9929190620001f7565b508460069080519060200190620000c2929190620001f7565b508360079080519060200190620000db929190620001f7565b508260089080519060200190620000f4929190620001f7565b5081600990805190602001906200010d929190620001f7565b5080600a908051906020019062000126929190620001f7565b50876000806101000a81548173ffffffffffffffffffffffffffffffffffffffff021916908373ffffffffffffffffffffffffffffffffffffffff16021790555060008054906101000a900473ffffffffffffffffffffffffffffffffffffffff1673ffffffffffffffffffffffffffffffffffffffff166353e42da36040518163ffffffff1660e01b8152600401600060405180830381600087803b158015620001d057600080fd5b505af1158015620001e5573d6000803e3d6000fd5b505050505050505050505050620006b0565b8280546200020590620005a7565b90600052602060002090601f01602090048101928262000229576000855562000275565b82601f106200024457805160ff191683800117855562000275565b8280016001018555821562000275579182015b828111156200027457825182559160200191906001019062000257565b5b50905062000284919062000288565b5090565b5b80821115620002a357600081600090555060010162000289565b5090565b6000620002be620002b88462000507565b620004de565b905082815260208101848484011115620002dd57620002dc62000676565b5b620002ea84828562000571565b509392505050565b600081519050620003038162000696565b92915050565b600082601f83011262000321576200032062000671565b5b815162000333848260208601620002a7565b91505092915050565b600080600080600080600080610100898b03121562000360576200035f62000680565b5b6000620003708b828c01620002f2565b985050602089015167ffffffffffffffff8111156200039457620003936200067b565b5b620003a28b828c0162000309565b975050604089015167ffffffffffffffff811115620003c657620003c56200067b565b5b620003d48b828c0162000309565b965050606089015167ffffffffffffffff811115620003f857620003f76200067b565b5b620004068b828c0162000309565b955050608089015167ffffffffffffffff8111156200042a57620004296200067b565b5b620004388b828c0162000309565b94505060a089015167ffffffffffffffff8111156200045c576200045b6200067b565b5b6200046a8b828c0162000309565b93505060c089015167ffffffffffffffff8111156200048e576200048d6200067b565b5b6200049c8b828c0162000309565b92505060e089015167ffffffffffffffff811115620004c057620004bf6200067b565b5b620004ce8b828c0162000309565b9150509295985092959890939650565b6000620004ea620004fd565b9050620004f88282620005dd565b919050565b6000604051905090565b600067ffffffffffffffff82111562000525576200052462000642565b5b620005308262000685565b9050602081019050919050565b60006200054a8262000551565b9050919050565b600073ffffffffffffffffffffffffffffffffffffffff82169050919050565b60005b838110156200059157808201518184015260208101905062000574565b83811115620005a1576000848401525b50505050565b60006002820490506001821680620005c057607f821691505b60208210811415620005d757620005d662000613565b5b50919050565b620005e88262000685565b810181811067ffffffffffffffff821117156200060a576200060962000642565b5b80604052505050565b7f4e487b7100000000000000000000000000000000000000000000000000000000600052602260045260246000fd5b7f4e487b7100000000000000000000000000000000000000000000000000000000600052604160045260246000fd5b600080fd5b600080fd5b600080fd5b600080fd5b6000601f19601f8301169050919050565b620006a1816200053d565b8114620006ad57600080fd5b50565b611cf580620006c06000396000f3fe608060405234801561001057600080fd5b50600436106101375760003560e01c80635600f04f116100b85780638fe17ae61161007c5780638fe17ae61461032e5780639284f4971461034c578063a7d41ac11461036a578063c38f7ef014610388578063ee7a97fd146103b8578063f05883c6146103d657610137565b80635600f04f146102985780637e0acf04146102b6578063820e93f5146102d4578063870c8079146102f25780638da5cb5b1461031057610137565b8063281481d5116100ff578063281481d5146101f257806329575f6a1461020e578063300e88bd1461022c5780634baf1a0f1461025c578063516f279e1461027a57610137565b806306fdde031461013c5780630794be4f1461015a57806320de7906146101765780632140fb80146101a657806325de97ef146101d6575b600080fd5b6101446103f4565b60405161015191906117f0565b60405180910390f35b610174600480360381019061016f919061150d565b610486565b005b610190600480360381019061018b91906114e0565b6106be565b60405161019d91906117d5565b60405180910390f35b6101c060048036038101906101bb91906115a9565b6106de565b6040516101cd919061172a565b60405180910390f35b6101f060048036038101906101eb91906114e0565b61071d565b005b61020c600480360381019061020791906114e0565b6108f6565b005b610216610b8f565b604051610223919061172a565b60405180910390f35b610246600480360381019061024191906115a9565b610bb5565b604051610253919061172a565b60405180910390f35b610264610bf4565b6040516102719190611872565b60405180910390f35b610282610bfa565b60405161028f91906117f0565b60405180910390f35b6102a0610c8c565b6040516102ad91906117f0565b60405180910390f35b6102be610d1e565b6040516102cb91906117f0565b60405180910390f35b6102dc610db0565b6040516102e991906117f0565b60405180910390f35b6102fa610e42565b604051610307919061172a565b60405180910390f35b610318610e6b565b604051610325919061172a565b60405180910390f35b610336610e91565b6040516103439190611872565b60405180910390f35b610354610e97565b60405161036191906117f0565b60405180910390f35b610372610f29565b60405161037f91906117b3565b60405180910390f35b6103a2600480360381019061039d91906114e0565b6110d9565b6040516103af91906117d5565b60405180910390f35b6103c06110f9565b6040516103cd91906117d5565b60405180910390f35b6103de6112f8565b6040516103eb91906117f0565b60405180910390f35b60606004805461040390611a4c565b80601f016020809104026020016040519081016040528092919081815260200182805461042f90611a4c565b801561047c5780601f106104515761010080835404028352916020019161047c565b820191906000526020600020905b81548152906001019060200180831161045f57829003601f168201915b5050505050905090565b600c60003373ffffffffffffffffffffffffffffffffffffffff1673ffffffffffffffffffffffffffffffffffffffff16815260200190815260200160002060009054906101000a900460ff16610512576040517f08c379a000000000000000000000000000000000000000000000000000000000815260040161050990611832565b60405180910390fd5b600082905060016002600082825461052a9190611938565b925050819055506001600360008282546105449190611938565b9250508190555060008054906101000a900473ffffffffffffffffffffffffffffffffffffffff1673ffffffffffffffffffffffffffffffffffffffff16630794be4f8585856040518463ffffffff1660e01b81526004016105a893929190611745565b600060405180830381600087803b1580156105c257600080fd5b505af11580156105d6573d6000803e3d6000fd5b505050508073ffffffffffffffffffffffffffffffffffffffff16636103986285846040518363ffffffff1660e01b8152600401610615929190611783565b600060405180830381600087803b15801561062f57600080fd5b505af1158015610643573d6000803e3d6000fd5b505050508273ffffffffffffffffffffffffffffffffffffffff163373ffffffffffffffffffffffffffffffffffffffff168573ffffffffffffffffffffffffffffffffffffffff167f92bcccd59a6e4cf458463ac7a1aaaa2e64a7394411981fcbde52bd37dd75f14560405160405180910390a450505050565b600e6020528060005260406000206000915054906101000a900460ff1681565b600b81815481106106ee57600080fd5b906000526020600020016000915054906101000a900473ffffffffffffffffffffffffffffffffffffffff1681565b600f60009054906101000a900473ffffffffffffffffffffffffffffffffffffffff1673ffffffffffffffffffffffffffffffffffffffff163373ffffffffffffffffffffffffffffffffffffffff16146107ad576040517f08c379a00000000000000000000000000000000000000000000000000000000081526004016107a490611852565b60405180910390fd5b600b819080600181540180825580915050600190039060005260206000200160009091909190916101000a81548173ffffffffffffffffffffffffffffffffffffffff021916908373ffffffffffffffffffffffffffffffffffffffff1602179055506001600c60008373ffffffffffffffffffffffffffffffffffffffff1673ffffffffffffffffffffffffffffffffffffffff16815260200190815260200160002060006101000a81548160ff02191690831515021790555060008054906101000a900473ffffffffffffffffffffffffffffffffffffffff1673ffffffffffffffffffffffffffffffffffffffff166325de97ef826040518263ffffffff1660e01b81526004016108c1919061172a565b600060405180830381600087803b1580156108db57600080fd5b505af11580156108ef573d6000803e3d6000fd5b5050505050565b600f60009054906101000a900473ffffffffffffffffffffffffffffffffffffffff1673ffffffffffffffffffffffffffffffffffffffff163373ffffffffffffffffffffffffffffffffffffffff1614610986576040517f08c379a000000000000000000000000000000000000000000000000000000000815260040161097d90611852565b60405180910390fd5b60006001600b8054905061099a919061198e565b67ffffffffffffffff8111156109b3576109b2611b85565b5b6040519080825280602002602001820160405280156109e15781602001602082028036833780820191505090505b5090506000805b600b80549050811015610b72578373ffffffffffffffffffffffffffffffffffffffff16600b8281548110610a2057610a1f611b56565b5b9060005260206000200160009054906101000a900473ffffffffffffffffffffffffffffffffffffffff1673ffffffffffffffffffffffffffffffffffffffff161415610ac4576000600c60008673ffffffffffffffffffffffffffffffffffffffff1673ffffffffffffffffffffffffffffffffffffffff16815260200190815260200160002060006101000a81548160ff021916908315150217905550610b5f565b600b8181548110610ad857610ad7611b56565b5b9060005260206000200160009054906101000a900473ffffffffffffffffffffffffffffffffffffffff16838381518110610b1657610b15611b56565b5b602002602001019073ffffffffffffffffffffffffffffffffffffffff16908173ffffffffffffffffffffffffffffffffffffffff16815250508180610b5b90611aaf565b9250505b8080610b6a90611aaf565b9150506109e8565b5081600b9080519060200190610b8992919061138a565b50505050565b600f60009054906101000a900473ffffffffffffffffffffffffffffffffffffffff1681565b600d8181548110610bc557600080fd5b906000526020600020016000915054906101000a900473ffffffffffffffffffffffffffffffffffffffff1681565b60025481565b606060088054610c0990611a4c565b80601f0160208091040260200160405190810160405280929190818152602001828054610c3590611a4c565b8015610c825780601f10610c5757610100808354040283529160200191610c82565b820191906000526020600020905b815481529060010190602001808311610c6557829003601f168201915b5050505050905090565b606060058054610c9b90611a4c565b80601f0160208091040260200160405190810160405280929190818152602001828054610cc790611a4c565b8015610d145780601f10610ce957610100808354040283529160200191610d14565b820191906000526020600020905b815481529060010190602001808311610cf757829003601f168201915b5050505050905090565b606060068054610d2d90611a4c565b80601f0160208091040260200160405190810160405280929190818152602001828054610d5990611a4c565b8015610da65780601f10610d7b57610100808354040283529160200191610da6565b820191906000526020600020905b815481529060010190602001808311610d8957829003601f168201915b5050505050905090565b6060600a8054610dbf90611a4c565b80601f0160208091040260200160405190810160405280929190818152602001828054610deb90611a4c565b8015610e385780601f10610e0d57610100808354040283529160200191610e38565b820191906000526020600020905b815481529060010190602001808311610e1b57829003601f168201915b5050505050905090565b60008060009054906101000a900473ffffffffffffffffffffffffffffffffffffffff16905090565b600160009054906101000a900473ffffffffffffffffffffffffffffffffffffffff1681565b60035481565b606060098054610ea690611a4c565b80601f0160208091040260200160405190810160405280929190818152602001828054610ed290611a4c565b8015610f1f5780601f10610ef457610100808354040283529160200191610f1f565b820191906000526020600020905b815481529060010190602001808311610f0257829003601f168201915b5050505050905090565b60606000600b8054905067ffffffffffffffff811115610f4c57610f4b611b85565b5b604051908082528060200260200182016040528015610f7a5781602001602082028036833780820191505090505b509050600080600091505b600b805490508210156110d057600c6000600b8481548110610faa57610fa9611b56565b5b9060005260206000200160009054906101000a900473ffffffffffffffffffffffffffffffffffffffff1673ffffffffffffffffffffffffffffffffffffffff1673ffffffffffffffffffffffffffffffffffffffff16815260200190815260200160002060009054906101000a900460ff16156110bd57600b828154811061103657611035611b56565b5b9060005260206000200160009054906101000a900473ffffffffffffffffffffffffffffffffffffffff1683828151811061107457611073611b56565b5b602002602001019073ffffffffffffffffffffffffffffffffffffffff16908173ffffffffffffffffffffffffffffffffffffffff168152505080806110b990611aaf565b9150505b81806110c890611aaf565b925050610f85565b82935050505090565b600c6020528060005260406000206000915054906101000a900460ff1681565b60008060009054906101000a900473ffffffffffffffffffffffffffffffffffffffff1673ffffffffffffffffffffffffffffffffffffffff16635d3ed95a336040518263ffffffff1660e01b8152600401611155919061172a565b60206040518083038186803b15801561116d57600080fd5b505afa158015611181573d6000803e3d6000fd5b505050506040513d601f19601f820116820180604052508101906111a5919061157c565b6111e4576040517f08c379a00000000000000000000000000000000000000000000000000000000081526004016111db90611812565b60405180910390fd5b600e60003373ffffffffffffffffffffffffffffffffffffffff1673ffffffffffffffffffffffffffffffffffffffff16815260200190815260200160002060009054906101000a900460ff166112f157600d339080600181540180825580915050600190039060005260206000200160009091909190916101000a81548173ffffffffffffffffffffffffffffffffffffffff021916908373ffffffffffffffffffffffffffffffffffffffff1602179055506001600e60003373ffffffffffffffffffffffffffffffffffffffff1673ffffffffffffffffffffffffffffffffffffffff16815260200190815260200160002060006101000a81548160ff0219169083151502179055505b6001905090565b60606007805461130790611a4c565b80601f016020809104026020016040519081016040528092919081815260200182805461133390611a4c565b80156113805780601f1061135557610100808354040283529160200191611380565b820191906000526020600020905b81548152906001019060200180831161136357829003601f168201915b5050505050905090565b828054828255906000526020600020908101928215611403579160200282015b828111156114025782518260006101000a81548173ffffffffffffffffffffffffffffffffffffffff021916908373ffffffffffffffffffffffffffffffffffffffff160217905550916020019190600101906113aa565b5b5090506114109190611414565b5090565b5b8082111561142d576000816000905550600101611415565b5090565b600061144461143f846118b2565b61188d565b9050828152602081018484840111156114605761145f611bb9565b5b61146b848285611a0a565b509392505050565b60008135905061148281611c7a565b92915050565b60008151905061149781611c91565b92915050565b600082601f8301126114b2576114b1611bb4565b5b81356114c2848260208601611431565b91505092915050565b6000813590506114da81611ca8565b92915050565b6000602082840312156114f6576114f5611bc3565b5b600061150484828501611473565b91505092915050565b60008060006060848603121561152657611525611bc3565b5b600061153486828701611473565b935050602061154586828701611473565b925050604084013567ffffffffffffffff81111561156657611565611bbe565b5b6115728682870161149d565b9150509250925092565b60006020828403121561159257611591611bc3565b5b60006115a084828501611488565b91505092915050565b6000602082840312156115bf576115be611bc3565b5b60006115cd848285016114cb565b91505092915050565b60006115e283836115ee565b60208301905092915050565b6115f7816119c2565b82525050565b611606816119c2565b82525050565b6000611617826118f3565b6116218185611916565b935061162c836118e3565b8060005b8381101561165d57815161164488826115d6565b975061164f83611909565b925050600181019050611630565b5085935050505092915050565b611673816119d4565b82525050565b6000611684826118fe565b61168e8185611927565b935061169e818560208601611a19565b6116a781611bc8565b840191505092915050565b60006116bf601983611927565b91506116ca82611bd9565b602082019050919050565b60006116e2601a83611927565b91506116ed82611c02565b602082019050919050565b6000611705602483611927565b915061171082611c2b565b604082019050919050565b61172481611a00565b82525050565b600060208201905061173f60008301846115fd565b92915050565b600060608201905061175a60008301866115fd565b61176760208301856115fd565b81810360408301526117798184611679565b9050949350505050565b600060408201905061179860008301856115fd565b81810360208301526117aa8184611679565b90509392505050565b600060208201905081810360008301526117cd818461160c565b905092915050565b60006020820190506117ea600083018461166a565b92915050565b6000602082019050818103600083015261180a8184611679565b905092915050565b6000602082019050818103600083015261182b816116b2565b9050919050565b6000602082019050818103600083015261184b816116d5565b9050919050565b6000602082019050818103600083015261186b816116f8565b9050919050565b6000602082019050611887600083018461171b565b92915050565b60006118976118a8565b90506118a38282611a7e565b919050565b6000604051905090565b600067ffffffffffffffff8211156118cd576118cc611b85565b5b6118d682611bc8565b9050602081019050919050565b6000819050602082019050919050565b600081519050919050565b600081519050919050565b6000602082019050919050565b600082825260208201905092915050565b600082825260208201905092915050565b600061194382611a00565b915061194e83611a00565b9250827fffffffffffffffffffffffffffffffffffffffffffffffffffffffffffffffff0382111561198357611982611af8565b5b828201905092915050565b600061199982611a00565b91506119a483611a00565b9250828210156119b7576119b6611af8565b5b828203905092915050565b60006119cd826119e0565b9050919050565b60008115159050919050565b600073ffffffffffffffffffffffffffffffffffffffff82169050919050565b6000819050919050565b82818337600083830152505050565b60005b83811015611a37578082015181840152602081019050611a1c565b83811115611a46576000848401525b50505050565b60006002820490506001821680611a6457607f821691505b60208210811415611a7857611a77611b27565b5b50919050565b611a8782611bc8565b810181811067ffffffffffffffff82111715611aa657611aa5611b85565b5b80604052505050565b6000611aba82611a00565b91507fffffffffffffffffffffffffffffffffffffffffffffffffffffffffffffffff821415611aed57611aec611af8565b5b600182019050919050565b7f4e487b7100000000000000000000000000000000000000000000000000000000600052601160045260246000fd5b7f4e487b7100000000000000000000000000000000000000000000000000000000600052602260045260246000fd5b7f4e487b7100000000000000000000000000000000000000000000000000000000600052603260045260246000fd5b7f4e487b7100000000000000000000000000000000000000000000000000000000600052604160045260246000fd5b600080fd5b600080fd5b600080fd5b600080fd5b6000601f19601f8301169050919050565b7f56616363696e65206d75737420626520617070726f7665642e00000000000000600082015250565b7f4865616c7468506572736f6e206e6f7420617070726f7665642e000000000000600082015250565b7f4f6e6c792061646d696e2063616e20706572666f726d207468652066756e637460008201527f696f6e2e00000000000000000000000000000000000000000000000000000000602082015250565b611c83816119c2565b8114611c8e57600080fd5b50565b611c9a816119d4565b8114611ca557600080fd5b50565b611cb181611a00565b8114611cbc57600080fd5b5056fea264697066735822122034767702689865c9e86ccf1180b85c7bf23773fb60156c7da9dacaa8caf9ebf964736f6c63430008050033a2646970667358221220a95aee49bf9c469a6c8601bcb96f5942397d1f549dc00f2cbaa71fb1541ba3c664736f6c63430008050033",
  "immutableReferences": {},
  "source": "// SPDX-License-Identifier: MIT\npragma solidity >=0.7.5;\npragma experimental ABIEncoderV2;\n\ninterface IOGovernment {\n    function registerOrganization() external;\n\n    function checkUserRegistration(address user) external view;\n\n    function vaccinate(\n        address to,\n        address vaccine_address,\n        string memory batch_id\n    ) external;\n\n    function approveHealthPerson(address person) external;\n\n    function disapproveHealthPerson(address person) external;\n\n    function getVaccineApprovalStatus(address vaccine)\n        external\n        view\n        returns (bool);\n}\n\ninterface IOVaccine {\n    function approve(\n        address to,\n        uint256 batchId,\n        uint256 quantity\n    ) external;\n\n    function transferFrom(\n        address from,\n        address to,\n        uint256 batchId\n    ) external;\n\n    function name() external view returns (string memory);\n\n    function vaccinate(address to, string memory batchId) external;\n}\n\ninterface IFOrganization {\n    function name() external view returns (string memory);\n\n    function url() external view returns (string memory);\n\n    function logo_hash() external view returns (string memory);\n\n    function document_hash() external view returns (string memory);\n\n    function location() external view returns (string memory);\n\n    function phone() external view returns (string memory);\n\n    function email() external view returns (string memory);\n}\n\ncontract Organization {\n    IOGovernment gov;\n    address public owner;\n    uint256 public partially_vaccinated;\n    uint256 public fully_vaccinated;\n\n    string private name_;\n    string private url_;\n    string private logo_hash_;\n    string private document_hash_;\n    string private location_;\n    string private phone_;\n    string private email_;\n\n    address[] public healthPersons;\n    mapping(address => bool) public healthPersonApprovalStatus;\n\n    address[] public vaccines;\n    mapping(address => bool) public vaccineStatus;\n\n    address public superAdmin;\n\n    event HealthPersonAdded(address indexed account);\n    event Vaccined(\n        address indexed user,\n        address indexed healthPerson,\n        address indexed vaccine\n    );\n\n    // Constructor\n    constructor(\n        address government,\n        string memory _name,\n        string memory _url,\n        string memory _logo_hash,\n        string memory _document_hash,\n        string memory _location,\n        string memory _phone,\n        string memory _email\n    ) {\n        superAdmin = tx.origin;\n\n        name_ = _name;\n        url_ = _url;\n        logo_hash_ = _logo_hash;\n        document_hash_ = _document_hash;\n        location_ = _location;\n        phone_ = _phone;\n        email_ = _email;\n\n        gov = IOGovernment(government);\n        gov.registerOrganization();\n    }\n\n    function name() public view returns (string memory) {\n        return name_;\n    }\n\n    function url() public view returns (string memory) {\n        return url_;\n    }\n\n    function logo_hash() public view returns (string memory) {\n        return logo_hash_;\n    }\n\n    function document_hash() public view returns (string memory) {\n        return document_hash_;\n    }\n\n    function location() public view returns (string memory) {\n        return location_;\n    }\n\n    function phone() public view returns (string memory) {\n        return phone_;\n    }\n\n    function email() public view returns (string memory) {\n        return email_;\n    }\n\n    function getGovernmentAddress() public view returns (address) {\n        return address(gov);\n    }\n\n    modifier onlySuperAdmin() {\n        require(\n            msg.sender == superAdmin,\n            \"Only admin can perform the function.\"\n        );\n        _;\n    }\n\n    function approveHealthPerson(address person) public onlySuperAdmin {\n        healthPersons.push(person);\n        healthPersonApprovalStatus[person] = true;\n        gov.approveHealthPerson(person);\n    }\n\n    function disapproveHealthPerson(address person) public onlySuperAdmin {\n        address[] memory hps = new address[](healthPersons.length - 1);\n\n        uint256 j = 0;\n        for (uint256 i = 0; i < healthPersons.length; i++) {\n            if (healthPersons[i] == person) {\n                healthPersonApprovalStatus[person] = false;\n            } else {\n                hps[j] = healthPersons[i];\n                j++;\n            }\n        }\n        healthPersons = hps;\n    }\n\n    function onVaccineReceived() public returns (bool){\n        require(\n            gov.getVaccineApprovalStatus(msg.sender),\n            \"Vaccine must be approved.\"\n        );\n        if (!vaccineStatus[msg.sender]) {\n            vaccines.push(msg.sender);\n            vaccineStatus[msg.sender] = true;\n        }\n        return true;\n    }\n\n    function vaccinate(\n        address to,\n        address vaccine_address,\n        string memory batch_id\n    ) public onlyHealthPerson {\n        IOVaccine vaccine = IOVaccine(vaccine_address);\n        partially_vaccinated += 1;\n        fully_vaccinated += 1;\n        gov.vaccinate(to, vaccine_address, batch_id);\n        vaccine.vaccinate(to, batch_id);\n        emit Vaccined(to, msg.sender, vaccine_address);\n    }\n\n    modifier onlyHealthPerson() {\n        require(\n            healthPersonApprovalStatus[msg.sender],\n            \"HealthPerson not approved.\"\n        );\n        _;\n    }\n\n    function getApprovedHealthPersons() public view returns (address[] memory) {\n        address[] memory hps = new address[](healthPersons.length);\n        uint256 i = 0;\n        uint256 j = 0;\n        for (i = 0; i < healthPersons.length; i++) {\n            if (healthPersonApprovalStatus[healthPersons[i]]) {\n                hps[j] = (healthPersons[i]);\n                j++;\n            }\n        }\n        return hps;\n    }\n}\n\ncontract OrganizationFactory {\n    Organization[] public orgs;\n    address[] public orgAddresses;\n    struct OrgDetails {\n        string name;\n        string url;\n        string logo_hash;\n        string document_hash;\n        string location;\n        string phone;\n        string email;\n    }\n    mapping(address => uint256) orgIndex;\n\n    function createOrganization(\n        address gov,\n        string memory name,\n        string memory url,\n        string memory logo_hash,\n        string memory document_hash,\n        string memory location,\n        string memory phone,\n        string memory email\n    ) public {\n        Organization org = new Organization(\n            gov,\n            name,\n            url,\n            logo_hash,\n            document_hash,\n            location,\n            phone,\n            email\n        );\n        orgs.push(org);\n    }\n\n    function getOrganizationAddresses()\n        public\n        view\n        returns (Organization[] memory)\n    {\n        return orgs;\n    }\n\n    function getOrganizationDetails(address orgAddress)\n        public\n        view\n        returns (OrgDetails memory)\n    {\n        IFOrganization org = IFOrganization(orgAddress);\n\n        string memory name = org.name();\n        string memory url = org.url();\n        string memory logo_hash = org.logo_hash();\n        string memory document_hash = org.document_hash();\n        string memory location = org.location();\n        string memory phone = org.phone();\n        string memory email = org.email();\n        return\n            OrgDetails(\n                name,\n                url,\n                logo_hash,\n                document_hash,\n                location,\n                phone,\n                email\n            );\n    }\n\n    function getAllOrganizationsWithDetails()\n        public\n        view\n        returns (OrgDetails[] memory)\n    {\n        OrgDetails[] memory organizations = new OrgDetails[](orgs.length);\n        for (uint256 i = 0; i < orgs.length; i++) {\n            organizations[i] = getOrganizationDetails(address(orgs[i]));\n        }\n        return organizations;\n    }\n\n    function getSpeficiedOrganizationDetails(address[] memory orgAddrs)\n        public\n        view\n        returns (OrgDetails[] memory)\n    {\n        OrgDetails[] memory organizations = new OrgDetails[](orgAddrs.length);\n        for (uint256 i = 0; i < orgs.length; i++) {\n            organizations[i] = getOrganizationDetails(orgAddrs[i]);\n        }\n        return organizations;\n    }\n}\n",
  "sourcePath": "/home/prajwolrg/School/Vaccination/vaccine-solidity/contracts/Organization.sol",
  "compiler": {
    "name": "solc",
    "version": "0.8.5+commit.a4f2e591.Emscripten.clang"
  },
  "schemaVersion": "3.4.4",
  "updatedAt": "2022-04-15T11:03:04.396Z",
  "networkType": "ethereum",
  "devdoc": {
    "kind": "dev",
    "methods": {},
    "version": 1
  },
  "userdoc": {
    "kind": "user",
    "methods": {},
    "version": 1
  }
}