{
  "contractName": "Organization",
  "abi": [
    {
      "inputs": [
        {
          "internalType": "address",
          "name": "government",
          "type": "address"
        },
        {
          "internalType": "string",
          "name": "_name",
          "type": "string"
        },
        {
          "internalType": "string",
          "name": "_url",
          "type": "string"
        },
        {
          "internalType": "string",
          "name": "_logo_hash",
          "type": "string"
        },
        {
          "internalType": "string",
          "name": "_document_hash",
          "type": "string"
        },
        {
          "internalType": "string",
          "name": "_location",
          "type": "string"
        },
        {
          "internalType": "string",
          "name": "_phone",
          "type": "string"
        },
        {
          "internalType": "string",
          "name": "_email",
          "type": "string"
        }
      ],
      "stateMutability": "nonpayable",
      "type": "constructor"
    },
    {
      "anonymous": false,
      "inputs": [
        {
          "indexed": true,
          "internalType": "address",
          "name": "account",
          "type": "address"
        }
      ],
      "name": "HealthPersonAdded",
      "type": "event"
    },
    {
      "anonymous": false,
      "inputs": [
        {
          "indexed": true,
          "internalType": "address",
          "name": "user",
          "type": "address"
        },
        {
          "indexed": true,
          "internalType": "address",
          "name": "healthPerson",
          "type": "address"
        },
        {
          "indexed": true,
          "internalType": "address",
          "name": "vaccine",
          "type": "address"
        }
      ],
      "name": "Vaccined",
      "type": "event"
    },
    {
      "inputs": [],
      "name": "fully_vaccinated",
      "outputs": [
        {
          "internalType": "uint256",
          "name": "",
          "type": "uint256"
        }
      ],
      "stateMutability": "view",
      "type": "function",
      "constant": true
    },
    {
      "inputs": [
        {
          "internalType": "address",
          "name": "",
          "type": "address"
        }
      ],
      "name": "healthPersonApprovalStatus",
      "outputs": [
        {
          "internalType": "bool",
          "name": "",
          "type": "bool"
        }
      ],
      "stateMutability": "view",
      "type": "function",
      "constant": true
    },
    {
      "inputs": [
        {
          "internalType": "uint256",
          "name": "",
          "type": "uint256"
        }
      ],
      "name": "healthPersons",
      "outputs": [
        {
          "internalType": "address",
          "name": "",
          "type": "address"
        }
      ],
      "stateMutability": "view",
      "type": "function",
      "constant": true
    },
    {
      "inputs": [],
      "name": "owner",
      "outputs": [
        {
          "internalType": "address",
          "name": "",
          "type": "address"
        }
      ],
      "stateMutability": "view",
      "type": "function",
      "constant": true
    },
    {
      "inputs": [],
      "name": "partially_vaccinated",
      "outputs": [
        {
          "internalType": "uint256",
          "name": "",
          "type": "uint256"
        }
      ],
      "stateMutability": "view",
      "type": "function",
      "constant": true
    },
    {
      "inputs": [],
      "name": "name",
      "outputs": [
        {
          "internalType": "string",
          "name": "",
          "type": "string"
        }
      ],
      "stateMutability": "view",
      "type": "function",
      "constant": true
    },
    {
      "inputs": [],
      "name": "url",
      "outputs": [
        {
          "internalType": "string",
          "name": "",
          "type": "string"
        }
      ],
      "stateMutability": "view",
      "type": "function",
      "constant": true
    },
    {
      "inputs": [],
      "name": "logo_hash",
      "outputs": [
        {
          "internalType": "string",
          "name": "",
          "type": "string"
        }
      ],
      "stateMutability": "view",
      "type": "function",
      "constant": true
    },
    {
      "inputs": [],
      "name": "document_hash",
      "outputs": [
        {
          "internalType": "string",
          "name": "",
          "type": "string"
        }
      ],
      "stateMutability": "view",
      "type": "function",
      "constant": true
    },
    {
      "inputs": [],
      "name": "location",
      "outputs": [
        {
          "internalType": "string",
          "name": "",
          "type": "string"
        }
      ],
      "stateMutability": "view",
      "type": "function",
      "constant": true
    },
    {
      "inputs": [],
      "name": "phone",
      "outputs": [
        {
          "internalType": "string",
          "name": "",
          "type": "string"
        }
      ],
      "stateMutability": "view",
      "type": "function",
      "constant": true
    },
    {
      "inputs": [],
      "name": "email",
      "outputs": [
        {
          "internalType": "string",
          "name": "",
          "type": "string"
        }
      ],
      "stateMutability": "view",
      "type": "function",
      "constant": true
    },
    {
      "inputs": [
        {
          "internalType": "address",
          "name": "person",
          "type": "address"
        }
      ],
      "name": "approveHealthPerson",
      "outputs": [],
      "stateMutability": "nonpayable",
      "type": "function"
    },
    {
      "inputs": [
        {
          "internalType": "address",
          "name": "person",
          "type": "address"
        }
      ],
      "name": "disapproveHealthPerson",
      "outputs": [],
      "stateMutability": "nonpayable",
      "type": "function"
    },
    {
      "inputs": [
        {
          "internalType": "address",
          "name": "to",
          "type": "address"
        },
        {
          "internalType": "address",
          "name": "vaccine_address",
          "type": "address"
        },
        {
          "internalType": "string",
          "name": "batch_id",
          "type": "string"
        }
      ],
      "name": "vaccinate",
      "outputs": [],
      "stateMutability": "nonpayable",
      "type": "function"
    },
    {
      "inputs": [],
      "name": "getApprovedHealthPersons",
      "outputs": [
        {
          "internalType": "address[]",
          "name": "",
          "type": "address[]"
        }
      ],
      "stateMutability": "view",
      "type": "function",
      "constant": true
    }
  ],
  "bytecode": "0x60806040523480156200001157600080fd5b5060405162001d1538038062001d1583398181016040528101906200003791906200033c565b33600d60006101000a81548173ffffffffffffffffffffffffffffffffffffffff021916908373ffffffffffffffffffffffffffffffffffffffff160217905550866004908051906020019062000090929190620001f7565b508560059080519060200190620000a9929190620001f7565b508460069080519060200190620000c2929190620001f7565b508360079080519060200190620000db929190620001f7565b508260089080519060200190620000f4929190620001f7565b5081600990805190602001906200010d929190620001f7565b5080600a908051906020019062000126929190620001f7565b50876000806101000a81548173ffffffffffffffffffffffffffffffffffffffff021916908373ffffffffffffffffffffffffffffffffffffffff16021790555060008054906101000a900473ffffffffffffffffffffffffffffffffffffffff1673ffffffffffffffffffffffffffffffffffffffff166353e42da36040518163ffffffff1660e01b8152600401600060405180830381600087803b158015620001d057600080fd5b505af1158015620001e5573d6000803e3d6000fd5b505050505050505050505050620006b0565b8280546200020590620005a7565b90600052602060002090601f01602090048101928262000229576000855562000275565b82601f106200024457805160ff191683800117855562000275565b8280016001018555821562000275579182015b828111156200027457825182559160200191906001019062000257565b5b50905062000284919062000288565b5090565b5b80821115620002a357600081600090555060010162000289565b5090565b6000620002be620002b88462000507565b620004de565b905082815260208101848484011115620002dd57620002dc62000676565b5b620002ea84828562000571565b509392505050565b600081519050620003038162000696565b92915050565b600082601f83011262000321576200032062000671565b5b815162000333848260208601620002a7565b91505092915050565b600080600080600080600080610100898b03121562000360576200035f62000680565b5b6000620003708b828c01620002f2565b985050602089015167ffffffffffffffff8111156200039457620003936200067b565b5b620003a28b828c0162000309565b975050604089015167ffffffffffffffff811115620003c657620003c56200067b565b5b620003d48b828c0162000309565b965050606089015167ffffffffffffffff811115620003f857620003f76200067b565b5b620004068b828c0162000309565b955050608089015167ffffffffffffffff8111156200042a57620004296200067b565b5b620004388b828c0162000309565b94505060a089015167ffffffffffffffff8111156200045c576200045b6200067b565b5b6200046a8b828c0162000309565b93505060c089015167ffffffffffffffff8111156200048e576200048d6200067b565b5b6200049c8b828c0162000309565b92505060e089015167ffffffffffffffff811115620004c057620004bf6200067b565b5b620004ce8b828c0162000309565b9150509295985092959890939650565b6000620004ea620004fd565b9050620004f88282620005dd565b919050565b6000604051905090565b600067ffffffffffffffff82111562000525576200052462000642565b5b620005308262000685565b9050602081019050919050565b60006200054a8262000551565b9050919050565b600073ffffffffffffffffffffffffffffffffffffffff82169050919050565b60005b838110156200059157808201518184015260208101905062000574565b83811115620005a1576000848401525b50505050565b60006002820490506001821680620005c057607f821691505b60208210811415620005d757620005d662000613565b5b50919050565b620005e88262000685565b810181811067ffffffffffffffff821117156200060a576200060962000642565b5b80604052505050565b7f4e487b7100000000000000000000000000000000000000000000000000000000600052602260045260246000fd5b7f4e487b7100000000000000000000000000000000000000000000000000000000600052604160045260246000fd5b600080fd5b600080fd5b600080fd5b600080fd5b6000601f19601f8301169050919050565b620006a1816200053d565b8114620006ad57600080fd5b50565b61165580620006c06000396000f3fe608060405234801561001057600080fd5b50600436106101005760003560e01c80637e0acf04116100975780639284f497116100665780639284f49714610279578063a7d41ac114610297578063c38f7ef0146102b5578063f05883c6146102e557610100565b80637e0acf0414610201578063820e93f51461021f5780638da5cb5b1461023d5780638fe17ae61461025b57610100565b8063281481d5116100d3578063281481d51461018b5780634baf1a0f146101a7578063516f279e146101c55780635600f04f146101e357610100565b806306fdde03146101055780630794be4f146101235780632140fb801461013f57806325de97ef1461016f575b600080fd5b61010d610303565b60405161011a919061121f565b60405180910390f35b61013d60048036038101906101389190610faf565b610395565b005b6101596004803603810190610154919061101e565b6105cd565b6040516101669190611159565b60405180910390f35b61018960048036038101906101849190610f82565b61060c565b005b6101a560048036038101906101a09190610f82565b6106ca565b005b6101af6108d3565b6040516101bc9190611261565b60405180910390f35b6101cd6108d9565b6040516101da919061121f565b60405180910390f35b6101eb61096b565b6040516101f8919061121f565b60405180910390f35b6102096109fd565b604051610216919061121f565b60405180910390f35b610227610a8f565b604051610234919061121f565b60405180910390f35b610245610b21565b6040516102529190611159565b60405180910390f35b610263610b47565b6040516102709190611261565b60405180910390f35b610281610b4d565b60405161028e919061121f565b60405180910390f35b61029f610bdf565b6040516102ac91906111e2565b60405180910390f35b6102cf60048036038101906102ca9190610f82565b610d8f565b6040516102dc9190611204565b60405180910390f35b6102ed610daf565b6040516102fa919061121f565b60405180910390f35b6060600480546103129061143b565b80601f016020809104026020016040519081016040528092919081815260200182805461033e9061143b565b801561038b5780601f106103605761010080835404028352916020019161038b565b820191906000526020600020905b81548152906001019060200180831161036e57829003601f168201915b5050505050905090565b600c60003373ffffffffffffffffffffffffffffffffffffffff1673ffffffffffffffffffffffffffffffffffffffff16815260200190815260200160002060009054906101000a900460ff16610421576040517f08c379a000000000000000000000000000000000000000000000000000000000815260040161041890611241565b60405180910390fd5b60008290506001600260008282546104399190611327565b925050819055506001600360008282546104539190611327565b9250508190555060008054906101000a900473ffffffffffffffffffffffffffffffffffffffff1673ffffffffffffffffffffffffffffffffffffffff16630794be4f8585856040518463ffffffff1660e01b81526004016104b793929190611174565b600060405180830381600087803b1580156104d157600080fd5b505af11580156104e5573d6000803e3d6000fd5b505050508073ffffffffffffffffffffffffffffffffffffffff16636103986285846040518363ffffffff1660e01b81526004016105249291906111b2565b600060405180830381600087803b15801561053e57600080fd5b505af1158015610552573d6000803e3d6000fd5b505050508273ffffffffffffffffffffffffffffffffffffffff163373ffffffffffffffffffffffffffffffffffffffff168573ffffffffffffffffffffffffffffffffffffffff167f92bcccd59a6e4cf458463ac7a1aaaa2e64a7394411981fcbde52bd37dd75f14560405160405180910390a450505050565b600b81815481106105dd57600080fd5b906000526020600020016000915054906101000a900473ffffffffffffffffffffffffffffffffffffffff1681565b600b819080600181540180825580915050600190039060005260206000200160009091909190916101000a81548173ffffffffffffffffffffffffffffffffffffffff021916908373ffffffffffffffffffffffffffffffffffffffff1602179055506001600c60008373ffffffffffffffffffffffffffffffffffffffff1673ffffffffffffffffffffffffffffffffffffffff16815260200190815260200160002060006101000a81548160ff02191690831515021790555050565b60006001600b805490506106de919061137d565b67ffffffffffffffff8111156106f7576106f6611574565b5b6040519080825280602002602001820160405280156107255781602001602082028036833780820191505090505b5090506000805b600b805490508110156108b6578373ffffffffffffffffffffffffffffffffffffffff16600b828154811061076457610763611545565b5b9060005260206000200160009054906101000a900473ffffffffffffffffffffffffffffffffffffffff1673ffffffffffffffffffffffffffffffffffffffff161415610808576000600c60008673ffffffffffffffffffffffffffffffffffffffff1673ffffffffffffffffffffffffffffffffffffffff16815260200190815260200160002060006101000a81548160ff0219169083151502179055506108a3565b600b818154811061081c5761081b611545565b5b9060005260206000200160009054906101000a900473ffffffffffffffffffffffffffffffffffffffff1683838151811061085a57610859611545565b5b602002602001019073ffffffffffffffffffffffffffffffffffffffff16908173ffffffffffffffffffffffffffffffffffffffff1681525050818061089f9061149e565b9250505b80806108ae9061149e565b91505061072c565b5081600b90805190602001906108cd929190610e41565b50505050565b60025481565b6060600880546108e89061143b565b80601f01602080910402602001604051908101604052809291908181526020018280546109149061143b565b80156109615780601f1061093657610100808354040283529160200191610961565b820191906000526020600020905b81548152906001019060200180831161094457829003601f168201915b5050505050905090565b60606005805461097a9061143b565b80601f01602080910402602001604051908101604052809291908181526020018280546109a69061143b565b80156109f35780601f106109c8576101008083540402835291602001916109f3565b820191906000526020600020905b8154815290600101906020018083116109d657829003601f168201915b5050505050905090565b606060068054610a0c9061143b565b80601f0160208091040260200160405190810160405280929190818152602001828054610a389061143b565b8015610a855780601f10610a5a57610100808354040283529160200191610a85565b820191906000526020600020905b815481529060010190602001808311610a6857829003601f168201915b5050505050905090565b6060600a8054610a9e9061143b565b80601f0160208091040260200160405190810160405280929190818152602001828054610aca9061143b565b8015610b175780601f10610aec57610100808354040283529160200191610b17565b820191906000526020600020905b815481529060010190602001808311610afa57829003601f168201915b5050505050905090565b600160009054906101000a900473ffffffffffffffffffffffffffffffffffffffff1681565b60035481565b606060098054610b5c9061143b565b80601f0160208091040260200160405190810160405280929190818152602001828054610b889061143b565b8015610bd55780601f10610baa57610100808354040283529160200191610bd5565b820191906000526020600020905b815481529060010190602001808311610bb857829003601f168201915b5050505050905090565b60606000600b8054905067ffffffffffffffff811115610c0257610c01611574565b5b604051908082528060200260200182016040528015610c305781602001602082028036833780820191505090505b509050600080600091505b600b80549050821015610d8657600c6000600b8481548110610c6057610c5f611545565b5b9060005260206000200160009054906101000a900473ffffffffffffffffffffffffffffffffffffffff1673ffffffffffffffffffffffffffffffffffffffff1673ffffffffffffffffffffffffffffffffffffffff16815260200190815260200160002060009054906101000a900460ff1615610d7357600b8281548110610cec57610ceb611545565b5b9060005260206000200160009054906101000a900473ffffffffffffffffffffffffffffffffffffffff16838281518110610d2a57610d29611545565b5b602002602001019073ffffffffffffffffffffffffffffffffffffffff16908173ffffffffffffffffffffffffffffffffffffffff16815250508080610d6f9061149e565b9150505b8180610d7e9061149e565b925050610c3b565b82935050505090565b600c6020528060005260406000206000915054906101000a900460ff1681565b606060078054610dbe9061143b565b80601f0160208091040260200160405190810160405280929190818152602001828054610dea9061143b565b8015610e375780601f10610e0c57610100808354040283529160200191610e37565b820191906000526020600020905b815481529060010190602001808311610e1a57829003601f168201915b5050505050905090565b828054828255906000526020600020908101928215610eba579160200282015b82811115610eb95782518260006101000a81548173ffffffffffffffffffffffffffffffffffffffff021916908373ffffffffffffffffffffffffffffffffffffffff16021790555091602001919060010190610e61565b5b509050610ec79190610ecb565b5090565b5b80821115610ee4576000816000905550600101610ecc565b5090565b6000610efb610ef6846112a1565b61127c565b905082815260208101848484011115610f1757610f166115a8565b5b610f228482856113f9565b509392505050565b600081359050610f39816115f1565b92915050565b600082601f830112610f5457610f536115a3565b5b8135610f64848260208601610ee8565b91505092915050565b600081359050610f7c81611608565b92915050565b600060208284031215610f9857610f976115b2565b5b6000610fa684828501610f2a565b91505092915050565b600080600060608486031215610fc857610fc76115b2565b5b6000610fd686828701610f2a565b9350506020610fe786828701610f2a565b925050604084013567ffffffffffffffff811115611008576110076115ad565b5b61101486828701610f3f565b9150509250925092565b600060208284031215611034576110336115b2565b5b600061104284828501610f6d565b91505092915050565b60006110578383611063565b60208301905092915050565b61106c816113b1565b82525050565b61107b816113b1565b82525050565b600061108c826112e2565b6110968185611305565b93506110a1836112d2565b8060005b838110156110d25781516110b9888261104b565b97506110c4836112f8565b9250506001810190506110a5565b5085935050505092915050565b6110e8816113c3565b82525050565b60006110f9826112ed565b6111038185611316565b9350611113818560208601611408565b61111c816115b7565b840191505092915050565b6000611134601a83611316565b915061113f826115c8565b602082019050919050565b611153816113ef565b82525050565b600060208201905061116e6000830184611072565b92915050565b60006060820190506111896000830186611072565b6111966020830185611072565b81810360408301526111a881846110ee565b9050949350505050565b60006040820190506111c76000830185611072565b81810360208301526111d981846110ee565b90509392505050565b600060208201905081810360008301526111fc8184611081565b905092915050565b600060208201905061121960008301846110df565b92915050565b6000602082019050818103600083015261123981846110ee565b905092915050565b6000602082019050818103600083015261125a81611127565b9050919050565b6000602082019050611276600083018461114a565b92915050565b6000611286611297565b9050611292828261146d565b919050565b6000604051905090565b600067ffffffffffffffff8211156112bc576112bb611574565b5b6112c5826115b7565b9050602081019050919050565b6000819050602082019050919050565b600081519050919050565b600081519050919050565b6000602082019050919050565b600082825260208201905092915050565b600082825260208201905092915050565b6000611332826113ef565b915061133d836113ef565b9250827fffffffffffffffffffffffffffffffffffffffffffffffffffffffffffffffff03821115611372576113716114e7565b5b828201905092915050565b6000611388826113ef565b9150611393836113ef565b9250828210156113a6576113a56114e7565b5b828203905092915050565b60006113bc826113cf565b9050919050565b60008115159050919050565b600073ffffffffffffffffffffffffffffffffffffffff82169050919050565b6000819050919050565b82818337600083830152505050565b60005b8381101561142657808201518184015260208101905061140b565b83811115611435576000848401525b50505050565b6000600282049050600182168061145357607f821691505b6020821081141561146757611466611516565b5b50919050565b611476826115b7565b810181811067ffffffffffffffff8211171561149557611494611574565b5b80604052505050565b60006114a9826113ef565b91507fffffffffffffffffffffffffffffffffffffffffffffffffffffffffffffffff8214156114dc576114db6114e7565b5b600182019050919050565b7f4e487b7100000000000000000000000000000000000000000000000000000000600052601160045260246000fd5b7f4e487b7100000000000000000000000000000000000000000000000000000000600052602260045260246000fd5b7f4e487b7100000000000000000000000000000000000000000000000000000000600052603260045260246000fd5b7f4e487b7100000000000000000000000000000000000000000000000000000000600052604160045260246000fd5b600080fd5b600080fd5b600080fd5b600080fd5b6000601f19601f8301169050919050565b7f4865616c7468506572736f6e206e6f7420617070726f7665642e000000000000600082015250565b6115fa816113b1565b811461160557600080fd5b50565b611611816113ef565b811461161c57600080fd5b5056fea264697066735822122075678abec5d8ca8cc7299a9249b7a98d86d5e2be61d3225235a41688eab11c0964736f6c63430008050033",
  "immutableReferences": {},
  "source": "// SPDX-License-Identifier: MIT\npragma solidity >=0.7.5;\npragma experimental ABIEncoderV2;\n\ninterface IOGovernment {\n    function registerOrganization() external;\n\n    function checkUserRegistration(address user) external view;\n\n    function vaccinate(\n        address to,\n        address vaccine_address,\n        string memory batch_id\n    ) external;\n}\n\ninterface IOVaccine {\n    function approve(\n        address to,\n        uint256 batchId,\n        uint256 quantity\n    ) external;\n\n    function transferFrom(\n        address from,\n        address to,\n        uint256 batchId\n    ) external;\n\n    function name() external view returns (string memory);\n\n    function vaccinate(address to, string memory batchId) external;\n}\n\ninterface IFOrganization {\n    function name() external view returns(string memory);\n    function url() external view returns(string memory);\n    function logo_hash() external view returns(string memory);\n    function document_hash() external view returns(string memory);\n    function location() external view returns (string memory);\n    function phone() external view returns (string memory);\n    function email() external view returns(string memory);\n}\n\ncontract Organization {\n    IOGovernment gov;\n    address public owner;\n    uint256 public partially_vaccinated;\n    uint256 public fully_vaccinated;\n\n    string private name_;\n    string private url_;\n    string private logo_hash_;\n    string private document_hash_;\n    string private location_;\n    string private phone_;\n    string private email_;\n\n    address[] public healthPersons;\n    mapping(address => bool) public healthPersonApprovalStatus;\n\n    address superAdmin;\n\n    event HealthPersonAdded(address indexed account);\n    event Vaccined(\n        address indexed user,\n        address indexed healthPerson,\n        address indexed vaccine\n    );\n\n    // Constructor\n    constructor(\n        address government,\n        string memory _name,\n        string memory _url,\n        string memory _logo_hash,\n        string memory _document_hash,\n        string memory _location,\n        string memory _phone,\n        string memory _email\n    ) {\n        superAdmin = msg.sender;\n\n        name_ = _name;\n        url_ = _url;\n        logo_hash_ = _logo_hash;\n        document_hash_ = _document_hash;\n        location_ = _location;\n        phone_ = _phone;\n        email_ = _email;\n\n        gov = IOGovernment(government);\n        gov.registerOrganization();\n    }\n\n    function name() public view returns (string memory) {\n        return name_;\n    }\n\n    function url() public view returns (string memory) {\n        return url_;\n    }\n\n    function logo_hash() public view returns (string memory) {\n        return logo_hash_;\n    }\n\n    function document_hash() public view returns (string memory) {\n        return document_hash_;\n    }\n\n    function location() public view returns (string memory) {\n        return location_;\n    }\n\n    function phone() public view returns (string memory) {\n        return phone_;\n    }\n\n    function email() public view returns (string memory) {\n        return email_;\n    }\n\n    function approveHealthPerson(address person) public {\n        healthPersons.push(person);\n        healthPersonApprovalStatus[person] = true;\n    }\n\n    function disapproveHealthPerson(address person) public {\n        address[] memory hps = new address[](healthPersons.length - 1);\n\n        uint256 j = 0;\n        for (uint256 i = 0; i < healthPersons.length; i++) {\n            if (healthPersons[i] == person) {\n                healthPersonApprovalStatus[person] = false;\n            } else {\n                hps[j] = healthPersons[i];\n                j++;\n            }\n        }\n        healthPersons = hps;\n    }\n\n    function vaccinate(\n        address to,\n        address vaccine_address,\n        string memory batch_id\n    ) public onlyHealthPerson {\n        IOVaccine vaccine = IOVaccine(vaccine_address);\n        partially_vaccinated += 1;\n        fully_vaccinated += 1;\n        gov.vaccinate(to, vaccine_address, batch_id);\n        vaccine.vaccinate(to, batch_id);\n        emit Vaccined(to, msg.sender, vaccine_address);\n    }\n\n    modifier onlyHealthPerson() {\n        require(\n            healthPersonApprovalStatus[msg.sender],\n            \"HealthPerson not approved.\"\n        );\n        _;\n    }\n\n    function getApprovedHealthPersons() public view returns (address[] memory) {\n        address[] memory hps = new address[](healthPersons.length);\n        uint256 i = 0;\n        uint256 j = 0;\n        for (i = 0; i < healthPersons.length; i++) {\n            if (healthPersonApprovalStatus[healthPersons[i]]) {\n                hps[j] = (healthPersons[i]);\n                j++;\n            }\n        }\n        return hps;\n    }\n}\n\ncontract OrganizationFactory {\n    Organization[] public orgs;\n    address[] public orgAddresses;\n    struct OrgDetails {\n        string name;\n        string url;\n        string logo_hash;\n        string document_hash;\n        string location;\n        string phone;\n        string email;\n    }\n    mapping(address => uint256) orgIndex;\n\n    function createOrganization(\n        address gov,\n        string memory name,\n        string memory url,\n        string memory logo_hash,\n        string memory document_hash,\n        string memory location,\n        string memory phone,\n        string memory email\n    ) public {\n        Organization org = new Organization(\n            gov,\n            name,\n            url,\n            logo_hash,\n            document_hash,\n            location,\n            phone,\n            email\n        );\n        orgs.push(org);\n    }\n\n    function getOrganizations() public view returns (Organization[] memory) {\n        return orgs;\n    }\n\n    function getOrganizationDetails(address orgAddress)\n        public\n        view\n        returns (OrgDetails memory)\n    {\n        IFOrganization org = IFOrganization(orgAddress);\n\n        string memory name = org.name();\n        string memory url = org.url();\n        string memory logo_hash = org.logo_hash();\n        string memory document_hash = org.document_hash();\n        string memory location = org.location();\n        string memory phone = org.phone();\n        string memory email = org.email();\n        return\n            OrgDetails(\n                name,\n                url,\n                logo_hash,\n                document_hash,\n                location,\n                phone,\n                email\n            );\n    }\n\n    function getAllOrganizationsWithDetails() public view returns (OrgDetails[] memory) {\n        OrgDetails[] memory organizations = new OrgDetails[](orgs.length);\n        for (uint i=0; i<orgs.length; i++) {\n            organizations[i] = getOrganizationDetails(address(orgs[i]));\n        }\n        return organizations;\n    }\n}\n",
  "sourcePath": "/home/prajwolrg/School/Vaccination/vaccine-solidity/contracts/Organization.sol",
  "compiler": {
    "name": "solc",
    "version": "0.8.5+commit.a4f2e591.Emscripten.clang"
  },
  "schemaVersion": "3.4.4",
  "updatedAt": "2022-04-14T11:11:31.942Z",
  "networkType": "ethereum",
  "devdoc": {
    "kind": "dev",
    "methods": {},
    "version": 1
  },
  "userdoc": {
    "kind": "user",
    "methods": {},
    "version": 1
  }
}