{
  "contractName": "Vaccine",
  "abi": [
    {
      "inputs": [
        {
          "internalType": "string",
          "name": "_name",
          "type": "string"
        },
        {
          "internalType": "uint256[]",
          "name": "_schedule",
          "type": "uint256[]"
        },
        {
          "internalType": "string",
          "name": "_platform",
          "type": "string"
        },
        {
          "internalType": "string",
          "name": "_route",
          "type": "string"
        },
        {
          "internalType": "string",
          "name": "_ipfs_hash",
          "type": "string"
        }
      ],
      "stateMutability": "nonpayable",
      "type": "constructor"
    },
    {
      "anonymous": false,
      "inputs": [
        {
          "indexed": true,
          "internalType": "address",
          "name": "from",
          "type": "address"
        },
        {
          "indexed": true,
          "internalType": "address",
          "name": "to",
          "type": "address"
        },
        {
          "indexed": true,
          "internalType": "string",
          "name": "batchId",
          "type": "string"
        },
        {
          "indexed": false,
          "internalType": "uint256",
          "name": "units",
          "type": "uint256"
        }
      ],
      "name": "Approval",
      "type": "event"
    },
    {
      "anonymous": false,
      "inputs": [
        {
          "indexed": true,
          "internalType": "string",
          "name": "batch_name",
          "type": "string"
        }
      ],
      "name": "NewBatch",
      "type": "event"
    },
    {
      "anonymous": false,
      "inputs": [
        {
          "indexed": true,
          "internalType": "address",
          "name": "from",
          "type": "address"
        },
        {
          "indexed": true,
          "internalType": "address",
          "name": "to",
          "type": "address"
        },
        {
          "indexed": true,
          "internalType": "uint256",
          "name": "batchId",
          "type": "uint256"
        },
        {
          "indexed": false,
          "internalType": "uint256",
          "name": "units",
          "type": "uint256"
        }
      ],
      "name": "Transfer",
      "type": "event"
    },
    {
      "anonymous": false,
      "inputs": [
        {
          "indexed": true,
          "internalType": "address",
          "name": "to",
          "type": "address"
        },
        {
          "indexed": true,
          "internalType": "string",
          "name": "batchId",
          "type": "string"
        }
      ],
      "name": "Vaccined",
      "type": "event"
    },
    {
      "inputs": [
        {
          "internalType": "string",
          "name": "",
          "type": "string"
        }
      ],
      "name": "batchDetails",
      "outputs": [
        {
          "internalType": "string",
          "name": "batchId",
          "type": "string"
        },
        {
          "internalType": "uint256",
          "name": "defrost_date",
          "type": "uint256"
        },
        {
          "internalType": "uint256",
          "name": "manufacture_expiry",
          "type": "uint256"
        },
        {
          "internalType": "uint256",
          "name": "use_by_date",
          "type": "uint256"
        },
        {
          "internalType": "uint256",
          "name": "units",
          "type": "uint256"
        },
        {
          "internalType": "string",
          "name": "ipfs_hash",
          "type": "string"
        }
      ],
      "stateMutability": "view",
      "type": "function",
      "constant": true
    },
    {
      "inputs": [
        {
          "internalType": "string",
          "name": "",
          "type": "string"
        }
      ],
      "name": "batchIdToSupply",
      "outputs": [
        {
          "internalType": "uint256",
          "name": "",
          "type": "uint256"
        }
      ],
      "stateMutability": "view",
      "type": "function",
      "constant": true
    },
    {
      "inputs": [
        {
          "internalType": "address",
          "name": "",
          "type": "address"
        },
        {
          "internalType": "string",
          "name": "",
          "type": "string"
        }
      ],
      "name": "ownerToBatchToBalance",
      "outputs": [
        {
          "internalType": "uint256",
          "name": "",
          "type": "uint256"
        }
      ],
      "stateMutability": "view",
      "type": "function",
      "constant": true
    },
    {
      "inputs": [],
      "name": "superAdmin",
      "outputs": [
        {
          "internalType": "address",
          "name": "",
          "type": "address"
        }
      ],
      "stateMutability": "view",
      "type": "function",
      "constant": true
    },
    {
      "inputs": [],
      "name": "vaccineCount",
      "outputs": [
        {
          "internalType": "uint256",
          "name": "",
          "type": "uint256"
        }
      ],
      "stateMutability": "view",
      "type": "function",
      "constant": true
    },
    {
      "inputs": [],
      "name": "name",
      "outputs": [
        {
          "internalType": "string",
          "name": "",
          "type": "string"
        }
      ],
      "stateMutability": "view",
      "type": "function",
      "constant": true
    },
    {
      "inputs": [],
      "name": "schedule",
      "outputs": [
        {
          "internalType": "uint256[]",
          "name": "",
          "type": "uint256[]"
        }
      ],
      "stateMutability": "view",
      "type": "function",
      "constant": true
    },
    {
      "inputs": [],
      "name": "platform",
      "outputs": [
        {
          "internalType": "string",
          "name": "",
          "type": "string"
        }
      ],
      "stateMutability": "view",
      "type": "function",
      "constant": true
    },
    {
      "inputs": [],
      "name": "developers",
      "outputs": [
        {
          "internalType": "string",
          "name": "",
          "type": "string"
        }
      ],
      "stateMutability": "view",
      "type": "function",
      "constant": true
    },
    {
      "inputs": [],
      "name": "route",
      "outputs": [
        {
          "internalType": "string",
          "name": "",
          "type": "string"
        }
      ],
      "stateMutability": "view",
      "type": "function",
      "constant": true
    },
    {
      "inputs": [],
      "name": "ipfs_hash",
      "outputs": [
        {
          "internalType": "string",
          "name": "",
          "type": "string"
        }
      ],
      "stateMutability": "view",
      "type": "function",
      "constant": true
    },
    {
      "inputs": [],
      "name": "totalSupply",
      "outputs": [
        {
          "internalType": "uint256",
          "name": "",
          "type": "uint256"
        }
      ],
      "stateMutability": "view",
      "type": "function",
      "constant": true
    },
    {
      "inputs": [
        {
          "internalType": "string",
          "name": "batchId",
          "type": "string"
        }
      ],
      "name": "individualSupply",
      "outputs": [
        {
          "internalType": "uint256",
          "name": "",
          "type": "uint256"
        }
      ],
      "stateMutability": "view",
      "type": "function",
      "constant": true
    },
    {
      "inputs": [
        {
          "internalType": "address",
          "name": "owner",
          "type": "address"
        },
        {
          "internalType": "string",
          "name": "batchId",
          "type": "string"
        }
      ],
      "name": "balanceOf",
      "outputs": [
        {
          "internalType": "uint256",
          "name": "",
          "type": "uint256"
        }
      ],
      "stateMutability": "view",
      "type": "function",
      "constant": true
    },
    {
      "inputs": [
        {
          "internalType": "address",
          "name": "owner",
          "type": "address"
        }
      ],
      "name": "batchesOwned",
      "outputs": [
        {
          "components": [
            {
              "internalType": "string",
              "name": "batchId",
              "type": "string"
            },
            {
              "internalType": "uint256",
              "name": "units",
              "type": "uint256"
            }
          ],
          "internalType": "struct Vaccine.OwnerBatch[]",
          "name": "",
          "type": "tuple[]"
        }
      ],
      "stateMutability": "view",
      "type": "function",
      "constant": true
    },
    {
      "inputs": [
        {
          "internalType": "address",
          "name": "to",
          "type": "address"
        },
        {
          "internalType": "string",
          "name": "batchId",
          "type": "string"
        },
        {
          "internalType": "uint256",
          "name": "quantity",
          "type": "uint256"
        }
      ],
      "name": "transfer",
      "outputs": [],
      "stateMutability": "nonpayable",
      "type": "function"
    },
    {
      "inputs": [
        {
          "internalType": "address",
          "name": "to",
          "type": "address"
        },
        {
          "internalType": "string",
          "name": "batchId",
          "type": "string"
        },
        {
          "internalType": "uint256",
          "name": "quantity",
          "type": "uint256"
        }
      ],
      "name": "approve",
      "outputs": [],
      "stateMutability": "nonpayable",
      "type": "function"
    },
    {
      "inputs": [
        {
          "internalType": "address",
          "name": "to",
          "type": "address"
        }
      ],
      "name": "approveAll",
      "outputs": [],
      "stateMutability": "nonpayable",
      "type": "function"
    },
    {
      "inputs": [
        {
          "internalType": "address",
          "name": "to",
          "type": "address"
        },
        {
          "internalType": "string",
          "name": "batchId",
          "type": "string"
        }
      ],
      "name": "vaccinate",
      "outputs": [],
      "stateMutability": "nonpayable",
      "type": "function"
    },
    {
      "inputs": [
        {
          "internalType": "address",
          "name": "from",
          "type": "address"
        },
        {
          "internalType": "address",
          "name": "to",
          "type": "address"
        },
        {
          "internalType": "string",
          "name": "batchId",
          "type": "string"
        }
      ],
      "name": "transferFrom",
      "outputs": [],
      "stateMutability": "nonpayable",
      "type": "function"
    },
    {
      "inputs": [
        {
          "internalType": "string",
          "name": "batchId",
          "type": "string"
        },
        {
          "internalType": "uint256",
          "name": "defrost_date",
          "type": "uint256"
        },
        {
          "internalType": "uint256",
          "name": "manufacture_expiry",
          "type": "uint256"
        },
        {
          "internalType": "uint256",
          "name": "use_by_date",
          "type": "uint256"
        },
        {
          "internalType": "uint256",
          "name": "units",
          "type": "uint256"
        }
      ],
      "name": "addBatch",
      "outputs": [],
      "stateMutability": "nonpayable",
      "type": "function"
    },
    {
      "inputs": [],
      "name": "getAllBatches",
      "outputs": [
        {
          "internalType": "string[]",
          "name": "",
          "type": "string[]"
        }
      ],
      "stateMutability": "view",
      "type": "function",
      "constant": true
    },
    {
      "inputs": [],
      "name": "getAllBatchesWithDetails",
      "outputs": [
        {
          "components": [
            {
              "internalType": "string",
              "name": "batchId",
              "type": "string"
            },
            {
              "internalType": "uint256",
              "name": "defrost_date",
              "type": "uint256"
            },
            {
              "internalType": "uint256",
              "name": "manufacture_expiry",
              "type": "uint256"
            },
            {
              "internalType": "uint256",
              "name": "use_by_date",
              "type": "uint256"
            },
            {
              "internalType": "uint256",
              "name": "units",
              "type": "uint256"
            },
            {
              "internalType": "string",
              "name": "ipfs_hash",
              "type": "string"
            }
          ],
          "internalType": "struct Vaccine.Batch[]",
          "name": "",
          "type": "tuple[]"
        }
      ],
      "stateMutability": "view",
      "type": "function",
      "constant": true
    },
    {
      "inputs": [
        {
          "internalType": "string",
          "name": "batchId",
          "type": "string"
        }
      ],
      "name": "getBatchDetails",
      "outputs": [
        {
          "components": [
            {
              "internalType": "string",
              "name": "batchId",
              "type": "string"
            },
            {
              "internalType": "uint256",
              "name": "defrost_date",
              "type": "uint256"
            },
            {
              "internalType": "uint256",
              "name": "manufacture_expiry",
              "type": "uint256"
            },
            {
              "internalType": "uint256",
              "name": "use_by_date",
              "type": "uint256"
            },
            {
              "internalType": "uint256",
              "name": "units",
              "type": "uint256"
            },
            {
              "internalType": "string",
              "name": "ipfs_hash",
              "type": "string"
            }
          ],
          "internalType": "struct Vaccine.Batch",
          "name": "",
          "type": "tuple"
        }
      ],
      "stateMutability": "view",
      "type": "function",
      "constant": true
    }
  ],
  "bytecode": "0x60806040523480156200001157600080fd5b506040516200378b3803806200378b833981810160405281019062000037919062000345565b84600090805190602001906200004f92919062000100565b5083600190805190602001906200006892919062000191565b5082600290805190602001906200008192919062000100565b5081600490805190602001906200009a92919062000100565b508060059080519060200190620000b392919062000100565b5032600660006101000a81548173ffffffffffffffffffffffffffffffffffffffff021916908373ffffffffffffffffffffffffffffffffffffffff160217905550505050505062000644565b8280546200010e9062000536565b90600052602060002090601f0160209004810192826200013257600085556200017e565b82601f106200014d57805160ff19168380011785556200017e565b828001600101855582156200017e579182015b828111156200017d57825182559160200191906001019062000160565b5b5090506200018d9190620001e3565b5090565b828054828255906000526020600020908101928215620001d0579160200282015b82811115620001cf578251825591602001919060010190620001b2565b5b509050620001df9190620001e3565b5090565b5b80821115620001fe576000816000905550600101620001e4565b5090565b600062000219620002138462000491565b62000468565b905080838252602082019050828560208602820111156200023f576200023e62000605565b5b60005b858110156200027357816200025888826200032e565b84526020840193506020830192505060018101905062000242565b5050509392505050565b6000620002946200028e84620004c0565b62000468565b905082815260208101848484011115620002b357620002b26200060a565b5b620002c084828562000500565b509392505050565b600082601f830112620002e057620002df62000600565b5b8151620002f284826020860162000202565b91505092915050565b600082601f83011262000313576200031262000600565b5b8151620003258482602086016200027d565b91505092915050565b6000815190506200033f816200062a565b92915050565b600080600080600060a0868803121562000364576200036362000614565b5b600086015167ffffffffffffffff8111156200038557620003846200060f565b5b6200039388828901620002fb565b955050602086015167ffffffffffffffff811115620003b757620003b66200060f565b5b620003c588828901620002c8565b945050604086015167ffffffffffffffff811115620003e957620003e86200060f565b5b620003f788828901620002fb565b935050606086015167ffffffffffffffff8111156200041b576200041a6200060f565b5b6200042988828901620002fb565b925050608086015167ffffffffffffffff8111156200044d576200044c6200060f565b5b6200045b88828901620002fb565b9150509295509295909350565b60006200047462000487565b90506200048282826200056c565b919050565b6000604051905090565b600067ffffffffffffffff821115620004af57620004ae620005d1565b5b602082029050602081019050919050565b600067ffffffffffffffff821115620004de57620004dd620005d1565b5b620004e98262000619565b9050602081019050919050565b6000819050919050565b60005b838110156200052057808201518184015260208101905062000503565b8381111562000530576000848401525b50505050565b600060028204905060018216806200054f57607f821691505b60208210811415620005665762000565620005a2565b5b50919050565b620005778262000619565b810181811067ffffffffffffffff82111715620005995762000598620005d1565b5b80604052505050565b7f4e487b7100000000000000000000000000000000000000000000000000000000600052602260045260246000fd5b7f4e487b7100000000000000000000000000000000000000000000000000000000600052604160045260246000fd5b600080fd5b600080fd5b600080fd5b600080fd5b600080fd5b6000601f19601f8301169050919050565b6200063581620004f6565b81146200064157600080fd5b50565b61313780620006546000396000f3fe608060405234801561001057600080fd5b50600436106101585760003560e01c8063b0604a26116100c3578063c8020e0f1161007c578063c8020e0f146103f6578063cf0c3cca14610412578063d96661ef1461042e578063dcb7b1b71461044c578063e80e076b1461046a578063fff3a01b1461048857610158565b8063b0604a26146102fa578063b466389414610318578063b74500e014610348578063b9b092c814610378578063c4173e48146103a8578063c5f3bdb8146103d857610158565b80633ebfc934116101155780633ebfc9341461022157806340cf07fa1461023d5780634bde38c8146102725780636103986214610290578063809051db146102ac5780639a1e51ca146102ca57610158565b80630621472c1461015d57806306fdde031461017957806318160ddd1461019757806329575f6a146101b55780632bc31ca4146101d35780633456d566146101f1575b600080fd5b61017760048036038101906101729190612140565b6104a4565b005b61018161053c565b60405161018e91906129e7565b60405180910390f35b61019f6105ce565b6040516101ac9190612b5a565b60405180910390f35b6101bd6105d8565b6040516101ca9190612944565b60405180910390f35b6101db6105fe565b6040516101e891906129e7565b60405180910390f35b61020b60048036038101906102069190612140565b610690565b60405161021891906129a3565b60405180910390f35b61023b6004803603810190610236919061216d565b6109bb565b005b610257600480360381019061025291906122a7565b610cb9565b60405161026996959493929190612a09565b60405180910390f35b61027a610e1b565b60405161028791906129e7565b60405180910390f35b6102aa60048036038101906102a591906121dc565b610ead565b005b6102b461108e565b6040516102c191906129e7565b60405180910390f35b6102e460048036038101906102df91906122a7565b611120565b6040516102f19190612b38565b60405180910390f35b6103026112a4565b60405161030f91906129c5565b60405180910390f35b610332600480360381019061032d91906121dc565b6112fc565b60405161033f9190612b5a565b60405180910390f35b610362600480360381019061035d91906122a7565b611337565b60405161036f9190612b5a565b60405180910390f35b610392600480360381019061038d91906121dc565b611365565b60405161039f9190612b5a565b60405180910390f35b6103c260048036038101906103bd91906122a7565b6113cb565b6040516103cf9190612b5a565b60405180910390f35b6103e06113f3565b6040516103ed9190612981565b60405180910390f35b610410600480360381019061040b9190612238565b611633565b005b61042c600480360381019061042791906122f0565b611801565b005b610436611b3d565b60405161044391906129e7565b60405180910390f35b610454611bcf565b6040516104619190612b5a565b60405180910390f35b610472611bd5565b60405161047f919061295f565b60405180910390f35b6104a2600480360381019061049d9190612238565b611cae565b005b6001600960003373ffffffffffffffffffffffffffffffffffffffff1673ffffffffffffffffffffffffffffffffffffffff16815260200190815260200160002060008373ffffffffffffffffffffffffffffffffffffffff1673ffffffffffffffffffffffffffffffffffffffff16815260200190815260200160002060006101000a81548160ff02191690831515021790555050565b60606000805461054b90612e04565b80601f016020809104026020016040519081016040528092919081815260200182805461057790612e04565b80156105c45780601f10610599576101008083540402835291602001916105c4565b820191906000526020600020905b8154815290600101906020018083116105a757829003601f168201915b5050505050905090565b6000600754905090565b600660009054906101000a900473ffffffffffffffffffffffffffffffffffffffff1681565b60606003805461060d90612e04565b80601f016020809104026020016040519081016040528092919081815260200182805461063990612e04565b80156106865780601f1061065b57610100808354040283529160200191610686565b820191906000526020600020905b81548152906001019060200180831161066957829003601f168201915b5050505050905090565b60606000600e8054905067ffffffffffffffff8111156106b3576106b2612f3d565b5b6040519080825280602002602001820160405280156106e657816020015b60608152602001906001900390816106d15790505b5090506000805b600e80549050811015610862576000600b60008773ffffffffffffffffffffffffffffffffffffffff1673ffffffffffffffffffffffffffffffffffffffff168152602001908152602001600020600e838154811061074f5761074e612f0e565b5b90600052602060002001604051610766919061292d565b9081526020016040518091039020541461084f57600e818154811061078e5761078d612f0e565b5b9060005260206000200180546107a390612e04565b80601f01602080910402602001604051908101604052809291908181526020018280546107cf90612e04565b801561081c5780601f106107f15761010080835404028352916020019161081c565b820191906000526020600020905b8154815290600101906020018083116107ff57829003601f168201915b505050505083838151811061083457610833612f0e565b5b602002602001018190525060018261084c9190612cfc565b91505b808061085a90612e67565b9150506106ed565b5060008167ffffffffffffffff81111561087f5761087e612f3d565b5b6040519080825280602002602001820160405280156108b857816020015b6108a5611f83565b81526020019060019003908161089d5790505b50905060005b828110156109af578381815181106108d9576108d8612f0e565b5b60200260200101518282815181106108f4576108f3612f0e565b5b602002602001015160000181905250600b60008773ffffffffffffffffffffffffffffffffffffffff1673ffffffffffffffffffffffffffffffffffffffff16815260200190815260200160002084828151811061095557610954612f0e565b5b602002602001015160405161096a9190612916565b90815260200160405180910390205482828151811061098c5761098b612f0e565b5b6020026020010151602001818152505080806109a790612e67565b9150506108be565b50809350505050919050565b6000600c60008573ffffffffffffffffffffffffffffffffffffffff1673ffffffffffffffffffffffffffffffffffffffff16815260200190815260200160002082604051610a0a9190612916565b908152602001604051809103902090506000816001015490508373ffffffffffffffffffffffffffffffffffffffff168260000160009054906101000a900473ffffffffffffffffffffffffffffffffffffffff1673ffffffffffffffffffffffffffffffffffffffff16148015610add5750600b60008673ffffffffffffffffffffffffffffffffffffffff1673ffffffffffffffffffffffffffffffffffffffff16815260200190815260200160002083604051610aca9190612916565b9081526020016040518091039020548110155b610ae657600080fd5b80600b60008773ffffffffffffffffffffffffffffffffffffffff1673ffffffffffffffffffffffffffffffffffffffff16815260200190815260200160002084604051610b349190612916565b90815260200160405180910390206000828254610b519190612d52565b9250508190555080600b60008673ffffffffffffffffffffffffffffffffffffffff1673ffffffffffffffffffffffffffffffffffffffff16815260200190815260200160002084604051610ba69190612916565b90815260200160405180910390206000828254610bc39190612cfc565b92505081905550610bd2611f9d565b6040518060400160405280600073ffffffffffffffffffffffffffffffffffffffff1681526020016000815250905080600c60008873ffffffffffffffffffffffffffffffffffffffff1673ffffffffffffffffffffffffffffffffffffffff16815260200190815260200160002085604051610c4f9190612916565b908152602001604051809103902060008201518160000160006101000a81548173ffffffffffffffffffffffffffffffffffffffff021916908373ffffffffffffffffffffffffffffffffffffffff16021790555060208201518160010155905050505050505050565b600d81805160208101820180518482526020830160208501208183528095505050505050600091509050806000018054610cf290612e04565b80601f0160208091040260200160405190810160405280929190818152602001828054610d1e90612e04565b8015610d6b5780601f10610d4057610100808354040283529160200191610d6b565b820191906000526020600020905b815481529060010190602001808311610d4e57829003601f168201915b505050505090806001015490806002015490806003015490806004015490806005018054610d9890612e04565b80601f0160208091040260200160405190810160405280929190818152602001828054610dc490612e04565b8015610e115780601f10610de657610100808354040283529160200191610e11565b820191906000526020600020905b815481529060010190602001808311610df457829003601f168201915b5050505050905086565b606060028054610e2a90612e04565b80601f0160208091040260200160405190810160405280929190818152602001828054610e5690612e04565b8015610ea35780601f10610e7857610100808354040283529160200191610ea3565b820191906000526020600020905b815481529060010190602001808311610e8657829003601f168201915b5050505050905090565b6000600b60003373ffffffffffffffffffffffffffffffffffffffff1673ffffffffffffffffffffffffffffffffffffffff16815260200190815260200160002082604051610efc9190612916565b90815260200160405180910390205411610f4b576040517f08c379a0000000000000000000000000000000000000000000000000000000008152600401610f4290612a78565b60405180910390fd5b6001600b60003373ffffffffffffffffffffffffffffffffffffffff1673ffffffffffffffffffffffffffffffffffffffff16815260200190815260200160002082604051610f9a9190612916565b90815260200160405180910390206000828254610fb79190612d52565b925050819055506001600b60008473ffffffffffffffffffffffffffffffffffffffff1673ffffffffffffffffffffffffffffffffffffffff1681526020019081526020016000208260405161100d9190612916565b9081526020016040518091039020600082825461102a9190612cfc565b925050819055508060405161103f9190612916565b60405180910390208273ffffffffffffffffffffffffffffffffffffffff167fef2efa73144c5f8cd3684c5c620e24325aa03b459096efd2f498f8386839041960405160405180910390a35050565b60606005805461109d90612e04565b80601f01602080910402602001604051908101604052809291908181526020018280546110c990612e04565b80156111165780601f106110eb57610100808354040283529160200191611116565b820191906000526020600020905b8154815290600101906020018083116110f957829003601f168201915b5050505050905090565b611128611fcd565b600d826040516111389190612916565b90815260200160405180910390206040518060c001604052908160008201805461116190612e04565b80601f016020809104026020016040519081016040528092919081815260200182805461118d90612e04565b80156111da5780601f106111af576101008083540402835291602001916111da565b820191906000526020600020905b8154815290600101906020018083116111bd57829003601f168201915b505050505081526020016001820154815260200160028201548152602001600382015481526020016004820154815260200160058201805461121b90612e04565b80601f016020809104026020016040519081016040528092919081815260200182805461124790612e04565b80156112945780601f1061126957610100808354040283529160200191611294565b820191906000526020600020905b81548152906001019060200180831161127757829003601f168201915b5050505050815250509050919050565b606060018054806020026020016040519081016040528092919081815260200182805480156112f257602002820191906000526020600020905b8154815260200190600101908083116112de575b5050505050905090565b600b60205281600052604060002081805160208101820180518482526020830160208501208183528095505050505050600091509150505481565b600a818051602081018201805184825260208301602085012081835280955050505050506000915090505481565b6000600b60008473ffffffffffffffffffffffffffffffffffffffff1673ffffffffffffffffffffffffffffffffffffffff168152602001908152602001600020826040516113b49190612916565b908152602001604051809103902054905092915050565b6000600a826040516113dd9190612916565b9081526020016040518091039020549050919050565b60606000600e8054905067ffffffffffffffff81111561141657611415612f3d565b5b60405190808252806020026020018201604052801561144f57816020015b61143c611fcd565b8152602001906001900390816114345790505b50905060005b600e8054905081101561162b576000600d600e838154811061147a57611479612f0e565b5b90600052602060002001604051611491919061292d565b90815260200160405180910390206040518060c00160405290816000820180546114ba90612e04565b80601f01602080910402602001604051908101604052809291908181526020018280546114e690612e04565b80156115335780601f1061150857610100808354040283529160200191611533565b820191906000526020600020905b81548152906001019060200180831161151657829003601f168201915b505050505081526020016001820154815260200160028201548152602001600382015481526020016004820154815260200160058201805461157490612e04565b80601f01602080910402602001604051908101604052809291908181526020018280546115a090612e04565b80156115ed5780601f106115c2576101008083540402835291602001916115ed565b820191906000526020600020905b8154815290600101906020018083116115d057829003601f168201915b50505050508152505090508083838151811061160c5761160b612f0e565b5b602002602001018190525050808061162390612e67565b915050611455565b508091505090565b80600b60003373ffffffffffffffffffffffffffffffffffffffff1673ffffffffffffffffffffffffffffffffffffffff168152602001908152602001600020836040516116819190612916565b908152602001604051809103902054101561169b57600080fd5b6116a3611f9d565b60405180604001604052808573ffffffffffffffffffffffffffffffffffffffff16815260200183815250905080600c60003373ffffffffffffffffffffffffffffffffffffffff1673ffffffffffffffffffffffffffffffffffffffff1681526020019081526020016000208460405161171e9190612916565b908152602001604051809103902060008201518160000160006101000a81548173ffffffffffffffffffffffffffffffffffffffff021916908373ffffffffffffffffffffffffffffffffffffffff160217905550602082015181600101559050508260405161178e9190612916565b60405180910390208473ffffffffffffffffffffffffffffffffffffffff163373ffffffffffffffffffffffffffffffffffffffff167f17047a419515d22fa233d47027a0ec1677b03dea0fc0a1832cb6a47b93859051856040516117f39190612b5a565b60405180910390a450505050565b600660009054906101000a900473ffffffffffffffffffffffffffffffffffffffff1673ffffffffffffffffffffffffffffffffffffffff163373ffffffffffffffffffffffffffffffffffffffff1614611891576040517f08c379a000000000000000000000000000000000000000000000000000000000815260040161188890612ad8565b60405180910390fd5b4284106118d3576040517f08c379a00000000000000000000000000000000000000000000000000000000081526004016118ca90612ab8565b60405180910390fd5b428311611915576040517f08c379a000000000000000000000000000000000000000000000000000000000815260040161190c90612af8565b60405180910390fd5b428211611957576040517f08c379a000000000000000000000000000000000000000000000000000000000815260040161194e90612b18565b60405180910390fd5b84600d866040516119689190612916565b9081526020016040518091039020600001908051906020019061198c929190612003565b5083600d8660405161199e9190612916565b90815260200160405180910390206001018190555082600d866040516119c49190612916565b90815260200160405180910390206002018190555081600d866040516119ea9190612916565b90815260200160405180910390206003018190555080600d86604051611a109190612916565b90815260200160405180910390206004018190555080600b60003373ffffffffffffffffffffffffffffffffffffffff1673ffffffffffffffffffffffffffffffffffffffff16815260200190815260200160002086604051611a739190612916565b9081526020016040518091039020819055508060076000828254611a979190612cfc565b92505081905550600160086000828254611ab19190612cfc565b92505081905550600e85908060018154018082558091505060019003906000526020600020016000909190919091509080519060200190611af3929190612003565b5084604051611b029190612916565b60405180910390207ff83fcb896ea7199c4d58a8a4ab92545a6dcb43b6d1026c5e8213b8f905b102d160405160405180910390a25050505050565b606060048054611b4c90612e04565b80601f0160208091040260200160405190810160405280929190818152602001828054611b7890612e04565b8015611bc55780601f10611b9a57610100808354040283529160200191611bc5565b820191906000526020600020905b815481529060010190602001808311611ba857829003601f168201915b5050505050905090565b60075481565b6060600e805480602002602001604051908101604052809291908181526020016000905b82821015611ca5578382906000526020600020018054611c1890612e04565b80601f0160208091040260200160405190810160405280929190818152602001828054611c4490612e04565b8015611c915780601f10611c6657610100808354040283529160200191611c91565b820191906000526020600020905b815481529060010190602001808311611c7457829003601f168201915b505050505081526020019060010190611bf9565b50505050905090565b80600b60003373ffffffffffffffffffffffffffffffffffffffff1673ffffffffffffffffffffffffffffffffffffffff16815260200190815260200160002083604051611cfc9190612916565b9081526020016040518091039020541015611d4c576040517f08c379a0000000000000000000000000000000000000000000000000000000008152600401611d4390612a98565b60405180910390fd5b60008390508073ffffffffffffffffffffffffffffffffffffffff1663ee7a97fd6040518163ffffffff1660e01b8152600401600060405180830381600087803b158015611d9957600080fd5b505af1158015611dad573d6000803e3d6000fd5b5050505081600b60003373ffffffffffffffffffffffffffffffffffffffff1673ffffffffffffffffffffffffffffffffffffffff16815260200190815260200160002084604051611dff9190612916565b90815260200160405180910390206000828254611e1c9190612d52565b9250508190555081600b60008673ffffffffffffffffffffffffffffffffffffffff1673ffffffffffffffffffffffffffffffffffffffff16815260200190815260200160002084604051611e719190612916565b90815260200160405180910390206000828254611e8e9190612cfc565b92505081905550611e9d611f9d565b6040518060400160405280600073ffffffffffffffffffffffffffffffffffffffff1681526020016000815250905080600c60003373ffffffffffffffffffffffffffffffffffffffff1673ffffffffffffffffffffffffffffffffffffffff16815260200190815260200160002085604051611f1a9190612916565b908152602001604051809103902060008201518160000160006101000a81548173ffffffffffffffffffffffffffffffffffffffff021916908373ffffffffffffffffffffffffffffffffffffffff160217905550602082015181600101559050505050505050565b604051806040016040528060608152602001600081525090565b6040518060400160405280600073ffffffffffffffffffffffffffffffffffffffff168152602001600081525090565b6040518060c001604052806060815260200160008152602001600081526020016000815260200160008152602001606081525090565b82805461200f90612e04565b90600052602060002090601f0160209004810192826120315760008555612078565b82601f1061204a57805160ff1916838001178555612078565b82800160010185558215612078579182015b8281111561207757825182559160200191906001019061205c565b5b5090506120859190612089565b5090565b5b808211156120a257600081600090555060010161208a565b5090565b60006120b96120b484612b9a565b612b75565b9050828152602081018484840111156120d5576120d4612f71565b5b6120e0848285612dc2565b509392505050565b6000813590506120f7816130d3565b92915050565b600082601f83011261211257612111612f6c565b5b81356121228482602086016120a6565b91505092915050565b60008135905061213a816130ea565b92915050565b60006020828403121561215657612155612f7b565b5b6000612164848285016120e8565b91505092915050565b60008060006060848603121561218657612185612f7b565b5b6000612194868287016120e8565b93505060206121a5868287016120e8565b925050604084013567ffffffffffffffff8111156121c6576121c5612f76565b5b6121d2868287016120fd565b9150509250925092565b600080604083850312156121f3576121f2612f7b565b5b6000612201858286016120e8565b925050602083013567ffffffffffffffff81111561222257612221612f76565b5b61222e858286016120fd565b9150509250929050565b60008060006060848603121561225157612250612f7b565b5b600061225f868287016120e8565b935050602084013567ffffffffffffffff8111156122805761227f612f76565b5b61228c868287016120fd565b925050604061229d8682870161212b565b9150509250925092565b6000602082840312156122bd576122bc612f7b565b5b600082013567ffffffffffffffff8111156122db576122da612f76565b5b6122e7848285016120fd565b91505092915050565b600080600080600060a0868803121561230c5761230b612f7b565b5b600086013567ffffffffffffffff81111561232a57612329612f76565b5b612336888289016120fd565b95505060206123478882890161212b565b94505060406123588882890161212b565b93505060606123698882890161212b565b925050608061237a8882890161212b565b9150509295509295909350565b600061239383836125a7565b905092915050565b60006123a7838361279b565b905092915050565b60006123bb83836128bb565b905092915050565b60006123cf83836128f8565b60208301905092915050565b6123e481612d86565b82525050565b60006123f582612c20565b6123ff8185612c8b565b93508360208202850161241185612bcb565b8060005b8581101561244d578484038952815161242e8582612387565b945061243983612c57565b925060208a01995050600181019050612415565b50829750879550505050505092915050565b600061246a82612c2b565b6124748185612c9c565b93508360208202850161248685612bdb565b8060005b858110156124c257848403895281516124a3858261239b565b94506124ae83612c64565b925060208a0199505060018101905061248a565b50829750879550505050505092915050565b60006124df82612c36565b6124e98185612cad565b9350836020820285016124fb85612beb565b8060005b85811015612537578484038952815161251885826123af565b945061252383612c71565b925060208a019950506001810190506124ff565b50829750879550505050505092915050565b600061255482612c41565b61255e8185612cbe565b935061256983612bfb565b8060005b8381101561259a57815161258188826123c3565b975061258c83612c7e565b92505060018101905061256d565b5085935050505092915050565b60006125b282612c4c565b6125bc8185612ccf565b93506125cc818560208601612dd1565b6125d581612f80565b840191505092915050565b60006125eb82612c4c565b6125f58185612ce0565b9350612605818560208601612dd1565b61260e81612f80565b840191505092915050565b600061262482612c4c565b61262e8185612cf1565b935061263e818560208601612dd1565b80840191505092915050565b6000815461265781612e04565b6126618186612cf1565b9450600182166000811461267c576001811461268d576126c0565b60ff198316865281860193506126c0565b61269685612c0b565b60005b838110156126b857815481890152600182019150602081019050612699565b838801955050505b50505092915050565b60006126d6601283612ce0565b91506126e182612f91565b602082019050919050565b60006126f9601983612ce0565b915061270482612fba565b602082019050919050565b600061271c601c83612ce0565b915061272782612fe3565b602082019050919050565b600061273f602483612ce0565b915061274a8261300c565b604082019050919050565b6000612762600783612ce0565b915061276d8261305b565b602082019050919050565b6000612785602283612ce0565b915061279082613084565b604082019050919050565b600060c08301600083015184820360008601526127b882826125a7565b91505060208301516127cd60208601826128f8565b5060408301516127e060408601826128f8565b5060608301516127f360608601826128f8565b50608083015161280660808601826128f8565b5060a083015184820360a086015261281e82826125a7565b9150508091505092915050565b600060c083016000830151848203600086015261284882826125a7565b915050602083015161285d60208601826128f8565b50604083015161287060408601826128f8565b50606083015161288360608601826128f8565b50608083015161289660808601826128f8565b5060a083015184820360a08601526128ae82826125a7565b9150508091505092915050565b600060408301600083015184820360008601526128d882826125a7565b91505060208301516128ed60208601826128f8565b508091505092915050565b61290181612db8565b82525050565b61291081612db8565b82525050565b60006129228284612619565b915081905092915050565b6000612939828461264a565b915081905092915050565b600060208201905061295960008301846123db565b92915050565b6000602082019050818103600083015261297981846123ea565b905092915050565b6000602082019050818103600083015261299b818461245f565b905092915050565b600060208201905081810360008301526129bd81846124d4565b905092915050565b600060208201905081810360008301526129df8184612549565b905092915050565b60006020820190508181036000830152612a0181846125e0565b905092915050565b600060c0820190508181036000830152612a2381896125e0565b9050612a326020830188612907565b612a3f6040830187612907565b612a4c6060830186612907565b612a596080830185612907565b81810360a0830152612a6b81846125e0565b9050979650505050505050565b60006020820190508181036000830152612a91816126c9565b9050919050565b60006020820190508181036000830152612ab1816126ec565b9050919050565b60006020820190508181036000830152612ad18161270f565b9050919050565b60006020820190508181036000830152612af181612732565b9050919050565b60006020820190508181036000830152612b1181612755565b9050919050565b60006020820190508181036000830152612b3181612778565b9050919050565b60006020820190508181036000830152612b52818461282b565b905092915050565b6000602082019050612b6f6000830184612907565b92915050565b6000612b7f612b90565b9050612b8b8282612e36565b919050565b6000604051905090565b600067ffffffffffffffff821115612bb557612bb4612f3d565b5b612bbe82612f80565b9050602081019050919050565b6000819050602082019050919050565b6000819050602082019050919050565b6000819050602082019050919050565b6000819050602082019050919050565b60008190508160005260206000209050919050565b600081519050919050565b600081519050919050565b600081519050919050565b600081519050919050565b600081519050919050565b6000602082019050919050565b6000602082019050919050565b6000602082019050919050565b6000602082019050919050565b600082825260208201905092915050565b600082825260208201905092915050565b600082825260208201905092915050565b600082825260208201905092915050565b600082825260208201905092915050565b600082825260208201905092915050565b600081905092915050565b6000612d0782612db8565b9150612d1283612db8565b9250827fffffffffffffffffffffffffffffffffffffffffffffffffffffffffffffffff03821115612d4757612d46612eb0565b5b828201905092915050565b6000612d5d82612db8565b9150612d6883612db8565b925082821015612d7b57612d7a612eb0565b5b828203905092915050565b6000612d9182612d98565b9050919050565b600073ffffffffffffffffffffffffffffffffffffffff82169050919050565b6000819050919050565b82818337600083830152505050565b60005b83811015612def578082015181840152602081019050612dd4565b83811115612dfe576000848401525b50505050565b60006002820490506001821680612e1c57607f821691505b60208210811415612e3057612e2f612edf565b5b50919050565b612e3f82612f80565b810181811067ffffffffffffffff82111715612e5e57612e5d612f3d565b5b80604052505050565b6000612e7282612db8565b91507fffffffffffffffffffffffffffffffffffffffffffffffffffffffffffffffff821415612ea557612ea4612eb0565b5b600182019050919050565b7f4e487b7100000000000000000000000000000000000000000000000000000000600052601160045260246000fd5b7f4e487b7100000000000000000000000000000000000000000000000000000000600052602260045260246000fd5b7f4e487b7100000000000000000000000000000000000000000000000000000000600052603260045260246000fd5b7f4e487b7100000000000000000000000000000000000000000000000000000000600052604160045260246000fd5b600080fd5b600080fd5b600080fd5b600080fd5b6000601f19601f8301169050919050565b7f4e6f7420656e6f7567682076616363696e650000000000000000000000000000600082015250565b7f4f776e657220646f206e6f7420686f6c642076616363696e6500000000000000600082015250565b7f4d7573742062652070726576696f75736c7920646566726f7374656400000000600082015250565b7f4f6e6c792061646d696e2063616e20706572666f726d207468652066756e637460008201527f696f6e2e00000000000000000000000000000000000000000000000000000000602082015250565b7f4578706972656400000000000000000000000000000000000000000000000000600082015250565b7f4d7573742062652075736564207072696f7220746f207573652062792064617460008201527f652e000000000000000000000000000000000000000000000000000000000000602082015250565b6130dc81612d86565b81146130e757600080fd5b50565b6130f381612db8565b81146130fe57600080fd5b5056fea26469706673582212208a0da00efed1defc528afdc29be45d373074cf2ff00cf4cc9ab876530b66c0d864736f6c63430008050033",
  "immutableReferences": {},
  "source": "// SPDX-License-Identifier: MIT\npragma solidity >=0.7.5;\npragma experimental ABIEncoderV2;\n\n/**\n * @title SafeMath\n * @dev Math operations with safety checks that throw on error\n */\nlibrary SafeMath {\n    /**\n     * @dev Multiplies two numbers, throws on overflow.\n     */\n    function mul(uint256 a, uint256 b) internal pure returns (uint256 c) {\n        if (a == 0) {\n            return 0;\n        }\n        c = a * b;\n        assert(c / a == b);\n        return c;\n    }\n\n    /**\n     * @dev Integer division of two numbers, truncating the quotient.\n     */\n    function div(uint256 a, uint256 b) internal pure returns (uint256) {\n        // assert(b > 0); // Solidity automatically throws when dividing by 0\n        // uint256 c = a / b;\n        // assert(a == b * c + a % b); // There is no case in which this doesn't hold\n        return a / b;\n    }\n\n    /**\n     * @dev Subtracts two numbers, throws on overflow (i.e. if subtrahend is greater than minuend).\n     */\n    function sub(uint256 a, uint256 b) internal pure returns (uint256) {\n        assert(b <= a);\n        return a - b;\n    }\n\n    /**\n     * @dev Adds two numbers, throws on overflow.\n     */\n    function add(uint256 a, uint256 b) internal pure returns (uint256 c) {\n        c = a + b;\n        assert(c >= a);\n        return c;\n    }\n}\n\ninterface IFVaccine {\n    function name() external view returns (string memory);\n\n    function schedule() external view returns (uint256[] memory);\n\n    function platform() external view returns (string memory);\n\n    function route() external view returns (string memory);\n\n    function developers() external view returns (string memory);\n\n    function ipfs_hash() external view returns (string memory);\n}\n\ninterface IVOrganization {\n    function onVaccineReceived() external;\n}\n\ncontract Vaccine {\n    using SafeMath for uint256;\n\n    string private name_;\n    uint256[] private schedule_;\n    string private platform_;\n    string private developers_;\n    string private route_;\n    string private ipfs_hash_;\n\n    address public superAdmin;\n\n    struct Batch {\n        string batchId;\n        uint256 defrost_date;\n        uint256 manufacture_expiry;\n        uint256 use_by_date;\n        uint256 units;\n        string ipfs_hash;\n    }\n\n    uint256 public vaccineCount;\n    uint256 currentBatch;\n    struct Transactor {\n        address actor;\n        uint256 amount;\n    }\n\n    struct OwnerBatch {\n        string batchId;\n        uint256 units;\n    }\n\n    mapping(address => mapping(address => bool)) fullApprovals;\n\n    mapping(string => uint256) public batchIdToSupply;\n    mapping(address => mapping(string => uint256)) public ownerToBatchToBalance;\n    mapping(address => mapping(string => Transactor)) approvals;\n    mapping(string => Batch) public batchDetails;\n\n    string[] batches;\n\n    event Transfer(\n        address indexed from,\n        address indexed to,\n        uint256 indexed batchId,\n        uint256 units\n    );\n    event Approval(\n        address indexed from,\n        address indexed to,\n        string indexed batchId,\n        uint256 units\n    );\n    event NewBatch(string indexed batch_name);\n    event Vaccined(address indexed to, string indexed batchId);\n\n    // Constructor\n    constructor(\n        string memory _name,\n        uint256[] memory _schedule,\n        string memory _platform,\n        string memory _route,\n        string memory _ipfs_hash\n    ) {\n        name_ = _name;\n        schedule_ = _schedule;\n        platform_ = _platform;\n        route_ = _route;\n        ipfs_hash_ = _ipfs_hash;\n        superAdmin = tx.origin;\n    }\n\n    function name() public view returns (string memory) {\n        return name_;\n    }\n\n    function schedule() public view returns(uint256[] memory) {\n      return schedule_;\n    }\n\n    function platform() public view returns (string memory) {\n        return platform_;\n    }\n\n    function developers() public view returns (string memory) {\n        return developers_;\n    }\n\n    function route() public view returns (string memory) {\n        return route_;\n    }\n\n    function ipfs_hash() public view returns (string memory) {\n        return ipfs_hash_;\n    }\n\n    function totalSupply() public view returns (uint256) {\n        return vaccineCount;\n    }\n\n    function individualSupply(string memory batchId)\n        public\n        view\n        returns (uint256)\n    {\n        return batchIdToSupply[batchId];\n    }\n\n    function balanceOf(address owner, string memory batchId)\n        public\n        view\n        returns (uint256)\n    {\n        /* if (ownerToBatchToBalance[owner] == 0) return 0; */\n        return ownerToBatchToBalance[owner][batchId];\n    }\n\n    // class of 0 is meaningless and should be ignored.\n    function batchesOwned(address owner)\n        public\n        view\n        returns (OwnerBatch[] memory)\n    {\n        string[] memory tempBatches = new string[](batches.length);\n        uint256 count = 0;\n        for (uint256 i = 0; i < batches.length; i++) {\n            if (ownerToBatchToBalance[owner][batches[i]] != 0) {\n                tempBatches[count] = batches[i];\n                count += 1;\n            }\n        }\n        OwnerBatch[] memory batches_ = new OwnerBatch[](count);\n        for (uint256 i = 0; i < count; i++) {\n            batches_[i].batchId = tempBatches[i];\n            batches_[i].units = ownerToBatchToBalance[owner][tempBatches[i]];\n        }\n        return batches_;\n    }\n\n    function transfer(\n        address to,\n        string memory batchId,\n        uint256 quantity\n    ) public {\n        require(\n            ownerToBatchToBalance[msg.sender][batchId] >= quantity,\n            \"Owner do not hold vaccine\"\n        );\n        IVOrganization org = IVOrganization(to);\n        org.onVaccineReceived();\n        ownerToBatchToBalance[msg.sender][batchId] -= quantity;\n        ownerToBatchToBalance[to][batchId] += quantity;\n        Transactor memory zeroApproval;\n        zeroApproval = Transactor(address(0), 0);\n        approvals[msg.sender][batchId] = zeroApproval;\n    }\n\n    function approve(\n        address to,\n        string memory batchId,\n        uint256 quantity\n    ) public {\n        require(ownerToBatchToBalance[msg.sender][batchId] >= quantity);\n        Transactor memory takerApproval;\n        takerApproval = Transactor(to, quantity);\n        approvals[msg.sender][batchId] = takerApproval;\n        emit Approval(msg.sender, to, batchId, quantity);\n    }\n\n    function approveAll(address to) public {\n        fullApprovals[msg.sender][to] = true;\n    }\n\n    function vaccinate(address to, string memory batchId) public {\n        require(\n            ownerToBatchToBalance[msg.sender][batchId] > 0,\n            \"Not enough vaccine\"\n        );\n        ownerToBatchToBalance[msg.sender][batchId] -= 1;\n        ownerToBatchToBalance[to][batchId] += 1;\n        emit Vaccined(to, batchId);\n    }\n\n    function transferFrom(\n        address from,\n        address to,\n        string memory batchId\n    ) public {\n        Transactor storage takerApproval = approvals[from][batchId];\n        uint256 quantity = takerApproval.amount;\n        require(\n            takerApproval.actor == to &&\n                quantity >= ownerToBatchToBalance[from][batchId]\n        );\n        ownerToBatchToBalance[from][batchId] -= quantity;\n        ownerToBatchToBalance[to][batchId] += quantity;\n        Transactor memory zeroApproval;\n        zeroApproval = Transactor(address(0), 0);\n        approvals[from][batchId] = zeroApproval;\n    }\n\n    function addBatch(\n        string memory batchId,\n        uint256 defrost_date,\n        uint256 manufacture_expiry,\n        uint256 use_by_date,\n        uint256 units\n    ) public onlySuperAdmin {\n        require(defrost_date < block.timestamp, \"Must be previously defrosted\");\n        require(manufacture_expiry > block.timestamp, \"Expired\");\n        require(\n            use_by_date > block.timestamp,\n            \"Must be used prior to use by date.\"\n        );\n\n        batchDetails[batchId].batchId = batchId;\n        batchDetails[batchId].defrost_date = defrost_date;\n        batchDetails[batchId].manufacture_expiry = manufacture_expiry;\n        batchDetails[batchId].use_by_date = use_by_date;\n        batchDetails[batchId].units = units;\n        ownerToBatchToBalance[msg.sender][batchId] = units;\n\n        vaccineCount += units;\n        currentBatch += 1;\n        batches.push(batchId);\n        emit NewBatch(batchId);\n    }\n\n    function getAllBatches() public view returns (string[] memory){\n        return batches;\n    }\n\n    function getAllBatchesWithDetails() public view returns (Batch[] memory){\n        Batch[] memory allBatchDetails = new Batch[](batches.length);\n        for (uint i=0; i<batches.length; i++) {\n            Batch memory batch = batchDetails[batches[i]];\n            allBatchDetails[i] = batch;\n        }\n        return allBatchDetails;\n    }\n\n    function getBatchDetails(string memory batchId) public view returns (Batch memory) {\n        return batchDetails[batchId];\n    }\n\n    modifier onlySuperAdmin() {\n        require(\n            msg.sender == superAdmin,\n            \"Only admin can perform the function.\"\n        );\n        _;\n    }\n}\n\ncontract VaccineFactory {\n    Vaccine[] public vaccines;\n    struct VaccineDetails {\n        string name;\n        uint256[] schedule;\n        string platform;\n        string route;\n        string ipfs_hash;\n    }\n    mapping(address => uint256) vaccineIndex;\n\n    function createVaccine(\n        string memory name,\n        uint256[] memory schedule,\n        string memory platform,\n        string memory route,\n        string memory ipfs_hash\n    ) public {\n        Vaccine v = new Vaccine(name, schedule, platform, route, ipfs_hash);\n        vaccines.push(v);\n    }\n\n    function getVaccineAddresses() public view returns (Vaccine[] memory) {\n        return vaccines;\n    }\n\n    function getVaccineDetails(address vaccineAddress)\n        public\n        view\n        returns (VaccineDetails memory)\n    {\n        IFVaccine vaccine = IFVaccine(vaccineAddress);\n        string memory name = vaccine.name();\n        uint256[] memory schedule = vaccine.schedule();\n        string memory platform = vaccine.platform();\n        string memory route = vaccine.route();\n        string memory ipfs_hash = vaccine.ipfs_hash();\n        return VaccineDetails(name, schedule, platform, route, ipfs_hash);\n    }\n\n    function getAllVaccinesWithDetails()\n        public\n        view\n        returns (VaccineDetails[] memory)\n    {\n        VaccineDetails[] memory vDetails = new VaccineDetails[](\n            vaccines.length\n        );\n        for (uint256 i = 0; i < vaccines.length; i++) {\n            vDetails[i] = getVaccineDetails(address(vaccines[i]));\n        }\n        return vDetails;\n    }\n\n    function getSpecifiedVaccinesDetails(address[] memory vaccineAddress)\n        public\n        view\n        returns (VaccineDetails[] memory)\n    {\n        VaccineDetails[] memory vDetails = new VaccineDetails[](\n            vaccineAddress.length\n        );\n        for (uint256 i = 0; i < vaccineAddress.length; i++) {\n            vDetails[i] = getVaccineDetails(vaccineAddress[i]);\n        }\n        return vDetails;\n    }\n}\n",
  "sourcePath": "/home/prajwolrg/School/Vaccination/vaccine-solidity/contracts/Vaccine.sol",
  "compiler": {
    "name": "solc",
    "version": "0.8.5+commit.a4f2e591.Emscripten.clang"
  },
  "schemaVersion": "3.4.4",
  "updatedAt": "2022-04-15T10:50:27.703Z",
  "networkType": "ethereum",
  "devdoc": {
    "kind": "dev",
    "methods": {},
    "version": 1
  },
  "userdoc": {
    "kind": "user",
    "methods": {},
    "version": 1
  }
}