{
  "contractName": "Vaccine",
  "abi": [
    {
      "inputs": [
        {
          "internalType": "string",
          "name": "_name",
          "type": "string"
        },
        {
          "internalType": "uint256[]",
          "name": "_schedule",
          "type": "uint256[]"
        },
        {
          "internalType": "string",
          "name": "_platform",
          "type": "string"
        },
        {
          "internalType": "string",
          "name": "_route",
          "type": "string"
        },
        {
          "internalType": "string",
          "name": "_ipfs_hash",
          "type": "string"
        }
      ],
      "stateMutability": "nonpayable",
      "type": "constructor"
    },
    {
      "anonymous": false,
      "inputs": [
        {
          "indexed": true,
          "internalType": "address",
          "name": "from",
          "type": "address"
        },
        {
          "indexed": true,
          "internalType": "address",
          "name": "to",
          "type": "address"
        },
        {
          "indexed": true,
          "internalType": "string",
          "name": "batchId",
          "type": "string"
        },
        {
          "indexed": false,
          "internalType": "uint256",
          "name": "units",
          "type": "uint256"
        }
      ],
      "name": "Approval",
      "type": "event"
    },
    {
      "anonymous": false,
      "inputs": [
        {
          "indexed": true,
          "internalType": "string",
          "name": "batch_name",
          "type": "string"
        }
      ],
      "name": "NewBatch",
      "type": "event"
    },
    {
      "anonymous": false,
      "inputs": [
        {
          "indexed": true,
          "internalType": "address",
          "name": "from",
          "type": "address"
        },
        {
          "indexed": true,
          "internalType": "address",
          "name": "to",
          "type": "address"
        },
        {
          "indexed": true,
          "internalType": "uint256",
          "name": "batchId",
          "type": "uint256"
        },
        {
          "indexed": false,
          "internalType": "uint256",
          "name": "units",
          "type": "uint256"
        }
      ],
      "name": "Transfer",
      "type": "event"
    },
    {
      "anonymous": false,
      "inputs": [
        {
          "indexed": true,
          "internalType": "address",
          "name": "to",
          "type": "address"
        },
        {
          "indexed": true,
          "internalType": "string",
          "name": "batchId",
          "type": "string"
        }
      ],
      "name": "Vaccined",
      "type": "event"
    },
    {
      "inputs": [
        {
          "internalType": "string",
          "name": "",
          "type": "string"
        }
      ],
      "name": "batchDetails",
      "outputs": [
        {
          "internalType": "uint256",
          "name": "defrost_date",
          "type": "uint256"
        },
        {
          "internalType": "uint256",
          "name": "manufacture_expiry",
          "type": "uint256"
        },
        {
          "internalType": "uint256",
          "name": "use_by_date",
          "type": "uint256"
        },
        {
          "internalType": "uint256",
          "name": "units",
          "type": "uint256"
        },
        {
          "internalType": "string",
          "name": "ipfs_hash",
          "type": "string"
        }
      ],
      "stateMutability": "view",
      "type": "function",
      "constant": true
    },
    {
      "inputs": [
        {
          "internalType": "string",
          "name": "",
          "type": "string"
        }
      ],
      "name": "batchIdToSupply",
      "outputs": [
        {
          "internalType": "uint256",
          "name": "",
          "type": "uint256"
        }
      ],
      "stateMutability": "view",
      "type": "function",
      "constant": true
    },
    {
      "inputs": [
        {
          "internalType": "address",
          "name": "",
          "type": "address"
        },
        {
          "internalType": "string",
          "name": "",
          "type": "string"
        }
      ],
      "name": "ownerToBatchToBalance",
      "outputs": [
        {
          "internalType": "uint256",
          "name": "",
          "type": "uint256"
        }
      ],
      "stateMutability": "view",
      "type": "function",
      "constant": true
    },
    {
      "inputs": [],
      "name": "superAdmin",
      "outputs": [
        {
          "internalType": "address",
          "name": "",
          "type": "address"
        }
      ],
      "stateMutability": "view",
      "type": "function",
      "constant": true
    },
    {
      "inputs": [],
      "name": "vaccineCount",
      "outputs": [
        {
          "internalType": "uint256",
          "name": "",
          "type": "uint256"
        }
      ],
      "stateMutability": "view",
      "type": "function",
      "constant": true
    },
    {
      "inputs": [],
      "name": "name",
      "outputs": [
        {
          "internalType": "string",
          "name": "",
          "type": "string"
        }
      ],
      "stateMutability": "view",
      "type": "function",
      "constant": true
    },
    {
      "inputs": [],
      "name": "schedule",
      "outputs": [
        {
          "internalType": "uint256[]",
          "name": "",
          "type": "uint256[]"
        }
      ],
      "stateMutability": "view",
      "type": "function",
      "constant": true
    },
    {
      "inputs": [],
      "name": "platform",
      "outputs": [
        {
          "internalType": "string",
          "name": "",
          "type": "string"
        }
      ],
      "stateMutability": "view",
      "type": "function",
      "constant": true
    },
    {
      "inputs": [],
      "name": "developers",
      "outputs": [
        {
          "internalType": "string",
          "name": "",
          "type": "string"
        }
      ],
      "stateMutability": "view",
      "type": "function",
      "constant": true
    },
    {
      "inputs": [],
      "name": "route",
      "outputs": [
        {
          "internalType": "string",
          "name": "",
          "type": "string"
        }
      ],
      "stateMutability": "view",
      "type": "function",
      "constant": true
    },
    {
      "inputs": [],
      "name": "ipfs_hash",
      "outputs": [
        {
          "internalType": "string",
          "name": "",
          "type": "string"
        }
      ],
      "stateMutability": "view",
      "type": "function",
      "constant": true
    },
    {
      "inputs": [],
      "name": "totalSupply",
      "outputs": [
        {
          "internalType": "uint256",
          "name": "",
          "type": "uint256"
        }
      ],
      "stateMutability": "view",
      "type": "function",
      "constant": true
    },
    {
      "inputs": [
        {
          "internalType": "string",
          "name": "batchId",
          "type": "string"
        }
      ],
      "name": "individualSupply",
      "outputs": [
        {
          "internalType": "uint256",
          "name": "",
          "type": "uint256"
        }
      ],
      "stateMutability": "view",
      "type": "function",
      "constant": true
    },
    {
      "inputs": [
        {
          "internalType": "address",
          "name": "owner",
          "type": "address"
        },
        {
          "internalType": "string",
          "name": "batchId",
          "type": "string"
        }
      ],
      "name": "balanceOf",
      "outputs": [
        {
          "internalType": "uint256",
          "name": "",
          "type": "uint256"
        }
      ],
      "stateMutability": "view",
      "type": "function",
      "constant": true
    },
    {
      "inputs": [
        {
          "internalType": "address",
          "name": "owner",
          "type": "address"
        }
      ],
      "name": "batchesOwned",
      "outputs": [
        {
          "components": [
            {
              "internalType": "string",
              "name": "batchId",
              "type": "string"
            },
            {
              "internalType": "uint256",
              "name": "units",
              "type": "uint256"
            }
          ],
          "internalType": "struct Vaccine.OwnerBatch[]",
          "name": "",
          "type": "tuple[]"
        }
      ],
      "stateMutability": "view",
      "type": "function",
      "constant": true
    },
    {
      "inputs": [
        {
          "internalType": "address",
          "name": "to",
          "type": "address"
        },
        {
          "internalType": "string",
          "name": "batchId",
          "type": "string"
        },
        {
          "internalType": "uint256",
          "name": "quantity",
          "type": "uint256"
        }
      ],
      "name": "transfer",
      "outputs": [],
      "stateMutability": "nonpayable",
      "type": "function"
    },
    {
      "inputs": [
        {
          "internalType": "address",
          "name": "to",
          "type": "address"
        },
        {
          "internalType": "string",
          "name": "batchId",
          "type": "string"
        },
        {
          "internalType": "uint256",
          "name": "quantity",
          "type": "uint256"
        }
      ],
      "name": "approve",
      "outputs": [],
      "stateMutability": "nonpayable",
      "type": "function"
    },
    {
      "inputs": [
        {
          "internalType": "address",
          "name": "to",
          "type": "address"
        }
      ],
      "name": "approveAll",
      "outputs": [],
      "stateMutability": "nonpayable",
      "type": "function"
    },
    {
      "inputs": [
        {
          "internalType": "address",
          "name": "to",
          "type": "address"
        },
        {
          "internalType": "string",
          "name": "batchId",
          "type": "string"
        }
      ],
      "name": "vaccinate",
      "outputs": [],
      "stateMutability": "nonpayable",
      "type": "function"
    },
    {
      "inputs": [
        {
          "internalType": "address",
          "name": "from",
          "type": "address"
        },
        {
          "internalType": "address",
          "name": "to",
          "type": "address"
        },
        {
          "internalType": "string",
          "name": "batchId",
          "type": "string"
        }
      ],
      "name": "transferFrom",
      "outputs": [],
      "stateMutability": "nonpayable",
      "type": "function"
    },
    {
      "inputs": [
        {
          "internalType": "string",
          "name": "batchId",
          "type": "string"
        },
        {
          "internalType": "uint256",
          "name": "defrost_date",
          "type": "uint256"
        },
        {
          "internalType": "uint256",
          "name": "manufacture_expiry",
          "type": "uint256"
        },
        {
          "internalType": "uint256",
          "name": "use_by_date",
          "type": "uint256"
        },
        {
          "internalType": "uint256",
          "name": "units",
          "type": "uint256"
        }
      ],
      "name": "addBatch",
      "outputs": [],
      "stateMutability": "nonpayable",
      "type": "function"
    },
    {
      "inputs": [],
      "name": "getAllBatches",
      "outputs": [
        {
          "internalType": "string[]",
          "name": "",
          "type": "string[]"
        }
      ],
      "stateMutability": "view",
      "type": "function",
      "constant": true
    }
  ],
  "bytecode": "0x60806040523480156200001157600080fd5b5060405162002fc738038062002fc7833981810160405281019062000037919062000345565b84600090805190602001906200004f92919062000100565b5083600190805190602001906200006892919062000191565b5082600290805190602001906200008192919062000100565b5081600490805190602001906200009a92919062000100565b508060059080519060200190620000b392919062000100565b5032600660006101000a81548173ffffffffffffffffffffffffffffffffffffffff021916908373ffffffffffffffffffffffffffffffffffffffff160217905550505050505062000644565b8280546200010e9062000536565b90600052602060002090601f0160209004810192826200013257600085556200017e565b82601f106200014d57805160ff19168380011785556200017e565b828001600101855582156200017e579182015b828111156200017d57825182559160200191906001019062000160565b5b5090506200018d9190620001e3565b5090565b828054828255906000526020600020908101928215620001d0579160200282015b82811115620001cf578251825591602001919060010190620001b2565b5b509050620001df9190620001e3565b5090565b5b80821115620001fe576000816000905550600101620001e4565b5090565b600062000219620002138462000491565b62000468565b905080838252602082019050828560208602820111156200023f576200023e62000605565b5b60005b858110156200027357816200025888826200032e565b84526020840193506020830192505060018101905062000242565b5050509392505050565b6000620002946200028e84620004c0565b62000468565b905082815260208101848484011115620002b357620002b26200060a565b5b620002c084828562000500565b509392505050565b600082601f830112620002e057620002df62000600565b5b8151620002f284826020860162000202565b91505092915050565b600082601f83011262000313576200031262000600565b5b8151620003258482602086016200027d565b91505092915050565b6000815190506200033f816200062a565b92915050565b600080600080600060a0868803121562000364576200036362000614565b5b600086015167ffffffffffffffff8111156200038557620003846200060f565b5b6200039388828901620002fb565b955050602086015167ffffffffffffffff811115620003b757620003b66200060f565b5b620003c588828901620002c8565b945050604086015167ffffffffffffffff811115620003e957620003e86200060f565b5b620003f788828901620002fb565b935050606086015167ffffffffffffffff8111156200041b576200041a6200060f565b5b6200042988828901620002fb565b925050608086015167ffffffffffffffff8111156200044d576200044c6200060f565b5b6200045b88828901620002fb565b9150509295509295909350565b60006200047462000487565b90506200048282826200056c565b919050565b6000604051905090565b600067ffffffffffffffff821115620004af57620004ae620005d1565b5b602082029050602081019050919050565b600067ffffffffffffffff821115620004de57620004dd620005d1565b5b620004e98262000619565b9050602081019050919050565b6000819050919050565b60005b838110156200052057808201518184015260208101905062000503565b8381111562000530576000848401525b50505050565b600060028204905060018216806200054f57607f821691505b60208210811415620005665762000565620005a2565b5b50919050565b620005778262000619565b810181811067ffffffffffffffff82111715620005995762000598620005d1565b5b80604052505050565b7f4e487b7100000000000000000000000000000000000000000000000000000000600052602260045260246000fd5b7f4e487b7100000000000000000000000000000000000000000000000000000000600052604160045260246000fd5b600080fd5b600080fd5b600080fd5b600080fd5b600080fd5b6000601f19601f8301169050919050565b6200063581620004f6565b81146200064157600080fd5b50565b61297380620006546000396000f3fe608060405234801561001057600080fd5b50600436106101425760003560e01c8063b0604a26116100b8578063c8020e0f1161007c578063c8020e0f14610391578063cf0c3cca146103ad578063d96661ef146103c9578063dcb7b1b7146103e7578063e80e076b14610405578063fff3a01b1461042357610142565b8063b0604a26146102b3578063b4663894146102d1578063b74500e014610301578063b9b092c814610331578063c4173e481461036157610142565b80633456d5661161010a5780633456d566146101db5780633ebfc9341461020b57806340cf07fa146102275780634bde38c81461025b5780636103986214610279578063809051db1461029557610142565b80630621472c1461014757806306fdde031461016357806318160ddd1461018157806329575f6a1461019f5780632bc31ca4146101bd575b600080fd5b610161600480360381019061015c9190611bb7565b61043f565b005b61016b6104d7565b6040516101789190612293565b60405180910390f35b610189610569565b6040516101969190612375565b60405180910390f35b6101a7610573565b6040516101b49190612212565b60405180910390f35b6101c5610599565b6040516101d29190612293565b60405180910390f35b6101f560048036038101906101f09190611bb7565b61062b565b604051610202919061224f565b60405180910390f35b61022560048036038101906102209190611be4565b610956565b005b610241600480360381019061023c9190611d1e565b610c54565b604051610252959493929190612390565b60405180910390f35b610263610d28565b6040516102709190612293565b60405180910390f35b610293600480360381019061028e9190611c53565b610dba565b005b61029d610f9b565b6040516102aa9190612293565b60405180910390f35b6102bb61102d565b6040516102c89190612271565b60405180910390f35b6102eb60048036038101906102e69190611c53565b611085565b6040516102f89190612375565b60405180910390f35b61031b60048036038101906103169190611d1e565b6110c0565b6040516103289190612375565b60405180910390f35b61034b60048036038101906103469190611c53565b6110ee565b6040516103589190612375565b60405180910390f35b61037b60048036038101906103769190611d1e565b611154565b6040516103889190612375565b60405180910390f35b6103ab60048036038101906103a69190611caf565b61117c565b005b6103c760048036038101906103c29190611d67565b61134a565b005b6103d1611650565b6040516103de9190612293565b60405180910390f35b6103ef6116e2565b6040516103fc9190612375565b60405180910390f35b61040d6116e8565b60405161041a919061222d565b60405180910390f35b61043d60048036038101906104389190611caf565b6117c1565b005b6001600960003373ffffffffffffffffffffffffffffffffffffffff1673ffffffffffffffffffffffffffffffffffffffff16815260200190815260200160002060008373ffffffffffffffffffffffffffffffffffffffff1673ffffffffffffffffffffffffffffffffffffffff16815260200190815260200160002060006101000a81548160ff02191690831515021790555050565b6060600080546104e690612640565b80601f016020809104026020016040519081016040528092919081815260200182805461051290612640565b801561055f5780601f106105345761010080835404028352916020019161055f565b820191906000526020600020905b81548152906001019060200180831161054257829003601f168201915b5050505050905090565b6000600754905090565b600660009054906101000a900473ffffffffffffffffffffffffffffffffffffffff1681565b6060600380546105a890612640565b80601f01602080910402602001604051908101604052809291908181526020018280546105d490612640565b80156106215780601f106105f657610100808354040283529160200191610621565b820191906000526020600020905b81548152906001019060200180831161060457829003601f168201915b5050505050905090565b60606000600e8054905067ffffffffffffffff81111561064e5761064d612779565b5b60405190808252806020026020018201604052801561068157816020015b606081526020019060019003908161066c5790505b5090506000805b600e805490508110156107fd576000600b60008773ffffffffffffffffffffffffffffffffffffffff1673ffffffffffffffffffffffffffffffffffffffff168152602001908152602001600020600e83815481106106ea576106e961274a565b5b9060005260206000200160405161070191906121fb565b908152602001604051809103902054146107ea57600e81815481106107295761072861274a565b5b90600052602060002001805461073e90612640565b80601f016020809104026020016040519081016040528092919081815260200182805461076a90612640565b80156107b75780601f1061078c576101008083540402835291602001916107b7565b820191906000526020600020905b81548152906001019060200180831161079a57829003601f168201915b50505050508383815181106107cf576107ce61274a565b5b60200260200101819052506001826107e79190612538565b91505b80806107f5906126a3565b915050610688565b5060008167ffffffffffffffff81111561081a57610819612779565b5b60405190808252806020026020018201604052801561085357816020015b610840611a30565b8152602001906001900390816108385790505b50905060005b8281101561094a578381815181106108745761087361274a565b5b602002602001015182828151811061088f5761088e61274a565b5b602002602001015160000181905250600b60008773ffffffffffffffffffffffffffffffffffffffff1673ffffffffffffffffffffffffffffffffffffffff1681526020019081526020016000208482815181106108f0576108ef61274a565b5b602002602001015160405161090591906121e4565b9081526020016040518091039020548282815181106109275761092661274a565b5b602002602001015160200181815250508080610942906126a3565b915050610859565b50809350505050919050565b6000600c60008573ffffffffffffffffffffffffffffffffffffffff1673ffffffffffffffffffffffffffffffffffffffff168152602001908152602001600020826040516109a591906121e4565b908152602001604051809103902090506000816001015490508373ffffffffffffffffffffffffffffffffffffffff168260000160009054906101000a900473ffffffffffffffffffffffffffffffffffffffff1673ffffffffffffffffffffffffffffffffffffffff16148015610a785750600b60008673ffffffffffffffffffffffffffffffffffffffff1673ffffffffffffffffffffffffffffffffffffffff16815260200190815260200160002083604051610a6591906121e4565b9081526020016040518091039020548110155b610a8157600080fd5b80600b60008773ffffffffffffffffffffffffffffffffffffffff1673ffffffffffffffffffffffffffffffffffffffff16815260200190815260200160002084604051610acf91906121e4565b90815260200160405180910390206000828254610aec919061258e565b9250508190555080600b60008673ffffffffffffffffffffffffffffffffffffffff1673ffffffffffffffffffffffffffffffffffffffff16815260200190815260200160002084604051610b4191906121e4565b90815260200160405180910390206000828254610b5e9190612538565b92505081905550610b6d611a4a565b6040518060400160405280600073ffffffffffffffffffffffffffffffffffffffff1681526020016000815250905080600c60008873ffffffffffffffffffffffffffffffffffffffff1673ffffffffffffffffffffffffffffffffffffffff16815260200190815260200160002085604051610bea91906121e4565b908152602001604051809103902060008201518160000160006101000a81548173ffffffffffffffffffffffffffffffffffffffff021916908373ffffffffffffffffffffffffffffffffffffffff16021790555060208201518160010155905050505050505050565b600d81805160208101820180518482526020830160208501208183528095505050505050600091509050806000015490806001015490806002015490806003015490806004018054610ca590612640565b80601f0160208091040260200160405190810160405280929190818152602001828054610cd190612640565b8015610d1e5780601f10610cf357610100808354040283529160200191610d1e565b820191906000526020600020905b815481529060010190602001808311610d0157829003601f168201915b5050505050905085565b606060028054610d3790612640565b80601f0160208091040260200160405190810160405280929190818152602001828054610d6390612640565b8015610db05780601f10610d8557610100808354040283529160200191610db0565b820191906000526020600020905b815481529060010190602001808311610d9357829003601f168201915b5050505050905090565b6000600b60003373ffffffffffffffffffffffffffffffffffffffff1673ffffffffffffffffffffffffffffffffffffffff16815260200190815260200160002082604051610e0991906121e4565b90815260200160405180910390205411610e58576040517f08c379a0000000000000000000000000000000000000000000000000000000008152600401610e4f906122b5565b60405180910390fd5b6001600b60003373ffffffffffffffffffffffffffffffffffffffff1673ffffffffffffffffffffffffffffffffffffffff16815260200190815260200160002082604051610ea791906121e4565b90815260200160405180910390206000828254610ec4919061258e565b925050819055506001600b60008473ffffffffffffffffffffffffffffffffffffffff1673ffffffffffffffffffffffffffffffffffffffff16815260200190815260200160002082604051610f1a91906121e4565b90815260200160405180910390206000828254610f379190612538565b9250508190555080604051610f4c91906121e4565b60405180910390208273ffffffffffffffffffffffffffffffffffffffff167fef2efa73144c5f8cd3684c5c620e24325aa03b459096efd2f498f8386839041960405160405180910390a35050565b606060058054610faa90612640565b80601f0160208091040260200160405190810160405280929190818152602001828054610fd690612640565b80156110235780601f10610ff857610100808354040283529160200191611023565b820191906000526020600020905b81548152906001019060200180831161100657829003601f168201915b5050505050905090565b6060600180548060200260200160405190810160405280929190818152602001828054801561107b57602002820191906000526020600020905b815481526020019060010190808311611067575b5050505050905090565b600b60205281600052604060002081805160208101820180518482526020830160208501208183528095505050505050600091509150505481565b600a818051602081018201805184825260208301602085012081835280955050505050506000915090505481565b6000600b60008473ffffffffffffffffffffffffffffffffffffffff1673ffffffffffffffffffffffffffffffffffffffff1681526020019081526020016000208260405161113d91906121e4565b908152602001604051809103902054905092915050565b6000600a8260405161116691906121e4565b9081526020016040518091039020549050919050565b80600b60003373ffffffffffffffffffffffffffffffffffffffff1673ffffffffffffffffffffffffffffffffffffffff168152602001908152602001600020836040516111ca91906121e4565b90815260200160405180910390205410156111e457600080fd5b6111ec611a4a565b60405180604001604052808573ffffffffffffffffffffffffffffffffffffffff16815260200183815250905080600c60003373ffffffffffffffffffffffffffffffffffffffff1673ffffffffffffffffffffffffffffffffffffffff1681526020019081526020016000208460405161126791906121e4565b908152602001604051809103902060008201518160000160006101000a81548173ffffffffffffffffffffffffffffffffffffffff021916908373ffffffffffffffffffffffffffffffffffffffff16021790555060208201518160010155905050826040516112d791906121e4565b60405180910390208473ffffffffffffffffffffffffffffffffffffffff163373ffffffffffffffffffffffffffffffffffffffff167f17047a419515d22fa233d47027a0ec1677b03dea0fc0a1832cb6a47b938590518560405161133c9190612375565b60405180910390a450505050565b600660009054906101000a900473ffffffffffffffffffffffffffffffffffffffff1673ffffffffffffffffffffffffffffffffffffffff163373ffffffffffffffffffffffffffffffffffffffff16146113da576040517f08c379a00000000000000000000000000000000000000000000000000000000081526004016113d190612315565b60405180910390fd5b42841061141c576040517f08c379a0000000000000000000000000000000000000000000000000000000008152600401611413906122f5565b60405180910390fd5b42831161145e576040517f08c379a000000000000000000000000000000000000000000000000000000000815260040161145590612335565b60405180910390fd5b4282116114a0576040517f08c379a000000000000000000000000000000000000000000000000000000000815260040161149790612355565b60405180910390fd5b83600d866040516114b191906121e4565b90815260200160405180910390206000018190555082600d866040516114d791906121e4565b90815260200160405180910390206001018190555081600d866040516114fd91906121e4565b90815260200160405180910390206002018190555080600d8660405161152391906121e4565b90815260200160405180910390206003018190555080600b60003373ffffffffffffffffffffffffffffffffffffffff1673ffffffffffffffffffffffffffffffffffffffff1681526020019081526020016000208660405161158691906121e4565b90815260200160405180910390208190555080600760008282546115aa9190612538565b925050819055506001600860008282546115c49190612538565b92505081905550600e85908060018154018082558091505060019003906000526020600020016000909190919091509080519060200190611606929190611a7a565b508460405161161591906121e4565b60405180910390207ff83fcb896ea7199c4d58a8a4ab92545a6dcb43b6d1026c5e8213b8f905b102d160405160405180910390a25050505050565b60606004805461165f90612640565b80601f016020809104026020016040519081016040528092919081815260200182805461168b90612640565b80156116d85780601f106116ad576101008083540402835291602001916116d8565b820191906000526020600020905b8154815290600101906020018083116116bb57829003601f168201915b5050505050905090565b60075481565b6060600e805480602002602001604051908101604052809291908181526020016000905b828210156117b857838290600052602060002001805461172b90612640565b80601f016020809104026020016040519081016040528092919081815260200182805461175790612640565b80156117a45780601f10611779576101008083540402835291602001916117a4565b820191906000526020600020905b81548152906001019060200180831161178757829003601f168201915b50505050508152602001906001019061170c565b50505050905090565b80600b60003373ffffffffffffffffffffffffffffffffffffffff1673ffffffffffffffffffffffffffffffffffffffff1681526020019081526020016000208360405161180f91906121e4565b908152602001604051809103902054101561185f576040517f08c379a0000000000000000000000000000000000000000000000000000000008152600401611856906122d5565b60405180910390fd5b80600b60003373ffffffffffffffffffffffffffffffffffffffff1673ffffffffffffffffffffffffffffffffffffffff168152602001908152602001600020836040516118ad91906121e4565b908152602001604051809103902060008282546118ca919061258e565b9250508190555080600b60008573ffffffffffffffffffffffffffffffffffffffff1673ffffffffffffffffffffffffffffffffffffffff1681526020019081526020016000208360405161191f91906121e4565b9081526020016040518091039020600082825461193c9190612538565b9250508190555061194b611a4a565b6040518060400160405280600073ffffffffffffffffffffffffffffffffffffffff1681526020016000815250905080600c60003373ffffffffffffffffffffffffffffffffffffffff1673ffffffffffffffffffffffffffffffffffffffff168152602001908152602001600020846040516119c891906121e4565b908152602001604051809103902060008201518160000160006101000a81548173ffffffffffffffffffffffffffffffffffffffff021916908373ffffffffffffffffffffffffffffffffffffffff1602179055506020820151816001015590505050505050565b604051806040016040528060608152602001600081525090565b6040518060400160405280600073ffffffffffffffffffffffffffffffffffffffff168152602001600081525090565b828054611a8690612640565b90600052602060002090601f016020900481019282611aa85760008555611aef565b82601f10611ac157805160ff1916838001178555611aef565b82800160010185558215611aef579182015b82811115611aee578251825591602001919060010190611ad3565b5b509050611afc9190611b00565b5090565b5b80821115611b19576000816000905550600101611b01565b5090565b6000611b30611b2b8461240f565b6123ea565b905082815260208101848484011115611b4c57611b4b6127ad565b5b611b578482856125fe565b509392505050565b600081359050611b6e8161290f565b92915050565b600082601f830112611b8957611b886127a8565b5b8135611b99848260208601611b1d565b91505092915050565b600081359050611bb181612926565b92915050565b600060208284031215611bcd57611bcc6127b7565b5b6000611bdb84828501611b5f565b91505092915050565b600080600060608486031215611bfd57611bfc6127b7565b5b6000611c0b86828701611b5f565b9350506020611c1c86828701611b5f565b925050604084013567ffffffffffffffff811115611c3d57611c3c6127b2565b5b611c4986828701611b74565b9150509250925092565b60008060408385031215611c6a57611c696127b7565b5b6000611c7885828601611b5f565b925050602083013567ffffffffffffffff811115611c9957611c986127b2565b5b611ca585828601611b74565b9150509250929050565b600080600060608486031215611cc857611cc76127b7565b5b6000611cd686828701611b5f565b935050602084013567ffffffffffffffff811115611cf757611cf66127b2565b5b611d0386828701611b74565b9250506040611d1486828701611ba2565b9150509250925092565b600060208284031215611d3457611d336127b7565b5b600082013567ffffffffffffffff811115611d5257611d516127b2565b5b611d5e84828501611b74565b91505092915050565b600080600080600060a08688031215611d8357611d826127b7565b5b600086013567ffffffffffffffff811115611da157611da06127b2565b5b611dad88828901611b74565b9550506020611dbe88828901611ba2565b9450506040611dcf88828901611ba2565b9350506060611de088828901611ba2565b9250506080611df188828901611ba2565b9150509295509295909350565b6000611e0a8383611f95565b905092915050565b6000611e1e8383612189565b905092915050565b6000611e3283836121c6565b60208301905092915050565b611e47816125c2565b82525050565b6000611e5882612485565b611e6281856124d8565b935083602082028501611e7485612440565b8060005b85811015611eb05784840389528151611e918582611dfe565b9450611e9c836124b1565b925060208a01995050600181019050611e78565b50829750879550505050505092915050565b6000611ecd82612490565b611ed781856124e9565b935083602082028501611ee985612450565b8060005b85811015611f255784840389528151611f068582611e12565b9450611f11836124be565b925060208a01995050600181019050611eed565b50829750879550505050505092915050565b6000611f428261249b565b611f4c81856124fa565b9350611f5783612460565b8060005b83811015611f88578151611f6f8882611e26565b9750611f7a836124cb565b925050600181019050611f5b565b5085935050505092915050565b6000611fa0826124a6565b611faa818561250b565b9350611fba81856020860161260d565b611fc3816127bc565b840191505092915050565b6000611fd9826124a6565b611fe3818561251c565b9350611ff381856020860161260d565b611ffc816127bc565b840191505092915050565b6000612012826124a6565b61201c818561252d565b935061202c81856020860161260d565b80840191505092915050565b6000815461204581612640565b61204f818661252d565b9450600182166000811461206a576001811461207b576120ae565b60ff198316865281860193506120ae565b61208485612470565b60005b838110156120a657815481890152600182019150602081019050612087565b838801955050505b50505092915050565b60006120c460128361251c565b91506120cf826127cd565b602082019050919050565b60006120e760198361251c565b91506120f2826127f6565b602082019050919050565b600061210a601c8361251c565b91506121158261281f565b602082019050919050565b600061212d60248361251c565b915061213882612848565b604082019050919050565b600061215060078361251c565b915061215b82612897565b602082019050919050565b600061217360228361251c565b915061217e826128c0565b604082019050919050565b600060408301600083015184820360008601526121a68282611f95565b91505060208301516121bb60208601826121c6565b508091505092915050565b6121cf816125f4565b82525050565b6121de816125f4565b82525050565b60006121f08284612007565b915081905092915050565b60006122078284612038565b915081905092915050565b60006020820190506122276000830184611e3e565b92915050565b600060208201905081810360008301526122478184611e4d565b905092915050565b600060208201905081810360008301526122698184611ec2565b905092915050565b6000602082019050818103600083015261228b8184611f37565b905092915050565b600060208201905081810360008301526122ad8184611fce565b905092915050565b600060208201905081810360008301526122ce816120b7565b9050919050565b600060208201905081810360008301526122ee816120da565b9050919050565b6000602082019050818103600083015261230e816120fd565b9050919050565b6000602082019050818103600083015261232e81612120565b9050919050565b6000602082019050818103600083015261234e81612143565b9050919050565b6000602082019050818103600083015261236e81612166565b9050919050565b600060208201905061238a60008301846121d5565b92915050565b600060a0820190506123a560008301886121d5565b6123b260208301876121d5565b6123bf60408301866121d5565b6123cc60608301856121d5565b81810360808301526123de8184611fce565b90509695505050505050565b60006123f4612405565b90506124008282612672565b919050565b6000604051905090565b600067ffffffffffffffff82111561242a57612429612779565b5b612433826127bc565b9050602081019050919050565b6000819050602082019050919050565b6000819050602082019050919050565b6000819050602082019050919050565b60008190508160005260206000209050919050565b600081519050919050565b600081519050919050565b600081519050919050565b600081519050919050565b6000602082019050919050565b6000602082019050919050565b6000602082019050919050565b600082825260208201905092915050565b600082825260208201905092915050565b600082825260208201905092915050565b600082825260208201905092915050565b600082825260208201905092915050565b600081905092915050565b6000612543826125f4565b915061254e836125f4565b9250827fffffffffffffffffffffffffffffffffffffffffffffffffffffffffffffffff03821115612583576125826126ec565b5b828201905092915050565b6000612599826125f4565b91506125a4836125f4565b9250828210156125b7576125b66126ec565b5b828203905092915050565b60006125cd826125d4565b9050919050565b600073ffffffffffffffffffffffffffffffffffffffff82169050919050565b6000819050919050565b82818337600083830152505050565b60005b8381101561262b578082015181840152602081019050612610565b8381111561263a576000848401525b50505050565b6000600282049050600182168061265857607f821691505b6020821081141561266c5761266b61271b565b5b50919050565b61267b826127bc565b810181811067ffffffffffffffff8211171561269a57612699612779565b5b80604052505050565b60006126ae826125f4565b91507fffffffffffffffffffffffffffffffffffffffffffffffffffffffffffffffff8214156126e1576126e06126ec565b5b600182019050919050565b7f4e487b7100000000000000000000000000000000000000000000000000000000600052601160045260246000fd5b7f4e487b7100000000000000000000000000000000000000000000000000000000600052602260045260246000fd5b7f4e487b7100000000000000000000000000000000000000000000000000000000600052603260045260246000fd5b7f4e487b7100000000000000000000000000000000000000000000000000000000600052604160045260246000fd5b600080fd5b600080fd5b600080fd5b600080fd5b6000601f19601f8301169050919050565b7f4e6f7420656e6f7567682076616363696e650000000000000000000000000000600082015250565b7f4f776e657220646f206e6f7420686f6c642076616363696e6500000000000000600082015250565b7f4d7573742062652070726576696f75736c7920646566726f7374656400000000600082015250565b7f4f6e6c792061646d696e2063616e20706572666f726d207468652066756e637460008201527f696f6e2e00000000000000000000000000000000000000000000000000000000602082015250565b7f4578706972656400000000000000000000000000000000000000000000000000600082015250565b7f4d7573742062652075736564207072696f7220746f207573652062792064617460008201527f652e000000000000000000000000000000000000000000000000000000000000602082015250565b612918816125c2565b811461292357600080fd5b50565b61292f816125f4565b811461293a57600080fd5b5056fea26469706673582212201e5113ac9fd09c50d77a452f090f3c2117577c8709693a20ff853af8eefb037564736f6c63430008050033",
  "immutableReferences": {},
  "source": "// SPDX-License-Identifier: MIT\npragma solidity >=0.7.5;\npragma experimental ABIEncoderV2;\n\n/**\n * @title SafeMath\n * @dev Math operations with safety checks that throw on error\n */\nlibrary SafeMath {\n    /**\n     * @dev Multiplies two numbers, throws on overflow.\n     */\n    function mul(uint256 a, uint256 b) internal pure returns (uint256 c) {\n        if (a == 0) {\n            return 0;\n        }\n        c = a * b;\n        assert(c / a == b);\n        return c;\n    }\n\n    /**\n     * @dev Integer division of two numbers, truncating the quotient.\n     */\n    function div(uint256 a, uint256 b) internal pure returns (uint256) {\n        // assert(b > 0); // Solidity automatically throws when dividing by 0\n        // uint256 c = a / b;\n        // assert(a == b * c + a % b); // There is no case in which this doesn't hold\n        return a / b;\n    }\n\n    /**\n     * @dev Subtracts two numbers, throws on overflow (i.e. if subtrahend is greater than minuend).\n     */\n    function sub(uint256 a, uint256 b) internal pure returns (uint256) {\n        assert(b <= a);\n        return a - b;\n    }\n\n    /**\n     * @dev Adds two numbers, throws on overflow.\n     */\n    function add(uint256 a, uint256 b) internal pure returns (uint256 c) {\n        c = a + b;\n        assert(c >= a);\n        return c;\n    }\n}\n\ninterface IFVaccine {\n    function name() external view returns (string memory);\n\n    function schedule() external view returns (uint256[] memory);\n\n    function platform() external view returns (string memory);\n\n    function route() external view returns (string memory);\n\n    function developers() external view returns (string memory);\n\n    function ipfs_hash() external view returns (string memory);\n}\n\ncontract Vaccine {\n    using SafeMath for uint256;\n\n    string private name_;\n    uint256[] private schedule_;\n    string private platform_;\n    string private developers_;\n    string private route_;\n    string private ipfs_hash_;\n\n    address public superAdmin;\n\n    struct Batch {\n        uint256 defrost_date;\n        uint256 manufacture_expiry;\n        uint256 use_by_date;\n        uint256 units;\n        string ipfs_hash;\n    }\n\n    uint256 public vaccineCount;\n    uint256 currentBatch;\n    struct Transactor {\n        address actor;\n        uint256 amount;\n    }\n\n    struct OwnerBatch {\n        string batchId;\n        uint256 units;\n    }\n\n    mapping(address => mapping(address => bool)) fullApprovals;\n\n    mapping(string => uint256) public batchIdToSupply;\n    mapping(address => mapping(string => uint256)) public ownerToBatchToBalance;\n    mapping(address => mapping(string => Transactor)) approvals;\n    mapping(string => Batch) public batchDetails;\n\n    string[] batches;\n\n    event Transfer(\n        address indexed from,\n        address indexed to,\n        uint256 indexed batchId,\n        uint256 units\n    );\n    event Approval(\n        address indexed from,\n        address indexed to,\n        string indexed batchId,\n        uint256 units\n    );\n    event NewBatch(string indexed batch_name);\n    event Vaccined(address indexed to, string indexed batchId);\n\n    // Constructor\n    constructor(\n        string memory _name,\n        uint256[] memory _schedule,\n        string memory _platform,\n        string memory _route,\n        string memory _ipfs_hash\n    ) {\n        name_ = _name;\n        schedule_ = _schedule;\n        platform_ = _platform;\n        route_ = _route;\n        ipfs_hash_ = _ipfs_hash;\n        superAdmin = tx.origin;\n    }\n\n    function name() public view returns (string memory) {\n        return name_;\n    }\n\n    function schedule() public view returns(uint256[] memory) {\n      return schedule_;\n    }\n\n    function platform() public view returns (string memory) {\n        return platform_;\n    }\n\n    function developers() public view returns (string memory) {\n        return developers_;\n    }\n\n    function route() public view returns (string memory) {\n        return route_;\n    }\n\n    function ipfs_hash() public view returns (string memory) {\n        return ipfs_hash_;\n    }\n\n    function totalSupply() public view returns (uint256) {\n        return vaccineCount;\n    }\n\n    function individualSupply(string memory batchId)\n        public\n        view\n        returns (uint256)\n    {\n        return batchIdToSupply[batchId];\n    }\n\n    function balanceOf(address owner, string memory batchId)\n        public\n        view\n        returns (uint256)\n    {\n        /* if (ownerToBatchToBalance[owner] == 0) return 0; */\n        return ownerToBatchToBalance[owner][batchId];\n    }\n\n    // class of 0 is meaningless and should be ignored.\n    function batchesOwned(address owner)\n        public\n        view\n        returns (OwnerBatch[] memory)\n    {\n        string[] memory tempBatches = new string[](batches.length);\n        uint256 count = 0;\n        for (uint256 i = 0; i < batches.length; i++) {\n            if (ownerToBatchToBalance[owner][batches[i]] != 0) {\n                tempBatches[count] = batches[i];\n                count += 1;\n            }\n        }\n        OwnerBatch[] memory batches_ = new OwnerBatch[](count);\n        for (uint256 i = 0; i < count; i++) {\n            batches_[i].batchId = tempBatches[i];\n            batches_[i].units = ownerToBatchToBalance[owner][tempBatches[i]];\n        }\n        return batches_;\n    }\n\n    function transfer(\n        address to,\n        string memory batchId,\n        uint256 quantity\n    ) public {\n        require(\n            ownerToBatchToBalance[msg.sender][batchId] >= quantity,\n            \"Owner do not hold vaccine\"\n        );\n        ownerToBatchToBalance[msg.sender][batchId] -= quantity;\n        ownerToBatchToBalance[to][batchId] += quantity;\n        Transactor memory zeroApproval;\n        zeroApproval = Transactor(address(0), 0);\n        approvals[msg.sender][batchId] = zeroApproval;\n    }\n\n    function approve(\n        address to,\n        string memory batchId,\n        uint256 quantity\n    ) public {\n        require(ownerToBatchToBalance[msg.sender][batchId] >= quantity);\n        Transactor memory takerApproval;\n        takerApproval = Transactor(to, quantity);\n        approvals[msg.sender][batchId] = takerApproval;\n        emit Approval(msg.sender, to, batchId, quantity);\n    }\n\n    function approveAll(address to) public {\n        fullApprovals[msg.sender][to] = true;\n    }\n\n    function vaccinate(address to, string memory batchId) public {\n        require(\n            ownerToBatchToBalance[msg.sender][batchId] > 0,\n            \"Not enough vaccine\"\n        );\n        ownerToBatchToBalance[msg.sender][batchId] -= 1;\n        ownerToBatchToBalance[to][batchId] += 1;\n        emit Vaccined(to, batchId);\n    }\n\n    function transferFrom(\n        address from,\n        address to,\n        string memory batchId\n    ) public {\n        Transactor storage takerApproval = approvals[from][batchId];\n        uint256 quantity = takerApproval.amount;\n        require(\n            takerApproval.actor == to &&\n                quantity >= ownerToBatchToBalance[from][batchId]\n        );\n        ownerToBatchToBalance[from][batchId] -= quantity;\n        ownerToBatchToBalance[to][batchId] += quantity;\n        Transactor memory zeroApproval;\n        zeroApproval = Transactor(address(0), 0);\n        approvals[from][batchId] = zeroApproval;\n    }\n\n    function addBatch(\n        string memory batchId,\n        uint256 defrost_date,\n        uint256 manufacture_expiry,\n        uint256 use_by_date,\n        uint256 units\n    ) public onlySuperAdmin {\n        require(defrost_date < block.timestamp, \"Must be previously defrosted\");\n        require(manufacture_expiry > block.timestamp, \"Expired\");\n        require(\n            use_by_date > block.timestamp,\n            \"Must be used prior to use by date.\"\n        );\n\n        batchDetails[batchId].defrost_date = defrost_date;\n        batchDetails[batchId].manufacture_expiry = manufacture_expiry;\n        batchDetails[batchId].use_by_date = use_by_date;\n        batchDetails[batchId].units = units;\n        ownerToBatchToBalance[msg.sender][batchId] = units;\n\n        vaccineCount += units;\n        currentBatch += 1;\n        batches.push(batchId);\n        emit NewBatch(batchId);\n    }\n\n    function getAllBatches() public view returns (string[] memory){\n        return batches;\n    }\n\n    modifier onlySuperAdmin() {\n        require(\n            msg.sender == superAdmin,\n            \"Only admin can perform the function.\"\n        );\n        _;\n    }\n}\n\ncontract VaccineFactory {\n    Vaccine[] public vaccines;\n    struct VaccineDetails {\n        string name;\n        uint256[] schedule;\n        string platform;\n        string route;\n        string ipfs_hash;\n    }\n    mapping(address => uint256) vaccineIndex;\n\n    function createVaccine(\n        string memory name,\n        uint256[] memory schedule,\n        string memory platform,\n        string memory route,\n        string memory ipfs_hash\n    ) public {\n        Vaccine v = new Vaccine(name, schedule, platform, route, ipfs_hash);\n        vaccines.push(v);\n    }\n\n    function getVaccineAddresses() public view returns (Vaccine[] memory) {\n        return vaccines;\n    }\n\n    function getVaccineDetails(address vaccineAddress)\n        public\n        view\n        returns (VaccineDetails memory)\n    {\n        IFVaccine vaccine = IFVaccine(vaccineAddress);\n        string memory name = vaccine.name();\n        uint256[] memory schedule = vaccine.schedule();\n        string memory platform = vaccine.platform();\n        string memory route = vaccine.route();\n        string memory ipfs_hash = vaccine.ipfs_hash();\n        return VaccineDetails(name, schedule, platform, route, ipfs_hash);\n    }\n\n    function getAllVaccinesWithDetails()\n        public\n        view\n        returns (VaccineDetails[] memory)\n    {\n        VaccineDetails[] memory vDetails = new VaccineDetails[](\n            vaccines.length\n        );\n        for (uint256 i = 0; i < vaccines.length; i++) {\n            vDetails[i] = getVaccineDetails(address(vaccines[i]));\n        }\n        return vDetails;\n    }\n\n    function getSpecifiedVaccinesDetails(address[] memory vaccineAddress)\n        public\n        view\n        returns (VaccineDetails[] memory)\n    {\n        VaccineDetails[] memory vDetails = new VaccineDetails[](\n            vaccineAddress.length\n        );\n        for (uint256 i = 0; i < vaccineAddress.length; i++) {\n            vDetails[i] = getVaccineDetails(vaccineAddress[i]);\n        }\n        return vDetails;\n    }\n}\n",
  "sourcePath": "/home/prajwolrg/School/Vaccination/vaccine-solidity/contracts/Vaccine.sol",
  "compiler": {
    "name": "solc",
    "version": "0.8.5+commit.a4f2e591.Emscripten.clang"
  },
  "schemaVersion": "3.4.4",
  "updatedAt": "2022-04-15T10:05:46.122Z",
  "networkType": "ethereum",
  "devdoc": {
    "kind": "dev",
    "methods": {},
    "version": 1
  },
  "userdoc": {
    "kind": "user",
    "methods": {},
    "version": 1
  }
}