{
  "contractName": "VaccineFactory",
  "abi": [
    {
      "inputs": [
        {
          "internalType": "uint256",
          "name": "",
          "type": "uint256"
        }
      ],
      "name": "vaccines",
      "outputs": [
        {
          "internalType": "contract Vaccine",
          "name": "",
          "type": "address"
        }
      ],
      "stateMutability": "view",
      "type": "function",
      "constant": true
    },
    {
      "inputs": [
        {
          "internalType": "string",
          "name": "name",
          "type": "string"
        },
        {
          "internalType": "string",
          "name": "symbol",
          "type": "string"
        }
      ],
      "name": "createOrganization",
      "outputs": [],
      "stateMutability": "nonpayable",
      "type": "function"
    }
  ],
  "bytecode": "0x608060405234801561001057600080fd5b50612f80806100206000396000f3fe60806040523480156200001157600080fd5b50600436106200003a5760003560e01c8063300e88bd146200003f578063a411ef201462000075575b600080fd5b6200005d6004803603810190620000579190620002a4565b62000095565b6040516200006c919062000328565b60405180910390f35b6200009360048036038101906200008d91906200021f565b620000d5565b005b60008181548110620000a657600080fd5b906000526020600020016000915054906101000a900473ffffffffffffffffffffffffffffffffffffffff1681565b60008282604051620000e7906200017c565b620000f492919062000345565b604051809103906000f08015801562000111573d6000803e3d6000fd5b5090506000819080600181540180825580915050600190039060005260206000200160009091909190916101000a81548173ffffffffffffffffffffffffffffffffffffffff021916908373ffffffffffffffffffffffffffffffffffffffff160217905550505050565b612a14806200053783390190565b6000620001a16200019b84620003a9565b62000380565b905082815260208101848484011115620001c057620001bf620004fc565b5b620001cd8482856200044d565b509392505050565b600082601f830112620001ed57620001ec620004f7565b5b8135620001ff8482602086016200018a565b91505092915050565b60008135905062000219816200051c565b92915050565b6000806040838503121562000239576200023862000506565b5b600083013567ffffffffffffffff8111156200025a576200025962000501565b5b6200026885828601620001d5565b925050602083013567ffffffffffffffff8111156200028c576200028b62000501565b5b6200029a85828601620001d5565b9150509250929050565b600060208284031215620002bd57620002bc62000506565b5b6000620002cd8482850162000208565b91505092915050565b620002e18162000425565b82525050565b6000620002f482620003df565b620003008185620003ea565b9350620003128185602086016200045c565b6200031d816200050b565b840191505092915050565b60006020820190506200033f6000830184620002d6565b92915050565b60006040820190508181036000830152620003618185620002e7565b90508181036020830152620003778184620002e7565b90509392505050565b60006200038c6200039f565b90506200039a828262000492565b919050565b6000604051905090565b600067ffffffffffffffff821115620003c757620003c6620004c8565b5b620003d2826200050b565b9050602081019050919050565b600081519050919050565b600082825260208201905092915050565b600073ffffffffffffffffffffffffffffffffffffffff82169050919050565b6000819050919050565b6000620004328262000439565b9050919050565b60006200044682620003fb565b9050919050565b82818337600083830152505050565b60005b838110156200047c5780820151818401526020810190506200045f565b838111156200048c576000848401525b50505050565b6200049d826200050b565b810181811067ffffffffffffffff82111715620004bf57620004be620004c8565b5b80604052505050565b7f4e487b7100000000000000000000000000000000000000000000000000000000600052604160045260246000fd5b600080fd5b600080fd5b600080fd5b600080fd5b6000601f19601f8301169050919050565b62000527816200041b565b81146200053357600080fd5b5056fe60806040523480156200001157600080fd5b5060405162002a1438038062002a148339818101604052810190620000379190620001e0565b81600090805190602001906200004f929190620000b2565b50806001908051906020019062000068929190620000b2565b5033600360006101000a81548173ffffffffffffffffffffffffffffffffffffffff021916908373ffffffffffffffffffffffffffffffffffffffff1602179055505050620003e9565b828054620000c090620002fa565b90600052602060002090601f016020900481019282620000e4576000855562000130565b82601f10620000ff57805160ff191683800117855562000130565b8280016001018555821562000130579182015b828111156200012f57825182559160200191906001019062000112565b5b5090506200013f919062000143565b5090565b5b808211156200015e57600081600090555060010162000144565b5090565b60006200017962000173846200028e565b62000265565b905082815260208101848484011115620001985762000197620003c9565b5b620001a5848285620002c4565b509392505050565b600082601f830112620001c557620001c4620003c4565b5b8151620001d784826020860162000162565b91505092915050565b60008060408385031215620001fa57620001f9620003d3565b5b600083015167ffffffffffffffff8111156200021b576200021a620003ce565b5b6200022985828601620001ad565b925050602083015167ffffffffffffffff8111156200024d576200024c620003ce565b5b6200025b85828601620001ad565b9150509250929050565b60006200027162000284565b90506200027f828262000330565b919050565b6000604051905090565b600067ffffffffffffffff821115620002ac57620002ab62000395565b5b620002b782620003d8565b9050602081019050919050565b60005b83811015620002e4578082015181840152602081019050620002c7565b83811115620002f4576000848401525b50505050565b600060028204905060018216806200031357607f821691505b602082108114156200032a576200032962000366565b5b50919050565b6200033b82620003d8565b810181811067ffffffffffffffff821117156200035d576200035c62000395565b5b80604052505050565b7f4e487b7100000000000000000000000000000000000000000000000000000000600052602260045260246000fd5b7f4e487b7100000000000000000000000000000000000000000000000000000000600052604160045260246000fd5b600080fd5b600080fd5b600080fd5b600080fd5b6000601f19601f8301169050919050565b61261b80620003f96000396000f3fe608060405234801561001057600080fd5b506004361061012c5760003560e01c806395d89b41116100ad578063c4173e4811610071578063c4173e481461034b578063c8020e0f1461037b578063cf0c3cca14610397578063dcb7b1b7146103b3578063fff3a01b146103d15761012c565b806395d89b411461027f578063b46638941461029d578063b4a99a4e146102cd578063b74500e0146102eb578063b9b092c81461031b5761012c565b806340cf07fa116100f457806340cf07fa146101d55780635bffa9911461020957806361039862146102275780636ff120f114610243578063809051db146102615761012c565b80630621472c1461013157806306fdde031461014d57806318160ddd1461016b5780633456d566146101895780633ebfc934146101b9575b600080fd5b61014b60048036038101906101469190611969565b6103ed565b005b610155610485565b6040516101629190611f9a565b60405180910390f35b610173610513565b604051610180919061207c565b60405180910390f35b6101a3600480360381019061019e9190611969565b61051d565b6040516101b09190611f56565b60405180910390f35b6101d360048036038101906101ce9190611996565b610848565b005b6101ef60048036038101906101ea9190611ad0565b610b46565b604051610200959493929190612097565b60405180910390f35b610211610c1a565b60405161021e919061207c565b60405180910390f35b610241600480360381019061023c9190611a05565b610c27565b005b61024b610e08565b6040516102589190611f78565b60405180910390f35b610269610e60565b6040516102769190611f9a565b60405180910390f35b610287610eee565b6040516102949190611f9a565b60405180910390f35b6102b760048036038101906102b29190611a05565b610f7c565b6040516102c4919061207c565b60405180910390f35b6102d5610fb7565b6040516102e29190611f3b565b60405180910390f35b61030560048036038101906103009190611ad0565b610fdd565b604051610312919061207c565b60405180910390f35b61033560048036038101906103309190611a05565b61100b565b604051610342919061207c565b60405180910390f35b61036560048036038101906103609190611ad0565b611071565b604051610372919061207c565b60405180910390f35b61039560048036038101906103909190611a61565b611099565b005b6103b160048036038101906103ac9190611b19565b611267565b005b6103bb61156d565b6040516103c8919061207c565b60405180910390f35b6103eb60048036038101906103e69190611a61565b611573565b005b6001600760003373ffffffffffffffffffffffffffffffffffffffff1673ffffffffffffffffffffffffffffffffffffffff16815260200190815260200160002060008373ffffffffffffffffffffffffffffffffffffffff1673ffffffffffffffffffffffffffffffffffffffff16815260200190815260200160002060006101000a81548160ff02191690831515021790555050565b600080546104929061230e565b80601f01602080910402602001604051908101604052809291908181526020018280546104be9061230e565b801561050b5780601f106104e05761010080835404028352916020019161050b565b820191906000526020600020905b8154815290600101906020018083116104ee57829003601f168201915b505050505081565b6000600554905090565b60606000600c8054905067ffffffffffffffff8111156105405761053f612447565b5b60405190808252806020026020018201604052801561057357816020015b606081526020019060019003908161055e5790505b5090506000805b600c805490508110156106ef576000600960008773ffffffffffffffffffffffffffffffffffffffff1673ffffffffffffffffffffffffffffffffffffffff168152602001908152602001600020600c83815481106105dc576105db612418565b5b906000526020600020016040516105f39190611f24565b908152602001604051809103902054146106dc57600c818154811061061b5761061a612418565b5b9060005260206000200180546106309061230e565b80601f016020809104026020016040519081016040528092919081815260200182805461065c9061230e565b80156106a95780601f1061067e576101008083540402835291602001916106a9565b820191906000526020600020905b81548152906001019060200180831161068c57829003601f168201915b50505050508383815181106106c1576106c0612418565b5b60200260200101819052506001826106d99190612206565b91505b80806106e790612371565b91505061057a565b5060008167ffffffffffffffff81111561070c5761070b612447565b5b60405190808252806020026020018201604052801561074557816020015b6107326117e2565b81526020019060019003908161072a5790505b50905060005b8281101561083c5783818151811061076657610765612418565b5b602002602001015182828151811061078157610780612418565b5b602002602001015160000181905250600960008773ffffffffffffffffffffffffffffffffffffffff1673ffffffffffffffffffffffffffffffffffffffff1681526020019081526020016000208482815181106107e2576107e1612418565b5b60200260200101516040516107f79190611f0d565b90815260200160405180910390205482828151811061081957610818612418565b5b60200260200101516020018181525050808061083490612371565b91505061074b565b50809350505050919050565b6000600a60008573ffffffffffffffffffffffffffffffffffffffff1673ffffffffffffffffffffffffffffffffffffffff168152602001908152602001600020826040516108979190611f0d565b908152602001604051809103902090506000816001015490508373ffffffffffffffffffffffffffffffffffffffff168260000160009054906101000a900473ffffffffffffffffffffffffffffffffffffffff1673ffffffffffffffffffffffffffffffffffffffff1614801561096a5750600960008673ffffffffffffffffffffffffffffffffffffffff1673ffffffffffffffffffffffffffffffffffffffff168152602001908152602001600020836040516109579190611f0d565b9081526020016040518091039020548110155b61097357600080fd5b80600960008773ffffffffffffffffffffffffffffffffffffffff1673ffffffffffffffffffffffffffffffffffffffff168152602001908152602001600020846040516109c19190611f0d565b908152602001604051809103902060008282546109de919061225c565b9250508190555080600960008673ffffffffffffffffffffffffffffffffffffffff1673ffffffffffffffffffffffffffffffffffffffff16815260200190815260200160002084604051610a339190611f0d565b90815260200160405180910390206000828254610a509190612206565b92505081905550610a5f6117fc565b6040518060400160405280600073ffffffffffffffffffffffffffffffffffffffff1681526020016000815250905080600a60008873ffffffffffffffffffffffffffffffffffffffff1673ffffffffffffffffffffffffffffffffffffffff16815260200190815260200160002085604051610adc9190611f0d565b908152602001604051809103902060008201518160000160006101000a81548173ffffffffffffffffffffffffffffffffffffffff021916908373ffffffffffffffffffffffffffffffffffffffff16021790555060208201518160010155905050505050505050565b600b81805160208101820180518482526020830160208501208183528095505050505050600091509050806000015490806001015490806002015490806003015490806004018054610b979061230e565b80601f0160208091040260200160405190810160405280929190818152602001828054610bc39061230e565b8015610c105780601f10610be557610100808354040283529160200191610c10565b820191906000526020600020905b815481529060010190602001808311610bf357829003601f168201915b5050505050905085565b6000600480549050905090565b6000600960003373ffffffffffffffffffffffffffffffffffffffff1673ffffffffffffffffffffffffffffffffffffffff16815260200190815260200160002082604051610c769190611f0d565b90815260200160405180910390205411610cc5576040517f08c379a0000000000000000000000000000000000000000000000000000000008152600401610cbc90611fbc565b60405180910390fd5b6001600960003373ffffffffffffffffffffffffffffffffffffffff1673ffffffffffffffffffffffffffffffffffffffff16815260200190815260200160002082604051610d149190611f0d565b90815260200160405180910390206000828254610d31919061225c565b925050819055506001600960008473ffffffffffffffffffffffffffffffffffffffff1673ffffffffffffffffffffffffffffffffffffffff16815260200190815260200160002082604051610d879190611f0d565b90815260200160405180910390206000828254610da49190612206565b9250508190555080604051610db99190611f0d565b60405180910390208273ffffffffffffffffffffffffffffffffffffffff167fef2efa73144c5f8cd3684c5c620e24325aa03b459096efd2f498f8386839041960405160405180910390a35050565b60606004805480602002602001604051908101604052809291908181526020018280548015610e5657602002820191906000526020600020905b815481526020019060010190808311610e42575b5050505050905090565b60028054610e6d9061230e565b80601f0160208091040260200160405190810160405280929190818152602001828054610e999061230e565b8015610ee65780601f10610ebb57610100808354040283529160200191610ee6565b820191906000526020600020905b815481529060010190602001808311610ec957829003601f168201915b505050505081565b60018054610efb9061230e565b80601f0160208091040260200160405190810160405280929190818152602001828054610f279061230e565b8015610f745780601f10610f4957610100808354040283529160200191610f74565b820191906000526020600020905b815481529060010190602001808311610f5757829003601f168201915b505050505081565b600960205281600052604060002081805160208101820180518482526020830160208501208183528095505050505050600091509150505481565b600360009054906101000a900473ffffffffffffffffffffffffffffffffffffffff1681565b6008818051602081018201805184825260208301602085012081835280955050505050506000915090505481565b6000600960008473ffffffffffffffffffffffffffffffffffffffff1673ffffffffffffffffffffffffffffffffffffffff1681526020019081526020016000208260405161105a9190611f0d565b908152602001604051809103902054905092915050565b60006008826040516110839190611f0d565b9081526020016040518091039020549050919050565b80600960003373ffffffffffffffffffffffffffffffffffffffff1673ffffffffffffffffffffffffffffffffffffffff168152602001908152602001600020836040516110e79190611f0d565b908152602001604051809103902054101561110157600080fd5b6111096117fc565b60405180604001604052808573ffffffffffffffffffffffffffffffffffffffff16815260200183815250905080600a60003373ffffffffffffffffffffffffffffffffffffffff1673ffffffffffffffffffffffffffffffffffffffff168152602001908152602001600020846040516111849190611f0d565b908152602001604051809103902060008201518160000160006101000a81548173ffffffffffffffffffffffffffffffffffffffff021916908373ffffffffffffffffffffffffffffffffffffffff16021790555060208201518160010155905050826040516111f49190611f0d565b60405180910390208473ffffffffffffffffffffffffffffffffffffffff163373ffffffffffffffffffffffffffffffffffffffff167f17047a419515d22fa233d47027a0ec1677b03dea0fc0a1832cb6a47b9385905185604051611259919061207c565b60405180910390a450505050565b600360009054906101000a900473ffffffffffffffffffffffffffffffffffffffff1673ffffffffffffffffffffffffffffffffffffffff163373ffffffffffffffffffffffffffffffffffffffff16146112f7576040517f08c379a00000000000000000000000000000000000000000000000000000000081526004016112ee9061201c565b60405180910390fd5b428410611339576040517f08c379a000000000000000000000000000000000000000000000000000000000815260040161133090611ffc565b60405180910390fd5b42831161137b576040517f08c379a00000000000000000000000000000000000000000000000000000000081526004016113729061203c565b60405180910390fd5b4282116113bd576040517f08c379a00000000000000000000000000000000000000000000000000000000081526004016113b49061205c565b60405180910390fd5b83600b866040516113ce9190611f0d565b90815260200160405180910390206000018190555082600b866040516113f49190611f0d565b90815260200160405180910390206001018190555081600b8660405161141a9190611f0d565b90815260200160405180910390206002018190555080600b866040516114409190611f0d565b90815260200160405180910390206003018190555080600960003373ffffffffffffffffffffffffffffffffffffffff1673ffffffffffffffffffffffffffffffffffffffff168152602001908152602001600020866040516114a39190611f0d565b90815260200160405180910390208190555080600560008282546114c79190612206565b925050819055506001600660008282546114e19190612206565b92505081905550600c8590806001815401808255809150506001900390600052602060002001600090919091909150908051906020019061152392919061182c565b50846040516115329190611f0d565b60405180910390207ff83fcb896ea7199c4d58a8a4ab92545a6dcb43b6d1026c5e8213b8f905b102d160405160405180910390a25050505050565b60055481565b80600960003373ffffffffffffffffffffffffffffffffffffffff1673ffffffffffffffffffffffffffffffffffffffff168152602001908152602001600020836040516115c19190611f0d565b9081526020016040518091039020541015611611576040517f08c379a000000000000000000000000000000000000000000000000000000000815260040161160890611fdc565b60405180910390fd5b80600960003373ffffffffffffffffffffffffffffffffffffffff1673ffffffffffffffffffffffffffffffffffffffff1681526020019081526020016000208360405161165f9190611f0d565b9081526020016040518091039020600082825461167c919061225c565b9250508190555080600960008573ffffffffffffffffffffffffffffffffffffffff1673ffffffffffffffffffffffffffffffffffffffff168152602001908152602001600020836040516116d19190611f0d565b908152602001604051809103902060008282546116ee9190612206565b925050819055506116fd6117fc565b6040518060400160405280600073ffffffffffffffffffffffffffffffffffffffff1681526020016000815250905080600a60003373ffffffffffffffffffffffffffffffffffffffff1673ffffffffffffffffffffffffffffffffffffffff1681526020019081526020016000208460405161177a9190611f0d565b908152602001604051809103902060008201518160000160006101000a81548173ffffffffffffffffffffffffffffffffffffffff021916908373ffffffffffffffffffffffffffffffffffffffff1602179055506020820151816001015590505050505050565b604051806040016040528060608152602001600081525090565b6040518060400160405280600073ffffffffffffffffffffffffffffffffffffffff168152602001600081525090565b8280546118389061230e565b90600052602060002090601f01602090048101928261185a57600085556118a1565b82601f1061187357805160ff19168380011785556118a1565b828001600101855582156118a1579182015b828111156118a0578251825591602001919060010190611885565b5b5090506118ae91906118b2565b5090565b5b808211156118cb5760008160009055506001016118b3565b5090565b60006118e26118dd84612116565b6120f1565b9050828152602081018484840111156118fe576118fd61247b565b5b6119098482856122cc565b509392505050565b600081359050611920816125b7565b92915050565b600082601f83011261193b5761193a612476565b5b813561194b8482602086016118cf565b91505092915050565b600081359050611963816125ce565b92915050565b60006020828403121561197f5761197e612485565b5b600061198d84828501611911565b91505092915050565b6000806000606084860312156119af576119ae612485565b5b60006119bd86828701611911565b93505060206119ce86828701611911565b925050604084013567ffffffffffffffff8111156119ef576119ee612480565b5b6119fb86828701611926565b9150509250925092565b60008060408385031215611a1c57611a1b612485565b5b6000611a2a85828601611911565b925050602083013567ffffffffffffffff811115611a4b57611a4a612480565b5b611a5785828601611926565b9150509250929050565b600080600060608486031215611a7a57611a79612485565b5b6000611a8886828701611911565b935050602084013567ffffffffffffffff811115611aa957611aa8612480565b5b611ab586828701611926565b9250506040611ac686828701611954565b9150509250925092565b600060208284031215611ae657611ae5612485565b5b600082013567ffffffffffffffff811115611b0457611b03612480565b5b611b1084828501611926565b91505092915050565b600080600080600060a08688031215611b3557611b34612485565b5b600086013567ffffffffffffffff811115611b5357611b52612480565b5b611b5f88828901611926565b9550506020611b7088828901611954565b9450506040611b8188828901611954565b9350506060611b9288828901611954565b9250506080611ba388828901611954565b9150509295509295909350565b6000611bbc8383611eb2565b905092915050565b6000611bd08383611eef565b60208301905092915050565b611be581612290565b82525050565b6000611bf68261217c565b611c0081856121b7565b935083602082028501611c1285612147565b8060005b85811015611c4e5784840389528151611c2f8582611bb0565b9450611c3a8361219d565b925060208a01995050600181019050611c16565b50829750879550505050505092915050565b6000611c6b82612187565b611c7581856121c8565b9350611c8083612157565b8060005b83811015611cb1578151611c988882611bc4565b9750611ca3836121aa565b925050600181019050611c84565b5085935050505092915050565b6000611cc982612192565b611cd381856121d9565b9350611ce38185602086016122db565b611cec8161248a565b840191505092915050565b6000611d0282612192565b611d0c81856121ea565b9350611d1c8185602086016122db565b611d258161248a565b840191505092915050565b6000611d3b82612192565b611d4581856121fb565b9350611d558185602086016122db565b80840191505092915050565b60008154611d6e8161230e565b611d7881866121fb565b94506001821660008114611d935760018114611da457611dd7565b60ff19831686528186019350611dd7565b611dad85612167565b60005b83811015611dcf57815481890152600182019150602081019050611db0565b838801955050505b50505092915050565b6000611ded6012836121ea565b9150611df88261249b565b602082019050919050565b6000611e106019836121ea565b9150611e1b826124c4565b602082019050919050565b6000611e33601c836121ea565b9150611e3e826124ed565b602082019050919050565b6000611e566020836121ea565b9150611e6182612516565b602082019050919050565b6000611e796007836121ea565b9150611e848261253f565b602082019050919050565b6000611e9c6022836121ea565b9150611ea782612568565b604082019050919050565b60006040830160008301518482036000860152611ecf8282611cbe565b9150506020830151611ee46020860182611eef565b508091505092915050565b611ef8816122c2565b82525050565b611f07816122c2565b82525050565b6000611f198284611d30565b915081905092915050565b6000611f308284611d61565b915081905092915050565b6000602082019050611f506000830184611bdc565b92915050565b60006020820190508181036000830152611f708184611beb565b905092915050565b60006020820190508181036000830152611f928184611c60565b905092915050565b60006020820190508181036000830152611fb48184611cf7565b905092915050565b60006020820190508181036000830152611fd581611de0565b9050919050565b60006020820190508181036000830152611ff581611e03565b9050919050565b6000602082019050818103600083015261201581611e26565b9050919050565b6000602082019050818103600083015261203581611e49565b9050919050565b6000602082019050818103600083015261205581611e6c565b9050919050565b6000602082019050818103600083015261207581611e8f565b9050919050565b60006020820190506120916000830184611efe565b92915050565b600060a0820190506120ac6000830188611efe565b6120b96020830187611efe565b6120c66040830186611efe565b6120d36060830185611efe565b81810360808301526120e58184611cf7565b90509695505050505050565b60006120fb61210c565b90506121078282612340565b919050565b6000604051905090565b600067ffffffffffffffff82111561213157612130612447565b5b61213a8261248a565b9050602081019050919050565b6000819050602082019050919050565b6000819050602082019050919050565b60008190508160005260206000209050919050565b600081519050919050565b600081519050919050565b600081519050919050565b6000602082019050919050565b6000602082019050919050565b600082825260208201905092915050565b600082825260208201905092915050565b600082825260208201905092915050565b600082825260208201905092915050565b600081905092915050565b6000612211826122c2565b915061221c836122c2565b9250827fffffffffffffffffffffffffffffffffffffffffffffffffffffffffffffffff03821115612251576122506123ba565b5b828201905092915050565b6000612267826122c2565b9150612272836122c2565b925082821015612285576122846123ba565b5b828203905092915050565b600061229b826122a2565b9050919050565b600073ffffffffffffffffffffffffffffffffffffffff82169050919050565b6000819050919050565b82818337600083830152505050565b60005b838110156122f95780820151818401526020810190506122de565b83811115612308576000848401525b50505050565b6000600282049050600182168061232657607f821691505b6020821081141561233a576123396123e9565b5b50919050565b6123498261248a565b810181811067ffffffffffffffff8211171561236857612367612447565b5b80604052505050565b600061237c826122c2565b91507fffffffffffffffffffffffffffffffffffffffffffffffffffffffffffffffff8214156123af576123ae6123ba565b5b600182019050919050565b7f4e487b7100000000000000000000000000000000000000000000000000000000600052601160045260246000fd5b7f4e487b7100000000000000000000000000000000000000000000000000000000600052602260045260246000fd5b7f4e487b7100000000000000000000000000000000000000000000000000000000600052603260045260246000fd5b7f4e487b7100000000000000000000000000000000000000000000000000000000600052604160045260246000fd5b600080fd5b600080fd5b600080fd5b600080fd5b6000601f19601f8301169050919050565b7f4e6f7420656e6f7567682076616363696e650000000000000000000000000000600082015250565b7f4f776e657220646f206e6f7420686f6c642076616363696e6500000000000000600082015250565b7f4d7573742062652070726576696f75736c7920646566726f7374656400000000600082015250565b7f4f6e6c7920506861726d6163792063616e20616464207468652062617463682e600082015250565b7f4578706972656400000000000000000000000000000000000000000000000000600082015250565b7f4d7573742062652075736564207072696f7220746f207573652062792064617460008201527f652e000000000000000000000000000000000000000000000000000000000000602082015250565b6125c081612290565b81146125cb57600080fd5b50565b6125d7816122c2565b81146125e257600080fd5b5056fea26469706673582212209d68f1cca22bb04677d94a731d5b9ecb895d6aca60282e9cf20f629f689bb05864736f6c63430008050033a2646970667358221220f1fc183b8dc0432d43dcdd68b47598792c72d0b18133cd36ccc3a877cbfff2cd64736f6c63430008050033",
  "immutableReferences": {},
  "source": "// SPDX-License-Identifier: MIT\npragma solidity >= 0.7.5;\npragma experimental ABIEncoderV2;\n\n/**\n * @title SafeMath\n * @dev Math operations with safety checks that throw on error\n */\nlibrary SafeMath {\n\n  /**\n  * @dev Multiplies two numbers, throws on overflow.\n  */\n  function mul(uint256 a, uint256 b) internal pure returns (uint256 c) {\n    if (a == 0) {\n      return 0;\n    }\n    c = a * b;\n    assert(c / a == b);\n    return c;\n  }\n\n  /**\n  * @dev Integer division of two numbers, truncating the quotient.\n  */\n  function div(uint256 a, uint256 b) internal pure returns (uint256) {\n    // assert(b > 0); // Solidity automatically throws when dividing by 0\n    // uint256 c = a / b;\n    // assert(a == b * c + a % b); // There is no case in which this doesn't hold\n    return a / b;\n  }\n\n  /**\n  * @dev Subtracts two numbers, throws on overflow (i.e. if subtrahend is greater than minuend).\n  */\n  function sub(uint256 a, uint256 b) internal pure returns (uint256) {\n    assert(b <= a);\n    return a - b;\n  }\n\n  /**\n  * @dev Adds two numbers, throws on overflow.\n  */\n  function add(uint256 a, uint256 b) internal pure returns (uint256 c) {\n    c = a + b;\n    assert(c >= a);\n    return c;\n  }\n}\n\n\ncontract Vaccine {\n  using SafeMath for uint256;\n\n  string public name;\n  string public symbol;\n  string public ipfs_hash;\n\n  address public Owner;\n\n  uint256[] private schedule;\n\n  struct Batch {\n    uint256 defrost_date;\n    uint256 manufacture_expiry;\n    uint256 use_by_date;\n    uint256 units;\n    string ipfs_hash;\n  }\n\n  uint256 public vaccineCount;\n  uint256 currentBatch;\n  struct Transactor {\n    address actor;\n    uint256 amount;\n  }\n\n  struct OwnerBatch {\n    string batchId;\n    uint256 units;\n  }\n\n  mapping (address => mapping(address => bool)) fullApprovals;\n\n  mapping(string => uint256) public batchIdToSupply;\n  mapping(address => mapping(string => uint256)) public ownerToBatchToBalance;\n  mapping(address => mapping(string => Transactor)) approvals;\n  mapping(string => Batch) public batchDetails;\n\n  string[] batches;\n\n  event Transfer(address indexed from, address indexed to, uint256 indexed batchId, uint256 units);\n  event Approval(address indexed from, address indexed to, string indexed batchId, uint256 units);\n  event NewBatch(string indexed batch_name);\n  event Vaccined(address indexed to, string indexed batchId);\n\n  // Constructor\n  constructor(string memory _name, string memory _symbol) {\n    name = _name;\n    symbol = _symbol;\n    Owner = msg.sender;\n  }\n\n  function totalSupply() public view returns (uint256) {\n    return vaccineCount;\n  }\n\n  function individualSupply(string memory batchId) public view returns (uint256) {\n    return batchIdToSupply[batchId];\n  }\n\n  function balanceOf(address owner, string memory batchId) public view returns (uint256) {\n    /* if (ownerToBatchToBalance[owner] == 0) return 0; */\n    return ownerToBatchToBalance[owner][batchId];\n  }\n\n  // class of 0 is meaningless and should be ignored.\n  function batchesOwned(address owner) public view returns (OwnerBatch[] memory){\n    string[] memory tempBatches = new string[](batches.length);\n    uint256 count = 0;\n    for (uint256 i = 0; i < batches.length; i++){\n      if (ownerToBatchToBalance[owner][batches[i]] != 0){\n        tempBatches[count] = batches[i];\n        count += 1;\n      }\n    }\n    OwnerBatch[] memory batches_ = new OwnerBatch[](count);\n    for (uint i = 0; i < count; i++){\n      batches_[i].batchId = tempBatches[i];\n      batches_[i].units = ownerToBatchToBalance[owner][tempBatches[i]];\n    }\n    return batches_;\n  }\n\n  function transfer(address to, string memory batchId, uint256 quantity) public {\n    require(ownerToBatchToBalance[msg.sender][batchId] >= quantity, \"Owner do not hold vaccine\");\n    ownerToBatchToBalance[msg.sender][batchId] -= quantity;\n    ownerToBatchToBalance[to][batchId] += quantity;\n    Transactor memory zeroApproval;\n    zeroApproval = Transactor(address(0), 0);\n    approvals[msg.sender][batchId] = zeroApproval;\n  }\n\n  function approve(address to, string memory batchId, uint256 quantity) public {\n    require(ownerToBatchToBalance[msg.sender][batchId] >= quantity);\n    Transactor memory takerApproval;\n    takerApproval = Transactor(to, quantity);\n    approvals[msg.sender][batchId] = takerApproval;\n    emit Approval(msg.sender, to, batchId, quantity);\n  }\n\n  function approveAll(address to) public {\n    fullApprovals[msg.sender][to] = true;\n  }\n\n  function vaccinate(address to, string memory batchId) public {\n    require(ownerToBatchToBalance[msg.sender][batchId]>0, \"Not enough vaccine\");\n    ownerToBatchToBalance[msg.sender][batchId] -= 1;\n    ownerToBatchToBalance[to][batchId] += 1;\n    emit Vaccined(to, batchId);\n  }\n\n  function transferFrom(address from, address to, string memory batchId) public {\n    Transactor storage takerApproval = approvals[from][batchId];\n    uint256 quantity = takerApproval.amount;\n    require(takerApproval.actor == to && quantity >= ownerToBatchToBalance[from][batchId]);\n    ownerToBatchToBalance[from][batchId] -= quantity;\n    ownerToBatchToBalance[to][batchId] += quantity;\n    Transactor memory zeroApproval;\n    zeroApproval = Transactor(address(0), 0);\n    approvals[from][batchId] = zeroApproval;\n  }\n\n  function addBatch(string memory batchId, uint256 defrost_date, uint256 manufacture_expiry, uint256 use_by_date, uint256 units) public {\n    require(msg.sender == Owner, \"Only Pharmacy can add the batch.\");\n    require(defrost_date < block.timestamp, \"Must be previously defrosted\");\n    require(manufacture_expiry > block.timestamp, \"Expired\");\n    require(\n        use_by_date > block.timestamp,\n        \"Must be used prior to use by date.\"\n    );\n\n    batchDetails[batchId].defrost_date = defrost_date;\n    batchDetails[batchId].manufacture_expiry = manufacture_expiry;\n    batchDetails[batchId].use_by_date = use_by_date;\n    batchDetails[batchId].units = units;\n    ownerToBatchToBalance[msg.sender][batchId] = units;\n\n    vaccineCount += units;\n    currentBatch += 1;\n    batches.push(batchId);\n    emit NewBatch(batchId);\n  }\n\n  function getVaccineSchedule() public view returns(uint256[] memory){\n    return schedule;\n  }\n\n  function getVaccineScheduleLength() public view returns(uint256){\n    return schedule.length;\n  }\n\n}\n\ncontract VaccineFactory{\n    Vaccine[] public vaccines;\n\n    function createOrganization(string memory name, string memory symbol) public {\n        Vaccine v = new Vaccine(name, symbol);\n        vaccines.push(v);\n    }\n}",
  "sourcePath": "/home/prajwolrg/School/Vaccination/vaccine-solidity/contracts/Vaccine.sol",
  "compiler": {
    "name": "solc",
    "version": "0.8.5+commit.a4f2e591.Emscripten.clang"
  },
  "schemaVersion": "3.4.4",
  "updatedAt": "2022-04-14T11:11:32.029Z",
  "networkType": "ethereum",
  "devdoc": {
    "kind": "dev",
    "methods": {},
    "version": 1
  },
  "userdoc": {
    "kind": "user",
    "methods": {},
    "version": 1
  }
}