{
  "contractName": "Vaccination",
  "abi": [
    {
      "inputs": [],
      "stateMutability": "nonpayable",
      "type": "constructor"
    },
    {
      "anonymous": false,
      "inputs": [
        {
          "indexed": true,
          "internalType": "string",
          "name": "vaccine_name",
          "type": "string"
        },
        {
          "indexed": true,
          "internalType": "uint256",
          "name": "batch_no",
          "type": "uint256"
        }
      ],
      "name": "AddBatch",
      "type": "event"
    },
    {
      "anonymous": false,
      "inputs": [
        {
          "indexed": true,
          "internalType": "address",
          "name": "org",
          "type": "address"
        },
        {
          "indexed": true,
          "internalType": "address",
          "name": "hp",
          "type": "address"
        }
      ],
      "name": "ApproveHealthPerson",
      "type": "event"
    },
    {
      "anonymous": false,
      "inputs": [
        {
          "indexed": true,
          "internalType": "string",
          "name": "org_name",
          "type": "string"
        }
      ],
      "name": "ApproveOrganization",
      "type": "event"
    },
    {
      "anonymous": false,
      "inputs": [
        {
          "indexed": true,
          "internalType": "string",
          "name": "vaccine_name",
          "type": "string"
        }
      ],
      "name": "ApproveVaccine",
      "type": "event"
    },
    {
      "anonymous": false,
      "inputs": [
        {
          "indexed": true,
          "internalType": "address",
          "name": "_from",
          "type": "address"
        }
      ],
      "name": "RegisterHealthPerson",
      "type": "event"
    },
    {
      "anonymous": false,
      "inputs": [
        {
          "indexed": true,
          "internalType": "address",
          "name": "_from",
          "type": "address"
        }
      ],
      "name": "RegisterIndividual",
      "type": "event"
    },
    {
      "anonymous": false,
      "inputs": [
        {
          "indexed": true,
          "internalType": "string",
          "name": "org_name",
          "type": "string"
        }
      ],
      "name": "RegisterOrganization",
      "type": "event"
    },
    {
      "anonymous": false,
      "inputs": [
        {
          "indexed": true,
          "internalType": "address",
          "name": "to",
          "type": "address"
        },
        {
          "indexed": true,
          "internalType": "string",
          "name": "vaccine_name",
          "type": "string"
        },
        {
          "indexed": false,
          "internalType": "uint256",
          "name": "batch_no",
          "type": "uint256"
        }
      ],
      "name": "TransferVaccine",
      "type": "event"
    },
    {
      "inputs": [
        {
          "internalType": "string",
          "name": "",
          "type": "string"
        },
        {
          "internalType": "uint256",
          "name": "",
          "type": "uint256"
        }
      ],
      "name": "approvedBatches",
      "outputs": [
        {
          "internalType": "uint256",
          "name": "batch_id",
          "type": "uint256"
        },
        {
          "internalType": "uint256",
          "name": "defrost_date",
          "type": "uint256"
        },
        {
          "internalType": "uint256",
          "name": "manufacture_expiry",
          "type": "uint256"
        },
        {
          "internalType": "uint256",
          "name": "use_by_date",
          "type": "uint256"
        },
        {
          "internalType": "string",
          "name": "ipfs_hash",
          "type": "string"
        }
      ],
      "stateMutability": "view",
      "type": "function",
      "constant": true
    },
    {
      "inputs": [
        {
          "internalType": "string",
          "name": "",
          "type": "string"
        },
        {
          "internalType": "uint256",
          "name": "",
          "type": "uint256"
        },
        {
          "internalType": "address",
          "name": "",
          "type": "address"
        }
      ],
      "name": "approvedOperators",
      "outputs": [
        {
          "internalType": "uint256",
          "name": "",
          "type": "uint256"
        }
      ],
      "stateMutability": "view",
      "type": "function",
      "constant": true
    },
    {
      "inputs": [
        {
          "internalType": "uint256",
          "name": "",
          "type": "uint256"
        }
      ],
      "name": "approvedVaccineNames",
      "outputs": [
        {
          "internalType": "string",
          "name": "",
          "type": "string"
        }
      ],
      "stateMutability": "view",
      "type": "function",
      "constant": true
    },
    {
      "inputs": [
        {
          "internalType": "string",
          "name": "",
          "type": "string"
        }
      ],
      "name": "approvedVaccines",
      "outputs": [
        {
          "internalType": "string",
          "name": "name",
          "type": "string"
        },
        {
          "internalType": "string",
          "name": "ipfs_hash",
          "type": "string"
        },
        {
          "internalType": "bool",
          "name": "approved",
          "type": "bool"
        }
      ],
      "stateMutability": "view",
      "type": "function",
      "constant": true
    },
    {
      "inputs": [],
      "name": "fullyVaccinated",
      "outputs": [
        {
          "internalType": "uint256",
          "name": "",
          "type": "uint256"
        }
      ],
      "stateMutability": "view",
      "type": "function",
      "constant": true
    },
    {
      "inputs": [
        {
          "internalType": "address",
          "name": "",
          "type": "address"
        }
      ],
      "name": "healthPersons",
      "outputs": [
        {
          "internalType": "address",
          "name": "org",
          "type": "address"
        },
        {
          "internalType": "bool",
          "name": "approved",
          "type": "bool"
        }
      ],
      "stateMutability": "view",
      "type": "function",
      "constant": true
    },
    {
      "inputs": [
        {
          "internalType": "address",
          "name": "",
          "type": "address"
        }
      ],
      "name": "organizations",
      "outputs": [
        {
          "internalType": "string",
          "name": "name",
          "type": "string"
        },
        {
          "internalType": "string",
          "name": "location",
          "type": "string"
        },
        {
          "internalType": "string",
          "name": "ipfs_hash",
          "type": "string"
        },
        {
          "internalType": "bool",
          "name": "approved",
          "type": "bool"
        },
        {
          "internalType": "bool",
          "name": "registration",
          "type": "bool"
        },
        {
          "internalType": "uint256",
          "name": "vaccined",
          "type": "uint256"
        }
      ],
      "stateMutability": "view",
      "type": "function",
      "constant": true
    },
    {
      "inputs": [
        {
          "internalType": "uint256",
          "name": "",
          "type": "uint256"
        }
      ],
      "name": "organizationsList",
      "outputs": [
        {
          "internalType": "address",
          "name": "",
          "type": "address"
        }
      ],
      "stateMutability": "view",
      "type": "function",
      "constant": true
    },
    {
      "inputs": [],
      "name": "partiallyVaccinated",
      "outputs": [
        {
          "internalType": "uint256",
          "name": "",
          "type": "uint256"
        }
      ],
      "stateMutability": "view",
      "type": "function",
      "constant": true
    },
    {
      "inputs": [
        {
          "internalType": "address",
          "name": "",
          "type": "address"
        }
      ],
      "name": "roles",
      "outputs": [
        {
          "internalType": "enum Vaccination.Role",
          "name": "",
          "type": "uint8"
        }
      ],
      "stateMutability": "view",
      "type": "function",
      "constant": true
    },
    {
      "inputs": [],
      "name": "superAdmin",
      "outputs": [
        {
          "internalType": "address",
          "name": "",
          "type": "address"
        }
      ],
      "stateMutability": "view",
      "type": "function",
      "constant": true
    },
    {
      "inputs": [
        {
          "internalType": "address",
          "name": "",
          "type": "address"
        }
      ],
      "name": "users",
      "outputs": [
        {
          "internalType": "uint256",
          "name": "year_of_birth",
          "type": "uint256"
        },
        {
          "internalType": "enum Vaccination.Gender",
          "name": "gender",
          "type": "uint8"
        },
        {
          "internalType": "string",
          "name": "namehash",
          "type": "string"
        },
        {
          "internalType": "string",
          "name": "imagehash",
          "type": "string"
        },
        {
          "internalType": "string",
          "name": "vaccine_name",
          "type": "string"
        },
        {
          "internalType": "uint256",
          "name": "vaccine_count",
          "type": "uint256"
        },
        {
          "internalType": "bool",
          "name": "registered",
          "type": "bool"
        }
      ],
      "stateMutability": "view",
      "type": "function",
      "constant": true
    },
    {
      "inputs": [
        {
          "internalType": "string",
          "name": "name",
          "type": "string"
        },
        {
          "internalType": "uint256[]",
          "name": "schedule",
          "type": "uint256[]"
        }
      ],
      "name": "approveVaccine",
      "outputs": [],
      "stateMutability": "nonpayable",
      "type": "function"
    },
    {
      "inputs": [
        {
          "internalType": "string",
          "name": "name",
          "type": "string"
        },
        {
          "internalType": "uint256",
          "name": "batch_id",
          "type": "uint256"
        },
        {
          "internalType": "uint256",
          "name": "defrost_date",
          "type": "uint256"
        },
        {
          "internalType": "uint256",
          "name": "manufacture_expiry",
          "type": "uint256"
        },
        {
          "internalType": "uint256",
          "name": "use_by_date",
          "type": "uint256"
        },
        {
          "internalType": "uint256",
          "name": "units",
          "type": "uint256"
        }
      ],
      "name": "addBatch",
      "outputs": [],
      "stateMutability": "nonpayable",
      "type": "function"
    },
    {
      "inputs": [
        {
          "internalType": "string",
          "name": "name",
          "type": "string"
        },
        {
          "internalType": "string",
          "name": "location",
          "type": "string"
        }
      ],
      "name": "registerOrganization",
      "outputs": [],
      "stateMutability": "payable",
      "type": "function",
      "payable": true
    },
    {
      "inputs": [
        {
          "internalType": "address",
          "name": "org",
          "type": "address"
        }
      ],
      "name": "approveOrganization",
      "outputs": [],
      "stateMutability": "nonpayable",
      "type": "function"
    },
    {
      "inputs": [
        {
          "internalType": "address",
          "name": "to",
          "type": "address"
        },
        {
          "internalType": "string",
          "name": "name",
          "type": "string"
        },
        {
          "internalType": "uint256",
          "name": "batch_id",
          "type": "uint256"
        },
        {
          "internalType": "uint256",
          "name": "units",
          "type": "uint256"
        }
      ],
      "name": "transfer",
      "outputs": [],
      "stateMutability": "nonpayable",
      "type": "function"
    },
    {
      "inputs": [
        {
          "internalType": "uint256",
          "name": "year_of_birth",
          "type": "uint256"
        },
        {
          "internalType": "enum Vaccination.Gender",
          "name": "gender",
          "type": "uint8"
        },
        {
          "internalType": "string",
          "name": "namehash",
          "type": "string"
        },
        {
          "internalType": "string",
          "name": "imagehash",
          "type": "string"
        }
      ],
      "name": "registerIndividual",
      "outputs": [],
      "stateMutability": "nonpayable",
      "type": "function"
    },
    {
      "inputs": [
        {
          "internalType": "address",
          "name": "person",
          "type": "address"
        }
      ],
      "name": "approveHealthPerson",
      "outputs": [],
      "stateMutability": "nonpayable",
      "type": "function"
    },
    {
      "inputs": [
        {
          "internalType": "address",
          "name": "to",
          "type": "address"
        },
        {
          "internalType": "string",
          "name": "name",
          "type": "string"
        },
        {
          "internalType": "uint256",
          "name": "batch_id",
          "type": "uint256"
        }
      ],
      "name": "vaccinate",
      "outputs": [],
      "stateMutability": "nonpayable",
      "type": "function"
    },
    {
      "inputs": [
        {
          "internalType": "string",
          "name": "name",
          "type": "string"
        },
        {
          "internalType": "uint256",
          "name": "batch_id",
          "type": "uint256"
        }
      ],
      "name": "checkBatch",
      "outputs": [],
      "stateMutability": "view",
      "type": "function",
      "constant": true
    },
    {
      "inputs": [
        {
          "internalType": "address",
          "name": "org",
          "type": "address"
        }
      ],
      "name": "checkOrganization",
      "outputs": [],
      "stateMutability": "view",
      "type": "function",
      "constant": true
    },
    {
      "inputs": [
        {
          "internalType": "string",
          "name": "name",
          "type": "string"
        }
      ],
      "name": "checkVaccine",
      "outputs": [],
      "stateMutability": "view",
      "type": "function",
      "constant": true
    },
    {
      "inputs": [
        {
          "internalType": "address",
          "name": "user",
          "type": "address"
        }
      ],
      "name": "getUserVaccineCount",
      "outputs": [
        {
          "internalType": "uint256",
          "name": "",
          "type": "uint256"
        }
      ],
      "stateMutability": "view",
      "type": "function",
      "constant": true
    },
    {
      "inputs": [
        {
          "internalType": "string",
          "name": "name",
          "type": "string"
        }
      ],
      "name": "getRequiredVaccineCount",
      "outputs": [
        {
          "internalType": "uint256",
          "name": "",
          "type": "uint256"
        }
      ],
      "stateMutability": "view",
      "type": "function",
      "constant": true
    },
    {
      "inputs": [],
      "name": "getTotalOrganization",
      "outputs": [
        {
          "internalType": "uint256",
          "name": "",
          "type": "uint256"
        }
      ],
      "stateMutability": "view",
      "type": "function",
      "constant": true
    },
    {
      "inputs": [],
      "name": "getAllOrganizations",
      "outputs": [
        {
          "internalType": "address[]",
          "name": "",
          "type": "address[]"
        }
      ],
      "stateMutability": "view",
      "type": "function",
      "constant": true
    },
    {
      "inputs": [
        {
          "internalType": "address",
          "name": "org",
          "type": "address"
        }
      ],
      "name": "getAllHealthPersons",
      "outputs": [
        {
          "internalType": "address[]",
          "name": "",
          "type": "address[]"
        }
      ],
      "stateMutability": "view",
      "type": "function",
      "constant": true
    },
    {
      "inputs": [
        {
          "internalType": "address",
          "name": "user",
          "type": "address"
        }
      ],
      "name": "getVaccineStatusOf",
      "outputs": [
        {
          "internalType": "enum Vaccination.VaccineStatus",
          "name": "status",
          "type": "uint8"
        }
      ],
      "stateMutability": "view",
      "type": "function",
      "constant": true
    },
    {
      "inputs": [
        {
          "internalType": "address",
          "name": "healthPerson",
          "type": "address"
        }
      ],
      "name": "getHealthPersonOrganization",
      "outputs": [
        {
          "internalType": "address",
          "name": "",
          "type": "address"
        }
      ],
      "stateMutability": "view",
      "type": "function",
      "constant": true
    },
    {
      "inputs": [
        {
          "internalType": "string",
          "name": "name",
          "type": "string"
        },
        {
          "internalType": "uint256",
          "name": "batch_id",
          "type": "uint256"
        },
        {
          "internalType": "address",
          "name": "healthPerson",
          "type": "address"
        }
      ],
      "name": "checkAvailability",
      "outputs": [],
      "stateMutability": "view",
      "type": "function",
      "constant": true
    },
    {
      "inputs": [
        {
          "internalType": "string",
          "name": "name",
          "type": "string"
        },
        {
          "internalType": "uint256",
          "name": "batch",
          "type": "uint256"
        },
        {
          "internalType": "address",
          "name": "org",
          "type": "address"
        }
      ],
      "name": "getAvailableVaccines",
      "outputs": [
        {
          "internalType": "uint256",
          "name": "",
          "type": "uint256"
        }
      ],
      "stateMutability": "view",
      "type": "function",
      "constant": true
    },
    {
      "inputs": [],
      "name": "getApprovedVaccinesLength",
      "outputs": [
        {
          "internalType": "uint256",
          "name": "",
          "type": "uint256"
        }
      ],
      "stateMutability": "view",
      "type": "function",
      "constant": true
    },
    {
      "inputs": [
        {
          "internalType": "string",
          "name": "name",
          "type": "string"
        }
      ],
      "name": "getVaccineApprovalStatus",
      "outputs": [
        {
          "internalType": "bool",
          "name": "",
          "type": "bool"
        }
      ],
      "stateMutability": "view",
      "type": "function",
      "constant": true
    },
    {
      "inputs": [],
      "name": "now",
      "outputs": [
        {
          "internalType": "uint256",
          "name": "",
          "type": "uint256"
        }
      ],
      "stateMutability": "view",
      "type": "function",
      "constant": true
    },
    {
      "inputs": [
        {
          "internalType": "address",
          "name": "user",
          "type": "address"
        }
      ],
      "name": "getRole",
      "outputs": [
        {
          "internalType": "enum Vaccination.Role",
          "name": "",
          "type": "uint8"
        }
      ],
      "stateMutability": "view",
      "type": "function",
      "constant": true
    }
  ],
  "bytecode": "0x60806040523480156200001157600080fd5b5033600860006101000a81548173ffffffffffffffffffffffffffffffffffffffff021916908373ffffffffffffffffffffffffffffffffffffffff16021790555060008060003373ffffffffffffffffffffffffffffffffffffffff1673ffffffffffffffffffffffffffffffffffffffff16815260200190815260200160002060006101000a81548160ff02191690836003811115620000b857620000b7620000c3565b5b0217905550620000f2565b7f4e487b7100000000000000000000000000000000000000000000000000000000600052602160045260246000fd5b614e4c80620001026000396000f3fe60806040526004361061020f5760003560e01c806369ed503f11610118578063ab512808116100a0578063e09eaca51161006f578063e09eaca51461085e578063ea1fc7471461089b578063ecfab034146108c4578063fc1ba160146108ed578063ff6aa4ea146109165761020f565b8063ab5128081461077e578063b168f0f0146107bb578063cd5f31bb146107f8578063cd96c2f8146108215761020f565b806391db02f8116100e757806391db02f81461066d57806399374642146106aa5780639cc52761146106e7578063a62a3d2914610710578063a87430ba1461073b5761020f565b806369ed503f146105b15780636b847d55146105da5780637217fcfd146106175780638abe09f2146106425761020f565b80632eb1ca661161019b5780634cd89fc41161016a5780634cd89fc4146104a05780634d8335d0146104dd5780635a1f7406146105085780635fa932e81461054a578063669ade7e146105735761020f565b80632eb1ca66146103d25780633c419f53146103fd5780633e1609ca1461043a57806344276733146104635761020f565b80631ee584ac116101e25780631ee584ac146102e457806322fce92114610321578063247a50d81461036257806325de97ef1461037e57806329575f6a146103a75761020f565b806307c2f08514610214578063086ed9381461025157806314fa0c8b1461027c5780631bb9488d146102a5575b600080fd5b34801561022057600080fd5b5061023b600480360381019061023691906139ac565b61093f565b6040516102489190614499565b60405180910390f35b34801561025d57600080fd5b50610266610987565b60405161027391906140a9565b60405180910390f35b34801561028857600080fd5b506102a3600480360381019061029e9190613a1b565b610a15565b005b3480156102b157600080fd5b506102cc60048036038101906102c79190613817565b610e43565b6040516102db9392919061413e565b60405180910390f35b3480156102f057600080fd5b5061030b60048036038101906103069190613ac4565b610fa0565b6040516103189190614065565b60405180910390f35b34801561032d57600080fd5b5061034860048036038101906103439190613950565b610fdf565b604051610359959493929190614538565b60405180910390f35b61037c600480360381019061037791906138d8565b6110c0565b005b34801561038a57600080fd5b506103a560048036038101906103a091906136f8565b61131d565b005b3480156103b357600080fd5b506103bc6115ef565b6040516103c99190614065565b60405180910390f35b3480156103de57600080fd5b506103e7611615565b6040516103f49190614499565b60405180910390f35b34801561040957600080fd5b50610424600480360381019061041f9190613ac4565b61161b565b604051610431919061411c565b60405180910390f35b34801561044657600080fd5b50610461600480360381019061045c9190613817565b6116c7565b005b34801561046f57600080fd5b5061048a600480360381019061048591906136f8565b611738565b60405161049791906140e6565b60405180910390f35b3480156104ac57600080fd5b506104c760048036038101906104c291906136f8565b61178d565b6040516104d49190614065565b60405180910390f35b3480156104e957600080fd5b506104f26117f9565b6040516104ff9190614499565b60405180910390f35b34801561051457600080fd5b5061052f600480360381019061052a91906136f8565b611806565b60405161054196959493929190614183565b60405180910390f35b34801561055657600080fd5b50610571600480360381019061056c9190613af1565b6119f4565b005b34801561057f57600080fd5b5061059a600480360381019061059591906136f8565b611cf4565b6040516105a8929190614080565b60405180910390f35b3480156105bd57600080fd5b506105d860048036038101906105d39190613725565b611d45565b005b3480156105e657600080fd5b5061060160048036038101906105fc91906136f8565b612069565b60405161060e9190614499565b60405180910390f35b34801561062357600080fd5b5061062c6120ba565b6040516106399190614499565b60405180910390f35b34801561064e57600080fd5b506106576120c7565b6040516106649190614499565b60405180910390f35b34801561067957600080fd5b50610694600480360381019061068f91906136f8565b6120cf565b6040516106a19190614101565b60405180910390f35b3480156106b657600080fd5b506106d160048036038101906106cc91906136f8565b6121c3565b6040516106de91906140e6565b60405180910390f35b3480156106f357600080fd5b5061070e600480360381019061070991906136f8565b6121e3565b005b34801561071c57600080fd5b506107256123f0565b6040516107329190614499565b60405180910390f35b34801561074757600080fd5b50610762600480360381019061075d91906136f8565b6123f6565b60405161077597969594939291906144b4565b60405180910390f35b34801561078a57600080fd5b506107a560048036038101906107a09190613817565b6125ea565b6040516107b291906140cb565b60405180910390f35b3480156107c757600080fd5b506107e260048036038101906107dd91906136f8565b612622565b6040516107ef91906140a9565b60405180910390f35b34801561080457600080fd5b5061081f600480360381019061081a91906139ac565b6126f2565b005b34801561082d57600080fd5b5061084860048036038101906108439190613817565b612887565b6040516108559190614499565b60405180910390f35b34801561086a57600080fd5b50610885600480360381019061088091906139ac565b6128b5565b6040516108929190614499565b60405180910390f35b3480156108a757600080fd5b506108c260048036038101906108bd9190613950565b61292d565b005b3480156108d057600080fd5b506108eb60048036038101906108e691906136f8565b612b02565b005b3480156108f957600080fd5b50610914600480360381019061090f9190613860565b612c23565b005b34801561092257600080fd5b5061093d60048036038101906109389190613794565b612dda565b005b60038380516020810182018051848252602083016020850120818352809550505050505060205281600052604060002060205280600052604060002060009250925050505481565b60606009805480602002602001604051908101604052809291908181526020018280548015610a0b57602002820191906000526020600020905b8160009054906101000a900473ffffffffffffffffffffffffffffffffffffffff1673ffffffffffffffffffffffffffffffffffffffff16815260200190600101908083116109c1575b5050505050905090565b600860009054906101000a900473ffffffffffffffffffffffffffffffffffffffff1673ffffffffffffffffffffffffffffffffffffffff163373ffffffffffffffffffffffffffffffffffffffff1614610aa5576040517f08c379a0000000000000000000000000000000000000000000000000000000008152600401610a9c90614479565b60405180910390fd5b60008511610ae8576040517f08c379a0000000000000000000000000000000000000000000000000000000008152600401610adf906143f9565b60405180910390fd5b600186604051610af89190614037565b908152602001604051809103902060040160009054906101000a900460ff16610b56576040517f08c379a0000000000000000000000000000000000000000000000000000000008152600401610b4d906142f9565b60405180910390fd5b428410610b98576040517f08c379a0000000000000000000000000000000000000000000000000000000008152600401610b8f90614339565b60405180910390fd5b428311610bda576040517f08c379a0000000000000000000000000000000000000000000000000000000008152600401610bd190614419565b60405180910390fd5b428211610c1c576040517f08c379a0000000000000000000000000000000000000000000000000000000008152600401610c1390614459565b60405180910390fd5b84600287604051610c2d9190614037565b908152602001604051809103902060008781526020019081526020016000206000018190555083600287604051610c649190614037565b908152602001604051809103902060008781526020019081526020016000206001018190555082600287604051610c9b9190614037565b908152602001604051809103902060008781526020019081526020016000206002018190555081600287604051610cd29190614037565b9081526020016040518091039020600087815260200190815260200160002060030181905550600186604051610d089190614037565b908152602001604051809103902060030185908060018154018082558091505060019003906000526020600020016000909190919091505580600387604051610d519190614037565b9081526020016040518091039020600087815260200190815260200160002060003373ffffffffffffffffffffffffffffffffffffffff1673ffffffffffffffffffffffffffffffffffffffff1681526020019081526020016000208190555080600560003373ffffffffffffffffffffffffffffffffffffffff1673ffffffffffffffffffffffffffffffffffffffff168152602001908152602001600020600701819055508486604051610e079190614037565b60405180910390207f2c6cf3aff6e0f7a34f79efaef2eee135f21edfaf419ebf6f1befe4e3a3efde2060405160405180910390a3505050505050565b600181805160208101820180518482526020830160208501208183528095505050505050600091509050806000018054610e7c9061480c565b80601f0160208091040260200160405190810160405280929190818152602001828054610ea89061480c565b8015610ef55780601f10610eca57610100808354040283529160200191610ef5565b820191906000526020600020905b815481529060010190602001808311610ed857829003601f168201915b505050505090806001018054610f0a9061480c565b80601f0160208091040260200160405190810160405280929190818152602001828054610f369061480c565b8015610f835780601f10610f5857610100808354040283529160200191610f83565b820191906000526020600020905b815481529060010190602001808311610f6657829003601f168201915b5050505050908060040160009054906101000a900460ff16905083565b60098181548110610fb057600080fd5b906000526020600020016000915054906101000a900473ffffffffffffffffffffffffffffffffffffffff1681565b6002828051602081018201805184825260208301602085012081835280955050505050506020528060005260406000206000915091505080600001549080600101549080600201549080600301549080600401805461103d9061480c565b80601f01602080910402602001604051908101604052809291908181526020018280546110699061480c565b80156110b65780601f1061108b576101008083540402835291602001916110b6565b820191906000526020600020905b81548152906001019060200180831161109957829003601f168201915b5050505050905085565b600a341015611104576040517f08c379a00000000000000000000000000000000000000000000000000000000081526004016110fb906142b9565b60405180910390fd5b81600660003373ffffffffffffffffffffffffffffffffffffffff1673ffffffffffffffffffffffffffffffffffffffff168152602001908152602001600020600001908051906020019061115a9291906134bb565b5080600660003373ffffffffffffffffffffffffffffffffffffffff1673ffffffffffffffffffffffffffffffffffffffff16815260200190815260200160002060010190805190602001906111b19291906134bb565b506001600660003373ffffffffffffffffffffffffffffffffffffffff1673ffffffffffffffffffffffffffffffffffffffff16815260200190815260200160002060040160016101000a81548160ff0219169083151502179055506009339080600181540180825580915050600190039060005260206000200160009091909190916101000a81548173ffffffffffffffffffffffffffffffffffffffff021916908373ffffffffffffffffffffffffffffffffffffffff16021790555060016000803373ffffffffffffffffffffffffffffffffffffffff1673ffffffffffffffffffffffffffffffffffffffff16815260200190815260200160002060006101000a81548160ff021916908360038111156112d2576112d16148e7565b5b0217905550816040516112e59190614037565b60405180910390207f464970519053c3da4a6516c6af01855284748b1531560ec3b1a4dcc74823688360405160405180910390a25050565b600660003373ffffffffffffffffffffffffffffffffffffffff1673ffffffffffffffffffffffffffffffffffffffff16815260200190815260200160002060040160009054906101000a900460ff166113ac576040517f08c379a00000000000000000000000000000000000000000000000000000000081526004016113a390614399565b60405180910390fd5b33600760008373ffffffffffffffffffffffffffffffffffffffff1673ffffffffffffffffffffffffffffffffffffffff16815260200190815260200160002060000160006101000a81548173ffffffffffffffffffffffffffffffffffffffff021916908373ffffffffffffffffffffffffffffffffffffffff1602179055506001600760008373ffffffffffffffffffffffffffffffffffffffff1673ffffffffffffffffffffffffffffffffffffffff16815260200190815260200160002060000160146101000a81548160ff02191690831515021790555060026000808373ffffffffffffffffffffffffffffffffffffffff1673ffffffffffffffffffffffffffffffffffffffff16815260200190815260200160002060006101000a81548160ff021916908360038111156114ea576114e96148e7565b5b0217905550600660003373ffffffffffffffffffffffffffffffffffffffff1673ffffffffffffffffffffffffffffffffffffffff168152602001908152602001600020600301819080600181540180825580915050600190039060005260206000200160009091909190916101000a81548173ffffffffffffffffffffffffffffffffffffffff021916908373ffffffffffffffffffffffffffffffffffffffff1602179055508073ffffffffffffffffffffffffffffffffffffffff163373ffffffffffffffffffffffffffffffffffffffff167ff614f0736b4b411606df816f155b6c4d2dbfd2e69c2efee4b606481194aa6f5a60405160405180910390a350565b600860009054906101000a900473ffffffffffffffffffffffffffffffffffffffff1681565b600b5481565b6004818154811061162b57600080fd5b9060005260206000200160009150905080546116469061480c565b80601f01602080910402602001604051908101604052809291908181526020018280546116729061480c565b80156116bf5780601f10611694576101008083540402835291602001916116bf565b820191906000526020600020905b8154815290600101906020018083116116a257829003601f168201915b505050505081565b6001816040516116d79190614037565b908152602001604051809103902060040160009054906101000a900460ff16611735576040517f08c379a000000000000000000000000000000000000000000000000000000000815260040161172c90614379565b60405180910390fd5b50565b60008060008373ffffffffffffffffffffffffffffffffffffffff1673ffffffffffffffffffffffffffffffffffffffff16815260200190815260200160002060009054906101000a900460ff169050919050565b6000600760008373ffffffffffffffffffffffffffffffffffffffff1673ffffffffffffffffffffffffffffffffffffffff16815260200190815260200160002060000160009054906101000a900473ffffffffffffffffffffffffffffffffffffffff169050919050565b6000600480549050905090565b60066020528060005260406000206000915090508060000180546118299061480c565b80601f01602080910402602001604051908101604052809291908181526020018280546118559061480c565b80156118a25780601f10611877576101008083540402835291602001916118a2565b820191906000526020600020905b81548152906001019060200180831161188557829003601f168201915b5050505050908060010180546118b79061480c565b80601f01602080910402602001604051908101604052809291908181526020018280546118e39061480c565b80156119305780601f1061190557610100808354040283529160200191611930565b820191906000526020600020905b81548152906001019060200180831161191357829003601f168201915b5050505050908060020180546119459061480c565b80601f01602080910402602001604051908101604052809291908181526020018280546119719061480c565b80156119be5780601f10611993576101008083540402835291602001916119be565b820191906000526020600020905b8154815290600101906020018083116119a157829003601f168201915b5050505050908060040160009054906101000a900460ff16908060040160019054906101000a900460ff16908060050154905086565b60001515600560003373ffffffffffffffffffffffffffffffffffffffff1673ffffffffffffffffffffffffffffffffffffffff16815260200190815260200160002060080160009054906101000a900460ff16151514611a8a576040517f08c379a0000000000000000000000000000000000000000000000000000000008152600401611a8190614239565b60405180910390fd5b83600560003373ffffffffffffffffffffffffffffffffffffffff1673ffffffffffffffffffffffffffffffffffffffff1681526020019081526020016000206000018190555082600560003373ffffffffffffffffffffffffffffffffffffffff1673ffffffffffffffffffffffffffffffffffffffff16815260200190815260200160002060010160006101000a81548160ff02191690836002811115611b3657611b356148e7565b5b021790555081600560003373ffffffffffffffffffffffffffffffffffffffff1673ffffffffffffffffffffffffffffffffffffffff1681526020019081526020016000206002019080519060200190611b919291906134bb565b5080600560003373ffffffffffffffffffffffffffffffffffffffff1673ffffffffffffffffffffffffffffffffffffffff1681526020019081526020016000206003019080519060200190611be89291906134bb565b506001600560003373ffffffffffffffffffffffffffffffffffffffff1673ffffffffffffffffffffffffffffffffffffffff16815260200190815260200160002060080160006101000a81548160ff02191690831515021790555060036000803373ffffffffffffffffffffffffffffffffffffffff1673ffffffffffffffffffffffffffffffffffffffff16815260200190815260200160002060006101000a81548160ff02191690836003811115611ca657611ca56148e7565b5b02179055503373ffffffffffffffffffffffffffffffffffffffff167fec2103278c3c80a6d7b51d03d161f98073de470c933d17309f7e46ebccd8c1ea60405160405180910390a250505050565b60076020528060005260406000206000915090508060000160009054906101000a900473ffffffffffffffffffffffffffffffffffffffff16908060000160149054906101000a900460ff16905082565b600760003373ffffffffffffffffffffffffffffffffffffffff1673ffffffffffffffffffffffffffffffffffffffff16815260200190815260200160002060000160149054906101000a900460ff16611dd4576040517f08c379a0000000000000000000000000000000000000000000000000000000008152600401611dcb906143d9565b60405180910390fd5b611ddd836130a5565b611de88282336126f2565b611df2838361313e565b81600560008573ffffffffffffffffffffffffffffffffffffffff1673ffffffffffffffffffffffffffffffffffffffff1681526020019081526020016000206004019080519060200190611e489291906134bb565b50600560008473ffffffffffffffffffffffffffffffffffffffff1673ffffffffffffffffffffffffffffffffffffffff168152602001908152602001600020600501819080600181540180825580915050600190039060005260206000200160009091909190915055600560008473ffffffffffffffffffffffffffffffffffffffff1673ffffffffffffffffffffffffffffffffffffffff1681526020019081526020016000206006014290806001815401808255809150506001900390600052602060002001600090919091909150556001600560008573ffffffffffffffffffffffffffffffffffffffff1673ffffffffffffffffffffffffffffffffffffffff1681526020019081526020016000206007016000828254611f6e9190614689565b925050819055506001600383604051611f879190614037565b908152602001604051809103902060008381526020019081526020016000206000600760003373ffffffffffffffffffffffffffffffffffffffff1673ffffffffffffffffffffffffffffffffffffffff16815260200190815260200160002060000160009054906101000a900473ffffffffffffffffffffffffffffffffffffffff1673ffffffffffffffffffffffffffffffffffffffff1673ffffffffffffffffffffffffffffffffffffffff168152602001908152602001600020600082825461205491906146df565b925050819055506120648361341b565b505050565b600080600560008473ffffffffffffffffffffffffffffffffffffffff1673ffffffffffffffffffffffffffffffffffffffff16815260200190815260200160002060070154905080915050919050565b6000600980549050905090565b600042905090565b600080600560008473ffffffffffffffffffffffffffffffffffffffff1673ffffffffffffffffffffffffffffffffffffffff16815260200190815260200160002060070154905060006001600560008673ffffffffffffffffffffffffffffffffffffffff1673ffffffffffffffffffffffffffffffffffffffff16815260200190815260200160002060040160405161216a919061404e565b90815260200160405180910390206002018054905090506000821415612195576000925050506121be565b808210156121a8576001925050506121be565b808214156121bb576002925050506121be565b50505b919050565b60006020528060005260406000206000915054906101000a900460ff1681565b600860009054906101000a900473ffffffffffffffffffffffffffffffffffffffff1673ffffffffffffffffffffffffffffffffffffffff163373ffffffffffffffffffffffffffffffffffffffff1614612273576040517f08c379a000000000000000000000000000000000000000000000000000000000815260040161226a90614479565b60405180910390fd5b600660008273ffffffffffffffffffffffffffffffffffffffff1673ffffffffffffffffffffffffffffffffffffffff16815260200190815260200160002060040160019054906101000a900460ff16612302576040517f08c379a00000000000000000000000000000000000000000000000000000000081526004016122f9906142d9565b60405180910390fd5b600660008273ffffffffffffffffffffffffffffffffffffffff1673ffffffffffffffffffffffffffffffffffffffff16815260200190815260200160002060040160009054906101000a900460ff1615612392576040517f08c379a000000000000000000000000000000000000000000000000000000000815260040161238990614299565b60405180910390fd5b6001600660008373ffffffffffffffffffffffffffffffffffffffff1673ffffffffffffffffffffffffffffffffffffffff16815260200190815260200160002060040160006101000a81548160ff02191690831515021790555050565b600a5481565b60056020528060005260406000206000915090508060000154908060010160009054906101000a900460ff16908060020180546124329061480c565b80601f016020809104026020016040519081016040528092919081815260200182805461245e9061480c565b80156124ab5780601f10612480576101008083540402835291602001916124ab565b820191906000526020600020905b81548152906001019060200180831161248e57829003601f168201915b5050505050908060030180546124c09061480c565b80601f01602080910402602001604051908101604052809291908181526020018280546124ec9061480c565b80156125395780601f1061250e57610100808354040283529160200191612539565b820191906000526020600020905b81548152906001019060200180831161251c57829003601f168201915b50505050509080600401805461254e9061480c565b80601f016020809104026020016040519081016040528092919081815260200182805461257a9061480c565b80156125c75780601f1061259c576101008083540402835291602001916125c7565b820191906000526020600020905b8154815290600101906020018083116125aa57829003601f168201915b5050505050908060070154908060080160009054906101000a900460ff16905087565b60006001826040516125fc9190614037565b908152602001604051809103902060040160009054906101000a900460ff169050919050565b6060600660008373ffffffffffffffffffffffffffffffffffffffff1673ffffffffffffffffffffffffffffffffffffffff1681526020019081526020016000206003018054806020026020016040519081016040528092919081815260200182805480156126e657602002820191906000526020600020905b8160009054906101000a900473ffffffffffffffffffffffffffffffffffffffff1673ffffffffffffffffffffffffffffffffffffffff168152602001906001019080831161269c575b50505050509050919050565b600115156001846040516127069190614037565b908152602001604051809103902060040160009054906101000a900460ff16151514612767576040517f08c379a000000000000000000000000000000000000000000000000000000000815260040161275e90614279565b60405180910390fd5b612771838361292d565b60006003846040516127839190614037565b908152602001604051809103902060008481526020019081526020016000206000600760008573ffffffffffffffffffffffffffffffffffffffff1673ffffffffffffffffffffffffffffffffffffffff16815260200190815260200160002060000160009054906101000a900473ffffffffffffffffffffffffffffffffffffffff1673ffffffffffffffffffffffffffffffffffffffff1673ffffffffffffffffffffffffffffffffffffffff1681526020019081526020016000205411612882576040517f08c379a000000000000000000000000000000000000000000000000000000000815260040161287990614259565b60405180910390fd5b505050565b60006001826040516128999190614037565b9081526020016040518091039020600201805490509050919050565b60006003846040516128c79190614037565b9081526020016040518091039020600084815260200190815260200160002060008373ffffffffffffffffffffffffffffffffffffffff1673ffffffffffffffffffffffffffffffffffffffff1681526020019081526020016000205490509392505050565b600060028360405161293f9190614037565b9081526020016040518091039020600083815260200190815260200160002060000154116129a2576040517f08c379a0000000000000000000000000000000000000000000000000000000008152600401612999906143f9565b60405180910390fd5b426002836040516129b39190614037565b908152602001604051809103902060008381526020019081526020016000206001015410612a16576040517f08c379a0000000000000000000000000000000000000000000000000000000008152600401612a0d90614339565b60405180910390fd5b42600283604051612a279190614037565b908152602001604051809103902060008381526020019081526020016000206002015411612a8a576040517f08c379a0000000000000000000000000000000000000000000000000000000008152600401612a8190614419565b60405180910390fd5b42600283604051612a9b9190614037565b908152602001604051809103902060008381526020019081526020016000206003015411612afe576040517f08c379a0000000000000000000000000000000000000000000000000000000008152600401612af590614459565b60405180910390fd5b5050565b600660008273ffffffffffffffffffffffffffffffffffffffff1673ffffffffffffffffffffffffffffffffffffffff16815260200190815260200160002060040160019054906101000a900460ff16612b91576040517f08c379a0000000000000000000000000000000000000000000000000000000008152600401612b88906141f9565b60405180910390fd5b600660008273ffffffffffffffffffffffffffffffffffffffff1673ffffffffffffffffffffffffffffffffffffffff16815260200190815260200160002060040160009054906101000a900460ff16612c20576040517f08c379a0000000000000000000000000000000000000000000000000000000008152600401612c1790614219565b60405180910390fd5b50565b600860009054906101000a900473ffffffffffffffffffffffffffffffffffffffff1673ffffffffffffffffffffffffffffffffffffffff163373ffffffffffffffffffffffffffffffffffffffff1614612cb3576040517f08c379a0000000000000000000000000000000000000000000000000000000008152600401612caa90614479565b60405180910390fd5b81600183604051612cc49190614037565b90815260200160405180910390206000019080519060200190612ce89291906134bb565b5080600183604051612cfa9190614037565b90815260200160405180910390206002019080519060200190612d1e929190613541565b50600482908060018154018082558091505060019003906000526020600020016000909190919091509080519060200190612d5a9291906134bb565b5060018083604051612d6c9190614037565b908152602001604051809103902060040160006101000a81548160ff02191690831515021790555081604051612da29190614037565b60405180910390207f9db18d96585d3ea407a3cd4bc1ecedb2bbc4188986b624b0e85d74caecce964b60405160405180910390a25050565b600860009054906101000a900473ffffffffffffffffffffffffffffffffffffffff1673ffffffffffffffffffffffffffffffffffffffff163373ffffffffffffffffffffffffffffffffffffffff1614612e6a576040517f08c379a0000000000000000000000000000000000000000000000000000000008152600401612e6190614479565b60405180910390fd5b612e7384612b02565b612e7c836116c7565b612e86838361292d565b80600384604051612e979190614037565b9081526020016040518091039020600084815260200190815260200160002060003373ffffffffffffffffffffffffffffffffffffffff1673ffffffffffffffffffffffffffffffffffffffff168152602001908152602001600020541015612f35576040517f08c379a0000000000000000000000000000000000000000000000000000000008152600401612f2c90614359565b60405180910390fd5b80600384604051612f469190614037565b9081526020016040518091039020600084815260200190815260200160002060003373ffffffffffffffffffffffffffffffffffffffff1673ffffffffffffffffffffffffffffffffffffffff1681526020019081526020016000206000828254612fb191906146df565b9250508190555080600384604051612fc99190614037565b9081526020016040518091039020600084815260200190815260200160002060008673ffffffffffffffffffffffffffffffffffffffff1673ffffffffffffffffffffffffffffffffffffffff16815260200190815260200160002060008282546130349190614689565b92505081905550826040516130499190614037565b60405180910390208473ffffffffffffffffffffffffffffffffffffffff167f4e2ff4923c3e767530d0bd26e60dd9043c7f4461e83947851dde360e0a106b75846040516130979190614499565b60405180910390a350505050565b60011515600560008373ffffffffffffffffffffffffffffffffffffffff1673ffffffffffffffffffffffffffffffffffffffff16815260200190815260200160002060080160009054906101000a900460ff1615151461313b576040517f08c379a0000000000000000000000000000000000000000000000000000000008152600401613132906143b9565b60405180910390fd5b50565b600115156001826040516131529190614037565b908152602001604051809103902060040160009054906101000a900460ff161515146131b3576040517f08c379a00000000000000000000000000000000000000000000000000000000081526004016131aa906142f9565b60405180910390fd5b6000600560008473ffffffffffffffffffffffffffffffffffffffff1673ffffffffffffffffffffffffffffffffffffffff16815260200190815260200160002060040180546132029061480c565b80601f016020809104026020016040519081016040528092919081815260200182805461322e9061480c565b801561327b5780601f106132505761010080835404028352916020019161327b565b820191906000526020600020905b81548152906001019060200180831161325e57829003601f168201915b5050505050905060008290506000825111156133b65780518251146132d5576040517f08c379a00000000000000000000000000000000000000000000000000000000081526004016132cc90614319565b60405180910390fd5b60005b82518110156133b4578181815181106132f4576132f3614945565b5b602001015160f81c60f81b7effffffffffffffffffffffffffffffffffffffffffffffffffffffffffffff191683828151811061333457613333614945565b5b602001015160f81c60f81b7effffffffffffffffffffffffffffffffffffffffffffffffffffffffffffff1916146133a1576040517f08c379a000000000000000000000000000000000000000000000000000000000815260040161339890614319565b60405180910390fd5b80806133ac9061486f565b9150506132d8565b505b60006133c185612069565b905060006133ce85612887565b905080821415613413576040517f08c379a000000000000000000000000000000000000000000000000000000000815260040161340a90614439565b60405180910390fd5b505050505050565b6000613426826120cf565b905060028081111561343b5761343a6148e7565b5b81600281111561344e5761344d6148e7565b5b141561346f576001600b60008282546134679190614689565b925050819055505b60016002811115613483576134826148e7565b5b816002811115613496576134956148e7565b5b14156134b7576001600a60008282546134af9190614689565b925050819055505b5050565b8280546134c79061480c565b90600052602060002090601f0160209004810192826134e95760008555613530565b82601f1061350257805160ff1916838001178555613530565b82800160010185558215613530579182015b8281111561352f578251825591602001919060010190613514565b5b50905061353d919061358e565b5090565b82805482825590600052602060002090810192821561357d579160200282015b8281111561357c578251825591602001919060010190613561565b5b50905061358a919061358e565b5090565b5b808211156135a757600081600090555060010161358f565b5090565b60006135be6135b9846145b7565b614592565b905080838252602082019050828560208602820111156135e1576135e06149a8565b5b60005b8581101561361157816135f788826136e3565b8452602084019350602083019250506001810190506135e4565b5050509392505050565b600061362e613629846145e3565b614592565b90508281526020810184848401111561364a576136496149ad565b5b6136558482856147ca565b509392505050565b60008135905061366c81614dd8565b92915050565b600082601f830112613687576136866149a3565b5b81356136978482602086016135ab565b91505092915050565b6000813590506136af81614def565b92915050565b600082601f8301126136ca576136c96149a3565b5b81356136da84826020860161361b565b91505092915050565b6000813590506136f281614dff565b92915050565b60006020828403121561370e5761370d6149b7565b5b600061371c8482850161365d565b91505092915050565b60008060006060848603121561373e5761373d6149b7565b5b600061374c8682870161365d565b935050602084013567ffffffffffffffff81111561376d5761376c6149b2565b5b613779868287016136b5565b925050604061378a868287016136e3565b9150509250925092565b600080600080608085870312156137ae576137ad6149b7565b5b60006137bc8782880161365d565b945050602085013567ffffffffffffffff8111156137dd576137dc6149b2565b5b6137e9878288016136b5565b93505060406137fa878288016136e3565b925050606061380b878288016136e3565b91505092959194509250565b60006020828403121561382d5761382c6149b7565b5b600082013567ffffffffffffffff81111561384b5761384a6149b2565b5b613857848285016136b5565b91505092915050565b60008060408385031215613877576138766149b7565b5b600083013567ffffffffffffffff811115613895576138946149b2565b5b6138a1858286016136b5565b925050602083013567ffffffffffffffff8111156138c2576138c16149b2565b5b6138ce85828601613672565b9150509250929050565b600080604083850312156138ef576138ee6149b7565b5b600083013567ffffffffffffffff81111561390d5761390c6149b2565b5b613919858286016136b5565b925050602083013567ffffffffffffffff81111561393a576139396149b2565b5b613946858286016136b5565b9150509250929050565b60008060408385031215613967576139666149b7565b5b600083013567ffffffffffffffff811115613985576139846149b2565b5b613991858286016136b5565b92505060206139a2858286016136e3565b9150509250929050565b6000806000606084860312156139c5576139c46149b7565b5b600084013567ffffffffffffffff8111156139e3576139e26149b2565b5b6139ef868287016136b5565b9350506020613a00868287016136e3565b9250506040613a118682870161365d565b9150509250925092565b60008060008060008060c08789031215613a3857613a376149b7565b5b600087013567ffffffffffffffff811115613a5657613a556149b2565b5b613a6289828a016136b5565b9650506020613a7389828a016136e3565b9550506040613a8489828a016136e3565b9450506060613a9589828a016136e3565b9350506080613aa689828a016136e3565b92505060a0613ab789828a016136e3565b9150509295509295509295565b600060208284031215613ada57613ad96149b7565b5b6000613ae8848285016136e3565b91505092915050565b60008060008060808587031215613b0b57613b0a6149b7565b5b6000613b19878288016136e3565b9450506020613b2a878288016136a0565b935050604085013567ffffffffffffffff811115613b4b57613b4a6149b2565b5b613b57878288016136b5565b925050606085013567ffffffffffffffff811115613b7857613b776149b2565b5b613b84878288016136b5565b91505092959194509250565b6000613b9c8383613ba8565b60208301905092915050565b613bb181614713565b82525050565b613bc081614713565b82525050565b6000613bd182614639565b613bdb818561465c565b9350613be683614614565b8060005b83811015613c17578151613bfe8882613b90565b9750613c098361464f565b925050600181019050613bea565b5085935050505092915050565b613c2d81614725565b82525050565b613c3c81614794565b82525050565b613c4b816147a6565b82525050565b613c5a816147b8565b82525050565b6000613c6b82614644565b613c75818561466d565b9350613c858185602086016147d9565b613c8e816149bc565b840191505092915050565b6000613ca482614644565b613cae818561467e565b9350613cbe8185602086016147d9565b80840191505092915050565b60008154613cd78161480c565b613ce1818661467e565b94506001821660008114613cfc5760018114613d0d57613d40565b60ff19831686528186019350613d40565b613d1685614624565b60005b83811015613d3857815481890152600182019150602081019050613d19565b838801955050505b50505092915050565b6000613d5660158361466d565b9150613d61826149cd565b602082019050919050565b6000613d79601d8361466d565b9150613d84826149f6565b602082019050919050565b6000613d9c60138361466d565b9150613da782614a1f565b602082019050919050565b6000613dbf60178361466d565b9150613dca82614a48565b602082019050919050565b6000613de260158361466d565b9150613ded82614a71565b602082019050919050565b6000613e0560218361466d565b9150613e1082614a9a565b604082019050919050565b6000613e2860148361466d565b9150613e3382614ae9565b602082019050919050565b6000613e4b602c8361466d565b9150613e5682614b12565b604082019050919050565b6000613e6e60188361466d565b9150613e7982614b61565b602082019050919050565b6000613e9160178361466d565b9150613e9c82614b8a565b602082019050919050565b6000613eb4601c8361466d565b9150613ebf82614bb3565b602082019050919050565b6000613ed760168361466d565b9150613ee282614bdc565b602082019050919050565b6000613efa60148361466d565b9150613f0582614c05565b602082019050919050565b6000613f1d600c8361466d565b9150613f2882614c2e565b602082019050919050565b6000613f4060118361466d565b9150613f4b82614c57565b602082019050919050565b6000613f63600c8361466d565b9150613f6e82614c80565b602082019050919050565b6000613f86600d8361466d565b9150613f9182614ca9565b602082019050919050565b6000613fa960078361466d565b9150613fb482614cd2565b602082019050919050565b6000613fcc60198361466d565b9150613fd782614cfb565b602082019050919050565b6000613fef60228361466d565b9150613ffa82614d24565b604082019050919050565b6000614012600a8361466d565b915061401d82614d73565b602082019050919050565b6140318161478a565b82525050565b60006140438284613c99565b915081905092915050565b600061405a8284613cca565b915081905092915050565b600060208201905061407a6000830184613bb7565b92915050565b60006040820190506140956000830185613bb7565b6140a26020830184613c24565b9392505050565b600060208201905081810360008301526140c38184613bc6565b905092915050565b60006020820190506140e06000830184613c24565b92915050565b60006020820190506140fb6000830184613c42565b92915050565b60006020820190506141166000830184613c51565b92915050565b600060208201905081810360008301526141368184613c60565b905092915050565b600060608201905081810360008301526141588186613c60565b9050818103602083015261416c8185613c60565b905061417b6040830184613c24565b949350505050565b600060c082019050818103600083015261419d8189613c60565b905081810360208301526141b18188613c60565b905081810360408301526141c58187613c60565b90506141d46060830186613c24565b6141e16080830185613c24565b6141ee60a0830184614028565b979650505050505050565b6000602082019050818103600083015261421281613d49565b9050919050565b6000602082019050818103600083015261423281613d6c565b9050919050565b6000602082019050818103600083015261425281613d8f565b9050919050565b6000602082019050818103600083015261427281613db2565b9050919050565b6000602082019050818103600083015261429281613dd5565b9050919050565b600060208201905081810360008301526142b281613df8565b9050919050565b600060208201905081810360008301526142d281613e1b565b9050919050565b600060208201905081810360008301526142f281613e3e565b9050919050565b6000602082019050818103600083015261431281613e61565b9050919050565b6000602082019050818103600083015261433281613e84565b9050919050565b6000602082019050818103600083015261435281613ea7565b9050919050565b6000602082019050818103600083015261437281613eca565b9050919050565b6000602082019050818103600083015261439281613eed565b9050919050565b600060208201905081810360008301526143b281613f10565b9050919050565b600060208201905081810360008301526143d281613f33565b9050919050565b600060208201905081810360008301526143f281613f56565b9050919050565b6000602082019050818103600083015261441281613f79565b9050919050565b6000602082019050818103600083015261443281613f9c565b9050919050565b6000602082019050818103600083015261445281613fbf565b9050919050565b6000602082019050818103600083015261447281613fe2565b9050919050565b6000602082019050818103600083015261449281614005565b9050919050565b60006020820190506144ae6000830184614028565b92915050565b600060e0820190506144c9600083018a614028565b6144d66020830189613c33565b81810360408301526144e88188613c60565b905081810360608301526144fc8187613c60565b905081810360808301526145108186613c60565b905061451f60a0830185614028565b61452c60c0830184613c24565b98975050505050505050565b600060a08201905061454d6000830188614028565b61455a6020830187614028565b6145676040830186614028565b6145746060830185614028565b81810360808301526145868184613c60565b90509695505050505050565b600061459c6145ad565b90506145a8828261483e565b919050565b6000604051905090565b600067ffffffffffffffff8211156145d2576145d1614974565b5b602082029050602081019050919050565b600067ffffffffffffffff8211156145fe576145fd614974565b5b614607826149bc565b9050602081019050919050565b6000819050602082019050919050565b60008190508160005260206000209050919050565b600081519050919050565b600081519050919050565b6000602082019050919050565b600082825260208201905092915050565b600082825260208201905092915050565b600081905092915050565b60006146948261478a565b915061469f8361478a565b9250827fffffffffffffffffffffffffffffffffffffffffffffffffffffffffffffffff038211156146d4576146d36148b8565b5b828201905092915050565b60006146ea8261478a565b91506146f58361478a565b925082821015614708576147076148b8565b5b828203905092915050565b600061471e8261476a565b9050919050565b60008115159050919050565b600081905061473f82614d9c565b919050565b600081905061475282614db0565b919050565b600081905061476582614dc4565b919050565b600073ffffffffffffffffffffffffffffffffffffffff82169050919050565b6000819050919050565b600061479f82614731565b9050919050565b60006147b182614744565b9050919050565b60006147c382614757565b9050919050565b82818337600083830152505050565b60005b838110156147f75780820151818401526020810190506147dc565b83811115614806576000848401525b50505050565b6000600282049050600182168061482457607f821691505b6020821081141561483857614837614916565b5b50919050565b614847826149bc565b810181811067ffffffffffffffff8211171561486657614865614974565b5b80604052505050565b600061487a8261478a565b91507fffffffffffffffffffffffffffffffffffffffffffffffffffffffffffffffff8214156148ad576148ac6148b8565b5b600182019050919050565b7f4e487b7100000000000000000000000000000000000000000000000000000000600052601160045260246000fd5b7f4e487b7100000000000000000000000000000000000000000000000000000000600052602160045260246000fd5b7f4e487b7100000000000000000000000000000000000000000000000000000000600052602260045260246000fd5b7f4e487b7100000000000000000000000000000000000000000000000000000000600052603260045260246000fd5b7f4e487b7100000000000000000000000000000000000000000000000000000000600052604160045260246000fd5b600080fd5b600080fd5b600080fd5b600080fd5b600080fd5b6000601f19601f8301169050919050565b7f496e76616c6964206f7267616e697a6174696f6e2e0000000000000000000000600082015250565b7f4f7267616e697a6174696f6e206973206e6f7420617070726f7665642e000000600082015250565b7f416c726561647920726567697374657265642e00000000000000000000000000600082015250565b7f496e73756666696369656e742076616363696e652e2e2e000000000000000000600082015250565b7f56616363696e65206e6f7420617070726f7665642e0000000000000000000000600082015250565b7f4f7267616e697a6174696f6e20697320616c726561647920617070726f76656460008201527f2e00000000000000000000000000000000000000000000000000000000000000602082015250565b7f496e73756666696369656e7420616d6f756e742e000000000000000000000000600082015250565b7f4f7267616e697a6174696f6e206d75737420666972737420726567697374657260008201527f20746f20617070726f76652e0000000000000000000000000000000000000000602082015250565b7f56616363696e65206973206e6f7420617070726f7665642e0000000000000000600082015250565b7f56616363696e65206e6f7420636f6d70617469626c652e000000000000000000600082015250565b7f4d7573742062652070726576696f75736c7920646566726f7374656400000000600082015250565b7f496e73756666696369656e742076616363696e65732e00000000000000000000600082015250565b7f56616363696e65206e6f7420617070726f766564000000000000000000000000600082015250565b7f4f7267616e697a6174696f6e0000000000000000000000000000000000000000600082015250565b7f556e726567697374657265642075736572000000000000000000000000000000600082015250565b7f4865616c7468506572736f6e0000000000000000000000000000000000000000600082015250565b7f496e76616c696420626174636800000000000000000000000000000000000000600082015250565b7f4578706972656400000000000000000000000000000000000000000000000000600082015250565b7f46756c6c792076616363696e6174656420616c72656164792e00000000000000600082015250565b7f4d7573742062652075736564207072696f7220746f207573652062792064617460008201527f652e000000000000000000000000000000000000000000000000000000000000602082015250565b7f737570657241646d696e00000000000000000000000000000000000000000000600082015250565b60038110614dad57614dac6148e7565b5b50565b60048110614dc157614dc06148e7565b5b50565b60038110614dd557614dd46148e7565b5b50565b614de181614713565b8114614dec57600080fd5b50565b60038110614dfc57600080fd5b50565b614e088161478a565b8114614e1357600080fd5b5056fea2646970667358221220ed533349206f9864e188a156117836aba04599d84f22c8115e5e315aa59f8fac64736f6c63430008050033",
  "immutableReferences": {},
  "source": "// SPDX-License-Identifier: MIT\npragma solidity >=0.4.22 <0.9.0;\n\nuint256 constant REGISTRATION_COST = 10;\n\ncontract Vaccination {\n    enum VaccineStatus {\n        UNVACCINATED,\n        PARTIALLY_VACCINATED,\n        FULLY_VACCINATED\n    }\n\n    enum Gender {\n        MALE,\n        FEMALE,\n        UNSPECIFIED\n    }\n\n    enum Role {\n        GOVERNMENT,\n        ORGANIZATION,\n        HEALTHPERSON,\n        USER\n    }\n\n    struct Vaccine {\n        string name;\n        uint256 batch_no;\n        uint256 vaccination_datetime;\n        // uint256 serialNo;\n    }\n\n    struct BatchDetails {\n        uint256 batch_id;\n        uint256 defrost_date;\n        uint256 manufacture_expiry;\n        uint256 use_by_date;\n        string ipfs_hash;\n    }\n\n    struct VaccineDetails {\n        string name;\n        // string platform;\n        // string route;\n        string ipfs_hash;\n        uint256[] schedule;\n        uint256[] batches;\n        bool approved;\n    }\n\n    struct User {\n        uint256 year_of_birth;\n        Gender gender;\n        string namehash;\n        string imagehash;\n        string vaccine_name;\n        uint256[] batches;\n        uint256[] datetime;\n        uint256 vaccine_count;\n        bool registered;\n    }\n\n    struct Organization {\n        string name;\n        string location;\n        string ipfs_hash;\n        address[] healthPersons;\n        bool approved;\n        bool registration;\n        uint256 vaccined;\n    }\n\n    struct HealthPerson {\n        address org;\n        bool approved;\n    }\n\n    mapping (address => Role) public roles;\n\n    mapping(string => VaccineDetails) public approvedVaccines;\n    mapping(string => mapping(uint256 => BatchDetails)) public approvedBatches;\n    mapping(string => mapping(uint256 => mapping(address => uint256)))\n        public approvedOperators;\n\n    string[] public approvedVaccineNames;\n\n    mapping(address => User) public users;\n    mapping(address => Organization) public organizations;\n    mapping(address => HealthPerson) public healthPersons;\n\n    address public superAdmin;\n\n    address[] public organizationsList;\n\n    // uint256 public registered;\n    uint256 public partiallyVaccinated;\n    uint256 public fullyVaccinated;\n\n    //uint256 public total_vaccines;\n    event ApproveVaccine(string indexed vaccine_name);\n    event AddBatch(string indexed vaccine_name, uint256 indexed batch_no);\n    event ApproveOrganization(string indexed org_name);\n    event TransferVaccine(\n        address indexed to,\n        string indexed vaccine_name,\n        uint256 batch_no\n    );\n\n    event RegisterOrganization(string indexed org_name);\n    event ApproveHealthPerson(address indexed org, address indexed hp);\n\n    event RegisterHealthPerson(address indexed _from);\n\n    event RegisterIndividual(address indexed _from);\n\n    constructor() {\n        superAdmin = msg.sender;\n        roles[msg.sender] = Role.GOVERNMENT;\n    }\n\n    function approveVaccine(string memory name, uint256[] memory schedule)\n        public\n        onlySuperAdmin\n    {\n        approvedVaccines[name].name = name;\n        approvedVaccines[name].schedule = schedule;\n        approvedVaccineNames.push(name);\n        approvedVaccines[name].approved = true;\n        emit ApproveVaccine(name);\n    }\n\n    function addBatch(\n        string memory name,\n        uint256 batch_id,\n        uint256 defrost_date,\n        uint256 manufacture_expiry,\n        uint256 use_by_date,\n        uint256 units\n    ) public onlySuperAdmin {\n        require(batch_id > 0, \"Invalid batch\");\n        require(approvedVaccines[name].approved, \"Vaccine is not approved.\");\n\n        //Check dates\n        require(defrost_date < block.timestamp, \"Must be previously defrosted\");\n        require(manufacture_expiry > block.timestamp, \"Expired\");\n        require(\n            use_by_date > block.timestamp,\n            \"Must be used prior to use by date.\"\n        );\n\n        approvedBatches[name][batch_id].batch_id = batch_id;\n        approvedBatches[name][batch_id].defrost_date = defrost_date;\n        approvedBatches[name][batch_id].manufacture_expiry = manufacture_expiry;\n        approvedBatches[name][batch_id].use_by_date = use_by_date;\n        approvedVaccines[name].batches.push(batch_id);\n        approvedOperators[name][batch_id][msg.sender] = units;\n        users[msg.sender].vaccine_count = units;\n        emit AddBatch(name, batch_id);\n    }\n\n    function registerOrganization(string memory name, string memory location)\n        public\n        payable\n    {\n        if (msg.value < REGISTRATION_COST) {\n            revert(\"Insufficient amount.\");\n        }\n        organizations[msg.sender].name = name;\n        organizations[msg.sender].location = location;\n        organizations[msg.sender].registration = true;\n        organizationsList.push(msg.sender);\n        roles[msg.sender] = Role.ORGANIZATION;\n        emit RegisterOrganization(name);\n    }\n\n    function approveOrganization(address org) public onlySuperAdmin {\n        if (!organizations[org].registration) {\n            revert(\"Organization must first register to approve.\");\n        }\n        if (organizations[org].approved) {\n            revert(\"Organization is already approved.\");\n        }\n        organizations[org].approved = true;\n    }\n\n    function transfer(\n        address to,\n        string memory name,\n        uint256 batch_id,\n        uint256 units\n    ) public onlySuperAdmin {\n        checkOrganization(to);\n        checkVaccine(name);\n        checkBatch(name, batch_id);\n\n        if (approvedOperators[name][batch_id][msg.sender] < units) {\n            revert(\"Insufficient vaccines.\");\n        }\n        approvedOperators[name][batch_id][msg.sender] -= units;\n        approvedOperators[name][batch_id][to] += units;\n        emit TransferVaccine(to, name, batch_id);\n    }\n\n    function registerIndividual(\n        uint256 year_of_birth,\n        Gender gender,\n        string memory namehash,\n        string memory imagehash\n    ) public {\n        require(users[msg.sender].registered == false, \"Already registered.\");\n        users[msg.sender].year_of_birth = year_of_birth;\n        users[msg.sender].gender = gender;\n        users[msg.sender].namehash = namehash;\n        users[msg.sender].imagehash = imagehash;\n        users[msg.sender].registered = true;\n        roles[msg.sender] = Role.USER;\n        emit RegisterIndividual(msg.sender);\n    }\n\n    function approveHealthPerson(address person) public onlyOrganization {\n        healthPersons[person].org = msg.sender;\n        healthPersons[person].approved = true;\n        roles[person] = Role.HEALTHPERSON;\n        organizations[msg.sender].healthPersons.push(person);\n        emit ApproveHealthPerson(msg.sender, person);\n    }\n\n    function vaccinate(\n        address to,\n        string memory name,\n        uint256 batch_id\n    ) public onlyHealthPerson {\n        checkUserRegistration(to);\n        checkAvailability(name, batch_id, msg.sender);\n        checkUserVaccineCompatibility(to, name);\n        users[to].vaccine_name = name;\n        users[to].batches.push(batch_id);\n        users[to].datetime.push(block.timestamp);\n        users[to].vaccine_count += 1;\n        approvedOperators[name][batch_id][healthPersons[msg.sender].org] -= 1;\n        changeStatus(to);\n    }\n\n    //Check Methods\n    function checkUserRegistration(address user) private view {\n        require(users[user].registered == true, \"Unregistered user\");\n    }\n\n    function checkBatch(string memory name, uint256 batch_id) public view {\n        require(approvedBatches[name][batch_id].batch_id > 0, \"Invalid batch\");\n        require(\n            approvedBatches[name][batch_id].defrost_date < block.timestamp,\n            \"Must be previously defrosted\"\n        );\n        require(\n            approvedBatches[name][batch_id].manufacture_expiry >\n                block.timestamp,\n            \"Expired\"\n        );\n        require(\n            approvedBatches[name][batch_id].use_by_date > block.timestamp,\n            \"Must be used prior to use by date.\"\n        );\n    }\n\n    function checkOrganization(address org) public view {\n        if (!organizations[org].registration) {\n            revert(\"Invalid organization.\");\n        }\n        if (!organizations[org].approved) {\n            revert(\"Organization is not approved.\");\n        }\n    }\n\n    function checkVaccine(string memory name) public view {\n        if (!approvedVaccines[name].approved) {\n            revert(\"Vaccine not approved\");\n        }\n    }\n\n    function checkUserVaccineCompatibility(address user, string memory name)\n        private\n        view\n    {\n        require(\n            approvedVaccines[name].approved == true,\n            \"Vaccine is not approved.\"\n        );\n        bytes memory _user_recieved_vaccine = bytes(users[user].vaccine_name);\n        bytes memory _user_recieving_vaccine = bytes(name);\n\n        if (_user_recieved_vaccine.length > 0) {\n            if (\n                _user_recieved_vaccine.length != _user_recieving_vaccine.length\n            ) {\n                revert(\"Vaccine not compatible.\");\n            }\n            for (uint256 i = 0; i < _user_recieved_vaccine.length; i++) {\n                if (_user_recieved_vaccine[i] != _user_recieving_vaccine[i]) {\n                    revert(\"Vaccine not compatible.\");\n                }\n            }\n        }\n        uint256 user_vaccineCount = getUserVaccineCount(user);\n        uint256 required_vaccineCount = getRequiredVaccineCount(name);\n\n        if (user_vaccineCount == required_vaccineCount) {\n            revert(\"Fully vaccinated already.\");\n        }\n    }\n\n    //Read Only Methods\n    function getUserVaccineCount(address user) public view returns (uint256) {\n        uint256 count = users[user].vaccine_count;\n        return count;\n    }\n\n    function getRequiredVaccineCount(string memory name)\n        public\n        view\n        returns (uint256)\n    {\n        return approvedVaccines[name].schedule.length;\n    }\n\n    function getTotalOrganization() public view returns (uint256) {\n        return organizationsList.length;\n    }\n\n    function getAllOrganizations() public view returns (address[] memory) {\n        return organizationsList;\n    }\n\n    function getAllHealthPersons(address org)\n        public\n        view\n        returns (address[] memory)\n    {\n        return organizations[org].healthPersons;\n    }\n\n    function getVaccineStatusOf(address user)\n        public\n        view\n        returns (VaccineStatus status)\n    {\n        uint256 user_vaccineCount = users[user].vaccine_count;\n        uint256 required_vaccineCount = approvedVaccines[\n            users[user].vaccine_name\n        ].schedule.length;\n\n        if (user_vaccineCount == 0) {\n            return VaccineStatus.UNVACCINATED;\n        }\n        if (user_vaccineCount < required_vaccineCount) {\n            return VaccineStatus.PARTIALLY_VACCINATED;\n        }\n        if (user_vaccineCount == required_vaccineCount) {\n            return VaccineStatus.FULLY_VACCINATED;\n        }\n    }\n\n    function changeStatus(address user) private {\n        VaccineStatus status = getVaccineStatusOf(user);\n        if (status == VaccineStatus.FULLY_VACCINATED) {\n            fullyVaccinated += 1;\n        }\n        if (status == VaccineStatus.PARTIALLY_VACCINATED) {\n            partiallyVaccinated += 1;\n        }\n    }\n\n    //Modifiers\n    modifier onlySuperAdmin() {\n        require(msg.sender == superAdmin, \"superAdmin\");\n        _;\n    }\n    modifier onlyOrganization() {\n        require(organizations[msg.sender].approved, \"Organization\");\n        _;\n    }\n    modifier onlyHealthPerson() {\n        require(healthPersons[msg.sender].approved, \"HealthPerson\");\n        _;\n    }\n\n    function getHealthPersonOrganization(address healthPerson)\n        public\n        view\n        returns (address)\n    {\n        return (healthPersons[healthPerson].org);\n    }\n\n    function checkAvailability(\n        string memory name,\n        uint256 batch_id,\n        address healthPerson\n    ) public view {\n        require(\n            approvedVaccines[name].approved == true,\n            \"Vaccine not approved.\"\n        );\n        checkBatch(name, batch_id);\n        require(\n            approvedOperators[name][batch_id][healthPersons[healthPerson].org] >\n                0,\n            \"Insufficient vaccine...\"\n        );\n    }\n\n    function getAvailableVaccines(\n        string memory name,\n        uint256 batch,\n        address org\n    ) public view returns (uint256) {\n        return approvedOperators[name][batch][org];\n    }\n\n    function getApprovedVaccinesLength() public view returns (uint256) {\n        return approvedVaccineNames.length;\n    }\n\n    function getVaccineApprovalStatus(string memory name)\n        public\n        view\n        returns (bool)\n    {\n        return approvedVaccines[name].approved;\n    }\n\n    function now() public view returns (uint256) {\n        return block.timestamp;\n    }\n\n    function getRole(address user) public view returns (Role) {\n        return roles[user];\n    }\n}\n",
  "sourcePath": "/home/prajwolrg/School/Vaccination/vaccine-solidity/contracts/Vaccination.sol",
  "compiler": {
    "name": "solc",
    "version": "0.8.5+commit.a4f2e591.Emscripten.clang"
  },
  "schemaVersion": "3.4.4",
  "updatedAt": "2022-04-11T16:44:48.941Z",
  "networkType": "ethereum",
  "devdoc": {
    "kind": "dev",
    "methods": {},
    "version": 1
  },
  "userdoc": {
    "kind": "user",
    "methods": {},
    "version": 1
  }
}