{
  "contractName": "Vaccine",
  "abi": [
    {
      "inputs": [
        {
          "internalType": "string",
          "name": "_name",
          "type": "string"
        },
        {
          "internalType": "string",
          "name": "_symbol",
          "type": "string"
        }
      ],
      "stateMutability": "nonpayable",
      "type": "constructor"
    },
    {
      "anonymous": false,
      "inputs": [
        {
          "indexed": true,
          "internalType": "address",
          "name": "from",
          "type": "address"
        },
        {
          "indexed": true,
          "internalType": "address",
          "name": "to",
          "type": "address"
        },
        {
          "indexed": true,
          "internalType": "uint256",
          "name": "batchId",
          "type": "uint256"
        },
        {
          "indexed": false,
          "internalType": "uint256",
          "name": "units",
          "type": "uint256"
        }
      ],
      "name": "Approval",
      "type": "event"
    },
    {
      "anonymous": false,
      "inputs": [
        {
          "indexed": true,
          "internalType": "string",
          "name": "batch_name",
          "type": "string"
        }
      ],
      "name": "NewBatch",
      "type": "event"
    },
    {
      "anonymous": false,
      "inputs": [
        {
          "indexed": true,
          "internalType": "address",
          "name": "from",
          "type": "address"
        },
        {
          "indexed": true,
          "internalType": "address",
          "name": "to",
          "type": "address"
        },
        {
          "indexed": true,
          "internalType": "uint256",
          "name": "batchId",
          "type": "uint256"
        },
        {
          "indexed": false,
          "internalType": "uint256",
          "name": "units",
          "type": "uint256"
        }
      ],
      "name": "Transfer",
      "type": "event"
    },
    {
      "anonymous": false,
      "inputs": [
        {
          "indexed": true,
          "internalType": "address",
          "name": "to",
          "type": "address"
        },
        {
          "indexed": true,
          "internalType": "uint256",
          "name": "batchId",
          "type": "uint256"
        }
      ],
      "name": "Vaccined",
      "type": "event"
    },
    {
      "inputs": [],
      "name": "Owner",
      "outputs": [
        {
          "internalType": "address",
          "name": "",
          "type": "address"
        }
      ],
      "stateMutability": "view",
      "type": "function",
      "constant": true
    },
    {
      "inputs": [
        {
          "internalType": "uint256",
          "name": "",
          "type": "uint256"
        }
      ],
      "name": "batchIdToSupply",
      "outputs": [
        {
          "internalType": "uint256",
          "name": "",
          "type": "uint256"
        }
      ],
      "stateMutability": "view",
      "type": "function",
      "constant": true
    },
    {
      "inputs": [
        {
          "internalType": "uint256",
          "name": "",
          "type": "uint256"
        }
      ],
      "name": "batches",
      "outputs": [
        {
          "internalType": "string",
          "name": "batch_name",
          "type": "string"
        },
        {
          "internalType": "uint256",
          "name": "defrost_date",
          "type": "uint256"
        },
        {
          "internalType": "uint256",
          "name": "manufacture_expiry",
          "type": "uint256"
        },
        {
          "internalType": "uint256",
          "name": "use_by_date",
          "type": "uint256"
        },
        {
          "internalType": "uint256",
          "name": "units",
          "type": "uint256"
        },
        {
          "internalType": "string",
          "name": "ipfs_hash",
          "type": "string"
        }
      ],
      "stateMutability": "view",
      "type": "function",
      "constant": true
    },
    {
      "inputs": [],
      "name": "ipfs_hash",
      "outputs": [
        {
          "internalType": "string",
          "name": "",
          "type": "string"
        }
      ],
      "stateMutability": "view",
      "type": "function",
      "constant": true
    },
    {
      "inputs": [],
      "name": "name",
      "outputs": [
        {
          "internalType": "string",
          "name": "",
          "type": "string"
        }
      ],
      "stateMutability": "view",
      "type": "function",
      "constant": true
    },
    {
      "inputs": [],
      "name": "symbol",
      "outputs": [
        {
          "internalType": "string",
          "name": "",
          "type": "string"
        }
      ],
      "stateMutability": "view",
      "type": "function",
      "constant": true
    },
    {
      "inputs": [],
      "name": "vaccineCount",
      "outputs": [
        {
          "internalType": "uint256",
          "name": "",
          "type": "uint256"
        }
      ],
      "stateMutability": "view",
      "type": "function",
      "constant": true
    },
    {
      "inputs": [],
      "name": "totalSupply",
      "outputs": [
        {
          "internalType": "uint256",
          "name": "",
          "type": "uint256"
        }
      ],
      "stateMutability": "view",
      "type": "function",
      "constant": true
    },
    {
      "inputs": [
        {
          "internalType": "uint256",
          "name": "batchId",
          "type": "uint256"
        }
      ],
      "name": "individualSupply",
      "outputs": [
        {
          "internalType": "uint256",
          "name": "",
          "type": "uint256"
        }
      ],
      "stateMutability": "view",
      "type": "function",
      "constant": true
    },
    {
      "inputs": [
        {
          "internalType": "address",
          "name": "owner",
          "type": "address"
        },
        {
          "internalType": "uint256",
          "name": "batchId",
          "type": "uint256"
        }
      ],
      "name": "balanceOf",
      "outputs": [
        {
          "internalType": "uint256",
          "name": "",
          "type": "uint256"
        }
      ],
      "stateMutability": "view",
      "type": "function",
      "constant": true
    },
    {
      "inputs": [
        {
          "internalType": "address",
          "name": "owner",
          "type": "address"
        }
      ],
      "name": "batchesOwned",
      "outputs": [
        {
          "internalType": "uint256[]",
          "name": "",
          "type": "uint256[]"
        }
      ],
      "stateMutability": "view",
      "type": "function",
      "constant": true
    },
    {
      "inputs": [
        {
          "internalType": "address",
          "name": "to",
          "type": "address"
        },
        {
          "internalType": "uint256",
          "name": "batchId",
          "type": "uint256"
        },
        {
          "internalType": "uint256",
          "name": "quantity",
          "type": "uint256"
        }
      ],
      "name": "transfer",
      "outputs": [],
      "stateMutability": "nonpayable",
      "type": "function"
    },
    {
      "inputs": [
        {
          "internalType": "address",
          "name": "to",
          "type": "address"
        },
        {
          "internalType": "uint256",
          "name": "batchId",
          "type": "uint256"
        },
        {
          "internalType": "uint256",
          "name": "quantity",
          "type": "uint256"
        }
      ],
      "name": "approve",
      "outputs": [],
      "stateMutability": "nonpayable",
      "type": "function"
    },
    {
      "inputs": [
        {
          "internalType": "address",
          "name": "to",
          "type": "address"
        }
      ],
      "name": "approveAll",
      "outputs": [],
      "stateMutability": "nonpayable",
      "type": "function"
    },
    {
      "inputs": [
        {
          "internalType": "address",
          "name": "to",
          "type": "address"
        },
        {
          "internalType": "uint256",
          "name": "batchId",
          "type": "uint256"
        }
      ],
      "name": "vaccinate",
      "outputs": [],
      "stateMutability": "nonpayable",
      "type": "function"
    },
    {
      "inputs": [
        {
          "internalType": "address",
          "name": "from",
          "type": "address"
        },
        {
          "internalType": "address",
          "name": "to",
          "type": "address"
        },
        {
          "internalType": "uint256",
          "name": "batchId",
          "type": "uint256"
        }
      ],
      "name": "transferFrom",
      "outputs": [],
      "stateMutability": "nonpayable",
      "type": "function"
    },
    {
      "inputs": [
        {
          "internalType": "uint256",
          "name": "batchId",
          "type": "uint256"
        },
        {
          "internalType": "string",
          "name": "batch_name",
          "type": "string"
        },
        {
          "internalType": "uint256",
          "name": "defrost_date",
          "type": "uint256"
        },
        {
          "internalType": "uint256",
          "name": "manufacture_expiry",
          "type": "uint256"
        },
        {
          "internalType": "uint256",
          "name": "use_by_date",
          "type": "uint256"
        },
        {
          "internalType": "uint256",
          "name": "units",
          "type": "uint256"
        }
      ],
      "name": "addBatch",
      "outputs": [],
      "stateMutability": "nonpayable",
      "type": "function"
    },
    {
      "inputs": [
        {
          "internalType": "uint256",
          "name": "batch_id",
          "type": "uint256"
        }
      ],
      "name": "checkBatch",
      "outputs": [],
      "stateMutability": "view",
      "type": "function",
      "constant": true
    },
    {
      "inputs": [],
      "name": "getVaccineSchedule",
      "outputs": [
        {
          "internalType": "uint256[]",
          "name": "",
          "type": "uint256[]"
        }
      ],
      "stateMutability": "view",
      "type": "function",
      "constant": true
    },
    {
      "inputs": [],
      "name": "getVaccineScheduleLength",
      "outputs": [
        {
          "internalType": "uint256",
          "name": "",
          "type": "uint256"
        }
      ],
      "stateMutability": "view",
      "type": "function",
      "constant": true
    }
  ],
  "bytecode": "0x60806040523480156200001157600080fd5b5060405162002776380380620027768339818101604052810190620000379190620001e0565b81600090805190602001906200004f929190620000b2565b50806001908051906020019062000068929190620000b2565b5033600360006101000a81548173ffffffffffffffffffffffffffffffffffffffff021916908373ffffffffffffffffffffffffffffffffffffffff1602179055505050620003e9565b828054620000c090620002fa565b90600052602060002090601f016020900481019282620000e4576000855562000130565b82601f10620000ff57805160ff191683800117855562000130565b8280016001018555821562000130579182015b828111156200012f57825182559160200191906001019062000112565b5b5090506200013f919062000143565b5090565b5b808211156200015e57600081600090555060010162000144565b5090565b60006200017962000173846200028e565b62000265565b905082815260208101848484011115620001985762000197620003c9565b5b620001a5848285620002c4565b509392505050565b600082601f830112620001c557620001c4620003c4565b5b8151620001d784826020860162000162565b91505092915050565b60008060408385031215620001fa57620001f9620003d3565b5b600083015167ffffffffffffffff8111156200021b576200021a620003ce565b5b6200022985828601620001ad565b925050602083015167ffffffffffffffff8111156200024d576200024c620003ce565b5b6200025b85828601620001ad565b9150509250929050565b60006200027162000284565b90506200027f828262000330565b919050565b6000604051905090565b600067ffffffffffffffff821115620002ac57620002ab62000395565b5b620002b782620003d8565b9050602081019050919050565b60005b83811015620002e4578082015181840152602081019050620002c7565b83811115620002f4576000848401525b50505050565b600060028204905060018216806200031357607f821691505b602082108114156200032a576200032962000366565b5b50919050565b6200033b82620003d8565b810181811067ffffffffffffffff821117156200035d576200035c62000395565b5b80604052505050565b7f4e487b7100000000000000000000000000000000000000000000000000000000600052602260045260246000fd5b7f4e487b7100000000000000000000000000000000000000000000000000000000600052604160045260246000fd5b600080fd5b600080fd5b600080fd5b600080fd5b6000601f19601f8301169050919050565b61237d80620003f96000396000f3fe608060405234801561001057600080fd5b506004361061012b5760003560e01c80635bffa991116100ad578063b32c4d8d11610071578063b32c4d8d1461031c578063b4a99a4e14610351578063b8e8162c1461036f578063dcb7b1b71461038b578063e45155c5146103a95761012b565b80635bffa99114610288578063682fbf81146102a65780636ff120f1146102c2578063809051db146102e057806395d89b41146102fe5761012b565b806318160ddd116100f457806318160ddd146101e657806323b872dd14610204578063310c3109146102205780633456d5661461023c578063426a84931461026c5761012b565b8062fdd58e146101305780630621472c1461016057806306fdde031461017c578063095bcdb61461019a57806317be1933146101b6575b600080fd5b61014a6004803603810190610145919061193e565b6103d9565b6040516101579190611e6e565b60405180910390f35b61017a600480360381019061017591906118be565b610434565b005b6101846104cc565b6040516101919190611cfd565b60405180910390f35b6101b460048036038101906101af919061197e565b61055a565b005b6101d060048036038101906101cb91906119d1565b61079d565b6040516101dd9190611e6e565b60405180910390f35b6101ee6107ba565b6040516101fb9190611e6e565b60405180910390f35b61021e600480360381019061021991906118eb565b6107c4565b005b61023a600480360381019061023591906119fe565b610a8b565b005b610256600480360381019061025191906118be565b610d4a565b6040516102639190611cdb565b60405180910390f35b6102866004803603810190610281919061197e565b610f5f565b005b610290611102565b60405161029d9190611e6e565b60405180910390f35b6102c060048036038101906102bb919061193e565b61110f565b005b6102ca6112ba565b6040516102d79190611cdb565b60405180910390f35b6102e8611312565b6040516102f59190611cfd565b60405180910390f35b6103066113a0565b6040516103139190611cfd565b60405180910390f35b610336600480360381019061033191906119d1565b61142e565b60405161034896959493929190611d1f565b60405180910390f35b61035961157a565b6040516103669190611cc0565b60405180910390f35b610389600480360381019061038491906119d1565b6115a0565b005b610393611733565b6040516103a09190611e6e565b60405180910390f35b6103c360048036038101906103be91906119d1565b611739565b6040516103d09190611e6e565b60405180910390f35b6000600960008473ffffffffffffffffffffffffffffffffffffffff1673ffffffffffffffffffffffffffffffffffffffff168152602001908152602001600020600083815260200190815260200160002054905092915050565b6001600760003373ffffffffffffffffffffffffffffffffffffffff1673ffffffffffffffffffffffffffffffffffffffff16815260200190815260200160002060008373ffffffffffffffffffffffffffffffffffffffff1673ffffffffffffffffffffffffffffffffffffffff16815260200190815260200160002060006101000a81548160ff02191690831515021790555050565b600080546104d990612047565b80601f016020809104026020016040519081016040528092919081815260200182805461050590612047565b80156105525780601f1061052757610100808354040283529160200191610552565b820191906000526020600020905b81548152906001019060200180831161053557829003601f168201915b505050505081565b80600960003373ffffffffffffffffffffffffffffffffffffffff1673ffffffffffffffffffffffffffffffffffffffff16815260200190815260200160002060008481526020019081526020016000205410156105ed576040517f08c379a00000000000000000000000000000000000000000000000000000000081526004016105e490611dae565b60405180910390fd5b80600960003373ffffffffffffffffffffffffffffffffffffffff1673ffffffffffffffffffffffffffffffffffffffff1681526020019081526020016000206000848152602001908152602001600020600082825461064d9190611f95565b9250508190555080600960008573ffffffffffffffffffffffffffffffffffffffff1673ffffffffffffffffffffffffffffffffffffffff168152602001908152602001600020600084815260200190815260200160002060008282546106b49190611f3f565b925050819055506106c3611751565b6040518060400160405280600073ffffffffffffffffffffffffffffffffffffffff1681526020016000815250905080600a60003373ffffffffffffffffffffffffffffffffffffffff1673ffffffffffffffffffffffffffffffffffffffff168152602001908152602001600020600085815260200190815260200160002060008201518160000160006101000a81548173ffffffffffffffffffffffffffffffffffffffff021916908373ffffffffffffffffffffffffffffffffffffffff1602179055506020820151816001015590505050505050565b600060086000838152602001908152602001600020549050919050565b6000600554905090565b6000600a60008573ffffffffffffffffffffffffffffffffffffffff1673ffffffffffffffffffffffffffffffffffffffff168152602001908152602001600020600083815260200190815260200160002090506000816001015490508373ffffffffffffffffffffffffffffffffffffffff168260000160009054906101000a900473ffffffffffffffffffffffffffffffffffffffff1673ffffffffffffffffffffffffffffffffffffffff161480156108d05750600960008673ffffffffffffffffffffffffffffffffffffffff1673ffffffffffffffffffffffffffffffffffffffff1681526020019081526020016000206000848152602001908152602001600020548110155b6108d957600080fd5b80600960008773ffffffffffffffffffffffffffffffffffffffff1673ffffffffffffffffffffffffffffffffffffffff168152602001908152602001600020600085815260200190815260200160002060008282546109399190611f95565b9250508190555080600960008673ffffffffffffffffffffffffffffffffffffffff1673ffffffffffffffffffffffffffffffffffffffff168152602001908152602001600020600085815260200190815260200160002060008282546109a09190611f3f565b925050819055506109af611751565b6040518060400160405280600073ffffffffffffffffffffffffffffffffffffffff1681526020016000815250905080600a60008873ffffffffffffffffffffffffffffffffffffffff1673ffffffffffffffffffffffffffffffffffffffff168152602001908152602001600020600086815260200190815260200160002060008201518160000160006101000a81548173ffffffffffffffffffffffffffffffffffffffff021916908373ffffffffffffffffffffffffffffffffffffffff16021790555060208201518160010155905050505050505050565b600360009054906101000a900473ffffffffffffffffffffffffffffffffffffffff1673ffffffffffffffffffffffffffffffffffffffff163373ffffffffffffffffffffffffffffffffffffffff1614610b1b576040517f08c379a0000000000000000000000000000000000000000000000000000000008152600401610b1290611dee565b60405180910390fd5b428410610b5d576040517f08c379a0000000000000000000000000000000000000000000000000000000008152600401610b5490611dce565b60405180910390fd5b428311610b9f576040517f08c379a0000000000000000000000000000000000000000000000000000000008152600401610b9690611e2e565b60405180910390fd5b428211610be1576040517f08c379a0000000000000000000000000000000000000000000000000000000008152600401610bd890611e4e565b60405180910390fd5b84600b60008881526020019081526020016000206000019080519060200190610c0b929190611781565b5083600b60008881526020019081526020016000206001018190555082600b60008881526020019081526020016000206002018190555081600b60008881526020019081526020016000206003018190555080600b60008881526020019081526020016000206004018190555080600960003373ffffffffffffffffffffffffffffffffffffffff1673ffffffffffffffffffffffffffffffffffffffff1681526020019081526020016000206000888152602001908152602001600020819055508060056000828254610cdf9190611f3f565b92505081905550600160066000828254610cf99190611f3f565b9250508190555084604051610d0e9190611ca9565b60405180910390207ff83fcb896ea7199c4d58a8a4ab92545a6dcb43b6d1026c5e8213b8f905b102d160405160405180910390a2505050505050565b606060006001600654610d5d9190611f95565b67ffffffffffffffff811115610d7657610d75612180565b5b604051908082528060200260200182016040528015610da45781602001602082028036833780820191505090505b509050600080600190505b600654811015610ead576000600960008773ffffffffffffffffffffffffffffffffffffffff1673ffffffffffffffffffffffffffffffffffffffff16815260200190815260200160002060008381526020019081526020016000205414610e9a576000600960008773ffffffffffffffffffffffffffffffffffffffff1673ffffffffffffffffffffffffffffffffffffffff16815260200190815260200160002060008381526020019081526020016000205414610e8a5780838381518110610e7d57610e7c612151565b5b6020026020010181815250505b600182610e979190611f3f565b91505b8080610ea5906120aa565b915050610daf565b5060008167ffffffffffffffff811115610eca57610ec9612180565b5b604051908082528060200260200182016040528015610ef85781602001602082028036833780820191505090505b50905060005b82811015610f5357838181518110610f1957610f18612151565b5b6020026020010151828281518110610f3457610f33612151565b5b6020026020010181815250508080610f4b906120aa565b915050610efe565b50809350505050919050565b80600960003373ffffffffffffffffffffffffffffffffffffffff1673ffffffffffffffffffffffffffffffffffffffff1681526020019081526020016000206000848152602001908152602001600020541015610fbc57600080fd5b610fc4611751565b60405180604001604052808573ffffffffffffffffffffffffffffffffffffffff16815260200183815250905080600a60003373ffffffffffffffffffffffffffffffffffffffff1673ffffffffffffffffffffffffffffffffffffffff168152602001908152602001600020600085815260200190815260200160002060008201518160000160006101000a81548173ffffffffffffffffffffffffffffffffffffffff021916908373ffffffffffffffffffffffffffffffffffffffff16021790555060208201518160010155905050828473ffffffffffffffffffffffffffffffffffffffff163373ffffffffffffffffffffffffffffffffffffffff167fb3fd5071835887567a0671151121894ddccc2842f1d10bedad13e0d17cace9a7856040516110f49190611e6e565b60405180910390a450505050565b6000600480549050905090565b6000600960003373ffffffffffffffffffffffffffffffffffffffff1673ffffffffffffffffffffffffffffffffffffffff168152602001908152602001600020600083815260200190815260200160002054116111a2576040517f08c379a000000000000000000000000000000000000000000000000000000000815260040161119990611d8e565b60405180910390fd5b6001600960003373ffffffffffffffffffffffffffffffffffffffff1673ffffffffffffffffffffffffffffffffffffffff168152602001908152602001600020600083815260200190815260200160002060008282546112039190611f95565b925050819055506001600960008473ffffffffffffffffffffffffffffffffffffffff1673ffffffffffffffffffffffffffffffffffffffff1681526020019081526020016000206000838152602001908152602001600020600082825461126b9190611f3f565b92505081905550808273ffffffffffffffffffffffffffffffffffffffff167f69fa4a7ace57e4c9a8c86a2b9b4948a033cf681e89a8a35426f8f191ed7e2eea60405160405180910390a35050565b6060600480548060200260200160405190810160405280929190818152602001828054801561130857602002820191906000526020600020905b8154815260200190600101908083116112f4575b5050505050905090565b6002805461131f90612047565b80601f016020809104026020016040519081016040528092919081815260200182805461134b90612047565b80156113985780601f1061136d57610100808354040283529160200191611398565b820191906000526020600020905b81548152906001019060200180831161137b57829003601f168201915b505050505081565b600180546113ad90612047565b80601f01602080910402602001604051908101604052809291908181526020018280546113d990612047565b80156114265780601f106113fb57610100808354040283529160200191611426565b820191906000526020600020905b81548152906001019060200180831161140957829003601f168201915b505050505081565b600b60205280600052604060002060009150905080600001805461145190612047565b80601f016020809104026020016040519081016040528092919081815260200182805461147d90612047565b80156114ca5780601f1061149f576101008083540402835291602001916114ca565b820191906000526020600020905b8154815290600101906020018083116114ad57829003601f168201915b5050505050908060010154908060020154908060030154908060040154908060050180546114f790612047565b80601f016020809104026020016040519081016040528092919081815260200182805461152390612047565b80156115705780601f1061154557610100808354040283529160200191611570565b820191906000526020600020905b81548152906001019060200180831161155357829003601f168201915b5050505050905086565b600360009054906101000a900473ffffffffffffffffffffffffffffffffffffffff1681565b600081116115e3576040517f08c379a00000000000000000000000000000000000000000000000000000000081526004016115da90611e0e565b60405180910390fd5b600654811115611628576040517f08c379a000000000000000000000000000000000000000000000000000000000815260040161161f90611e0e565b60405180910390fd5b42600b60008381526020019081526020016000206001015410611680576040517f08c379a000000000000000000000000000000000000000000000000000000000815260040161167790611dce565b60405180910390fd5b42600b600083815260200190815260200160002060020154116116d8576040517f08c379a00000000000000000000000000000000000000000000000000000000081526004016116cf90611e2e565b60405180910390fd5b42600b60008381526020019081526020016000206003015411611730576040517f08c379a000000000000000000000000000000000000000000000000000000000815260040161172790611e4e565b60405180910390fd5b50565b60055481565b60086020528060005260406000206000915090505481565b6040518060400160405280600073ffffffffffffffffffffffffffffffffffffffff168152602001600081525090565b82805461178d90612047565b90600052602060002090601f0160209004810192826117af57600085556117f6565b82601f106117c857805160ff19168380011785556117f6565b828001600101855582156117f6579182015b828111156117f55782518255916020019190600101906117da565b5b5090506118039190611807565b5090565b5b80821115611820576000816000905550600101611808565b5090565b600061183761183284611eae565b611e89565b905082815260208101848484011115611853576118526121b4565b5b61185e848285612005565b509392505050565b60008135905061187581612319565b92915050565b600082601f8301126118905761188f6121af565b5b81356118a0848260208601611824565b91505092915050565b6000813590506118b881612330565b92915050565b6000602082840312156118d4576118d36121be565b5b60006118e284828501611866565b91505092915050565b600080600060608486031215611904576119036121be565b5b600061191286828701611866565b935050602061192386828701611866565b9250506040611934868287016118a9565b9150509250925092565b60008060408385031215611955576119546121be565b5b600061196385828601611866565b9250506020611974858286016118a9565b9150509250929050565b600080600060608486031215611997576119966121be565b5b60006119a586828701611866565b93505060206119b6868287016118a9565b92505060406119c7868287016118a9565b9150509250925092565b6000602082840312156119e7576119e66121be565b5b60006119f5848285016118a9565b91505092915050565b60008060008060008060c08789031215611a1b57611a1a6121be565b5b6000611a2989828a016118a9565b965050602087013567ffffffffffffffff811115611a4a57611a496121b9565b5b611a5689828a0161187b565b9550506040611a6789828a016118a9565b9450506060611a7889828a016118a9565b9350506080611a8989828a016118a9565b92505060a0611a9a89828a016118a9565b9150509295509295509295565b6000611ab38383611c8b565b60208301905092915050565b611ac881611fc9565b82525050565b6000611ad982611eef565b611ae38185611f12565b9350611aee83611edf565b8060005b83811015611b1f578151611b068882611aa7565b9750611b1183611f05565b925050600181019050611af2565b5085935050505092915050565b6000611b3782611efa565b611b418185611f23565b9350611b51818560208601612014565b611b5a816121c3565b840191505092915050565b6000611b7082611efa565b611b7a8185611f34565b9350611b8a818560208601612014565b80840191505092915050565b6000611ba3601283611f23565b9150611bae826121d4565b602082019050919050565b6000611bc6601983611f23565b9150611bd1826121fd565b602082019050919050565b6000611be9601c83611f23565b9150611bf482612226565b602082019050919050565b6000611c0c602083611f23565b9150611c178261224f565b602082019050919050565b6000611c2f600d83611f23565b9150611c3a82612278565b602082019050919050565b6000611c52600783611f23565b9150611c5d826122a1565b602082019050919050565b6000611c75602283611f23565b9150611c80826122ca565b604082019050919050565b611c9481611ffb565b82525050565b611ca381611ffb565b82525050565b6000611cb58284611b65565b915081905092915050565b6000602082019050611cd56000830184611abf565b92915050565b60006020820190508181036000830152611cf58184611ace565b905092915050565b60006020820190508181036000830152611d178184611b2c565b905092915050565b600060c0820190508181036000830152611d398189611b2c565b9050611d486020830188611c9a565b611d556040830187611c9a565b611d626060830186611c9a565b611d6f6080830185611c9a565b81810360a0830152611d818184611b2c565b9050979650505050505050565b60006020820190508181036000830152611da781611b96565b9050919050565b60006020820190508181036000830152611dc781611bb9565b9050919050565b60006020820190508181036000830152611de781611bdc565b9050919050565b60006020820190508181036000830152611e0781611bff565b9050919050565b60006020820190508181036000830152611e2781611c22565b9050919050565b60006020820190508181036000830152611e4781611c45565b9050919050565b60006020820190508181036000830152611e6781611c68565b9050919050565b6000602082019050611e836000830184611c9a565b92915050565b6000611e93611ea4565b9050611e9f8282612079565b919050565b6000604051905090565b600067ffffffffffffffff821115611ec957611ec8612180565b5b611ed2826121c3565b9050602081019050919050565b6000819050602082019050919050565b600081519050919050565b600081519050919050565b6000602082019050919050565b600082825260208201905092915050565b600082825260208201905092915050565b600081905092915050565b6000611f4a82611ffb565b9150611f5583611ffb565b9250827fffffffffffffffffffffffffffffffffffffffffffffffffffffffffffffffff03821115611f8a57611f896120f3565b5b828201905092915050565b6000611fa082611ffb565b9150611fab83611ffb565b925082821015611fbe57611fbd6120f3565b5b828203905092915050565b6000611fd482611fdb565b9050919050565b600073ffffffffffffffffffffffffffffffffffffffff82169050919050565b6000819050919050565b82818337600083830152505050565b60005b83811015612032578082015181840152602081019050612017565b83811115612041576000848401525b50505050565b6000600282049050600182168061205f57607f821691505b6020821081141561207357612072612122565b5b50919050565b612082826121c3565b810181811067ffffffffffffffff821117156120a1576120a0612180565b5b80604052505050565b60006120b582611ffb565b91507fffffffffffffffffffffffffffffffffffffffffffffffffffffffffffffffff8214156120e8576120e76120f3565b5b600182019050919050565b7f4e487b7100000000000000000000000000000000000000000000000000000000600052601160045260246000fd5b7f4e487b7100000000000000000000000000000000000000000000000000000000600052602260045260246000fd5b7f4e487b7100000000000000000000000000000000000000000000000000000000600052603260045260246000fd5b7f4e487b7100000000000000000000000000000000000000000000000000000000600052604160045260246000fd5b600080fd5b600080fd5b600080fd5b600080fd5b6000601f19601f8301169050919050565b7f4e6f7420656e6f7567682076616363696e650000000000000000000000000000600082015250565b7f4f776e657220646f206e6f7420686f6c642076616363696e6500000000000000600082015250565b7f4d7573742062652070726576696f75736c7920646566726f7374656400000000600082015250565b7f4f6e6c7920506861726d6163792063616e20616464207468652062617463682e600082015250565b7f496e76616c696420626174636800000000000000000000000000000000000000600082015250565b7f4578706972656400000000000000000000000000000000000000000000000000600082015250565b7f4d7573742062652075736564207072696f7220746f207573652062792064617460008201527f652e000000000000000000000000000000000000000000000000000000000000602082015250565b61232281611fc9565b811461232d57600080fd5b50565b61233981611ffb565b811461234457600080fd5b5056fea264697066735822122005a302f7f4d65b7f1be65ba79f7ea0b2d678af11767312a696d58509e824c0dd64736f6c63430008050033",
  "immutableReferences": {},
  "source": "// SPDX-License-Identifier: MIT\npragma solidity >= 0.7.5;\npragma experimental ABIEncoderV2;\n\n/**\n * @title SafeMath\n * @dev Math operations with safety checks that throw on error\n */\nlibrary SafeMath {\n\n  /**\n  * @dev Multiplies two numbers, throws on overflow.\n  */\n  function mul(uint256 a, uint256 b) internal pure returns (uint256 c) {\n    if (a == 0) {\n      return 0;\n    }\n    c = a * b;\n    assert(c / a == b);\n    return c;\n  }\n\n  /**\n  * @dev Integer division of two numbers, truncating the quotient.\n  */\n  function div(uint256 a, uint256 b) internal pure returns (uint256) {\n    // assert(b > 0); // Solidity automatically throws when dividing by 0\n    // uint256 c = a / b;\n    // assert(a == b * c + a % b); // There is no case in which this doesn't hold\n    return a / b;\n  }\n\n  /**\n  * @dev Subtracts two numbers, throws on overflow (i.e. if subtrahend is greater than minuend).\n  */\n  function sub(uint256 a, uint256 b) internal pure returns (uint256) {\n    assert(b <= a);\n    return a - b;\n  }\n\n  /**\n  * @dev Adds two numbers, throws on overflow.\n  */\n  function add(uint256 a, uint256 b) internal pure returns (uint256 c) {\n    c = a + b;\n    assert(c >= a);\n    return c;\n  }\n}\n\n\ncontract Vaccine {\n  using SafeMath for uint256;\n\n  string public name;\n  string public symbol;\n  string public ipfs_hash;\n\n  address public Owner;\n\n  uint256[] private schedule;\n\n  struct Batch {\n    string batch_name;\n    uint256 defrost_date;\n    uint256 manufacture_expiry;\n    uint256 use_by_date;\n    uint256 units;\n    string ipfs_hash;\n  }\n\n  uint256 public vaccineCount;\n  uint256 currentBatch;\n  struct Transactor {\n    address actor;\n    uint256 amount;\n  }\n\n  mapping (address => mapping(address => bool)) fullApprovals;\n\n  mapping(uint256 => uint256) public batchIdToSupply;\n  mapping(address => mapping(uint256 => uint256)) ownerToBatchToBalance;\n  mapping(address => mapping(uint256 => Transactor)) approvals;\n  mapping(uint256 => Batch) public batches;\n\n  event Transfer(address indexed from, address indexed to, uint256 indexed batchId, uint256 units);\n  event Approval(address indexed from, address indexed to, uint256 indexed batchId, uint256 units);\n  event NewBatch(string indexed batch_name);\n  event Vaccined(address indexed to, uint256 indexed batchId);\n\n  // Constructor\n  constructor(string memory _name, string memory _symbol) {\n    name = _name;\n    symbol = _symbol;\n    Owner = msg.sender;\n  }\n\n  function totalSupply() public view returns (uint256) {\n    return vaccineCount;\n  }\n\n  function individualSupply(uint256 batchId) public view returns (uint256) {\n    return batchIdToSupply[batchId];\n  }\n\n  function balanceOf(address owner, uint256 batchId) public view returns (uint256) {\n    /* if (ownerToBatchToBalance[owner] == 0) return 0; */\n    return ownerToBatchToBalance[owner][batchId];\n  }\n\n  // class of 0 is meaningless and should be ignored.\n  function batchesOwned(address owner) public view returns (uint256[] memory){\n    uint256[] memory tempBatches = new uint256[](currentBatch - 1);\n    uint256 count = 0;\n    for (uint256 i = 1; i < currentBatch; i++){\n      if (ownerToBatchToBalance[owner][i] != 0){\n        if (ownerToBatchToBalance[owner][i] != 0){\n          tempBatches[count] = i;\n        }\n        count += 1;\n      }\n    }\n    uint256[] memory batches_ = new uint256[](count);\n    for (uint i = 0; i < count; i++){\n      batches_[i] = tempBatches[i];\n    }\n    return batches_;\n  }\n\n  function transfer(address to, uint256 batchId, uint256 quantity) public {\n    require(ownerToBatchToBalance[msg.sender][batchId] >= quantity, \"Owner do not hold vaccine\");\n    ownerToBatchToBalance[msg.sender][batchId] -= quantity;\n    ownerToBatchToBalance[to][batchId] += quantity;\n    Transactor memory zeroApproval;\n    zeroApproval = Transactor(address(0), 0);\n    approvals[msg.sender][batchId] = zeroApproval;\n  }\n\n  function approve(address to, uint256 batchId, uint256 quantity) public {\n    require(ownerToBatchToBalance[msg.sender][batchId] >= quantity);\n    Transactor memory takerApproval;\n    takerApproval = Transactor(to, quantity);\n    approvals[msg.sender][batchId] = takerApproval;\n    emit Approval(msg.sender, to, batchId, quantity);\n  }\n\n  function approveAll(address to) public {\n    fullApprovals[msg.sender][to] = true;\n  }\n\n  function vaccinate(address to, uint256 batchId) public {\n    require(ownerToBatchToBalance[msg.sender][batchId]>0, \"Not enough vaccine\");\n    ownerToBatchToBalance[msg.sender][batchId] -= 1;\n    ownerToBatchToBalance[to][batchId] += 1;\n    emit Vaccined(to, batchId);\n  }\n\n  function transferFrom(address from, address to, uint256 batchId) public {\n    Transactor storage takerApproval = approvals[from][batchId];\n    uint256 quantity = takerApproval.amount;\n    require(takerApproval.actor == to && quantity >= ownerToBatchToBalance[from][batchId]);\n    ownerToBatchToBalance[from][batchId] -= quantity;\n    ownerToBatchToBalance[to][batchId] += quantity;\n    Transactor memory zeroApproval;\n    zeroApproval = Transactor(address(0), 0);\n    approvals[from][batchId] = zeroApproval;\n  }\n\n  function addBatch(uint256 batchId, string memory batch_name, uint256 defrost_date, uint256 manufacture_expiry, uint256 use_by_date, uint256 units) public {\n    require(msg.sender == Owner, \"Only Pharmacy can add the batch.\");\n    require(defrost_date < block.timestamp, \"Must be previously defrosted\");\n    require(manufacture_expiry > block.timestamp, \"Expired\");\n    require(\n        use_by_date > block.timestamp,\n        \"Must be used prior to use by date.\"\n    );\n\n    batches[batchId].batch_name = batch_name;\n    batches[batchId].defrost_date = defrost_date;\n    batches[batchId].manufacture_expiry = manufacture_expiry;\n    batches[batchId].use_by_date = use_by_date;\n    batches[batchId].units = units;\n    ownerToBatchToBalance[msg.sender][batchId] = units;\n\n    vaccineCount += units;\n    currentBatch += 1;\n    emit NewBatch(batch_name);\n  }\n\n  function checkBatch(uint256 batch_id) public view {\n      require(batch_id > 0, \"Invalid batch\");\n      require(batch_id <= currentBatch, \"Invalid batch\");\n      require(\n          batches[batch_id].defrost_date < block.timestamp,\n          \"Must be previously defrosted\"\n      );\n      require(\n          batches[batch_id].manufacture_expiry >\n              block.timestamp,\n          \"Expired\"\n      );\n      require(\n          batches[batch_id].use_by_date > block.timestamp,\n          \"Must be used prior to use by date.\"\n      );\n  }\n\n  function getVaccineSchedule() public view returns(uint256[] memory){\n    return schedule;\n  }\n\n  function getVaccineScheduleLength() public view returns(uint256){\n    return schedule.length;\n  }\n\n}",
  "sourcePath": "/home/prajwolrg/School/Vaccination/vaccine-solidity/contracts/Vaccine.sol",
  "compiler": {
    "name": "solc",
    "version": "0.8.5+commit.a4f2e591.Emscripten.clang"
  },
  "schemaVersion": "3.4.4",
  "updatedAt": "2022-04-14T05:36:12.932Z",
  "networkType": "ethereum",
  "devdoc": {
    "kind": "dev",
    "methods": {},
    "version": 1
  },
  "userdoc": {
    "kind": "user",
    "methods": {},
    "version": 1
  }
}