{
  "contractName": "Vaccination",
  "abi": [
    {
      "inputs": [],
      "stateMutability": "nonpayable",
      "type": "constructor"
    },
    {
      "anonymous": false,
      "inputs": [
        {
          "indexed": true,
          "internalType": "string",
          "name": "vaccine_name",
          "type": "string"
        },
        {
          "indexed": true,
          "internalType": "uint256",
          "name": "batch_no",
          "type": "uint256"
        }
      ],
      "name": "AddBatch",
      "type": "event"
    },
    {
      "anonymous": false,
      "inputs": [
        {
          "indexed": true,
          "internalType": "address",
          "name": "org",
          "type": "address"
        },
        {
          "indexed": true,
          "internalType": "address",
          "name": "hp",
          "type": "address"
        }
      ],
      "name": "ApproveHealthPerson",
      "type": "event"
    },
    {
      "anonymous": false,
      "inputs": [
        {
          "indexed": true,
          "internalType": "string",
          "name": "org_name",
          "type": "string"
        }
      ],
      "name": "ApproveOrganization",
      "type": "event"
    },
    {
      "anonymous": false,
      "inputs": [
        {
          "indexed": true,
          "internalType": "string",
          "name": "vaccine_name",
          "type": "string"
        }
      ],
      "name": "ApproveVaccine",
      "type": "event"
    },
    {
      "anonymous": false,
      "inputs": [
        {
          "indexed": true,
          "internalType": "address",
          "name": "_from",
          "type": "address"
        }
      ],
      "name": "RegisterHealthPerson",
      "type": "event"
    },
    {
      "anonymous": false,
      "inputs": [
        {
          "indexed": true,
          "internalType": "address",
          "name": "_from",
          "type": "address"
        }
      ],
      "name": "RegisterIndividual",
      "type": "event"
    },
    {
      "anonymous": false,
      "inputs": [
        {
          "indexed": true,
          "internalType": "string",
          "name": "org_name",
          "type": "string"
        }
      ],
      "name": "RegisterOrganization",
      "type": "event"
    },
    {
      "anonymous": false,
      "inputs": [
        {
          "indexed": true,
          "internalType": "address",
          "name": "to",
          "type": "address"
        },
        {
          "indexed": true,
          "internalType": "string",
          "name": "vaccine_name",
          "type": "string"
        },
        {
          "indexed": false,
          "internalType": "uint256",
          "name": "batch_no",
          "type": "uint256"
        }
      ],
      "name": "TransferVaccine",
      "type": "event"
    },
    {
      "anonymous": false,
      "inputs": [
        {
          "indexed": true,
          "internalType": "address",
          "name": "to",
          "type": "address"
        },
        {
          "indexed": true,
          "internalType": "address",
          "name": "from",
          "type": "address"
        },
        {
          "indexed": true,
          "internalType": "string",
          "name": "vaccine",
          "type": "string"
        },
        {
          "indexed": false,
          "internalType": "uint256",
          "name": "batch_id",
          "type": "uint256"
        }
      ],
      "name": "Vaccinate",
      "type": "event"
    },
    {
      "inputs": [
        {
          "internalType": "string",
          "name": "",
          "type": "string"
        },
        {
          "internalType": "uint256",
          "name": "",
          "type": "uint256"
        }
      ],
      "name": "approvedBatches",
      "outputs": [
        {
          "internalType": "uint256",
          "name": "batch_id",
          "type": "uint256"
        },
        {
          "internalType": "uint256",
          "name": "defrost_date",
          "type": "uint256"
        },
        {
          "internalType": "uint256",
          "name": "manufacture_expiry",
          "type": "uint256"
        },
        {
          "internalType": "uint256",
          "name": "use_by_date",
          "type": "uint256"
        },
        {
          "internalType": "string",
          "name": "ipfs_hash",
          "type": "string"
        },
        {
          "internalType": "uint256",
          "name": "vaccined",
          "type": "uint256"
        }
      ],
      "stateMutability": "view",
      "type": "function",
      "constant": true
    },
    {
      "inputs": [
        {
          "internalType": "string",
          "name": "",
          "type": "string"
        },
        {
          "internalType": "uint256",
          "name": "",
          "type": "uint256"
        },
        {
          "internalType": "address",
          "name": "",
          "type": "address"
        }
      ],
      "name": "approvedOperators",
      "outputs": [
        {
          "internalType": "uint256",
          "name": "",
          "type": "uint256"
        }
      ],
      "stateMutability": "view",
      "type": "function",
      "constant": true
    },
    {
      "inputs": [
        {
          "internalType": "uint256",
          "name": "",
          "type": "uint256"
        }
      ],
      "name": "approvedVaccineNames",
      "outputs": [
        {
          "internalType": "string",
          "name": "",
          "type": "string"
        }
      ],
      "stateMutability": "view",
      "type": "function",
      "constant": true
    },
    {
      "inputs": [
        {
          "internalType": "string",
          "name": "",
          "type": "string"
        }
      ],
      "name": "approvedVaccines",
      "outputs": [
        {
          "internalType": "string",
          "name": "name",
          "type": "string"
        },
        {
          "internalType": "string",
          "name": "ipfs_hash",
          "type": "string"
        },
        {
          "internalType": "bool",
          "name": "approved",
          "type": "bool"
        },
        {
          "internalType": "uint256",
          "name": "vaccined",
          "type": "uint256"
        }
      ],
      "stateMutability": "view",
      "type": "function",
      "constant": true
    },
    {
      "inputs": [],
      "name": "fullyVaccinated",
      "outputs": [
        {
          "internalType": "uint256",
          "name": "",
          "type": "uint256"
        }
      ],
      "stateMutability": "view",
      "type": "function",
      "constant": true
    },
    {
      "inputs": [
        {
          "internalType": "address",
          "name": "",
          "type": "address"
        }
      ],
      "name": "healthPersons",
      "outputs": [
        {
          "internalType": "address",
          "name": "org",
          "type": "address"
        },
        {
          "internalType": "bool",
          "name": "approved",
          "type": "bool"
        }
      ],
      "stateMutability": "view",
      "type": "function",
      "constant": true
    },
    {
      "inputs": [
        {
          "internalType": "address",
          "name": "",
          "type": "address"
        }
      ],
      "name": "organizations",
      "outputs": [
        {
          "internalType": "string",
          "name": "name",
          "type": "string"
        },
        {
          "internalType": "string",
          "name": "url",
          "type": "string"
        },
        {
          "internalType": "string",
          "name": "document_hash",
          "type": "string"
        },
        {
          "internalType": "string",
          "name": "logo_hash",
          "type": "string"
        },
        {
          "internalType": "string",
          "name": "location",
          "type": "string"
        },
        {
          "internalType": "string",
          "name": "phone",
          "type": "string"
        },
        {
          "internalType": "string",
          "name": "email",
          "type": "string"
        },
        {
          "internalType": "bool",
          "name": "approved",
          "type": "bool"
        },
        {
          "internalType": "bool",
          "name": "registration",
          "type": "bool"
        },
        {
          "internalType": "uint256",
          "name": "vaccined",
          "type": "uint256"
        }
      ],
      "stateMutability": "view",
      "type": "function",
      "constant": true
    },
    {
      "inputs": [
        {
          "internalType": "uint256",
          "name": "",
          "type": "uint256"
        }
      ],
      "name": "organizationsList",
      "outputs": [
        {
          "internalType": "address",
          "name": "",
          "type": "address"
        }
      ],
      "stateMutability": "view",
      "type": "function",
      "constant": true
    },
    {
      "inputs": [],
      "name": "partiallyVaccinated",
      "outputs": [
        {
          "internalType": "uint256",
          "name": "",
          "type": "uint256"
        }
      ],
      "stateMutability": "view",
      "type": "function",
      "constant": true
    },
    {
      "inputs": [
        {
          "internalType": "address",
          "name": "",
          "type": "address"
        }
      ],
      "name": "roles",
      "outputs": [
        {
          "internalType": "enum Vaccination.Role",
          "name": "",
          "type": "uint8"
        }
      ],
      "stateMutability": "view",
      "type": "function",
      "constant": true
    },
    {
      "inputs": [],
      "name": "superAdmin",
      "outputs": [
        {
          "internalType": "address",
          "name": "",
          "type": "address"
        }
      ],
      "stateMutability": "view",
      "type": "function",
      "constant": true
    },
    {
      "inputs": [
        {
          "internalType": "address",
          "name": "",
          "type": "address"
        }
      ],
      "name": "users",
      "outputs": [
        {
          "internalType": "uint256",
          "name": "year_of_birth",
          "type": "uint256"
        },
        {
          "internalType": "enum Vaccination.Gender",
          "name": "gender",
          "type": "uint8"
        },
        {
          "internalType": "string",
          "name": "namehash",
          "type": "string"
        },
        {
          "internalType": "string",
          "name": "imagehash",
          "type": "string"
        },
        {
          "internalType": "uint256",
          "name": "vaccine_count",
          "type": "uint256"
        },
        {
          "internalType": "bool",
          "name": "registered",
          "type": "bool"
        }
      ],
      "stateMutability": "view",
      "type": "function",
      "constant": true
    },
    {
      "inputs": [
        {
          "internalType": "string",
          "name": "name",
          "type": "string"
        },
        {
          "internalType": "uint256[]",
          "name": "schedule",
          "type": "uint256[]"
        }
      ],
      "name": "approveVaccine",
      "outputs": [],
      "stateMutability": "nonpayable",
      "type": "function"
    },
    {
      "inputs": [
        {
          "internalType": "string",
          "name": "name",
          "type": "string"
        },
        {
          "internalType": "uint256",
          "name": "batch_id",
          "type": "uint256"
        },
        {
          "internalType": "uint256",
          "name": "defrost_date",
          "type": "uint256"
        },
        {
          "internalType": "uint256",
          "name": "manufacture_expiry",
          "type": "uint256"
        },
        {
          "internalType": "uint256",
          "name": "use_by_date",
          "type": "uint256"
        },
        {
          "internalType": "uint256",
          "name": "units",
          "type": "uint256"
        }
      ],
      "name": "addBatch",
      "outputs": [],
      "stateMutability": "nonpayable",
      "type": "function"
    },
    {
      "inputs": [
        {
          "internalType": "string",
          "name": "name",
          "type": "string"
        },
        {
          "internalType": "string",
          "name": "url",
          "type": "string"
        },
        {
          "internalType": "string",
          "name": "document_hash",
          "type": "string"
        },
        {
          "internalType": "string",
          "name": "logo_hash",
          "type": "string"
        },
        {
          "internalType": "string",
          "name": "location",
          "type": "string"
        },
        {
          "internalType": "string",
          "name": "phone",
          "type": "string"
        },
        {
          "internalType": "string",
          "name": "email",
          "type": "string"
        }
      ],
      "name": "registerOrganization",
      "outputs": [],
      "stateMutability": "payable",
      "type": "function",
      "payable": true
    },
    {
      "inputs": [
        {
          "internalType": "address",
          "name": "org",
          "type": "address"
        }
      ],
      "name": "approveOrganization",
      "outputs": [],
      "stateMutability": "nonpayable",
      "type": "function"
    },
    {
      "inputs": [
        {
          "internalType": "address",
          "name": "to",
          "type": "address"
        },
        {
          "internalType": "string",
          "name": "name",
          "type": "string"
        },
        {
          "internalType": "uint256",
          "name": "batch_id",
          "type": "uint256"
        },
        {
          "internalType": "uint256",
          "name": "units",
          "type": "uint256"
        }
      ],
      "name": "transfer",
      "outputs": [],
      "stateMutability": "nonpayable",
      "type": "function"
    },
    {
      "inputs": [
        {
          "internalType": "uint256",
          "name": "year_of_birth",
          "type": "uint256"
        },
        {
          "internalType": "enum Vaccination.Gender",
          "name": "gender",
          "type": "uint8"
        },
        {
          "internalType": "string",
          "name": "namehash",
          "type": "string"
        },
        {
          "internalType": "string",
          "name": "imagehash",
          "type": "string"
        }
      ],
      "name": "registerIndividual",
      "outputs": [],
      "stateMutability": "nonpayable",
      "type": "function"
    },
    {
      "inputs": [
        {
          "internalType": "address",
          "name": "person",
          "type": "address"
        }
      ],
      "name": "approveHealthPerson",
      "outputs": [],
      "stateMutability": "nonpayable",
      "type": "function"
    },
    {
      "inputs": [
        {
          "internalType": "address",
          "name": "to",
          "type": "address"
        },
        {
          "internalType": "string",
          "name": "name",
          "type": "string"
        },
        {
          "internalType": "uint256",
          "name": "batch_id",
          "type": "uint256"
        }
      ],
      "name": "vaccinate",
      "outputs": [],
      "stateMutability": "nonpayable",
      "type": "function"
    },
    {
      "inputs": [
        {
          "internalType": "string",
          "name": "name",
          "type": "string"
        },
        {
          "internalType": "uint256",
          "name": "batch_id",
          "type": "uint256"
        }
      ],
      "name": "checkBatch",
      "outputs": [],
      "stateMutability": "view",
      "type": "function",
      "constant": true
    },
    {
      "inputs": [
        {
          "internalType": "address",
          "name": "org",
          "type": "address"
        }
      ],
      "name": "checkOrganization",
      "outputs": [],
      "stateMutability": "view",
      "type": "function",
      "constant": true
    },
    {
      "inputs": [
        {
          "internalType": "string",
          "name": "name",
          "type": "string"
        }
      ],
      "name": "checkVaccine",
      "outputs": [],
      "stateMutability": "view",
      "type": "function",
      "constant": true
    },
    {
      "inputs": [
        {
          "internalType": "address",
          "name": "user",
          "type": "address"
        }
      ],
      "name": "getUserVaccineCount",
      "outputs": [
        {
          "internalType": "uint256",
          "name": "",
          "type": "uint256"
        }
      ],
      "stateMutability": "view",
      "type": "function",
      "constant": true
    },
    {
      "inputs": [
        {
          "internalType": "string",
          "name": "name",
          "type": "string"
        }
      ],
      "name": "getRequiredVaccineCount",
      "outputs": [
        {
          "internalType": "uint256",
          "name": "",
          "type": "uint256"
        }
      ],
      "stateMutability": "view",
      "type": "function",
      "constant": true
    },
    {
      "inputs": [],
      "name": "getTotalOrganization",
      "outputs": [
        {
          "internalType": "uint256",
          "name": "",
          "type": "uint256"
        }
      ],
      "stateMutability": "view",
      "type": "function",
      "constant": true
    },
    {
      "inputs": [],
      "name": "getAllOrganizations",
      "outputs": [
        {
          "internalType": "address[]",
          "name": "",
          "type": "address[]"
        }
      ],
      "stateMutability": "view",
      "type": "function",
      "constant": true
    },
    {
      "inputs": [
        {
          "internalType": "address",
          "name": "org",
          "type": "address"
        }
      ],
      "name": "getAllHealthPersons",
      "outputs": [
        {
          "internalType": "address[]",
          "name": "",
          "type": "address[]"
        }
      ],
      "stateMutability": "view",
      "type": "function",
      "constant": true
    },
    {
      "inputs": [
        {
          "internalType": "address",
          "name": "user",
          "type": "address"
        }
      ],
      "name": "getVaccineStatusOf",
      "outputs": [
        {
          "internalType": "enum Vaccination.VaccineStatus",
          "name": "status",
          "type": "uint8"
        }
      ],
      "stateMutability": "view",
      "type": "function",
      "constant": true
    },
    {
      "inputs": [
        {
          "internalType": "address",
          "name": "healthPerson",
          "type": "address"
        }
      ],
      "name": "getHealthPersonOrganization",
      "outputs": [
        {
          "internalType": "address",
          "name": "",
          "type": "address"
        }
      ],
      "stateMutability": "view",
      "type": "function",
      "constant": true
    },
    {
      "inputs": [
        {
          "internalType": "string",
          "name": "name",
          "type": "string"
        },
        {
          "internalType": "uint256",
          "name": "batch_id",
          "type": "uint256"
        },
        {
          "internalType": "address",
          "name": "healthPerson",
          "type": "address"
        }
      ],
      "name": "checkAvailability",
      "outputs": [],
      "stateMutability": "view",
      "type": "function",
      "constant": true
    },
    {
      "inputs": [
        {
          "internalType": "string",
          "name": "name",
          "type": "string"
        },
        {
          "internalType": "uint256",
          "name": "batch",
          "type": "uint256"
        },
        {
          "internalType": "address",
          "name": "org",
          "type": "address"
        }
      ],
      "name": "getAvailableVaccines",
      "outputs": [
        {
          "internalType": "uint256",
          "name": "",
          "type": "uint256"
        }
      ],
      "stateMutability": "view",
      "type": "function",
      "constant": true
    },
    {
      "inputs": [],
      "name": "getApprovedVaccinesLength",
      "outputs": [
        {
          "internalType": "uint256",
          "name": "",
          "type": "uint256"
        }
      ],
      "stateMutability": "view",
      "type": "function",
      "constant": true
    },
    {
      "inputs": [
        {
          "internalType": "string",
          "name": "name",
          "type": "string"
        }
      ],
      "name": "getVaccineApprovalStatus",
      "outputs": [
        {
          "internalType": "bool",
          "name": "",
          "type": "bool"
        }
      ],
      "stateMutability": "view",
      "type": "function",
      "constant": true
    },
    {
      "inputs": [],
      "name": "now",
      "outputs": [
        {
          "internalType": "uint256",
          "name": "",
          "type": "uint256"
        }
      ],
      "stateMutability": "view",
      "type": "function",
      "constant": true
    },
    {
      "inputs": [
        {
          "internalType": "address",
          "name": "user",
          "type": "address"
        }
      ],
      "name": "getRole",
      "outputs": [
        {
          "internalType": "enum Vaccination.Role",
          "name": "",
          "type": "uint8"
        }
      ],
      "stateMutability": "view",
      "type": "function",
      "constant": true
    },
    {
      "inputs": [
        {
          "internalType": "string",
          "name": "name",
          "type": "string"
        }
      ],
      "name": "getVaccineDetails",
      "outputs": [
        {
          "components": [
            {
              "internalType": "string",
              "name": "name",
              "type": "string"
            },
            {
              "internalType": "string",
              "name": "ipfs_hash",
              "type": "string"
            },
            {
              "internalType": "uint256[]",
              "name": "schedule",
              "type": "uint256[]"
            },
            {
              "internalType": "uint256[]",
              "name": "batches",
              "type": "uint256[]"
            },
            {
              "internalType": "bool",
              "name": "approved",
              "type": "bool"
            },
            {
              "internalType": "uint256",
              "name": "vaccined",
              "type": "uint256"
            }
          ],
          "internalType": "struct Vaccination.VaccineDetails",
          "name": "",
          "type": "tuple"
        }
      ],
      "stateMutability": "view",
      "type": "function",
      "constant": true
    },
    {
      "inputs": [
        {
          "internalType": "address",
          "name": "userAddress",
          "type": "address"
        }
      ],
      "name": "getUserDetails",
      "outputs": [
        {
          "components": [
            {
              "internalType": "uint256",
              "name": "year_of_birth",
              "type": "uint256"
            },
            {
              "internalType": "enum Vaccination.Gender",
              "name": "gender",
              "type": "uint8"
            },
            {
              "internalType": "string",
              "name": "namehash",
              "type": "string"
            },
            {
              "internalType": "string",
              "name": "imagehash",
              "type": "string"
            },
            {
              "components": [
                {
                  "internalType": "string",
                  "name": "name",
                  "type": "string"
                },
                {
                  "internalType": "uint256",
                  "name": "batch_no",
                  "type": "uint256"
                },
                {
                  "internalType": "uint256",
                  "name": "vaccination_datetime",
                  "type": "uint256"
                },
                {
                  "internalType": "address",
                  "name": "healthPerson",
                  "type": "address"
                },
                {
                  "internalType": "address",
                  "name": "organization",
                  "type": "address"
                }
              ],
              "internalType": "struct Vaccination.Vaccine[]",
              "name": "vaccines",
              "type": "tuple[]"
            },
            {
              "internalType": "uint256",
              "name": "vaccine_count",
              "type": "uint256"
            },
            {
              "internalType": "bool",
              "name": "registered",
              "type": "bool"
            }
          ],
          "internalType": "struct Vaccination.User",
          "name": "",
          "type": "tuple"
        }
      ],
      "stateMutability": "view",
      "type": "function",
      "constant": true
    }
  ],
  "bytecode": "0x60806040523480156200001157600080fd5b5033600860006101000a81548173ffffffffffffffffffffffffffffffffffffffff021916908373ffffffffffffffffffffffffffffffffffffffff16021790555060008060003373ffffffffffffffffffffffffffffffffffffffff1673ffffffffffffffffffffffffffffffffffffffff16815260200190815260200160002060006101000a81548160ff02191690836003811115620000b857620000b7620000c3565b5b0217905550620000f2565b7f4e487b7100000000000000000000000000000000000000000000000000000000600052602160045260246000fd5b615cb980620001026000396000f3fe6080604052600436106102245760003560e01c80636b847d5511610123578063ab512808116100ab578063e09eaca51161006f578063e09eaca5146108f2578063ea1fc7471461092f578063ecfab03414610958578063fc1ba16014610981578063ff6aa4ea146109aa57610224565b8063ab512808146107d5578063b168f0f014610812578063cc3d967b1461084f578063cd5f31bb1461088c578063cd96c2f8146108b557610224565b806398aabf17116100f257806398aabf17146106e657806399374642146107025780639cc527611461073f578063a62a3d2914610768578063a87430ba1461079357610224565b80636b847d55146106165780637217fcfd146106535780638abe09f21461067e57806391db02f8146106a957610224565b80632eb1ca66116101b15780634d8335d0116101755780634d8335d0146105155780635a1f7406146105405780635fa932e814610586578063669ade7e146105af57806369ed503f146105ed57610224565b80632eb1ca661461040a5780633c419f53146104355780633e1609ca14610472578063442767331461049b5780634cd89fc4146104d857610224565b80631bb9488d116101f85780631bb9488d146102f75780631ee584ac1461033757806322fce9211461037457806325de97ef146103b657806329575f6a146103df57610224565b8062578e8c1461022957806307c2f08514610266578063086ed938146102a357806314fa0c8b146102ce575b600080fd5b34801561023557600080fd5b50610250600480360381019061024b919061424b565b6109d3565b60405161025d91906152cf565b60405180910390f35b34801561027257600080fd5b5061028d600480360381019061028891906144ce565b610c04565b60405161029a91906152f1565b60405180910390f35b3480156102af57600080fd5b506102b8610c4c565b6040516102c59190614e58565b60405180910390f35b3480156102da57600080fd5b506102f560048036038101906102f0919061453d565b610cda565b005b34801561030357600080fd5b5061031e6004803603810190610319919061424b565b611108565b60405161032e9493929190614eed565b60405180910390f35b34801561034357600080fd5b5061035e600480360381019061035991906145e6565b61126b565b60405161036b9190614e14565b60405180910390f35b34801561038057600080fd5b5061039b60048036038101906103969190614472565b6112aa565b6040516103ad9695949392919061537b565b60405180910390f35b3480156103c257600080fd5b506103dd60048036038101906103d8919061412c565b611391565b005b3480156103eb57600080fd5b506103f46116f3565b6040516104019190614e14565b60405180910390f35b34801561041657600080fd5b5061041f611719565b60405161042c91906152f1565b60405180910390f35b34801561044157600080fd5b5061045c600480360381019061045791906145e6565b61171f565b6040516104699190614ecb565b60405180910390f35b34801561047e57600080fd5b506104996004803603810190610494919061424b565b6117cb565b005b3480156104a757600080fd5b506104c260048036038101906104bd919061412c565b61183c565b6040516104cf9190614e95565b60405180910390f35b3480156104e457600080fd5b506104ff60048036038101906104fa919061412c565b611891565b60405161050c9190614e14565b60405180910390f35b34801561052157600080fd5b5061052a6118fd565b60405161053791906152f1565b60405180910390f35b34801561054c57600080fd5b506105676004803603810190610562919061412c565b61190a565b60405161057d9a99989796959493929190614f40565b60405180910390f35b34801561059257600080fd5b506105ad60048036038101906105a89190614613565b611d30565b005b3480156105bb57600080fd5b506105d660048036038101906105d1919061412c565b612030565b6040516105e4929190614e2f565b60405180910390f35b3480156105f957600080fd5b50610614600480360381019061060f9190614159565b612081565b005b34801561062257600080fd5b5061063d6004803603810190610638919061412c565b61255e565b60405161064a91906152f1565b60405180910390f35b34801561065f57600080fd5b506106686125af565b60405161067591906152f1565b60405180910390f35b34801561068a57600080fd5b506106936125bc565b6040516106a091906152f1565b60405180910390f35b3480156106b557600080fd5b506106d060048036038101906106cb919061412c565b6125c4565b6040516106dd9190614eb0565b60405180910390f35b61070060048036038101906106fb919061430c565b612654565b005b34801561070e57600080fd5b506107296004803603810190610724919061412c565b612a69565b6040516107369190614e95565b60405180910390f35b34801561074b57600080fd5b506107666004803603810190610761919061412c565b612a89565b005b34801561077457600080fd5b5061077d612c96565b60405161078a91906152f1565b60405180910390f35b34801561079f57600080fd5b506107ba60048036038101906107b5919061412c565b612c9c565b6040516107cc9695949392919061530c565b60405180910390f35b3480156107e157600080fd5b506107fc60048036038101906107f7919061424b565b612e02565b6040516108099190614e7a565b60405180910390f35b34801561081e57600080fd5b506108396004803603810190610834919061412c565b612e3a565b6040516108469190614e58565b60405180910390f35b34801561085b57600080fd5b506108766004803603810190610871919061412c565b612f0a565b60405161088391906152ad565b60405180910390f35b34801561089857600080fd5b506108b360048036038101906108ae91906144ce565b6132a2565b005b3480156108c157600080fd5b506108dc60048036038101906108d7919061424b565b613437565b6040516108e991906152f1565b60405180910390f35b3480156108fe57600080fd5b50610919600480360381019061091491906144ce565b613465565b60405161092691906152f1565b60405180910390f35b34801561093b57600080fd5b5061095660048036038101906109519190614472565b6134dd565b005b34801561096457600080fd5b5061097f600480360381019061097a919061412c565b6136b2565b005b34801561098d57600080fd5b506109a860048036038101906109a39190614294565b6137d3565b005b3480156109b657600080fd5b506109d160048036038101906109cc91906141c8565b61398a565b005b6109db613e66565b6001826040516109eb9190614dfd565b90815260200160405180910390206040518060c0016040529081600082018054610a14906156cb565b80601f0160208091040260200160405190810160405280929190818152602001828054610a40906156cb565b8015610a8d5780601f10610a6257610100808354040283529160200191610a8d565b820191906000526020600020905b815481529060010190602001808311610a7057829003601f168201915b50505050508152602001600182018054610aa6906156cb565b80601f0160208091040260200160405190810160405280929190818152602001828054610ad2906156cb565b8015610b1f5780601f10610af457610100808354040283529160200191610b1f565b820191906000526020600020905b815481529060010190602001808311610b0257829003601f168201915b5050505050815260200160028201805480602002602001604051908101604052809291908181526020018280548015610b7757602002820191906000526020600020905b815481526020019060010190808311610b63575b5050505050815260200160038201805480602002602001604051908101604052809291908181526020018280548015610bcf57602002820191906000526020600020905b815481526020019060010190808311610bbb575b505050505081526020016004820160009054906101000a900460ff161515151581526020016005820154815250509050919050565b60038380516020810182018051848252602083016020850120818352809550505050505060205281600052604060002060205280600052604060002060009250925050505481565b60606009805480602002602001604051908101604052809291908181526020018280548015610cd057602002820191906000526020600020905b8160009054906101000a900473ffffffffffffffffffffffffffffffffffffffff1673ffffffffffffffffffffffffffffffffffffffff1681526020019060010190808311610c86575b5050505050905090565b600860009054906101000a900473ffffffffffffffffffffffffffffffffffffffff1673ffffffffffffffffffffffffffffffffffffffff163373ffffffffffffffffffffffffffffffffffffffff1614610d6a576040517f08c379a0000000000000000000000000000000000000000000000000000000008152600401610d619061528d565b60405180910390fd5b60008511610dad576040517f08c379a0000000000000000000000000000000000000000000000000000000008152600401610da49061520d565b60405180910390fd5b600186604051610dbd9190614dfd565b908152602001604051809103902060040160009054906101000a900460ff16610e1b576040517f08c379a0000000000000000000000000000000000000000000000000000000008152600401610e129061512d565b60405180910390fd5b428410610e5d576040517f08c379a0000000000000000000000000000000000000000000000000000000008152600401610e549061514d565b60405180910390fd5b428311610e9f576040517f08c379a0000000000000000000000000000000000000000000000000000000008152600401610e969061522d565b60405180910390fd5b428211610ee1576040517f08c379a0000000000000000000000000000000000000000000000000000000008152600401610ed89061526d565b60405180910390fd5b84600287604051610ef29190614dfd565b908152602001604051809103902060008781526020019081526020016000206000018190555083600287604051610f299190614dfd565b908152602001604051809103902060008781526020019081526020016000206001018190555082600287604051610f609190614dfd565b908152602001604051809103902060008781526020019081526020016000206002018190555081600287604051610f979190614dfd565b9081526020016040518091039020600087815260200190815260200160002060030181905550600186604051610fcd9190614dfd565b9081526020016040518091039020600301859080600181540180825580915050600190039060005260206000200160009091909190915055806003876040516110169190614dfd565b9081526020016040518091039020600087815260200190815260200160002060003373ffffffffffffffffffffffffffffffffffffffff1673ffffffffffffffffffffffffffffffffffffffff1681526020019081526020016000208190555080600560003373ffffffffffffffffffffffffffffffffffffffff1673ffffffffffffffffffffffffffffffffffffffff1681526020019081526020016000206005018190555084866040516110cc9190614dfd565b60405180910390207f2c6cf3aff6e0f7a34f79efaef2eee135f21edfaf419ebf6f1befe4e3a3efde2060405160405180910390a3505050505050565b600181805160208101820180518482526020830160208501208183528095505050505050600091509050806000018054611141906156cb565b80601f016020809104026020016040519081016040528092919081815260200182805461116d906156cb565b80156111ba5780601f1061118f576101008083540402835291602001916111ba565b820191906000526020600020905b81548152906001019060200180831161119d57829003601f168201915b5050505050908060010180546111cf906156cb565b80601f01602080910402602001604051908101604052809291908181526020018280546111fb906156cb565b80156112485780601f1061121d57610100808354040283529160200191611248565b820191906000526020600020905b81548152906001019060200180831161122b57829003601f168201915b5050505050908060040160009054906101000a900460ff16908060050154905084565b6009818154811061127b57600080fd5b906000526020600020016000915054906101000a900473ffffffffffffffffffffffffffffffffffffffff1681565b60028280516020810182018051848252602083016020850120818352809550505050505060205280600052604060002060009150915050806000015490806001015490806002015490806003015490806004018054611308906156cb565b80601f0160208091040260200160405190810160405280929190818152602001828054611334906156cb565b80156113815780601f1061135657610100808354040283529160200191611381565b820191906000526020600020905b81548152906001019060200180831161136457829003601f168201915b5050505050908060050154905086565b600660003373ffffffffffffffffffffffffffffffffffffffff1673ffffffffffffffffffffffffffffffffffffffff16815260200190815260200160002060080160009054906101000a900460ff16611420576040517f08c379a0000000000000000000000000000000000000000000000000000000008152600401611417906151ad565b60405180910390fd5b600760008273ffffffffffffffffffffffffffffffffffffffff1673ffffffffffffffffffffffffffffffffffffffff16815260200190815260200160002060000160149054906101000a900460ff16156114b0576040517f08c379a00000000000000000000000000000000000000000000000000000000081526004016114a7906150ad565b60405180910390fd5b33600760008373ffffffffffffffffffffffffffffffffffffffff1673ffffffffffffffffffffffffffffffffffffffff16815260200190815260200160002060000160006101000a81548173ffffffffffffffffffffffffffffffffffffffff021916908373ffffffffffffffffffffffffffffffffffffffff1602179055506001600760008373ffffffffffffffffffffffffffffffffffffffff1673ffffffffffffffffffffffffffffffffffffffff16815260200190815260200160002060000160146101000a81548160ff02191690831515021790555060026000808373ffffffffffffffffffffffffffffffffffffffff1673ffffffffffffffffffffffffffffffffffffffff16815260200190815260200160002060006101000a81548160ff021916908360038111156115ee576115ed61575d565b5b0217905550600660003373ffffffffffffffffffffffffffffffffffffffff1673ffffffffffffffffffffffffffffffffffffffff168152602001908152602001600020600701819080600181540180825580915050600190039060005260206000200160009091909190916101000a81548173ffffffffffffffffffffffffffffffffffffffff021916908373ffffffffffffffffffffffffffffffffffffffff1602179055508073ffffffffffffffffffffffffffffffffffffffff163373ffffffffffffffffffffffffffffffffffffffff167ff614f0736b4b411606df816f155b6c4d2dbfd2e69c2efee4b606481194aa6f5a60405160405180910390a350565b600860009054906101000a900473ffffffffffffffffffffffffffffffffffffffff1681565b600b5481565b6004818154811061172f57600080fd5b90600052602060002001600091509050805461174a906156cb565b80601f0160208091040260200160405190810160405280929190818152602001828054611776906156cb565b80156117c35780601f10611798576101008083540402835291602001916117c3565b820191906000526020600020905b8154815290600101906020018083116117a657829003601f168201915b505050505081565b6001816040516117db9190614dfd565b908152602001604051809103902060040160009054906101000a900460ff16611839576040517f08c379a00000000000000000000000000000000000000000000000000000000081526004016118309061518d565b60405180910390fd5b50565b60008060008373ffffffffffffffffffffffffffffffffffffffff1673ffffffffffffffffffffffffffffffffffffffff16815260200190815260200160002060009054906101000a900460ff169050919050565b6000600760008373ffffffffffffffffffffffffffffffffffffffff1673ffffffffffffffffffffffffffffffffffffffff16815260200190815260200160002060000160009054906101000a900473ffffffffffffffffffffffffffffffffffffffff169050919050565b6000600480549050905090565b600660205280600052604060002060009150905080600001805461192d906156cb565b80601f0160208091040260200160405190810160405280929190818152602001828054611959906156cb565b80156119a65780601f1061197b576101008083540402835291602001916119a6565b820191906000526020600020905b81548152906001019060200180831161198957829003601f168201915b5050505050908060010180546119bb906156cb565b80601f01602080910402602001604051908101604052809291908181526020018280546119e7906156cb565b8015611a345780601f10611a0957610100808354040283529160200191611a34565b820191906000526020600020905b815481529060010190602001808311611a1757829003601f168201915b505050505090806002018054611a49906156cb565b80601f0160208091040260200160405190810160405280929190818152602001828054611a75906156cb565b8015611ac25780601f10611a9757610100808354040283529160200191611ac2565b820191906000526020600020905b815481529060010190602001808311611aa557829003601f168201915b505050505090806003018054611ad7906156cb565b80601f0160208091040260200160405190810160405280929190818152602001828054611b03906156cb565b8015611b505780601f10611b2557610100808354040283529160200191611b50565b820191906000526020600020905b815481529060010190602001808311611b3357829003601f168201915b505050505090806004018054611b65906156cb565b80601f0160208091040260200160405190810160405280929190818152602001828054611b91906156cb565b8015611bde5780601f10611bb357610100808354040283529160200191611bde565b820191906000526020600020905b815481529060010190602001808311611bc157829003601f168201915b505050505090806005018054611bf3906156cb565b80601f0160208091040260200160405190810160405280929190818152602001828054611c1f906156cb565b8015611c6c5780601f10611c4157610100808354040283529160200191611c6c565b820191906000526020600020905b815481529060010190602001808311611c4f57829003601f168201915b505050505090806006018054611c81906156cb565b80601f0160208091040260200160405190810160405280929190818152602001828054611cad906156cb565b8015611cfa5780601f10611ccf57610100808354040283529160200191611cfa565b820191906000526020600020905b815481529060010190602001808311611cdd57829003601f168201915b5050505050908060080160009054906101000a900460ff16908060080160019054906101000a900460ff1690806009015490508a565b60001515600560003373ffffffffffffffffffffffffffffffffffffffff1673ffffffffffffffffffffffffffffffffffffffff16815260200190815260200160002060060160009054906101000a900460ff16151514611dc6576040517f08c379a0000000000000000000000000000000000000000000000000000000008152600401611dbd9061504d565b60405180910390fd5b83600560003373ffffffffffffffffffffffffffffffffffffffff1673ffffffffffffffffffffffffffffffffffffffff1681526020019081526020016000206000018190555082600560003373ffffffffffffffffffffffffffffffffffffffff1673ffffffffffffffffffffffffffffffffffffffff16815260200190815260200160002060010160006101000a81548160ff02191690836002811115611e7257611e7161575d565b5b021790555081600560003373ffffffffffffffffffffffffffffffffffffffff1673ffffffffffffffffffffffffffffffffffffffff1681526020019081526020016000206002019080519060200190611ecd929190613e9e565b5080600560003373ffffffffffffffffffffffffffffffffffffffff1673ffffffffffffffffffffffffffffffffffffffff1681526020019081526020016000206003019080519060200190611f24929190613e9e565b506001600560003373ffffffffffffffffffffffffffffffffffffffff1673ffffffffffffffffffffffffffffffffffffffff16815260200190815260200160002060060160006101000a81548160ff02191690831515021790555060036000803373ffffffffffffffffffffffffffffffffffffffff1673ffffffffffffffffffffffffffffffffffffffff16815260200190815260200160002060006101000a81548160ff02191690836003811115611fe257611fe161575d565b5b02179055503373ffffffffffffffffffffffffffffffffffffffff167fec2103278c3c80a6d7b51d03d161f98073de470c933d17309f7e46ebccd8c1ea60405160405180910390a250505050565b60076020528060005260406000206000915090508060000160009054906101000a900473ffffffffffffffffffffffffffffffffffffffff16908060000160149054906101000a900460ff16905082565b600760003373ffffffffffffffffffffffffffffffffffffffff1673ffffffffffffffffffffffffffffffffffffffff16815260200190815260200160002060000160149054906101000a900460ff16612110576040517f08c379a0000000000000000000000000000000000000000000000000000000008152600401612107906151ed565b60405180910390fd5b61211983613c55565b6121248282336132a2565b61212e8383613cee565b6000600760003373ffffffffffffffffffffffffffffffffffffffff1673ffffffffffffffffffffffffffffffffffffffff16815260200190815260200160002060000160009054906101000a900473ffffffffffffffffffffffffffffffffffffffff16905060006040518060a001604052808581526020018481526020014281526020013373ffffffffffffffffffffffffffffffffffffffff1681526020018373ffffffffffffffffffffffffffffffffffffffff168152509050600560008673ffffffffffffffffffffffffffffffffffffffff1673ffffffffffffffffffffffffffffffffffffffff1681526020019081526020016000206004018190806001815401808255809150506001900390600052602060002090600502016000909190919091506000820151816000019080519060200190612274929190613e9e565b50602082015181600101556040820151816002015560608201518160030160006101000a81548173ffffffffffffffffffffffffffffffffffffffff021916908373ffffffffffffffffffffffffffffffffffffffff16021790555060808201518160040160006101000a81548173ffffffffffffffffffffffffffffffffffffffff021916908373ffffffffffffffffffffffffffffffffffffffff16021790555050506001600560008773ffffffffffffffffffffffffffffffffffffffff1673ffffffffffffffffffffffffffffffffffffffff168152602001908152602001600020600501600082825461236c9190615548565b9250508190555060016003856040516123859190614dfd565b9081526020016040518091039020600085815260200190815260200160002060008473ffffffffffffffffffffffffffffffffffffffff1673ffffffffffffffffffffffffffffffffffffffff16815260200190815260200160002060008282546123f0919061559e565b925050819055506001600660008473ffffffffffffffffffffffffffffffffffffffff1673ffffffffffffffffffffffffffffffffffffffff168152602001908152602001600020600901600082825461244a9190615548565b9250508190555060016002856040516124639190614dfd565b9081526020016040518091039020600085815260200190815260200160002060050160008282546124949190615548565b92505081905550600180856040516124ac9190614dfd565b908152602001604051809103902060050160008282546124cc9190615548565b925050819055506124dc85613dc6565b836040516124ea9190614dfd565b60405180910390203373ffffffffffffffffffffffffffffffffffffffff168673ffffffffffffffffffffffffffffffffffffffff167f388c5314bc5251ba7c233442c1e5d873645315efc65dbf9fdb6006375d2374d48660405161254f91906152f1565b60405180910390a45050505050565b600080600560008473ffffffffffffffffffffffffffffffffffffffff1673ffffffffffffffffffffffffffffffffffffffff16815260200190815260200160002060050154905080915050919050565b6000600980549050905090565b600042905090565b600080600560008473ffffffffffffffffffffffffffffffffffffffff1673ffffffffffffffffffffffffffffffffffffffff16815260200190815260200160002060050154905060006002905060008214156126265760009250505061264f565b808210156126395760019250505061264f565b8082141561264c5760029250505061264f565b50505b919050565b600a341015612698576040517f08c379a000000000000000000000000000000000000000000000000000000000815260040161268f906150ed565b60405180910390fd5b86600660003373ffffffffffffffffffffffffffffffffffffffff1673ffffffffffffffffffffffffffffffffffffffff16815260200190815260200160002060000190805190602001906126ee929190613e9e565b5085600660003373ffffffffffffffffffffffffffffffffffffffff1673ffffffffffffffffffffffffffffffffffffffff1681526020019081526020016000206001019080519060200190612745929190613e9e565b5084600660003373ffffffffffffffffffffffffffffffffffffffff1673ffffffffffffffffffffffffffffffffffffffff168152602001908152602001600020600201908051906020019061279c929190613e9e565b5083600660003373ffffffffffffffffffffffffffffffffffffffff1673ffffffffffffffffffffffffffffffffffffffff16815260200190815260200160002060030190805190602001906127f3929190613e9e565b5082600660003373ffffffffffffffffffffffffffffffffffffffff1673ffffffffffffffffffffffffffffffffffffffff168152602001908152602001600020600401908051906020019061284a929190613e9e565b5081600660003373ffffffffffffffffffffffffffffffffffffffff1673ffffffffffffffffffffffffffffffffffffffff16815260200190815260200160002060050190805190602001906128a1929190613e9e565b5080600660003373ffffffffffffffffffffffffffffffffffffffff1673ffffffffffffffffffffffffffffffffffffffff16815260200190815260200160002060060190805190602001906128f8929190613e9e565b506001600660003373ffffffffffffffffffffffffffffffffffffffff1673ffffffffffffffffffffffffffffffffffffffff16815260200190815260200160002060080160016101000a81548160ff0219169083151502179055506009339080600181540180825580915050600190039060005260206000200160009091909190916101000a81548173ffffffffffffffffffffffffffffffffffffffff021916908373ffffffffffffffffffffffffffffffffffffffff16021790555060016000803373ffffffffffffffffffffffffffffffffffffffff1673ffffffffffffffffffffffffffffffffffffffff16815260200190815260200160002060006101000a81548160ff02191690836003811115612a1957612a1861575d565b5b021790555086604051612a2c9190614dfd565b60405180910390207f464970519053c3da4a6516c6af01855284748b1531560ec3b1a4dcc74823688360405160405180910390a250505050505050565b60006020528060005260406000206000915054906101000a900460ff1681565b600860009054906101000a900473ffffffffffffffffffffffffffffffffffffffff1673ffffffffffffffffffffffffffffffffffffffff163373ffffffffffffffffffffffffffffffffffffffff1614612b19576040517f08c379a0000000000000000000000000000000000000000000000000000000008152600401612b109061528d565b60405180910390fd5b600660008273ffffffffffffffffffffffffffffffffffffffff1673ffffffffffffffffffffffffffffffffffffffff16815260200190815260200160002060080160019054906101000a900460ff16612ba8576040517f08c379a0000000000000000000000000000000000000000000000000000000008152600401612b9f9061510d565b60405180910390fd5b600660008273ffffffffffffffffffffffffffffffffffffffff1673ffffffffffffffffffffffffffffffffffffffff16815260200190815260200160002060080160009054906101000a900460ff1615612c38576040517f08c379a0000000000000000000000000000000000000000000000000000000008152600401612c2f906150cd565b60405180910390fd5b6001600660008373ffffffffffffffffffffffffffffffffffffffff1673ffffffffffffffffffffffffffffffffffffffff16815260200190815260200160002060080160006101000a81548160ff02191690831515021790555050565b600a5481565b60056020528060005260406000206000915090508060000154908060010160009054906101000a900460ff1690806002018054612cd8906156cb565b80601f0160208091040260200160405190810160405280929190818152602001828054612d04906156cb565b8015612d515780601f10612d2657610100808354040283529160200191612d51565b820191906000526020600020905b815481529060010190602001808311612d3457829003601f168201915b505050505090806003018054612d66906156cb565b80601f0160208091040260200160405190810160405280929190818152602001828054612d92906156cb565b8015612ddf5780601f10612db457610100808354040283529160200191612ddf565b820191906000526020600020905b815481529060010190602001808311612dc257829003601f168201915b5050505050908060050154908060060160009054906101000a900460ff16905086565b6000600182604051612e149190614dfd565b908152602001604051809103902060040160009054906101000a900460ff169050919050565b6060600660008373ffffffffffffffffffffffffffffffffffffffff1673ffffffffffffffffffffffffffffffffffffffff168152602001908152602001600020600701805480602002602001604051908101604052809291908181526020018280548015612efe57602002820191906000526020600020905b8160009054906101000a900473ffffffffffffffffffffffffffffffffffffffff1673ffffffffffffffffffffffffffffffffffffffff1681526020019060010190808311612eb4575b50505050509050919050565b612f12613f24565b600560008373ffffffffffffffffffffffffffffffffffffffff1673ffffffffffffffffffffffffffffffffffffffff1681526020019081526020016000206040518060e0016040529081600082015481526020016001820160009054906101000a900460ff166002811115612f8b57612f8a61575d565b5b6002811115612f9d57612f9c61575d565b5b8152602001600282018054612fb1906156cb565b80601f0160208091040260200160405190810160405280929190818152602001828054612fdd906156cb565b801561302a5780601f10612fff5761010080835404028352916020019161302a565b820191906000526020600020905b81548152906001019060200180831161300d57829003601f168201915b50505050508152602001600382018054613043906156cb565b80601f016020809104026020016040519081016040528092919081815260200182805461306f906156cb565b80156130bc5780601f10613091576101008083540402835291602001916130bc565b820191906000526020600020905b81548152906001019060200180831161309f57829003601f168201915b5050505050815260200160048201805480602002602001604051908101604052809291908181526020016000905b8282101561326e57838290600052602060002090600502016040518060a001604052908160008201805461311d906156cb565b80601f0160208091040260200160405190810160405280929190818152602001828054613149906156cb565b80156131965780601f1061316b57610100808354040283529160200191613196565b820191906000526020600020905b81548152906001019060200180831161317957829003601f168201915b5050505050815260200160018201548152602001600282015481526020016003820160009054906101000a900473ffffffffffffffffffffffffffffffffffffffff1673ffffffffffffffffffffffffffffffffffffffff1673ffffffffffffffffffffffffffffffffffffffff1681526020016004820160009054906101000a900473ffffffffffffffffffffffffffffffffffffffff1673ffffffffffffffffffffffffffffffffffffffff1673ffffffffffffffffffffffffffffffffffffffff1681525050815260200190600101906130ea565b505050508152602001600582015481526020016006820160009054906101000a900460ff1615151515815250509050919050565b600115156001846040516132b69190614dfd565b908152602001604051809103902060040160009054906101000a900460ff16151514613317576040517f08c379a000000000000000000000000000000000000000000000000000000000815260040161330e9061508d565b60405180910390fd5b61332183836134dd565b60006003846040516133339190614dfd565b908152602001604051809103902060008481526020019081526020016000206000600760008573ffffffffffffffffffffffffffffffffffffffff1673ffffffffffffffffffffffffffffffffffffffff16815260200190815260200160002060000160009054906101000a900473ffffffffffffffffffffffffffffffffffffffff1673ffffffffffffffffffffffffffffffffffffffff1673ffffffffffffffffffffffffffffffffffffffff1681526020019081526020016000205411613432576040517f08c379a00000000000000000000000000000000000000000000000000000000081526004016134299061506d565b60405180910390fd5b505050565b60006001826040516134499190614dfd565b9081526020016040518091039020600201805490509050919050565b60006003846040516134779190614dfd565b9081526020016040518091039020600084815260200190815260200160002060008373ffffffffffffffffffffffffffffffffffffffff1673ffffffffffffffffffffffffffffffffffffffff1681526020019081526020016000205490509392505050565b60006002836040516134ef9190614dfd565b908152602001604051809103902060008381526020019081526020016000206000015411613552576040517f08c379a00000000000000000000000000000000000000000000000000000000081526004016135499061520d565b60405180910390fd5b426002836040516135639190614dfd565b9081526020016040518091039020600083815260200190815260200160002060010154106135c6576040517f08c379a00000000000000000000000000000000000000000000000000000000081526004016135bd9061514d565b60405180910390fd5b426002836040516135d79190614dfd565b90815260200160405180910390206000838152602001908152602001600020600201541161363a576040517f08c379a00000000000000000000000000000000000000000000000000000000081526004016136319061522d565b60405180910390fd5b4260028360405161364b9190614dfd565b9081526020016040518091039020600083815260200190815260200160002060030154116136ae576040517f08c379a00000000000000000000000000000000000000000000000000000000081526004016136a59061526d565b60405180910390fd5b5050565b600660008273ffffffffffffffffffffffffffffffffffffffff1673ffffffffffffffffffffffffffffffffffffffff16815260200190815260200160002060080160019054906101000a900460ff16613741576040517f08c379a00000000000000000000000000000000000000000000000000000000081526004016137389061500d565b60405180910390fd5b600660008273ffffffffffffffffffffffffffffffffffffffff1673ffffffffffffffffffffffffffffffffffffffff16815260200190815260200160002060080160009054906101000a900460ff166137d0576040517f08c379a00000000000000000000000000000000000000000000000000000000081526004016137c79061502d565b60405180910390fd5b50565b600860009054906101000a900473ffffffffffffffffffffffffffffffffffffffff1673ffffffffffffffffffffffffffffffffffffffff163373ffffffffffffffffffffffffffffffffffffffff1614613863576040517f08c379a000000000000000000000000000000000000000000000000000000000815260040161385a9061528d565b60405180910390fd5b816001836040516138749190614dfd565b90815260200160405180910390206000019080519060200190613898929190613e9e565b50806001836040516138aa9190614dfd565b908152602001604051809103902060020190805190602001906138ce929190613f75565b5060048290806001815401808255809150506001900390600052602060002001600090919091909150908051906020019061390a929190613e9e565b506001808360405161391c9190614dfd565b908152602001604051809103902060040160006101000a81548160ff021916908315150217905550816040516139529190614dfd565b60405180910390207f9db18d96585d3ea407a3cd4bc1ecedb2bbc4188986b624b0e85d74caecce964b60405160405180910390a25050565b600860009054906101000a900473ffffffffffffffffffffffffffffffffffffffff1673ffffffffffffffffffffffffffffffffffffffff163373ffffffffffffffffffffffffffffffffffffffff1614613a1a576040517f08c379a0000000000000000000000000000000000000000000000000000000008152600401613a119061528d565b60405180910390fd5b613a23846136b2565b613a2c836117cb565b613a3683836134dd565b80600384604051613a479190614dfd565b9081526020016040518091039020600084815260200190815260200160002060003373ffffffffffffffffffffffffffffffffffffffff1673ffffffffffffffffffffffffffffffffffffffff168152602001908152602001600020541015613ae5576040517f08c379a0000000000000000000000000000000000000000000000000000000008152600401613adc9061516d565b60405180910390fd5b80600384604051613af69190614dfd565b9081526020016040518091039020600084815260200190815260200160002060003373ffffffffffffffffffffffffffffffffffffffff1673ffffffffffffffffffffffffffffffffffffffff1681526020019081526020016000206000828254613b61919061559e565b9250508190555080600384604051613b799190614dfd565b9081526020016040518091039020600084815260200190815260200160002060008673ffffffffffffffffffffffffffffffffffffffff1673ffffffffffffffffffffffffffffffffffffffff1681526020019081526020016000206000828254613be49190615548565b9250508190555082604051613bf99190614dfd565b60405180910390208473ffffffffffffffffffffffffffffffffffffffff167f4e2ff4923c3e767530d0bd26e60dd9043c7f4461e83947851dde360e0a106b7584604051613c4791906152f1565b60405180910390a350505050565b60011515600560008373ffffffffffffffffffffffffffffffffffffffff1673ffffffffffffffffffffffffffffffffffffffff16815260200190815260200160002060060160009054906101000a900460ff16151514613ceb576040517f08c379a0000000000000000000000000000000000000000000000000000000008152600401613ce2906151cd565b60405180910390fd5b50565b60011515600182604051613d029190614dfd565b908152602001604051809103902060040160009054906101000a900460ff16151514613d63576040517f08c379a0000000000000000000000000000000000000000000000000000000008152600401613d5a9061512d565b60405180910390fd5b6000613d6e8361255e565b90506000613d7b83613437565b905080821415613dc0576040517f08c379a0000000000000000000000000000000000000000000000000000000008152600401613db79061524d565b60405180910390fd5b50505050565b6000613dd1826125c4565b9050600280811115613de657613de561575d565b5b816002811115613df957613df861575d565b5b1415613e1a576001600b6000828254613e129190615548565b925050819055505b60016002811115613e2e57613e2d61575d565b5b816002811115613e4157613e4061575d565b5b1415613e62576001600a6000828254613e5a9190615548565b925050819055505b5050565b6040518060c0016040528060608152602001606081526020016060815260200160608152602001600015158152602001600081525090565b828054613eaa906156cb565b90600052602060002090601f016020900481019282613ecc5760008555613f13565b82601f10613ee557805160ff1916838001178555613f13565b82800160010185558215613f13579182015b82811115613f12578251825591602001919060010190613ef7565b5b509050613f209190613fc2565b5090565b6040518060e001604052806000815260200160006002811115613f4a57613f4961575d565b5b8152602001606081526020016060815260200160608152602001600081526020016000151581525090565b828054828255906000526020600020908101928215613fb1579160200282015b82811115613fb0578251825591602001919060010190613f95565b5b509050613fbe9190613fc2565b5090565b5b80821115613fdb576000816000905550600101613fc3565b5090565b6000613ff2613fed84615408565b6153e3565b90508083825260208201905082856020860282011115614015576140146157ef565b5b60005b85811015614045578161402b8882614117565b845260208401935060208301925050600181019050614018565b5050509392505050565b600061406261405d84615434565b6153e3565b90508281526020810184848401111561407e5761407d6157f4565b5b614089848285615689565b509392505050565b6000813590506140a081615c45565b92915050565b600082601f8301126140bb576140ba6157ea565b5b81356140cb848260208601613fdf565b91505092915050565b6000813590506140e381615c5c565b92915050565b600082601f8301126140fe576140fd6157ea565b5b813561410e84826020860161404f565b91505092915050565b60008135905061412681615c6c565b92915050565b600060208284031215614142576141416157fe565b5b600061415084828501614091565b91505092915050565b600080600060608486031215614172576141716157fe565b5b600061418086828701614091565b935050602084013567ffffffffffffffff8111156141a1576141a06157f9565b5b6141ad868287016140e9565b92505060406141be86828701614117565b9150509250925092565b600080600080608085870312156141e2576141e16157fe565b5b60006141f087828801614091565b945050602085013567ffffffffffffffff811115614211576142106157f9565b5b61421d878288016140e9565b935050604061422e87828801614117565b925050606061423f87828801614117565b91505092959194509250565b600060208284031215614261576142606157fe565b5b600082013567ffffffffffffffff81111561427f5761427e6157f9565b5b61428b848285016140e9565b91505092915050565b600080604083850312156142ab576142aa6157fe565b5b600083013567ffffffffffffffff8111156142c9576142c86157f9565b5b6142d5858286016140e9565b925050602083013567ffffffffffffffff8111156142f6576142f56157f9565b5b614302858286016140a6565b9150509250929050565b600080600080600080600060e0888a03121561432b5761432a6157fe565b5b600088013567ffffffffffffffff811115614349576143486157f9565b5b6143558a828b016140e9565b975050602088013567ffffffffffffffff811115614376576143756157f9565b5b6143828a828b016140e9565b965050604088013567ffffffffffffffff8111156143a3576143a26157f9565b5b6143af8a828b016140e9565b955050606088013567ffffffffffffffff8111156143d0576143cf6157f9565b5b6143dc8a828b016140e9565b945050608088013567ffffffffffffffff8111156143fd576143fc6157f9565b5b6144098a828b016140e9565b93505060a088013567ffffffffffffffff81111561442a576144296157f9565b5b6144368a828b016140e9565b92505060c088013567ffffffffffffffff811115614457576144566157f9565b5b6144638a828b016140e9565b91505092959891949750929550565b60008060408385031215614489576144886157fe565b5b600083013567ffffffffffffffff8111156144a7576144a66157f9565b5b6144b3858286016140e9565b92505060206144c485828601614117565b9150509250929050565b6000806000606084860312156144e7576144e66157fe565b5b600084013567ffffffffffffffff811115614505576145046157f9565b5b614511868287016140e9565b935050602061452286828701614117565b925050604061453386828701614091565b9150509250925092565b60008060008060008060c0878903121561455a576145596157fe565b5b600087013567ffffffffffffffff811115614578576145776157f9565b5b61458489828a016140e9565b965050602061459589828a01614117565b95505060406145a689828a01614117565b94505060606145b789828a01614117565b93505060806145c889828a01614117565b92505060a06145d989828a01614117565b9150509295509295509295565b6000602082840312156145fc576145fb6157fe565b5b600061460a84828501614117565b91505092915050565b6000806000806080858703121561462d5761462c6157fe565b5b600061463b87828801614117565b945050602061464c878288016140d4565b935050604085013567ffffffffffffffff81111561466d5761466c6157f9565b5b614679878288016140e9565b925050606085013567ffffffffffffffff81111561469a576146996157f9565b5b6146a6878288016140e9565b91505092959194509250565b60006146be83836146f6565b60208301905092915050565b60006146d68383614d69565b905092915050565b60006146ea8383614ddf565b60208301905092915050565b6146ff816155d2565b82525050565b61470e816155d2565b82525050565b600061471f82615495565b61472981856154e8565b935061473483615465565b8060005b8381101561476557815161474c88826146b2565b9750614757836154c1565b925050600181019050614738565b5085935050505092915050565b600061477d826154a0565b61478781856154f9565b93508360208202850161479985615475565b8060005b858110156147d557848403895281516147b685826146ca565b94506147c1836154ce565b925060208a0199505060018101905061479d565b50829750879550505050505092915050565b60006147f2826154ab565b6147fc818561550a565b935061480783615485565b8060005b8381101561483857815161481f88826146de565b975061482a836154db565b92505060018101905061480b565b5085935050505092915050565b61484e816155e4565b82525050565b61485d816155e4565b82525050565b61486c81615653565b82525050565b61487b81615653565b82525050565b61488a81615665565b82525050565b61489981615677565b82525050565b60006148aa826154b6565b6148b4818561551b565b93506148c4818560208601615698565b6148cd81615803565b840191505092915050565b60006148e3826154b6565b6148ed818561552c565b93506148fd818560208601615698565b61490681615803565b840191505092915050565b600061491c826154b6565b614926818561553d565b9350614936818560208601615698565b80840191505092915050565b600061494f60158361552c565b915061495a82615814565b602082019050919050565b6000614972601d8361552c565b915061497d8261583d565b602082019050919050565b600061499560138361552c565b91506149a082615866565b602082019050919050565b60006149b860178361552c565b91506149c38261588f565b602082019050919050565b60006149db60158361552c565b91506149e6826158b8565b602082019050919050565b60006149fe60298361552c565b9150614a09826158e1565b604082019050919050565b6000614a2160218361552c565b9150614a2c82615930565b604082019050919050565b6000614a4460148361552c565b9150614a4f8261597f565b602082019050919050565b6000614a67602c8361552c565b9150614a72826159a8565b604082019050919050565b6000614a8a60188361552c565b9150614a95826159f7565b602082019050919050565b6000614aad601c8361552c565b9150614ab882615a20565b602082019050919050565b6000614ad060168361552c565b9150614adb82615a49565b602082019050919050565b6000614af360148361552c565b9150614afe82615a72565b602082019050919050565b6000614b16600c8361552c565b9150614b2182615a9b565b602082019050919050565b6000614b3960118361552c565b9150614b4482615ac4565b602082019050919050565b6000614b5c600c8361552c565b9150614b6782615aed565b602082019050919050565b6000614b7f600d8361552c565b9150614b8a82615b16565b602082019050919050565b6000614ba260078361552c565b9150614bad82615b3f565b602082019050919050565b6000614bc560198361552c565b9150614bd082615b68565b602082019050919050565b6000614be860228361552c565b9150614bf382615b91565b604082019050919050565b6000614c0b600a8361552c565b9150614c1682615be0565b602082019050919050565b600060e083016000830151614c396000860182614ddf565b506020830151614c4c6020860182614863565b5060408301518482036040860152614c64828261489f565b91505060608301518482036060860152614c7e828261489f565b91505060808301518482036080860152614c988282614772565b91505060a0830151614cad60a0860182614ddf565b5060c0830151614cc060c0860182614845565b508091505092915050565b600060c0830160008301518482036000860152614ce8828261489f565b91505060208301518482036020860152614d02828261489f565b91505060408301518482036040860152614d1c82826147e7565b91505060608301518482036060860152614d3682826147e7565b9150506080830151614d4b6080860182614845565b5060a0830151614d5e60a0860182614ddf565b508091505092915050565b600060a0830160008301518482036000860152614d86828261489f565b9150506020830151614d9b6020860182614ddf565b506040830151614dae6040860182614ddf565b506060830151614dc160608601826146f6565b506080830151614dd460808601826146f6565b508091505092915050565b614de881615649565b82525050565b614df781615649565b82525050565b6000614e098284614911565b915081905092915050565b6000602082019050614e296000830184614705565b92915050565b6000604082019050614e446000830185614705565b614e516020830184614854565b9392505050565b60006020820190508181036000830152614e728184614714565b905092915050565b6000602082019050614e8f6000830184614854565b92915050565b6000602082019050614eaa6000830184614881565b92915050565b6000602082019050614ec56000830184614890565b92915050565b60006020820190508181036000830152614ee581846148d8565b905092915050565b60006080820190508181036000830152614f0781876148d8565b90508181036020830152614f1b81866148d8565b9050614f2a6040830185614854565b614f376060830184614dee565b95945050505050565b6000610140820190508181036000830152614f5b818d6148d8565b90508181036020830152614f6f818c6148d8565b90508181036040830152614f83818b6148d8565b90508181036060830152614f97818a6148d8565b90508181036080830152614fab81896148d8565b905081810360a0830152614fbf81886148d8565b905081810360c0830152614fd381876148d8565b9050614fe260e0830186614854565b614ff0610100830185614854565b614ffe610120830184614dee565b9b9a5050505050505050505050565b6000602082019050818103600083015261502681614942565b9050919050565b6000602082019050818103600083015261504681614965565b9050919050565b6000602082019050818103600083015261506681614988565b9050919050565b60006020820190508181036000830152615086816149ab565b9050919050565b600060208201905081810360008301526150a6816149ce565b9050919050565b600060208201905081810360008301526150c6816149f1565b9050919050565b600060208201905081810360008301526150e681614a14565b9050919050565b6000602082019050818103600083015261510681614a37565b9050919050565b6000602082019050818103600083015261512681614a5a565b9050919050565b6000602082019050818103600083015261514681614a7d565b9050919050565b6000602082019050818103600083015261516681614aa0565b9050919050565b6000602082019050818103600083015261518681614ac3565b9050919050565b600060208201905081810360008301526151a681614ae6565b9050919050565b600060208201905081810360008301526151c681614b09565b9050919050565b600060208201905081810360008301526151e681614b2c565b9050919050565b6000602082019050818103600083015261520681614b4f565b9050919050565b6000602082019050818103600083015261522681614b72565b9050919050565b6000602082019050818103600083015261524681614b95565b9050919050565b6000602082019050818103600083015261526681614bb8565b9050919050565b6000602082019050818103600083015261528681614bdb565b9050919050565b600060208201905081810360008301526152a681614bfe565b9050919050565b600060208201905081810360008301526152c78184614c21565b905092915050565b600060208201905081810360008301526152e98184614ccb565b905092915050565b60006020820190506153066000830184614dee565b92915050565b600060c0820190506153216000830189614dee565b61532e6020830188614872565b818103604083015261534081876148d8565b9050818103606083015261535481866148d8565b90506153636080830185614dee565b61537060a0830184614854565b979650505050505050565b600060c0820190506153906000830189614dee565b61539d6020830188614dee565b6153aa6040830187614dee565b6153b76060830186614dee565b81810360808301526153c981856148d8565b90506153d860a0830184614dee565b979650505050505050565b60006153ed6153fe565b90506153f982826156fd565b919050565b6000604051905090565b600067ffffffffffffffff821115615423576154226157bb565b5b602082029050602081019050919050565b600067ffffffffffffffff82111561544f5761544e6157bb565b5b61545882615803565b9050602081019050919050565b6000819050602082019050919050565b6000819050602082019050919050565b6000819050602082019050919050565b600081519050919050565b600081519050919050565b600081519050919050565b600081519050919050565b6000602082019050919050565b6000602082019050919050565b6000602082019050919050565b600082825260208201905092915050565b600082825260208201905092915050565b600082825260208201905092915050565b600082825260208201905092915050565b600082825260208201905092915050565b600081905092915050565b600061555382615649565b915061555e83615649565b9250827fffffffffffffffffffffffffffffffffffffffffffffffffffffffffffffffff038211156155935761559261572e565b5b828201905092915050565b60006155a982615649565b91506155b483615649565b9250828210156155c7576155c661572e565b5b828203905092915050565b60006155dd82615629565b9050919050565b60008115159050919050565b60008190506155fe82615c09565b919050565b600081905061561182615c1d565b919050565b600081905061562482615c31565b919050565b600073ffffffffffffffffffffffffffffffffffffffff82169050919050565b6000819050919050565b600061565e826155f0565b9050919050565b600061567082615603565b9050919050565b600061568282615616565b9050919050565b82818337600083830152505050565b60005b838110156156b657808201518184015260208101905061569b565b838111156156c5576000848401525b50505050565b600060028204905060018216806156e357607f821691505b602082108114156156f7576156f661578c565b5b50919050565b61570682615803565b810181811067ffffffffffffffff82111715615725576157246157bb565b5b80604052505050565b7f4e487b7100000000000000000000000000000000000000000000000000000000600052601160045260246000fd5b7f4e487b7100000000000000000000000000000000000000000000000000000000600052602160045260246000fd5b7f4e487b7100000000000000000000000000000000000000000000000000000000600052602260045260246000fd5b7f4e487b7100000000000000000000000000000000000000000000000000000000600052604160045260246000fd5b600080fd5b600080fd5b600080fd5b600080fd5b600080fd5b6000601f19601f8301169050919050565b7f496e76616c6964206f7267616e697a6174696f6e2e0000000000000000000000600082015250565b7f4f7267616e697a6174696f6e206973206e6f7420617070726f7665642e000000600082015250565b7f416c726561647920726567697374657265642e00000000000000000000000000600082015250565b7f496e73756666696369656e742076616363696e652e2e2e000000000000000000600082015250565b7f56616363696e65206e6f7420617070726f7665642e0000000000000000000000600082015250565b7f416c726561647920617070726f76656420696e20616e6f74686572206f72676160008201527f6e697a6174696f6e2e0000000000000000000000000000000000000000000000602082015250565b7f4f7267616e697a6174696f6e20697320616c726561647920617070726f76656460008201527f2e00000000000000000000000000000000000000000000000000000000000000602082015250565b7f496e73756666696369656e7420616d6f756e742e000000000000000000000000600082015250565b7f4f7267616e697a6174696f6e206d75737420666972737420726567697374657260008201527f20746f20617070726f76652e0000000000000000000000000000000000000000602082015250565b7f56616363696e65206973206e6f7420617070726f7665642e0000000000000000600082015250565b7f4d7573742062652070726576696f75736c7920646566726f7374656400000000600082015250565b7f496e73756666696369656e742076616363696e65732e00000000000000000000600082015250565b7f56616363696e65206e6f7420617070726f766564000000000000000000000000600082015250565b7f4f7267616e697a6174696f6e0000000000000000000000000000000000000000600082015250565b7f556e726567697374657265642075736572000000000000000000000000000000600082015250565b7f4865616c7468506572736f6e0000000000000000000000000000000000000000600082015250565b7f496e76616c696420626174636800000000000000000000000000000000000000600082015250565b7f4578706972656400000000000000000000000000000000000000000000000000600082015250565b7f46756c6c792076616363696e6174656420616c72656164792e00000000000000600082015250565b7f4d7573742062652075736564207072696f7220746f207573652062792064617460008201527f652e000000000000000000000000000000000000000000000000000000000000602082015250565b7f737570657241646d696e00000000000000000000000000000000000000000000600082015250565b60038110615c1a57615c1961575d565b5b50565b60048110615c2e57615c2d61575d565b5b50565b60038110615c4257615c4161575d565b5b50565b615c4e816155d2565b8114615c5957600080fd5b50565b60038110615c6957600080fd5b50565b615c7581615649565b8114615c8057600080fd5b5056fea2646970667358221220a8f0f87021c35b2b8c594ea569ebff110c1570e69caab1627ae14e7c80b5ee2864736f6c63430008050033",
  "immutableReferences": {},
  "source": "// SPDX-License-Identifier: MIT\npragma solidity >=0.4.22 <0.9.0;\npragma experimental ABIEncoderV2;\n\n\nuint256 constant REGISTRATION_COST = 10;\n\ncontract Vaccination {\n    enum VaccineStatus {\n        UNVACCINATED,\n        PARTIALLY_VACCINATED,\n        FULLY_VACCINATED\n    }\n\n    enum Gender {\n        MALE,\n        FEMALE,\n        UNSPECIFIED\n    }\n\n    enum Role {\n        GOVERNMENT,\n        ORGANIZATION,\n        HEALTHPERSON,\n        USER\n    }\n\n    struct Vaccine {\n        string name;\n        uint256 batch_no;\n        uint256 vaccination_datetime;\n        address healthPerson;\n        address organization;\n        // uint256 serialNo;\n    }\n\n    struct BatchDetails {\n        uint256 batch_id;\n        uint256 defrost_date;\n        uint256 manufacture_expiry;\n        uint256 use_by_date;\n        string ipfs_hash;\n        uint256 vaccined;\n    }\n\n    struct VaccineDetails {\n        string name;\n        // string platform;\n        // string route;\n        string ipfs_hash;\n        uint256[] schedule;\n        uint256[] batches;\n        bool approved;\n        uint256 vaccined;\n    }\n\n    struct User {\n        uint256 year_of_birth;\n        Gender gender;\n        string namehash;\n        string imagehash;\n        Vaccine[] vaccines;\n        // string vaccine_name;\n        // uint256[] batches;\n        // uint256[] datetime;\n        // address[] healthPersons;\n        // address[] organizations;\n        uint256 vaccine_count;\n        bool registered;\n    }\n\n    struct Organization {\n        string name;\n        string url;\n        string document_hash;\n        string logo_hash;\n        string location;\n        string phone;\n        string email;\n        address[] healthPersons;\n        bool approved;\n        bool registration;\n        uint256 vaccined;\n    }\n\n    struct HealthPerson {\n        address org;\n        bool approved;\n    }\n\n    mapping(address => Role) public roles;\n\n    mapping(string => VaccineDetails) public approvedVaccines;\n    mapping(string => mapping(uint256 => BatchDetails)) public approvedBatches;\n    mapping(string => mapping(uint256 => mapping(address => uint256)))\n        public approvedOperators;\n\n    string[] public approvedVaccineNames;\n\n    mapping(address => User) public users;\n    mapping(address => Organization) public organizations;\n    mapping(address => HealthPerson) public healthPersons;\n\n    address public superAdmin;\n\n    address[] public organizationsList;\n\n    // uint256 public registered;\n    uint256 public partiallyVaccinated;\n    uint256 public fullyVaccinated;\n\n    //uint256 public total_vaccines;\n    event ApproveVaccine(string indexed vaccine_name);\n    event AddBatch(string indexed vaccine_name, uint256 indexed batch_no);\n    event ApproveOrganization(string indexed org_name);\n    event TransferVaccine(\n        address indexed to,\n        string indexed vaccine_name,\n        uint256 batch_no\n    );\n\n    event RegisterOrganization(string indexed org_name);\n    event ApproveHealthPerson(address indexed org, address indexed hp);\n\n    event RegisterHealthPerson(address indexed _from);\n\n    event RegisterIndividual(address indexed _from);\n    \n    event Vaccinate(address indexed to, address indexed from, string indexed vaccine, uint256 batch_id);\n\n    constructor() {\n        superAdmin = msg.sender;\n        roles[msg.sender] = Role.GOVERNMENT;\n    }\n\n    function approveVaccine(string memory name, uint256[] memory schedule)\n        public\n        onlySuperAdmin\n    {\n        approvedVaccines[name].name = name;\n        approvedVaccines[name].schedule = schedule;\n        approvedVaccineNames.push(name);\n        approvedVaccines[name].approved = true;\n        emit ApproveVaccine(name);\n    }\n\n    function addBatch(\n        string memory name,\n        uint256 batch_id,\n        uint256 defrost_date,\n        uint256 manufacture_expiry,\n        uint256 use_by_date,\n        uint256 units\n    ) public onlySuperAdmin {\n        require(batch_id > 0, \"Invalid batch\");\n        require(approvedVaccines[name].approved, \"Vaccine is not approved.\");\n\n        //Check dates\n        require(defrost_date < block.timestamp, \"Must be previously defrosted\");\n        require(manufacture_expiry > block.timestamp, \"Expired\");\n        require(\n            use_by_date > block.timestamp,\n            \"Must be used prior to use by date.\"\n        );\n\n        approvedBatches[name][batch_id].batch_id = batch_id;\n        approvedBatches[name][batch_id].defrost_date = defrost_date;\n        approvedBatches[name][batch_id].manufacture_expiry = manufacture_expiry;\n        approvedBatches[name][batch_id].use_by_date = use_by_date;\n        approvedVaccines[name].batches.push(batch_id);\n        approvedOperators[name][batch_id][msg.sender] = units;\n        users[msg.sender].vaccine_count = units;\n        emit AddBatch(name, batch_id);\n    }\n\n    function registerOrganization(\n        string memory name,\n        string memory url,\n        string memory document_hash,\n        string memory logo_hash,\n        string memory location,\n        string memory phone,\n        string memory email\n    ) public payable {\n        if (msg.value < REGISTRATION_COST) {\n            revert(\"Insufficient amount.\");\n        }\n        organizations[msg.sender].name = name;\n        organizations[msg.sender].url = url;\n        organizations[msg.sender].document_hash = document_hash;\n        organizations[msg.sender].logo_hash = logo_hash;\n        organizations[msg.sender].location = location;\n        organizations[msg.sender].phone = phone;\n        organizations[msg.sender].email = email;\n\n        organizations[msg.sender].registration = true;\n        organizationsList.push(msg.sender);\n        roles[msg.sender] = Role.ORGANIZATION;\n        emit RegisterOrganization(name);\n    }\n\n    function approveOrganization(address org) public onlySuperAdmin {\n        if (!organizations[org].registration) {\n            revert(\"Organization must first register to approve.\");\n        }\n        if (organizations[org].approved) {\n            revert(\"Organization is already approved.\");\n        }\n        organizations[org].approved = true;\n    }\n\n    function transfer(\n        address to,\n        string memory name,\n        uint256 batch_id,\n        uint256 units\n    ) public onlySuperAdmin {\n        checkOrganization(to);\n        checkVaccine(name);\n        checkBatch(name, batch_id);\n\n        if (approvedOperators[name][batch_id][msg.sender] < units) {\n            revert(\"Insufficient vaccines.\");\n        }\n        approvedOperators[name][batch_id][msg.sender] -= units;\n        approvedOperators[name][batch_id][to] += units;\n        emit TransferVaccine(to, name, batch_id);\n    }\n\n    function registerIndividual(\n        uint256 year_of_birth,\n        Gender gender,\n        string memory namehash,\n        string memory imagehash\n    ) public {\n        require(users[msg.sender].registered == false, \"Already registered.\");\n        users[msg.sender].year_of_birth = year_of_birth;\n        users[msg.sender].gender = gender;\n        users[msg.sender].namehash = namehash;\n        users[msg.sender].imagehash = imagehash;\n        users[msg.sender].registered = true;\n        roles[msg.sender] = Role.USER;\n        emit RegisterIndividual(msg.sender);\n    }\n\n    function approveHealthPerson(address person) public onlyOrganization {\n        require(!healthPersons[person].approved, 'Already approved in another organization.');\n        healthPersons[person].org = msg.sender;\n        healthPersons[person].approved = true;\n        roles[person] = Role.HEALTHPERSON;\n        organizations[msg.sender].healthPersons.push(person);\n        emit ApproveHealthPerson(msg.sender, person);\n    }\n\n    function vaccinate(\n        address to,\n        string memory name,\n        uint256 batch_id\n    ) public onlyHealthPerson {\n        checkUserRegistration(to);\n        checkAvailability(name, batch_id, msg.sender);\n        checkUserVaccineCompatibility(to, name);\n\n        address orgAddress = healthPersons[msg.sender].org;\n        Vaccine memory newVaccine = Vaccine(name, batch_id, block.timestamp, msg.sender, orgAddress);\n        users[to].vaccines.push(newVaccine);\n\n\n        // users[to].vaccine_name = name;\n        // users[to].batches.push(batch_id);\n        // users[to].datetime.push(block.timestamp);\n        // users[to].healthPersons.push(msg.sender);\n        // users[to].organizations.push(orgAddress);\n        users[to].vaccine_count += 1;\n        approvedOperators[name][batch_id][orgAddress] -= 1;\n\n        organizations[orgAddress].vaccined += 1;\n        approvedBatches[name][batch_id].vaccined += 1;\n        approvedVaccines[name].vaccined += 1;\n\n        changeStatus(to);\n\n        emit Vaccinate(to, msg.sender, name, batch_id);\n    }\n\n    //Check Methods\n    function checkUserRegistration(address user) private view {\n        require(users[user].registered == true, \"Unregistered user\");\n    }\n\n    function checkBatch(string memory name, uint256 batch_id) public view {\n        require(approvedBatches[name][batch_id].batch_id > 0, \"Invalid batch\");\n        require(\n            approvedBatches[name][batch_id].defrost_date < block.timestamp,\n            \"Must be previously defrosted\"\n        );\n        require(\n            approvedBatches[name][batch_id].manufacture_expiry >\n                block.timestamp,\n            \"Expired\"\n        );\n        require(\n            approvedBatches[name][batch_id].use_by_date > block.timestamp,\n            \"Must be used prior to use by date.\"\n        );\n    }\n\n    function checkOrganization(address org) public view {\n        if (!organizations[org].registration) {\n            revert(\"Invalid organization.\");\n        }\n        if (!organizations[org].approved) {\n            revert(\"Organization is not approved.\");\n        }\n    }\n\n    function checkVaccine(string memory name) public view {\n        if (!approvedVaccines[name].approved) {\n            revert(\"Vaccine not approved\");\n        }\n    }\n\n    function checkUserVaccineCompatibility(address user, string memory name)\n        private\n        view\n    {\n        require(\n            approvedVaccines[name].approved == true,\n            \"Vaccine is not approved.\"\n        );\n        // bytes memory _user_recieved_vaccine = bytes(users[user].vaccine_name);\n        // bytes memory _user_recieving_vaccine = bytes(name);\n\n        // if (_user_recieved_vaccine.length > 0) {\n        //     if (\n        //         _user_recieved_vaccine.length != _user_recieving_vaccine.length\n        //     ) {\n        //         revert(\"Vaccine not compatible.\");\n        //     }\n        //     for (uint256 i = 0; i < _user_recieved_vaccine.length; i++) {\n        //         if (_user_recieved_vaccine[i] != _user_recieving_vaccine[i]) {\n        //             revert(\"Vaccine not compatible.\");\n        //         }\n        //     }\n        // }\n        uint256 user_vaccineCount = getUserVaccineCount(user);\n        uint256 required_vaccineCount = getRequiredVaccineCount(name);\n\n        if (user_vaccineCount == required_vaccineCount) {\n            revert(\"Fully vaccinated already.\");\n        }\n    }\n\n    //Read Only Methods\n    function getUserVaccineCount(address user) public view returns (uint256) {\n        uint256 count = users[user].vaccine_count;\n        return count;\n    }\n\n    function getRequiredVaccineCount(string memory name)\n        public\n        view\n        returns (uint256)\n    {\n        return approvedVaccines[name].schedule.length;\n    }\n\n    function getTotalOrganization() public view returns (uint256) {\n        return organizationsList.length;\n    }\n\n    function getAllOrganizations() public view returns (address[] memory) {\n        return organizationsList;\n    }\n\n    function getAllHealthPersons(address org)\n        public\n        view\n        returns (address[] memory)\n    {\n        return organizations[org].healthPersons;\n    }\n\n    function getVaccineStatusOf(address user)\n        public\n        view\n        returns (VaccineStatus status)\n    {\n        uint256 user_vaccineCount = users[user].vaccine_count;\n        // uint256 required_vaccineCount = approvedVaccines[\n        //     users[user].vaccine_name\n        // ].schedule.length;\n        uint256 required_vaccineCount = 2;\n\n        if (user_vaccineCount == 0) {\n            return VaccineStatus.UNVACCINATED;\n        }\n        if (user_vaccineCount < required_vaccineCount) {\n            return VaccineStatus.PARTIALLY_VACCINATED;\n        }\n        if (user_vaccineCount == required_vaccineCount) {\n            return VaccineStatus.FULLY_VACCINATED;\n        }\n    }\n\n    function changeStatus(address user) private {\n        VaccineStatus status = getVaccineStatusOf(user);\n        if (status == VaccineStatus.FULLY_VACCINATED) {\n            fullyVaccinated += 1;\n        }\n        if (status == VaccineStatus.PARTIALLY_VACCINATED) {\n            partiallyVaccinated += 1;\n        }\n    }\n\n    //Modifiers\n    modifier onlySuperAdmin() {\n        require(msg.sender == superAdmin, \"superAdmin\");\n        _;\n    }\n    modifier onlyOrganization() {\n        require(organizations[msg.sender].approved, \"Organization\");\n        _;\n    }\n    modifier onlyHealthPerson() {\n        require(healthPersons[msg.sender].approved, \"HealthPerson\");\n        _;\n    }\n\n    function getHealthPersonOrganization(address healthPerson)\n        public\n        view\n        returns (address)\n    {\n        return (healthPersons[healthPerson].org);\n    }\n\n    function checkAvailability(\n        string memory name,\n        uint256 batch_id,\n        address healthPerson\n    ) public view {\n        require(\n            approvedVaccines[name].approved == true,\n            \"Vaccine not approved.\"\n        );\n        checkBatch(name, batch_id);\n        require(\n            approvedOperators[name][batch_id][healthPersons[healthPerson].org] >\n                0,\n            \"Insufficient vaccine...\"\n        );\n    }\n\n    function getAvailableVaccines(\n        string memory name,\n        uint256 batch,\n        address org\n    ) public view returns (uint256) {\n        return approvedOperators[name][batch][org];\n    }\n\n    function getApprovedVaccinesLength() public view returns (uint256) {\n        return approvedVaccineNames.length;\n    }\n\n    function getVaccineApprovalStatus(string memory name)\n        public\n        view\n        returns (bool)\n    {\n        return approvedVaccines[name].approved;\n    }\n\n    function now() public view returns (uint256) {\n        return block.timestamp;\n    }\n\n    function getRole(address user) public view returns (Role) {\n        return roles[user];\n    }\n\n    function getVaccineDetails(string memory name) public view returns(VaccineDetails memory) {\n        return approvedVaccines[name];\n    }\n\n    function getUserDetails(address userAddress) public view returns (User memory) {\n        return users[userAddress];\n    }\n\n    // function getOrganizationDetails(address orgAddress) public view returns (Organization memory) {\n    //     return organizations[orgAddress];\n    // }\n\n}\n",
  "sourcePath": "/home/prajwolrg/School/Vaccination/vaccine-solidity/contracts/Vaccination.sol",
  "compiler": {
    "name": "solc",
    "version": "0.8.5+commit.a4f2e591.Emscripten.clang"
  },
  "schemaVersion": "3.4.4",
  "updatedAt": "2022-04-12T13:06:06.193Z",
  "networkType": "ethereum",
  "devdoc": {
    "kind": "dev",
    "methods": {},
    "version": 1
  },
  "userdoc": {
    "kind": "user",
    "methods": {},
    "version": 1
  }
}