{
  "contractName": "Vaccination",
  "abi": [
    {
      "inputs": [],
      "stateMutability": "nonpayable",
      "type": "constructor"
    },
    {
      "anonymous": false,
      "inputs": [
        {
          "indexed": true,
          "internalType": "string",
          "name": "vaccine_name",
          "type": "string"
        },
        {
          "indexed": true,
          "internalType": "uint256",
          "name": "batch_no",
          "type": "uint256"
        }
      ],
      "name": "AddBatch",
      "type": "event"
    },
    {
      "anonymous": false,
      "inputs": [
        {
          "indexed": true,
          "internalType": "address",
          "name": "org",
          "type": "address"
        },
        {
          "indexed": true,
          "internalType": "address",
          "name": "hp",
          "type": "address"
        }
      ],
      "name": "ApproveHealthPerson",
      "type": "event"
    },
    {
      "anonymous": false,
      "inputs": [
        {
          "indexed": true,
          "internalType": "string",
          "name": "org_name",
          "type": "string"
        }
      ],
      "name": "ApproveOrganization",
      "type": "event"
    },
    {
      "anonymous": false,
      "inputs": [
        {
          "indexed": true,
          "internalType": "string",
          "name": "vaccine_name",
          "type": "string"
        }
      ],
      "name": "ApproveVaccine",
      "type": "event"
    },
    {
      "anonymous": false,
      "inputs": [
        {
          "indexed": true,
          "internalType": "address",
          "name": "_from",
          "type": "address"
        }
      ],
      "name": "RegisterHealthPerson",
      "type": "event"
    },
    {
      "anonymous": false,
      "inputs": [
        {
          "indexed": true,
          "internalType": "address",
          "name": "_from",
          "type": "address"
        }
      ],
      "name": "RegisterIndividual",
      "type": "event"
    },
    {
      "anonymous": false,
      "inputs": [
        {
          "indexed": true,
          "internalType": "string",
          "name": "org_name",
          "type": "string"
        }
      ],
      "name": "RegisterOrganization",
      "type": "event"
    },
    {
      "anonymous": false,
      "inputs": [
        {
          "indexed": true,
          "internalType": "address",
          "name": "to",
          "type": "address"
        },
        {
          "indexed": true,
          "internalType": "string",
          "name": "vaccine_name",
          "type": "string"
        },
        {
          "indexed": false,
          "internalType": "uint256",
          "name": "batch_no",
          "type": "uint256"
        }
      ],
      "name": "TransferVaccine",
      "type": "event"
    },
    {
      "inputs": [
        {
          "internalType": "string",
          "name": "",
          "type": "string"
        },
        {
          "internalType": "uint256",
          "name": "",
          "type": "uint256"
        }
      ],
      "name": "approvedBatches",
      "outputs": [
        {
          "internalType": "uint256",
          "name": "batch_id",
          "type": "uint256"
        },
        {
          "internalType": "uint256",
          "name": "defrost_date",
          "type": "uint256"
        },
        {
          "internalType": "uint256",
          "name": "manufacture_expiry",
          "type": "uint256"
        },
        {
          "internalType": "uint256",
          "name": "use_by_date",
          "type": "uint256"
        },
        {
          "internalType": "string",
          "name": "ipfs_hash",
          "type": "string"
        }
      ],
      "stateMutability": "view",
      "type": "function",
      "constant": true
    },
    {
      "inputs": [
        {
          "internalType": "string",
          "name": "",
          "type": "string"
        },
        {
          "internalType": "uint256",
          "name": "",
          "type": "uint256"
        },
        {
          "internalType": "address",
          "name": "",
          "type": "address"
        }
      ],
      "name": "approvedOperators",
      "outputs": [
        {
          "internalType": "uint256",
          "name": "",
          "type": "uint256"
        }
      ],
      "stateMutability": "view",
      "type": "function",
      "constant": true
    },
    {
      "inputs": [
        {
          "internalType": "uint256",
          "name": "",
          "type": "uint256"
        }
      ],
      "name": "approvedVaccineNames",
      "outputs": [
        {
          "internalType": "string",
          "name": "",
          "type": "string"
        }
      ],
      "stateMutability": "view",
      "type": "function",
      "constant": true
    },
    {
      "inputs": [
        {
          "internalType": "string",
          "name": "",
          "type": "string"
        }
      ],
      "name": "approvedVaccines",
      "outputs": [
        {
          "internalType": "string",
          "name": "name",
          "type": "string"
        },
        {
          "internalType": "string",
          "name": "ipfs_hash",
          "type": "string"
        },
        {
          "internalType": "bool",
          "name": "approved",
          "type": "bool"
        }
      ],
      "stateMutability": "view",
      "type": "function",
      "constant": true
    },
    {
      "inputs": [],
      "name": "fullyVaccinated",
      "outputs": [
        {
          "internalType": "uint256",
          "name": "",
          "type": "uint256"
        }
      ],
      "stateMutability": "view",
      "type": "function",
      "constant": true
    },
    {
      "inputs": [
        {
          "internalType": "address",
          "name": "",
          "type": "address"
        }
      ],
      "name": "healthPersons",
      "outputs": [
        {
          "internalType": "address",
          "name": "org",
          "type": "address"
        },
        {
          "internalType": "bool",
          "name": "approved",
          "type": "bool"
        }
      ],
      "stateMutability": "view",
      "type": "function",
      "constant": true
    },
    {
      "inputs": [
        {
          "internalType": "address",
          "name": "",
          "type": "address"
        }
      ],
      "name": "organizations",
      "outputs": [
        {
          "internalType": "string",
          "name": "name",
          "type": "string"
        },
        {
          "internalType": "string",
          "name": "url",
          "type": "string"
        },
        {
          "internalType": "string",
          "name": "document_hash",
          "type": "string"
        },
        {
          "internalType": "string",
          "name": "logo_hash",
          "type": "string"
        },
        {
          "internalType": "string",
          "name": "location",
          "type": "string"
        },
        {
          "internalType": "string",
          "name": "phone",
          "type": "string"
        },
        {
          "internalType": "string",
          "name": "email",
          "type": "string"
        },
        {
          "internalType": "bool",
          "name": "approved",
          "type": "bool"
        },
        {
          "internalType": "bool",
          "name": "registration",
          "type": "bool"
        },
        {
          "internalType": "uint256",
          "name": "vaccined",
          "type": "uint256"
        }
      ],
      "stateMutability": "view",
      "type": "function",
      "constant": true
    },
    {
      "inputs": [
        {
          "internalType": "uint256",
          "name": "",
          "type": "uint256"
        }
      ],
      "name": "organizationsList",
      "outputs": [
        {
          "internalType": "address",
          "name": "",
          "type": "address"
        }
      ],
      "stateMutability": "view",
      "type": "function",
      "constant": true
    },
    {
      "inputs": [],
      "name": "partiallyVaccinated",
      "outputs": [
        {
          "internalType": "uint256",
          "name": "",
          "type": "uint256"
        }
      ],
      "stateMutability": "view",
      "type": "function",
      "constant": true
    },
    {
      "inputs": [
        {
          "internalType": "address",
          "name": "",
          "type": "address"
        }
      ],
      "name": "roles",
      "outputs": [
        {
          "internalType": "enum Vaccination.Role",
          "name": "",
          "type": "uint8"
        }
      ],
      "stateMutability": "view",
      "type": "function",
      "constant": true
    },
    {
      "inputs": [],
      "name": "superAdmin",
      "outputs": [
        {
          "internalType": "address",
          "name": "",
          "type": "address"
        }
      ],
      "stateMutability": "view",
      "type": "function",
      "constant": true
    },
    {
      "inputs": [
        {
          "internalType": "address",
          "name": "",
          "type": "address"
        }
      ],
      "name": "users",
      "outputs": [
        {
          "internalType": "uint256",
          "name": "year_of_birth",
          "type": "uint256"
        },
        {
          "internalType": "enum Vaccination.Gender",
          "name": "gender",
          "type": "uint8"
        },
        {
          "internalType": "string",
          "name": "namehash",
          "type": "string"
        },
        {
          "internalType": "string",
          "name": "imagehash",
          "type": "string"
        },
        {
          "internalType": "string",
          "name": "vaccine_name",
          "type": "string"
        },
        {
          "internalType": "uint256",
          "name": "vaccine_count",
          "type": "uint256"
        },
        {
          "internalType": "bool",
          "name": "registered",
          "type": "bool"
        }
      ],
      "stateMutability": "view",
      "type": "function",
      "constant": true
    },
    {
      "inputs": [
        {
          "internalType": "string",
          "name": "name",
          "type": "string"
        },
        {
          "internalType": "uint256[]",
          "name": "schedule",
          "type": "uint256[]"
        }
      ],
      "name": "approveVaccine",
      "outputs": [],
      "stateMutability": "nonpayable",
      "type": "function"
    },
    {
      "inputs": [
        {
          "internalType": "string",
          "name": "name",
          "type": "string"
        },
        {
          "internalType": "uint256",
          "name": "batch_id",
          "type": "uint256"
        },
        {
          "internalType": "uint256",
          "name": "defrost_date",
          "type": "uint256"
        },
        {
          "internalType": "uint256",
          "name": "manufacture_expiry",
          "type": "uint256"
        },
        {
          "internalType": "uint256",
          "name": "use_by_date",
          "type": "uint256"
        },
        {
          "internalType": "uint256",
          "name": "units",
          "type": "uint256"
        }
      ],
      "name": "addBatch",
      "outputs": [],
      "stateMutability": "nonpayable",
      "type": "function"
    },
    {
      "inputs": [
        {
          "internalType": "string",
          "name": "name",
          "type": "string"
        },
        {
          "internalType": "string",
          "name": "url",
          "type": "string"
        },
        {
          "internalType": "string",
          "name": "document_hash",
          "type": "string"
        },
        {
          "internalType": "string",
          "name": "logo_hash",
          "type": "string"
        },
        {
          "internalType": "string",
          "name": "location",
          "type": "string"
        },
        {
          "internalType": "string",
          "name": "phone",
          "type": "string"
        },
        {
          "internalType": "string",
          "name": "email",
          "type": "string"
        }
      ],
      "name": "registerOrganization",
      "outputs": [],
      "stateMutability": "payable",
      "type": "function",
      "payable": true
    },
    {
      "inputs": [
        {
          "internalType": "address",
          "name": "org",
          "type": "address"
        }
      ],
      "name": "approveOrganization",
      "outputs": [],
      "stateMutability": "nonpayable",
      "type": "function"
    },
    {
      "inputs": [
        {
          "internalType": "address",
          "name": "to",
          "type": "address"
        },
        {
          "internalType": "string",
          "name": "name",
          "type": "string"
        },
        {
          "internalType": "uint256",
          "name": "batch_id",
          "type": "uint256"
        },
        {
          "internalType": "uint256",
          "name": "units",
          "type": "uint256"
        }
      ],
      "name": "transfer",
      "outputs": [],
      "stateMutability": "nonpayable",
      "type": "function"
    },
    {
      "inputs": [
        {
          "internalType": "uint256",
          "name": "year_of_birth",
          "type": "uint256"
        },
        {
          "internalType": "enum Vaccination.Gender",
          "name": "gender",
          "type": "uint8"
        },
        {
          "internalType": "string",
          "name": "namehash",
          "type": "string"
        },
        {
          "internalType": "string",
          "name": "imagehash",
          "type": "string"
        }
      ],
      "name": "registerIndividual",
      "outputs": [],
      "stateMutability": "nonpayable",
      "type": "function"
    },
    {
      "inputs": [
        {
          "internalType": "address",
          "name": "person",
          "type": "address"
        }
      ],
      "name": "approveHealthPerson",
      "outputs": [],
      "stateMutability": "nonpayable",
      "type": "function"
    },
    {
      "inputs": [
        {
          "internalType": "address",
          "name": "to",
          "type": "address"
        },
        {
          "internalType": "string",
          "name": "name",
          "type": "string"
        },
        {
          "internalType": "uint256",
          "name": "batch_id",
          "type": "uint256"
        }
      ],
      "name": "vaccinate",
      "outputs": [],
      "stateMutability": "nonpayable",
      "type": "function"
    },
    {
      "inputs": [
        {
          "internalType": "string",
          "name": "name",
          "type": "string"
        },
        {
          "internalType": "uint256",
          "name": "batch_id",
          "type": "uint256"
        }
      ],
      "name": "checkBatch",
      "outputs": [],
      "stateMutability": "view",
      "type": "function",
      "constant": true
    },
    {
      "inputs": [
        {
          "internalType": "address",
          "name": "org",
          "type": "address"
        }
      ],
      "name": "checkOrganization",
      "outputs": [],
      "stateMutability": "view",
      "type": "function",
      "constant": true
    },
    {
      "inputs": [
        {
          "internalType": "string",
          "name": "name",
          "type": "string"
        }
      ],
      "name": "checkVaccine",
      "outputs": [],
      "stateMutability": "view",
      "type": "function",
      "constant": true
    },
    {
      "inputs": [
        {
          "internalType": "address",
          "name": "user",
          "type": "address"
        }
      ],
      "name": "getUserVaccineCount",
      "outputs": [
        {
          "internalType": "uint256",
          "name": "",
          "type": "uint256"
        }
      ],
      "stateMutability": "view",
      "type": "function",
      "constant": true
    },
    {
      "inputs": [
        {
          "internalType": "string",
          "name": "name",
          "type": "string"
        }
      ],
      "name": "getRequiredVaccineCount",
      "outputs": [
        {
          "internalType": "uint256",
          "name": "",
          "type": "uint256"
        }
      ],
      "stateMutability": "view",
      "type": "function",
      "constant": true
    },
    {
      "inputs": [],
      "name": "getTotalOrganization",
      "outputs": [
        {
          "internalType": "uint256",
          "name": "",
          "type": "uint256"
        }
      ],
      "stateMutability": "view",
      "type": "function",
      "constant": true
    },
    {
      "inputs": [],
      "name": "getAllOrganizations",
      "outputs": [
        {
          "internalType": "address[]",
          "name": "",
          "type": "address[]"
        }
      ],
      "stateMutability": "view",
      "type": "function",
      "constant": true
    },
    {
      "inputs": [
        {
          "internalType": "address",
          "name": "org",
          "type": "address"
        }
      ],
      "name": "getAllHealthPersons",
      "outputs": [
        {
          "internalType": "address[]",
          "name": "",
          "type": "address[]"
        }
      ],
      "stateMutability": "view",
      "type": "function",
      "constant": true
    },
    {
      "inputs": [
        {
          "internalType": "address",
          "name": "user",
          "type": "address"
        }
      ],
      "name": "getVaccineStatusOf",
      "outputs": [
        {
          "internalType": "enum Vaccination.VaccineStatus",
          "name": "status",
          "type": "uint8"
        }
      ],
      "stateMutability": "view",
      "type": "function",
      "constant": true
    },
    {
      "inputs": [
        {
          "internalType": "address",
          "name": "healthPerson",
          "type": "address"
        }
      ],
      "name": "getHealthPersonOrganization",
      "outputs": [
        {
          "internalType": "address",
          "name": "",
          "type": "address"
        }
      ],
      "stateMutability": "view",
      "type": "function",
      "constant": true
    },
    {
      "inputs": [
        {
          "internalType": "string",
          "name": "name",
          "type": "string"
        },
        {
          "internalType": "uint256",
          "name": "batch_id",
          "type": "uint256"
        },
        {
          "internalType": "address",
          "name": "healthPerson",
          "type": "address"
        }
      ],
      "name": "checkAvailability",
      "outputs": [],
      "stateMutability": "view",
      "type": "function",
      "constant": true
    },
    {
      "inputs": [
        {
          "internalType": "string",
          "name": "name",
          "type": "string"
        },
        {
          "internalType": "uint256",
          "name": "batch",
          "type": "uint256"
        },
        {
          "internalType": "address",
          "name": "org",
          "type": "address"
        }
      ],
      "name": "getAvailableVaccines",
      "outputs": [
        {
          "internalType": "uint256",
          "name": "",
          "type": "uint256"
        }
      ],
      "stateMutability": "view",
      "type": "function",
      "constant": true
    },
    {
      "inputs": [],
      "name": "getApprovedVaccinesLength",
      "outputs": [
        {
          "internalType": "uint256",
          "name": "",
          "type": "uint256"
        }
      ],
      "stateMutability": "view",
      "type": "function",
      "constant": true
    },
    {
      "inputs": [
        {
          "internalType": "string",
          "name": "name",
          "type": "string"
        }
      ],
      "name": "getVaccineApprovalStatus",
      "outputs": [
        {
          "internalType": "bool",
          "name": "",
          "type": "bool"
        }
      ],
      "stateMutability": "view",
      "type": "function",
      "constant": true
    },
    {
      "inputs": [],
      "name": "now",
      "outputs": [
        {
          "internalType": "uint256",
          "name": "",
          "type": "uint256"
        }
      ],
      "stateMutability": "view",
      "type": "function",
      "constant": true
    },
    {
      "inputs": [
        {
          "internalType": "address",
          "name": "user",
          "type": "address"
        }
      ],
      "name": "getRole",
      "outputs": [
        {
          "internalType": "enum Vaccination.Role",
          "name": "",
          "type": "uint8"
        }
      ],
      "stateMutability": "view",
      "type": "function",
      "constant": true
    }
  ],
  "bytecode": "0x60806040523480156200001157600080fd5b5033600860006101000a81548173ffffffffffffffffffffffffffffffffffffffff021916908373ffffffffffffffffffffffffffffffffffffffff16021790555060008060003373ffffffffffffffffffffffffffffffffffffffff1673ffffffffffffffffffffffffffffffffffffffff16815260200190815260200160002060006101000a81548160ff02191690836003811115620000b857620000b7620000c3565b5b0217905550620000f2565b7f4e487b7100000000000000000000000000000000000000000000000000000000600052602160045260246000fd5b61538580620001026000396000f3fe60806040526004361061020f5760003560e01c80636b847d5511610118578063ab512808116100a0578063e09eaca51161006f578063e09eaca514610862578063ea1fc7471461089f578063ecfab034146108c8578063fc1ba160146108f1578063ff6aa4ea1461091a5761020f565b8063ab51280814610782578063b168f0f0146107bf578063cd5f31bb146107fc578063cd96c2f8146108255761020f565b806398aabf17116100e757806398aabf171461069257806399374642146106ae5780639cc52761146106eb578063a62a3d2914610714578063a87430ba1461073f5761020f565b80636b847d55146105c25780637217fcfd146105ff5780638abe09f21461062a57806391db02f8146106555761020f565b80633c419f531161019b5780634d8335d01161016a5780634d8335d0146104c15780635a1f7406146104ec5780635fa932e814610532578063669ade7e1461055b57806369ed503f146105995761020f565b80633c419f53146103e15780633e1609ca1461041e57806344276733146104475780634cd89fc4146104845761020f565b80631ee584ac116101e25780631ee584ac146102e457806322fce9211461032157806325de97ef1461036257806329575f6a1461038b5780632eb1ca66146103b65761020f565b806307c2f08514610214578063086ed9381461025157806314fa0c8b1461027c5780631bb9488d146102a5575b600080fd5b34801561022057600080fd5b5061023b60048036038101906102369190613e8e565b610943565b60405161024891906149d2565b60405180910390f35b34801561025d57600080fd5b5061026661098b565b604051610273919061458b565b60405180910390f35b34801561028857600080fd5b506102a3600480360381019061029e9190613efd565b610a19565b005b3480156102b157600080fd5b506102cc60048036038101906102c79190613c0b565b610e47565b6040516102db93929190614620565b60405180910390f35b3480156102f057600080fd5b5061030b60048036038101906103069190613fa6565b610fa4565b6040516103189190614547565b60405180910390f35b34801561032d57600080fd5b5061034860048036038101906103439190613e32565b610fe3565b604051610359959493929190614a71565b60405180910390f35b34801561036e57600080fd5b5061038960048036038101906103849190613aec565b6110c4565b005b34801561039757600080fd5b506103a0611396565b6040516103ad9190614547565b60405180910390f35b3480156103c257600080fd5b506103cb6113bc565b6040516103d891906149d2565b60405180910390f35b3480156103ed57600080fd5b5061040860048036038101906104039190613fa6565b6113c2565b60405161041591906145fe565b60405180910390f35b34801561042a57600080fd5b5061044560048036038101906104409190613c0b565b61146e565b005b34801561045357600080fd5b5061046e60048036038101906104699190613aec565b6114df565b60405161047b91906145c8565b60405180910390f35b34801561049057600080fd5b506104ab60048036038101906104a69190613aec565b611534565b6040516104b89190614547565b60405180910390f35b3480156104cd57600080fd5b506104d66115a0565b6040516104e391906149d2565b60405180910390f35b3480156104f857600080fd5b50610513600480360381019061050e9190613aec565b6115ad565b6040516105299a99989796959493929190614665565b60405180910390f35b34801561053e57600080fd5b5061055960048036038101906105549190613fd3565b6119d3565b005b34801561056757600080fd5b50610582600480360381019061057d9190613aec565b611cd3565b604051610590929190614562565b60405180910390f35b3480156105a557600080fd5b506105c060048036038101906105bb9190613b19565b611d24565b005b3480156105ce57600080fd5b506105e960048036038101906105e49190613aec565b612048565b6040516105f691906149d2565b60405180910390f35b34801561060b57600080fd5b50610614612099565b60405161062191906149d2565b60405180910390f35b34801561063657600080fd5b5061063f6120a6565b60405161064c91906149d2565b60405180910390f35b34801561066157600080fd5b5061067c60048036038101906106779190613aec565b6120ae565b60405161068991906145e3565b60405180910390f35b6106ac60048036038101906106a79190613ccc565b6121a2565b005b3480156106ba57600080fd5b506106d560048036038101906106d09190613aec565b6125b7565b6040516106e291906145c8565b60405180910390f35b3480156106f757600080fd5b50610712600480360381019061070d9190613aec565b6125d7565b005b34801561072057600080fd5b506107296127e4565b60405161073691906149d2565b60405180910390f35b34801561074b57600080fd5b5061076660048036038101906107619190613aec565b6127ea565b60405161077997969594939291906149ed565b60405180910390f35b34801561078e57600080fd5b506107a960048036038101906107a49190613c0b565b6129de565b6040516107b691906145ad565b60405180910390f35b3480156107cb57600080fd5b506107e660048036038101906107e19190613aec565b612a16565b6040516107f3919061458b565b60405180910390f35b34801561080857600080fd5b50610823600480360381019061081e9190613e8e565b612ae6565b005b34801561083157600080fd5b5061084c60048036038101906108479190613c0b565b612c7b565b60405161085991906149d2565b60405180910390f35b34801561086e57600080fd5b5061088960048036038101906108849190613e8e565b612ca9565b60405161089691906149d2565b60405180910390f35b3480156108ab57600080fd5b506108c660048036038101906108c19190613e32565b612d21565b005b3480156108d457600080fd5b506108ef60048036038101906108ea9190613aec565b612ef6565b005b3480156108fd57600080fd5b5061091860048036038101906109139190613c54565b613017565b005b34801561092657600080fd5b50610941600480360381019061093c9190613b88565b6131ce565b005b60038380516020810182018051848252602083016020850120818352809550505050505060205281600052604060002060205280600052604060002060009250925050505481565b60606009805480602002602001604051908101604052809291908181526020018280548015610a0f57602002820191906000526020600020905b8160009054906101000a900473ffffffffffffffffffffffffffffffffffffffff1673ffffffffffffffffffffffffffffffffffffffff16815260200190600101908083116109c5575b5050505050905090565b600860009054906101000a900473ffffffffffffffffffffffffffffffffffffffff1673ffffffffffffffffffffffffffffffffffffffff163373ffffffffffffffffffffffffffffffffffffffff1614610aa9576040517f08c379a0000000000000000000000000000000000000000000000000000000008152600401610aa0906149b2565b60405180910390fd5b60008511610aec576040517f08c379a0000000000000000000000000000000000000000000000000000000008152600401610ae390614932565b60405180910390fd5b600186604051610afc9190614519565b908152602001604051809103902060040160009054906101000a900460ff16610b5a576040517f08c379a0000000000000000000000000000000000000000000000000000000008152600401610b5190614832565b60405180910390fd5b428410610b9c576040517f08c379a0000000000000000000000000000000000000000000000000000000008152600401610b9390614872565b60405180910390fd5b428311610bde576040517f08c379a0000000000000000000000000000000000000000000000000000000008152600401610bd590614952565b60405180910390fd5b428211610c20576040517f08c379a0000000000000000000000000000000000000000000000000000000008152600401610c1790614992565b60405180910390fd5b84600287604051610c319190614519565b908152602001604051809103902060008781526020019081526020016000206000018190555083600287604051610c689190614519565b908152602001604051809103902060008781526020019081526020016000206001018190555082600287604051610c9f9190614519565b908152602001604051809103902060008781526020019081526020016000206002018190555081600287604051610cd69190614519565b9081526020016040518091039020600087815260200190815260200160002060030181905550600186604051610d0c9190614519565b908152602001604051809103902060030185908060018154018082558091505060019003906000526020600020016000909190919091505580600387604051610d559190614519565b9081526020016040518091039020600087815260200190815260200160002060003373ffffffffffffffffffffffffffffffffffffffff1673ffffffffffffffffffffffffffffffffffffffff1681526020019081526020016000208190555080600560003373ffffffffffffffffffffffffffffffffffffffff1673ffffffffffffffffffffffffffffffffffffffff168152602001908152602001600020600701819055508486604051610e0b9190614519565b60405180910390207f2c6cf3aff6e0f7a34f79efaef2eee135f21edfaf419ebf6f1befe4e3a3efde2060405160405180910390a3505050505050565b600181805160208101820180518482526020830160208501208183528095505050505050600091509050806000018054610e8090614d45565b80601f0160208091040260200160405190810160405280929190818152602001828054610eac90614d45565b8015610ef95780601f10610ece57610100808354040283529160200191610ef9565b820191906000526020600020905b815481529060010190602001808311610edc57829003601f168201915b505050505090806001018054610f0e90614d45565b80601f0160208091040260200160405190810160405280929190818152602001828054610f3a90614d45565b8015610f875780601f10610f5c57610100808354040283529160200191610f87565b820191906000526020600020905b815481529060010190602001808311610f6a57829003601f168201915b5050505050908060040160009054906101000a900460ff16905083565b60098181548110610fb457600080fd5b906000526020600020016000915054906101000a900473ffffffffffffffffffffffffffffffffffffffff1681565b6002828051602081018201805184825260208301602085012081835280955050505050506020528060005260406000206000915091505080600001549080600101549080600201549080600301549080600401805461104190614d45565b80601f016020809104026020016040519081016040528092919081815260200182805461106d90614d45565b80156110ba5780601f1061108f576101008083540402835291602001916110ba565b820191906000526020600020905b81548152906001019060200180831161109d57829003601f168201915b5050505050905085565b600660003373ffffffffffffffffffffffffffffffffffffffff1673ffffffffffffffffffffffffffffffffffffffff16815260200190815260200160002060080160009054906101000a900460ff16611153576040517f08c379a000000000000000000000000000000000000000000000000000000000815260040161114a906148d2565b60405180910390fd5b33600760008373ffffffffffffffffffffffffffffffffffffffff1673ffffffffffffffffffffffffffffffffffffffff16815260200190815260200160002060000160006101000a81548173ffffffffffffffffffffffffffffffffffffffff021916908373ffffffffffffffffffffffffffffffffffffffff1602179055506001600760008373ffffffffffffffffffffffffffffffffffffffff1673ffffffffffffffffffffffffffffffffffffffff16815260200190815260200160002060000160146101000a81548160ff02191690831515021790555060026000808373ffffffffffffffffffffffffffffffffffffffff1673ffffffffffffffffffffffffffffffffffffffff16815260200190815260200160002060006101000a81548160ff0219169083600381111561129157611290614e20565b5b0217905550600660003373ffffffffffffffffffffffffffffffffffffffff1673ffffffffffffffffffffffffffffffffffffffff168152602001908152602001600020600701819080600181540180825580915050600190039060005260206000200160009091909190916101000a81548173ffffffffffffffffffffffffffffffffffffffff021916908373ffffffffffffffffffffffffffffffffffffffff1602179055508073ffffffffffffffffffffffffffffffffffffffff163373ffffffffffffffffffffffffffffffffffffffff167ff614f0736b4b411606df816f155b6c4d2dbfd2e69c2efee4b606481194aa6f5a60405160405180910390a350565b600860009054906101000a900473ffffffffffffffffffffffffffffffffffffffff1681565b600b5481565b600481815481106113d257600080fd5b9060005260206000200160009150905080546113ed90614d45565b80601f016020809104026020016040519081016040528092919081815260200182805461141990614d45565b80156114665780601f1061143b57610100808354040283529160200191611466565b820191906000526020600020905b81548152906001019060200180831161144957829003601f168201915b505050505081565b60018160405161147e9190614519565b908152602001604051809103902060040160009054906101000a900460ff166114dc576040517f08c379a00000000000000000000000000000000000000000000000000000000081526004016114d3906148b2565b60405180910390fd5b50565b60008060008373ffffffffffffffffffffffffffffffffffffffff1673ffffffffffffffffffffffffffffffffffffffff16815260200190815260200160002060009054906101000a900460ff169050919050565b6000600760008373ffffffffffffffffffffffffffffffffffffffff1673ffffffffffffffffffffffffffffffffffffffff16815260200190815260200160002060000160009054906101000a900473ffffffffffffffffffffffffffffffffffffffff169050919050565b6000600480549050905090565b60066020528060005260406000206000915090508060000180546115d090614d45565b80601f01602080910402602001604051908101604052809291908181526020018280546115fc90614d45565b80156116495780601f1061161e57610100808354040283529160200191611649565b820191906000526020600020905b81548152906001019060200180831161162c57829003601f168201915b50505050509080600101805461165e90614d45565b80601f016020809104026020016040519081016040528092919081815260200182805461168a90614d45565b80156116d75780601f106116ac576101008083540402835291602001916116d7565b820191906000526020600020905b8154815290600101906020018083116116ba57829003601f168201915b5050505050908060020180546116ec90614d45565b80601f016020809104026020016040519081016040528092919081815260200182805461171890614d45565b80156117655780601f1061173a57610100808354040283529160200191611765565b820191906000526020600020905b81548152906001019060200180831161174857829003601f168201915b50505050509080600301805461177a90614d45565b80601f01602080910402602001604051908101604052809291908181526020018280546117a690614d45565b80156117f35780601f106117c8576101008083540402835291602001916117f3565b820191906000526020600020905b8154815290600101906020018083116117d657829003601f168201915b50505050509080600401805461180890614d45565b80601f016020809104026020016040519081016040528092919081815260200182805461183490614d45565b80156118815780601f1061185657610100808354040283529160200191611881565b820191906000526020600020905b81548152906001019060200180831161186457829003601f168201915b50505050509080600501805461189690614d45565b80601f01602080910402602001604051908101604052809291908181526020018280546118c290614d45565b801561190f5780601f106118e45761010080835404028352916020019161190f565b820191906000526020600020905b8154815290600101906020018083116118f257829003601f168201915b50505050509080600601805461192490614d45565b80601f016020809104026020016040519081016040528092919081815260200182805461195090614d45565b801561199d5780601f106119725761010080835404028352916020019161199d565b820191906000526020600020905b81548152906001019060200180831161198057829003601f168201915b5050505050908060080160009054906101000a900460ff16908060080160019054906101000a900460ff1690806009015490508a565b60001515600560003373ffffffffffffffffffffffffffffffffffffffff1673ffffffffffffffffffffffffffffffffffffffff16815260200190815260200160002060080160009054906101000a900460ff16151514611a69576040517f08c379a0000000000000000000000000000000000000000000000000000000008152600401611a6090614772565b60405180910390fd5b83600560003373ffffffffffffffffffffffffffffffffffffffff1673ffffffffffffffffffffffffffffffffffffffff1681526020019081526020016000206000018190555082600560003373ffffffffffffffffffffffffffffffffffffffff1673ffffffffffffffffffffffffffffffffffffffff16815260200190815260200160002060010160006101000a81548160ff02191690836002811115611b1557611b14614e20565b5b021790555081600560003373ffffffffffffffffffffffffffffffffffffffff1673ffffffffffffffffffffffffffffffffffffffff1681526020019081526020016000206002019080519060200190611b709291906138af565b5080600560003373ffffffffffffffffffffffffffffffffffffffff1673ffffffffffffffffffffffffffffffffffffffff1681526020019081526020016000206003019080519060200190611bc79291906138af565b506001600560003373ffffffffffffffffffffffffffffffffffffffff1673ffffffffffffffffffffffffffffffffffffffff16815260200190815260200160002060080160006101000a81548160ff02191690831515021790555060036000803373ffffffffffffffffffffffffffffffffffffffff1673ffffffffffffffffffffffffffffffffffffffff16815260200190815260200160002060006101000a81548160ff02191690836003811115611c8557611c84614e20565b5b02179055503373ffffffffffffffffffffffffffffffffffffffff167fec2103278c3c80a6d7b51d03d161f98073de470c933d17309f7e46ebccd8c1ea60405160405180910390a250505050565b60076020528060005260406000206000915090508060000160009054906101000a900473ffffffffffffffffffffffffffffffffffffffff16908060000160149054906101000a900460ff16905082565b600760003373ffffffffffffffffffffffffffffffffffffffff1673ffffffffffffffffffffffffffffffffffffffff16815260200190815260200160002060000160149054906101000a900460ff16611db3576040517f08c379a0000000000000000000000000000000000000000000000000000000008152600401611daa90614912565b60405180910390fd5b611dbc83613499565b611dc7828233612ae6565b611dd18383613532565b81600560008573ffffffffffffffffffffffffffffffffffffffff1673ffffffffffffffffffffffffffffffffffffffff1681526020019081526020016000206004019080519060200190611e279291906138af565b50600560008473ffffffffffffffffffffffffffffffffffffffff1673ffffffffffffffffffffffffffffffffffffffff168152602001908152602001600020600501819080600181540180825580915050600190039060005260206000200160009091909190915055600560008473ffffffffffffffffffffffffffffffffffffffff1673ffffffffffffffffffffffffffffffffffffffff1681526020019081526020016000206006014290806001815401808255809150506001900390600052602060002001600090919091909150556001600560008573ffffffffffffffffffffffffffffffffffffffff1673ffffffffffffffffffffffffffffffffffffffff1681526020019081526020016000206007016000828254611f4d9190614bc2565b925050819055506001600383604051611f669190614519565b908152602001604051809103902060008381526020019081526020016000206000600760003373ffffffffffffffffffffffffffffffffffffffff1673ffffffffffffffffffffffffffffffffffffffff16815260200190815260200160002060000160009054906101000a900473ffffffffffffffffffffffffffffffffffffffff1673ffffffffffffffffffffffffffffffffffffffff1673ffffffffffffffffffffffffffffffffffffffff16815260200190815260200160002060008282546120339190614c18565b925050819055506120438361380f565b505050565b600080600560008473ffffffffffffffffffffffffffffffffffffffff1673ffffffffffffffffffffffffffffffffffffffff16815260200190815260200160002060070154905080915050919050565b6000600980549050905090565b600042905090565b600080600560008473ffffffffffffffffffffffffffffffffffffffff1673ffffffffffffffffffffffffffffffffffffffff16815260200190815260200160002060070154905060006001600560008673ffffffffffffffffffffffffffffffffffffffff1673ffffffffffffffffffffffffffffffffffffffff1681526020019081526020016000206004016040516121499190614530565b908152602001604051809103902060020180549050905060008214156121745760009250505061219d565b808210156121875760019250505061219d565b8082141561219a5760029250505061219d565b50505b919050565b600a3410156121e6576040517f08c379a00000000000000000000000000000000000000000000000000000000081526004016121dd906147f2565b60405180910390fd5b86600660003373ffffffffffffffffffffffffffffffffffffffff1673ffffffffffffffffffffffffffffffffffffffff168152602001908152602001600020600001908051906020019061223c9291906138af565b5085600660003373ffffffffffffffffffffffffffffffffffffffff1673ffffffffffffffffffffffffffffffffffffffff16815260200190815260200160002060010190805190602001906122939291906138af565b5084600660003373ffffffffffffffffffffffffffffffffffffffff1673ffffffffffffffffffffffffffffffffffffffff16815260200190815260200160002060020190805190602001906122ea9291906138af565b5083600660003373ffffffffffffffffffffffffffffffffffffffff1673ffffffffffffffffffffffffffffffffffffffff16815260200190815260200160002060030190805190602001906123419291906138af565b5082600660003373ffffffffffffffffffffffffffffffffffffffff1673ffffffffffffffffffffffffffffffffffffffff16815260200190815260200160002060040190805190602001906123989291906138af565b5081600660003373ffffffffffffffffffffffffffffffffffffffff1673ffffffffffffffffffffffffffffffffffffffff16815260200190815260200160002060050190805190602001906123ef9291906138af565b5080600660003373ffffffffffffffffffffffffffffffffffffffff1673ffffffffffffffffffffffffffffffffffffffff16815260200190815260200160002060060190805190602001906124469291906138af565b506001600660003373ffffffffffffffffffffffffffffffffffffffff1673ffffffffffffffffffffffffffffffffffffffff16815260200190815260200160002060080160016101000a81548160ff0219169083151502179055506009339080600181540180825580915050600190039060005260206000200160009091909190916101000a81548173ffffffffffffffffffffffffffffffffffffffff021916908373ffffffffffffffffffffffffffffffffffffffff16021790555060016000803373ffffffffffffffffffffffffffffffffffffffff1673ffffffffffffffffffffffffffffffffffffffff16815260200190815260200160002060006101000a81548160ff0219169083600381111561256757612566614e20565b5b02179055508660405161257a9190614519565b60405180910390207f464970519053c3da4a6516c6af01855284748b1531560ec3b1a4dcc74823688360405160405180910390a250505050505050565b60006020528060005260406000206000915054906101000a900460ff1681565b600860009054906101000a900473ffffffffffffffffffffffffffffffffffffffff1673ffffffffffffffffffffffffffffffffffffffff163373ffffffffffffffffffffffffffffffffffffffff1614612667576040517f08c379a000000000000000000000000000000000000000000000000000000000815260040161265e906149b2565b60405180910390fd5b600660008273ffffffffffffffffffffffffffffffffffffffff1673ffffffffffffffffffffffffffffffffffffffff16815260200190815260200160002060080160019054906101000a900460ff166126f6576040517f08c379a00000000000000000000000000000000000000000000000000000000081526004016126ed90614812565b60405180910390fd5b600660008273ffffffffffffffffffffffffffffffffffffffff1673ffffffffffffffffffffffffffffffffffffffff16815260200190815260200160002060080160009054906101000a900460ff1615612786576040517f08c379a000000000000000000000000000000000000000000000000000000000815260040161277d906147d2565b60405180910390fd5b6001600660008373ffffffffffffffffffffffffffffffffffffffff1673ffffffffffffffffffffffffffffffffffffffff16815260200190815260200160002060080160006101000a81548160ff02191690831515021790555050565b600a5481565b60056020528060005260406000206000915090508060000154908060010160009054906101000a900460ff169080600201805461282690614d45565b80601f016020809104026020016040519081016040528092919081815260200182805461285290614d45565b801561289f5780601f106128745761010080835404028352916020019161289f565b820191906000526020600020905b81548152906001019060200180831161288257829003601f168201915b5050505050908060030180546128b490614d45565b80601f01602080910402602001604051908101604052809291908181526020018280546128e090614d45565b801561292d5780601f106129025761010080835404028352916020019161292d565b820191906000526020600020905b81548152906001019060200180831161291057829003601f168201915b50505050509080600401805461294290614d45565b80601f016020809104026020016040519081016040528092919081815260200182805461296e90614d45565b80156129bb5780601f10612990576101008083540402835291602001916129bb565b820191906000526020600020905b81548152906001019060200180831161299e57829003601f168201915b5050505050908060070154908060080160009054906101000a900460ff16905087565b60006001826040516129f09190614519565b908152602001604051809103902060040160009054906101000a900460ff169050919050565b6060600660008373ffffffffffffffffffffffffffffffffffffffff1673ffffffffffffffffffffffffffffffffffffffff168152602001908152602001600020600701805480602002602001604051908101604052809291908181526020018280548015612ada57602002820191906000526020600020905b8160009054906101000a900473ffffffffffffffffffffffffffffffffffffffff1673ffffffffffffffffffffffffffffffffffffffff1681526020019060010190808311612a90575b50505050509050919050565b60011515600184604051612afa9190614519565b908152602001604051809103902060040160009054906101000a900460ff16151514612b5b576040517f08c379a0000000000000000000000000000000000000000000000000000000008152600401612b52906147b2565b60405180910390fd5b612b658383612d21565b6000600384604051612b779190614519565b908152602001604051809103902060008481526020019081526020016000206000600760008573ffffffffffffffffffffffffffffffffffffffff1673ffffffffffffffffffffffffffffffffffffffff16815260200190815260200160002060000160009054906101000a900473ffffffffffffffffffffffffffffffffffffffff1673ffffffffffffffffffffffffffffffffffffffff1673ffffffffffffffffffffffffffffffffffffffff1681526020019081526020016000205411612c76576040517f08c379a0000000000000000000000000000000000000000000000000000000008152600401612c6d90614792565b60405180910390fd5b505050565b6000600182604051612c8d9190614519565b9081526020016040518091039020600201805490509050919050565b6000600384604051612cbb9190614519565b9081526020016040518091039020600084815260200190815260200160002060008373ffffffffffffffffffffffffffffffffffffffff1673ffffffffffffffffffffffffffffffffffffffff1681526020019081526020016000205490509392505050565b6000600283604051612d339190614519565b908152602001604051809103902060008381526020019081526020016000206000015411612d96576040517f08c379a0000000000000000000000000000000000000000000000000000000008152600401612d8d90614932565b60405180910390fd5b42600283604051612da79190614519565b908152602001604051809103902060008381526020019081526020016000206001015410612e0a576040517f08c379a0000000000000000000000000000000000000000000000000000000008152600401612e0190614872565b60405180910390fd5b42600283604051612e1b9190614519565b908152602001604051809103902060008381526020019081526020016000206002015411612e7e576040517f08c379a0000000000000000000000000000000000000000000000000000000008152600401612e7590614952565b60405180910390fd5b42600283604051612e8f9190614519565b908152602001604051809103902060008381526020019081526020016000206003015411612ef2576040517f08c379a0000000000000000000000000000000000000000000000000000000008152600401612ee990614992565b60405180910390fd5b5050565b600660008273ffffffffffffffffffffffffffffffffffffffff1673ffffffffffffffffffffffffffffffffffffffff16815260200190815260200160002060080160019054906101000a900460ff16612f85576040517f08c379a0000000000000000000000000000000000000000000000000000000008152600401612f7c90614732565b60405180910390fd5b600660008273ffffffffffffffffffffffffffffffffffffffff1673ffffffffffffffffffffffffffffffffffffffff16815260200190815260200160002060080160009054906101000a900460ff16613014576040517f08c379a000000000000000000000000000000000000000000000000000000000815260040161300b90614752565b60405180910390fd5b50565b600860009054906101000a900473ffffffffffffffffffffffffffffffffffffffff1673ffffffffffffffffffffffffffffffffffffffff163373ffffffffffffffffffffffffffffffffffffffff16146130a7576040517f08c379a000000000000000000000000000000000000000000000000000000000815260040161309e906149b2565b60405180910390fd5b816001836040516130b89190614519565b908152602001604051809103902060000190805190602001906130dc9291906138af565b50806001836040516130ee9190614519565b90815260200160405180910390206002019080519060200190613112929190613935565b5060048290806001815401808255809150506001900390600052602060002001600090919091909150908051906020019061314e9291906138af565b50600180836040516131609190614519565b908152602001604051809103902060040160006101000a81548160ff021916908315150217905550816040516131969190614519565b60405180910390207f9db18d96585d3ea407a3cd4bc1ecedb2bbc4188986b624b0e85d74caecce964b60405160405180910390a25050565b600860009054906101000a900473ffffffffffffffffffffffffffffffffffffffff1673ffffffffffffffffffffffffffffffffffffffff163373ffffffffffffffffffffffffffffffffffffffff161461325e576040517f08c379a0000000000000000000000000000000000000000000000000000000008152600401613255906149b2565b60405180910390fd5b61326784612ef6565b6132708361146e565b61327a8383612d21565b8060038460405161328b9190614519565b9081526020016040518091039020600084815260200190815260200160002060003373ffffffffffffffffffffffffffffffffffffffff1673ffffffffffffffffffffffffffffffffffffffff168152602001908152602001600020541015613329576040517f08c379a000000000000000000000000000000000000000000000000000000000815260040161332090614892565b60405180910390fd5b8060038460405161333a9190614519565b9081526020016040518091039020600084815260200190815260200160002060003373ffffffffffffffffffffffffffffffffffffffff1673ffffffffffffffffffffffffffffffffffffffff16815260200190815260200160002060008282546133a59190614c18565b92505081905550806003846040516133bd9190614519565b9081526020016040518091039020600084815260200190815260200160002060008673ffffffffffffffffffffffffffffffffffffffff1673ffffffffffffffffffffffffffffffffffffffff16815260200190815260200160002060008282546134289190614bc2565b925050819055508260405161343d9190614519565b60405180910390208473ffffffffffffffffffffffffffffffffffffffff167f4e2ff4923c3e767530d0bd26e60dd9043c7f4461e83947851dde360e0a106b758460405161348b91906149d2565b60405180910390a350505050565b60011515600560008373ffffffffffffffffffffffffffffffffffffffff1673ffffffffffffffffffffffffffffffffffffffff16815260200190815260200160002060080160009054906101000a900460ff1615151461352f576040517f08c379a0000000000000000000000000000000000000000000000000000000008152600401613526906148f2565b60405180910390fd5b50565b600115156001826040516135469190614519565b908152602001604051809103902060040160009054906101000a900460ff161515146135a7576040517f08c379a000000000000000000000000000000000000000000000000000000000815260040161359e90614832565b60405180910390fd5b6000600560008473ffffffffffffffffffffffffffffffffffffffff1673ffffffffffffffffffffffffffffffffffffffff16815260200190815260200160002060040180546135f690614d45565b80601f016020809104026020016040519081016040528092919081815260200182805461362290614d45565b801561366f5780601f106136445761010080835404028352916020019161366f565b820191906000526020600020905b81548152906001019060200180831161365257829003601f168201915b5050505050905060008290506000825111156137aa5780518251146136c9576040517f08c379a00000000000000000000000000000000000000000000000000000000081526004016136c090614852565b60405180910390fd5b60005b82518110156137a8578181815181106136e8576136e7614e7e565b5b602001015160f81c60f81b7effffffffffffffffffffffffffffffffffffffffffffffffffffffffffffff191683828151811061372857613727614e7e565b5b602001015160f81c60f81b7effffffffffffffffffffffffffffffffffffffffffffffffffffffffffffff191614613795576040517f08c379a000000000000000000000000000000000000000000000000000000000815260040161378c90614852565b60405180910390fd5b80806137a090614da8565b9150506136cc565b505b60006137b585612048565b905060006137c285612c7b565b905080821415613807576040517f08c379a00000000000000000000000000000000000000000000000000000000081526004016137fe90614972565b60405180910390fd5b505050505050565b600061381a826120ae565b905060028081111561382f5761382e614e20565b5b81600281111561384257613841614e20565b5b1415613863576001600b600082825461385b9190614bc2565b925050819055505b6001600281111561387757613876614e20565b5b81600281111561388a57613889614e20565b5b14156138ab576001600a60008282546138a39190614bc2565b925050819055505b5050565b8280546138bb90614d45565b90600052602060002090601f0160209004810192826138dd5760008555613924565b82601f106138f657805160ff1916838001178555613924565b82800160010185558215613924579182015b82811115613923578251825591602001919060010190613908565b5b5090506139319190613982565b5090565b828054828255906000526020600020908101928215613971579160200282015b82811115613970578251825591602001919060010190613955565b5b50905061397e9190613982565b5090565b5b8082111561399b576000816000905550600101613983565b5090565b60006139b26139ad84614af0565b614acb565b905080838252602082019050828560208602820111156139d5576139d4614ee1565b5b60005b85811015613a0557816139eb8882613ad7565b8452602084019350602083019250506001810190506139d8565b5050509392505050565b6000613a22613a1d84614b1c565b614acb565b905082815260208101848484011115613a3e57613a3d614ee6565b5b613a49848285614d03565b509392505050565b600081359050613a6081615311565b92915050565b600082601f830112613a7b57613a7a614edc565b5b8135613a8b84826020860161399f565b91505092915050565b600081359050613aa381615328565b92915050565b600082601f830112613abe57613abd614edc565b5b8135613ace848260208601613a0f565b91505092915050565b600081359050613ae681615338565b92915050565b600060208284031215613b0257613b01614ef0565b5b6000613b1084828501613a51565b91505092915050565b600080600060608486031215613b3257613b31614ef0565b5b6000613b4086828701613a51565b935050602084013567ffffffffffffffff811115613b6157613b60614eeb565b5b613b6d86828701613aa9565b9250506040613b7e86828701613ad7565b9150509250925092565b60008060008060808587031215613ba257613ba1614ef0565b5b6000613bb087828801613a51565b945050602085013567ffffffffffffffff811115613bd157613bd0614eeb565b5b613bdd87828801613aa9565b9350506040613bee87828801613ad7565b9250506060613bff87828801613ad7565b91505092959194509250565b600060208284031215613c2157613c20614ef0565b5b600082013567ffffffffffffffff811115613c3f57613c3e614eeb565b5b613c4b84828501613aa9565b91505092915050565b60008060408385031215613c6b57613c6a614ef0565b5b600083013567ffffffffffffffff811115613c8957613c88614eeb565b5b613c9585828601613aa9565b925050602083013567ffffffffffffffff811115613cb657613cb5614eeb565b5b613cc285828601613a66565b9150509250929050565b600080600080600080600060e0888a031215613ceb57613cea614ef0565b5b600088013567ffffffffffffffff811115613d0957613d08614eeb565b5b613d158a828b01613aa9565b975050602088013567ffffffffffffffff811115613d3657613d35614eeb565b5b613d428a828b01613aa9565b965050604088013567ffffffffffffffff811115613d6357613d62614eeb565b5b613d6f8a828b01613aa9565b955050606088013567ffffffffffffffff811115613d9057613d8f614eeb565b5b613d9c8a828b01613aa9565b945050608088013567ffffffffffffffff811115613dbd57613dbc614eeb565b5b613dc98a828b01613aa9565b93505060a088013567ffffffffffffffff811115613dea57613de9614eeb565b5b613df68a828b01613aa9565b92505060c088013567ffffffffffffffff811115613e1757613e16614eeb565b5b613e238a828b01613aa9565b91505092959891949750929550565b60008060408385031215613e4957613e48614ef0565b5b600083013567ffffffffffffffff811115613e6757613e66614eeb565b5b613e7385828601613aa9565b9250506020613e8485828601613ad7565b9150509250929050565b600080600060608486031215613ea757613ea6614ef0565b5b600084013567ffffffffffffffff811115613ec557613ec4614eeb565b5b613ed186828701613aa9565b9350506020613ee286828701613ad7565b9250506040613ef386828701613a51565b9150509250925092565b60008060008060008060c08789031215613f1a57613f19614ef0565b5b600087013567ffffffffffffffff811115613f3857613f37614eeb565b5b613f4489828a01613aa9565b9650506020613f5589828a01613ad7565b9550506040613f6689828a01613ad7565b9450506060613f7789828a01613ad7565b9350506080613f8889828a01613ad7565b92505060a0613f9989828a01613ad7565b9150509295509295509295565b600060208284031215613fbc57613fbb614ef0565b5b6000613fca84828501613ad7565b91505092915050565b60008060008060808587031215613fed57613fec614ef0565b5b6000613ffb87828801613ad7565b945050602061400c87828801613a94565b935050604085013567ffffffffffffffff81111561402d5761402c614eeb565b5b61403987828801613aa9565b925050606085013567ffffffffffffffff81111561405a57614059614eeb565b5b61406687828801613aa9565b91505092959194509250565b600061407e838361408a565b60208301905092915050565b61409381614c4c565b82525050565b6140a281614c4c565b82525050565b60006140b382614b72565b6140bd8185614b95565b93506140c883614b4d565b8060005b838110156140f95781516140e08882614072565b97506140eb83614b88565b9250506001810190506140cc565b5085935050505092915050565b61410f81614c5e565b82525050565b61411e81614ccd565b82525050565b61412d81614cdf565b82525050565b61413c81614cf1565b82525050565b600061414d82614b7d565b6141578185614ba6565b9350614167818560208601614d12565b61417081614ef5565b840191505092915050565b600061418682614b7d565b6141908185614bb7565b93506141a0818560208601614d12565b80840191505092915050565b600081546141b981614d45565b6141c38186614bb7565b945060018216600081146141de57600181146141ef57614222565b60ff19831686528186019350614222565b6141f885614b5d565b60005b8381101561421a578154818901526001820191506020810190506141fb565b838801955050505b50505092915050565b6000614238601583614ba6565b915061424382614f06565b602082019050919050565b600061425b601d83614ba6565b915061426682614f2f565b602082019050919050565b600061427e601383614ba6565b915061428982614f58565b602082019050919050565b60006142a1601783614ba6565b91506142ac82614f81565b602082019050919050565b60006142c4601583614ba6565b91506142cf82614faa565b602082019050919050565b60006142e7602183614ba6565b91506142f282614fd3565b604082019050919050565b600061430a601483614ba6565b915061431582615022565b602082019050919050565b600061432d602c83614ba6565b91506143388261504b565b604082019050919050565b6000614350601883614ba6565b915061435b8261509a565b602082019050919050565b6000614373601783614ba6565b915061437e826150c3565b602082019050919050565b6000614396601c83614ba6565b91506143a1826150ec565b602082019050919050565b60006143b9601683614ba6565b91506143c482615115565b602082019050919050565b60006143dc601483614ba6565b91506143e78261513e565b602082019050919050565b60006143ff600c83614ba6565b915061440a82615167565b602082019050919050565b6000614422601183614ba6565b915061442d82615190565b602082019050919050565b6000614445600c83614ba6565b9150614450826151b9565b602082019050919050565b6000614468600d83614ba6565b9150614473826151e2565b602082019050919050565b600061448b600783614ba6565b91506144968261520b565b602082019050919050565b60006144ae601983614ba6565b91506144b982615234565b602082019050919050565b60006144d1602283614ba6565b91506144dc8261525d565b604082019050919050565b60006144f4600a83614ba6565b91506144ff826152ac565b602082019050919050565b61451381614cc3565b82525050565b6000614525828461417b565b915081905092915050565b600061453c82846141ac565b915081905092915050565b600060208201905061455c6000830184614099565b92915050565b60006040820190506145776000830185614099565b6145846020830184614106565b9392505050565b600060208201905081810360008301526145a581846140a8565b905092915050565b60006020820190506145c26000830184614106565b92915050565b60006020820190506145dd6000830184614124565b92915050565b60006020820190506145f86000830184614133565b92915050565b600060208201905081810360008301526146188184614142565b905092915050565b6000606082019050818103600083015261463a8186614142565b9050818103602083015261464e8185614142565b905061465d6040830184614106565b949350505050565b6000610140820190508181036000830152614680818d614142565b90508181036020830152614694818c614142565b905081810360408301526146a8818b614142565b905081810360608301526146bc818a614142565b905081810360808301526146d08189614142565b905081810360a08301526146e48188614142565b905081810360c08301526146f88187614142565b905061470760e0830186614106565b614715610100830185614106565b61472361012083018461450a565b9b9a5050505050505050505050565b6000602082019050818103600083015261474b8161422b565b9050919050565b6000602082019050818103600083015261476b8161424e565b9050919050565b6000602082019050818103600083015261478b81614271565b9050919050565b600060208201905081810360008301526147ab81614294565b9050919050565b600060208201905081810360008301526147cb816142b7565b9050919050565b600060208201905081810360008301526147eb816142da565b9050919050565b6000602082019050818103600083015261480b816142fd565b9050919050565b6000602082019050818103600083015261482b81614320565b9050919050565b6000602082019050818103600083015261484b81614343565b9050919050565b6000602082019050818103600083015261486b81614366565b9050919050565b6000602082019050818103600083015261488b81614389565b9050919050565b600060208201905081810360008301526148ab816143ac565b9050919050565b600060208201905081810360008301526148cb816143cf565b9050919050565b600060208201905081810360008301526148eb816143f2565b9050919050565b6000602082019050818103600083015261490b81614415565b9050919050565b6000602082019050818103600083015261492b81614438565b9050919050565b6000602082019050818103600083015261494b8161445b565b9050919050565b6000602082019050818103600083015261496b8161447e565b9050919050565b6000602082019050818103600083015261498b816144a1565b9050919050565b600060208201905081810360008301526149ab816144c4565b9050919050565b600060208201905081810360008301526149cb816144e7565b9050919050565b60006020820190506149e7600083018461450a565b92915050565b600060e082019050614a02600083018a61450a565b614a0f6020830189614115565b8181036040830152614a218188614142565b90508181036060830152614a358187614142565b90508181036080830152614a498186614142565b9050614a5860a083018561450a565b614a6560c0830184614106565b98975050505050505050565b600060a082019050614a86600083018861450a565b614a93602083018761450a565b614aa0604083018661450a565b614aad606083018561450a565b8181036080830152614abf8184614142565b90509695505050505050565b6000614ad5614ae6565b9050614ae18282614d77565b919050565b6000604051905090565b600067ffffffffffffffff821115614b0b57614b0a614ead565b5b602082029050602081019050919050565b600067ffffffffffffffff821115614b3757614b36614ead565b5b614b4082614ef5565b9050602081019050919050565b6000819050602082019050919050565b60008190508160005260206000209050919050565b600081519050919050565b600081519050919050565b6000602082019050919050565b600082825260208201905092915050565b600082825260208201905092915050565b600081905092915050565b6000614bcd82614cc3565b9150614bd883614cc3565b9250827fffffffffffffffffffffffffffffffffffffffffffffffffffffffffffffffff03821115614c0d57614c0c614df1565b5b828201905092915050565b6000614c2382614cc3565b9150614c2e83614cc3565b925082821015614c4157614c40614df1565b5b828203905092915050565b6000614c5782614ca3565b9050919050565b60008115159050919050565b6000819050614c78826152d5565b919050565b6000819050614c8b826152e9565b919050565b6000819050614c9e826152fd565b919050565b600073ffffffffffffffffffffffffffffffffffffffff82169050919050565b6000819050919050565b6000614cd882614c6a565b9050919050565b6000614cea82614c7d565b9050919050565b6000614cfc82614c90565b9050919050565b82818337600083830152505050565b60005b83811015614d30578082015181840152602081019050614d15565b83811115614d3f576000848401525b50505050565b60006002820490506001821680614d5d57607f821691505b60208210811415614d7157614d70614e4f565b5b50919050565b614d8082614ef5565b810181811067ffffffffffffffff82111715614d9f57614d9e614ead565b5b80604052505050565b6000614db382614cc3565b91507fffffffffffffffffffffffffffffffffffffffffffffffffffffffffffffffff821415614de657614de5614df1565b5b600182019050919050565b7f4e487b7100000000000000000000000000000000000000000000000000000000600052601160045260246000fd5b7f4e487b7100000000000000000000000000000000000000000000000000000000600052602160045260246000fd5b7f4e487b7100000000000000000000000000000000000000000000000000000000600052602260045260246000fd5b7f4e487b7100000000000000000000000000000000000000000000000000000000600052603260045260246000fd5b7f4e487b7100000000000000000000000000000000000000000000000000000000600052604160045260246000fd5b600080fd5b600080fd5b600080fd5b600080fd5b600080fd5b6000601f19601f8301169050919050565b7f496e76616c6964206f7267616e697a6174696f6e2e0000000000000000000000600082015250565b7f4f7267616e697a6174696f6e206973206e6f7420617070726f7665642e000000600082015250565b7f416c726561647920726567697374657265642e00000000000000000000000000600082015250565b7f496e73756666696369656e742076616363696e652e2e2e000000000000000000600082015250565b7f56616363696e65206e6f7420617070726f7665642e0000000000000000000000600082015250565b7f4f7267616e697a6174696f6e20697320616c726561647920617070726f76656460008201527f2e00000000000000000000000000000000000000000000000000000000000000602082015250565b7f496e73756666696369656e7420616d6f756e742e000000000000000000000000600082015250565b7f4f7267616e697a6174696f6e206d75737420666972737420726567697374657260008201527f20746f20617070726f76652e0000000000000000000000000000000000000000602082015250565b7f56616363696e65206973206e6f7420617070726f7665642e0000000000000000600082015250565b7f56616363696e65206e6f7420636f6d70617469626c652e000000000000000000600082015250565b7f4d7573742062652070726576696f75736c7920646566726f7374656400000000600082015250565b7f496e73756666696369656e742076616363696e65732e00000000000000000000600082015250565b7f56616363696e65206e6f7420617070726f766564000000000000000000000000600082015250565b7f4f7267616e697a6174696f6e0000000000000000000000000000000000000000600082015250565b7f556e726567697374657265642075736572000000000000000000000000000000600082015250565b7f4865616c7468506572736f6e0000000000000000000000000000000000000000600082015250565b7f496e76616c696420626174636800000000000000000000000000000000000000600082015250565b7f4578706972656400000000000000000000000000000000000000000000000000600082015250565b7f46756c6c792076616363696e6174656420616c72656164792e00000000000000600082015250565b7f4d7573742062652075736564207072696f7220746f207573652062792064617460008201527f652e000000000000000000000000000000000000000000000000000000000000602082015250565b7f737570657241646d696e00000000000000000000000000000000000000000000600082015250565b600381106152e6576152e5614e20565b5b50565b600481106152fa576152f9614e20565b5b50565b6003811061530e5761530d614e20565b5b50565b61531a81614c4c565b811461532557600080fd5b50565b6003811061533557600080fd5b50565b61534181614cc3565b811461534c57600080fd5b5056fea264697066735822122089fb38d98cfd8925db54602bfee512bf1c6459f86d6a7c8bcad358e77982c04864736f6c63430008050033",
  "immutableReferences": {},
  "source": "// SPDX-License-Identifier: MIT\npragma solidity >=0.4.22 <0.9.0;\n\nuint256 constant REGISTRATION_COST = 10;\n\ncontract Vaccination {\n    enum VaccineStatus {\n        UNVACCINATED,\n        PARTIALLY_VACCINATED,\n        FULLY_VACCINATED\n    }\n\n    enum Gender {\n        MALE,\n        FEMALE,\n        UNSPECIFIED\n    }\n\n    enum Role {\n        GOVERNMENT,\n        ORGANIZATION,\n        HEALTHPERSON,\n        USER\n    }\n\n    struct Vaccine {\n        string name;\n        uint256 batch_no;\n        uint256 vaccination_datetime;\n        // uint256 serialNo;\n    }\n\n    struct BatchDetails {\n        uint256 batch_id;\n        uint256 defrost_date;\n        uint256 manufacture_expiry;\n        uint256 use_by_date;\n        string ipfs_hash;\n    }\n\n    struct VaccineDetails {\n        string name;\n        // string platform;\n        // string route;\n        string ipfs_hash;\n        uint256[] schedule;\n        uint256[] batches;\n        bool approved;\n    }\n\n    struct User {\n        uint256 year_of_birth;\n        Gender gender;\n        string namehash;\n        string imagehash;\n        string vaccine_name;\n        uint256[] batches;\n        uint256[] datetime;\n        uint256 vaccine_count;\n        bool registered;\n    }\n\n    struct Organization {\n        string name;\n        string url;\n        string document_hash;\n        string logo_hash;\n        string location;\n        string phone;\n        string email;\n        address[] healthPersons;\n        bool approved;\n        bool registration;\n        uint256 vaccined;\n    }\n\n    struct HealthPerson {\n        address org;\n        bool approved;\n    }\n\n    mapping(address => Role) public roles;\n\n    mapping(string => VaccineDetails) public approvedVaccines;\n    mapping(string => mapping(uint256 => BatchDetails)) public approvedBatches;\n    mapping(string => mapping(uint256 => mapping(address => uint256)))\n        public approvedOperators;\n\n    string[] public approvedVaccineNames;\n\n    mapping(address => User) public users;\n    mapping(address => Organization) public organizations;\n    mapping(address => HealthPerson) public healthPersons;\n\n    address public superAdmin;\n\n    address[] public organizationsList;\n\n    // uint256 public registered;\n    uint256 public partiallyVaccinated;\n    uint256 public fullyVaccinated;\n\n    //uint256 public total_vaccines;\n    event ApproveVaccine(string indexed vaccine_name);\n    event AddBatch(string indexed vaccine_name, uint256 indexed batch_no);\n    event ApproveOrganization(string indexed org_name);\n    event TransferVaccine(\n        address indexed to,\n        string indexed vaccine_name,\n        uint256 batch_no\n    );\n\n    event RegisterOrganization(string indexed org_name);\n    event ApproveHealthPerson(address indexed org, address indexed hp);\n\n    event RegisterHealthPerson(address indexed _from);\n\n    event RegisterIndividual(address indexed _from);\n\n    constructor() {\n        superAdmin = msg.sender;\n        roles[msg.sender] = Role.GOVERNMENT;\n    }\n\n    function approveVaccine(string memory name, uint256[] memory schedule)\n        public\n        onlySuperAdmin\n    {\n        approvedVaccines[name].name = name;\n        approvedVaccines[name].schedule = schedule;\n        approvedVaccineNames.push(name);\n        approvedVaccines[name].approved = true;\n        emit ApproveVaccine(name);\n    }\n\n    function addBatch(\n        string memory name,\n        uint256 batch_id,\n        uint256 defrost_date,\n        uint256 manufacture_expiry,\n        uint256 use_by_date,\n        uint256 units\n    ) public onlySuperAdmin {\n        require(batch_id > 0, \"Invalid batch\");\n        require(approvedVaccines[name].approved, \"Vaccine is not approved.\");\n\n        //Check dates\n        require(defrost_date < block.timestamp, \"Must be previously defrosted\");\n        require(manufacture_expiry > block.timestamp, \"Expired\");\n        require(\n            use_by_date > block.timestamp,\n            \"Must be used prior to use by date.\"\n        );\n\n        approvedBatches[name][batch_id].batch_id = batch_id;\n        approvedBatches[name][batch_id].defrost_date = defrost_date;\n        approvedBatches[name][batch_id].manufacture_expiry = manufacture_expiry;\n        approvedBatches[name][batch_id].use_by_date = use_by_date;\n        approvedVaccines[name].batches.push(batch_id);\n        approvedOperators[name][batch_id][msg.sender] = units;\n        users[msg.sender].vaccine_count = units;\n        emit AddBatch(name, batch_id);\n    }\n\n    function registerOrganization(\n        string memory name,\n        string memory url,\n        string memory document_hash,\n        string memory logo_hash,\n        string memory location,\n        string memory phone,\n        string memory email\n    ) public payable {\n        if (msg.value < REGISTRATION_COST) {\n            revert(\"Insufficient amount.\");\n        }\n        organizations[msg.sender].name = name;\n        organizations[msg.sender].url = url;\n        organizations[msg.sender].document_hash = document_hash;\n        organizations[msg.sender].logo_hash = logo_hash;\n        organizations[msg.sender].location = location;\n        organizations[msg.sender].phone = phone;\n        organizations[msg.sender].email = email;\n\n        organizations[msg.sender].registration = true;\n        organizationsList.push(msg.sender);\n        roles[msg.sender] = Role.ORGANIZATION;\n        emit RegisterOrganization(name);\n    }\n\n    function approveOrganization(address org) public onlySuperAdmin {\n        if (!organizations[org].registration) {\n            revert(\"Organization must first register to approve.\");\n        }\n        if (organizations[org].approved) {\n            revert(\"Organization is already approved.\");\n        }\n        organizations[org].approved = true;\n    }\n\n    function transfer(\n        address to,\n        string memory name,\n        uint256 batch_id,\n        uint256 units\n    ) public onlySuperAdmin {\n        checkOrganization(to);\n        checkVaccine(name);\n        checkBatch(name, batch_id);\n\n        if (approvedOperators[name][batch_id][msg.sender] < units) {\n            revert(\"Insufficient vaccines.\");\n        }\n        approvedOperators[name][batch_id][msg.sender] -= units;\n        approvedOperators[name][batch_id][to] += units;\n        emit TransferVaccine(to, name, batch_id);\n    }\n\n    function registerIndividual(\n        uint256 year_of_birth,\n        Gender gender,\n        string memory namehash,\n        string memory imagehash\n    ) public {\n        require(users[msg.sender].registered == false, \"Already registered.\");\n        users[msg.sender].year_of_birth = year_of_birth;\n        users[msg.sender].gender = gender;\n        users[msg.sender].namehash = namehash;\n        users[msg.sender].imagehash = imagehash;\n        users[msg.sender].registered = true;\n        roles[msg.sender] = Role.USER;\n        emit RegisterIndividual(msg.sender);\n    }\n\n    function approveHealthPerson(address person) public onlyOrganization {\n        healthPersons[person].org = msg.sender;\n        healthPersons[person].approved = true;\n        roles[person] = Role.HEALTHPERSON;\n        organizations[msg.sender].healthPersons.push(person);\n        emit ApproveHealthPerson(msg.sender, person);\n    }\n\n    function vaccinate(\n        address to,\n        string memory name,\n        uint256 batch_id\n    ) public onlyHealthPerson {\n        checkUserRegistration(to);\n        checkAvailability(name, batch_id, msg.sender);\n        checkUserVaccineCompatibility(to, name);\n        users[to].vaccine_name = name;\n        users[to].batches.push(batch_id);\n        users[to].datetime.push(block.timestamp);\n        users[to].vaccine_count += 1;\n        approvedOperators[name][batch_id][healthPersons[msg.sender].org] -= 1;\n        changeStatus(to);\n    }\n\n    //Check Methods\n    function checkUserRegistration(address user) private view {\n        require(users[user].registered == true, \"Unregistered user\");\n    }\n\n    function checkBatch(string memory name, uint256 batch_id) public view {\n        require(approvedBatches[name][batch_id].batch_id > 0, \"Invalid batch\");\n        require(\n            approvedBatches[name][batch_id].defrost_date < block.timestamp,\n            \"Must be previously defrosted\"\n        );\n        require(\n            approvedBatches[name][batch_id].manufacture_expiry >\n                block.timestamp,\n            \"Expired\"\n        );\n        require(\n            approvedBatches[name][batch_id].use_by_date > block.timestamp,\n            \"Must be used prior to use by date.\"\n        );\n    }\n\n    function checkOrganization(address org) public view {\n        if (!organizations[org].registration) {\n            revert(\"Invalid organization.\");\n        }\n        if (!organizations[org].approved) {\n            revert(\"Organization is not approved.\");\n        }\n    }\n\n    function checkVaccine(string memory name) public view {\n        if (!approvedVaccines[name].approved) {\n            revert(\"Vaccine not approved\");\n        }\n    }\n\n    function checkUserVaccineCompatibility(address user, string memory name)\n        private\n        view\n    {\n        require(\n            approvedVaccines[name].approved == true,\n            \"Vaccine is not approved.\"\n        );\n        bytes memory _user_recieved_vaccine = bytes(users[user].vaccine_name);\n        bytes memory _user_recieving_vaccine = bytes(name);\n\n        if (_user_recieved_vaccine.length > 0) {\n            if (\n                _user_recieved_vaccine.length != _user_recieving_vaccine.length\n            ) {\n                revert(\"Vaccine not compatible.\");\n            }\n            for (uint256 i = 0; i < _user_recieved_vaccine.length; i++) {\n                if (_user_recieved_vaccine[i] != _user_recieving_vaccine[i]) {\n                    revert(\"Vaccine not compatible.\");\n                }\n            }\n        }\n        uint256 user_vaccineCount = getUserVaccineCount(user);\n        uint256 required_vaccineCount = getRequiredVaccineCount(name);\n\n        if (user_vaccineCount == required_vaccineCount) {\n            revert(\"Fully vaccinated already.\");\n        }\n    }\n\n    //Read Only Methods\n    function getUserVaccineCount(address user) public view returns (uint256) {\n        uint256 count = users[user].vaccine_count;\n        return count;\n    }\n\n    function getRequiredVaccineCount(string memory name)\n        public\n        view\n        returns (uint256)\n    {\n        return approvedVaccines[name].schedule.length;\n    }\n\n    function getTotalOrganization() public view returns (uint256) {\n        return organizationsList.length;\n    }\n\n    function getAllOrganizations() public view returns (address[] memory) {\n        return organizationsList;\n    }\n\n    function getAllHealthPersons(address org)\n        public\n        view\n        returns (address[] memory)\n    {\n        return organizations[org].healthPersons;\n    }\n\n    function getVaccineStatusOf(address user)\n        public\n        view\n        returns (VaccineStatus status)\n    {\n        uint256 user_vaccineCount = users[user].vaccine_count;\n        uint256 required_vaccineCount = approvedVaccines[\n            users[user].vaccine_name\n        ].schedule.length;\n\n        if (user_vaccineCount == 0) {\n            return VaccineStatus.UNVACCINATED;\n        }\n        if (user_vaccineCount < required_vaccineCount) {\n            return VaccineStatus.PARTIALLY_VACCINATED;\n        }\n        if (user_vaccineCount == required_vaccineCount) {\n            return VaccineStatus.FULLY_VACCINATED;\n        }\n    }\n\n    function changeStatus(address user) private {\n        VaccineStatus status = getVaccineStatusOf(user);\n        if (status == VaccineStatus.FULLY_VACCINATED) {\n            fullyVaccinated += 1;\n        }\n        if (status == VaccineStatus.PARTIALLY_VACCINATED) {\n            partiallyVaccinated += 1;\n        }\n    }\n\n    //Modifiers\n    modifier onlySuperAdmin() {\n        require(msg.sender == superAdmin, \"superAdmin\");\n        _;\n    }\n    modifier onlyOrganization() {\n        require(organizations[msg.sender].approved, \"Organization\");\n        _;\n    }\n    modifier onlyHealthPerson() {\n        require(healthPersons[msg.sender].approved, \"HealthPerson\");\n        _;\n    }\n\n    function getHealthPersonOrganization(address healthPerson)\n        public\n        view\n        returns (address)\n    {\n        return (healthPersons[healthPerson].org);\n    }\n\n    function checkAvailability(\n        string memory name,\n        uint256 batch_id,\n        address healthPerson\n    ) public view {\n        require(\n            approvedVaccines[name].approved == true,\n            \"Vaccine not approved.\"\n        );\n        checkBatch(name, batch_id);\n        require(\n            approvedOperators[name][batch_id][healthPersons[healthPerson].org] >\n                0,\n            \"Insufficient vaccine...\"\n        );\n    }\n\n    function getAvailableVaccines(\n        string memory name,\n        uint256 batch,\n        address org\n    ) public view returns (uint256) {\n        return approvedOperators[name][batch][org];\n    }\n\n    function getApprovedVaccinesLength() public view returns (uint256) {\n        return approvedVaccineNames.length;\n    }\n\n    function getVaccineApprovalStatus(string memory name)\n        public\n        view\n        returns (bool)\n    {\n        return approvedVaccines[name].approved;\n    }\n\n    function now() public view returns (uint256) {\n        return block.timestamp;\n    }\n\n    function getRole(address user) public view returns (Role) {\n        return roles[user];\n    }\n}\n",
  "sourcePath": "/home/prajwolrg/School/Vaccination/vaccine-solidity/contracts/Vaccination.sol",
  "compiler": {
    "name": "solc",
    "version": "0.8.5+commit.a4f2e591.Emscripten.clang"
  },
  "schemaVersion": "3.4.4",
  "updatedAt": "2022-04-12T06:59:34.472Z",
  "networkType": "ethereum",
  "devdoc": {
    "kind": "dev",
    "methods": {},
    "version": 1
  },
  "userdoc": {
    "kind": "user",
    "methods": {},
    "version": 1
  }
}