{
  "contractName": "Vaccination",
  "abi": [
    {
      "inputs": [],
      "stateMutability": "nonpayable",
      "type": "constructor"
    },
    {
      "anonymous": false,
      "inputs": [
        {
          "indexed": true,
          "internalType": "string",
          "name": "vaccine_name",
          "type": "string"
        },
        {
          "indexed": true,
          "internalType": "uint256",
          "name": "batch_no",
          "type": "uint256"
        }
      ],
      "name": "AddBatch",
      "type": "event"
    },
    {
      "anonymous": false,
      "inputs": [
        {
          "indexed": true,
          "internalType": "address",
          "name": "org",
          "type": "address"
        },
        {
          "indexed": true,
          "internalType": "address",
          "name": "hp",
          "type": "address"
        }
      ],
      "name": "ApproveHealthPerson",
      "type": "event"
    },
    {
      "anonymous": false,
      "inputs": [
        {
          "indexed": true,
          "internalType": "string",
          "name": "org_name",
          "type": "string"
        }
      ],
      "name": "ApproveOrganization",
      "type": "event"
    },
    {
      "anonymous": false,
      "inputs": [
        {
          "indexed": true,
          "internalType": "string",
          "name": "vaccine_name",
          "type": "string"
        }
      ],
      "name": "ApproveVaccine",
      "type": "event"
    },
    {
      "anonymous": false,
      "inputs": [
        {
          "indexed": true,
          "internalType": "address",
          "name": "_from",
          "type": "address"
        }
      ],
      "name": "RegisterHealthPerson",
      "type": "event"
    },
    {
      "anonymous": false,
      "inputs": [
        {
          "indexed": true,
          "internalType": "address",
          "name": "_from",
          "type": "address"
        }
      ],
      "name": "RegisterIndividual",
      "type": "event"
    },
    {
      "anonymous": false,
      "inputs": [
        {
          "indexed": true,
          "internalType": "string",
          "name": "org_name",
          "type": "string"
        }
      ],
      "name": "RegisterOrganization",
      "type": "event"
    },
    {
      "anonymous": false,
      "inputs": [
        {
          "indexed": true,
          "internalType": "address",
          "name": "to",
          "type": "address"
        },
        {
          "indexed": true,
          "internalType": "string",
          "name": "vaccine_name",
          "type": "string"
        },
        {
          "indexed": false,
          "internalType": "uint256",
          "name": "batch_no",
          "type": "uint256"
        }
      ],
      "name": "TransferVaccine",
      "type": "event"
    },
    {
      "inputs": [
        {
          "internalType": "string",
          "name": "",
          "type": "string"
        },
        {
          "internalType": "uint256",
          "name": "",
          "type": "uint256"
        }
      ],
      "name": "approvedBatches",
      "outputs": [
        {
          "internalType": "uint256",
          "name": "batch_id",
          "type": "uint256"
        },
        {
          "internalType": "uint256",
          "name": "defrost_date",
          "type": "uint256"
        },
        {
          "internalType": "uint256",
          "name": "manufacture_expiry",
          "type": "uint256"
        },
        {
          "internalType": "uint256",
          "name": "use_by_date",
          "type": "uint256"
        },
        {
          "internalType": "string",
          "name": "ipfs_hash",
          "type": "string"
        }
      ],
      "stateMutability": "view",
      "type": "function",
      "constant": true
    },
    {
      "inputs": [
        {
          "internalType": "string",
          "name": "",
          "type": "string"
        },
        {
          "internalType": "uint256",
          "name": "",
          "type": "uint256"
        },
        {
          "internalType": "address",
          "name": "",
          "type": "address"
        }
      ],
      "name": "approvedOperators",
      "outputs": [
        {
          "internalType": "uint256",
          "name": "",
          "type": "uint256"
        }
      ],
      "stateMutability": "view",
      "type": "function",
      "constant": true
    },
    {
      "inputs": [
        {
          "internalType": "uint256",
          "name": "",
          "type": "uint256"
        }
      ],
      "name": "approvedVaccineNames",
      "outputs": [
        {
          "internalType": "string",
          "name": "",
          "type": "string"
        }
      ],
      "stateMutability": "view",
      "type": "function",
      "constant": true
    },
    {
      "inputs": [
        {
          "internalType": "string",
          "name": "",
          "type": "string"
        }
      ],
      "name": "approvedVaccines",
      "outputs": [
        {
          "internalType": "string",
          "name": "name",
          "type": "string"
        },
        {
          "internalType": "string",
          "name": "ipfs_hash",
          "type": "string"
        },
        {
          "internalType": "bool",
          "name": "approved",
          "type": "bool"
        }
      ],
      "stateMutability": "view",
      "type": "function",
      "constant": true
    },
    {
      "inputs": [],
      "name": "fullyVaccinated",
      "outputs": [
        {
          "internalType": "uint256",
          "name": "",
          "type": "uint256"
        }
      ],
      "stateMutability": "view",
      "type": "function",
      "constant": true
    },
    {
      "inputs": [
        {
          "internalType": "address",
          "name": "",
          "type": "address"
        }
      ],
      "name": "healthPersons",
      "outputs": [
        {
          "internalType": "address",
          "name": "org",
          "type": "address"
        },
        {
          "internalType": "bool",
          "name": "approved",
          "type": "bool"
        }
      ],
      "stateMutability": "view",
      "type": "function",
      "constant": true
    },
    {
      "inputs": [
        {
          "internalType": "address",
          "name": "",
          "type": "address"
        }
      ],
      "name": "organizations",
      "outputs": [
        {
          "internalType": "string",
          "name": "name",
          "type": "string"
        },
        {
          "internalType": "string",
          "name": "url",
          "type": "string"
        },
        {
          "internalType": "string",
          "name": "document_hash",
          "type": "string"
        },
        {
          "internalType": "string",
          "name": "logo_hash",
          "type": "string"
        },
        {
          "internalType": "string",
          "name": "location",
          "type": "string"
        },
        {
          "internalType": "string",
          "name": "phone",
          "type": "string"
        },
        {
          "internalType": "string",
          "name": "email",
          "type": "string"
        },
        {
          "internalType": "bool",
          "name": "approved",
          "type": "bool"
        },
        {
          "internalType": "bool",
          "name": "registration",
          "type": "bool"
        },
        {
          "internalType": "uint256",
          "name": "vaccined",
          "type": "uint256"
        }
      ],
      "stateMutability": "view",
      "type": "function",
      "constant": true
    },
    {
      "inputs": [
        {
          "internalType": "uint256",
          "name": "",
          "type": "uint256"
        }
      ],
      "name": "organizationsList",
      "outputs": [
        {
          "internalType": "address",
          "name": "",
          "type": "address"
        }
      ],
      "stateMutability": "view",
      "type": "function",
      "constant": true
    },
    {
      "inputs": [],
      "name": "partiallyVaccinated",
      "outputs": [
        {
          "internalType": "uint256",
          "name": "",
          "type": "uint256"
        }
      ],
      "stateMutability": "view",
      "type": "function",
      "constant": true
    },
    {
      "inputs": [
        {
          "internalType": "address",
          "name": "",
          "type": "address"
        }
      ],
      "name": "roles",
      "outputs": [
        {
          "internalType": "enum Vaccination.Role",
          "name": "",
          "type": "uint8"
        }
      ],
      "stateMutability": "view",
      "type": "function",
      "constant": true
    },
    {
      "inputs": [],
      "name": "superAdmin",
      "outputs": [
        {
          "internalType": "address",
          "name": "",
          "type": "address"
        }
      ],
      "stateMutability": "view",
      "type": "function",
      "constant": true
    },
    {
      "inputs": [
        {
          "internalType": "address",
          "name": "",
          "type": "address"
        }
      ],
      "name": "users",
      "outputs": [
        {
          "internalType": "uint256",
          "name": "year_of_birth",
          "type": "uint256"
        },
        {
          "internalType": "enum Vaccination.Gender",
          "name": "gender",
          "type": "uint8"
        },
        {
          "internalType": "string",
          "name": "namehash",
          "type": "string"
        },
        {
          "internalType": "string",
          "name": "imagehash",
          "type": "string"
        },
        {
          "internalType": "string",
          "name": "vaccine_name",
          "type": "string"
        },
        {
          "internalType": "uint256",
          "name": "vaccine_count",
          "type": "uint256"
        },
        {
          "internalType": "bool",
          "name": "registered",
          "type": "bool"
        }
      ],
      "stateMutability": "view",
      "type": "function",
      "constant": true
    },
    {
      "inputs": [
        {
          "internalType": "string",
          "name": "name",
          "type": "string"
        },
        {
          "internalType": "uint256[]",
          "name": "schedule",
          "type": "uint256[]"
        }
      ],
      "name": "approveVaccine",
      "outputs": [],
      "stateMutability": "nonpayable",
      "type": "function"
    },
    {
      "inputs": [
        {
          "internalType": "string",
          "name": "name",
          "type": "string"
        },
        {
          "internalType": "uint256",
          "name": "batch_id",
          "type": "uint256"
        },
        {
          "internalType": "uint256",
          "name": "defrost_date",
          "type": "uint256"
        },
        {
          "internalType": "uint256",
          "name": "manufacture_expiry",
          "type": "uint256"
        },
        {
          "internalType": "uint256",
          "name": "use_by_date",
          "type": "uint256"
        },
        {
          "internalType": "uint256",
          "name": "units",
          "type": "uint256"
        }
      ],
      "name": "addBatch",
      "outputs": [],
      "stateMutability": "nonpayable",
      "type": "function"
    },
    {
      "inputs": [
        {
          "internalType": "string",
          "name": "name",
          "type": "string"
        },
        {
          "internalType": "string",
          "name": "url",
          "type": "string"
        },
        {
          "internalType": "string",
          "name": "document_hash",
          "type": "string"
        },
        {
          "internalType": "string",
          "name": "logo_hash",
          "type": "string"
        },
        {
          "internalType": "string",
          "name": "location",
          "type": "string"
        },
        {
          "internalType": "string",
          "name": "phone",
          "type": "string"
        },
        {
          "internalType": "string",
          "name": "email",
          "type": "string"
        }
      ],
      "name": "registerOrganization",
      "outputs": [],
      "stateMutability": "payable",
      "type": "function",
      "payable": true
    },
    {
      "inputs": [
        {
          "internalType": "address",
          "name": "org",
          "type": "address"
        }
      ],
      "name": "approveOrganization",
      "outputs": [],
      "stateMutability": "nonpayable",
      "type": "function"
    },
    {
      "inputs": [
        {
          "internalType": "address",
          "name": "to",
          "type": "address"
        },
        {
          "internalType": "string",
          "name": "name",
          "type": "string"
        },
        {
          "internalType": "uint256",
          "name": "batch_id",
          "type": "uint256"
        },
        {
          "internalType": "uint256",
          "name": "units",
          "type": "uint256"
        }
      ],
      "name": "transfer",
      "outputs": [],
      "stateMutability": "nonpayable",
      "type": "function"
    },
    {
      "inputs": [
        {
          "internalType": "uint256",
          "name": "year_of_birth",
          "type": "uint256"
        },
        {
          "internalType": "enum Vaccination.Gender",
          "name": "gender",
          "type": "uint8"
        },
        {
          "internalType": "string",
          "name": "namehash",
          "type": "string"
        },
        {
          "internalType": "string",
          "name": "imagehash",
          "type": "string"
        }
      ],
      "name": "registerIndividual",
      "outputs": [],
      "stateMutability": "nonpayable",
      "type": "function"
    },
    {
      "inputs": [
        {
          "internalType": "address",
          "name": "person",
          "type": "address"
        }
      ],
      "name": "approveHealthPerson",
      "outputs": [],
      "stateMutability": "nonpayable",
      "type": "function"
    },
    {
      "inputs": [
        {
          "internalType": "address",
          "name": "to",
          "type": "address"
        },
        {
          "internalType": "string",
          "name": "name",
          "type": "string"
        },
        {
          "internalType": "uint256",
          "name": "batch_id",
          "type": "uint256"
        }
      ],
      "name": "vaccinate",
      "outputs": [],
      "stateMutability": "nonpayable",
      "type": "function"
    },
    {
      "inputs": [
        {
          "internalType": "string",
          "name": "name",
          "type": "string"
        },
        {
          "internalType": "uint256",
          "name": "batch_id",
          "type": "uint256"
        }
      ],
      "name": "checkBatch",
      "outputs": [],
      "stateMutability": "view",
      "type": "function",
      "constant": true
    },
    {
      "inputs": [
        {
          "internalType": "address",
          "name": "org",
          "type": "address"
        }
      ],
      "name": "checkOrganization",
      "outputs": [],
      "stateMutability": "view",
      "type": "function",
      "constant": true
    },
    {
      "inputs": [
        {
          "internalType": "string",
          "name": "name",
          "type": "string"
        }
      ],
      "name": "checkVaccine",
      "outputs": [],
      "stateMutability": "view",
      "type": "function",
      "constant": true
    },
    {
      "inputs": [
        {
          "internalType": "address",
          "name": "user",
          "type": "address"
        }
      ],
      "name": "getUserVaccineCount",
      "outputs": [
        {
          "internalType": "uint256",
          "name": "",
          "type": "uint256"
        }
      ],
      "stateMutability": "view",
      "type": "function",
      "constant": true
    },
    {
      "inputs": [
        {
          "internalType": "string",
          "name": "name",
          "type": "string"
        }
      ],
      "name": "getRequiredVaccineCount",
      "outputs": [
        {
          "internalType": "uint256",
          "name": "",
          "type": "uint256"
        }
      ],
      "stateMutability": "view",
      "type": "function",
      "constant": true
    },
    {
      "inputs": [],
      "name": "getTotalOrganization",
      "outputs": [
        {
          "internalType": "uint256",
          "name": "",
          "type": "uint256"
        }
      ],
      "stateMutability": "view",
      "type": "function",
      "constant": true
    },
    {
      "inputs": [],
      "name": "getAllOrganizations",
      "outputs": [
        {
          "internalType": "address[]",
          "name": "",
          "type": "address[]"
        }
      ],
      "stateMutability": "view",
      "type": "function",
      "constant": true
    },
    {
      "inputs": [
        {
          "internalType": "address",
          "name": "org",
          "type": "address"
        }
      ],
      "name": "getAllHealthPersons",
      "outputs": [
        {
          "internalType": "address[]",
          "name": "",
          "type": "address[]"
        }
      ],
      "stateMutability": "view",
      "type": "function",
      "constant": true
    },
    {
      "inputs": [
        {
          "internalType": "address",
          "name": "user",
          "type": "address"
        }
      ],
      "name": "getVaccineStatusOf",
      "outputs": [
        {
          "internalType": "enum Vaccination.VaccineStatus",
          "name": "status",
          "type": "uint8"
        }
      ],
      "stateMutability": "view",
      "type": "function",
      "constant": true
    },
    {
      "inputs": [
        {
          "internalType": "address",
          "name": "healthPerson",
          "type": "address"
        }
      ],
      "name": "getHealthPersonOrganization",
      "outputs": [
        {
          "internalType": "address",
          "name": "",
          "type": "address"
        }
      ],
      "stateMutability": "view",
      "type": "function",
      "constant": true
    },
    {
      "inputs": [
        {
          "internalType": "string",
          "name": "name",
          "type": "string"
        },
        {
          "internalType": "uint256",
          "name": "batch_id",
          "type": "uint256"
        },
        {
          "internalType": "address",
          "name": "healthPerson",
          "type": "address"
        }
      ],
      "name": "checkAvailability",
      "outputs": [],
      "stateMutability": "view",
      "type": "function",
      "constant": true
    },
    {
      "inputs": [
        {
          "internalType": "string",
          "name": "name",
          "type": "string"
        },
        {
          "internalType": "uint256",
          "name": "batch",
          "type": "uint256"
        },
        {
          "internalType": "address",
          "name": "org",
          "type": "address"
        }
      ],
      "name": "getAvailableVaccines",
      "outputs": [
        {
          "internalType": "uint256",
          "name": "",
          "type": "uint256"
        }
      ],
      "stateMutability": "view",
      "type": "function",
      "constant": true
    },
    {
      "inputs": [],
      "name": "getApprovedVaccinesLength",
      "outputs": [
        {
          "internalType": "uint256",
          "name": "",
          "type": "uint256"
        }
      ],
      "stateMutability": "view",
      "type": "function",
      "constant": true
    },
    {
      "inputs": [
        {
          "internalType": "string",
          "name": "name",
          "type": "string"
        }
      ],
      "name": "getVaccineApprovalStatus",
      "outputs": [
        {
          "internalType": "bool",
          "name": "",
          "type": "bool"
        }
      ],
      "stateMutability": "view",
      "type": "function",
      "constant": true
    },
    {
      "inputs": [],
      "name": "now",
      "outputs": [
        {
          "internalType": "uint256",
          "name": "",
          "type": "uint256"
        }
      ],
      "stateMutability": "view",
      "type": "function",
      "constant": true
    },
    {
      "inputs": [
        {
          "internalType": "address",
          "name": "user",
          "type": "address"
        }
      ],
      "name": "getRole",
      "outputs": [
        {
          "internalType": "enum Vaccination.Role",
          "name": "",
          "type": "uint8"
        }
      ],
      "stateMutability": "view",
      "type": "function",
      "constant": true
    },
    {
      "inputs": [
        {
          "internalType": "string",
          "name": "name",
          "type": "string"
        }
      ],
      "name": "getVaccineDetails",
      "outputs": [
        {
          "components": [
            {
              "internalType": "string",
              "name": "name",
              "type": "string"
            },
            {
              "internalType": "string",
              "name": "ipfs_hash",
              "type": "string"
            },
            {
              "internalType": "uint256[]",
              "name": "schedule",
              "type": "uint256[]"
            },
            {
              "internalType": "uint256[]",
              "name": "batches",
              "type": "uint256[]"
            },
            {
              "internalType": "bool",
              "name": "approved",
              "type": "bool"
            }
          ],
          "internalType": "struct Vaccination.VaccineDetails",
          "name": "",
          "type": "tuple"
        }
      ],
      "stateMutability": "view",
      "type": "function",
      "constant": true
    },
    {
      "inputs": [
        {
          "internalType": "address",
          "name": "userAddress",
          "type": "address"
        }
      ],
      "name": "getUserDetails",
      "outputs": [
        {
          "components": [
            {
              "internalType": "uint256",
              "name": "year_of_birth",
              "type": "uint256"
            },
            {
              "internalType": "enum Vaccination.Gender",
              "name": "gender",
              "type": "uint8"
            },
            {
              "internalType": "string",
              "name": "namehash",
              "type": "string"
            },
            {
              "internalType": "string",
              "name": "imagehash",
              "type": "string"
            },
            {
              "internalType": "string",
              "name": "vaccine_name",
              "type": "string"
            },
            {
              "internalType": "uint256[]",
              "name": "batches",
              "type": "uint256[]"
            },
            {
              "internalType": "uint256[]",
              "name": "datetime",
              "type": "uint256[]"
            },
            {
              "internalType": "uint256",
              "name": "vaccine_count",
              "type": "uint256"
            },
            {
              "internalType": "bool",
              "name": "registered",
              "type": "bool"
            }
          ],
          "internalType": "struct Vaccination.User",
          "name": "",
          "type": "tuple"
        }
      ],
      "stateMutability": "view",
      "type": "function",
      "constant": true
    }
  ],
  "bytecode": "0x60806040523480156200001157600080fd5b5033600860006101000a81548173ffffffffffffffffffffffffffffffffffffffff021916908373ffffffffffffffffffffffffffffffffffffffff16021790555060008060003373ffffffffffffffffffffffffffffffffffffffff1673ffffffffffffffffffffffffffffffffffffffff16815260200190815260200160002060006101000a81548160ff02191690836003811115620000b857620000b7620000c3565b5b0217905550620000f2565b7f4e487b7100000000000000000000000000000000000000000000000000000000600052602160045260246000fd5b615ccc80620001026000396000f3fe6080604052600436106102245760003560e01c80636b847d5511610123578063ab512808116100ab578063e09eaca51161006f578063e09eaca5146108f1578063ea1fc7471461092e578063ecfab03414610957578063fc1ba16014610980578063ff6aa4ea146109a957610224565b8063ab512808146107d4578063b168f0f014610811578063cc3d967b1461084e578063cd5f31bb1461088b578063cd96c2f8146108b457610224565b806398aabf17116100f257806398aabf17146106e457806399374642146107005780639cc527611461073d578063a62a3d2914610766578063a87430ba1461079157610224565b80636b847d55146106145780637217fcfd146106515780638abe09f21461067c57806391db02f8146106a757610224565b80632eb1ca66116101b15780634d8335d0116101755780634d8335d0146105135780635a1f74061461053e5780635fa932e814610584578063669ade7e146105ad57806369ed503f146105eb57610224565b80632eb1ca66146104085780633c419f53146104335780633e1609ca1461047057806344276733146104995780634cd89fc4146104d657610224565b80631bb9488d116101f85780631bb9488d146102f75780631ee584ac1461033657806322fce9211461037357806325de97ef146103b457806329575f6a146103dd57610224565b8062578e8c1461022957806307c2f08514610266578063086ed938146102a357806314fa0c8b146102ce575b600080fd5b34801561023557600080fd5b50610250600480360381019061024b919061427c565b6109d2565b60405161025d91906152ad565b60405180910390f35b34801561027257600080fd5b5061028d600480360381019061028891906144ff565b610bf9565b60405161029a91906152cf565b60405180910390f35b3480156102af57600080fd5b506102b8610c41565b6040516102c59190614e44565b60405180910390f35b3480156102da57600080fd5b506102f560048036038101906102f0919061456e565b610ccf565b005b34801561030357600080fd5b5061031e6004803603810190610319919061427c565b6110fd565b60405161032d93929190614ed9565b60405180910390f35b34801561034257600080fd5b5061035d60048036038101906103589190614617565b61125a565b60405161036a9190614e00565b60405180910390f35b34801561037f57600080fd5b5061039a600480360381019061039591906144a3565b611299565b6040516103ab95949392919061536e565b60405180910390f35b3480156103c057600080fd5b506103db60048036038101906103d6919061415d565b61137a565b005b3480156103e957600080fd5b506103f261164c565b6040516103ff9190614e00565b60405180910390f35b34801561041457600080fd5b5061041d611672565b60405161042a91906152cf565b60405180910390f35b34801561043f57600080fd5b5061045a60048036038101906104559190614617565b611678565b6040516104679190614eb7565b60405180910390f35b34801561047c57600080fd5b506104976004803603810190610492919061427c565b611724565b005b3480156104a557600080fd5b506104c060048036038101906104bb919061415d565b611795565b6040516104cd9190614e81565b60405180910390f35b3480156104e257600080fd5b506104fd60048036038101906104f8919061415d565b6117ea565b60405161050a9190614e00565b60405180910390f35b34801561051f57600080fd5b50610528611856565b60405161053591906152cf565b60405180910390f35b34801561054a57600080fd5b506105656004803603810190610560919061415d565b611863565b60405161057b9a99989796959493929190614f1e565b60405180910390f35b34801561059057600080fd5b506105ab60048036038101906105a69190614644565b611c89565b005b3480156105b957600080fd5b506105d460048036038101906105cf919061415d565b611f89565b6040516105e2929190614e1b565b60405180910390f35b3480156105f757600080fd5b50610612600480360381019061060d919061418a565b611fda565b005b34801561062057600080fd5b5061063b6004803603810190610636919061415d565b6122fe565b60405161064891906152cf565b60405180910390f35b34801561065d57600080fd5b5061066661234f565b60405161067391906152cf565b60405180910390f35b34801561068857600080fd5b5061069161235c565b60405161069e91906152cf565b60405180910390f35b3480156106b357600080fd5b506106ce60048036038101906106c9919061415d565b612364565b6040516106db9190614e9c565b60405180910390f35b6106fe60048036038101906106f9919061433d565b612458565b005b34801561070c57600080fd5b506107276004803603810190610722919061415d565b61286d565b6040516107349190614e81565b60405180910390f35b34801561074957600080fd5b50610764600480360381019061075f919061415d565b61288d565b005b34801561077257600080fd5b5061077b612a9a565b60405161078891906152cf565b60405180910390f35b34801561079d57600080fd5b506107b860048036038101906107b3919061415d565b612aa0565b6040516107cb97969594939291906152ea565b60405180910390f35b3480156107e057600080fd5b506107fb60048036038101906107f6919061427c565b612c94565b6040516108089190614e66565b60405180910390f35b34801561081d57600080fd5b506108386004803603810190610833919061415d565b612ccc565b6040516108459190614e44565b60405180910390f35b34801561085a57600080fd5b506108756004803603810190610870919061415d565b612d9c565b604051610882919061528b565b60405180910390f35b34801561089757600080fd5b506108b260048036038101906108ad91906144ff565b6130c6565b005b3480156108c057600080fd5b506108db60048036038101906108d6919061427c565b61325b565b6040516108e891906152cf565b60405180910390f35b3480156108fd57600080fd5b50610918600480360381019061091391906144ff565b613289565b60405161092591906152cf565b60405180910390f35b34801561093a57600080fd5b50610955600480360381019061095091906144a3565b613301565b005b34801561096357600080fd5b5061097e6004803603810190610979919061415d565b6134d6565b005b34801561098c57600080fd5b506109a760048036038101906109a291906142c5565b6135f7565b005b3480156109b557600080fd5b506109d060048036038101906109cb91906141f9565b6137ae565b005b6109da613e8f565b6001826040516109ea9190614dd2565b90815260200160405180910390206040518060a0016040529081600082018054610a139061568c565b80601f0160208091040260200160405190810160405280929190818152602001828054610a3f9061568c565b8015610a8c5780601f10610a6157610100808354040283529160200191610a8c565b820191906000526020600020905b815481529060010190602001808311610a6f57829003601f168201915b50505050508152602001600182018054610aa59061568c565b80601f0160208091040260200160405190810160405280929190818152602001828054610ad19061568c565b8015610b1e5780601f10610af357610100808354040283529160200191610b1e565b820191906000526020600020905b815481529060010190602001808311610b0157829003601f168201915b5050505050815260200160028201805480602002602001604051908101604052809291908181526020018280548015610b7657602002820191906000526020600020905b815481526020019060010190808311610b62575b5050505050815260200160038201805480602002602001604051908101604052809291908181526020018280548015610bce57602002820191906000526020600020905b815481526020019060010190808311610bba575b505050505081526020016004820160009054906101000a900460ff1615151515815250509050919050565b60038380516020810182018051848252602083016020850120818352809550505050505060205281600052604060002060205280600052604060002060009250925050505481565b60606009805480602002602001604051908101604052809291908181526020018280548015610cc557602002820191906000526020600020905b8160009054906101000a900473ffffffffffffffffffffffffffffffffffffffff1673ffffffffffffffffffffffffffffffffffffffff1681526020019060010190808311610c7b575b5050505050905090565b600860009054906101000a900473ffffffffffffffffffffffffffffffffffffffff1673ffffffffffffffffffffffffffffffffffffffff163373ffffffffffffffffffffffffffffffffffffffff1614610d5f576040517f08c379a0000000000000000000000000000000000000000000000000000000008152600401610d569061526b565b60405180910390fd5b60008511610da2576040517f08c379a0000000000000000000000000000000000000000000000000000000008152600401610d99906151eb565b60405180910390fd5b600186604051610db29190614dd2565b908152602001604051809103902060040160009054906101000a900460ff16610e10576040517f08c379a0000000000000000000000000000000000000000000000000000000008152600401610e07906150eb565b60405180910390fd5b428410610e52576040517f08c379a0000000000000000000000000000000000000000000000000000000008152600401610e499061512b565b60405180910390fd5b428311610e94576040517f08c379a0000000000000000000000000000000000000000000000000000000008152600401610e8b9061520b565b60405180910390fd5b428211610ed6576040517f08c379a0000000000000000000000000000000000000000000000000000000008152600401610ecd9061524b565b60405180910390fd5b84600287604051610ee79190614dd2565b908152602001604051809103902060008781526020019081526020016000206000018190555083600287604051610f1e9190614dd2565b908152602001604051809103902060008781526020019081526020016000206001018190555082600287604051610f559190614dd2565b908152602001604051809103902060008781526020019081526020016000206002018190555081600287604051610f8c9190614dd2565b9081526020016040518091039020600087815260200190815260200160002060030181905550600186604051610fc29190614dd2565b90815260200160405180910390206003018590806001815401808255809150506001900390600052602060002001600090919091909150558060038760405161100b9190614dd2565b9081526020016040518091039020600087815260200190815260200160002060003373ffffffffffffffffffffffffffffffffffffffff1673ffffffffffffffffffffffffffffffffffffffff1681526020019081526020016000208190555080600560003373ffffffffffffffffffffffffffffffffffffffff1673ffffffffffffffffffffffffffffffffffffffff1681526020019081526020016000206007018190555084866040516110c19190614dd2565b60405180910390207f2c6cf3aff6e0f7a34f79efaef2eee135f21edfaf419ebf6f1befe4e3a3efde2060405160405180910390a3505050505050565b6001818051602081018201805184825260208301602085012081835280955050505050506000915090508060000180546111369061568c565b80601f01602080910402602001604051908101604052809291908181526020018280546111629061568c565b80156111af5780601f10611184576101008083540402835291602001916111af565b820191906000526020600020905b81548152906001019060200180831161119257829003601f168201915b5050505050908060010180546111c49061568c565b80601f01602080910402602001604051908101604052809291908181526020018280546111f09061568c565b801561123d5780601f106112125761010080835404028352916020019161123d565b820191906000526020600020905b81548152906001019060200180831161122057829003601f168201915b5050505050908060040160009054906101000a900460ff16905083565b6009818154811061126a57600080fd5b906000526020600020016000915054906101000a900473ffffffffffffffffffffffffffffffffffffffff1681565b600282805160208101820180518482526020830160208501208183528095505050505050602052806000526040600020600091509150508060000154908060010154908060020154908060030154908060040180546112f79061568c565b80601f01602080910402602001604051908101604052809291908181526020018280546113239061568c565b80156113705780601f1061134557610100808354040283529160200191611370565b820191906000526020600020905b81548152906001019060200180831161135357829003601f168201915b5050505050905085565b600660003373ffffffffffffffffffffffffffffffffffffffff1673ffffffffffffffffffffffffffffffffffffffff16815260200190815260200160002060080160009054906101000a900460ff16611409576040517f08c379a00000000000000000000000000000000000000000000000000000000081526004016114009061518b565b60405180910390fd5b33600760008373ffffffffffffffffffffffffffffffffffffffff1673ffffffffffffffffffffffffffffffffffffffff16815260200190815260200160002060000160006101000a81548173ffffffffffffffffffffffffffffffffffffffff021916908373ffffffffffffffffffffffffffffffffffffffff1602179055506001600760008373ffffffffffffffffffffffffffffffffffffffff1673ffffffffffffffffffffffffffffffffffffffff16815260200190815260200160002060000160146101000a81548160ff02191690831515021790555060026000808373ffffffffffffffffffffffffffffffffffffffff1673ffffffffffffffffffffffffffffffffffffffff16815260200190815260200160002060006101000a81548160ff0219169083600381111561154757611546615767565b5b0217905550600660003373ffffffffffffffffffffffffffffffffffffffff1673ffffffffffffffffffffffffffffffffffffffff168152602001908152602001600020600701819080600181540180825580915050600190039060005260206000200160009091909190916101000a81548173ffffffffffffffffffffffffffffffffffffffff021916908373ffffffffffffffffffffffffffffffffffffffff1602179055508073ffffffffffffffffffffffffffffffffffffffff163373ffffffffffffffffffffffffffffffffffffffff167ff614f0736b4b411606df816f155b6c4d2dbfd2e69c2efee4b606481194aa6f5a60405160405180910390a350565b600860009054906101000a900473ffffffffffffffffffffffffffffffffffffffff1681565b600b5481565b6004818154811061168857600080fd5b9060005260206000200160009150905080546116a39061568c565b80601f01602080910402602001604051908101604052809291908181526020018280546116cf9061568c565b801561171c5780601f106116f15761010080835404028352916020019161171c565b820191906000526020600020905b8154815290600101906020018083116116ff57829003601f168201915b505050505081565b6001816040516117349190614dd2565b908152602001604051809103902060040160009054906101000a900460ff16611792576040517f08c379a00000000000000000000000000000000000000000000000000000000081526004016117899061516b565b60405180910390fd5b50565b60008060008373ffffffffffffffffffffffffffffffffffffffff1673ffffffffffffffffffffffffffffffffffffffff16815260200190815260200160002060009054906101000a900460ff169050919050565b6000600760008373ffffffffffffffffffffffffffffffffffffffff1673ffffffffffffffffffffffffffffffffffffffff16815260200190815260200160002060000160009054906101000a900473ffffffffffffffffffffffffffffffffffffffff169050919050565b6000600480549050905090565b60066020528060005260406000206000915090508060000180546118869061568c565b80601f01602080910402602001604051908101604052809291908181526020018280546118b29061568c565b80156118ff5780601f106118d4576101008083540402835291602001916118ff565b820191906000526020600020905b8154815290600101906020018083116118e257829003601f168201915b5050505050908060010180546119149061568c565b80601f01602080910402602001604051908101604052809291908181526020018280546119409061568c565b801561198d5780601f106119625761010080835404028352916020019161198d565b820191906000526020600020905b81548152906001019060200180831161197057829003601f168201915b5050505050908060020180546119a29061568c565b80601f01602080910402602001604051908101604052809291908181526020018280546119ce9061568c565b8015611a1b5780601f106119f057610100808354040283529160200191611a1b565b820191906000526020600020905b8154815290600101906020018083116119fe57829003601f168201915b505050505090806003018054611a309061568c565b80601f0160208091040260200160405190810160405280929190818152602001828054611a5c9061568c565b8015611aa95780601f10611a7e57610100808354040283529160200191611aa9565b820191906000526020600020905b815481529060010190602001808311611a8c57829003601f168201915b505050505090806004018054611abe9061568c565b80601f0160208091040260200160405190810160405280929190818152602001828054611aea9061568c565b8015611b375780601f10611b0c57610100808354040283529160200191611b37565b820191906000526020600020905b815481529060010190602001808311611b1a57829003601f168201915b505050505090806005018054611b4c9061568c565b80601f0160208091040260200160405190810160405280929190818152602001828054611b789061568c565b8015611bc55780601f10611b9a57610100808354040283529160200191611bc5565b820191906000526020600020905b815481529060010190602001808311611ba857829003601f168201915b505050505090806006018054611bda9061568c565b80601f0160208091040260200160405190810160405280929190818152602001828054611c069061568c565b8015611c535780601f10611c2857610100808354040283529160200191611c53565b820191906000526020600020905b815481529060010190602001808311611c3657829003601f168201915b5050505050908060080160009054906101000a900460ff16908060080160019054906101000a900460ff1690806009015490508a565b60001515600560003373ffffffffffffffffffffffffffffffffffffffff1673ffffffffffffffffffffffffffffffffffffffff16815260200190815260200160002060080160009054906101000a900460ff16151514611d1f576040517f08c379a0000000000000000000000000000000000000000000000000000000008152600401611d169061502b565b60405180910390fd5b83600560003373ffffffffffffffffffffffffffffffffffffffff1673ffffffffffffffffffffffffffffffffffffffff1681526020019081526020016000206000018190555082600560003373ffffffffffffffffffffffffffffffffffffffff1673ffffffffffffffffffffffffffffffffffffffff16815260200190815260200160002060010160006101000a81548160ff02191690836002811115611dcb57611dca615767565b5b021790555081600560003373ffffffffffffffffffffffffffffffffffffffff1673ffffffffffffffffffffffffffffffffffffffff1681526020019081526020016000206002019080519060200190611e26929190613ec0565b5080600560003373ffffffffffffffffffffffffffffffffffffffff1673ffffffffffffffffffffffffffffffffffffffff1681526020019081526020016000206003019080519060200190611e7d929190613ec0565b506001600560003373ffffffffffffffffffffffffffffffffffffffff1673ffffffffffffffffffffffffffffffffffffffff16815260200190815260200160002060080160006101000a81548160ff02191690831515021790555060036000803373ffffffffffffffffffffffffffffffffffffffff1673ffffffffffffffffffffffffffffffffffffffff16815260200190815260200160002060006101000a81548160ff02191690836003811115611f3b57611f3a615767565b5b02179055503373ffffffffffffffffffffffffffffffffffffffff167fec2103278c3c80a6d7b51d03d161f98073de470c933d17309f7e46ebccd8c1ea60405160405180910390a250505050565b60076020528060005260406000206000915090508060000160009054906101000a900473ffffffffffffffffffffffffffffffffffffffff16908060000160149054906101000a900460ff16905082565b600760003373ffffffffffffffffffffffffffffffffffffffff1673ffffffffffffffffffffffffffffffffffffffff16815260200190815260200160002060000160149054906101000a900460ff16612069576040517f08c379a0000000000000000000000000000000000000000000000000000000008152600401612060906151cb565b60405180910390fd5b61207283613a79565b61207d8282336130c6565b6120878383613b12565b81600560008573ffffffffffffffffffffffffffffffffffffffff1673ffffffffffffffffffffffffffffffffffffffff16815260200190815260200160002060040190805190602001906120dd929190613ec0565b50600560008473ffffffffffffffffffffffffffffffffffffffff1673ffffffffffffffffffffffffffffffffffffffff168152602001908152602001600020600501819080600181540180825580915050600190039060005260206000200160009091909190915055600560008473ffffffffffffffffffffffffffffffffffffffff1673ffffffffffffffffffffffffffffffffffffffff1681526020019081526020016000206006014290806001815401808255809150506001900390600052602060002001600090919091909150556001600560008573ffffffffffffffffffffffffffffffffffffffff1673ffffffffffffffffffffffffffffffffffffffff16815260200190815260200160002060070160008282546122039190615509565b92505081905550600160038360405161221c9190614dd2565b908152602001604051809103902060008381526020019081526020016000206000600760003373ffffffffffffffffffffffffffffffffffffffff1673ffffffffffffffffffffffffffffffffffffffff16815260200190815260200160002060000160009054906101000a900473ffffffffffffffffffffffffffffffffffffffff1673ffffffffffffffffffffffffffffffffffffffff1673ffffffffffffffffffffffffffffffffffffffff16815260200190815260200160002060008282546122e9919061555f565b925050819055506122f983613def565b505050565b600080600560008473ffffffffffffffffffffffffffffffffffffffff1673ffffffffffffffffffffffffffffffffffffffff16815260200190815260200160002060070154905080915050919050565b6000600980549050905090565b600042905090565b600080600560008473ffffffffffffffffffffffffffffffffffffffff1673ffffffffffffffffffffffffffffffffffffffff16815260200190815260200160002060070154905060006001600560008673ffffffffffffffffffffffffffffffffffffffff1673ffffffffffffffffffffffffffffffffffffffff1681526020019081526020016000206004016040516123ff9190614de9565b9081526020016040518091039020600201805490509050600082141561242a57600092505050612453565b8082101561243d57600192505050612453565b8082141561245057600292505050612453565b50505b919050565b600a34101561249c576040517f08c379a0000000000000000000000000000000000000000000000000000000008152600401612493906150ab565b60405180910390fd5b86600660003373ffffffffffffffffffffffffffffffffffffffff1673ffffffffffffffffffffffffffffffffffffffff16815260200190815260200160002060000190805190602001906124f2929190613ec0565b5085600660003373ffffffffffffffffffffffffffffffffffffffff1673ffffffffffffffffffffffffffffffffffffffff1681526020019081526020016000206001019080519060200190612549929190613ec0565b5084600660003373ffffffffffffffffffffffffffffffffffffffff1673ffffffffffffffffffffffffffffffffffffffff16815260200190815260200160002060020190805190602001906125a0929190613ec0565b5083600660003373ffffffffffffffffffffffffffffffffffffffff1673ffffffffffffffffffffffffffffffffffffffff16815260200190815260200160002060030190805190602001906125f7929190613ec0565b5082600660003373ffffffffffffffffffffffffffffffffffffffff1673ffffffffffffffffffffffffffffffffffffffff168152602001908152602001600020600401908051906020019061264e929190613ec0565b5081600660003373ffffffffffffffffffffffffffffffffffffffff1673ffffffffffffffffffffffffffffffffffffffff16815260200190815260200160002060050190805190602001906126a5929190613ec0565b5080600660003373ffffffffffffffffffffffffffffffffffffffff1673ffffffffffffffffffffffffffffffffffffffff16815260200190815260200160002060060190805190602001906126fc929190613ec0565b506001600660003373ffffffffffffffffffffffffffffffffffffffff1673ffffffffffffffffffffffffffffffffffffffff16815260200190815260200160002060080160016101000a81548160ff0219169083151502179055506009339080600181540180825580915050600190039060005260206000200160009091909190916101000a81548173ffffffffffffffffffffffffffffffffffffffff021916908373ffffffffffffffffffffffffffffffffffffffff16021790555060016000803373ffffffffffffffffffffffffffffffffffffffff1673ffffffffffffffffffffffffffffffffffffffff16815260200190815260200160002060006101000a81548160ff0219169083600381111561281d5761281c615767565b5b0217905550866040516128309190614dd2565b60405180910390207f464970519053c3da4a6516c6af01855284748b1531560ec3b1a4dcc74823688360405160405180910390a250505050505050565b60006020528060005260406000206000915054906101000a900460ff1681565b600860009054906101000a900473ffffffffffffffffffffffffffffffffffffffff1673ffffffffffffffffffffffffffffffffffffffff163373ffffffffffffffffffffffffffffffffffffffff161461291d576040517f08c379a00000000000000000000000000000000000000000000000000000000081526004016129149061526b565b60405180910390fd5b600660008273ffffffffffffffffffffffffffffffffffffffff1673ffffffffffffffffffffffffffffffffffffffff16815260200190815260200160002060080160019054906101000a900460ff166129ac576040517f08c379a00000000000000000000000000000000000000000000000000000000081526004016129a3906150cb565b60405180910390fd5b600660008273ffffffffffffffffffffffffffffffffffffffff1673ffffffffffffffffffffffffffffffffffffffff16815260200190815260200160002060080160009054906101000a900460ff1615612a3c576040517f08c379a0000000000000000000000000000000000000000000000000000000008152600401612a339061508b565b60405180910390fd5b6001600660008373ffffffffffffffffffffffffffffffffffffffff1673ffffffffffffffffffffffffffffffffffffffff16815260200190815260200160002060080160006101000a81548160ff02191690831515021790555050565b600a5481565b60056020528060005260406000206000915090508060000154908060010160009054906101000a900460ff1690806002018054612adc9061568c565b80601f0160208091040260200160405190810160405280929190818152602001828054612b089061568c565b8015612b555780601f10612b2a57610100808354040283529160200191612b55565b820191906000526020600020905b815481529060010190602001808311612b3857829003601f168201915b505050505090806003018054612b6a9061568c565b80601f0160208091040260200160405190810160405280929190818152602001828054612b969061568c565b8015612be35780601f10612bb857610100808354040283529160200191612be3565b820191906000526020600020905b815481529060010190602001808311612bc657829003601f168201915b505050505090806004018054612bf89061568c565b80601f0160208091040260200160405190810160405280929190818152602001828054612c249061568c565b8015612c715780601f10612c4657610100808354040283529160200191612c71565b820191906000526020600020905b815481529060010190602001808311612c5457829003601f168201915b5050505050908060070154908060080160009054906101000a900460ff16905087565b6000600182604051612ca69190614dd2565b908152602001604051809103902060040160009054906101000a900460ff169050919050565b6060600660008373ffffffffffffffffffffffffffffffffffffffff1673ffffffffffffffffffffffffffffffffffffffff168152602001908152602001600020600701805480602002602001604051908101604052809291908181526020018280548015612d9057602002820191906000526020600020905b8160009054906101000a900473ffffffffffffffffffffffffffffffffffffffff1673ffffffffffffffffffffffffffffffffffffffff1681526020019060010190808311612d46575b50505050509050919050565b612da4613f46565b600560008373ffffffffffffffffffffffffffffffffffffffff1673ffffffffffffffffffffffffffffffffffffffff16815260200190815260200160002060405180610120016040529081600082015481526020016001820160009054906101000a900460ff166002811115612e1e57612e1d615767565b5b6002811115612e3057612e2f615767565b5b8152602001600282018054612e449061568c565b80601f0160208091040260200160405190810160405280929190818152602001828054612e709061568c565b8015612ebd5780601f10612e9257610100808354040283529160200191612ebd565b820191906000526020600020905b815481529060010190602001808311612ea057829003601f168201915b50505050508152602001600382018054612ed69061568c565b80601f0160208091040260200160405190810160405280929190818152602001828054612f029061568c565b8015612f4f5780601f10612f2457610100808354040283529160200191612f4f565b820191906000526020600020905b815481529060010190602001808311612f3257829003601f168201915b50505050508152602001600482018054612f689061568c565b80601f0160208091040260200160405190810160405280929190818152602001828054612f949061568c565b8015612fe15780601f10612fb657610100808354040283529160200191612fe1565b820191906000526020600020905b815481529060010190602001808311612fc457829003601f168201915b505050505081526020016005820180548060200260200160405190810160405280929190818152602001828054801561303957602002820191906000526020600020905b815481526020019060010190808311613025575b505050505081526020016006820180548060200260200160405190810160405280929190818152602001828054801561309157602002820191906000526020600020905b81548152602001906001019080831161307d575b50505050508152602001600782015481526020016008820160009054906101000a900460ff1615151515815250509050919050565b600115156001846040516130da9190614dd2565b908152602001604051809103902060040160009054906101000a900460ff1615151461313b576040517f08c379a00000000000000000000000000000000000000000000000000000000081526004016131329061506b565b60405180910390fd5b6131458383613301565b60006003846040516131579190614dd2565b908152602001604051809103902060008481526020019081526020016000206000600760008573ffffffffffffffffffffffffffffffffffffffff1673ffffffffffffffffffffffffffffffffffffffff16815260200190815260200160002060000160009054906101000a900473ffffffffffffffffffffffffffffffffffffffff1673ffffffffffffffffffffffffffffffffffffffff1673ffffffffffffffffffffffffffffffffffffffff1681526020019081526020016000205411613256576040517f08c379a000000000000000000000000000000000000000000000000000000000815260040161324d9061504b565b60405180910390fd5b505050565b600060018260405161326d9190614dd2565b9081526020016040518091039020600201805490509050919050565b600060038460405161329b9190614dd2565b9081526020016040518091039020600084815260200190815260200160002060008373ffffffffffffffffffffffffffffffffffffffff1673ffffffffffffffffffffffffffffffffffffffff1681526020019081526020016000205490509392505050565b60006002836040516133139190614dd2565b908152602001604051809103902060008381526020019081526020016000206000015411613376576040517f08c379a000000000000000000000000000000000000000000000000000000000815260040161336d906151eb565b60405180910390fd5b426002836040516133879190614dd2565b9081526020016040518091039020600083815260200190815260200160002060010154106133ea576040517f08c379a00000000000000000000000000000000000000000000000000000000081526004016133e19061512b565b60405180910390fd5b426002836040516133fb9190614dd2565b90815260200160405180910390206000838152602001908152602001600020600201541161345e576040517f08c379a00000000000000000000000000000000000000000000000000000000081526004016134559061520b565b60405180910390fd5b4260028360405161346f9190614dd2565b9081526020016040518091039020600083815260200190815260200160002060030154116134d2576040517f08c379a00000000000000000000000000000000000000000000000000000000081526004016134c99061524b565b60405180910390fd5b5050565b600660008273ffffffffffffffffffffffffffffffffffffffff1673ffffffffffffffffffffffffffffffffffffffff16815260200190815260200160002060080160019054906101000a900460ff16613565576040517f08c379a000000000000000000000000000000000000000000000000000000000815260040161355c90614feb565b60405180910390fd5b600660008273ffffffffffffffffffffffffffffffffffffffff1673ffffffffffffffffffffffffffffffffffffffff16815260200190815260200160002060080160009054906101000a900460ff166135f4576040517f08c379a00000000000000000000000000000000000000000000000000000000081526004016135eb9061500b565b60405180910390fd5b50565b600860009054906101000a900473ffffffffffffffffffffffffffffffffffffffff1673ffffffffffffffffffffffffffffffffffffffff163373ffffffffffffffffffffffffffffffffffffffff1614613687576040517f08c379a000000000000000000000000000000000000000000000000000000000815260040161367e9061526b565b60405180910390fd5b816001836040516136989190614dd2565b908152602001604051809103902060000190805190602001906136bc929190613ec0565b50806001836040516136ce9190614dd2565b908152602001604051809103902060020190805190602001906136f2929190613fa6565b5060048290806001815401808255809150506001900390600052602060002001600090919091909150908051906020019061372e929190613ec0565b50600180836040516137409190614dd2565b908152602001604051809103902060040160006101000a81548160ff021916908315150217905550816040516137769190614dd2565b60405180910390207f9db18d96585d3ea407a3cd4bc1ecedb2bbc4188986b624b0e85d74caecce964b60405160405180910390a25050565b600860009054906101000a900473ffffffffffffffffffffffffffffffffffffffff1673ffffffffffffffffffffffffffffffffffffffff163373ffffffffffffffffffffffffffffffffffffffff161461383e576040517f08c379a00000000000000000000000000000000000000000000000000000000081526004016138359061526b565b60405180910390fd5b613847846134d6565b61385083611724565b61385a8383613301565b8060038460405161386b9190614dd2565b9081526020016040518091039020600084815260200190815260200160002060003373ffffffffffffffffffffffffffffffffffffffff1673ffffffffffffffffffffffffffffffffffffffff168152602001908152602001600020541015613909576040517f08c379a00000000000000000000000000000000000000000000000000000000081526004016139009061514b565b60405180910390fd5b8060038460405161391a9190614dd2565b9081526020016040518091039020600084815260200190815260200160002060003373ffffffffffffffffffffffffffffffffffffffff1673ffffffffffffffffffffffffffffffffffffffff1681526020019081526020016000206000828254613985919061555f565b925050819055508060038460405161399d9190614dd2565b9081526020016040518091039020600084815260200190815260200160002060008673ffffffffffffffffffffffffffffffffffffffff1673ffffffffffffffffffffffffffffffffffffffff1681526020019081526020016000206000828254613a089190615509565b9250508190555082604051613a1d9190614dd2565b60405180910390208473ffffffffffffffffffffffffffffffffffffffff167f4e2ff4923c3e767530d0bd26e60dd9043c7f4461e83947851dde360e0a106b7584604051613a6b91906152cf565b60405180910390a350505050565b60011515600560008373ffffffffffffffffffffffffffffffffffffffff1673ffffffffffffffffffffffffffffffffffffffff16815260200190815260200160002060080160009054906101000a900460ff16151514613b0f576040517f08c379a0000000000000000000000000000000000000000000000000000000008152600401613b06906151ab565b60405180910390fd5b50565b60011515600182604051613b269190614dd2565b908152602001604051809103902060040160009054906101000a900460ff16151514613b87576040517f08c379a0000000000000000000000000000000000000000000000000000000008152600401613b7e906150eb565b60405180910390fd5b6000600560008473ffffffffffffffffffffffffffffffffffffffff1673ffffffffffffffffffffffffffffffffffffffff1681526020019081526020016000206004018054613bd69061568c565b80601f0160208091040260200160405190810160405280929190818152602001828054613c029061568c565b8015613c4f5780601f10613c2457610100808354040283529160200191613c4f565b820191906000526020600020905b815481529060010190602001808311613c3257829003601f168201915b505050505090506000829050600082511115613d8a578051825114613ca9576040517f08c379a0000000000000000000000000000000000000000000000000000000008152600401613ca09061510b565b60405180910390fd5b60005b8251811015613d8857818181518110613cc857613cc76157c5565b5b602001015160f81c60f81b7effffffffffffffffffffffffffffffffffffffffffffffffffffffffffffff1916838281518110613d0857613d076157c5565b5b602001015160f81c60f81b7effffffffffffffffffffffffffffffffffffffffffffffffffffffffffffff191614613d75576040517f08c379a0000000000000000000000000000000000000000000000000000000008152600401613d6c9061510b565b60405180910390fd5b8080613d80906156ef565b915050613cac565b505b6000613d95856122fe565b90506000613da28561325b565b905080821415613de7576040517f08c379a0000000000000000000000000000000000000000000000000000000008152600401613dde9061522b565b60405180910390fd5b505050505050565b6000613dfa82612364565b9050600280811115613e0f57613e0e615767565b5b816002811115613e2257613e21615767565b5b1415613e43576001600b6000828254613e3b9190615509565b925050819055505b60016002811115613e5757613e56615767565b5b816002811115613e6a57613e69615767565b5b1415613e8b576001600a6000828254613e839190615509565b925050819055505b5050565b6040518060a00160405280606081526020016060815260200160608152602001606081526020016000151581525090565b828054613ecc9061568c565b90600052602060002090601f016020900481019282613eee5760008555613f35565b82601f10613f0757805160ff1916838001178555613f35565b82800160010185558215613f35579182015b82811115613f34578251825591602001919060010190613f19565b5b509050613f429190613ff3565b5090565b6040518061012001604052806000815260200160006002811115613f6d57613f6c615767565b5b81526020016060815260200160608152602001606081526020016060815260200160608152602001600081526020016000151581525090565b828054828255906000526020600020908101928215613fe2579160200282015b82811115613fe1578251825591602001919060010190613fc6565b5b509050613fef9190613ff3565b5090565b5b8082111561400c576000816000905550600101613ff4565b5090565b600061402361401e846153ed565b6153c8565b9050808382526020820190508285602086028201111561404657614045615828565b5b60005b85811015614076578161405c8882614148565b845260208401935060208301925050600181019050614049565b5050509392505050565b600061409361408e84615419565b6153c8565b9050828152602081018484840111156140af576140ae61582d565b5b6140ba84828561564a565b509392505050565b6000813590506140d181615c58565b92915050565b600082601f8301126140ec576140eb615823565b5b81356140fc848260208601614010565b91505092915050565b60008135905061411481615c6f565b92915050565b600082601f83011261412f5761412e615823565b5b813561413f848260208601614080565b91505092915050565b60008135905061415781615c7f565b92915050565b60006020828403121561417357614172615837565b5b6000614181848285016140c2565b91505092915050565b6000806000606084860312156141a3576141a2615837565b5b60006141b1868287016140c2565b935050602084013567ffffffffffffffff8111156141d2576141d1615832565b5b6141de8682870161411a565b92505060406141ef86828701614148565b9150509250925092565b6000806000806080858703121561421357614212615837565b5b6000614221878288016140c2565b945050602085013567ffffffffffffffff81111561424257614241615832565b5b61424e8782880161411a565b935050604061425f87828801614148565b925050606061427087828801614148565b91505092959194509250565b60006020828403121561429257614291615837565b5b600082013567ffffffffffffffff8111156142b0576142af615832565b5b6142bc8482850161411a565b91505092915050565b600080604083850312156142dc576142db615837565b5b600083013567ffffffffffffffff8111156142fa576142f9615832565b5b6143068582860161411a565b925050602083013567ffffffffffffffff81111561432757614326615832565b5b614333858286016140d7565b9150509250929050565b600080600080600080600060e0888a03121561435c5761435b615837565b5b600088013567ffffffffffffffff81111561437a57614379615832565b5b6143868a828b0161411a565b975050602088013567ffffffffffffffff8111156143a7576143a6615832565b5b6143b38a828b0161411a565b965050604088013567ffffffffffffffff8111156143d4576143d3615832565b5b6143e08a828b0161411a565b955050606088013567ffffffffffffffff81111561440157614400615832565b5b61440d8a828b0161411a565b945050608088013567ffffffffffffffff81111561442e5761442d615832565b5b61443a8a828b0161411a565b93505060a088013567ffffffffffffffff81111561445b5761445a615832565b5b6144678a828b0161411a565b92505060c088013567ffffffffffffffff81111561448857614487615832565b5b6144948a828b0161411a565b91505092959891949750929550565b600080604083850312156144ba576144b9615837565b5b600083013567ffffffffffffffff8111156144d8576144d7615832565b5b6144e48582860161411a565b92505060206144f585828601614148565b9150509250929050565b60008060006060848603121561451857614517615837565b5b600084013567ffffffffffffffff81111561453657614535615832565b5b6145428682870161411a565b935050602061455386828701614148565b9250506040614564868287016140c2565b9150509250925092565b60008060008060008060c0878903121561458b5761458a615837565b5b600087013567ffffffffffffffff8111156145a9576145a8615832565b5b6145b589828a0161411a565b96505060206145c689828a01614148565b95505060406145d789828a01614148565b94505060606145e889828a01614148565b93505060806145f989828a01614148565b92505060a061460a89828a01614148565b9150509295509295509295565b60006020828403121561462d5761462c615837565b5b600061463b84828501614148565b91505092915050565b6000806000806080858703121561465e5761465d615837565b5b600061466c87828801614148565b945050602061467d87828801614105565b935050604085013567ffffffffffffffff81111561469e5761469d615832565b5b6146aa8782880161411a565b925050606085013567ffffffffffffffff8111156146cb576146ca615832565b5b6146d78782880161411a565b91505092959194509250565b60006146ef8383614713565b60208301905092915050565b60006147078383614db4565b60208301905092915050565b61471c81615593565b82525050565b61472b81615593565b82525050565b600061473c8261547f565b61474681856154ba565b93506147518361544a565b8060005b8381101561478257815161476988826146e3565b9750614774836154a0565b925050600181019050614755565b5085935050505092915050565b600061479a8261548a565b6147a481856154cb565b93506147af8361545a565b8060005b838110156147e05781516147c788826146fb565b97506147d2836154ad565b9250506001810190506147b3565b5085935050505092915050565b6147f6816155a5565b82525050565b614805816155a5565b82525050565b61481481615614565b82525050565b61482381615614565b82525050565b61483281615626565b82525050565b61484181615638565b82525050565b600061485282615495565b61485c81856154dc565b935061486c818560208601615659565b6148758161583c565b840191505092915050565b600061488b82615495565b61489581856154ed565b93506148a5818560208601615659565b6148ae8161583c565b840191505092915050565b60006148c482615495565b6148ce81856154fe565b93506148de818560208601615659565b80840191505092915050565b600081546148f78161568c565b61490181866154fe565b9450600182166000811461491c576001811461492d57614960565b60ff19831686528186019350614960565b6149368561546a565b60005b8381101561495857815481890152600182019150602081019050614939565b838801955050505b50505092915050565b60006149766015836154ed565b91506149818261584d565b602082019050919050565b6000614999601d836154ed565b91506149a482615876565b602082019050919050565b60006149bc6013836154ed565b91506149c78261589f565b602082019050919050565b60006149df6017836154ed565b91506149ea826158c8565b602082019050919050565b6000614a026015836154ed565b9150614a0d826158f1565b602082019050919050565b6000614a256021836154ed565b9150614a308261591a565b604082019050919050565b6000614a486014836154ed565b9150614a5382615969565b602082019050919050565b6000614a6b602c836154ed565b9150614a7682615992565b604082019050919050565b6000614a8e6018836154ed565b9150614a99826159e1565b602082019050919050565b6000614ab16017836154ed565b9150614abc82615a0a565b602082019050919050565b6000614ad4601c836154ed565b9150614adf82615a33565b602082019050919050565b6000614af76016836154ed565b9150614b0282615a5c565b602082019050919050565b6000614b1a6014836154ed565b9150614b2582615a85565b602082019050919050565b6000614b3d600c836154ed565b9150614b4882615aae565b602082019050919050565b6000614b606011836154ed565b9150614b6b82615ad7565b602082019050919050565b6000614b83600c836154ed565b9150614b8e82615b00565b602082019050919050565b6000614ba6600d836154ed565b9150614bb182615b29565b602082019050919050565b6000614bc96007836154ed565b9150614bd482615b52565b602082019050919050565b6000614bec6019836154ed565b9150614bf782615b7b565b602082019050919050565b6000614c0f6022836154ed565b9150614c1a82615ba4565b604082019050919050565b6000614c32600a836154ed565b9150614c3d82615bf3565b602082019050919050565b600061012083016000830151614c616000860182614db4565b506020830151614c74602086018261480b565b5060408301518482036040860152614c8c8282614847565b91505060608301518482036060860152614ca68282614847565b91505060808301518482036080860152614cc08282614847565b91505060a083015184820360a0860152614cda828261478f565b91505060c083015184820360c0860152614cf4828261478f565b91505060e0830151614d0960e0860182614db4565b50610100830151614d1e6101008601826147ed565b508091505092915050565b600060a0830160008301518482036000860152614d468282614847565b91505060208301518482036020860152614d608282614847565b91505060408301518482036040860152614d7a828261478f565b91505060608301518482036060860152614d94828261478f565b9150506080830151614da960808601826147ed565b508091505092915050565b614dbd8161560a565b82525050565b614dcc8161560a565b82525050565b6000614dde82846148b9565b915081905092915050565b6000614df582846148ea565b915081905092915050565b6000602082019050614e156000830184614722565b92915050565b6000604082019050614e306000830185614722565b614e3d60208301846147fc565b9392505050565b60006020820190508181036000830152614e5e8184614731565b905092915050565b6000602082019050614e7b60008301846147fc565b92915050565b6000602082019050614e966000830184614829565b92915050565b6000602082019050614eb16000830184614838565b92915050565b60006020820190508181036000830152614ed18184614880565b905092915050565b60006060820190508181036000830152614ef38186614880565b90508181036020830152614f078185614880565b9050614f1660408301846147fc565b949350505050565b6000610140820190508181036000830152614f39818d614880565b90508181036020830152614f4d818c614880565b90508181036040830152614f61818b614880565b90508181036060830152614f75818a614880565b90508181036080830152614f898189614880565b905081810360a0830152614f9d8188614880565b905081810360c0830152614fb18187614880565b9050614fc060e08301866147fc565b614fce6101008301856147fc565b614fdc610120830184614dc3565b9b9a5050505050505050505050565b6000602082019050818103600083015261500481614969565b9050919050565b600060208201905081810360008301526150248161498c565b9050919050565b60006020820190508181036000830152615044816149af565b9050919050565b60006020820190508181036000830152615064816149d2565b9050919050565b60006020820190508181036000830152615084816149f5565b9050919050565b600060208201905081810360008301526150a481614a18565b9050919050565b600060208201905081810360008301526150c481614a3b565b9050919050565b600060208201905081810360008301526150e481614a5e565b9050919050565b6000602082019050818103600083015261510481614a81565b9050919050565b6000602082019050818103600083015261512481614aa4565b9050919050565b6000602082019050818103600083015261514481614ac7565b9050919050565b6000602082019050818103600083015261516481614aea565b9050919050565b6000602082019050818103600083015261518481614b0d565b9050919050565b600060208201905081810360008301526151a481614b30565b9050919050565b600060208201905081810360008301526151c481614b53565b9050919050565b600060208201905081810360008301526151e481614b76565b9050919050565b6000602082019050818103600083015261520481614b99565b9050919050565b6000602082019050818103600083015261522481614bbc565b9050919050565b6000602082019050818103600083015261524481614bdf565b9050919050565b6000602082019050818103600083015261526481614c02565b9050919050565b6000602082019050818103600083015261528481614c25565b9050919050565b600060208201905081810360008301526152a58184614c48565b905092915050565b600060208201905081810360008301526152c78184614d29565b905092915050565b60006020820190506152e46000830184614dc3565b92915050565b600060e0820190506152ff600083018a614dc3565b61530c602083018961481a565b818103604083015261531e8188614880565b905081810360608301526153328187614880565b905081810360808301526153468186614880565b905061535560a0830185614dc3565b61536260c08301846147fc565b98975050505050505050565b600060a0820190506153836000830188614dc3565b6153906020830187614dc3565b61539d6040830186614dc3565b6153aa6060830185614dc3565b81810360808301526153bc8184614880565b90509695505050505050565b60006153d26153e3565b90506153de82826156be565b919050565b6000604051905090565b600067ffffffffffffffff821115615408576154076157f4565b5b602082029050602081019050919050565b600067ffffffffffffffff821115615434576154336157f4565b5b61543d8261583c565b9050602081019050919050565b6000819050602082019050919050565b6000819050602082019050919050565b60008190508160005260206000209050919050565b600081519050919050565b600081519050919050565b600081519050919050565b6000602082019050919050565b6000602082019050919050565b600082825260208201905092915050565b600082825260208201905092915050565b600082825260208201905092915050565b600082825260208201905092915050565b600081905092915050565b60006155148261560a565b915061551f8361560a565b9250827fffffffffffffffffffffffffffffffffffffffffffffffffffffffffffffffff0382111561555457615553615738565b5b828201905092915050565b600061556a8261560a565b91506155758361560a565b92508282101561558857615587615738565b5b828203905092915050565b600061559e826155ea565b9050919050565b60008115159050919050565b60008190506155bf82615c1c565b919050565b60008190506155d282615c30565b919050565b60008190506155e582615c44565b919050565b600073ffffffffffffffffffffffffffffffffffffffff82169050919050565b6000819050919050565b600061561f826155b1565b9050919050565b6000615631826155c4565b9050919050565b6000615643826155d7565b9050919050565b82818337600083830152505050565b60005b8381101561567757808201518184015260208101905061565c565b83811115615686576000848401525b50505050565b600060028204905060018216806156a457607f821691505b602082108114156156b8576156b7615796565b5b50919050565b6156c78261583c565b810181811067ffffffffffffffff821117156156e6576156e56157f4565b5b80604052505050565b60006156fa8261560a565b91507fffffffffffffffffffffffffffffffffffffffffffffffffffffffffffffffff82141561572d5761572c615738565b5b600182019050919050565b7f4e487b7100000000000000000000000000000000000000000000000000000000600052601160045260246000fd5b7f4e487b7100000000000000000000000000000000000000000000000000000000600052602160045260246000fd5b7f4e487b7100000000000000000000000000000000000000000000000000000000600052602260045260246000fd5b7f4e487b7100000000000000000000000000000000000000000000000000000000600052603260045260246000fd5b7f4e487b7100000000000000000000000000000000000000000000000000000000600052604160045260246000fd5b600080fd5b600080fd5b600080fd5b600080fd5b600080fd5b6000601f19601f8301169050919050565b7f496e76616c6964206f7267616e697a6174696f6e2e0000000000000000000000600082015250565b7f4f7267616e697a6174696f6e206973206e6f7420617070726f7665642e000000600082015250565b7f416c726561647920726567697374657265642e00000000000000000000000000600082015250565b7f496e73756666696369656e742076616363696e652e2e2e000000000000000000600082015250565b7f56616363696e65206e6f7420617070726f7665642e0000000000000000000000600082015250565b7f4f7267616e697a6174696f6e20697320616c726561647920617070726f76656460008201527f2e00000000000000000000000000000000000000000000000000000000000000602082015250565b7f496e73756666696369656e7420616d6f756e742e000000000000000000000000600082015250565b7f4f7267616e697a6174696f6e206d75737420666972737420726567697374657260008201527f20746f20617070726f76652e0000000000000000000000000000000000000000602082015250565b7f56616363696e65206973206e6f7420617070726f7665642e0000000000000000600082015250565b7f56616363696e65206e6f7420636f6d70617469626c652e000000000000000000600082015250565b7f4d7573742062652070726576696f75736c7920646566726f7374656400000000600082015250565b7f496e73756666696369656e742076616363696e65732e00000000000000000000600082015250565b7f56616363696e65206e6f7420617070726f766564000000000000000000000000600082015250565b7f4f7267616e697a6174696f6e0000000000000000000000000000000000000000600082015250565b7f556e726567697374657265642075736572000000000000000000000000000000600082015250565b7f4865616c7468506572736f6e0000000000000000000000000000000000000000600082015250565b7f496e76616c696420626174636800000000000000000000000000000000000000600082015250565b7f4578706972656400000000000000000000000000000000000000000000000000600082015250565b7f46756c6c792076616363696e6174656420616c72656164792e00000000000000600082015250565b7f4d7573742062652075736564207072696f7220746f207573652062792064617460008201527f652e000000000000000000000000000000000000000000000000000000000000602082015250565b7f737570657241646d696e00000000000000000000000000000000000000000000600082015250565b60038110615c2d57615c2c615767565b5b50565b60048110615c4157615c40615767565b5b50565b60038110615c5557615c54615767565b5b50565b615c6181615593565b8114615c6c57600080fd5b50565b60038110615c7c57600080fd5b50565b615c888161560a565b8114615c9357600080fd5b5056fea26469706673582212204bb4c624fcfb86910c8b10d76ec7d2d0c45efbc3f4bb4179770cfc94988cb18364736f6c63430008050033",
  "immutableReferences": {},
  "source": "// SPDX-License-Identifier: MIT\npragma solidity >=0.4.22 <0.9.0;\npragma experimental ABIEncoderV2;\n\n\nuint256 constant REGISTRATION_COST = 10;\n\ncontract Vaccination {\n    enum VaccineStatus {\n        UNVACCINATED,\n        PARTIALLY_VACCINATED,\n        FULLY_VACCINATED\n    }\n\n    enum Gender {\n        MALE,\n        FEMALE,\n        UNSPECIFIED\n    }\n\n    enum Role {\n        GOVERNMENT,\n        ORGANIZATION,\n        HEALTHPERSON,\n        USER\n    }\n\n    struct Vaccine {\n        string name;\n        uint256 batch_no;\n        uint256 vaccination_datetime;\n        // uint256 serialNo;\n    }\n\n    struct BatchDetails {\n        uint256 batch_id;\n        uint256 defrost_date;\n        uint256 manufacture_expiry;\n        uint256 use_by_date;\n        string ipfs_hash;\n    }\n\n    struct VaccineDetails {\n        string name;\n        // string platform;\n        // string route;\n        string ipfs_hash;\n        uint256[] schedule;\n        uint256[] batches;\n        bool approved;\n    }\n\n    struct User {\n        uint256 year_of_birth;\n        Gender gender;\n        string namehash;\n        string imagehash;\n        string vaccine_name;\n        uint256[] batches;\n        uint256[] datetime;\n        uint256 vaccine_count;\n        bool registered;\n    }\n\n    struct Organization {\n        string name;\n        string url;\n        string document_hash;\n        string logo_hash;\n        string location;\n        string phone;\n        string email;\n        address[] healthPersons;\n        bool approved;\n        bool registration;\n        uint256 vaccined;\n    }\n\n    struct HealthPerson {\n        address org;\n        bool approved;\n    }\n\n    mapping(address => Role) public roles;\n\n    mapping(string => VaccineDetails) public approvedVaccines;\n    mapping(string => mapping(uint256 => BatchDetails)) public approvedBatches;\n    mapping(string => mapping(uint256 => mapping(address => uint256)))\n        public approvedOperators;\n\n    string[] public approvedVaccineNames;\n\n    mapping(address => User) public users;\n    mapping(address => Organization) public organizations;\n    mapping(address => HealthPerson) public healthPersons;\n\n    address public superAdmin;\n\n    address[] public organizationsList;\n\n    // uint256 public registered;\n    uint256 public partiallyVaccinated;\n    uint256 public fullyVaccinated;\n\n    //uint256 public total_vaccines;\n    event ApproveVaccine(string indexed vaccine_name);\n    event AddBatch(string indexed vaccine_name, uint256 indexed batch_no);\n    event ApproveOrganization(string indexed org_name);\n    event TransferVaccine(\n        address indexed to,\n        string indexed vaccine_name,\n        uint256 batch_no\n    );\n\n    event RegisterOrganization(string indexed org_name);\n    event ApproveHealthPerson(address indexed org, address indexed hp);\n\n    event RegisterHealthPerson(address indexed _from);\n\n    event RegisterIndividual(address indexed _from);\n\n    constructor() {\n        superAdmin = msg.sender;\n        roles[msg.sender] = Role.GOVERNMENT;\n    }\n\n    function approveVaccine(string memory name, uint256[] memory schedule)\n        public\n        onlySuperAdmin\n    {\n        approvedVaccines[name].name = name;\n        approvedVaccines[name].schedule = schedule;\n        approvedVaccineNames.push(name);\n        approvedVaccines[name].approved = true;\n        emit ApproveVaccine(name);\n    }\n\n    function addBatch(\n        string memory name,\n        uint256 batch_id,\n        uint256 defrost_date,\n        uint256 manufacture_expiry,\n        uint256 use_by_date,\n        uint256 units\n    ) public onlySuperAdmin {\n        require(batch_id > 0, \"Invalid batch\");\n        require(approvedVaccines[name].approved, \"Vaccine is not approved.\");\n\n        //Check dates\n        require(defrost_date < block.timestamp, \"Must be previously defrosted\");\n        require(manufacture_expiry > block.timestamp, \"Expired\");\n        require(\n            use_by_date > block.timestamp,\n            \"Must be used prior to use by date.\"\n        );\n\n        approvedBatches[name][batch_id].batch_id = batch_id;\n        approvedBatches[name][batch_id].defrost_date = defrost_date;\n        approvedBatches[name][batch_id].manufacture_expiry = manufacture_expiry;\n        approvedBatches[name][batch_id].use_by_date = use_by_date;\n        approvedVaccines[name].batches.push(batch_id);\n        approvedOperators[name][batch_id][msg.sender] = units;\n        users[msg.sender].vaccine_count = units;\n        emit AddBatch(name, batch_id);\n    }\n\n    function registerOrganization(\n        string memory name,\n        string memory url,\n        string memory document_hash,\n        string memory logo_hash,\n        string memory location,\n        string memory phone,\n        string memory email\n    ) public payable {\n        if (msg.value < REGISTRATION_COST) {\n            revert(\"Insufficient amount.\");\n        }\n        organizations[msg.sender].name = name;\n        organizations[msg.sender].url = url;\n        organizations[msg.sender].document_hash = document_hash;\n        organizations[msg.sender].logo_hash = logo_hash;\n        organizations[msg.sender].location = location;\n        organizations[msg.sender].phone = phone;\n        organizations[msg.sender].email = email;\n\n        organizations[msg.sender].registration = true;\n        organizationsList.push(msg.sender);\n        roles[msg.sender] = Role.ORGANIZATION;\n        emit RegisterOrganization(name);\n    }\n\n    function approveOrganization(address org) public onlySuperAdmin {\n        if (!organizations[org].registration) {\n            revert(\"Organization must first register to approve.\");\n        }\n        if (organizations[org].approved) {\n            revert(\"Organization is already approved.\");\n        }\n        organizations[org].approved = true;\n    }\n\n    function transfer(\n        address to,\n        string memory name,\n        uint256 batch_id,\n        uint256 units\n    ) public onlySuperAdmin {\n        checkOrganization(to);\n        checkVaccine(name);\n        checkBatch(name, batch_id);\n\n        if (approvedOperators[name][batch_id][msg.sender] < units) {\n            revert(\"Insufficient vaccines.\");\n        }\n        approvedOperators[name][batch_id][msg.sender] -= units;\n        approvedOperators[name][batch_id][to] += units;\n        emit TransferVaccine(to, name, batch_id);\n    }\n\n    function registerIndividual(\n        uint256 year_of_birth,\n        Gender gender,\n        string memory namehash,\n        string memory imagehash\n    ) public {\n        require(users[msg.sender].registered == false, \"Already registered.\");\n        users[msg.sender].year_of_birth = year_of_birth;\n        users[msg.sender].gender = gender;\n        users[msg.sender].namehash = namehash;\n        users[msg.sender].imagehash = imagehash;\n        users[msg.sender].registered = true;\n        roles[msg.sender] = Role.USER;\n        emit RegisterIndividual(msg.sender);\n    }\n\n    function approveHealthPerson(address person) public onlyOrganization {\n        healthPersons[person].org = msg.sender;\n        healthPersons[person].approved = true;\n        roles[person] = Role.HEALTHPERSON;\n        organizations[msg.sender].healthPersons.push(person);\n        emit ApproveHealthPerson(msg.sender, person);\n    }\n\n    function vaccinate(\n        address to,\n        string memory name,\n        uint256 batch_id\n    ) public onlyHealthPerson {\n        checkUserRegistration(to);\n        checkAvailability(name, batch_id, msg.sender);\n        checkUserVaccineCompatibility(to, name);\n        users[to].vaccine_name = name;\n        users[to].batches.push(batch_id);\n        users[to].datetime.push(block.timestamp);\n        users[to].vaccine_count += 1;\n        approvedOperators[name][batch_id][healthPersons[msg.sender].org] -= 1;\n        changeStatus(to);\n    }\n\n    //Check Methods\n    function checkUserRegistration(address user) private view {\n        require(users[user].registered == true, \"Unregistered user\");\n    }\n\n    function checkBatch(string memory name, uint256 batch_id) public view {\n        require(approvedBatches[name][batch_id].batch_id > 0, \"Invalid batch\");\n        require(\n            approvedBatches[name][batch_id].defrost_date < block.timestamp,\n            \"Must be previously defrosted\"\n        );\n        require(\n            approvedBatches[name][batch_id].manufacture_expiry >\n                block.timestamp,\n            \"Expired\"\n        );\n        require(\n            approvedBatches[name][batch_id].use_by_date > block.timestamp,\n            \"Must be used prior to use by date.\"\n        );\n    }\n\n    function checkOrganization(address org) public view {\n        if (!organizations[org].registration) {\n            revert(\"Invalid organization.\");\n        }\n        if (!organizations[org].approved) {\n            revert(\"Organization is not approved.\");\n        }\n    }\n\n    function checkVaccine(string memory name) public view {\n        if (!approvedVaccines[name].approved) {\n            revert(\"Vaccine not approved\");\n        }\n    }\n\n    function checkUserVaccineCompatibility(address user, string memory name)\n        private\n        view\n    {\n        require(\n            approvedVaccines[name].approved == true,\n            \"Vaccine is not approved.\"\n        );\n        bytes memory _user_recieved_vaccine = bytes(users[user].vaccine_name);\n        bytes memory _user_recieving_vaccine = bytes(name);\n\n        if (_user_recieved_vaccine.length > 0) {\n            if (\n                _user_recieved_vaccine.length != _user_recieving_vaccine.length\n            ) {\n                revert(\"Vaccine not compatible.\");\n            }\n            for (uint256 i = 0; i < _user_recieved_vaccine.length; i++) {\n                if (_user_recieved_vaccine[i] != _user_recieving_vaccine[i]) {\n                    revert(\"Vaccine not compatible.\");\n                }\n            }\n        }\n        uint256 user_vaccineCount = getUserVaccineCount(user);\n        uint256 required_vaccineCount = getRequiredVaccineCount(name);\n\n        if (user_vaccineCount == required_vaccineCount) {\n            revert(\"Fully vaccinated already.\");\n        }\n    }\n\n    //Read Only Methods\n    function getUserVaccineCount(address user) public view returns (uint256) {\n        uint256 count = users[user].vaccine_count;\n        return count;\n    }\n\n    function getRequiredVaccineCount(string memory name)\n        public\n        view\n        returns (uint256)\n    {\n        return approvedVaccines[name].schedule.length;\n    }\n\n    function getTotalOrganization() public view returns (uint256) {\n        return organizationsList.length;\n    }\n\n    function getAllOrganizations() public view returns (address[] memory) {\n        return organizationsList;\n    }\n\n    function getAllHealthPersons(address org)\n        public\n        view\n        returns (address[] memory)\n    {\n        return organizations[org].healthPersons;\n    }\n\n    function getVaccineStatusOf(address user)\n        public\n        view\n        returns (VaccineStatus status)\n    {\n        uint256 user_vaccineCount = users[user].vaccine_count;\n        uint256 required_vaccineCount = approvedVaccines[\n            users[user].vaccine_name\n        ].schedule.length;\n\n        if (user_vaccineCount == 0) {\n            return VaccineStatus.UNVACCINATED;\n        }\n        if (user_vaccineCount < required_vaccineCount) {\n            return VaccineStatus.PARTIALLY_VACCINATED;\n        }\n        if (user_vaccineCount == required_vaccineCount) {\n            return VaccineStatus.FULLY_VACCINATED;\n        }\n    }\n\n    function changeStatus(address user) private {\n        VaccineStatus status = getVaccineStatusOf(user);\n        if (status == VaccineStatus.FULLY_VACCINATED) {\n            fullyVaccinated += 1;\n        }\n        if (status == VaccineStatus.PARTIALLY_VACCINATED) {\n            partiallyVaccinated += 1;\n        }\n    }\n\n    //Modifiers\n    modifier onlySuperAdmin() {\n        require(msg.sender == superAdmin, \"superAdmin\");\n        _;\n    }\n    modifier onlyOrganization() {\n        require(organizations[msg.sender].approved, \"Organization\");\n        _;\n    }\n    modifier onlyHealthPerson() {\n        require(healthPersons[msg.sender].approved, \"HealthPerson\");\n        _;\n    }\n\n    function getHealthPersonOrganization(address healthPerson)\n        public\n        view\n        returns (address)\n    {\n        return (healthPersons[healthPerson].org);\n    }\n\n    function checkAvailability(\n        string memory name,\n        uint256 batch_id,\n        address healthPerson\n    ) public view {\n        require(\n            approvedVaccines[name].approved == true,\n            \"Vaccine not approved.\"\n        );\n        checkBatch(name, batch_id);\n        require(\n            approvedOperators[name][batch_id][healthPersons[healthPerson].org] >\n                0,\n            \"Insufficient vaccine...\"\n        );\n    }\n\n    function getAvailableVaccines(\n        string memory name,\n        uint256 batch,\n        address org\n    ) public view returns (uint256) {\n        return approvedOperators[name][batch][org];\n    }\n\n    function getApprovedVaccinesLength() public view returns (uint256) {\n        return approvedVaccineNames.length;\n    }\n\n    function getVaccineApprovalStatus(string memory name)\n        public\n        view\n        returns (bool)\n    {\n        return approvedVaccines[name].approved;\n    }\n\n    function now() public view returns (uint256) {\n        return block.timestamp;\n    }\n\n    function getRole(address user) public view returns (Role) {\n        return roles[user];\n    }\n\n    function getVaccineDetails(string memory name) public view returns(VaccineDetails memory) {\n        return approvedVaccines[name];\n    }\n\n    function getUserDetails(address userAddress) public view returns (User memory) {\n        return users[userAddress];\n    }\n\n    // function getOrganizationDetails(address orgAddress) public view returns (Organization memory) {\n    //     return organizations[orgAddress];\n    // }\n\n}\n",
  "sourcePath": "/home/prajwolrg/School/Vaccination/vaccine-solidity/contracts/Vaccination.sol",
  "compiler": {
    "name": "solc",
    "version": "0.8.5+commit.a4f2e591.Emscripten.clang"
  },
  "schemaVersion": "3.4.4",
  "updatedAt": "2022-04-12T08:22:40.303Z",
  "networkType": "ethereum",
  "devdoc": {
    "kind": "dev",
    "methods": {},
    "version": 1
  },
  "userdoc": {
    "kind": "user",
    "methods": {},
    "version": 1
  }
}