{
  "contractName": "Vaccination",
  "abi": [
    {
      "inputs": [],
      "stateMutability": "nonpayable",
      "type": "constructor"
    },
    {
      "anonymous": false,
      "inputs": [
        {
          "indexed": true,
          "internalType": "string",
          "name": "vaccine_name",
          "type": "string"
        },
        {
          "indexed": true,
          "internalType": "uint256",
          "name": "batch_no",
          "type": "uint256"
        }
      ],
      "name": "AddBatch",
      "type": "event"
    },
    {
      "anonymous": false,
      "inputs": [
        {
          "indexed": true,
          "internalType": "address",
          "name": "from",
          "type": "address"
        },
        {
          "indexed": true,
          "internalType": "address",
          "name": "to",
          "type": "address"
        }
      ],
      "name": "ApproveHealthPerson",
      "type": "event"
    },
    {
      "anonymous": false,
      "inputs": [
        {
          "indexed": true,
          "internalType": "string",
          "name": "org_name",
          "type": "string"
        }
      ],
      "name": "ApproveOrganization",
      "type": "event"
    },
    {
      "anonymous": false,
      "inputs": [
        {
          "indexed": true,
          "internalType": "string",
          "name": "vaccine_name",
          "type": "string"
        }
      ],
      "name": "ApproveVaccine",
      "type": "event"
    },
    {
      "anonymous": false,
      "inputs": [
        {
          "indexed": true,
          "internalType": "address",
          "name": "_from",
          "type": "address"
        }
      ],
      "name": "RegisterHealthPerson",
      "type": "event"
    },
    {
      "anonymous": false,
      "inputs": [
        {
          "indexed": true,
          "internalType": "address",
          "name": "_from",
          "type": "address"
        }
      ],
      "name": "RegisterIndividual",
      "type": "event"
    },
    {
      "anonymous": false,
      "inputs": [
        {
          "indexed": true,
          "internalType": "string",
          "name": "org_name",
          "type": "string"
        }
      ],
      "name": "RegisterOrganization",
      "type": "event"
    },
    {
      "anonymous": false,
      "inputs": [
        {
          "indexed": true,
          "internalType": "address",
          "name": "to",
          "type": "address"
        },
        {
          "indexed": true,
          "internalType": "string",
          "name": "vaccine_name",
          "type": "string"
        },
        {
          "indexed": false,
          "internalType": "uint256",
          "name": "batch_no",
          "type": "uint256"
        }
      ],
      "name": "TransferVaccine",
      "type": "event"
    },
    {
      "inputs": [
        {
          "internalType": "string",
          "name": "",
          "type": "string"
        },
        {
          "internalType": "uint256",
          "name": "",
          "type": "uint256"
        }
      ],
      "name": "approvedBatches",
      "outputs": [
        {
          "internalType": "uint256",
          "name": "batch_id",
          "type": "uint256"
        },
        {
          "internalType": "uint256",
          "name": "defrost_date",
          "type": "uint256"
        },
        {
          "internalType": "uint256",
          "name": "manufacture_expiry",
          "type": "uint256"
        },
        {
          "internalType": "uint256",
          "name": "use_by_date",
          "type": "uint256"
        },
        {
          "internalType": "string",
          "name": "ipfs_hash",
          "type": "string"
        }
      ],
      "stateMutability": "view",
      "type": "function",
      "constant": true
    },
    {
      "inputs": [
        {
          "internalType": "string",
          "name": "",
          "type": "string"
        },
        {
          "internalType": "uint256",
          "name": "",
          "type": "uint256"
        },
        {
          "internalType": "address",
          "name": "",
          "type": "address"
        }
      ],
      "name": "approvedOperators",
      "outputs": [
        {
          "internalType": "uint256",
          "name": "",
          "type": "uint256"
        }
      ],
      "stateMutability": "view",
      "type": "function",
      "constant": true
    },
    {
      "inputs": [
        {
          "internalType": "uint256",
          "name": "",
          "type": "uint256"
        }
      ],
      "name": "approvedVaccineNames",
      "outputs": [
        {
          "internalType": "string",
          "name": "",
          "type": "string"
        }
      ],
      "stateMutability": "view",
      "type": "function",
      "constant": true
    },
    {
      "inputs": [
        {
          "internalType": "string",
          "name": "",
          "type": "string"
        }
      ],
      "name": "approvedVaccines",
      "outputs": [
        {
          "internalType": "string",
          "name": "name",
          "type": "string"
        },
        {
          "internalType": "string",
          "name": "ipfs_hash",
          "type": "string"
        },
        {
          "internalType": "bool",
          "name": "approved",
          "type": "bool"
        }
      ],
      "stateMutability": "view",
      "type": "function",
      "constant": true
    },
    {
      "inputs": [],
      "name": "fullyVaccinated",
      "outputs": [
        {
          "internalType": "uint256",
          "name": "",
          "type": "uint256"
        }
      ],
      "stateMutability": "view",
      "type": "function",
      "constant": true
    },
    {
      "inputs": [
        {
          "internalType": "address",
          "name": "",
          "type": "address"
        }
      ],
      "name": "healthPersons",
      "outputs": [
        {
          "internalType": "address",
          "name": "org",
          "type": "address"
        },
        {
          "internalType": "bool",
          "name": "approved",
          "type": "bool"
        }
      ],
      "stateMutability": "view",
      "type": "function",
      "constant": true
    },
    {
      "inputs": [
        {
          "internalType": "address",
          "name": "",
          "type": "address"
        }
      ],
      "name": "organizations",
      "outputs": [
        {
          "internalType": "string",
          "name": "name",
          "type": "string"
        },
        {
          "internalType": "string",
          "name": "location",
          "type": "string"
        },
        {
          "internalType": "string",
          "name": "ipfs_hash",
          "type": "string"
        },
        {
          "internalType": "bool",
          "name": "approved",
          "type": "bool"
        },
        {
          "internalType": "bool",
          "name": "registration",
          "type": "bool"
        },
        {
          "internalType": "uint256",
          "name": "vaccined",
          "type": "uint256"
        }
      ],
      "stateMutability": "view",
      "type": "function",
      "constant": true
    },
    {
      "inputs": [
        {
          "internalType": "uint256",
          "name": "",
          "type": "uint256"
        }
      ],
      "name": "organizationsList",
      "outputs": [
        {
          "internalType": "address",
          "name": "",
          "type": "address"
        }
      ],
      "stateMutability": "view",
      "type": "function",
      "constant": true
    },
    {
      "inputs": [],
      "name": "partiallyVaccinated",
      "outputs": [
        {
          "internalType": "uint256",
          "name": "",
          "type": "uint256"
        }
      ],
      "stateMutability": "view",
      "type": "function",
      "constant": true
    },
    {
      "inputs": [],
      "name": "superAdmin",
      "outputs": [
        {
          "internalType": "address",
          "name": "",
          "type": "address"
        }
      ],
      "stateMutability": "view",
      "type": "function",
      "constant": true
    },
    {
      "inputs": [
        {
          "internalType": "address",
          "name": "",
          "type": "address"
        }
      ],
      "name": "users",
      "outputs": [
        {
          "internalType": "uint256",
          "name": "year_of_birth",
          "type": "uint256"
        },
        {
          "internalType": "enum Vaccination.Gender",
          "name": "gender",
          "type": "uint8"
        },
        {
          "internalType": "string",
          "name": "namehash",
          "type": "string"
        },
        {
          "internalType": "string",
          "name": "imagehash",
          "type": "string"
        },
        {
          "internalType": "string",
          "name": "vaccine_name",
          "type": "string"
        },
        {
          "internalType": "uint256",
          "name": "vaccine_count",
          "type": "uint256"
        },
        {
          "internalType": "bool",
          "name": "registered",
          "type": "bool"
        }
      ],
      "stateMutability": "view",
      "type": "function",
      "constant": true
    },
    {
      "inputs": [
        {
          "internalType": "string",
          "name": "name",
          "type": "string"
        },
        {
          "internalType": "uint256[]",
          "name": "schedule",
          "type": "uint256[]"
        }
      ],
      "name": "approveVaccine",
      "outputs": [],
      "stateMutability": "nonpayable",
      "type": "function"
    },
    {
      "inputs": [
        {
          "internalType": "string",
          "name": "name",
          "type": "string"
        },
        {
          "internalType": "uint256",
          "name": "batch_id",
          "type": "uint256"
        },
        {
          "internalType": "uint256",
          "name": "defrost_date",
          "type": "uint256"
        },
        {
          "internalType": "uint256",
          "name": "manufacture_expiry",
          "type": "uint256"
        },
        {
          "internalType": "uint256",
          "name": "use_by_date",
          "type": "uint256"
        },
        {
          "internalType": "uint256",
          "name": "units",
          "type": "uint256"
        }
      ],
      "name": "addBatch",
      "outputs": [],
      "stateMutability": "nonpayable",
      "type": "function"
    },
    {
      "inputs": [
        {
          "internalType": "string",
          "name": "name",
          "type": "string"
        },
        {
          "internalType": "string",
          "name": "location",
          "type": "string"
        }
      ],
      "name": "registerOrganization",
      "outputs": [],
      "stateMutability": "payable",
      "type": "function",
      "payable": true
    },
    {
      "inputs": [
        {
          "internalType": "address",
          "name": "org",
          "type": "address"
        }
      ],
      "name": "approveOrganization",
      "outputs": [],
      "stateMutability": "nonpayable",
      "type": "function"
    },
    {
      "inputs": [
        {
          "internalType": "address",
          "name": "to",
          "type": "address"
        },
        {
          "internalType": "string",
          "name": "name",
          "type": "string"
        },
        {
          "internalType": "uint256",
          "name": "batch_id",
          "type": "uint256"
        },
        {
          "internalType": "uint256",
          "name": "units",
          "type": "uint256"
        }
      ],
      "name": "transfer",
      "outputs": [],
      "stateMutability": "nonpayable",
      "type": "function"
    },
    {
      "inputs": [
        {
          "internalType": "uint256",
          "name": "year_of_birth",
          "type": "uint256"
        },
        {
          "internalType": "enum Vaccination.Gender",
          "name": "gender",
          "type": "uint8"
        },
        {
          "internalType": "string",
          "name": "namehash",
          "type": "string"
        },
        {
          "internalType": "string",
          "name": "imagehash",
          "type": "string"
        }
      ],
      "name": "registerIndividual",
      "outputs": [],
      "stateMutability": "nonpayable",
      "type": "function"
    },
    {
      "inputs": [
        {
          "internalType": "address",
          "name": "org_name",
          "type": "address"
        }
      ],
      "name": "registerHealthPerson",
      "outputs": [],
      "stateMutability": "nonpayable",
      "type": "function"
    },
    {
      "inputs": [
        {
          "internalType": "address",
          "name": "person",
          "type": "address"
        }
      ],
      "name": "approveHealthPerson",
      "outputs": [],
      "stateMutability": "nonpayable",
      "type": "function"
    },
    {
      "inputs": [
        {
          "internalType": "address",
          "name": "to",
          "type": "address"
        },
        {
          "internalType": "string",
          "name": "name",
          "type": "string"
        },
        {
          "internalType": "uint256",
          "name": "batch_id",
          "type": "uint256"
        }
      ],
      "name": "vaccinate",
      "outputs": [],
      "stateMutability": "nonpayable",
      "type": "function"
    },
    {
      "inputs": [
        {
          "internalType": "string",
          "name": "name",
          "type": "string"
        },
        {
          "internalType": "uint256",
          "name": "batch_id",
          "type": "uint256"
        }
      ],
      "name": "checkBatch",
      "outputs": [],
      "stateMutability": "view",
      "type": "function",
      "constant": true
    },
    {
      "inputs": [
        {
          "internalType": "address",
          "name": "org",
          "type": "address"
        }
      ],
      "name": "checkOrganization",
      "outputs": [],
      "stateMutability": "view",
      "type": "function",
      "constant": true
    },
    {
      "inputs": [
        {
          "internalType": "string",
          "name": "name",
          "type": "string"
        }
      ],
      "name": "checkVaccine",
      "outputs": [],
      "stateMutability": "view",
      "type": "function",
      "constant": true
    },
    {
      "inputs": [
        {
          "internalType": "address",
          "name": "user",
          "type": "address"
        }
      ],
      "name": "getUserVaccineCount",
      "outputs": [
        {
          "internalType": "uint256",
          "name": "",
          "type": "uint256"
        }
      ],
      "stateMutability": "view",
      "type": "function",
      "constant": true
    },
    {
      "inputs": [
        {
          "internalType": "string",
          "name": "name",
          "type": "string"
        }
      ],
      "name": "getRequiredVaccineCount",
      "outputs": [
        {
          "internalType": "uint256",
          "name": "",
          "type": "uint256"
        }
      ],
      "stateMutability": "view",
      "type": "function",
      "constant": true
    },
    {
      "inputs": [],
      "name": "getTotalOrganization",
      "outputs": [
        {
          "internalType": "uint256",
          "name": "",
          "type": "uint256"
        }
      ],
      "stateMutability": "view",
      "type": "function",
      "constant": true
    },
    {
      "inputs": [],
      "name": "getAllOrganizations",
      "outputs": [
        {
          "internalType": "address[]",
          "name": "",
          "type": "address[]"
        }
      ],
      "stateMutability": "view",
      "type": "function",
      "constant": true
    },
    {
      "inputs": [
        {
          "internalType": "address",
          "name": "org",
          "type": "address"
        }
      ],
      "name": "getAllHealthPersons",
      "outputs": [
        {
          "internalType": "address[]",
          "name": "",
          "type": "address[]"
        }
      ],
      "stateMutability": "view",
      "type": "function",
      "constant": true
    },
    {
      "inputs": [
        {
          "internalType": "address",
          "name": "user",
          "type": "address"
        }
      ],
      "name": "getVaccineStatusOf",
      "outputs": [
        {
          "internalType": "enum Vaccination.VaccineStatus",
          "name": "status",
          "type": "uint8"
        }
      ],
      "stateMutability": "view",
      "type": "function",
      "constant": true
    },
    {
      "inputs": [
        {
          "internalType": "address",
          "name": "healthPerson",
          "type": "address"
        }
      ],
      "name": "getHealthPersonOrganization",
      "outputs": [
        {
          "internalType": "address",
          "name": "",
          "type": "address"
        }
      ],
      "stateMutability": "view",
      "type": "function",
      "constant": true
    },
    {
      "inputs": [
        {
          "internalType": "string",
          "name": "name",
          "type": "string"
        },
        {
          "internalType": "uint256",
          "name": "batch_id",
          "type": "uint256"
        },
        {
          "internalType": "address",
          "name": "healthPerson",
          "type": "address"
        }
      ],
      "name": "checkAvailability",
      "outputs": [],
      "stateMutability": "view",
      "type": "function",
      "constant": true
    },
    {
      "inputs": [
        {
          "internalType": "string",
          "name": "name",
          "type": "string"
        },
        {
          "internalType": "uint256",
          "name": "batch",
          "type": "uint256"
        },
        {
          "internalType": "address",
          "name": "org",
          "type": "address"
        }
      ],
      "name": "getAvailableVaccines",
      "outputs": [
        {
          "internalType": "uint256",
          "name": "",
          "type": "uint256"
        }
      ],
      "stateMutability": "view",
      "type": "function",
      "constant": true
    },
    {
      "inputs": [],
      "name": "getApprovedVaccinesLength",
      "outputs": [
        {
          "internalType": "uint256",
          "name": "",
          "type": "uint256"
        }
      ],
      "stateMutability": "view",
      "type": "function",
      "constant": true
    },
    {
      "inputs": [
        {
          "internalType": "string",
          "name": "name",
          "type": "string"
        }
      ],
      "name": "getVaccineApprovalStatus",
      "outputs": [
        {
          "internalType": "bool",
          "name": "",
          "type": "bool"
        }
      ],
      "stateMutability": "view",
      "type": "function",
      "constant": true
    },
    {
      "inputs": [],
      "name": "now",
      "outputs": [
        {
          "internalType": "uint256",
          "name": "",
          "type": "uint256"
        }
      ],
      "stateMutability": "view",
      "type": "function",
      "constant": true
    }
  ],
  "bytecode": "0x608060405234801561001057600080fd5b5033600760006101000a81548173ffffffffffffffffffffffffffffffffffffffff021916908373ffffffffffffffffffffffffffffffffffffffff160217905550614e31806100616000396000f3fe6080604052600436106102045760003560e01c806369ed503f11610118578063b168f0f0116100a0578063e09eaca51161006f578063e09eaca514610802578063ea1fc7471461083f578063ecfab03414610868578063fc1ba16014610891578063ff6aa4ea146108ba57610204565b8063b168f0f014610736578063b79eee1d14610773578063cd5f31bb1461079c578063cd96c2f8146107c557610204565b806391db02f8116100e757806391db02f8146106255780639cc5276114610662578063a62a3d291461068b578063a87430ba146106b6578063ab512808146106f957610204565b806369ed503f146105695780636b847d55146105925780637217fcfd146105cf5780638abe09f2146105fa57610204565b806329575f6a1161019b5780634cd89fc41161016a5780634cd89fc4146104585780634d8335d0146104955780635a1f7406146104c05780635fa932e814610502578063669ade7e1461052b57610204565b806329575f6a1461039c5780632eb1ca66146103c75780633c419f53146103f25780633e1609ca1461042f57610204565b80631ee584ac116101d75780631ee584ac146102d957806322fce92114610316578063247a50d81461035757806325de97ef1461037357610204565b806307c2f08514610209578063086ed9381461024657806314fa0c8b146102715780631bb9488d1461029a575b600080fd5b34801561021557600080fd5b50610230600480360381019061022b91906138f6565b6108e3565b60405161023d919061443f565b60405180910390f35b34801561025257600080fd5b5061025b61092b565b604051610268919061402a565b60405180910390f35b34801561027d57600080fd5b5061029860048036038101906102939190613965565b6109b9565b005b3480156102a657600080fd5b506102c160048036038101906102bc9190613761565b610de7565b6040516102d0939291906140a4565b60405180910390f35b3480156102e557600080fd5b5061030060048036038101906102fb9190613a0e565b610f44565b60405161030d9190613fe6565b60405180910390f35b34801561032257600080fd5b5061033d6004803603810190610338919061389a565b610f83565b60405161034e9594939291906144de565b60405180910390f35b610371600480360381019061036c9190613822565b611064565b005b34801561037f57600080fd5b5061039a60048036038101906103959190613642565b61125a565b005b3480156103a857600080fd5b506103b1611417565b6040516103be9190613fe6565b60405180910390f35b3480156103d357600080fd5b506103dc61143d565b6040516103e9919061443f565b60405180910390f35b3480156103fe57600080fd5b5061041960048036038101906104149190613a0e565b611443565b6040516104269190614082565b60405180910390f35b34801561043b57600080fd5b5061045660048036038101906104519190613761565b6114ef565b005b34801561046457600080fd5b5061047f600480360381019061047a9190613642565b611560565b60405161048c9190613fe6565b60405180910390f35b3480156104a157600080fd5b506104aa6115cc565b6040516104b7919061443f565b60405180910390f35b3480156104cc57600080fd5b506104e760048036038101906104e29190613642565b6115d9565b6040516104f9969594939291906140e9565b60405180910390f35b34801561050e57600080fd5b5061052960048036038101906105249190613a3b565b6117c7565b005b34801561053757600080fd5b50610552600480360381019061054d9190613642565b611a60565b604051610560929190614001565b60405180910390f35b34801561057557600080fd5b50610590600480360381019061058b919061366f565b611ab1565b005b34801561059e57600080fd5b506105b960048036038101906105b49190613642565b611dd5565b6040516105c6919061443f565b60405180910390f35b3480156105db57600080fd5b506105e4611e26565b6040516105f1919061443f565b60405180910390f35b34801561060657600080fd5b5061060f611e33565b60405161061c919061443f565b60405180910390f35b34801561063157600080fd5b5061064c60048036038101906106479190613642565b611e3b565b6040516106599190614067565b60405180910390f35b34801561066e57600080fd5b5061068960048036038101906106849190613642565b611f2e565b005b34801561069757600080fd5b506106a061213b565b6040516106ad919061443f565b60405180910390f35b3480156106c257600080fd5b506106dd60048036038101906106d89190613642565b612141565b6040516106f0979695949392919061445a565b60405180910390f35b34801561070557600080fd5b50610720600480360381019061071b9190613761565b612335565b60405161072d919061404c565b60405180910390f35b34801561074257600080fd5b5061075d60048036038101906107589190613642565b61236c565b60405161076a919061402a565b60405180910390f35b34801561077f57600080fd5b5061079a60048036038101906107959190613642565b61243c565b005b3480156107a857600080fd5b506107c360048036038101906107be91906138f6565b61263c565b005b3480156107d157600080fd5b506107ec60048036038101906107e79190613761565b6127d1565b6040516107f9919061443f565b60405180910390f35b34801561080e57600080fd5b50610829600480360381019061082491906138f6565b6127fe565b604051610836919061443f565b60405180910390f35b34801561084b57600080fd5b506108666004803603810190610861919061389a565b612876565b005b34801561087457600080fd5b5061088f600480360381019061088a9190613642565b612a4b565b005b34801561089d57600080fd5b506108b860048036038101906108b391906137aa565b612b6c565b005b3480156108c657600080fd5b506108e160048036038101906108dc91906136de565b612d24565b005b60028380516020810182018051848252602083016020850120818352809550505050505060205281600052604060002060205280600052604060002060009250925050505481565b606060088054806020026020016040519081016040528092919081815260200182805480156109af57602002820191906000526020600020905b8160009054906101000a900473ffffffffffffffffffffffffffffffffffffffff1673ffffffffffffffffffffffffffffffffffffffff1681526020019060010190808311610965575b5050505050905090565b600760009054906101000a900473ffffffffffffffffffffffffffffffffffffffff1673ffffffffffffffffffffffffffffffffffffffff163373ffffffffffffffffffffffffffffffffffffffff1614610a49576040517f08c379a0000000000000000000000000000000000000000000000000000000008152600401610a409061441f565b60405180910390fd5b60008511610a8c576040517f08c379a0000000000000000000000000000000000000000000000000000000008152600401610a839061437f565b60405180910390fd5b600086604051610a9c9190613fb8565b908152602001604051809103902060040160009054906101000a900460ff16610afa576040517f08c379a0000000000000000000000000000000000000000000000000000000008152600401610af19061425f565b60405180910390fd5b428410610b3c576040517f08c379a0000000000000000000000000000000000000000000000000000000008152600401610b33906142bf565b60405180910390fd5b428311610b7e576040517f08c379a0000000000000000000000000000000000000000000000000000000008152600401610b759061439f565b60405180910390fd5b428211610bc0576040517f08c379a0000000000000000000000000000000000000000000000000000000008152600401610bb7906143ff565b60405180910390fd5b84600187604051610bd19190613fb8565b908152602001604051809103902060008781526020019081526020016000206000018190555083600187604051610c089190613fb8565b908152602001604051809103902060008781526020019081526020016000206001018190555082600187604051610c3f9190613fb8565b908152602001604051809103902060008781526020019081526020016000206002018190555081600187604051610c769190613fb8565b9081526020016040518091039020600087815260200190815260200160002060030181905550600086604051610cac9190613fb8565b908152602001604051809103902060030185908060018154018082558091505060019003906000526020600020016000909190919091505580600287604051610cf59190613fb8565b9081526020016040518091039020600087815260200190815260200160002060003373ffffffffffffffffffffffffffffffffffffffff1673ffffffffffffffffffffffffffffffffffffffff1681526020019081526020016000208190555080600460003373ffffffffffffffffffffffffffffffffffffffff1673ffffffffffffffffffffffffffffffffffffffff168152602001908152602001600020600701819055508486604051610dab9190613fb8565b60405180910390207f2c6cf3aff6e0f7a34f79efaef2eee135f21edfaf419ebf6f1befe4e3a3efde2060405160405180910390a3505050505050565b600081805160208101820180518482526020830160208501208183528095505050505050600091509050806000018054610e209061478d565b80601f0160208091040260200160405190810160405280929190818152602001828054610e4c9061478d565b8015610e995780601f10610e6e57610100808354040283529160200191610e99565b820191906000526020600020905b815481529060010190602001808311610e7c57829003601f168201915b505050505090806001018054610eae9061478d565b80601f0160208091040260200160405190810160405280929190818152602001828054610eda9061478d565b8015610f275780601f10610efc57610100808354040283529160200191610f27565b820191906000526020600020905b815481529060010190602001808311610f0a57829003601f168201915b5050505050908060040160009054906101000a900460ff16905083565b60088181548110610f5457600080fd5b906000526020600020016000915054906101000a900473ffffffffffffffffffffffffffffffffffffffff1681565b60018280516020810182018051848252602083016020850120818352809550505050505060205280600052604060002060009150915050806000015490806001015490806002015490806003015490806004018054610fe19061478d565b80601f016020809104026020016040519081016040528092919081815260200182805461100d9061478d565b801561105a5780601f1061102f5761010080835404028352916020019161105a565b820191906000526020600020905b81548152906001019060200180831161103d57829003601f168201915b5050505050905085565b600a3410156110a8576040517f08c379a000000000000000000000000000000000000000000000000000000000815260040161109f9061421f565b60405180910390fd5b81600560003373ffffffffffffffffffffffffffffffffffffffff1673ffffffffffffffffffffffffffffffffffffffff16815260200190815260200160002060000190805190602001906110fe929190613405565b5080600560003373ffffffffffffffffffffffffffffffffffffffff1673ffffffffffffffffffffffffffffffffffffffff1681526020019081526020016000206001019080519060200190611155929190613405565b506001600560003373ffffffffffffffffffffffffffffffffffffffff1673ffffffffffffffffffffffffffffffffffffffff16815260200190815260200160002060040160016101000a81548160ff0219169083151502179055506008339080600181540180825580915050600190039060005260206000200160009091909190916101000a81548173ffffffffffffffffffffffffffffffffffffffff021916908373ffffffffffffffffffffffffffffffffffffffff160217905550816040516112229190613fb8565b60405180910390207f464970519053c3da4a6516c6af01855284748b1531560ec3b1a4dcc74823688360405160405180910390a25050565b600560003373ffffffffffffffffffffffffffffffffffffffff1673ffffffffffffffffffffffffffffffffffffffff16815260200190815260200160002060040160009054906101000a900460ff166112e9576040517f08c379a00000000000000000000000000000000000000000000000000000000081526004016112e09061431f565b60405180910390fd5b3373ffffffffffffffffffffffffffffffffffffffff16600660008373ffffffffffffffffffffffffffffffffffffffff1673ffffffffffffffffffffffffffffffffffffffff16815260200190815260200160002060000160009054906101000a900473ffffffffffffffffffffffffffffffffffffffff1673ffffffffffffffffffffffffffffffffffffffff16146113b9576040517f08c379a00000000000000000000000000000000000000000000000000000000081526004016113b09061429f565b60405180910390fd5b6001600660008373ffffffffffffffffffffffffffffffffffffffff1673ffffffffffffffffffffffffffffffffffffffff16815260200190815260200160002060000160146101000a81548160ff02191690831515021790555050565b600760009054906101000a900473ffffffffffffffffffffffffffffffffffffffff1681565b600a5481565b6003818154811061145357600080fd5b90600052602060002001600091509050805461146e9061478d565b80601f016020809104026020016040519081016040528092919081815260200182805461149a9061478d565b80156114e75780601f106114bc576101008083540402835291602001916114e7565b820191906000526020600020905b8154815290600101906020018083116114ca57829003601f168201915b505050505081565b6000816040516114ff9190613fb8565b908152602001604051809103902060040160009054906101000a900460ff1661155d576040517f08c379a0000000000000000000000000000000000000000000000000000000008152600401611554906142ff565b60405180910390fd5b50565b6000600660008373ffffffffffffffffffffffffffffffffffffffff1673ffffffffffffffffffffffffffffffffffffffff16815260200190815260200160002060000160009054906101000a900473ffffffffffffffffffffffffffffffffffffffff169050919050565b6000600380549050905090565b60056020528060005260406000206000915090508060000180546115fc9061478d565b80601f01602080910402602001604051908101604052809291908181526020018280546116289061478d565b80156116755780601f1061164a57610100808354040283529160200191611675565b820191906000526020600020905b81548152906001019060200180831161165857829003601f168201915b50505050509080600101805461168a9061478d565b80601f01602080910402602001604051908101604052809291908181526020018280546116b69061478d565b80156117035780601f106116d857610100808354040283529160200191611703565b820191906000526020600020905b8154815290600101906020018083116116e657829003601f168201915b5050505050908060020180546117189061478d565b80601f01602080910402602001604051908101604052809291908181526020018280546117449061478d565b80156117915780601f1061176657610100808354040283529160200191611791565b820191906000526020600020905b81548152906001019060200180831161177457829003601f168201915b5050505050908060040160009054906101000a900460ff16908060040160019054906101000a900460ff16908060050154905086565b60001515600460003373ffffffffffffffffffffffffffffffffffffffff1673ffffffffffffffffffffffffffffffffffffffff16815260200190815260200160002060080160009054906101000a900460ff1615151461185d576040517f08c379a00000000000000000000000000000000000000000000000000000000081526004016118549061419f565b60405180910390fd5b83600460003373ffffffffffffffffffffffffffffffffffffffff1673ffffffffffffffffffffffffffffffffffffffff1681526020019081526020016000206000018190555082600460003373ffffffffffffffffffffffffffffffffffffffff1673ffffffffffffffffffffffffffffffffffffffff16815260200190815260200160002060010160006101000a81548160ff0219169083600281111561190957611908614868565b5b021790555081600460003373ffffffffffffffffffffffffffffffffffffffff1673ffffffffffffffffffffffffffffffffffffffff1681526020019081526020016000206002019080519060200190611964929190613405565b5080600460003373ffffffffffffffffffffffffffffffffffffffff1673ffffffffffffffffffffffffffffffffffffffff16815260200190815260200160002060030190805190602001906119bb929190613405565b506001600460003373ffffffffffffffffffffffffffffffffffffffff1673ffffffffffffffffffffffffffffffffffffffff16815260200190815260200160002060080160006101000a81548160ff0219169083151502179055503373ffffffffffffffffffffffffffffffffffffffff167fec2103278c3c80a6d7b51d03d161f98073de470c933d17309f7e46ebccd8c1ea60405160405180910390a250505050565b60066020528060005260406000206000915090508060000160009054906101000a900473ffffffffffffffffffffffffffffffffffffffff16908060000160149054906101000a900460ff16905082565b600660003373ffffffffffffffffffffffffffffffffffffffff1673ffffffffffffffffffffffffffffffffffffffff16815260200190815260200160002060000160149054906101000a900460ff16611b40576040517f08c379a0000000000000000000000000000000000000000000000000000000008152600401611b379061435f565b60405180910390fd5b611b4983612fef565b611b5482823361263c565b611b5e8383613088565b81600460008573ffffffffffffffffffffffffffffffffffffffff1673ffffffffffffffffffffffffffffffffffffffff1681526020019081526020016000206004019080519060200190611bb4929190613405565b50600460008473ffffffffffffffffffffffffffffffffffffffff1673ffffffffffffffffffffffffffffffffffffffff168152602001908152602001600020600501819080600181540180825580915050600190039060005260206000200160009091909190915055600460008473ffffffffffffffffffffffffffffffffffffffff1673ffffffffffffffffffffffffffffffffffffffff1681526020019081526020016000206006014290806001815401808255809150506001900390600052602060002001600090919091909150556001600460008573ffffffffffffffffffffffffffffffffffffffff1673ffffffffffffffffffffffffffffffffffffffff1681526020019081526020016000206007016000828254611cda919061462f565b925050819055506001600283604051611cf39190613fb8565b908152602001604051809103902060008381526020019081526020016000206000600660003373ffffffffffffffffffffffffffffffffffffffff1673ffffffffffffffffffffffffffffffffffffffff16815260200190815260200160002060000160009054906101000a900473ffffffffffffffffffffffffffffffffffffffff1673ffffffffffffffffffffffffffffffffffffffff1673ffffffffffffffffffffffffffffffffffffffff1681526020019081526020016000206000828254611dc09190614685565b92505081905550611dd083613365565b505050565b600080600460008473ffffffffffffffffffffffffffffffffffffffff1673ffffffffffffffffffffffffffffffffffffffff16815260200190815260200160002060070154905080915050919050565b6000600880549050905090565b600042905090565b600080600460008473ffffffffffffffffffffffffffffffffffffffff1673ffffffffffffffffffffffffffffffffffffffff168152602001908152602001600020600701549050600080600460008673ffffffffffffffffffffffffffffffffffffffff1673ffffffffffffffffffffffffffffffffffffffff168152602001908152602001600020600401604051611ed59190613fcf565b90815260200160405180910390206002018054905090506000821415611f0057600092505050611f29565b80821015611f1357600192505050611f29565b80821415611f2657600292505050611f29565b50505b919050565b600760009054906101000a900473ffffffffffffffffffffffffffffffffffffffff1673ffffffffffffffffffffffffffffffffffffffff163373ffffffffffffffffffffffffffffffffffffffff1614611fbe576040517f08c379a0000000000000000000000000000000000000000000000000000000008152600401611fb59061441f565b60405180910390fd5b600560008273ffffffffffffffffffffffffffffffffffffffff1673ffffffffffffffffffffffffffffffffffffffff16815260200190815260200160002060040160019054906101000a900460ff1661204d576040517f08c379a00000000000000000000000000000000000000000000000000000000081526004016120449061423f565b60405180910390fd5b600560008273ffffffffffffffffffffffffffffffffffffffff1673ffffffffffffffffffffffffffffffffffffffff16815260200190815260200160002060040160009054906101000a900460ff16156120dd576040517f08c379a00000000000000000000000000000000000000000000000000000000081526004016120d4906141ff565b60405180910390fd5b6001600560008373ffffffffffffffffffffffffffffffffffffffff1673ffffffffffffffffffffffffffffffffffffffff16815260200190815260200160002060040160006101000a81548160ff02191690831515021790555050565b60095481565b60046020528060005260406000206000915090508060000154908060010160009054906101000a900460ff169080600201805461217d9061478d565b80601f01602080910402602001604051908101604052809291908181526020018280546121a99061478d565b80156121f65780601f106121cb576101008083540402835291602001916121f6565b820191906000526020600020905b8154815290600101906020018083116121d957829003601f168201915b50505050509080600301805461220b9061478d565b80601f01602080910402602001604051908101604052809291908181526020018280546122379061478d565b80156122845780601f1061225957610100808354040283529160200191612284565b820191906000526020600020905b81548152906001019060200180831161226757829003601f168201915b5050505050908060040180546122999061478d565b80601f01602080910402602001604051908101604052809291908181526020018280546122c59061478d565b80156123125780601f106122e757610100808354040283529160200191612312565b820191906000526020600020905b8154815290600101906020018083116122f557829003601f168201915b5050505050908060070154908060080160009054906101000a900460ff16905087565b600080826040516123469190613fb8565b908152602001604051809103902060040160009054906101000a900460ff169050919050565b6060600560008373ffffffffffffffffffffffffffffffffffffffff1673ffffffffffffffffffffffffffffffffffffffff16815260200190815260200160002060030180548060200260200160405190810160405280929190818152602001828054801561243057602002820191906000526020600020905b8160009054906101000a900473ffffffffffffffffffffffffffffffffffffffff1673ffffffffffffffffffffffffffffffffffffffff16815260200190600101908083116123e6575b50505050509050919050565b60011515600560008373ffffffffffffffffffffffffffffffffffffffff1673ffffffffffffffffffffffffffffffffffffffff16815260200190815260200160002060040160019054906101000a900460ff161515146124d2576040517f08c379a00000000000000000000000000000000000000000000000000000000081526004016124c9906143df565b60405180910390fd5b80600660003373ffffffffffffffffffffffffffffffffffffffff1673ffffffffffffffffffffffffffffffffffffffff16815260200190815260200160002060000160006101000a81548173ffffffffffffffffffffffffffffffffffffffff021916908373ffffffffffffffffffffffffffffffffffffffff160217905550600560003373ffffffffffffffffffffffffffffffffffffffff1673ffffffffffffffffffffffffffffffffffffffff168152602001908152602001600020600301339080600181540180825580915050600190039060005260206000200160009091909190916101000a81548173ffffffffffffffffffffffffffffffffffffffff021916908373ffffffffffffffffffffffffffffffffffffffff1602179055503373ffffffffffffffffffffffffffffffffffffffff167f31b7f29ec746feed773791fa52f36defffd8963bfb325107fe6d52f8587c497960405160405180910390a250565b600115156000846040516126509190613fb8565b908152602001604051809103902060040160009054906101000a900460ff161515146126b1576040517f08c379a00000000000000000000000000000000000000000000000000000000081526004016126a8906141df565b60405180910390fd5b6126bb8383612876565b60006002846040516126cd9190613fb8565b908152602001604051809103902060008481526020019081526020016000206000600660008573ffffffffffffffffffffffffffffffffffffffff1673ffffffffffffffffffffffffffffffffffffffff16815260200190815260200160002060000160009054906101000a900473ffffffffffffffffffffffffffffffffffffffff1673ffffffffffffffffffffffffffffffffffffffff1673ffffffffffffffffffffffffffffffffffffffff16815260200190815260200160002054116127cc576040517f08c379a00000000000000000000000000000000000000000000000000000000081526004016127c3906141bf565b60405180910390fd5b505050565b600080826040516127e29190613fb8565b9081526020016040518091039020600201805490509050919050565b60006002846040516128109190613fb8565b9081526020016040518091039020600084815260200190815260200160002060008373ffffffffffffffffffffffffffffffffffffffff1673ffffffffffffffffffffffffffffffffffffffff1681526020019081526020016000205490509392505050565b60006001836040516128889190613fb8565b9081526020016040518091039020600083815260200190815260200160002060000154116128eb576040517f08c379a00000000000000000000000000000000000000000000000000000000081526004016128e29061437f565b60405180910390fd5b426001836040516128fc9190613fb8565b90815260200160405180910390206000838152602001908152602001600020600101541061295f576040517f08c379a0000000000000000000000000000000000000000000000000000000008152600401612956906142bf565b60405180910390fd5b426001836040516129709190613fb8565b9081526020016040518091039020600083815260200190815260200160002060020154116129d3576040517f08c379a00000000000000000000000000000000000000000000000000000000081526004016129ca9061439f565b60405180910390fd5b426001836040516129e49190613fb8565b908152602001604051809103902060008381526020019081526020016000206003015411612a47576040517f08c379a0000000000000000000000000000000000000000000000000000000008152600401612a3e906143ff565b60405180910390fd5b5050565b600560008273ffffffffffffffffffffffffffffffffffffffff1673ffffffffffffffffffffffffffffffffffffffff16815260200190815260200160002060040160019054906101000a900460ff16612ada576040517f08c379a0000000000000000000000000000000000000000000000000000000008152600401612ad19061415f565b60405180910390fd5b600560008273ffffffffffffffffffffffffffffffffffffffff1673ffffffffffffffffffffffffffffffffffffffff16815260200190815260200160002060040160009054906101000a900460ff16612b69576040517f08c379a0000000000000000000000000000000000000000000000000000000008152600401612b609061417f565b60405180910390fd5b50565b600760009054906101000a900473ffffffffffffffffffffffffffffffffffffffff1673ffffffffffffffffffffffffffffffffffffffff163373ffffffffffffffffffffffffffffffffffffffff1614612bfc576040517f08c379a0000000000000000000000000000000000000000000000000000000008152600401612bf39061441f565b60405180910390fd5b81600083604051612c0d9190613fb8565b90815260200160405180910390206000019080519060200190612c31929190613405565b5080600083604051612c439190613fb8565b90815260200160405180910390206002019080519060200190612c6792919061348b565b50600382908060018154018082558091505060019003906000526020600020016000909190919091509080519060200190612ca3929190613405565b506001600083604051612cb69190613fb8565b908152602001604051809103902060040160006101000a81548160ff02191690831515021790555081604051612cec9190613fb8565b60405180910390207f9db18d96585d3ea407a3cd4bc1ecedb2bbc4188986b624b0e85d74caecce964b60405160405180910390a25050565b600760009054906101000a900473ffffffffffffffffffffffffffffffffffffffff1673ffffffffffffffffffffffffffffffffffffffff163373ffffffffffffffffffffffffffffffffffffffff1614612db4576040517f08c379a0000000000000000000000000000000000000000000000000000000008152600401612dab9061441f565b60405180910390fd5b612dbd84612a4b565b612dc6836114ef565b612dd08383612876565b80600284604051612de19190613fb8565b9081526020016040518091039020600084815260200190815260200160002060003373ffffffffffffffffffffffffffffffffffffffff1673ffffffffffffffffffffffffffffffffffffffff168152602001908152602001600020541015612e7f576040517f08c379a0000000000000000000000000000000000000000000000000000000008152600401612e76906142df565b60405180910390fd5b80600284604051612e909190613fb8565b9081526020016040518091039020600084815260200190815260200160002060003373ffffffffffffffffffffffffffffffffffffffff1673ffffffffffffffffffffffffffffffffffffffff1681526020019081526020016000206000828254612efb9190614685565b9250508190555080600284604051612f139190613fb8565b9081526020016040518091039020600084815260200190815260200160002060008673ffffffffffffffffffffffffffffffffffffffff1673ffffffffffffffffffffffffffffffffffffffff1681526020019081526020016000206000828254612f7e919061462f565b9250508190555082604051612f939190613fb8565b60405180910390208473ffffffffffffffffffffffffffffffffffffffff167f4e2ff4923c3e767530d0bd26e60dd9043c7f4461e83947851dde360e0a106b7584604051612fe1919061443f565b60405180910390a350505050565b60011515600460008373ffffffffffffffffffffffffffffffffffffffff1673ffffffffffffffffffffffffffffffffffffffff16815260200190815260200160002060080160009054906101000a900460ff16151514613085576040517f08c379a000000000000000000000000000000000000000000000000000000000815260040161307c9061433f565b60405180910390fd5b50565b6001151560008260405161309c9190613fb8565b908152602001604051809103902060040160009054906101000a900460ff161515146130fd576040517f08c379a00000000000000000000000000000000000000000000000000000000081526004016130f49061425f565b60405180910390fd5b6000600460008473ffffffffffffffffffffffffffffffffffffffff1673ffffffffffffffffffffffffffffffffffffffff168152602001908152602001600020600401805461314c9061478d565b80601f01602080910402602001604051908101604052809291908181526020018280546131789061478d565b80156131c55780601f1061319a576101008083540402835291602001916131c5565b820191906000526020600020905b8154815290600101906020018083116131a857829003601f168201915b50505050509050600082905060008251111561330057805182511461321f576040517f08c379a00000000000000000000000000000000000000000000000000000000081526004016132169061427f565b60405180910390fd5b60005b82518110156132fe5781818151811061323e5761323d6148c6565b5b602001015160f81c60f81b7effffffffffffffffffffffffffffffffffffffffffffffffffffffffffffff191683828151811061327e5761327d6148c6565b5b602001015160f81c60f81b7effffffffffffffffffffffffffffffffffffffffffffffffffffffffffffff1916146132eb576040517f08c379a00000000000000000000000000000000000000000000000000000000081526004016132e29061427f565b60405180910390fd5b80806132f6906147f0565b915050613222565b505b600061330b85611dd5565b90506000613318856127d1565b90508082141561335d576040517f08c379a0000000000000000000000000000000000000000000000000000000008152600401613354906143bf565b60405180910390fd5b505050505050565b600061337082611e3b565b905060028081111561338557613384614868565b5b81600281111561339857613397614868565b5b14156133b9576001600a60008282546133b1919061462f565b925050819055505b600160028111156133cd576133cc614868565b5b8160028111156133e0576133df614868565b5b1415613401576001600960008282546133f9919061462f565b925050819055505b5050565b8280546134119061478d565b90600052602060002090601f016020900481019282613433576000855561347a565b82601f1061344c57805160ff191683800117855561347a565b8280016001018555821561347a579182015b8281111561347957825182559160200191906001019061345e565b5b50905061348791906134d8565b5090565b8280548282559060005260206000209081019282156134c7579160200282015b828111156134c65782518255916020019190600101906134ab565b5b5090506134d491906134d8565b5090565b5b808211156134f15760008160009055506001016134d9565b5090565b60006135086135038461455d565b614538565b9050808382526020820190508285602086028201111561352b5761352a614929565b5b60005b8581101561355b5781613541888261362d565b84526020840193506020830192505060018101905061352e565b5050509392505050565b600061357861357384614589565b614538565b9050828152602081018484840111156135945761359361492e565b5b61359f84828561474b565b509392505050565b6000813590506135b681614dbd565b92915050565b600082601f8301126135d1576135d0614924565b5b81356135e18482602086016134f5565b91505092915050565b6000813590506135f981614dd4565b92915050565b600082601f83011261361457613613614924565b5b8135613624848260208601613565565b91505092915050565b60008135905061363c81614de4565b92915050565b60006020828403121561365857613657614938565b5b6000613666848285016135a7565b91505092915050565b60008060006060848603121561368857613687614938565b5b6000613696868287016135a7565b935050602084013567ffffffffffffffff8111156136b7576136b6614933565b5b6136c3868287016135ff565b92505060406136d48682870161362d565b9150509250925092565b600080600080608085870312156136f8576136f7614938565b5b6000613706878288016135a7565b945050602085013567ffffffffffffffff81111561372757613726614933565b5b613733878288016135ff565b93505060406137448782880161362d565b92505060606137558782880161362d565b91505092959194509250565b60006020828403121561377757613776614938565b5b600082013567ffffffffffffffff81111561379557613794614933565b5b6137a1848285016135ff565b91505092915050565b600080604083850312156137c1576137c0614938565b5b600083013567ffffffffffffffff8111156137df576137de614933565b5b6137eb858286016135ff565b925050602083013567ffffffffffffffff81111561380c5761380b614933565b5b613818858286016135bc565b9150509250929050565b6000806040838503121561383957613838614938565b5b600083013567ffffffffffffffff81111561385757613856614933565b5b613863858286016135ff565b925050602083013567ffffffffffffffff81111561388457613883614933565b5b613890858286016135ff565b9150509250929050565b600080604083850312156138b1576138b0614938565b5b600083013567ffffffffffffffff8111156138cf576138ce614933565b5b6138db858286016135ff565b92505060206138ec8582860161362d565b9150509250929050565b60008060006060848603121561390f5761390e614938565b5b600084013567ffffffffffffffff81111561392d5761392c614933565b5b613939868287016135ff565b935050602061394a8682870161362d565b925050604061395b868287016135a7565b9150509250925092565b60008060008060008060c0878903121561398257613981614938565b5b600087013567ffffffffffffffff8111156139a05761399f614933565b5b6139ac89828a016135ff565b96505060206139bd89828a0161362d565b95505060406139ce89828a0161362d565b94505060606139df89828a0161362d565b93505060806139f089828a0161362d565b92505060a0613a0189828a0161362d565b9150509295509295509295565b600060208284031215613a2457613a23614938565b5b6000613a328482850161362d565b91505092915050565b60008060008060808587031215613a5557613a54614938565b5b6000613a638782880161362d565b9450506020613a74878288016135ea565b935050604085013567ffffffffffffffff811115613a9557613a94614933565b5b613aa1878288016135ff565b925050606085013567ffffffffffffffff811115613ac257613ac1614933565b5b613ace878288016135ff565b91505092959194509250565b6000613ae68383613af2565b60208301905092915050565b613afb816146b9565b82525050565b613b0a816146b9565b82525050565b6000613b1b826145df565b613b258185614602565b9350613b30836145ba565b8060005b83811015613b61578151613b488882613ada565b9750613b53836145f5565b925050600181019050613b34565b5085935050505092915050565b613b77816146cb565b82525050565b613b8681614727565b82525050565b613b9581614739565b82525050565b6000613ba6826145ea565b613bb08185614613565b9350613bc081856020860161475a565b613bc98161493d565b840191505092915050565b6000613bdf826145ea565b613be98185614624565b9350613bf981856020860161475a565b80840191505092915050565b60008154613c128161478d565b613c1c8186614624565b94506001821660008114613c375760018114613c4857613c7b565b60ff19831686528186019350613c7b565b613c51856145ca565b60005b83811015613c7357815481890152600182019150602081019050613c54565b838801955050505b50505092915050565b6000613c91601583614613565b9150613c9c8261494e565b602082019050919050565b6000613cb4601d83614613565b9150613cbf82614977565b602082019050919050565b6000613cd7601383614613565b9150613ce2826149a0565b602082019050919050565b6000613cfa601783614613565b9150613d05826149c9565b602082019050919050565b6000613d1d601583614613565b9150613d28826149f2565b602082019050919050565b6000613d40602183614613565b9150613d4b82614a1b565b604082019050919050565b6000613d63601483614613565b9150613d6e82614a6a565b602082019050919050565b6000613d86602c83614613565b9150613d9182614a93565b604082019050919050565b6000613da9601883614613565b9150613db482614ae2565b602082019050919050565b6000613dcc601783614613565b9150613dd782614b0b565b602082019050919050565b6000613def602f83614613565b9150613dfa82614b34565b604082019050919050565b6000613e12601c83614613565b9150613e1d82614b83565b602082019050919050565b6000613e35601683614613565b9150613e4082614bac565b602082019050919050565b6000613e58601483614613565b9150613e6382614bd5565b602082019050919050565b6000613e7b600c83614613565b9150613e8682614bfe565b602082019050919050565b6000613e9e601183614613565b9150613ea982614c27565b602082019050919050565b6000613ec1600c83614613565b9150613ecc82614c50565b602082019050919050565b6000613ee4600d83614613565b9150613eef82614c79565b602082019050919050565b6000613f07600783614613565b9150613f1282614ca2565b602082019050919050565b6000613f2a601983614613565b9150613f3582614ccb565b602082019050919050565b6000613f4d602083614613565b9150613f5882614cf4565b602082019050919050565b6000613f70602283614613565b9150613f7b82614d1d565b604082019050919050565b6000613f93600a83614613565b9150613f9e82614d6c565b602082019050919050565b613fb28161471d565b82525050565b6000613fc48284613bd4565b915081905092915050565b6000613fdb8284613c05565b915081905092915050565b6000602082019050613ffb6000830184613b01565b92915050565b60006040820190506140166000830185613b01565b6140236020830184613b6e565b9392505050565b600060208201905081810360008301526140448184613b10565b905092915050565b60006020820190506140616000830184613b6e565b92915050565b600060208201905061407c6000830184613b8c565b92915050565b6000602082019050818103600083015261409c8184613b9b565b905092915050565b600060608201905081810360008301526140be8186613b9b565b905081810360208301526140d28185613b9b565b90506140e16040830184613b6e565b949350505050565b600060c08201905081810360008301526141038189613b9b565b905081810360208301526141178188613b9b565b9050818103604083015261412b8187613b9b565b905061413a6060830186613b6e565b6141476080830185613b6e565b61415460a0830184613fa9565b979650505050505050565b6000602082019050818103600083015261417881613c84565b9050919050565b6000602082019050818103600083015261419881613ca7565b9050919050565b600060208201905081810360008301526141b881613cca565b9050919050565b600060208201905081810360008301526141d881613ced565b9050919050565b600060208201905081810360008301526141f881613d10565b9050919050565b6000602082019050818103600083015261421881613d33565b9050919050565b6000602082019050818103600083015261423881613d56565b9050919050565b6000602082019050818103600083015261425881613d79565b9050919050565b6000602082019050818103600083015261427881613d9c565b9050919050565b6000602082019050818103600083015261429881613dbf565b9050919050565b600060208201905081810360008301526142b881613de2565b9050919050565b600060208201905081810360008301526142d881613e05565b9050919050565b600060208201905081810360008301526142f881613e28565b9050919050565b6000602082019050818103600083015261431881613e4b565b9050919050565b6000602082019050818103600083015261433881613e6e565b9050919050565b6000602082019050818103600083015261435881613e91565b9050919050565b6000602082019050818103600083015261437881613eb4565b9050919050565b6000602082019050818103600083015261439881613ed7565b9050919050565b600060208201905081810360008301526143b881613efa565b9050919050565b600060208201905081810360008301526143d881613f1d565b9050919050565b600060208201905081810360008301526143f881613f40565b9050919050565b6000602082019050818103600083015261441881613f63565b9050919050565b6000602082019050818103600083015261443881613f86565b9050919050565b60006020820190506144546000830184613fa9565b92915050565b600060e08201905061446f600083018a613fa9565b61447c6020830189613b7d565b818103604083015261448e8188613b9b565b905081810360608301526144a28187613b9b565b905081810360808301526144b68186613b9b565b90506144c560a0830185613fa9565b6144d260c0830184613b6e565b98975050505050505050565b600060a0820190506144f36000830188613fa9565b6145006020830187613fa9565b61450d6040830186613fa9565b61451a6060830185613fa9565b818103608083015261452c8184613b9b565b90509695505050505050565b6000614542614553565b905061454e82826147bf565b919050565b6000604051905090565b600067ffffffffffffffff821115614578576145776148f5565b5b602082029050602081019050919050565b600067ffffffffffffffff8211156145a4576145a36148f5565b5b6145ad8261493d565b9050602081019050919050565b6000819050602082019050919050565b60008190508160005260206000209050919050565b600081519050919050565b600081519050919050565b6000602082019050919050565b600082825260208201905092915050565b600082825260208201905092915050565b600081905092915050565b600061463a8261471d565b91506146458361471d565b9250827fffffffffffffffffffffffffffffffffffffffffffffffffffffffffffffffff0382111561467a57614679614839565b5b828201905092915050565b60006146908261471d565b915061469b8361471d565b9250828210156146ae576146ad614839565b5b828203905092915050565b60006146c4826146fd565b9050919050565b60008115159050919050565b60008190506146e582614d95565b919050565b60008190506146f882614da9565b919050565b600073ffffffffffffffffffffffffffffffffffffffff82169050919050565b6000819050919050565b6000614732826146d7565b9050919050565b6000614744826146ea565b9050919050565b82818337600083830152505050565b60005b8381101561477857808201518184015260208101905061475d565b83811115614787576000848401525b50505050565b600060028204905060018216806147a557607f821691505b602082108114156147b9576147b8614897565b5b50919050565b6147c88261493d565b810181811067ffffffffffffffff821117156147e7576147e66148f5565b5b80604052505050565b60006147fb8261471d565b91507fffffffffffffffffffffffffffffffffffffffffffffffffffffffffffffffff82141561482e5761482d614839565b5b600182019050919050565b7f4e487b7100000000000000000000000000000000000000000000000000000000600052601160045260246000fd5b7f4e487b7100000000000000000000000000000000000000000000000000000000600052602160045260246000fd5b7f4e487b7100000000000000000000000000000000000000000000000000000000600052602260045260246000fd5b7f4e487b7100000000000000000000000000000000000000000000000000000000600052603260045260246000fd5b7f4e487b7100000000000000000000000000000000000000000000000000000000600052604160045260246000fd5b600080fd5b600080fd5b600080fd5b600080fd5b600080fd5b6000601f19601f8301169050919050565b7f496e76616c6964206f7267616e697a6174696f6e2e0000000000000000000000600082015250565b7f4f7267616e697a6174696f6e206973206e6f7420617070726f7665642e000000600082015250565b7f416c726561647920726567697374657265642e00000000000000000000000000600082015250565b7f496e73756666696369656e742076616363696e652e2e2e000000000000000000600082015250565b7f56616363696e65206e6f7420617070726f7665642e0000000000000000000000600082015250565b7f4f7267616e697a6174696f6e20697320616c726561647920617070726f76656460008201527f2e00000000000000000000000000000000000000000000000000000000000000602082015250565b7f496e73756666696369656e7420616d6f756e742e000000000000000000000000600082015250565b7f4f7267616e697a6174696f6e206d75737420666972737420726567697374657260008201527f20746f20617070726f76652e0000000000000000000000000000000000000000602082015250565b7f56616363696e65206973206e6f7420617070726f7665642e0000000000000000600082015250565b7f56616363696e65206e6f7420636f6d70617469626c652e000000000000000000600082015250565b7f4865616c7468706572736f6e20646f206e6f742062656c6f6e6720746f20746860008201527f65206f7267616e697a6174696f6e2e0000000000000000000000000000000000602082015250565b7f4d7573742062652070726576696f75736c7920646566726f7374656400000000600082015250565b7f496e73756666696369656e742076616363696e65732e00000000000000000000600082015250565b7f56616363696e65206e6f7420617070726f766564000000000000000000000000600082015250565b7f4f7267616e697a6174696f6e0000000000000000000000000000000000000000600082015250565b7f556e726567697374657265642075736572000000000000000000000000000000600082015250565b7f4865616c7468506572736f6e0000000000000000000000000000000000000000600082015250565b7f496e76616c696420626174636800000000000000000000000000000000000000600082015250565b7f4578706972656400000000000000000000000000000000000000000000000000600082015250565b7f46756c6c792076616363696e6174656420616c72656164792e00000000000000600082015250565b7f4f7267616e697a6174696f6e206d75737420626520726567697374657265642e600082015250565b7f4d7573742062652075736564207072696f7220746f207573652062792064617460008201527f652e000000000000000000000000000000000000000000000000000000000000602082015250565b7f737570657241646d696e00000000000000000000000000000000000000000000600082015250565b60038110614da657614da5614868565b5b50565b60038110614dba57614db9614868565b5b50565b614dc6816146b9565b8114614dd157600080fd5b50565b60038110614de157600080fd5b50565b614ded8161471d565b8114614df857600080fd5b5056fea2646970667358221220d718687ad3851eda3a2d0aef5a3db49696f2936a0d01a8cc57f899d6efe513f864736f6c63430008050033",
  "immutableReferences": {},
  "source": "// SPDX-License-Identifier: MIT\npragma solidity >=0.4.22 <0.9.0;\n\nuint256 constant REGISTRATION_COST = 10;\n\ncontract Vaccination {\n    enum VaccineStatus {\n        UNVACCINATED,\n        PARTIALLY_VACCINATED,\n        FULLY_VACCINATED\n    }\n\n    enum Gender {\n        MALE,\n        FEMALE,\n        UNSPECIFIED\n    }\n\n    struct Vaccine {\n        string name;\n        uint256 batch_no;\n        uint256 vaccination_datetime;\n        // uint256 serialNo;\n    }\n\n    struct BatchDetails {\n        uint256 batch_id;\n        uint256 defrost_date;\n        uint256 manufacture_expiry;\n        uint256 use_by_date;\n        string ipfs_hash;\n    }\n\n    struct VaccineDetails {\n        string name;\n        // string platform;\n        // string route;\n        string ipfs_hash;\n        uint256[] schedule;\n        uint256[] batches;\n        bool approved;\n    }\n\n    struct User {\n        uint256 year_of_birth;\n        Gender gender;\n        string namehash;\n        string imagehash;\n        string vaccine_name;\n        uint256[] batches;\n        uint256[] datetime;\n        uint256 vaccine_count;\n        bool registered;\n    }\n\n    struct Organization {\n        string name;\n        string location;\n        string ipfs_hash;\n        address[] healthPersons;\n        bool approved;\n        bool registration;\n        uint256 vaccined;\n    }\n\n    struct HealthPerson {\n        address org;\n        bool approved;\n    }\n\n    mapping(string => VaccineDetails) public approvedVaccines;\n    mapping(string => mapping(uint256 => BatchDetails)) public approvedBatches;\n    mapping(string => mapping(uint256 => mapping(address => uint256)))\n        public approvedOperators;\n\n    string[] public approvedVaccineNames;\n\n    mapping(address => User) public users;\n    mapping(address => Organization) public organizations;\n    mapping(address => HealthPerson) public healthPersons;\n\n    address public superAdmin;\n\n    address[] public organizationsList;\n\n    // uint256 public registered;\n    uint256 public partiallyVaccinated;\n    uint256 public fullyVaccinated;\n\n    //uint256 public total_vaccines;\n    event ApproveVaccine(string indexed vaccine_name);\n    event AddBatch(string indexed vaccine_name, uint256 indexed batch_no);\n    event ApproveOrganization(string indexed org_name);\n    event TransferVaccine(address indexed to, string indexed vaccine_name, uint256 batch_no);\n\n    event RegisterOrganization(string indexed org_name);\n    event ApproveHealthPerson(address indexed from, address indexed to);\n\n    event RegisterHealthPerson(address indexed _from);\n\n    event RegisterIndividual(address indexed _from);\n\n    constructor() {\n        superAdmin = msg.sender;\n    }\n\n    function approveVaccine(string memory name, uint256[] memory schedule)\n        public\n        onlySuperAdmin\n    {\n        approvedVaccines[name].name = name;\n        approvedVaccines[name].schedule = schedule;\n        approvedVaccineNames.push(name);\n        approvedVaccines[name].approved = true;\n        emit ApproveVaccine(name);\n    }\n\n    function addBatch(\n        string memory name,\n        uint256 batch_id,\n        uint256 defrost_date,\n        uint256 manufacture_expiry,\n        uint256 use_by_date,\n        uint256 units\n    ) public onlySuperAdmin{\n        require(batch_id > 0, \"Invalid batch\");\n        require(approvedVaccines[name].approved, \"Vaccine is not approved.\");\n\n        //Check dates\n        require( defrost_date < block.timestamp, \"Must be previously defrosted\");\n        require( manufacture_expiry > block.timestamp, \"Expired\");\n        require( use_by_date > block.timestamp, \"Must be used prior to use by date.\");\n\n        approvedBatches[name][batch_id].batch_id = batch_id;\n        approvedBatches[name][batch_id].defrost_date = defrost_date;\n        approvedBatches[name][batch_id].manufacture_expiry = manufacture_expiry;\n        approvedBatches[name][batch_id].use_by_date = use_by_date;\n        approvedVaccines[name].batches.push(batch_id);\n        approvedOperators[name][batch_id][msg.sender] = units;\n        users[msg.sender].vaccine_count = units;\n        emit AddBatch(name, batch_id);\n    }\n\n    function registerOrganization(string memory name, string memory location)\n        public\n        payable\n    {\n        if (msg.value < REGISTRATION_COST) {\n            revert(\"Insufficient amount.\");\n        }\n        organizations[msg.sender].name = name;\n        organizations[msg.sender].location = location;\n        organizations[msg.sender].registration = true;\n        organizationsList.push(msg.sender);\n        emit RegisterOrganization(name);\n    }\n\n\n    function approveOrganization(address org) public onlySuperAdmin {\n        if (!organizations[org].registration) {\n            revert(\"Organization must first register to approve.\");\n        }\n        if (organizations[org].approved) {\n            revert(\"Organization is already approved.\");\n        }\n        organizations[org].approved = true;\n    }\n\n\n    function transfer(\n        address to,\n        string memory name,\n        uint256 batch_id,\n        uint256 units\n    ) public onlySuperAdmin {\n        checkOrganization(to);\n        checkVaccine(name);\n        checkBatch(name, batch_id);\n\n        if (approvedOperators[name][batch_id][msg.sender] < units) {\n            revert(\"Insufficient vaccines.\");\n        }\n        approvedOperators[name][batch_id][msg.sender] -= units;\n        approvedOperators[name][batch_id][to] += units;\n        emit TransferVaccine(to, name, batch_id);\n    }\n\n    function registerIndividual(uint256 year_of_birth, Gender gender, string memory namehash, string memory imagehash) public {\n        require(users[msg.sender].registered == false, \"Already registered.\");\n        users[msg.sender].year_of_birth = year_of_birth;\n        users[msg.sender].gender = gender;\n        users[msg.sender].namehash = namehash;\n        users[msg.sender].imagehash = imagehash;\n        users[msg.sender].registered = true;\n        emit RegisterIndividual(msg.sender);\n    }\n\n    function registerHealthPerson(address org_name) public {\n        require(organizations[org_name].registration == true, \"Organization must be registered.\");\n        healthPersons[msg.sender].org = org_name;\n        organizations[msg.sender].healthPersons.push(msg.sender);\n        emit RegisterHealthPerson(msg.sender);\n    }\n\n    function approveHealthPerson(address person) public onlyOrganization {\n        if (healthPersons[person].org != msg.sender) {\n            revert(\"Healthperson do not belong to the organization.\");\n        }\n        healthPersons[person].approved = true;\n    }\n\n\n\n    function vaccinate(\n        address to,\n        string memory name,\n        uint256 batch_id\n    ) public onlyHealthPerson {\n        checkUserRegistration(to);\n        checkAvailability(name, batch_id, msg.sender);\n        checkUserVaccineCompatibility(to, name);\n        users[to].vaccine_name = name;\n        users[to].batches.push(batch_id);\n        users[to].datetime.push(block.timestamp);\n        users[to].vaccine_count += 1;\n        approvedOperators[name][batch_id][healthPersons[msg.sender].org] -= 1;\n        changeStatus(to);\n    }\n\n    //Check Methods\n    function checkUserRegistration(address user) private view{\n        require(users[user].registered == true, \"Unregistered user\");\n    }\n\n    function checkBatch(string memory name, uint256 batch_id) public view {\n        require(approvedBatches[name][batch_id].batch_id > 0, \"Invalid batch\");\n        require(\n            approvedBatches[name][batch_id].defrost_date < block.timestamp,\n            \"Must be previously defrosted\"\n        );\n        require(\n            approvedBatches[name][batch_id].manufacture_expiry >\n                block.timestamp,\n            \"Expired\"\n        );\n        require(\n            approvedBatches[name][batch_id].use_by_date > block.timestamp,\n            \"Must be used prior to use by date.\"\n        );\n    }\n\n    function checkOrganization(address org) public view {\n        if (!organizations[org].registration) {\n            revert(\"Invalid organization.\");\n        }\n        if (!organizations[org].approved) {\n            revert(\"Organization is not approved.\");\n        }\n    }\n\n    function checkVaccine(string memory name) public view {\n        if (!approvedVaccines[name].approved) {\n            revert(\"Vaccine not approved\");\n        }\n    }\n\n    function checkUserVaccineCompatibility(address user, string memory name)\n        private\n        view\n    {\n        require (approvedVaccines[name].approved == true, \"Vaccine is not approved.\");\n        bytes memory _user_recieved_vaccine = bytes(users[user].vaccine_name);\n        bytes memory _user_recieving_vaccine = bytes(name);\n\n        if (_user_recieved_vaccine.length > 0) {\n            if (\n                _user_recieved_vaccine.length != _user_recieving_vaccine.length\n            ) {\n                revert(\"Vaccine not compatible.\");\n            }\n            for (uint256 i = 0; i < _user_recieved_vaccine.length; i++) {\n                if (_user_recieved_vaccine[i] != _user_recieving_vaccine[i]) {\n                    revert(\"Vaccine not compatible.\");\n                }\n            }\n        }\n        uint256 user_vaccineCount = getUserVaccineCount(user);\n        uint256 required_vaccineCount = getRequiredVaccineCount(name);\n\n        if (user_vaccineCount == required_vaccineCount) {\n            revert(\"Fully vaccinated already.\");\n        }\n    }\n\n\n    //Read Only Methods\n    function getUserVaccineCount(address user) public view returns (uint256) {\n        uint256 count = users[user].vaccine_count;\n        return count;\n    }\n\n    function getRequiredVaccineCount(string memory name)\n        public\n        view\n        returns (uint256)\n    {\n        return approvedVaccines[name].schedule.length;\n    }\n\n    function getTotalOrganization() public view returns (uint256) {\n        return organizationsList.length;\n    }\n\n    function getAllOrganizations() public view returns (address [] memory) {\n        return organizationsList;\n    }\n\n    function getAllHealthPersons(address org) public view returns (address [] memory) {\n        return organizations[org].healthPersons;\n    }\n\n    function getVaccineStatusOf(address user)\n        public\n        view\n        returns (VaccineStatus status)\n    {\n        uint256 user_vaccineCount = users[user].vaccine_count;\n        uint256 required_vaccineCount = approvedVaccines[\n            users[user].vaccine_name\n        ]\n        .schedule\n        .length;\n\n        if (user_vaccineCount == 0) {\n            return VaccineStatus.UNVACCINATED;\n        }\n        if (user_vaccineCount < required_vaccineCount) {\n            return VaccineStatus.PARTIALLY_VACCINATED;\n        }\n        if (user_vaccineCount == required_vaccineCount) {\n            return VaccineStatus.FULLY_VACCINATED;\n        }\n    }\n\n    function changeStatus(address user) private {\n        VaccineStatus status = getVaccineStatusOf(user);\n        if (status == VaccineStatus.FULLY_VACCINATED) {\n            fullyVaccinated += 1;\n        }\n        if (status == VaccineStatus.PARTIALLY_VACCINATED) {\n            partiallyVaccinated += 1;\n        }\n    }\n\n\n\n    //Modifiers\n    modifier onlySuperAdmin() {\n        require(msg.sender == superAdmin, \"superAdmin\");\n        _;\n    }\n    modifier onlyOrganization() {\n        require(organizations[msg.sender].approved, \"Organization\");\n        _;\n    }\n    modifier onlyHealthPerson() {\n        require(healthPersons[msg.sender].approved, \"HealthPerson\");\n        _;\n    }\n\n    function getHealthPersonOrganization(address healthPerson)\n        public\n        view\n        returns (address)\n    {\n        return (healthPersons[healthPerson].org);\n    }\n\n    function checkAvailability(\n        string memory name,\n        uint256 batch_id,\n        address healthPerson\n    ) public view {\n        require(approvedVaccines[name].approved == true, \"Vaccine not approved.\");\n        checkBatch(name, batch_id);\n        require(\n            approvedOperators[name][batch_id][healthPersons[healthPerson].org] >\n                0,\n            \"Insufficient vaccine...\"\n        );\n    }\n\n    function getAvailableVaccines(\n        string memory name,\n        uint256 batch,\n        address org\n    ) public view returns (uint256) {\n        return approvedOperators[name][batch][org];\n    }\n\n    function getApprovedVaccinesLength() public view returns (uint256) {\n        return approvedVaccineNames.length;\n    }\n\n    function getVaccineApprovalStatus(string memory name)\n        public\n        view\n        returns (bool)\n    {\n        return approvedVaccines[name].approved;\n    }\n\n    function now() public view returns (uint256) {\n        return block.timestamp;\n    }\n}\n",
  "sourcePath": "/home/prajwolrg/School/Vaccination/vaccine-solidity/contracts/Vaccination.sol",
  "compiler": {
    "name": "solc",
    "version": "0.8.5+commit.a4f2e591.Emscripten.clang"
  },
  "schemaVersion": "3.4.1",
  "updatedAt": "2022-02-06T10:18:56.347Z",
  "networkType": "ethereum",
  "devdoc": {
    "kind": "dev",
    "methods": {},
    "version": 1
  },
  "userdoc": {
    "kind": "user",
    "methods": {},
    "version": 1
  }
}