{
  "contractName": "Vaccine",
  "abi": [
    {
      "inputs": [
        {
          "internalType": "string",
          "name": "_name",
          "type": "string"
        },
        {
          "internalType": "uint256[]",
          "name": "_schedule",
          "type": "uint256[]"
        },
        {
          "internalType": "string",
          "name": "_platform",
          "type": "string"
        },
        {
          "internalType": "string",
          "name": "_route",
          "type": "string"
        },
        {
          "internalType": "string",
          "name": "_ipfs_hash",
          "type": "string"
        }
      ],
      "stateMutability": "nonpayable",
      "type": "constructor"
    },
    {
      "anonymous": false,
      "inputs": [
        {
          "indexed": true,
          "internalType": "address",
          "name": "from",
          "type": "address"
        },
        {
          "indexed": true,
          "internalType": "address",
          "name": "to",
          "type": "address"
        },
        {
          "indexed": true,
          "internalType": "string",
          "name": "batchId",
          "type": "string"
        },
        {
          "indexed": false,
          "internalType": "uint256",
          "name": "units",
          "type": "uint256"
        }
      ],
      "name": "Approval",
      "type": "event"
    },
    {
      "anonymous": false,
      "inputs": [
        {
          "indexed": true,
          "internalType": "string",
          "name": "batch_name",
          "type": "string"
        }
      ],
      "name": "NewBatch",
      "type": "event"
    },
    {
      "anonymous": false,
      "inputs": [
        {
          "indexed": true,
          "internalType": "address",
          "name": "from",
          "type": "address"
        },
        {
          "indexed": true,
          "internalType": "address",
          "name": "to",
          "type": "address"
        },
        {
          "indexed": true,
          "internalType": "uint256",
          "name": "batchId",
          "type": "uint256"
        },
        {
          "indexed": false,
          "internalType": "uint256",
          "name": "units",
          "type": "uint256"
        }
      ],
      "name": "Transfer",
      "type": "event"
    },
    {
      "anonymous": false,
      "inputs": [
        {
          "indexed": true,
          "internalType": "address",
          "name": "to",
          "type": "address"
        },
        {
          "indexed": true,
          "internalType": "string",
          "name": "batchId",
          "type": "string"
        }
      ],
      "name": "Vaccined",
      "type": "event"
    },
    {
      "inputs": [
        {
          "internalType": "string",
          "name": "",
          "type": "string"
        }
      ],
      "name": "batchDetails",
      "outputs": [
        {
          "internalType": "string",
          "name": "batchId",
          "type": "string"
        },
        {
          "internalType": "uint256",
          "name": "defrost_date",
          "type": "uint256"
        },
        {
          "internalType": "uint256",
          "name": "manufacture_expiry",
          "type": "uint256"
        },
        {
          "internalType": "uint256",
          "name": "use_by_date",
          "type": "uint256"
        },
        {
          "internalType": "uint256",
          "name": "units",
          "type": "uint256"
        },
        {
          "internalType": "string",
          "name": "ipfs_hash",
          "type": "string"
        }
      ],
      "stateMutability": "view",
      "type": "function",
      "constant": true
    },
    {
      "inputs": [
        {
          "internalType": "string",
          "name": "",
          "type": "string"
        }
      ],
      "name": "batchIdToSupply",
      "outputs": [
        {
          "internalType": "uint256",
          "name": "",
          "type": "uint256"
        }
      ],
      "stateMutability": "view",
      "type": "function",
      "constant": true
    },
    {
      "inputs": [
        {
          "internalType": "address",
          "name": "",
          "type": "address"
        },
        {
          "internalType": "string",
          "name": "",
          "type": "string"
        }
      ],
      "name": "ownerToBatchToBalance",
      "outputs": [
        {
          "internalType": "uint256",
          "name": "",
          "type": "uint256"
        }
      ],
      "stateMutability": "view",
      "type": "function",
      "constant": true
    },
    {
      "inputs": [],
      "name": "superAdmin",
      "outputs": [
        {
          "internalType": "address",
          "name": "",
          "type": "address"
        }
      ],
      "stateMutability": "view",
      "type": "function",
      "constant": true
    },
    {
      "inputs": [],
      "name": "vaccineCount",
      "outputs": [
        {
          "internalType": "uint256",
          "name": "",
          "type": "uint256"
        }
      ],
      "stateMutability": "view",
      "type": "function",
      "constant": true
    },
    {
      "inputs": [],
      "name": "name",
      "outputs": [
        {
          "internalType": "string",
          "name": "",
          "type": "string"
        }
      ],
      "stateMutability": "view",
      "type": "function",
      "constant": true
    },
    {
      "inputs": [],
      "name": "schedule",
      "outputs": [
        {
          "internalType": "uint256[]",
          "name": "",
          "type": "uint256[]"
        }
      ],
      "stateMutability": "view",
      "type": "function",
      "constant": true
    },
    {
      "inputs": [],
      "name": "platform",
      "outputs": [
        {
          "internalType": "string",
          "name": "",
          "type": "string"
        }
      ],
      "stateMutability": "view",
      "type": "function",
      "constant": true
    },
    {
      "inputs": [],
      "name": "developers",
      "outputs": [
        {
          "internalType": "string",
          "name": "",
          "type": "string"
        }
      ],
      "stateMutability": "view",
      "type": "function",
      "constant": true
    },
    {
      "inputs": [],
      "name": "route",
      "outputs": [
        {
          "internalType": "string",
          "name": "",
          "type": "string"
        }
      ],
      "stateMutability": "view",
      "type": "function",
      "constant": true
    },
    {
      "inputs": [],
      "name": "ipfs_hash",
      "outputs": [
        {
          "internalType": "string",
          "name": "",
          "type": "string"
        }
      ],
      "stateMutability": "view",
      "type": "function",
      "constant": true
    },
    {
      "inputs": [],
      "name": "totalSupply",
      "outputs": [
        {
          "internalType": "uint256",
          "name": "",
          "type": "uint256"
        }
      ],
      "stateMutability": "view",
      "type": "function",
      "constant": true
    },
    {
      "inputs": [
        {
          "internalType": "string",
          "name": "batchId",
          "type": "string"
        }
      ],
      "name": "individualSupply",
      "outputs": [
        {
          "internalType": "uint256",
          "name": "",
          "type": "uint256"
        }
      ],
      "stateMutability": "view",
      "type": "function",
      "constant": true
    },
    {
      "inputs": [
        {
          "internalType": "address",
          "name": "owner",
          "type": "address"
        },
        {
          "internalType": "string",
          "name": "batchId",
          "type": "string"
        }
      ],
      "name": "balanceOf",
      "outputs": [
        {
          "internalType": "uint256",
          "name": "",
          "type": "uint256"
        }
      ],
      "stateMutability": "view",
      "type": "function",
      "constant": true
    },
    {
      "inputs": [
        {
          "internalType": "address",
          "name": "owner",
          "type": "address"
        }
      ],
      "name": "batchesOwned",
      "outputs": [
        {
          "components": [
            {
              "internalType": "string",
              "name": "batchId",
              "type": "string"
            },
            {
              "internalType": "uint256",
              "name": "units",
              "type": "uint256"
            }
          ],
          "internalType": "struct Vaccine.OwnerBatch[]",
          "name": "",
          "type": "tuple[]"
        }
      ],
      "stateMutability": "view",
      "type": "function",
      "constant": true
    },
    {
      "inputs": [
        {
          "internalType": "address",
          "name": "to",
          "type": "address"
        },
        {
          "internalType": "string",
          "name": "batchId",
          "type": "string"
        },
        {
          "internalType": "uint256",
          "name": "quantity",
          "type": "uint256"
        }
      ],
      "name": "transfer",
      "outputs": [],
      "stateMutability": "nonpayable",
      "type": "function"
    },
    {
      "inputs": [
        {
          "internalType": "address",
          "name": "to",
          "type": "address"
        },
        {
          "internalType": "string",
          "name": "batchId",
          "type": "string"
        },
        {
          "internalType": "uint256",
          "name": "quantity",
          "type": "uint256"
        }
      ],
      "name": "approve",
      "outputs": [],
      "stateMutability": "nonpayable",
      "type": "function"
    },
    {
      "inputs": [
        {
          "internalType": "address",
          "name": "to",
          "type": "address"
        }
      ],
      "name": "approveAll",
      "outputs": [],
      "stateMutability": "nonpayable",
      "type": "function"
    },
    {
      "inputs": [
        {
          "internalType": "address",
          "name": "to",
          "type": "address"
        },
        {
          "internalType": "string",
          "name": "batchId",
          "type": "string"
        }
      ],
      "name": "vaccinate",
      "outputs": [],
      "stateMutability": "nonpayable",
      "type": "function"
    },
    {
      "inputs": [
        {
          "internalType": "address",
          "name": "from",
          "type": "address"
        },
        {
          "internalType": "address",
          "name": "to",
          "type": "address"
        },
        {
          "internalType": "string",
          "name": "batchId",
          "type": "string"
        }
      ],
      "name": "transferFrom",
      "outputs": [],
      "stateMutability": "nonpayable",
      "type": "function"
    },
    {
      "inputs": [
        {
          "internalType": "string",
          "name": "batchId",
          "type": "string"
        },
        {
          "internalType": "uint256",
          "name": "defrost_date",
          "type": "uint256"
        },
        {
          "internalType": "uint256",
          "name": "manufacture_expiry",
          "type": "uint256"
        },
        {
          "internalType": "uint256",
          "name": "use_by_date",
          "type": "uint256"
        },
        {
          "internalType": "uint256",
          "name": "units",
          "type": "uint256"
        }
      ],
      "name": "addBatch",
      "outputs": [],
      "stateMutability": "nonpayable",
      "type": "function"
    },
    {
      "inputs": [],
      "name": "getAllBatches",
      "outputs": [
        {
          "internalType": "string[]",
          "name": "",
          "type": "string[]"
        }
      ],
      "stateMutability": "view",
      "type": "function",
      "constant": true
    },
    {
      "inputs": [],
      "name": "getAllBatchesWithDetails",
      "outputs": [
        {
          "components": [
            {
              "internalType": "string",
              "name": "batchId",
              "type": "string"
            },
            {
              "internalType": "uint256",
              "name": "defrost_date",
              "type": "uint256"
            },
            {
              "internalType": "uint256",
              "name": "manufacture_expiry",
              "type": "uint256"
            },
            {
              "internalType": "uint256",
              "name": "use_by_date",
              "type": "uint256"
            },
            {
              "internalType": "uint256",
              "name": "units",
              "type": "uint256"
            },
            {
              "internalType": "string",
              "name": "ipfs_hash",
              "type": "string"
            }
          ],
          "internalType": "struct Vaccine.Batch[]",
          "name": "",
          "type": "tuple[]"
        }
      ],
      "stateMutability": "view",
      "type": "function",
      "constant": true
    },
    {
      "inputs": [
        {
          "internalType": "string",
          "name": "batchId",
          "type": "string"
        }
      ],
      "name": "getBatchDetails",
      "outputs": [
        {
          "components": [
            {
              "internalType": "string",
              "name": "batchId",
              "type": "string"
            },
            {
              "internalType": "uint256",
              "name": "defrost_date",
              "type": "uint256"
            },
            {
              "internalType": "uint256",
              "name": "manufacture_expiry",
              "type": "uint256"
            },
            {
              "internalType": "uint256",
              "name": "use_by_date",
              "type": "uint256"
            },
            {
              "internalType": "uint256",
              "name": "units",
              "type": "uint256"
            },
            {
              "internalType": "string",
              "name": "ipfs_hash",
              "type": "string"
            }
          ],
          "internalType": "struct Vaccine.Batch",
          "name": "",
          "type": "tuple"
        }
      ],
      "stateMutability": "view",
      "type": "function",
      "constant": true
    }
  ],
  "bytecode": "0x60806040523480156200001157600080fd5b506040516200372538038062003725833981810160405281019062000037919062000345565b84600090805190602001906200004f92919062000100565b5083600190805190602001906200006892919062000191565b5082600290805190602001906200008192919062000100565b5081600490805190602001906200009a92919062000100565b508060059080519060200190620000b392919062000100565b5032600660006101000a81548173ffffffffffffffffffffffffffffffffffffffff021916908373ffffffffffffffffffffffffffffffffffffffff160217905550505050505062000644565b8280546200010e9062000536565b90600052602060002090601f0160209004810192826200013257600085556200017e565b82601f106200014d57805160ff19168380011785556200017e565b828001600101855582156200017e579182015b828111156200017d57825182559160200191906001019062000160565b5b5090506200018d9190620001e3565b5090565b828054828255906000526020600020908101928215620001d0579160200282015b82811115620001cf578251825591602001919060010190620001b2565b5b509050620001df9190620001e3565b5090565b5b80821115620001fe576000816000905550600101620001e4565b5090565b600062000219620002138462000491565b62000468565b905080838252602082019050828560208602820111156200023f576200023e62000605565b5b60005b858110156200027357816200025888826200032e565b84526020840193506020830192505060018101905062000242565b5050509392505050565b6000620002946200028e84620004c0565b62000468565b905082815260208101848484011115620002b357620002b26200060a565b5b620002c084828562000500565b509392505050565b600082601f830112620002e057620002df62000600565b5b8151620002f284826020860162000202565b91505092915050565b600082601f83011262000313576200031262000600565b5b8151620003258482602086016200027d565b91505092915050565b6000815190506200033f816200062a565b92915050565b600080600080600060a0868803121562000364576200036362000614565b5b600086015167ffffffffffffffff8111156200038557620003846200060f565b5b6200039388828901620002fb565b955050602086015167ffffffffffffffff811115620003b757620003b66200060f565b5b620003c588828901620002c8565b945050604086015167ffffffffffffffff811115620003e957620003e86200060f565b5b620003f788828901620002fb565b935050606086015167ffffffffffffffff8111156200041b576200041a6200060f565b5b6200042988828901620002fb565b925050608086015167ffffffffffffffff8111156200044d576200044c6200060f565b5b6200045b88828901620002fb565b9150509295509295909350565b60006200047462000487565b90506200048282826200056c565b919050565b6000604051905090565b600067ffffffffffffffff821115620004af57620004ae620005d1565b5b602082029050602081019050919050565b600067ffffffffffffffff821115620004de57620004dd620005d1565b5b620004e98262000619565b9050602081019050919050565b6000819050919050565b60005b838110156200052057808201518184015260208101905062000503565b8381111562000530576000848401525b50505050565b600060028204905060018216806200054f57607f821691505b60208210811415620005665762000565620005a2565b5b50919050565b620005778262000619565b810181811067ffffffffffffffff82111715620005995762000598620005d1565b5b80604052505050565b7f4e487b7100000000000000000000000000000000000000000000000000000000600052602260045260246000fd5b7f4e487b7100000000000000000000000000000000000000000000000000000000600052604160045260246000fd5b600080fd5b600080fd5b600080fd5b600080fd5b600080fd5b6000601f19601f8301169050919050565b6200063581620004f6565b81146200064157600080fd5b50565b6130d180620006546000396000f3fe608060405234801561001057600080fd5b50600436106101585760003560e01c8063b0604a26116100c3578063c8020e0f1161007c578063c8020e0f146103f6578063cf0c3cca14610412578063d96661ef1461042e578063dcb7b1b71461044c578063e80e076b1461046a578063fff3a01b1461048857610158565b8063b0604a26146102fa578063b466389414610318578063b74500e014610348578063b9b092c814610378578063c4173e48146103a8578063c5f3bdb8146103d857610158565b80633ebfc934116101155780633ebfc9341461022157806340cf07fa1461023d5780634bde38c8146102725780636103986214610290578063809051db146102ac5780639a1e51ca146102ca57610158565b80630621472c1461015d57806306fdde031461017957806318160ddd1461019757806329575f6a146101b55780632bc31ca4146101d35780633456d566146101f1575b600080fd5b610177600480360381019061017291906120da565b6104a4565b005b61018161053c565b60405161018e9190612981565b60405180910390f35b61019f6105ce565b6040516101ac9190612af4565b60405180910390f35b6101bd6105d8565b6040516101ca91906128de565b60405180910390f35b6101db6105fe565b6040516101e89190612981565b60405180910390f35b61020b600480360381019061020691906120da565b610690565b604051610218919061293d565b60405180910390f35b61023b60048036038101906102369190612107565b6109bb565b005b61025760048036038101906102529190612241565b610cb9565b604051610269969594939291906129a3565b60405180910390f35b61027a610e1b565b6040516102879190612981565b60405180910390f35b6102aa60048036038101906102a59190612176565b610ead565b005b6102b461108e565b6040516102c19190612981565b60405180910390f35b6102e460048036038101906102df9190612241565b611120565b6040516102f19190612ad2565b60405180910390f35b6103026112a4565b60405161030f919061295f565b60405180910390f35b610332600480360381019061032d9190612176565b6112fc565b60405161033f9190612af4565b60405180910390f35b610362600480360381019061035d9190612241565b611337565b60405161036f9190612af4565b60405180910390f35b610392600480360381019061038d9190612176565b611365565b60405161039f9190612af4565b60405180910390f35b6103c260048036038101906103bd9190612241565b6113cb565b6040516103cf9190612af4565b60405180910390f35b6103e06113f3565b6040516103ed919061291b565b60405180910390f35b610410600480360381019061040b91906121d2565b611633565b005b61042c6004803603810190610427919061228a565b611801565b005b610436611b3d565b6040516104439190612981565b60405180910390f35b610454611bcf565b6040516104619190612af4565b60405180910390f35b610472611bd5565b60405161047f91906128f9565b60405180910390f35b6104a2600480360381019061049d91906121d2565b611cae565b005b6001600960003373ffffffffffffffffffffffffffffffffffffffff1673ffffffffffffffffffffffffffffffffffffffff16815260200190815260200160002060008373ffffffffffffffffffffffffffffffffffffffff1673ffffffffffffffffffffffffffffffffffffffff16815260200190815260200160002060006101000a81548160ff02191690831515021790555050565b60606000805461054b90612d9e565b80601f016020809104026020016040519081016040528092919081815260200182805461057790612d9e565b80156105c45780601f10610599576101008083540402835291602001916105c4565b820191906000526020600020905b8154815290600101906020018083116105a757829003601f168201915b5050505050905090565b6000600754905090565b600660009054906101000a900473ffffffffffffffffffffffffffffffffffffffff1681565b60606003805461060d90612d9e565b80601f016020809104026020016040519081016040528092919081815260200182805461063990612d9e565b80156106865780601f1061065b57610100808354040283529160200191610686565b820191906000526020600020905b81548152906001019060200180831161066957829003601f168201915b5050505050905090565b60606000600e8054905067ffffffffffffffff8111156106b3576106b2612ed7565b5b6040519080825280602002602001820160405280156106e657816020015b60608152602001906001900390816106d15790505b5090506000805b600e80549050811015610862576000600b60008773ffffffffffffffffffffffffffffffffffffffff1673ffffffffffffffffffffffffffffffffffffffff168152602001908152602001600020600e838154811061074f5761074e612ea8565b5b9060005260206000200160405161076691906128c7565b9081526020016040518091039020541461084f57600e818154811061078e5761078d612ea8565b5b9060005260206000200180546107a390612d9e565b80601f01602080910402602001604051908101604052809291908181526020018280546107cf90612d9e565b801561081c5780601f106107f15761010080835404028352916020019161081c565b820191906000526020600020905b8154815290600101906020018083116107ff57829003601f168201915b505050505083838151811061083457610833612ea8565b5b602002602001018190525060018261084c9190612c96565b91505b808061085a90612e01565b9150506106ed565b5060008167ffffffffffffffff81111561087f5761087e612ed7565b5b6040519080825280602002602001820160405280156108b857816020015b6108a5611f1d565b81526020019060019003908161089d5790505b50905060005b828110156109af578381815181106108d9576108d8612ea8565b5b60200260200101518282815181106108f4576108f3612ea8565b5b602002602001015160000181905250600b60008773ffffffffffffffffffffffffffffffffffffffff1673ffffffffffffffffffffffffffffffffffffffff16815260200190815260200160002084828151811061095557610954612ea8565b5b602002602001015160405161096a91906128b0565b90815260200160405180910390205482828151811061098c5761098b612ea8565b5b6020026020010151602001818152505080806109a790612e01565b9150506108be565b50809350505050919050565b6000600c60008573ffffffffffffffffffffffffffffffffffffffff1673ffffffffffffffffffffffffffffffffffffffff16815260200190815260200160002082604051610a0a91906128b0565b908152602001604051809103902090506000816001015490508373ffffffffffffffffffffffffffffffffffffffff168260000160009054906101000a900473ffffffffffffffffffffffffffffffffffffffff1673ffffffffffffffffffffffffffffffffffffffff16148015610add5750600b60008673ffffffffffffffffffffffffffffffffffffffff1673ffffffffffffffffffffffffffffffffffffffff16815260200190815260200160002083604051610aca91906128b0565b9081526020016040518091039020548110155b610ae657600080fd5b80600b60008773ffffffffffffffffffffffffffffffffffffffff1673ffffffffffffffffffffffffffffffffffffffff16815260200190815260200160002084604051610b3491906128b0565b90815260200160405180910390206000828254610b519190612cec565b9250508190555080600b60008673ffffffffffffffffffffffffffffffffffffffff1673ffffffffffffffffffffffffffffffffffffffff16815260200190815260200160002084604051610ba691906128b0565b90815260200160405180910390206000828254610bc39190612c96565b92505081905550610bd2611f37565b6040518060400160405280600073ffffffffffffffffffffffffffffffffffffffff1681526020016000815250905080600c60008873ffffffffffffffffffffffffffffffffffffffff1673ffffffffffffffffffffffffffffffffffffffff16815260200190815260200160002085604051610c4f91906128b0565b908152602001604051809103902060008201518160000160006101000a81548173ffffffffffffffffffffffffffffffffffffffff021916908373ffffffffffffffffffffffffffffffffffffffff16021790555060208201518160010155905050505050505050565b600d81805160208101820180518482526020830160208501208183528095505050505050600091509050806000018054610cf290612d9e565b80601f0160208091040260200160405190810160405280929190818152602001828054610d1e90612d9e565b8015610d6b5780601f10610d4057610100808354040283529160200191610d6b565b820191906000526020600020905b815481529060010190602001808311610d4e57829003601f168201915b505050505090806001015490806002015490806003015490806004015490806005018054610d9890612d9e565b80601f0160208091040260200160405190810160405280929190818152602001828054610dc490612d9e565b8015610e115780601f10610de657610100808354040283529160200191610e11565b820191906000526020600020905b815481529060010190602001808311610df457829003601f168201915b5050505050905086565b606060028054610e2a90612d9e565b80601f0160208091040260200160405190810160405280929190818152602001828054610e5690612d9e565b8015610ea35780601f10610e7857610100808354040283529160200191610ea3565b820191906000526020600020905b815481529060010190602001808311610e8657829003601f168201915b5050505050905090565b6000600b60003373ffffffffffffffffffffffffffffffffffffffff1673ffffffffffffffffffffffffffffffffffffffff16815260200190815260200160002082604051610efc91906128b0565b90815260200160405180910390205411610f4b576040517f08c379a0000000000000000000000000000000000000000000000000000000008152600401610f4290612a12565b60405180910390fd5b6001600b60003373ffffffffffffffffffffffffffffffffffffffff1673ffffffffffffffffffffffffffffffffffffffff16815260200190815260200160002082604051610f9a91906128b0565b90815260200160405180910390206000828254610fb79190612cec565b925050819055506001600b60008473ffffffffffffffffffffffffffffffffffffffff1673ffffffffffffffffffffffffffffffffffffffff1681526020019081526020016000208260405161100d91906128b0565b9081526020016040518091039020600082825461102a9190612c96565b925050819055508060405161103f91906128b0565b60405180910390208273ffffffffffffffffffffffffffffffffffffffff167fef2efa73144c5f8cd3684c5c620e24325aa03b459096efd2f498f8386839041960405160405180910390a35050565b60606005805461109d90612d9e565b80601f01602080910402602001604051908101604052809291908181526020018280546110c990612d9e565b80156111165780601f106110eb57610100808354040283529160200191611116565b820191906000526020600020905b8154815290600101906020018083116110f957829003601f168201915b5050505050905090565b611128611f67565b600d8260405161113891906128b0565b90815260200160405180910390206040518060c001604052908160008201805461116190612d9e565b80601f016020809104026020016040519081016040528092919081815260200182805461118d90612d9e565b80156111da5780601f106111af576101008083540402835291602001916111da565b820191906000526020600020905b8154815290600101906020018083116111bd57829003601f168201915b505050505081526020016001820154815260200160028201548152602001600382015481526020016004820154815260200160058201805461121b90612d9e565b80601f016020809104026020016040519081016040528092919081815260200182805461124790612d9e565b80156112945780601f1061126957610100808354040283529160200191611294565b820191906000526020600020905b81548152906001019060200180831161127757829003601f168201915b5050505050815250509050919050565b606060018054806020026020016040519081016040528092919081815260200182805480156112f257602002820191906000526020600020905b8154815260200190600101908083116112de575b5050505050905090565b600b60205281600052604060002081805160208101820180518482526020830160208501208183528095505050505050600091509150505481565b600a818051602081018201805184825260208301602085012081835280955050505050506000915090505481565b6000600b60008473ffffffffffffffffffffffffffffffffffffffff1673ffffffffffffffffffffffffffffffffffffffff168152602001908152602001600020826040516113b491906128b0565b908152602001604051809103902054905092915050565b6000600a826040516113dd91906128b0565b9081526020016040518091039020549050919050565b60606000600e8054905067ffffffffffffffff81111561141657611415612ed7565b5b60405190808252806020026020018201604052801561144f57816020015b61143c611f67565b8152602001906001900390816114345790505b50905060005b600e8054905081101561162b576000600d600e838154811061147a57611479612ea8565b5b9060005260206000200160405161149191906128c7565b90815260200160405180910390206040518060c00160405290816000820180546114ba90612d9e565b80601f01602080910402602001604051908101604052809291908181526020018280546114e690612d9e565b80156115335780601f1061150857610100808354040283529160200191611533565b820191906000526020600020905b81548152906001019060200180831161151657829003601f168201915b505050505081526020016001820154815260200160028201548152602001600382015481526020016004820154815260200160058201805461157490612d9e565b80601f01602080910402602001604051908101604052809291908181526020018280546115a090612d9e565b80156115ed5780601f106115c2576101008083540402835291602001916115ed565b820191906000526020600020905b8154815290600101906020018083116115d057829003601f168201915b50505050508152505090508083838151811061160c5761160b612ea8565b5b602002602001018190525050808061162390612e01565b915050611455565b508091505090565b80600b60003373ffffffffffffffffffffffffffffffffffffffff1673ffffffffffffffffffffffffffffffffffffffff1681526020019081526020016000208360405161168191906128b0565b908152602001604051809103902054101561169b57600080fd5b6116a3611f37565b60405180604001604052808573ffffffffffffffffffffffffffffffffffffffff16815260200183815250905080600c60003373ffffffffffffffffffffffffffffffffffffffff1673ffffffffffffffffffffffffffffffffffffffff1681526020019081526020016000208460405161171e91906128b0565b908152602001604051809103902060008201518160000160006101000a81548173ffffffffffffffffffffffffffffffffffffffff021916908373ffffffffffffffffffffffffffffffffffffffff160217905550602082015181600101559050508260405161178e91906128b0565b60405180910390208473ffffffffffffffffffffffffffffffffffffffff163373ffffffffffffffffffffffffffffffffffffffff167f17047a419515d22fa233d47027a0ec1677b03dea0fc0a1832cb6a47b93859051856040516117f39190612af4565b60405180910390a450505050565b600660009054906101000a900473ffffffffffffffffffffffffffffffffffffffff1673ffffffffffffffffffffffffffffffffffffffff163373ffffffffffffffffffffffffffffffffffffffff1614611891576040517f08c379a000000000000000000000000000000000000000000000000000000000815260040161188890612a72565b60405180910390fd5b4284106118d3576040517f08c379a00000000000000000000000000000000000000000000000000000000081526004016118ca90612a52565b60405180910390fd5b428311611915576040517f08c379a000000000000000000000000000000000000000000000000000000000815260040161190c90612a92565b60405180910390fd5b428211611957576040517f08c379a000000000000000000000000000000000000000000000000000000000815260040161194e90612ab2565b60405180910390fd5b84600d8660405161196891906128b0565b9081526020016040518091039020600001908051906020019061198c929190611f9d565b5083600d8660405161199e91906128b0565b90815260200160405180910390206001018190555082600d866040516119c491906128b0565b90815260200160405180910390206002018190555081600d866040516119ea91906128b0565b90815260200160405180910390206003018190555080600d86604051611a1091906128b0565b90815260200160405180910390206004018190555080600b60003373ffffffffffffffffffffffffffffffffffffffff1673ffffffffffffffffffffffffffffffffffffffff16815260200190815260200160002086604051611a7391906128b0565b9081526020016040518091039020819055508060076000828254611a979190612c96565b92505081905550600160086000828254611ab19190612c96565b92505081905550600e85908060018154018082558091505060019003906000526020600020016000909190919091509080519060200190611af3929190611f9d565b5084604051611b0291906128b0565b60405180910390207ff83fcb896ea7199c4d58a8a4ab92545a6dcb43b6d1026c5e8213b8f905b102d160405160405180910390a25050505050565b606060048054611b4c90612d9e565b80601f0160208091040260200160405190810160405280929190818152602001828054611b7890612d9e565b8015611bc55780601f10611b9a57610100808354040283529160200191611bc5565b820191906000526020600020905b815481529060010190602001808311611ba857829003601f168201915b5050505050905090565b60075481565b6060600e805480602002602001604051908101604052809291908181526020016000905b82821015611ca5578382906000526020600020018054611c1890612d9e565b80601f0160208091040260200160405190810160405280929190818152602001828054611c4490612d9e565b8015611c915780601f10611c6657610100808354040283529160200191611c91565b820191906000526020600020905b815481529060010190602001808311611c7457829003601f168201915b505050505081526020019060010190611bf9565b50505050905090565b80600b60003373ffffffffffffffffffffffffffffffffffffffff1673ffffffffffffffffffffffffffffffffffffffff16815260200190815260200160002083604051611cfc91906128b0565b9081526020016040518091039020541015611d4c576040517f08c379a0000000000000000000000000000000000000000000000000000000008152600401611d4390612a32565b60405180910390fd5b80600b60003373ffffffffffffffffffffffffffffffffffffffff1673ffffffffffffffffffffffffffffffffffffffff16815260200190815260200160002083604051611d9a91906128b0565b90815260200160405180910390206000828254611db79190612cec565b9250508190555080600b60008573ffffffffffffffffffffffffffffffffffffffff1673ffffffffffffffffffffffffffffffffffffffff16815260200190815260200160002083604051611e0c91906128b0565b90815260200160405180910390206000828254611e299190612c96565b92505081905550611e38611f37565b6040518060400160405280600073ffffffffffffffffffffffffffffffffffffffff1681526020016000815250905080600c60003373ffffffffffffffffffffffffffffffffffffffff1673ffffffffffffffffffffffffffffffffffffffff16815260200190815260200160002084604051611eb591906128b0565b908152602001604051809103902060008201518160000160006101000a81548173ffffffffffffffffffffffffffffffffffffffff021916908373ffffffffffffffffffffffffffffffffffffffff1602179055506020820151816001015590505050505050565b604051806040016040528060608152602001600081525090565b6040518060400160405280600073ffffffffffffffffffffffffffffffffffffffff168152602001600081525090565b6040518060c001604052806060815260200160008152602001600081526020016000815260200160008152602001606081525090565b828054611fa990612d9e565b90600052602060002090601f016020900481019282611fcb5760008555612012565b82601f10611fe457805160ff1916838001178555612012565b82800160010185558215612012579182015b82811115612011578251825591602001919060010190611ff6565b5b50905061201f9190612023565b5090565b5b8082111561203c576000816000905550600101612024565b5090565b600061205361204e84612b34565b612b0f565b90508281526020810184848401111561206f5761206e612f0b565b5b61207a848285612d5c565b509392505050565b6000813590506120918161306d565b92915050565b600082601f8301126120ac576120ab612f06565b5b81356120bc848260208601612040565b91505092915050565b6000813590506120d481613084565b92915050565b6000602082840312156120f0576120ef612f15565b5b60006120fe84828501612082565b91505092915050565b6000806000606084860312156121205761211f612f15565b5b600061212e86828701612082565b935050602061213f86828701612082565b925050604084013567ffffffffffffffff8111156121605761215f612f10565b5b61216c86828701612097565b9150509250925092565b6000806040838503121561218d5761218c612f15565b5b600061219b85828601612082565b925050602083013567ffffffffffffffff8111156121bc576121bb612f10565b5b6121c885828601612097565b9150509250929050565b6000806000606084860312156121eb576121ea612f15565b5b60006121f986828701612082565b935050602084013567ffffffffffffffff81111561221a57612219612f10565b5b61222686828701612097565b9250506040612237868287016120c5565b9150509250925092565b60006020828403121561225757612256612f15565b5b600082013567ffffffffffffffff81111561227557612274612f10565b5b61228184828501612097565b91505092915050565b600080600080600060a086880312156122a6576122a5612f15565b5b600086013567ffffffffffffffff8111156122c4576122c3612f10565b5b6122d088828901612097565b95505060206122e1888289016120c5565b94505060406122f2888289016120c5565b9350506060612303888289016120c5565b9250506080612314888289016120c5565b9150509295509295909350565b600061232d8383612541565b905092915050565b60006123418383612735565b905092915050565b60006123558383612855565b905092915050565b60006123698383612892565b60208301905092915050565b61237e81612d20565b82525050565b600061238f82612bba565b6123998185612c25565b9350836020820285016123ab85612b65565b8060005b858110156123e757848403895281516123c88582612321565b94506123d383612bf1565b925060208a019950506001810190506123af565b50829750879550505050505092915050565b600061240482612bc5565b61240e8185612c36565b93508360208202850161242085612b75565b8060005b8581101561245c578484038952815161243d8582612335565b945061244883612bfe565b925060208a01995050600181019050612424565b50829750879550505050505092915050565b600061247982612bd0565b6124838185612c47565b93508360208202850161249585612b85565b8060005b858110156124d157848403895281516124b28582612349565b94506124bd83612c0b565b925060208a01995050600181019050612499565b50829750879550505050505092915050565b60006124ee82612bdb565b6124f88185612c58565b935061250383612b95565b8060005b8381101561253457815161251b888261235d565b975061252683612c18565b925050600181019050612507565b5085935050505092915050565b600061254c82612be6565b6125568185612c69565b9350612566818560208601612d6b565b61256f81612f1a565b840191505092915050565b600061258582612be6565b61258f8185612c7a565b935061259f818560208601612d6b565b6125a881612f1a565b840191505092915050565b60006125be82612be6565b6125c88185612c8b565b93506125d8818560208601612d6b565b80840191505092915050565b600081546125f181612d9e565b6125fb8186612c8b565b9450600182166000811461261657600181146126275761265a565b60ff1983168652818601935061265a565b61263085612ba5565b60005b8381101561265257815481890152600182019150602081019050612633565b838801955050505b50505092915050565b6000612670601283612c7a565b915061267b82612f2b565b602082019050919050565b6000612693601983612c7a565b915061269e82612f54565b602082019050919050565b60006126b6601c83612c7a565b91506126c182612f7d565b602082019050919050565b60006126d9602483612c7a565b91506126e482612fa6565b604082019050919050565b60006126fc600783612c7a565b915061270782612ff5565b602082019050919050565b600061271f602283612c7a565b915061272a8261301e565b604082019050919050565b600060c08301600083015184820360008601526127528282612541565b91505060208301516127676020860182612892565b50604083015161277a6040860182612892565b50606083015161278d6060860182612892565b5060808301516127a06080860182612892565b5060a083015184820360a08601526127b88282612541565b9150508091505092915050565b600060c08301600083015184820360008601526127e28282612541565b91505060208301516127f76020860182612892565b50604083015161280a6040860182612892565b50606083015161281d6060860182612892565b5060808301516128306080860182612892565b5060a083015184820360a08601526128488282612541565b9150508091505092915050565b600060408301600083015184820360008601526128728282612541565b91505060208301516128876020860182612892565b508091505092915050565b61289b81612d52565b82525050565b6128aa81612d52565b82525050565b60006128bc82846125b3565b915081905092915050565b60006128d382846125e4565b915081905092915050565b60006020820190506128f36000830184612375565b92915050565b600060208201905081810360008301526129138184612384565b905092915050565b6000602082019050818103600083015261293581846123f9565b905092915050565b60006020820190508181036000830152612957818461246e565b905092915050565b6000602082019050818103600083015261297981846124e3565b905092915050565b6000602082019050818103600083015261299b818461257a565b905092915050565b600060c08201905081810360008301526129bd818961257a565b90506129cc60208301886128a1565b6129d960408301876128a1565b6129e660608301866128a1565b6129f360808301856128a1565b81810360a0830152612a05818461257a565b9050979650505050505050565b60006020820190508181036000830152612a2b81612663565b9050919050565b60006020820190508181036000830152612a4b81612686565b9050919050565b60006020820190508181036000830152612a6b816126a9565b9050919050565b60006020820190508181036000830152612a8b816126cc565b9050919050565b60006020820190508181036000830152612aab816126ef565b9050919050565b60006020820190508181036000830152612acb81612712565b9050919050565b60006020820190508181036000830152612aec81846127c5565b905092915050565b6000602082019050612b0960008301846128a1565b92915050565b6000612b19612b2a565b9050612b258282612dd0565b919050565b6000604051905090565b600067ffffffffffffffff821115612b4f57612b4e612ed7565b5b612b5882612f1a565b9050602081019050919050565b6000819050602082019050919050565b6000819050602082019050919050565b6000819050602082019050919050565b6000819050602082019050919050565b60008190508160005260206000209050919050565b600081519050919050565b600081519050919050565b600081519050919050565b600081519050919050565b600081519050919050565b6000602082019050919050565b6000602082019050919050565b6000602082019050919050565b6000602082019050919050565b600082825260208201905092915050565b600082825260208201905092915050565b600082825260208201905092915050565b600082825260208201905092915050565b600082825260208201905092915050565b600082825260208201905092915050565b600081905092915050565b6000612ca182612d52565b9150612cac83612d52565b9250827fffffffffffffffffffffffffffffffffffffffffffffffffffffffffffffffff03821115612ce157612ce0612e4a565b5b828201905092915050565b6000612cf782612d52565b9150612d0283612d52565b925082821015612d1557612d14612e4a565b5b828203905092915050565b6000612d2b82612d32565b9050919050565b600073ffffffffffffffffffffffffffffffffffffffff82169050919050565b6000819050919050565b82818337600083830152505050565b60005b83811015612d89578082015181840152602081019050612d6e565b83811115612d98576000848401525b50505050565b60006002820490506001821680612db657607f821691505b60208210811415612dca57612dc9612e79565b5b50919050565b612dd982612f1a565b810181811067ffffffffffffffff82111715612df857612df7612ed7565b5b80604052505050565b6000612e0c82612d52565b91507fffffffffffffffffffffffffffffffffffffffffffffffffffffffffffffffff821415612e3f57612e3e612e4a565b5b600182019050919050565b7f4e487b7100000000000000000000000000000000000000000000000000000000600052601160045260246000fd5b7f4e487b7100000000000000000000000000000000000000000000000000000000600052602260045260246000fd5b7f4e487b7100000000000000000000000000000000000000000000000000000000600052603260045260246000fd5b7f4e487b7100000000000000000000000000000000000000000000000000000000600052604160045260246000fd5b600080fd5b600080fd5b600080fd5b600080fd5b6000601f19601f8301169050919050565b7f4e6f7420656e6f7567682076616363696e650000000000000000000000000000600082015250565b7f4f776e657220646f206e6f7420686f6c642076616363696e6500000000000000600082015250565b7f4d7573742062652070726576696f75736c7920646566726f7374656400000000600082015250565b7f4f6e6c792061646d696e2063616e20706572666f726d207468652066756e637460008201527f696f6e2e00000000000000000000000000000000000000000000000000000000602082015250565b7f4578706972656400000000000000000000000000000000000000000000000000600082015250565b7f4d7573742062652075736564207072696f7220746f207573652062792064617460008201527f652e000000000000000000000000000000000000000000000000000000000000602082015250565b61307681612d20565b811461308157600080fd5b50565b61308d81612d52565b811461309857600080fd5b5056fea2646970667358221220585894d1efc098e4ef2620bb6fdcc844a91f6de2abeda69fb9ef38f874620d2a64736f6c63430008050033",
  "immutableReferences": {},
  "source": "// SPDX-License-Identifier: MIT\npragma solidity >=0.7.5;\npragma experimental ABIEncoderV2;\n\n/**\n * @title SafeMath\n * @dev Math operations with safety checks that throw on error\n */\nlibrary SafeMath {\n    /**\n     * @dev Multiplies two numbers, throws on overflow.\n     */\n    function mul(uint256 a, uint256 b) internal pure returns (uint256 c) {\n        if (a == 0) {\n            return 0;\n        }\n        c = a * b;\n        assert(c / a == b);\n        return c;\n    }\n\n    /**\n     * @dev Integer division of two numbers, truncating the quotient.\n     */\n    function div(uint256 a, uint256 b) internal pure returns (uint256) {\n        // assert(b > 0); // Solidity automatically throws when dividing by 0\n        // uint256 c = a / b;\n        // assert(a == b * c + a % b); // There is no case in which this doesn't hold\n        return a / b;\n    }\n\n    /**\n     * @dev Subtracts two numbers, throws on overflow (i.e. if subtrahend is greater than minuend).\n     */\n    function sub(uint256 a, uint256 b) internal pure returns (uint256) {\n        assert(b <= a);\n        return a - b;\n    }\n\n    /**\n     * @dev Adds two numbers, throws on overflow.\n     */\n    function add(uint256 a, uint256 b) internal pure returns (uint256 c) {\n        c = a + b;\n        assert(c >= a);\n        return c;\n    }\n}\n\ninterface IFVaccine {\n    function name() external view returns (string memory);\n\n    function schedule() external view returns (uint256[] memory);\n\n    function platform() external view returns (string memory);\n\n    function route() external view returns (string memory);\n\n    function developers() external view returns (string memory);\n\n    function ipfs_hash() external view returns (string memory);\n}\n\ncontract Vaccine {\n    using SafeMath for uint256;\n\n    string private name_;\n    uint256[] private schedule_;\n    string private platform_;\n    string private developers_;\n    string private route_;\n    string private ipfs_hash_;\n\n    address public superAdmin;\n\n    struct Batch {\n        string batchId;\n        uint256 defrost_date;\n        uint256 manufacture_expiry;\n        uint256 use_by_date;\n        uint256 units;\n        string ipfs_hash;\n    }\n\n    uint256 public vaccineCount;\n    uint256 currentBatch;\n    struct Transactor {\n        address actor;\n        uint256 amount;\n    }\n\n    struct OwnerBatch {\n        string batchId;\n        uint256 units;\n    }\n\n    mapping(address => mapping(address => bool)) fullApprovals;\n\n    mapping(string => uint256) public batchIdToSupply;\n    mapping(address => mapping(string => uint256)) public ownerToBatchToBalance;\n    mapping(address => mapping(string => Transactor)) approvals;\n    mapping(string => Batch) public batchDetails;\n\n    string[] batches;\n\n    event Transfer(\n        address indexed from,\n        address indexed to,\n        uint256 indexed batchId,\n        uint256 units\n    );\n    event Approval(\n        address indexed from,\n        address indexed to,\n        string indexed batchId,\n        uint256 units\n    );\n    event NewBatch(string indexed batch_name);\n    event Vaccined(address indexed to, string indexed batchId);\n\n    // Constructor\n    constructor(\n        string memory _name,\n        uint256[] memory _schedule,\n        string memory _platform,\n        string memory _route,\n        string memory _ipfs_hash\n    ) {\n        name_ = _name;\n        schedule_ = _schedule;\n        platform_ = _platform;\n        route_ = _route;\n        ipfs_hash_ = _ipfs_hash;\n        superAdmin = tx.origin;\n    }\n\n    function name() public view returns (string memory) {\n        return name_;\n    }\n\n    function schedule() public view returns(uint256[] memory) {\n      return schedule_;\n    }\n\n    function platform() public view returns (string memory) {\n        return platform_;\n    }\n\n    function developers() public view returns (string memory) {\n        return developers_;\n    }\n\n    function route() public view returns (string memory) {\n        return route_;\n    }\n\n    function ipfs_hash() public view returns (string memory) {\n        return ipfs_hash_;\n    }\n\n    function totalSupply() public view returns (uint256) {\n        return vaccineCount;\n    }\n\n    function individualSupply(string memory batchId)\n        public\n        view\n        returns (uint256)\n    {\n        return batchIdToSupply[batchId];\n    }\n\n    function balanceOf(address owner, string memory batchId)\n        public\n        view\n        returns (uint256)\n    {\n        /* if (ownerToBatchToBalance[owner] == 0) return 0; */\n        return ownerToBatchToBalance[owner][batchId];\n    }\n\n    // class of 0 is meaningless and should be ignored.\n    function batchesOwned(address owner)\n        public\n        view\n        returns (OwnerBatch[] memory)\n    {\n        string[] memory tempBatches = new string[](batches.length);\n        uint256 count = 0;\n        for (uint256 i = 0; i < batches.length; i++) {\n            if (ownerToBatchToBalance[owner][batches[i]] != 0) {\n                tempBatches[count] = batches[i];\n                count += 1;\n            }\n        }\n        OwnerBatch[] memory batches_ = new OwnerBatch[](count);\n        for (uint256 i = 0; i < count; i++) {\n            batches_[i].batchId = tempBatches[i];\n            batches_[i].units = ownerToBatchToBalance[owner][tempBatches[i]];\n        }\n        return batches_;\n    }\n\n    function transfer(\n        address to,\n        string memory batchId,\n        uint256 quantity\n    ) public {\n        require(\n            ownerToBatchToBalance[msg.sender][batchId] >= quantity,\n            \"Owner do not hold vaccine\"\n        );\n        ownerToBatchToBalance[msg.sender][batchId] -= quantity;\n        ownerToBatchToBalance[to][batchId] += quantity;\n        Transactor memory zeroApproval;\n        zeroApproval = Transactor(address(0), 0);\n        approvals[msg.sender][batchId] = zeroApproval;\n    }\n\n    function approve(\n        address to,\n        string memory batchId,\n        uint256 quantity\n    ) public {\n        require(ownerToBatchToBalance[msg.sender][batchId] >= quantity);\n        Transactor memory takerApproval;\n        takerApproval = Transactor(to, quantity);\n        approvals[msg.sender][batchId] = takerApproval;\n        emit Approval(msg.sender, to, batchId, quantity);\n    }\n\n    function approveAll(address to) public {\n        fullApprovals[msg.sender][to] = true;\n    }\n\n    function vaccinate(address to, string memory batchId) public {\n        require(\n            ownerToBatchToBalance[msg.sender][batchId] > 0,\n            \"Not enough vaccine\"\n        );\n        ownerToBatchToBalance[msg.sender][batchId] -= 1;\n        ownerToBatchToBalance[to][batchId] += 1;\n        emit Vaccined(to, batchId);\n    }\n\n    function transferFrom(\n        address from,\n        address to,\n        string memory batchId\n    ) public {\n        Transactor storage takerApproval = approvals[from][batchId];\n        uint256 quantity = takerApproval.amount;\n        require(\n            takerApproval.actor == to &&\n                quantity >= ownerToBatchToBalance[from][batchId]\n        );\n        ownerToBatchToBalance[from][batchId] -= quantity;\n        ownerToBatchToBalance[to][batchId] += quantity;\n        Transactor memory zeroApproval;\n        zeroApproval = Transactor(address(0), 0);\n        approvals[from][batchId] = zeroApproval;\n    }\n\n    function addBatch(\n        string memory batchId,\n        uint256 defrost_date,\n        uint256 manufacture_expiry,\n        uint256 use_by_date,\n        uint256 units\n    ) public onlySuperAdmin {\n        require(defrost_date < block.timestamp, \"Must be previously defrosted\");\n        require(manufacture_expiry > block.timestamp, \"Expired\");\n        require(\n            use_by_date > block.timestamp,\n            \"Must be used prior to use by date.\"\n        );\n\n        batchDetails[batchId].batchId = batchId;\n        batchDetails[batchId].defrost_date = defrost_date;\n        batchDetails[batchId].manufacture_expiry = manufacture_expiry;\n        batchDetails[batchId].use_by_date = use_by_date;\n        batchDetails[batchId].units = units;\n        ownerToBatchToBalance[msg.sender][batchId] = units;\n\n        vaccineCount += units;\n        currentBatch += 1;\n        batches.push(batchId);\n        emit NewBatch(batchId);\n    }\n\n    function getAllBatches() public view returns (string[] memory){\n        return batches;\n    }\n\n    function getAllBatchesWithDetails() public view returns (Batch[] memory){\n        Batch[] memory allBatchDetails = new Batch[](batches.length);\n        for (uint i=0; i<batches.length; i++) {\n            Batch memory batch = batchDetails[batches[i]];\n            allBatchDetails[i] = batch;\n        }\n        return allBatchDetails;\n    }\n\n    function getBatchDetails(string memory batchId) public view returns (Batch memory) {\n        return batchDetails[batchId];\n    }\n\n    modifier onlySuperAdmin() {\n        require(\n            msg.sender == superAdmin,\n            \"Only admin can perform the function.\"\n        );\n        _;\n    }\n}\n\ncontract VaccineFactory {\n    Vaccine[] public vaccines;\n    struct VaccineDetails {\n        string name;\n        uint256[] schedule;\n        string platform;\n        string route;\n        string ipfs_hash;\n    }\n    mapping(address => uint256) vaccineIndex;\n\n    function createVaccine(\n        string memory name,\n        uint256[] memory schedule,\n        string memory platform,\n        string memory route,\n        string memory ipfs_hash\n    ) public {\n        Vaccine v = new Vaccine(name, schedule, platform, route, ipfs_hash);\n        vaccines.push(v);\n    }\n\n    function getVaccineAddresses() public view returns (Vaccine[] memory) {\n        return vaccines;\n    }\n\n    function getVaccineDetails(address vaccineAddress)\n        public\n        view\n        returns (VaccineDetails memory)\n    {\n        IFVaccine vaccine = IFVaccine(vaccineAddress);\n        string memory name = vaccine.name();\n        uint256[] memory schedule = vaccine.schedule();\n        string memory platform = vaccine.platform();\n        string memory route = vaccine.route();\n        string memory ipfs_hash = vaccine.ipfs_hash();\n        return VaccineDetails(name, schedule, platform, route, ipfs_hash);\n    }\n\n    function getAllVaccinesWithDetails()\n        public\n        view\n        returns (VaccineDetails[] memory)\n    {\n        VaccineDetails[] memory vDetails = new VaccineDetails[](\n            vaccines.length\n        );\n        for (uint256 i = 0; i < vaccines.length; i++) {\n            vDetails[i] = getVaccineDetails(address(vaccines[i]));\n        }\n        return vDetails;\n    }\n\n    function getSpecifiedVaccinesDetails(address[] memory vaccineAddress)\n        public\n        view\n        returns (VaccineDetails[] memory)\n    {\n        VaccineDetails[] memory vDetails = new VaccineDetails[](\n            vaccineAddress.length\n        );\n        for (uint256 i = 0; i < vaccineAddress.length; i++) {\n            vDetails[i] = getVaccineDetails(vaccineAddress[i]);\n        }\n        return vDetails;\n    }\n}\n",
  "sourcePath": "/home/prajwolrg/School/Vaccination/vaccine-solidity/contracts/Vaccine.sol",
  "compiler": {
    "name": "solc",
    "version": "0.8.5+commit.a4f2e591.Emscripten.clang"
  },
  "schemaVersion": "3.4.4",
  "updatedAt": "2022-04-15T10:20:33.552Z",
  "networkType": "ethereum",
  "devdoc": {
    "kind": "dev",
    "methods": {},
    "version": 1
  },
  "userdoc": {
    "kind": "user",
    "methods": {},
    "version": 1
  }
}