{
  "contractName": "Vaccination",
  "abi": [
    {
      "inputs": [],
      "stateMutability": "nonpayable",
      "type": "constructor"
    },
    {
      "anonymous": false,
      "inputs": [
        {
          "indexed": true,
          "internalType": "string",
          "name": "vaccine_name",
          "type": "string"
        },
        {
          "indexed": true,
          "internalType": "uint256",
          "name": "batch_no",
          "type": "uint256"
        }
      ],
      "name": "AddBatch",
      "type": "event"
    },
    {
      "anonymous": false,
      "inputs": [
        {
          "indexed": true,
          "internalType": "address",
          "name": "from",
          "type": "address"
        },
        {
          "indexed": true,
          "internalType": "address",
          "name": "to",
          "type": "address"
        }
      ],
      "name": "ApproveHealthPerson",
      "type": "event"
    },
    {
      "anonymous": false,
      "inputs": [
        {
          "indexed": true,
          "internalType": "string",
          "name": "org_name",
          "type": "string"
        }
      ],
      "name": "ApproveOrganization",
      "type": "event"
    },
    {
      "anonymous": false,
      "inputs": [
        {
          "indexed": true,
          "internalType": "string",
          "name": "vaccine_name",
          "type": "string"
        }
      ],
      "name": "ApproveVaccine",
      "type": "event"
    },
    {
      "anonymous": false,
      "inputs": [
        {
          "indexed": true,
          "internalType": "address",
          "name": "_from",
          "type": "address"
        }
      ],
      "name": "RegisterHealthPerson",
      "type": "event"
    },
    {
      "anonymous": false,
      "inputs": [
        {
          "indexed": true,
          "internalType": "address",
          "name": "_from",
          "type": "address"
        }
      ],
      "name": "RegisterIndividual",
      "type": "event"
    },
    {
      "anonymous": false,
      "inputs": [
        {
          "indexed": true,
          "internalType": "string",
          "name": "org_name",
          "type": "string"
        }
      ],
      "name": "RegisterOrganization",
      "type": "event"
    },
    {
      "anonymous": false,
      "inputs": [
        {
          "indexed": true,
          "internalType": "address",
          "name": "to",
          "type": "address"
        },
        {
          "indexed": true,
          "internalType": "string",
          "name": "vaccine_name",
          "type": "string"
        },
        {
          "indexed": false,
          "internalType": "uint256",
          "name": "batch_no",
          "type": "uint256"
        }
      ],
      "name": "TransferVaccine",
      "type": "event"
    },
    {
      "inputs": [
        {
          "internalType": "string",
          "name": "",
          "type": "string"
        },
        {
          "internalType": "uint256",
          "name": "",
          "type": "uint256"
        }
      ],
      "name": "approvedBatches",
      "outputs": [
        {
          "internalType": "uint256",
          "name": "batch_id",
          "type": "uint256"
        },
        {
          "internalType": "uint256",
          "name": "defrost_date",
          "type": "uint256"
        },
        {
          "internalType": "uint256",
          "name": "manufacture_expiry",
          "type": "uint256"
        },
        {
          "internalType": "uint256",
          "name": "use_by_date",
          "type": "uint256"
        },
        {
          "internalType": "string",
          "name": "ipfs_hash",
          "type": "string"
        }
      ],
      "stateMutability": "view",
      "type": "function",
      "constant": true
    },
    {
      "inputs": [
        {
          "internalType": "string",
          "name": "",
          "type": "string"
        },
        {
          "internalType": "uint256",
          "name": "",
          "type": "uint256"
        },
        {
          "internalType": "address",
          "name": "",
          "type": "address"
        }
      ],
      "name": "approvedOperators",
      "outputs": [
        {
          "internalType": "uint256",
          "name": "",
          "type": "uint256"
        }
      ],
      "stateMutability": "view",
      "type": "function",
      "constant": true
    },
    {
      "inputs": [
        {
          "internalType": "uint256",
          "name": "",
          "type": "uint256"
        }
      ],
      "name": "approvedVaccineNames",
      "outputs": [
        {
          "internalType": "string",
          "name": "",
          "type": "string"
        }
      ],
      "stateMutability": "view",
      "type": "function",
      "constant": true
    },
    {
      "inputs": [
        {
          "internalType": "string",
          "name": "",
          "type": "string"
        }
      ],
      "name": "approvedVaccines",
      "outputs": [
        {
          "internalType": "string",
          "name": "name",
          "type": "string"
        },
        {
          "internalType": "string",
          "name": "ipfs_hash",
          "type": "string"
        },
        {
          "internalType": "bool",
          "name": "approved",
          "type": "bool"
        }
      ],
      "stateMutability": "view",
      "type": "function",
      "constant": true
    },
    {
      "inputs": [],
      "name": "fullyVaccinated",
      "outputs": [
        {
          "internalType": "uint256",
          "name": "",
          "type": "uint256"
        }
      ],
      "stateMutability": "view",
      "type": "function",
      "constant": true
    },
    {
      "inputs": [
        {
          "internalType": "address",
          "name": "",
          "type": "address"
        }
      ],
      "name": "healthPersons",
      "outputs": [
        {
          "internalType": "address",
          "name": "org",
          "type": "address"
        },
        {
          "internalType": "bool",
          "name": "approved",
          "type": "bool"
        }
      ],
      "stateMutability": "view",
      "type": "function",
      "constant": true
    },
    {
      "inputs": [
        {
          "internalType": "address",
          "name": "",
          "type": "address"
        }
      ],
      "name": "organizations",
      "outputs": [
        {
          "internalType": "string",
          "name": "name",
          "type": "string"
        },
        {
          "internalType": "string",
          "name": "location",
          "type": "string"
        },
        {
          "internalType": "string",
          "name": "ipfs_hash",
          "type": "string"
        },
        {
          "internalType": "bool",
          "name": "approved",
          "type": "bool"
        },
        {
          "internalType": "bool",
          "name": "registration",
          "type": "bool"
        },
        {
          "internalType": "uint256",
          "name": "vaccined",
          "type": "uint256"
        }
      ],
      "stateMutability": "view",
      "type": "function",
      "constant": true
    },
    {
      "inputs": [
        {
          "internalType": "uint256",
          "name": "",
          "type": "uint256"
        }
      ],
      "name": "organizationsList",
      "outputs": [
        {
          "internalType": "address",
          "name": "",
          "type": "address"
        }
      ],
      "stateMutability": "view",
      "type": "function",
      "constant": true
    },
    {
      "inputs": [],
      "name": "partiallyVaccinated",
      "outputs": [
        {
          "internalType": "uint256",
          "name": "",
          "type": "uint256"
        }
      ],
      "stateMutability": "view",
      "type": "function",
      "constant": true
    },
    {
      "inputs": [],
      "name": "superAdmin",
      "outputs": [
        {
          "internalType": "address",
          "name": "",
          "type": "address"
        }
      ],
      "stateMutability": "view",
      "type": "function",
      "constant": true
    },
    {
      "inputs": [
        {
          "internalType": "address",
          "name": "",
          "type": "address"
        }
      ],
      "name": "users",
      "outputs": [
        {
          "internalType": "uint256",
          "name": "year_of_birth",
          "type": "uint256"
        },
        {
          "internalType": "enum Vaccination.Gender",
          "name": "gender",
          "type": "uint8"
        },
        {
          "internalType": "string",
          "name": "namehash",
          "type": "string"
        },
        {
          "internalType": "string",
          "name": "imagehash",
          "type": "string"
        },
        {
          "internalType": "string",
          "name": "vaccine_name",
          "type": "string"
        },
        {
          "internalType": "uint256",
          "name": "vaccine_count",
          "type": "uint256"
        },
        {
          "internalType": "bool",
          "name": "registered",
          "type": "bool"
        }
      ],
      "stateMutability": "view",
      "type": "function",
      "constant": true
    },
    {
      "inputs": [
        {
          "internalType": "string",
          "name": "name",
          "type": "string"
        },
        {
          "internalType": "uint256[]",
          "name": "schedule",
          "type": "uint256[]"
        }
      ],
      "name": "approveVaccine",
      "outputs": [],
      "stateMutability": "nonpayable",
      "type": "function"
    },
    {
      "inputs": [
        {
          "internalType": "string",
          "name": "name",
          "type": "string"
        },
        {
          "internalType": "uint256",
          "name": "batch_id",
          "type": "uint256"
        },
        {
          "internalType": "uint256",
          "name": "defrost_date",
          "type": "uint256"
        },
        {
          "internalType": "uint256",
          "name": "manufacture_expiry",
          "type": "uint256"
        },
        {
          "internalType": "uint256",
          "name": "use_by_date",
          "type": "uint256"
        },
        {
          "internalType": "uint256",
          "name": "units",
          "type": "uint256"
        }
      ],
      "name": "addBatch",
      "outputs": [],
      "stateMutability": "nonpayable",
      "type": "function"
    },
    {
      "inputs": [
        {
          "internalType": "string",
          "name": "name",
          "type": "string"
        },
        {
          "internalType": "string",
          "name": "location",
          "type": "string"
        }
      ],
      "name": "registerOrganization",
      "outputs": [],
      "stateMutability": "payable",
      "type": "function",
      "payable": true
    },
    {
      "inputs": [
        {
          "internalType": "address",
          "name": "org",
          "type": "address"
        }
      ],
      "name": "approveOrganization",
      "outputs": [],
      "stateMutability": "nonpayable",
      "type": "function"
    },
    {
      "inputs": [
        {
          "internalType": "address",
          "name": "to",
          "type": "address"
        },
        {
          "internalType": "string",
          "name": "name",
          "type": "string"
        },
        {
          "internalType": "uint256",
          "name": "batch_id",
          "type": "uint256"
        },
        {
          "internalType": "uint256",
          "name": "units",
          "type": "uint256"
        }
      ],
      "name": "transfer",
      "outputs": [],
      "stateMutability": "nonpayable",
      "type": "function"
    },
    {
      "inputs": [
        {
          "internalType": "uint256",
          "name": "year_of_birth",
          "type": "uint256"
        },
        {
          "internalType": "enum Vaccination.Gender",
          "name": "gender",
          "type": "uint8"
        },
        {
          "internalType": "string",
          "name": "namehash",
          "type": "string"
        },
        {
          "internalType": "string",
          "name": "imagehash",
          "type": "string"
        }
      ],
      "name": "registerIndividual",
      "outputs": [],
      "stateMutability": "nonpayable",
      "type": "function"
    },
    {
      "inputs": [
        {
          "internalType": "address",
          "name": "person",
          "type": "address"
        }
      ],
      "name": "approveHealthPerson",
      "outputs": [],
      "stateMutability": "nonpayable",
      "type": "function"
    },
    {
      "inputs": [
        {
          "internalType": "address",
          "name": "to",
          "type": "address"
        },
        {
          "internalType": "string",
          "name": "name",
          "type": "string"
        },
        {
          "internalType": "uint256",
          "name": "batch_id",
          "type": "uint256"
        }
      ],
      "name": "vaccinate",
      "outputs": [],
      "stateMutability": "nonpayable",
      "type": "function"
    },
    {
      "inputs": [
        {
          "internalType": "string",
          "name": "name",
          "type": "string"
        },
        {
          "internalType": "uint256",
          "name": "batch_id",
          "type": "uint256"
        }
      ],
      "name": "checkBatch",
      "outputs": [],
      "stateMutability": "view",
      "type": "function",
      "constant": true
    },
    {
      "inputs": [
        {
          "internalType": "address",
          "name": "org",
          "type": "address"
        }
      ],
      "name": "checkOrganization",
      "outputs": [],
      "stateMutability": "view",
      "type": "function",
      "constant": true
    },
    {
      "inputs": [
        {
          "internalType": "string",
          "name": "name",
          "type": "string"
        }
      ],
      "name": "checkVaccine",
      "outputs": [],
      "stateMutability": "view",
      "type": "function",
      "constant": true
    },
    {
      "inputs": [
        {
          "internalType": "address",
          "name": "user",
          "type": "address"
        }
      ],
      "name": "getUserVaccineCount",
      "outputs": [
        {
          "internalType": "uint256",
          "name": "",
          "type": "uint256"
        }
      ],
      "stateMutability": "view",
      "type": "function",
      "constant": true
    },
    {
      "inputs": [
        {
          "internalType": "string",
          "name": "name",
          "type": "string"
        }
      ],
      "name": "getRequiredVaccineCount",
      "outputs": [
        {
          "internalType": "uint256",
          "name": "",
          "type": "uint256"
        }
      ],
      "stateMutability": "view",
      "type": "function",
      "constant": true
    },
    {
      "inputs": [],
      "name": "getTotalOrganization",
      "outputs": [
        {
          "internalType": "uint256",
          "name": "",
          "type": "uint256"
        }
      ],
      "stateMutability": "view",
      "type": "function",
      "constant": true
    },
    {
      "inputs": [],
      "name": "getAllOrganizations",
      "outputs": [
        {
          "internalType": "address[]",
          "name": "",
          "type": "address[]"
        }
      ],
      "stateMutability": "view",
      "type": "function",
      "constant": true
    },
    {
      "inputs": [
        {
          "internalType": "address",
          "name": "org",
          "type": "address"
        }
      ],
      "name": "getAllHealthPersons",
      "outputs": [
        {
          "internalType": "address[]",
          "name": "",
          "type": "address[]"
        }
      ],
      "stateMutability": "view",
      "type": "function",
      "constant": true
    },
    {
      "inputs": [
        {
          "internalType": "address",
          "name": "user",
          "type": "address"
        }
      ],
      "name": "getVaccineStatusOf",
      "outputs": [
        {
          "internalType": "enum Vaccination.VaccineStatus",
          "name": "status",
          "type": "uint8"
        }
      ],
      "stateMutability": "view",
      "type": "function",
      "constant": true
    },
    {
      "inputs": [
        {
          "internalType": "address",
          "name": "healthPerson",
          "type": "address"
        }
      ],
      "name": "getHealthPersonOrganization",
      "outputs": [
        {
          "internalType": "address",
          "name": "",
          "type": "address"
        }
      ],
      "stateMutability": "view",
      "type": "function",
      "constant": true
    },
    {
      "inputs": [
        {
          "internalType": "string",
          "name": "name",
          "type": "string"
        },
        {
          "internalType": "uint256",
          "name": "batch_id",
          "type": "uint256"
        },
        {
          "internalType": "address",
          "name": "healthPerson",
          "type": "address"
        }
      ],
      "name": "checkAvailability",
      "outputs": [],
      "stateMutability": "view",
      "type": "function",
      "constant": true
    },
    {
      "inputs": [
        {
          "internalType": "string",
          "name": "name",
          "type": "string"
        },
        {
          "internalType": "uint256",
          "name": "batch",
          "type": "uint256"
        },
        {
          "internalType": "address",
          "name": "org",
          "type": "address"
        }
      ],
      "name": "getAvailableVaccines",
      "outputs": [
        {
          "internalType": "uint256",
          "name": "",
          "type": "uint256"
        }
      ],
      "stateMutability": "view",
      "type": "function",
      "constant": true
    },
    {
      "inputs": [],
      "name": "getApprovedVaccinesLength",
      "outputs": [
        {
          "internalType": "uint256",
          "name": "",
          "type": "uint256"
        }
      ],
      "stateMutability": "view",
      "type": "function",
      "constant": true
    },
    {
      "inputs": [
        {
          "internalType": "string",
          "name": "name",
          "type": "string"
        }
      ],
      "name": "getVaccineApprovalStatus",
      "outputs": [
        {
          "internalType": "bool",
          "name": "",
          "type": "bool"
        }
      ],
      "stateMutability": "view",
      "type": "function",
      "constant": true
    },
    {
      "inputs": [],
      "name": "now",
      "outputs": [
        {
          "internalType": "uint256",
          "name": "",
          "type": "uint256"
        }
      ],
      "stateMutability": "view",
      "type": "function",
      "constant": true
    }
  ],
  "bytecode": "0x608060405234801561001057600080fd5b5033600760006101000a81548173ffffffffffffffffffffffffffffffffffffffff021916908373ffffffffffffffffffffffffffffffffffffffff160217905550614b53806100616000396000f3fe6080604052600436106101f95760003560e01c806369ed503f1161010d578063ab512808116100a0578063e09eaca51161006f578063e09eaca5146107ce578063ea1fc7471461080b578063ecfab03414610834578063fc1ba1601461085d578063ff6aa4ea14610886576101f9565b8063ab512808146106ee578063b168f0f01461072b578063cd5f31bb14610768578063cd96c2f814610791576101f9565b806391db02f8116100dc57806391db02f81461061a5780639cc5276114610657578063a62a3d2914610680578063a87430ba146106ab576101f9565b806369ed503f1461055e5780636b847d55146105875780637217fcfd146105c45780638abe09f2146105ef576101f9565b806329575f6a116101905780634cd89fc41161015f5780634cd89fc41461044d5780634d8335d01461048a5780635a1f7406146104b55780635fa932e8146104f7578063669ade7e14610520576101f9565b806329575f6a146103915780632eb1ca66146103bc5780633c419f53146103e75780633e1609ca14610424576101f9565b80631ee584ac116101cc5780631ee584ac146102ce57806322fce9211461030b578063247a50d81461034c57806325de97ef14610368576101f9565b806307c2f085146101fe578063086ed9381461023b57806314fa0c8b146102665780631bb9488d1461028f575b600080fd5b34801561020a57600080fd5b5061022560048036038101906102209190613716565b6108af565b60405161023291906141d9565b60405180910390f35b34801561024757600080fd5b506102506108f7565b60405161025d9190613e04565b60405180910390f35b34801561027257600080fd5b5061028d60048036038101906102889190613785565b610985565b005b34801561029b57600080fd5b506102b660048036038101906102b19190613581565b610db3565b6040516102c593929190613e7e565b60405180910390f35b3480156102da57600080fd5b506102f560048036038101906102f0919061382e565b610f10565b6040516103029190613dc0565b60405180910390f35b34801561031757600080fd5b50610332600480360381019061032d91906136ba565b610f4f565b604051610343959493929190614278565b60405180910390f35b61036660048036038101906103619190613642565b611030565b005b34801561037457600080fd5b5061038f600480360381019061038a9190613462565b611226565b005b34801561039d57600080fd5b506103a6611437565b6040516103b39190613dc0565b60405180910390f35b3480156103c857600080fd5b506103d161145d565b6040516103de91906141d9565b60405180910390f35b3480156103f357600080fd5b5061040e6004803603810190610409919061382e565b611463565b60405161041b9190613e5c565b60405180910390f35b34801561043057600080fd5b5061044b60048036038101906104469190613581565b61150f565b005b34801561045957600080fd5b50610474600480360381019061046f9190613462565b611580565b6040516104819190613dc0565b60405180910390f35b34801561049657600080fd5b5061049f6115ec565b6040516104ac91906141d9565b60405180910390f35b3480156104c157600080fd5b506104dc60048036038101906104d79190613462565b6115f9565b6040516104ee96959493929190613ec3565b60405180910390f35b34801561050357600080fd5b5061051e6004803603810190610519919061385b565b6117e7565b005b34801561052c57600080fd5b5061054760048036038101906105429190613462565b611a80565b604051610555929190613ddb565b60405180910390f35b34801561056a57600080fd5b506105856004803603810190610580919061348f565b611ad1565b005b34801561059357600080fd5b506105ae60048036038101906105a99190613462565b611df5565b6040516105bb91906141d9565b60405180910390f35b3480156105d057600080fd5b506105d9611e46565b6040516105e691906141d9565b60405180910390f35b3480156105fb57600080fd5b50610604611e53565b60405161061191906141d9565b60405180910390f35b34801561062657600080fd5b50610641600480360381019061063c9190613462565b611e5b565b60405161064e9190613e41565b60405180910390f35b34801561066357600080fd5b5061067e60048036038101906106799190613462565b611f4e565b005b34801561068c57600080fd5b5061069561215b565b6040516106a291906141d9565b60405180910390f35b3480156106b757600080fd5b506106d260048036038101906106cd9190613462565b612161565b6040516106e597969594939291906141f4565b60405180910390f35b3480156106fa57600080fd5b5061071560048036038101906107109190613581565b612355565b6040516107229190613e26565b60405180910390f35b34801561073757600080fd5b50610752600480360381019061074d9190613462565b61238c565b60405161075f9190613e04565b60405180910390f35b34801561077457600080fd5b5061078f600480360381019061078a9190613716565b61245c565b005b34801561079d57600080fd5b506107b860048036038101906107b39190613581565b6125f1565b6040516107c591906141d9565b60405180910390f35b3480156107da57600080fd5b506107f560048036038101906107f09190613716565b61261e565b60405161080291906141d9565b60405180910390f35b34801561081757600080fd5b50610832600480360381019061082d91906136ba565b612696565b005b34801561084057600080fd5b5061085b60048036038101906108569190613462565b61286b565b005b34801561086957600080fd5b50610884600480360381019061087f91906135ca565b61298c565b005b34801561089257600080fd5b506108ad60048036038101906108a891906134fe565b612b44565b005b60028380516020810182018051848252602083016020850120818352809550505050505060205281600052604060002060205280600052604060002060009250925050505481565b6060600880548060200260200160405190810160405280929190818152602001828054801561097b57602002820191906000526020600020905b8160009054906101000a900473ffffffffffffffffffffffffffffffffffffffff1673ffffffffffffffffffffffffffffffffffffffff1681526020019060010190808311610931575b5050505050905090565b600760009054906101000a900473ffffffffffffffffffffffffffffffffffffffff1673ffffffffffffffffffffffffffffffffffffffff163373ffffffffffffffffffffffffffffffffffffffff1614610a15576040517f08c379a0000000000000000000000000000000000000000000000000000000008152600401610a0c906141b9565b60405180910390fd5b60008511610a58576040517f08c379a0000000000000000000000000000000000000000000000000000000008152600401610a4f90614139565b60405180910390fd5b600086604051610a689190613d92565b908152602001604051809103902060040160009054906101000a900460ff16610ac6576040517f08c379a0000000000000000000000000000000000000000000000000000000008152600401610abd90614039565b60405180910390fd5b428410610b08576040517f08c379a0000000000000000000000000000000000000000000000000000000008152600401610aff90614079565b60405180910390fd5b428311610b4a576040517f08c379a0000000000000000000000000000000000000000000000000000000008152600401610b4190614159565b60405180910390fd5b428211610b8c576040517f08c379a0000000000000000000000000000000000000000000000000000000008152600401610b8390614199565b60405180910390fd5b84600187604051610b9d9190613d92565b908152602001604051809103902060008781526020019081526020016000206000018190555083600187604051610bd49190613d92565b908152602001604051809103902060008781526020019081526020016000206001018190555082600187604051610c0b9190613d92565b908152602001604051809103902060008781526020019081526020016000206002018190555081600187604051610c429190613d92565b9081526020016040518091039020600087815260200190815260200160002060030181905550600086604051610c789190613d92565b908152602001604051809103902060030185908060018154018082558091505060019003906000526020600020016000909190919091505580600287604051610cc19190613d92565b9081526020016040518091039020600087815260200190815260200160002060003373ffffffffffffffffffffffffffffffffffffffff1673ffffffffffffffffffffffffffffffffffffffff1681526020019081526020016000208190555080600460003373ffffffffffffffffffffffffffffffffffffffff1673ffffffffffffffffffffffffffffffffffffffff168152602001908152602001600020600701819055508486604051610d779190613d92565b60405180910390207f2c6cf3aff6e0f7a34f79efaef2eee135f21edfaf419ebf6f1befe4e3a3efde2060405160405180910390a3505050505050565b600081805160208101820180518482526020830160208501208183528095505050505050600091509050806000018054610dec90614527565b80601f0160208091040260200160405190810160405280929190818152602001828054610e1890614527565b8015610e655780601f10610e3a57610100808354040283529160200191610e65565b820191906000526020600020905b815481529060010190602001808311610e4857829003601f168201915b505050505090806001018054610e7a90614527565b80601f0160208091040260200160405190810160405280929190818152602001828054610ea690614527565b8015610ef35780601f10610ec857610100808354040283529160200191610ef3565b820191906000526020600020905b815481529060010190602001808311610ed657829003601f168201915b5050505050908060040160009054906101000a900460ff16905083565b60088181548110610f2057600080fd5b906000526020600020016000915054906101000a900473ffffffffffffffffffffffffffffffffffffffff1681565b60018280516020810182018051848252602083016020850120818352809550505050505060205280600052604060002060009150915050806000015490806001015490806002015490806003015490806004018054610fad90614527565b80601f0160208091040260200160405190810160405280929190818152602001828054610fd990614527565b80156110265780601f10610ffb57610100808354040283529160200191611026565b820191906000526020600020905b81548152906001019060200180831161100957829003601f168201915b5050505050905085565b600a341015611074576040517f08c379a000000000000000000000000000000000000000000000000000000000815260040161106b90613ff9565b60405180910390fd5b81600560003373ffffffffffffffffffffffffffffffffffffffff1673ffffffffffffffffffffffffffffffffffffffff16815260200190815260200160002060000190805190602001906110ca929190613225565b5080600560003373ffffffffffffffffffffffffffffffffffffffff1673ffffffffffffffffffffffffffffffffffffffff1681526020019081526020016000206001019080519060200190611121929190613225565b506001600560003373ffffffffffffffffffffffffffffffffffffffff1673ffffffffffffffffffffffffffffffffffffffff16815260200190815260200160002060040160016101000a81548160ff0219169083151502179055506008339080600181540180825580915050600190039060005260206000200160009091909190916101000a81548173ffffffffffffffffffffffffffffffffffffffff021916908373ffffffffffffffffffffffffffffffffffffffff160217905550816040516111ee9190613d92565b60405180910390207f464970519053c3da4a6516c6af01855284748b1531560ec3b1a4dcc74823688360405160405180910390a25050565b600560003373ffffffffffffffffffffffffffffffffffffffff1673ffffffffffffffffffffffffffffffffffffffff16815260200190815260200160002060040160009054906101000a900460ff166112b5576040517f08c379a00000000000000000000000000000000000000000000000000000000081526004016112ac906140d9565b60405180910390fd5b33600660008373ffffffffffffffffffffffffffffffffffffffff1673ffffffffffffffffffffffffffffffffffffffff16815260200190815260200160002060000160006101000a81548173ffffffffffffffffffffffffffffffffffffffff021916908373ffffffffffffffffffffffffffffffffffffffff1602179055506001600660008373ffffffffffffffffffffffffffffffffffffffff1673ffffffffffffffffffffffffffffffffffffffff16815260200190815260200160002060000160146101000a81548160ff021916908315150217905550600560003373ffffffffffffffffffffffffffffffffffffffff1673ffffffffffffffffffffffffffffffffffffffff168152602001908152602001600020600301819080600181540180825580915050600190039060005260206000200160009091909190916101000a81548173ffffffffffffffffffffffffffffffffffffffff021916908373ffffffffffffffffffffffffffffffffffffffff16021790555050565b600760009054906101000a900473ffffffffffffffffffffffffffffffffffffffff1681565b600a5481565b6003818154811061147357600080fd5b90600052602060002001600091509050805461148e90614527565b80601f01602080910402602001604051908101604052809291908181526020018280546114ba90614527565b80156115075780601f106114dc57610100808354040283529160200191611507565b820191906000526020600020905b8154815290600101906020018083116114ea57829003601f168201915b505050505081565b60008160405161151f9190613d92565b908152602001604051809103902060040160009054906101000a900460ff1661157d576040517f08c379a0000000000000000000000000000000000000000000000000000000008152600401611574906140b9565b60405180910390fd5b50565b6000600660008373ffffffffffffffffffffffffffffffffffffffff1673ffffffffffffffffffffffffffffffffffffffff16815260200190815260200160002060000160009054906101000a900473ffffffffffffffffffffffffffffffffffffffff169050919050565b6000600380549050905090565b600560205280600052604060002060009150905080600001805461161c90614527565b80601f016020809104026020016040519081016040528092919081815260200182805461164890614527565b80156116955780601f1061166a57610100808354040283529160200191611695565b820191906000526020600020905b81548152906001019060200180831161167857829003601f168201915b5050505050908060010180546116aa90614527565b80601f01602080910402602001604051908101604052809291908181526020018280546116d690614527565b80156117235780601f106116f857610100808354040283529160200191611723565b820191906000526020600020905b81548152906001019060200180831161170657829003601f168201915b50505050509080600201805461173890614527565b80601f016020809104026020016040519081016040528092919081815260200182805461176490614527565b80156117b15780601f10611786576101008083540402835291602001916117b1565b820191906000526020600020905b81548152906001019060200180831161179457829003601f168201915b5050505050908060040160009054906101000a900460ff16908060040160019054906101000a900460ff16908060050154905086565b60001515600460003373ffffffffffffffffffffffffffffffffffffffff1673ffffffffffffffffffffffffffffffffffffffff16815260200190815260200160002060080160009054906101000a900460ff1615151461187d576040517f08c379a000000000000000000000000000000000000000000000000000000000815260040161187490613f79565b60405180910390fd5b83600460003373ffffffffffffffffffffffffffffffffffffffff1673ffffffffffffffffffffffffffffffffffffffff1681526020019081526020016000206000018190555082600460003373ffffffffffffffffffffffffffffffffffffffff1673ffffffffffffffffffffffffffffffffffffffff16815260200190815260200160002060010160006101000a81548160ff0219169083600281111561192957611928614602565b5b021790555081600460003373ffffffffffffffffffffffffffffffffffffffff1673ffffffffffffffffffffffffffffffffffffffff1681526020019081526020016000206002019080519060200190611984929190613225565b5080600460003373ffffffffffffffffffffffffffffffffffffffff1673ffffffffffffffffffffffffffffffffffffffff16815260200190815260200160002060030190805190602001906119db929190613225565b506001600460003373ffffffffffffffffffffffffffffffffffffffff1673ffffffffffffffffffffffffffffffffffffffff16815260200190815260200160002060080160006101000a81548160ff0219169083151502179055503373ffffffffffffffffffffffffffffffffffffffff167fec2103278c3c80a6d7b51d03d161f98073de470c933d17309f7e46ebccd8c1ea60405160405180910390a250505050565b60066020528060005260406000206000915090508060000160009054906101000a900473ffffffffffffffffffffffffffffffffffffffff16908060000160149054906101000a900460ff16905082565b600660003373ffffffffffffffffffffffffffffffffffffffff1673ffffffffffffffffffffffffffffffffffffffff16815260200190815260200160002060000160149054906101000a900460ff16611b60576040517f08c379a0000000000000000000000000000000000000000000000000000000008152600401611b5790614119565b60405180910390fd5b611b6983612e0f565b611b7482823361245c565b611b7e8383612ea8565b81600460008573ffffffffffffffffffffffffffffffffffffffff1673ffffffffffffffffffffffffffffffffffffffff1681526020019081526020016000206004019080519060200190611bd4929190613225565b50600460008473ffffffffffffffffffffffffffffffffffffffff1673ffffffffffffffffffffffffffffffffffffffff168152602001908152602001600020600501819080600181540180825580915050600190039060005260206000200160009091909190915055600460008473ffffffffffffffffffffffffffffffffffffffff1673ffffffffffffffffffffffffffffffffffffffff1681526020019081526020016000206006014290806001815401808255809150506001900390600052602060002001600090919091909150556001600460008573ffffffffffffffffffffffffffffffffffffffff1673ffffffffffffffffffffffffffffffffffffffff1681526020019081526020016000206007016000828254611cfa91906143c9565b925050819055506001600283604051611d139190613d92565b908152602001604051809103902060008381526020019081526020016000206000600660003373ffffffffffffffffffffffffffffffffffffffff1673ffffffffffffffffffffffffffffffffffffffff16815260200190815260200160002060000160009054906101000a900473ffffffffffffffffffffffffffffffffffffffff1673ffffffffffffffffffffffffffffffffffffffff1673ffffffffffffffffffffffffffffffffffffffff1681526020019081526020016000206000828254611de0919061441f565b92505081905550611df083613185565b505050565b600080600460008473ffffffffffffffffffffffffffffffffffffffff1673ffffffffffffffffffffffffffffffffffffffff16815260200190815260200160002060070154905080915050919050565b6000600880549050905090565b600042905090565b600080600460008473ffffffffffffffffffffffffffffffffffffffff1673ffffffffffffffffffffffffffffffffffffffff168152602001908152602001600020600701549050600080600460008673ffffffffffffffffffffffffffffffffffffffff1673ffffffffffffffffffffffffffffffffffffffff168152602001908152602001600020600401604051611ef59190613da9565b90815260200160405180910390206002018054905090506000821415611f2057600092505050611f49565b80821015611f3357600192505050611f49565b80821415611f4657600292505050611f49565b50505b919050565b600760009054906101000a900473ffffffffffffffffffffffffffffffffffffffff1673ffffffffffffffffffffffffffffffffffffffff163373ffffffffffffffffffffffffffffffffffffffff1614611fde576040517f08c379a0000000000000000000000000000000000000000000000000000000008152600401611fd5906141b9565b60405180910390fd5b600560008273ffffffffffffffffffffffffffffffffffffffff1673ffffffffffffffffffffffffffffffffffffffff16815260200190815260200160002060040160019054906101000a900460ff1661206d576040517f08c379a000000000000000000000000000000000000000000000000000000000815260040161206490614019565b60405180910390fd5b600560008273ffffffffffffffffffffffffffffffffffffffff1673ffffffffffffffffffffffffffffffffffffffff16815260200190815260200160002060040160009054906101000a900460ff16156120fd576040517f08c379a00000000000000000000000000000000000000000000000000000000081526004016120f490613fd9565b60405180910390fd5b6001600560008373ffffffffffffffffffffffffffffffffffffffff1673ffffffffffffffffffffffffffffffffffffffff16815260200190815260200160002060040160006101000a81548160ff02191690831515021790555050565b60095481565b60046020528060005260406000206000915090508060000154908060010160009054906101000a900460ff169080600201805461219d90614527565b80601f01602080910402602001604051908101604052809291908181526020018280546121c990614527565b80156122165780601f106121eb57610100808354040283529160200191612216565b820191906000526020600020905b8154815290600101906020018083116121f957829003601f168201915b50505050509080600301805461222b90614527565b80601f016020809104026020016040519081016040528092919081815260200182805461225790614527565b80156122a45780601f10612279576101008083540402835291602001916122a4565b820191906000526020600020905b81548152906001019060200180831161228757829003601f168201915b5050505050908060040180546122b990614527565b80601f01602080910402602001604051908101604052809291908181526020018280546122e590614527565b80156123325780601f1061230757610100808354040283529160200191612332565b820191906000526020600020905b81548152906001019060200180831161231557829003601f168201915b5050505050908060070154908060080160009054906101000a900460ff16905087565b600080826040516123669190613d92565b908152602001604051809103902060040160009054906101000a900460ff169050919050565b6060600560008373ffffffffffffffffffffffffffffffffffffffff1673ffffffffffffffffffffffffffffffffffffffff16815260200190815260200160002060030180548060200260200160405190810160405280929190818152602001828054801561245057602002820191906000526020600020905b8160009054906101000a900473ffffffffffffffffffffffffffffffffffffffff1673ffffffffffffffffffffffffffffffffffffffff1681526020019060010190808311612406575b50505050509050919050565b600115156000846040516124709190613d92565b908152602001604051809103902060040160009054906101000a900460ff161515146124d1576040517f08c379a00000000000000000000000000000000000000000000000000000000081526004016124c890613fb9565b60405180910390fd5b6124db8383612696565b60006002846040516124ed9190613d92565b908152602001604051809103902060008481526020019081526020016000206000600660008573ffffffffffffffffffffffffffffffffffffffff1673ffffffffffffffffffffffffffffffffffffffff16815260200190815260200160002060000160009054906101000a900473ffffffffffffffffffffffffffffffffffffffff1673ffffffffffffffffffffffffffffffffffffffff1673ffffffffffffffffffffffffffffffffffffffff16815260200190815260200160002054116125ec576040517f08c379a00000000000000000000000000000000000000000000000000000000081526004016125e390613f99565b60405180910390fd5b505050565b600080826040516126029190613d92565b9081526020016040518091039020600201805490509050919050565b60006002846040516126309190613d92565b9081526020016040518091039020600084815260200190815260200160002060008373ffffffffffffffffffffffffffffffffffffffff1673ffffffffffffffffffffffffffffffffffffffff1681526020019081526020016000205490509392505050565b60006001836040516126a89190613d92565b90815260200160405180910390206000838152602001908152602001600020600001541161270b576040517f08c379a000000000000000000000000000000000000000000000000000000000815260040161270290614139565b60405180910390fd5b4260018360405161271c9190613d92565b90815260200160405180910390206000838152602001908152602001600020600101541061277f576040517f08c379a000000000000000000000000000000000000000000000000000000000815260040161277690614079565b60405180910390fd5b426001836040516127909190613d92565b9081526020016040518091039020600083815260200190815260200160002060020154116127f3576040517f08c379a00000000000000000000000000000000000000000000000000000000081526004016127ea90614159565b60405180910390fd5b426001836040516128049190613d92565b908152602001604051809103902060008381526020019081526020016000206003015411612867576040517f08c379a000000000000000000000000000000000000000000000000000000000815260040161285e90614199565b60405180910390fd5b5050565b600560008273ffffffffffffffffffffffffffffffffffffffff1673ffffffffffffffffffffffffffffffffffffffff16815260200190815260200160002060040160019054906101000a900460ff166128fa576040517f08c379a00000000000000000000000000000000000000000000000000000000081526004016128f190613f39565b60405180910390fd5b600560008273ffffffffffffffffffffffffffffffffffffffff1673ffffffffffffffffffffffffffffffffffffffff16815260200190815260200160002060040160009054906101000a900460ff16612989576040517f08c379a000000000000000000000000000000000000000000000000000000000815260040161298090613f59565b60405180910390fd5b50565b600760009054906101000a900473ffffffffffffffffffffffffffffffffffffffff1673ffffffffffffffffffffffffffffffffffffffff163373ffffffffffffffffffffffffffffffffffffffff1614612a1c576040517f08c379a0000000000000000000000000000000000000000000000000000000008152600401612a13906141b9565b60405180910390fd5b81600083604051612a2d9190613d92565b90815260200160405180910390206000019080519060200190612a51929190613225565b5080600083604051612a639190613d92565b90815260200160405180910390206002019080519060200190612a879291906132ab565b50600382908060018154018082558091505060019003906000526020600020016000909190919091509080519060200190612ac3929190613225565b506001600083604051612ad69190613d92565b908152602001604051809103902060040160006101000a81548160ff02191690831515021790555081604051612b0c9190613d92565b60405180910390207f9db18d96585d3ea407a3cd4bc1ecedb2bbc4188986b624b0e85d74caecce964b60405160405180910390a25050565b600760009054906101000a900473ffffffffffffffffffffffffffffffffffffffff1673ffffffffffffffffffffffffffffffffffffffff163373ffffffffffffffffffffffffffffffffffffffff1614612bd4576040517f08c379a0000000000000000000000000000000000000000000000000000000008152600401612bcb906141b9565b60405180910390fd5b612bdd8461286b565b612be68361150f565b612bf08383612696565b80600284604051612c019190613d92565b9081526020016040518091039020600084815260200190815260200160002060003373ffffffffffffffffffffffffffffffffffffffff1673ffffffffffffffffffffffffffffffffffffffff168152602001908152602001600020541015612c9f576040517f08c379a0000000000000000000000000000000000000000000000000000000008152600401612c9690614099565b60405180910390fd5b80600284604051612cb09190613d92565b9081526020016040518091039020600084815260200190815260200160002060003373ffffffffffffffffffffffffffffffffffffffff1673ffffffffffffffffffffffffffffffffffffffff1681526020019081526020016000206000828254612d1b919061441f565b9250508190555080600284604051612d339190613d92565b9081526020016040518091039020600084815260200190815260200160002060008673ffffffffffffffffffffffffffffffffffffffff1673ffffffffffffffffffffffffffffffffffffffff1681526020019081526020016000206000828254612d9e91906143c9565b9250508190555082604051612db39190613d92565b60405180910390208473ffffffffffffffffffffffffffffffffffffffff167f4e2ff4923c3e767530d0bd26e60dd9043c7f4461e83947851dde360e0a106b7584604051612e0191906141d9565b60405180910390a350505050565b60011515600460008373ffffffffffffffffffffffffffffffffffffffff1673ffffffffffffffffffffffffffffffffffffffff16815260200190815260200160002060080160009054906101000a900460ff16151514612ea5576040517f08c379a0000000000000000000000000000000000000000000000000000000008152600401612e9c906140f9565b60405180910390fd5b50565b60011515600082604051612ebc9190613d92565b908152602001604051809103902060040160009054906101000a900460ff16151514612f1d576040517f08c379a0000000000000000000000000000000000000000000000000000000008152600401612f1490614039565b60405180910390fd5b6000600460008473ffffffffffffffffffffffffffffffffffffffff1673ffffffffffffffffffffffffffffffffffffffff1681526020019081526020016000206004018054612f6c90614527565b80601f0160208091040260200160405190810160405280929190818152602001828054612f9890614527565b8015612fe55780601f10612fba57610100808354040283529160200191612fe5565b820191906000526020600020905b815481529060010190602001808311612fc857829003601f168201915b50505050509050600082905060008251111561312057805182511461303f576040517f08c379a000000000000000000000000000000000000000000000000000000000815260040161303690614059565b60405180910390fd5b60005b825181101561311e5781818151811061305e5761305d614660565b5b602001015160f81c60f81b7effffffffffffffffffffffffffffffffffffffffffffffffffffffffffffff191683828151811061309e5761309d614660565b5b602001015160f81c60f81b7effffffffffffffffffffffffffffffffffffffffffffffffffffffffffffff19161461310b576040517f08c379a000000000000000000000000000000000000000000000000000000000815260040161310290614059565b60405180910390fd5b80806131169061458a565b915050613042565b505b600061312b85611df5565b90506000613138856125f1565b90508082141561317d576040517f08c379a000000000000000000000000000000000000000000000000000000000815260040161317490614179565b60405180910390fd5b505050505050565b600061319082611e5b565b90506002808111156131a5576131a4614602565b5b8160028111156131b8576131b7614602565b5b14156131d9576001600a60008282546131d191906143c9565b925050819055505b600160028111156131ed576131ec614602565b5b816002811115613200576131ff614602565b5b14156132215760016009600082825461321991906143c9565b925050819055505b5050565b82805461323190614527565b90600052602060002090601f016020900481019282613253576000855561329a565b82601f1061326c57805160ff191683800117855561329a565b8280016001018555821561329a579182015b8281111561329957825182559160200191906001019061327e565b5b5090506132a791906132f8565b5090565b8280548282559060005260206000209081019282156132e7579160200282015b828111156132e65782518255916020019190600101906132cb565b5b5090506132f491906132f8565b5090565b5b808211156133115760008160009055506001016132f9565b5090565b6000613328613323846142f7565b6142d2565b9050808382526020820190508285602086028201111561334b5761334a6146c3565b5b60005b8581101561337b5781613361888261344d565b84526020840193506020830192505060018101905061334e565b5050509392505050565b600061339861339384614323565b6142d2565b9050828152602081018484840111156133b4576133b36146c8565b5b6133bf8482856144e5565b509392505050565b6000813590506133d681614adf565b92915050565b600082601f8301126133f1576133f06146be565b5b8135613401848260208601613315565b91505092915050565b60008135905061341981614af6565b92915050565b600082601f830112613434576134336146be565b5b8135613444848260208601613385565b91505092915050565b60008135905061345c81614b06565b92915050565b600060208284031215613478576134776146d2565b5b6000613486848285016133c7565b91505092915050565b6000806000606084860312156134a8576134a76146d2565b5b60006134b6868287016133c7565b935050602084013567ffffffffffffffff8111156134d7576134d66146cd565b5b6134e38682870161341f565b92505060406134f48682870161344d565b9150509250925092565b60008060008060808587031215613518576135176146d2565b5b6000613526878288016133c7565b945050602085013567ffffffffffffffff811115613547576135466146cd565b5b6135538782880161341f565b93505060406135648782880161344d565b92505060606135758782880161344d565b91505092959194509250565b600060208284031215613597576135966146d2565b5b600082013567ffffffffffffffff8111156135b5576135b46146cd565b5b6135c18482850161341f565b91505092915050565b600080604083850312156135e1576135e06146d2565b5b600083013567ffffffffffffffff8111156135ff576135fe6146cd565b5b61360b8582860161341f565b925050602083013567ffffffffffffffff81111561362c5761362b6146cd565b5b613638858286016133dc565b9150509250929050565b60008060408385031215613659576136586146d2565b5b600083013567ffffffffffffffff811115613677576136766146cd565b5b6136838582860161341f565b925050602083013567ffffffffffffffff8111156136a4576136a36146cd565b5b6136b08582860161341f565b9150509250929050565b600080604083850312156136d1576136d06146d2565b5b600083013567ffffffffffffffff8111156136ef576136ee6146cd565b5b6136fb8582860161341f565b925050602061370c8582860161344d565b9150509250929050565b60008060006060848603121561372f5761372e6146d2565b5b600084013567ffffffffffffffff81111561374d5761374c6146cd565b5b6137598682870161341f565b935050602061376a8682870161344d565b925050604061377b868287016133c7565b9150509250925092565b60008060008060008060c087890312156137a2576137a16146d2565b5b600087013567ffffffffffffffff8111156137c0576137bf6146cd565b5b6137cc89828a0161341f565b96505060206137dd89828a0161344d565b95505060406137ee89828a0161344d565b94505060606137ff89828a0161344d565b935050608061381089828a0161344d565b92505060a061382189828a0161344d565b9150509295509295509295565b600060208284031215613844576138436146d2565b5b60006138528482850161344d565b91505092915050565b60008060008060808587031215613875576138746146d2565b5b60006138838782880161344d565b94505060206138948782880161340a565b935050604085013567ffffffffffffffff8111156138b5576138b46146cd565b5b6138c18782880161341f565b925050606085013567ffffffffffffffff8111156138e2576138e16146cd565b5b6138ee8782880161341f565b91505092959194509250565b60006139068383613912565b60208301905092915050565b61391b81614453565b82525050565b61392a81614453565b82525050565b600061393b82614379565b613945818561439c565b935061395083614354565b8060005b8381101561398157815161396888826138fa565b97506139738361438f565b925050600181019050613954565b5085935050505092915050565b61399781614465565b82525050565b6139a6816144c1565b82525050565b6139b5816144d3565b82525050565b60006139c682614384565b6139d081856143ad565b93506139e08185602086016144f4565b6139e9816146d7565b840191505092915050565b60006139ff82614384565b613a0981856143be565b9350613a198185602086016144f4565b80840191505092915050565b60008154613a3281614527565b613a3c81866143be565b94506001821660008114613a575760018114613a6857613a9b565b60ff19831686528186019350613a9b565b613a7185614364565b60005b83811015613a9357815481890152600182019150602081019050613a74565b838801955050505b50505092915050565b6000613ab16015836143ad565b9150613abc826146e8565b602082019050919050565b6000613ad4601d836143ad565b9150613adf82614711565b602082019050919050565b6000613af76013836143ad565b9150613b028261473a565b602082019050919050565b6000613b1a6017836143ad565b9150613b2582614763565b602082019050919050565b6000613b3d6015836143ad565b9150613b488261478c565b602082019050919050565b6000613b606021836143ad565b9150613b6b826147b5565b604082019050919050565b6000613b836014836143ad565b9150613b8e82614804565b602082019050919050565b6000613ba6602c836143ad565b9150613bb18261482d565b604082019050919050565b6000613bc96018836143ad565b9150613bd48261487c565b602082019050919050565b6000613bec6017836143ad565b9150613bf7826148a5565b602082019050919050565b6000613c0f601c836143ad565b9150613c1a826148ce565b602082019050919050565b6000613c326016836143ad565b9150613c3d826148f7565b602082019050919050565b6000613c556014836143ad565b9150613c6082614920565b602082019050919050565b6000613c78600c836143ad565b9150613c8382614949565b602082019050919050565b6000613c9b6011836143ad565b9150613ca682614972565b602082019050919050565b6000613cbe600c836143ad565b9150613cc98261499b565b602082019050919050565b6000613ce1600d836143ad565b9150613cec826149c4565b602082019050919050565b6000613d046007836143ad565b9150613d0f826149ed565b602082019050919050565b6000613d276019836143ad565b9150613d3282614a16565b602082019050919050565b6000613d4a6022836143ad565b9150613d5582614a3f565b604082019050919050565b6000613d6d600a836143ad565b9150613d7882614a8e565b602082019050919050565b613d8c816144b7565b82525050565b6000613d9e82846139f4565b915081905092915050565b6000613db58284613a25565b915081905092915050565b6000602082019050613dd56000830184613921565b92915050565b6000604082019050613df06000830185613921565b613dfd602083018461398e565b9392505050565b60006020820190508181036000830152613e1e8184613930565b905092915050565b6000602082019050613e3b600083018461398e565b92915050565b6000602082019050613e5660008301846139ac565b92915050565b60006020820190508181036000830152613e7681846139bb565b905092915050565b60006060820190508181036000830152613e9881866139bb565b90508181036020830152613eac81856139bb565b9050613ebb604083018461398e565b949350505050565b600060c0820190508181036000830152613edd81896139bb565b90508181036020830152613ef181886139bb565b90508181036040830152613f0581876139bb565b9050613f14606083018661398e565b613f21608083018561398e565b613f2e60a0830184613d83565b979650505050505050565b60006020820190508181036000830152613f5281613aa4565b9050919050565b60006020820190508181036000830152613f7281613ac7565b9050919050565b60006020820190508181036000830152613f9281613aea565b9050919050565b60006020820190508181036000830152613fb281613b0d565b9050919050565b60006020820190508181036000830152613fd281613b30565b9050919050565b60006020820190508181036000830152613ff281613b53565b9050919050565b6000602082019050818103600083015261401281613b76565b9050919050565b6000602082019050818103600083015261403281613b99565b9050919050565b6000602082019050818103600083015261405281613bbc565b9050919050565b6000602082019050818103600083015261407281613bdf565b9050919050565b6000602082019050818103600083015261409281613c02565b9050919050565b600060208201905081810360008301526140b281613c25565b9050919050565b600060208201905081810360008301526140d281613c48565b9050919050565b600060208201905081810360008301526140f281613c6b565b9050919050565b6000602082019050818103600083015261411281613c8e565b9050919050565b6000602082019050818103600083015261413281613cb1565b9050919050565b6000602082019050818103600083015261415281613cd4565b9050919050565b6000602082019050818103600083015261417281613cf7565b9050919050565b6000602082019050818103600083015261419281613d1a565b9050919050565b600060208201905081810360008301526141b281613d3d565b9050919050565b600060208201905081810360008301526141d281613d60565b9050919050565b60006020820190506141ee6000830184613d83565b92915050565b600060e082019050614209600083018a613d83565b614216602083018961399d565b818103604083015261422881886139bb565b9050818103606083015261423c81876139bb565b9050818103608083015261425081866139bb565b905061425f60a0830185613d83565b61426c60c083018461398e565b98975050505050505050565b600060a08201905061428d6000830188613d83565b61429a6020830187613d83565b6142a76040830186613d83565b6142b46060830185613d83565b81810360808301526142c681846139bb565b90509695505050505050565b60006142dc6142ed565b90506142e88282614559565b919050565b6000604051905090565b600067ffffffffffffffff8211156143125761431161468f565b5b602082029050602081019050919050565b600067ffffffffffffffff82111561433e5761433d61468f565b5b614347826146d7565b9050602081019050919050565b6000819050602082019050919050565b60008190508160005260206000209050919050565b600081519050919050565b600081519050919050565b6000602082019050919050565b600082825260208201905092915050565b600082825260208201905092915050565b600081905092915050565b60006143d4826144b7565b91506143df836144b7565b9250827fffffffffffffffffffffffffffffffffffffffffffffffffffffffffffffffff03821115614414576144136145d3565b5b828201905092915050565b600061442a826144b7565b9150614435836144b7565b925082821015614448576144476145d3565b5b828203905092915050565b600061445e82614497565b9050919050565b60008115159050919050565b600081905061447f82614ab7565b919050565b600081905061449282614acb565b919050565b600073ffffffffffffffffffffffffffffffffffffffff82169050919050565b6000819050919050565b60006144cc82614471565b9050919050565b60006144de82614484565b9050919050565b82818337600083830152505050565b60005b838110156145125780820151818401526020810190506144f7565b83811115614521576000848401525b50505050565b6000600282049050600182168061453f57607f821691505b6020821081141561455357614552614631565b5b50919050565b614562826146d7565b810181811067ffffffffffffffff821117156145815761458061468f565b5b80604052505050565b6000614595826144b7565b91507fffffffffffffffffffffffffffffffffffffffffffffffffffffffffffffffff8214156145c8576145c76145d3565b5b600182019050919050565b7f4e487b7100000000000000000000000000000000000000000000000000000000600052601160045260246000fd5b7f4e487b7100000000000000000000000000000000000000000000000000000000600052602160045260246000fd5b7f4e487b7100000000000000000000000000000000000000000000000000000000600052602260045260246000fd5b7f4e487b7100000000000000000000000000000000000000000000000000000000600052603260045260246000fd5b7f4e487b7100000000000000000000000000000000000000000000000000000000600052604160045260246000fd5b600080fd5b600080fd5b600080fd5b600080fd5b600080fd5b6000601f19601f8301169050919050565b7f496e76616c6964206f7267616e697a6174696f6e2e0000000000000000000000600082015250565b7f4f7267616e697a6174696f6e206973206e6f7420617070726f7665642e000000600082015250565b7f416c726561647920726567697374657265642e00000000000000000000000000600082015250565b7f496e73756666696369656e742076616363696e652e2e2e000000000000000000600082015250565b7f56616363696e65206e6f7420617070726f7665642e0000000000000000000000600082015250565b7f4f7267616e697a6174696f6e20697320616c726561647920617070726f76656460008201527f2e00000000000000000000000000000000000000000000000000000000000000602082015250565b7f496e73756666696369656e7420616d6f756e742e000000000000000000000000600082015250565b7f4f7267616e697a6174696f6e206d75737420666972737420726567697374657260008201527f20746f20617070726f76652e0000000000000000000000000000000000000000602082015250565b7f56616363696e65206973206e6f7420617070726f7665642e0000000000000000600082015250565b7f56616363696e65206e6f7420636f6d70617469626c652e000000000000000000600082015250565b7f4d7573742062652070726576696f75736c7920646566726f7374656400000000600082015250565b7f496e73756666696369656e742076616363696e65732e00000000000000000000600082015250565b7f56616363696e65206e6f7420617070726f766564000000000000000000000000600082015250565b7f4f7267616e697a6174696f6e0000000000000000000000000000000000000000600082015250565b7f556e726567697374657265642075736572000000000000000000000000000000600082015250565b7f4865616c7468506572736f6e0000000000000000000000000000000000000000600082015250565b7f496e76616c696420626174636800000000000000000000000000000000000000600082015250565b7f4578706972656400000000000000000000000000000000000000000000000000600082015250565b7f46756c6c792076616363696e6174656420616c72656164792e00000000000000600082015250565b7f4d7573742062652075736564207072696f7220746f207573652062792064617460008201527f652e000000000000000000000000000000000000000000000000000000000000602082015250565b7f737570657241646d696e00000000000000000000000000000000000000000000600082015250565b60038110614ac857614ac7614602565b5b50565b60038110614adc57614adb614602565b5b50565b614ae881614453565b8114614af357600080fd5b50565b60038110614b0357600080fd5b50565b614b0f816144b7565b8114614b1a57600080fd5b5056fea2646970667358221220db19c8b921c8bdcb032680ec85b5f2a3c5d4129d9d44da906de65ae14f8eb74f64736f6c63430008050033",
  "immutableReferences": {},
  "source": "// SPDX-License-Identifier: MIT\npragma solidity >=0.4.22 <0.9.0;\n\nuint256 constant REGISTRATION_COST = 10;\n\ncontract Vaccination {\n    enum VaccineStatus {\n        UNVACCINATED,\n        PARTIALLY_VACCINATED,\n        FULLY_VACCINATED\n    }\n\n    enum Gender {\n        MALE,\n        FEMALE,\n        UNSPECIFIED\n    }\n\n    struct Vaccine {\n        string name;\n        uint256 batch_no;\n        uint256 vaccination_datetime;\n        // uint256 serialNo;\n    }\n\n    struct BatchDetails {\n        uint256 batch_id;\n        uint256 defrost_date;\n        uint256 manufacture_expiry;\n        uint256 use_by_date;\n        string ipfs_hash;\n    }\n\n    struct VaccineDetails {\n        string name;\n        // string platform;\n        // string route;\n        string ipfs_hash;\n        uint256[] schedule;\n        uint256[] batches;\n        bool approved;\n    }\n\n    struct User {\n        uint256 year_of_birth;\n        Gender gender;\n        string namehash;\n        string imagehash;\n        string vaccine_name;\n        uint256[] batches;\n        uint256[] datetime;\n        uint256 vaccine_count;\n        bool registered;\n    }\n\n    struct Organization {\n        string name;\n        string location;\n        string ipfs_hash;\n        address[] healthPersons;\n        bool approved;\n        bool registration;\n        uint256 vaccined;\n    }\n\n    struct HealthPerson {\n        address org;\n        bool approved;\n    }\n\n    mapping(string => VaccineDetails) public approvedVaccines;\n    mapping(string => mapping(uint256 => BatchDetails)) public approvedBatches;\n    mapping(string => mapping(uint256 => mapping(address => uint256)))\n        public approvedOperators;\n\n    string[] public approvedVaccineNames;\n\n    mapping(address => User) public users;\n    mapping(address => Organization) public organizations;\n    mapping(address => HealthPerson) public healthPersons;\n\n    address public superAdmin;\n\n    address[] public organizationsList;\n\n    // uint256 public registered;\n    uint256 public partiallyVaccinated;\n    uint256 public fullyVaccinated;\n\n    //uint256 public total_vaccines;\n    event ApproveVaccine(string indexed vaccine_name);\n    event AddBatch(string indexed vaccine_name, uint256 indexed batch_no);\n    event ApproveOrganization(string indexed org_name);\n    event TransferVaccine(\n        address indexed to,\n        string indexed vaccine_name,\n        uint256 batch_no\n    );\n\n    event RegisterOrganization(string indexed org_name);\n    event ApproveHealthPerson(address indexed from, address indexed to);\n\n    event RegisterHealthPerson(address indexed _from);\n\n    event RegisterIndividual(address indexed _from);\n\n    constructor() {\n        superAdmin = msg.sender;\n    }\n\n    function approveVaccine(string memory name, uint256[] memory schedule)\n        public\n        onlySuperAdmin\n    {\n        approvedVaccines[name].name = name;\n        approvedVaccines[name].schedule = schedule;\n        approvedVaccineNames.push(name);\n        approvedVaccines[name].approved = true;\n        emit ApproveVaccine(name);\n    }\n\n    function addBatch(\n        string memory name,\n        uint256 batch_id,\n        uint256 defrost_date,\n        uint256 manufacture_expiry,\n        uint256 use_by_date,\n        uint256 units\n    ) public onlySuperAdmin {\n        require(batch_id > 0, \"Invalid batch\");\n        require(approvedVaccines[name].approved, \"Vaccine is not approved.\");\n\n        //Check dates\n        require(defrost_date < block.timestamp, \"Must be previously defrosted\");\n        require(manufacture_expiry > block.timestamp, \"Expired\");\n        require(\n            use_by_date > block.timestamp,\n            \"Must be used prior to use by date.\"\n        );\n\n        approvedBatches[name][batch_id].batch_id = batch_id;\n        approvedBatches[name][batch_id].defrost_date = defrost_date;\n        approvedBatches[name][batch_id].manufacture_expiry = manufacture_expiry;\n        approvedBatches[name][batch_id].use_by_date = use_by_date;\n        approvedVaccines[name].batches.push(batch_id);\n        approvedOperators[name][batch_id][msg.sender] = units;\n        users[msg.sender].vaccine_count = units;\n        emit AddBatch(name, batch_id);\n    }\n\n    function registerOrganization(string memory name, string memory location)\n        public\n        payable\n    {\n        if (msg.value < REGISTRATION_COST) {\n            revert(\"Insufficient amount.\");\n        }\n        organizations[msg.sender].name = name;\n        organizations[msg.sender].location = location;\n        organizations[msg.sender].registration = true;\n        organizationsList.push(msg.sender);\n        emit RegisterOrganization(name);\n    }\n\n    function approveOrganization(address org) public onlySuperAdmin {\n        if (!organizations[org].registration) {\n            revert(\"Organization must first register to approve.\");\n        }\n        if (organizations[org].approved) {\n            revert(\"Organization is already approved.\");\n        }\n        organizations[org].approved = true;\n    }\n\n    function transfer(\n        address to,\n        string memory name,\n        uint256 batch_id,\n        uint256 units\n    ) public onlySuperAdmin {\n        checkOrganization(to);\n        checkVaccine(name);\n        checkBatch(name, batch_id);\n\n        if (approvedOperators[name][batch_id][msg.sender] < units) {\n            revert(\"Insufficient vaccines.\");\n        }\n        approvedOperators[name][batch_id][msg.sender] -= units;\n        approvedOperators[name][batch_id][to] += units;\n        emit TransferVaccine(to, name, batch_id);\n    }\n\n    function registerIndividual(\n        uint256 year_of_birth,\n        Gender gender,\n        string memory namehash,\n        string memory imagehash\n    ) public {\n        require(users[msg.sender].registered == false, \"Already registered.\");\n        users[msg.sender].year_of_birth = year_of_birth;\n        users[msg.sender].gender = gender;\n        users[msg.sender].namehash = namehash;\n        users[msg.sender].imagehash = imagehash;\n        users[msg.sender].registered = true;\n        emit RegisterIndividual(msg.sender);\n    }\n\n    function approveHealthPerson(address person) public onlyOrganization {\n        healthPersons[person].org = msg.sender;\n        healthPersons[person].approved = true;\n        organizations[msg.sender].healthPersons.push(person);\n    }\n\n    function vaccinate(\n        address to,\n        string memory name,\n        uint256 batch_id\n    ) public onlyHealthPerson {\n        checkUserRegistration(to);\n        checkAvailability(name, batch_id, msg.sender);\n        checkUserVaccineCompatibility(to, name);\n        users[to].vaccine_name = name;\n        users[to].batches.push(batch_id);\n        users[to].datetime.push(block.timestamp);\n        users[to].vaccine_count += 1;\n        approvedOperators[name][batch_id][healthPersons[msg.sender].org] -= 1;\n        changeStatus(to);\n    }\n\n    //Check Methods\n    function checkUserRegistration(address user) private view {\n        require(users[user].registered == true, \"Unregistered user\");\n    }\n\n    function checkBatch(string memory name, uint256 batch_id) public view {\n        require(approvedBatches[name][batch_id].batch_id > 0, \"Invalid batch\");\n        require(\n            approvedBatches[name][batch_id].defrost_date < block.timestamp,\n            \"Must be previously defrosted\"\n        );\n        require(\n            approvedBatches[name][batch_id].manufacture_expiry >\n                block.timestamp,\n            \"Expired\"\n        );\n        require(\n            approvedBatches[name][batch_id].use_by_date > block.timestamp,\n            \"Must be used prior to use by date.\"\n        );\n    }\n\n    function checkOrganization(address org) public view {\n        if (!organizations[org].registration) {\n            revert(\"Invalid organization.\");\n        }\n        if (!organizations[org].approved) {\n            revert(\"Organization is not approved.\");\n        }\n    }\n\n    function checkVaccine(string memory name) public view {\n        if (!approvedVaccines[name].approved) {\n            revert(\"Vaccine not approved\");\n        }\n    }\n\n    function checkUserVaccineCompatibility(address user, string memory name)\n        private\n        view\n    {\n        require(\n            approvedVaccines[name].approved == true,\n            \"Vaccine is not approved.\"\n        );\n        bytes memory _user_recieved_vaccine = bytes(users[user].vaccine_name);\n        bytes memory _user_recieving_vaccine = bytes(name);\n\n        if (_user_recieved_vaccine.length > 0) {\n            if (\n                _user_recieved_vaccine.length != _user_recieving_vaccine.length\n            ) {\n                revert(\"Vaccine not compatible.\");\n            }\n            for (uint256 i = 0; i < _user_recieved_vaccine.length; i++) {\n                if (_user_recieved_vaccine[i] != _user_recieving_vaccine[i]) {\n                    revert(\"Vaccine not compatible.\");\n                }\n            }\n        }\n        uint256 user_vaccineCount = getUserVaccineCount(user);\n        uint256 required_vaccineCount = getRequiredVaccineCount(name);\n\n        if (user_vaccineCount == required_vaccineCount) {\n            revert(\"Fully vaccinated already.\");\n        }\n    }\n\n    //Read Only Methods\n    function getUserVaccineCount(address user) public view returns (uint256) {\n        uint256 count = users[user].vaccine_count;\n        return count;\n    }\n\n    function getRequiredVaccineCount(string memory name)\n        public\n        view\n        returns (uint256)\n    {\n        return approvedVaccines[name].schedule.length;\n    }\n\n    function getTotalOrganization() public view returns (uint256) {\n        return organizationsList.length;\n    }\n\n    function getAllOrganizations() public view returns (address[] memory) {\n        return organizationsList;\n    }\n\n    function getAllHealthPersons(address org)\n        public\n        view\n        returns (address[] memory)\n    {\n        return organizations[org].healthPersons;\n    }\n\n    function getVaccineStatusOf(address user)\n        public\n        view\n        returns (VaccineStatus status)\n    {\n        uint256 user_vaccineCount = users[user].vaccine_count;\n        uint256 required_vaccineCount = approvedVaccines[\n            users[user].vaccine_name\n        ].schedule.length;\n\n        if (user_vaccineCount == 0) {\n            return VaccineStatus.UNVACCINATED;\n        }\n        if (user_vaccineCount < required_vaccineCount) {\n            return VaccineStatus.PARTIALLY_VACCINATED;\n        }\n        if (user_vaccineCount == required_vaccineCount) {\n            return VaccineStatus.FULLY_VACCINATED;\n        }\n    }\n\n    function changeStatus(address user) private {\n        VaccineStatus status = getVaccineStatusOf(user);\n        if (status == VaccineStatus.FULLY_VACCINATED) {\n            fullyVaccinated += 1;\n        }\n        if (status == VaccineStatus.PARTIALLY_VACCINATED) {\n            partiallyVaccinated += 1;\n        }\n    }\n\n    //Modifiers\n    modifier onlySuperAdmin() {\n        require(msg.sender == superAdmin, \"superAdmin\");\n        _;\n    }\n    modifier onlyOrganization() {\n        require(organizations[msg.sender].approved, \"Organization\");\n        _;\n    }\n    modifier onlyHealthPerson() {\n        require(healthPersons[msg.sender].approved, \"HealthPerson\");\n        _;\n    }\n\n    function getHealthPersonOrganization(address healthPerson)\n        public\n        view\n        returns (address)\n    {\n        return (healthPersons[healthPerson].org);\n    }\n\n    function checkAvailability(\n        string memory name,\n        uint256 batch_id,\n        address healthPerson\n    ) public view {\n        require(\n            approvedVaccines[name].approved == true,\n            \"Vaccine not approved.\"\n        );\n        checkBatch(name, batch_id);\n        require(\n            approvedOperators[name][batch_id][healthPersons[healthPerson].org] >\n                0,\n            \"Insufficient vaccine...\"\n        );\n    }\n\n    function getAvailableVaccines(\n        string memory name,\n        uint256 batch,\n        address org\n    ) public view returns (uint256) {\n        return approvedOperators[name][batch][org];\n    }\n\n    function getApprovedVaccinesLength() public view returns (uint256) {\n        return approvedVaccineNames.length;\n    }\n\n    function getVaccineApprovalStatus(string memory name)\n        public\n        view\n        returns (bool)\n    {\n        return approvedVaccines[name].approved;\n    }\n\n    function now() public view returns (uint256) {\n        return block.timestamp;\n    }\n}\n",
  "sourcePath": "/home/prajwolrg/School/Vaccination/vaccine-solidity/contracts/Vaccination.sol",
  "compiler": {
    "name": "solc",
    "version": "0.8.5+commit.a4f2e591.Emscripten.clang"
  },
  "schemaVersion": "3.4.4",
  "updatedAt": "2022-02-15T16:17:47.280Z",
  "networkType": "ethereum",
  "devdoc": {
    "kind": "dev",
    "methods": {},
    "version": 1
  },
  "userdoc": {
    "kind": "user",
    "methods": {},
    "version": 1
  }
}