{
  "contractName": "Vaccine",
  "abi": [
    {
      "inputs": [
        {
          "internalType": "string",
          "name": "_name",
          "type": "string"
        },
        {
          "internalType": "uint256[]",
          "name": "_schedule",
          "type": "uint256[]"
        },
        {
          "internalType": "string",
          "name": "_platform",
          "type": "string"
        },
        {
          "internalType": "string",
          "name": "_route",
          "type": "string"
        },
        {
          "internalType": "string",
          "name": "_ipfs_hash",
          "type": "string"
        }
      ],
      "stateMutability": "nonpayable",
      "type": "constructor"
    },
    {
      "anonymous": false,
      "inputs": [
        {
          "indexed": true,
          "internalType": "address",
          "name": "from",
          "type": "address"
        },
        {
          "indexed": true,
          "internalType": "address",
          "name": "to",
          "type": "address"
        },
        {
          "indexed": true,
          "internalType": "string",
          "name": "batchId",
          "type": "string"
        },
        {
          "indexed": false,
          "internalType": "uint256",
          "name": "units",
          "type": "uint256"
        }
      ],
      "name": "Approval",
      "type": "event"
    },
    {
      "anonymous": false,
      "inputs": [
        {
          "indexed": true,
          "internalType": "string",
          "name": "batch_name",
          "type": "string"
        }
      ],
      "name": "NewBatch",
      "type": "event"
    },
    {
      "anonymous": false,
      "inputs": [
        {
          "indexed": true,
          "internalType": "address",
          "name": "from",
          "type": "address"
        },
        {
          "indexed": true,
          "internalType": "address",
          "name": "to",
          "type": "address"
        },
        {
          "indexed": true,
          "internalType": "uint256",
          "name": "batchId",
          "type": "uint256"
        },
        {
          "indexed": false,
          "internalType": "uint256",
          "name": "units",
          "type": "uint256"
        }
      ],
      "name": "Transfer",
      "type": "event"
    },
    {
      "anonymous": false,
      "inputs": [
        {
          "indexed": true,
          "internalType": "address",
          "name": "to",
          "type": "address"
        },
        {
          "indexed": true,
          "internalType": "string",
          "name": "batchId",
          "type": "string"
        }
      ],
      "name": "Vaccined",
      "type": "event"
    },
    {
      "inputs": [
        {
          "internalType": "string",
          "name": "",
          "type": "string"
        }
      ],
      "name": "batchDetails",
      "outputs": [
        {
          "internalType": "uint256",
          "name": "defrost_date",
          "type": "uint256"
        },
        {
          "internalType": "uint256",
          "name": "manufacture_expiry",
          "type": "uint256"
        },
        {
          "internalType": "uint256",
          "name": "use_by_date",
          "type": "uint256"
        },
        {
          "internalType": "uint256",
          "name": "units",
          "type": "uint256"
        },
        {
          "internalType": "string",
          "name": "ipfs_hash",
          "type": "string"
        }
      ],
      "stateMutability": "view",
      "type": "function",
      "constant": true
    },
    {
      "inputs": [
        {
          "internalType": "string",
          "name": "",
          "type": "string"
        }
      ],
      "name": "batchIdToSupply",
      "outputs": [
        {
          "internalType": "uint256",
          "name": "",
          "type": "uint256"
        }
      ],
      "stateMutability": "view",
      "type": "function",
      "constant": true
    },
    {
      "inputs": [
        {
          "internalType": "address",
          "name": "",
          "type": "address"
        },
        {
          "internalType": "string",
          "name": "",
          "type": "string"
        }
      ],
      "name": "ownerToBatchToBalance",
      "outputs": [
        {
          "internalType": "uint256",
          "name": "",
          "type": "uint256"
        }
      ],
      "stateMutability": "view",
      "type": "function",
      "constant": true
    },
    {
      "inputs": [],
      "name": "superAdmin",
      "outputs": [
        {
          "internalType": "address",
          "name": "",
          "type": "address"
        }
      ],
      "stateMutability": "view",
      "type": "function",
      "constant": true
    },
    {
      "inputs": [],
      "name": "vaccineCount",
      "outputs": [
        {
          "internalType": "uint256",
          "name": "",
          "type": "uint256"
        }
      ],
      "stateMutability": "view",
      "type": "function",
      "constant": true
    },
    {
      "inputs": [],
      "name": "name",
      "outputs": [
        {
          "internalType": "string",
          "name": "",
          "type": "string"
        }
      ],
      "stateMutability": "view",
      "type": "function",
      "constant": true
    },
    {
      "inputs": [],
      "name": "schedule",
      "outputs": [
        {
          "internalType": "uint256[]",
          "name": "",
          "type": "uint256[]"
        }
      ],
      "stateMutability": "view",
      "type": "function",
      "constant": true
    },
    {
      "inputs": [],
      "name": "platform",
      "outputs": [
        {
          "internalType": "string",
          "name": "",
          "type": "string"
        }
      ],
      "stateMutability": "view",
      "type": "function",
      "constant": true
    },
    {
      "inputs": [],
      "name": "developers",
      "outputs": [
        {
          "internalType": "string",
          "name": "",
          "type": "string"
        }
      ],
      "stateMutability": "view",
      "type": "function",
      "constant": true
    },
    {
      "inputs": [],
      "name": "route",
      "outputs": [
        {
          "internalType": "string",
          "name": "",
          "type": "string"
        }
      ],
      "stateMutability": "view",
      "type": "function",
      "constant": true
    },
    {
      "inputs": [],
      "name": "ipfs_hash",
      "outputs": [
        {
          "internalType": "string",
          "name": "",
          "type": "string"
        }
      ],
      "stateMutability": "view",
      "type": "function",
      "constant": true
    },
    {
      "inputs": [],
      "name": "totalSupply",
      "outputs": [
        {
          "internalType": "uint256",
          "name": "",
          "type": "uint256"
        }
      ],
      "stateMutability": "view",
      "type": "function",
      "constant": true
    },
    {
      "inputs": [
        {
          "internalType": "string",
          "name": "batchId",
          "type": "string"
        }
      ],
      "name": "individualSupply",
      "outputs": [
        {
          "internalType": "uint256",
          "name": "",
          "type": "uint256"
        }
      ],
      "stateMutability": "view",
      "type": "function",
      "constant": true
    },
    {
      "inputs": [
        {
          "internalType": "address",
          "name": "owner",
          "type": "address"
        },
        {
          "internalType": "string",
          "name": "batchId",
          "type": "string"
        }
      ],
      "name": "balanceOf",
      "outputs": [
        {
          "internalType": "uint256",
          "name": "",
          "type": "uint256"
        }
      ],
      "stateMutability": "view",
      "type": "function",
      "constant": true
    },
    {
      "inputs": [
        {
          "internalType": "address",
          "name": "owner",
          "type": "address"
        }
      ],
      "name": "batchesOwned",
      "outputs": [
        {
          "components": [
            {
              "internalType": "string",
              "name": "batchId",
              "type": "string"
            },
            {
              "internalType": "uint256",
              "name": "units",
              "type": "uint256"
            }
          ],
          "internalType": "struct Vaccine.OwnerBatch[]",
          "name": "",
          "type": "tuple[]"
        }
      ],
      "stateMutability": "view",
      "type": "function",
      "constant": true
    },
    {
      "inputs": [
        {
          "internalType": "address",
          "name": "to",
          "type": "address"
        },
        {
          "internalType": "string",
          "name": "batchId",
          "type": "string"
        },
        {
          "internalType": "uint256",
          "name": "quantity",
          "type": "uint256"
        }
      ],
      "name": "transfer",
      "outputs": [],
      "stateMutability": "nonpayable",
      "type": "function"
    },
    {
      "inputs": [
        {
          "internalType": "address",
          "name": "to",
          "type": "address"
        },
        {
          "internalType": "string",
          "name": "batchId",
          "type": "string"
        },
        {
          "internalType": "uint256",
          "name": "quantity",
          "type": "uint256"
        }
      ],
      "name": "approve",
      "outputs": [],
      "stateMutability": "nonpayable",
      "type": "function"
    },
    {
      "inputs": [
        {
          "internalType": "address",
          "name": "to",
          "type": "address"
        }
      ],
      "name": "approveAll",
      "outputs": [],
      "stateMutability": "nonpayable",
      "type": "function"
    },
    {
      "inputs": [
        {
          "internalType": "address",
          "name": "to",
          "type": "address"
        },
        {
          "internalType": "string",
          "name": "batchId",
          "type": "string"
        }
      ],
      "name": "vaccinate",
      "outputs": [],
      "stateMutability": "nonpayable",
      "type": "function"
    },
    {
      "inputs": [
        {
          "internalType": "address",
          "name": "from",
          "type": "address"
        },
        {
          "internalType": "address",
          "name": "to",
          "type": "address"
        },
        {
          "internalType": "string",
          "name": "batchId",
          "type": "string"
        }
      ],
      "name": "transferFrom",
      "outputs": [],
      "stateMutability": "nonpayable",
      "type": "function"
    },
    {
      "inputs": [
        {
          "internalType": "string",
          "name": "batchId",
          "type": "string"
        },
        {
          "internalType": "uint256",
          "name": "defrost_date",
          "type": "uint256"
        },
        {
          "internalType": "uint256",
          "name": "manufacture_expiry",
          "type": "uint256"
        },
        {
          "internalType": "uint256",
          "name": "use_by_date",
          "type": "uint256"
        },
        {
          "internalType": "uint256",
          "name": "units",
          "type": "uint256"
        }
      ],
      "name": "addBatch",
      "outputs": [],
      "stateMutability": "nonpayable",
      "type": "function"
    }
  ],
  "bytecode": "0x60806040523480156200001157600080fd5b5060405162002de138038062002de1833981810160405281019062000037919062000345565b84600090805190602001906200004f92919062000100565b5083600190805190602001906200006892919062000191565b5082600290805190602001906200008192919062000100565b5081600490805190602001906200009a92919062000100565b508060059080519060200190620000b392919062000100565b5032600660006101000a81548173ffffffffffffffffffffffffffffffffffffffff021916908373ffffffffffffffffffffffffffffffffffffffff160217905550505050505062000644565b8280546200010e9062000536565b90600052602060002090601f0160209004810192826200013257600085556200017e565b82601f106200014d57805160ff19168380011785556200017e565b828001600101855582156200017e579182015b828111156200017d57825182559160200191906001019062000160565b5b5090506200018d9190620001e3565b5090565b828054828255906000526020600020908101928215620001d0579160200282015b82811115620001cf578251825591602001919060010190620001b2565b5b509050620001df9190620001e3565b5090565b5b80821115620001fe576000816000905550600101620001e4565b5090565b600062000219620002138462000491565b62000468565b905080838252602082019050828560208602820111156200023f576200023e62000605565b5b60005b858110156200027357816200025888826200032e565b84526020840193506020830192505060018101905062000242565b5050509392505050565b6000620002946200028e84620004c0565b62000468565b905082815260208101848484011115620002b357620002b26200060a565b5b620002c084828562000500565b509392505050565b600082601f830112620002e057620002df62000600565b5b8151620002f284826020860162000202565b91505092915050565b600082601f83011262000313576200031262000600565b5b8151620003258482602086016200027d565b91505092915050565b6000815190506200033f816200062a565b92915050565b600080600080600060a0868803121562000364576200036362000614565b5b600086015167ffffffffffffffff8111156200038557620003846200060f565b5b6200039388828901620002fb565b955050602086015167ffffffffffffffff811115620003b757620003b66200060f565b5b620003c588828901620002c8565b945050604086015167ffffffffffffffff811115620003e957620003e86200060f565b5b620003f788828901620002fb565b935050606086015167ffffffffffffffff8111156200041b576200041a6200060f565b5b6200042988828901620002fb565b925050608086015167ffffffffffffffff8111156200044d576200044c6200060f565b5b6200045b88828901620002fb565b9150509295509295909350565b60006200047462000487565b90506200048282826200056c565b919050565b6000604051905090565b600067ffffffffffffffff821115620004af57620004ae620005d1565b5b602082029050602081019050919050565b600067ffffffffffffffff821115620004de57620004dd620005d1565b5b620004e98262000619565b9050602081019050919050565b6000819050919050565b60005b838110156200052057808201518184015260208101905062000503565b8381111562000530576000848401525b50505050565b600060028204905060018216806200054f57607f821691505b60208210811415620005665762000565620005a2565b5b50919050565b620005778262000619565b810181811067ffffffffffffffff82111715620005995762000598620005d1565b5b80604052505050565b7f4e487b7100000000000000000000000000000000000000000000000000000000600052602260045260246000fd5b7f4e487b7100000000000000000000000000000000000000000000000000000000600052604160045260246000fd5b600080fd5b600080fd5b600080fd5b600080fd5b600080fd5b6000601f19601f8301169050919050565b6200063581620004f6565b81146200064157600080fd5b50565b61278d80620006546000396000f3fe608060405234801561001057600080fd5b50600436106101375760003560e01c8063809051db116100b8578063c4173e481161007c578063c4173e4814610356578063c8020e0f14610386578063cf0c3cca146103a2578063d96661ef146103be578063dcb7b1b7146103dc578063fff3a01b146103fa57610137565b8063809051db1461028a578063b0604a26146102a8578063b4663894146102c6578063b74500e0146102f6578063b9b092c81461032657610137565b80633456d566116100ff5780633456d566146101d05780633ebfc9341461020057806340cf07fa1461021c5780634bde38c814610250578063610398621461026e57610137565b80630621472c1461013c57806306fdde031461015857806318160ddd1461017657806329575f6a146101945780632bc31ca4146101b2575b600080fd5b61015660048036038101906101519190611ab5565b610416565b005b6101606104ae565b60405161016d91906120e6565b60405180910390f35b61017e610540565b60405161018b91906121c8565b60405180910390f35b61019c61054a565b6040516101a99190612087565b60405180910390f35b6101ba610570565b6040516101c791906120e6565b60405180910390f35b6101ea60048036038101906101e59190611ab5565b610602565b6040516101f791906120a2565b60405180910390f35b61021a60048036038101906102159190611ae2565b61092d565b005b61023660048036038101906102319190611c1c565b610c2b565b6040516102479594939291906121e3565b60405180910390f35b610258610cff565b60405161026591906120e6565b60405180910390f35b61028860048036038101906102839190611b51565b610d91565b005b610292610f72565b60405161029f91906120e6565b60405180910390f35b6102b0611004565b6040516102bd91906120c4565b60405180910390f35b6102e060048036038101906102db9190611b51565b61105c565b6040516102ed91906121c8565b60405180910390f35b610310600480360381019061030b9190611c1c565b611097565b60405161031d91906121c8565b60405180910390f35b610340600480360381019061033b9190611b51565b6110c5565b60405161034d91906121c8565b60405180910390f35b610370600480360381019061036b9190611c1c565b61112b565b60405161037d91906121c8565b60405180910390f35b6103a0600480360381019061039b9190611bad565b611153565b005b6103bc60048036038101906103b79190611c65565b611321565b005b6103c6611627565b6040516103d391906120e6565b60405180910390f35b6103e46116b9565b6040516103f191906121c8565b60405180910390f35b610414600480360381019061040f9190611bad565b6116bf565b005b6001600960003373ffffffffffffffffffffffffffffffffffffffff1673ffffffffffffffffffffffffffffffffffffffff16815260200190815260200160002060008373ffffffffffffffffffffffffffffffffffffffff1673ffffffffffffffffffffffffffffffffffffffff16815260200190815260200160002060006101000a81548160ff02191690831515021790555050565b6060600080546104bd9061245a565b80601f01602080910402602001604051908101604052809291908181526020018280546104e99061245a565b80156105365780601f1061050b57610100808354040283529160200191610536565b820191906000526020600020905b81548152906001019060200180831161051957829003601f168201915b5050505050905090565b6000600754905090565b600660009054906101000a900473ffffffffffffffffffffffffffffffffffffffff1681565b60606003805461057f9061245a565b80601f01602080910402602001604051908101604052809291908181526020018280546105ab9061245a565b80156105f85780601f106105cd576101008083540402835291602001916105f8565b820191906000526020600020905b8154815290600101906020018083116105db57829003601f168201915b5050505050905090565b60606000600e8054905067ffffffffffffffff81111561062557610624612593565b5b60405190808252806020026020018201604052801561065857816020015b60608152602001906001900390816106435790505b5090506000805b600e805490508110156107d4576000600b60008773ffffffffffffffffffffffffffffffffffffffff1673ffffffffffffffffffffffffffffffffffffffff168152602001908152602001600020600e83815481106106c1576106c0612564565b5b906000526020600020016040516106d89190612070565b908152602001604051809103902054146107c157600e8181548110610700576106ff612564565b5b9060005260206000200180546107159061245a565b80601f01602080910402602001604051908101604052809291908181526020018280546107419061245a565b801561078e5780601f106107635761010080835404028352916020019161078e565b820191906000526020600020905b81548152906001019060200180831161077157829003601f168201915b50505050508383815181106107a6576107a5612564565b5b60200260200101819052506001826107be9190612352565b91505b80806107cc906124bd565b91505061065f565b5060008167ffffffffffffffff8111156107f1576107f0612593565b5b60405190808252806020026020018201604052801561082a57816020015b61081761192e565b81526020019060019003908161080f5790505b50905060005b828110156109215783818151811061084b5761084a612564565b5b602002602001015182828151811061086657610865612564565b5b602002602001015160000181905250600b60008773ffffffffffffffffffffffffffffffffffffffff1673ffffffffffffffffffffffffffffffffffffffff1681526020019081526020016000208482815181106108c7576108c6612564565b5b60200260200101516040516108dc9190612059565b9081526020016040518091039020548282815181106108fe576108fd612564565b5b602002602001015160200181815250508080610919906124bd565b915050610830565b50809350505050919050565b6000600c60008573ffffffffffffffffffffffffffffffffffffffff1673ffffffffffffffffffffffffffffffffffffffff1681526020019081526020016000208260405161097c9190612059565b908152602001604051809103902090506000816001015490508373ffffffffffffffffffffffffffffffffffffffff168260000160009054906101000a900473ffffffffffffffffffffffffffffffffffffffff1673ffffffffffffffffffffffffffffffffffffffff16148015610a4f5750600b60008673ffffffffffffffffffffffffffffffffffffffff1673ffffffffffffffffffffffffffffffffffffffff16815260200190815260200160002083604051610a3c9190612059565b9081526020016040518091039020548110155b610a5857600080fd5b80600b60008773ffffffffffffffffffffffffffffffffffffffff1673ffffffffffffffffffffffffffffffffffffffff16815260200190815260200160002084604051610aa69190612059565b90815260200160405180910390206000828254610ac391906123a8565b9250508190555080600b60008673ffffffffffffffffffffffffffffffffffffffff1673ffffffffffffffffffffffffffffffffffffffff16815260200190815260200160002084604051610b189190612059565b90815260200160405180910390206000828254610b359190612352565b92505081905550610b44611948565b6040518060400160405280600073ffffffffffffffffffffffffffffffffffffffff1681526020016000815250905080600c60008873ffffffffffffffffffffffffffffffffffffffff1673ffffffffffffffffffffffffffffffffffffffff16815260200190815260200160002085604051610bc19190612059565b908152602001604051809103902060008201518160000160006101000a81548173ffffffffffffffffffffffffffffffffffffffff021916908373ffffffffffffffffffffffffffffffffffffffff16021790555060208201518160010155905050505050505050565b600d81805160208101820180518482526020830160208501208183528095505050505050600091509050806000015490806001015490806002015490806003015490806004018054610c7c9061245a565b80601f0160208091040260200160405190810160405280929190818152602001828054610ca89061245a565b8015610cf55780601f10610cca57610100808354040283529160200191610cf5565b820191906000526020600020905b815481529060010190602001808311610cd857829003601f168201915b5050505050905085565b606060028054610d0e9061245a565b80601f0160208091040260200160405190810160405280929190818152602001828054610d3a9061245a565b8015610d875780601f10610d5c57610100808354040283529160200191610d87565b820191906000526020600020905b815481529060010190602001808311610d6a57829003601f168201915b5050505050905090565b6000600b60003373ffffffffffffffffffffffffffffffffffffffff1673ffffffffffffffffffffffffffffffffffffffff16815260200190815260200160002082604051610de09190612059565b90815260200160405180910390205411610e2f576040517f08c379a0000000000000000000000000000000000000000000000000000000008152600401610e2690612108565b60405180910390fd5b6001600b60003373ffffffffffffffffffffffffffffffffffffffff1673ffffffffffffffffffffffffffffffffffffffff16815260200190815260200160002082604051610e7e9190612059565b90815260200160405180910390206000828254610e9b91906123a8565b925050819055506001600b60008473ffffffffffffffffffffffffffffffffffffffff1673ffffffffffffffffffffffffffffffffffffffff16815260200190815260200160002082604051610ef19190612059565b90815260200160405180910390206000828254610f0e9190612352565b9250508190555080604051610f239190612059565b60405180910390208273ffffffffffffffffffffffffffffffffffffffff167fef2efa73144c5f8cd3684c5c620e24325aa03b459096efd2f498f8386839041960405160405180910390a35050565b606060058054610f819061245a565b80601f0160208091040260200160405190810160405280929190818152602001828054610fad9061245a565b8015610ffa5780601f10610fcf57610100808354040283529160200191610ffa565b820191906000526020600020905b815481529060010190602001808311610fdd57829003601f168201915b5050505050905090565b6060600180548060200260200160405190810160405280929190818152602001828054801561105257602002820191906000526020600020905b81548152602001906001019080831161103e575b5050505050905090565b600b60205281600052604060002081805160208101820180518482526020830160208501208183528095505050505050600091509150505481565b600a818051602081018201805184825260208301602085012081835280955050505050506000915090505481565b6000600b60008473ffffffffffffffffffffffffffffffffffffffff1673ffffffffffffffffffffffffffffffffffffffff168152602001908152602001600020826040516111149190612059565b908152602001604051809103902054905092915050565b6000600a8260405161113d9190612059565b9081526020016040518091039020549050919050565b80600b60003373ffffffffffffffffffffffffffffffffffffffff1673ffffffffffffffffffffffffffffffffffffffff168152602001908152602001600020836040516111a19190612059565b90815260200160405180910390205410156111bb57600080fd5b6111c3611948565b60405180604001604052808573ffffffffffffffffffffffffffffffffffffffff16815260200183815250905080600c60003373ffffffffffffffffffffffffffffffffffffffff1673ffffffffffffffffffffffffffffffffffffffff1681526020019081526020016000208460405161123e9190612059565b908152602001604051809103902060008201518160000160006101000a81548173ffffffffffffffffffffffffffffffffffffffff021916908373ffffffffffffffffffffffffffffffffffffffff16021790555060208201518160010155905050826040516112ae9190612059565b60405180910390208473ffffffffffffffffffffffffffffffffffffffff163373ffffffffffffffffffffffffffffffffffffffff167f17047a419515d22fa233d47027a0ec1677b03dea0fc0a1832cb6a47b938590518560405161131391906121c8565b60405180910390a450505050565b600660009054906101000a900473ffffffffffffffffffffffffffffffffffffffff1673ffffffffffffffffffffffffffffffffffffffff163373ffffffffffffffffffffffffffffffffffffffff16146113b1576040517f08c379a00000000000000000000000000000000000000000000000000000000081526004016113a890612168565b60405180910390fd5b4284106113f3576040517f08c379a00000000000000000000000000000000000000000000000000000000081526004016113ea90612148565b60405180910390fd5b428311611435576040517f08c379a000000000000000000000000000000000000000000000000000000000815260040161142c90612188565b60405180910390fd5b428211611477576040517f08c379a000000000000000000000000000000000000000000000000000000000815260040161146e906121a8565b60405180910390fd5b83600d866040516114889190612059565b90815260200160405180910390206000018190555082600d866040516114ae9190612059565b90815260200160405180910390206001018190555081600d866040516114d49190612059565b90815260200160405180910390206002018190555080600d866040516114fa9190612059565b90815260200160405180910390206003018190555080600b60003373ffffffffffffffffffffffffffffffffffffffff1673ffffffffffffffffffffffffffffffffffffffff1681526020019081526020016000208660405161155d9190612059565b90815260200160405180910390208190555080600760008282546115819190612352565b9250508190555060016008600082825461159b9190612352565b92505081905550600e859080600181540180825580915050600190039060005260206000200160009091909190915090805190602001906115dd929190611978565b50846040516115ec9190612059565b60405180910390207ff83fcb896ea7199c4d58a8a4ab92545a6dcb43b6d1026c5e8213b8f905b102d160405160405180910390a25050505050565b6060600480546116369061245a565b80601f01602080910402602001604051908101604052809291908181526020018280546116629061245a565b80156116af5780601f10611684576101008083540402835291602001916116af565b820191906000526020600020905b81548152906001019060200180831161169257829003601f168201915b5050505050905090565b60075481565b80600b60003373ffffffffffffffffffffffffffffffffffffffff1673ffffffffffffffffffffffffffffffffffffffff1681526020019081526020016000208360405161170d9190612059565b908152602001604051809103902054101561175d576040517f08c379a000000000000000000000000000000000000000000000000000000000815260040161175490612128565b60405180910390fd5b80600b60003373ffffffffffffffffffffffffffffffffffffffff1673ffffffffffffffffffffffffffffffffffffffff168152602001908152602001600020836040516117ab9190612059565b908152602001604051809103902060008282546117c891906123a8565b9250508190555080600b60008573ffffffffffffffffffffffffffffffffffffffff1673ffffffffffffffffffffffffffffffffffffffff1681526020019081526020016000208360405161181d9190612059565b9081526020016040518091039020600082825461183a9190612352565b92505081905550611849611948565b6040518060400160405280600073ffffffffffffffffffffffffffffffffffffffff1681526020016000815250905080600c60003373ffffffffffffffffffffffffffffffffffffffff1673ffffffffffffffffffffffffffffffffffffffff168152602001908152602001600020846040516118c69190612059565b908152602001604051809103902060008201518160000160006101000a81548173ffffffffffffffffffffffffffffffffffffffff021916908373ffffffffffffffffffffffffffffffffffffffff1602179055506020820151816001015590505050505050565b604051806040016040528060608152602001600081525090565b6040518060400160405280600073ffffffffffffffffffffffffffffffffffffffff168152602001600081525090565b8280546119849061245a565b90600052602060002090601f0160209004810192826119a657600085556119ed565b82601f106119bf57805160ff19168380011785556119ed565b828001600101855582156119ed579182015b828111156119ec5782518255916020019190600101906119d1565b5b5090506119fa91906119fe565b5090565b5b80821115611a175760008160009055506001016119ff565b5090565b6000611a2e611a2984612262565b61223d565b905082815260208101848484011115611a4a57611a496125c7565b5b611a55848285612418565b509392505050565b600081359050611a6c81612729565b92915050565b600082601f830112611a8757611a866125c2565b5b8135611a97848260208601611a1b565b91505092915050565b600081359050611aaf81612740565b92915050565b600060208284031215611acb57611aca6125d1565b5b6000611ad984828501611a5d565b91505092915050565b600080600060608486031215611afb57611afa6125d1565b5b6000611b0986828701611a5d565b9350506020611b1a86828701611a5d565b925050604084013567ffffffffffffffff811115611b3b57611b3a6125cc565b5b611b4786828701611a72565b9150509250925092565b60008060408385031215611b6857611b676125d1565b5b6000611b7685828601611a5d565b925050602083013567ffffffffffffffff811115611b9757611b966125cc565b5b611ba385828601611a72565b9150509250929050565b600080600060608486031215611bc657611bc56125d1565b5b6000611bd486828701611a5d565b935050602084013567ffffffffffffffff811115611bf557611bf46125cc565b5b611c0186828701611a72565b9250506040611c1286828701611aa0565b9150509250925092565b600060208284031215611c3257611c316125d1565b5b600082013567ffffffffffffffff811115611c5057611c4f6125cc565b5b611c5c84828501611a72565b91505092915050565b600080600080600060a08688031215611c8157611c806125d1565b5b600086013567ffffffffffffffff811115611c9f57611c9e6125cc565b5b611cab88828901611a72565b9550506020611cbc88828901611aa0565b9450506040611ccd88828901611aa0565b9350506060611cde88828901611aa0565b9250506080611cef88828901611aa0565b9150509295509295909350565b6000611d088383611ffe565b905092915050565b6000611d1c838361203b565b60208301905092915050565b611d31816123dc565b82525050565b6000611d42826122c8565b611d4c8185612303565b935083602082028501611d5e85612293565b8060005b85811015611d9a5784840389528151611d7b8582611cfc565b9450611d86836122e9565b925060208a01995050600181019050611d62565b50829750879550505050505092915050565b6000611db7826122d3565b611dc18185612314565b9350611dcc836122a3565b8060005b83811015611dfd578151611de48882611d10565b9750611def836122f6565b925050600181019050611dd0565b5085935050505092915050565b6000611e15826122de565b611e1f8185612325565b9350611e2f818560208601612427565b611e38816125d6565b840191505092915050565b6000611e4e826122de565b611e588185612336565b9350611e68818560208601612427565b611e71816125d6565b840191505092915050565b6000611e87826122de565b611e918185612347565b9350611ea1818560208601612427565b80840191505092915050565b60008154611eba8161245a565b611ec48186612347565b94506001821660008114611edf5760018114611ef057611f23565b60ff19831686528186019350611f23565b611ef9856122b3565b60005b83811015611f1b57815481890152600182019150602081019050611efc565b838801955050505b50505092915050565b6000611f39601283612336565b9150611f44826125e7565b602082019050919050565b6000611f5c601983612336565b9150611f6782612610565b602082019050919050565b6000611f7f601c83612336565b9150611f8a82612639565b602082019050919050565b6000611fa2602483612336565b9150611fad82612662565b604082019050919050565b6000611fc5600783612336565b9150611fd0826126b1565b602082019050919050565b6000611fe8602283612336565b9150611ff3826126da565b604082019050919050565b6000604083016000830151848203600086015261201b8282611e0a565b9150506020830151612030602086018261203b565b508091505092915050565b6120448161240e565b82525050565b6120538161240e565b82525050565b60006120658284611e7c565b915081905092915050565b600061207c8284611ead565b915081905092915050565b600060208201905061209c6000830184611d28565b92915050565b600060208201905081810360008301526120bc8184611d37565b905092915050565b600060208201905081810360008301526120de8184611dac565b905092915050565b600060208201905081810360008301526121008184611e43565b905092915050565b6000602082019050818103600083015261212181611f2c565b9050919050565b6000602082019050818103600083015261214181611f4f565b9050919050565b6000602082019050818103600083015261216181611f72565b9050919050565b6000602082019050818103600083015261218181611f95565b9050919050565b600060208201905081810360008301526121a181611fb8565b9050919050565b600060208201905081810360008301526121c181611fdb565b9050919050565b60006020820190506121dd600083018461204a565b92915050565b600060a0820190506121f8600083018861204a565b612205602083018761204a565b612212604083018661204a565b61221f606083018561204a565b81810360808301526122318184611e43565b90509695505050505050565b6000612247612258565b9050612253828261248c565b919050565b6000604051905090565b600067ffffffffffffffff82111561227d5761227c612593565b5b612286826125d6565b9050602081019050919050565b6000819050602082019050919050565b6000819050602082019050919050565b60008190508160005260206000209050919050565b600081519050919050565b600081519050919050565b600081519050919050565b6000602082019050919050565b6000602082019050919050565b600082825260208201905092915050565b600082825260208201905092915050565b600082825260208201905092915050565b600082825260208201905092915050565b600081905092915050565b600061235d8261240e565b91506123688361240e565b9250827fffffffffffffffffffffffffffffffffffffffffffffffffffffffffffffffff0382111561239d5761239c612506565b5b828201905092915050565b60006123b38261240e565b91506123be8361240e565b9250828210156123d1576123d0612506565b5b828203905092915050565b60006123e7826123ee565b9050919050565b600073ffffffffffffffffffffffffffffffffffffffff82169050919050565b6000819050919050565b82818337600083830152505050565b60005b8381101561244557808201518184015260208101905061242a565b83811115612454576000848401525b50505050565b6000600282049050600182168061247257607f821691505b6020821081141561248657612485612535565b5b50919050565b612495826125d6565b810181811067ffffffffffffffff821117156124b4576124b3612593565b5b80604052505050565b60006124c88261240e565b91507fffffffffffffffffffffffffffffffffffffffffffffffffffffffffffffffff8214156124fb576124fa612506565b5b600182019050919050565b7f4e487b7100000000000000000000000000000000000000000000000000000000600052601160045260246000fd5b7f4e487b7100000000000000000000000000000000000000000000000000000000600052602260045260246000fd5b7f4e487b7100000000000000000000000000000000000000000000000000000000600052603260045260246000fd5b7f4e487b7100000000000000000000000000000000000000000000000000000000600052604160045260246000fd5b600080fd5b600080fd5b600080fd5b600080fd5b6000601f19601f8301169050919050565b7f4e6f7420656e6f7567682076616363696e650000000000000000000000000000600082015250565b7f4f776e657220646f206e6f7420686f6c642076616363696e6500000000000000600082015250565b7f4d7573742062652070726576696f75736c7920646566726f7374656400000000600082015250565b7f4f6e6c792061646d696e2063616e20706572666f726d207468652066756e637460008201527f696f6e2e00000000000000000000000000000000000000000000000000000000602082015250565b7f4578706972656400000000000000000000000000000000000000000000000000600082015250565b7f4d7573742062652075736564207072696f7220746f207573652062792064617460008201527f652e000000000000000000000000000000000000000000000000000000000000602082015250565b612732816123dc565b811461273d57600080fd5b50565b6127498161240e565b811461275457600080fd5b5056fea26469706673582212203a28ad711472bbcde3df0576f69dd2e0ebfe598a6452ee4225fe9f22b0d7662964736f6c63430008050033",
  "immutableReferences": {},
  "source": "// SPDX-License-Identifier: MIT\npragma solidity >=0.7.5;\npragma experimental ABIEncoderV2;\n\n/**\n * @title SafeMath\n * @dev Math operations with safety checks that throw on error\n */\nlibrary SafeMath {\n    /**\n     * @dev Multiplies two numbers, throws on overflow.\n     */\n    function mul(uint256 a, uint256 b) internal pure returns (uint256 c) {\n        if (a == 0) {\n            return 0;\n        }\n        c = a * b;\n        assert(c / a == b);\n        return c;\n    }\n\n    /**\n     * @dev Integer division of two numbers, truncating the quotient.\n     */\n    function div(uint256 a, uint256 b) internal pure returns (uint256) {\n        // assert(b > 0); // Solidity automatically throws when dividing by 0\n        // uint256 c = a / b;\n        // assert(a == b * c + a % b); // There is no case in which this doesn't hold\n        return a / b;\n    }\n\n    /**\n     * @dev Subtracts two numbers, throws on overflow (i.e. if subtrahend is greater than minuend).\n     */\n    function sub(uint256 a, uint256 b) internal pure returns (uint256) {\n        assert(b <= a);\n        return a - b;\n    }\n\n    /**\n     * @dev Adds two numbers, throws on overflow.\n     */\n    function add(uint256 a, uint256 b) internal pure returns (uint256 c) {\n        c = a + b;\n        assert(c >= a);\n        return c;\n    }\n}\n\ninterface IFVaccine {\n    function name() external view returns (string memory);\n\n    function schedule() external view returns (uint256[] memory);\n\n    function platform() external view returns (string memory);\n\n    function route() external view returns (string memory);\n\n    function developers() external view returns (string memory);\n\n    function ipfs_hash() external view returns (string memory);\n}\n\ncontract Vaccine {\n    using SafeMath for uint256;\n\n    string private name_;\n    uint256[] private schedule_;\n    string private platform_;\n    string private developers_;\n    string private route_;\n    string private ipfs_hash_;\n\n    address public superAdmin;\n\n    struct Batch {\n        uint256 defrost_date;\n        uint256 manufacture_expiry;\n        uint256 use_by_date;\n        uint256 units;\n        string ipfs_hash;\n    }\n\n    uint256 public vaccineCount;\n    uint256 currentBatch;\n    struct Transactor {\n        address actor;\n        uint256 amount;\n    }\n\n    struct OwnerBatch {\n        string batchId;\n        uint256 units;\n    }\n\n    mapping(address => mapping(address => bool)) fullApprovals;\n\n    mapping(string => uint256) public batchIdToSupply;\n    mapping(address => mapping(string => uint256)) public ownerToBatchToBalance;\n    mapping(address => mapping(string => Transactor)) approvals;\n    mapping(string => Batch) public batchDetails;\n\n    string[] batches;\n\n    event Transfer(\n        address indexed from,\n        address indexed to,\n        uint256 indexed batchId,\n        uint256 units\n    );\n    event Approval(\n        address indexed from,\n        address indexed to,\n        string indexed batchId,\n        uint256 units\n    );\n    event NewBatch(string indexed batch_name);\n    event Vaccined(address indexed to, string indexed batchId);\n\n    // Constructor\n    constructor(\n        string memory _name,\n        uint256[] memory _schedule,\n        string memory _platform,\n        string memory _route,\n        string memory _ipfs_hash\n    ) {\n        name_ = _name;\n        schedule_ = _schedule;\n        platform_ = _platform;\n        route_ = _route;\n        ipfs_hash_ = _ipfs_hash;\n        superAdmin = tx.origin;\n    }\n\n    function name() public view returns (string memory) {\n        return name_;\n    }\n\n    function schedule() public view returns(uint256[] memory) {\n      return schedule_;\n    }\n\n    function platform() public view returns (string memory) {\n        return platform_;\n    }\n\n    function developers() public view returns (string memory) {\n        return developers_;\n    }\n\n    function route() public view returns (string memory) {\n        return route_;\n    }\n\n    function ipfs_hash() public view returns (string memory) {\n        return ipfs_hash_;\n    }\n\n    function totalSupply() public view returns (uint256) {\n        return vaccineCount;\n    }\n\n    function individualSupply(string memory batchId)\n        public\n        view\n        returns (uint256)\n    {\n        return batchIdToSupply[batchId];\n    }\n\n    function balanceOf(address owner, string memory batchId)\n        public\n        view\n        returns (uint256)\n    {\n        /* if (ownerToBatchToBalance[owner] == 0) return 0; */\n        return ownerToBatchToBalance[owner][batchId];\n    }\n\n    // class of 0 is meaningless and should be ignored.\n    function batchesOwned(address owner)\n        public\n        view\n        returns (OwnerBatch[] memory)\n    {\n        string[] memory tempBatches = new string[](batches.length);\n        uint256 count = 0;\n        for (uint256 i = 0; i < batches.length; i++) {\n            if (ownerToBatchToBalance[owner][batches[i]] != 0) {\n                tempBatches[count] = batches[i];\n                count += 1;\n            }\n        }\n        OwnerBatch[] memory batches_ = new OwnerBatch[](count);\n        for (uint256 i = 0; i < count; i++) {\n            batches_[i].batchId = tempBatches[i];\n            batches_[i].units = ownerToBatchToBalance[owner][tempBatches[i]];\n        }\n        return batches_;\n    }\n\n    function transfer(\n        address to,\n        string memory batchId,\n        uint256 quantity\n    ) public {\n        require(\n            ownerToBatchToBalance[msg.sender][batchId] >= quantity,\n            \"Owner do not hold vaccine\"\n        );\n        ownerToBatchToBalance[msg.sender][batchId] -= quantity;\n        ownerToBatchToBalance[to][batchId] += quantity;\n        Transactor memory zeroApproval;\n        zeroApproval = Transactor(address(0), 0);\n        approvals[msg.sender][batchId] = zeroApproval;\n    }\n\n    function approve(\n        address to,\n        string memory batchId,\n        uint256 quantity\n    ) public {\n        require(ownerToBatchToBalance[msg.sender][batchId] >= quantity);\n        Transactor memory takerApproval;\n        takerApproval = Transactor(to, quantity);\n        approvals[msg.sender][batchId] = takerApproval;\n        emit Approval(msg.sender, to, batchId, quantity);\n    }\n\n    function approveAll(address to) public {\n        fullApprovals[msg.sender][to] = true;\n    }\n\n    function vaccinate(address to, string memory batchId) public {\n        require(\n            ownerToBatchToBalance[msg.sender][batchId] > 0,\n            \"Not enough vaccine\"\n        );\n        ownerToBatchToBalance[msg.sender][batchId] -= 1;\n        ownerToBatchToBalance[to][batchId] += 1;\n        emit Vaccined(to, batchId);\n    }\n\n    function transferFrom(\n        address from,\n        address to,\n        string memory batchId\n    ) public {\n        Transactor storage takerApproval = approvals[from][batchId];\n        uint256 quantity = takerApproval.amount;\n        require(\n            takerApproval.actor == to &&\n                quantity >= ownerToBatchToBalance[from][batchId]\n        );\n        ownerToBatchToBalance[from][batchId] -= quantity;\n        ownerToBatchToBalance[to][batchId] += quantity;\n        Transactor memory zeroApproval;\n        zeroApproval = Transactor(address(0), 0);\n        approvals[from][batchId] = zeroApproval;\n    }\n\n    function addBatch(\n        string memory batchId,\n        uint256 defrost_date,\n        uint256 manufacture_expiry,\n        uint256 use_by_date,\n        uint256 units\n    ) public onlySuperAdmin {\n        require(defrost_date < block.timestamp, \"Must be previously defrosted\");\n        require(manufacture_expiry > block.timestamp, \"Expired\");\n        require(\n            use_by_date > block.timestamp,\n            \"Must be used prior to use by date.\"\n        );\n\n        batchDetails[batchId].defrost_date = defrost_date;\n        batchDetails[batchId].manufacture_expiry = manufacture_expiry;\n        batchDetails[batchId].use_by_date = use_by_date;\n        batchDetails[batchId].units = units;\n        ownerToBatchToBalance[msg.sender][batchId] = units;\n\n        vaccineCount += units;\n        currentBatch += 1;\n        batches.push(batchId);\n        emit NewBatch(batchId);\n    }\n\n    modifier onlySuperAdmin() {\n        require(\n            msg.sender == superAdmin,\n            \"Only admin can perform the function.\"\n        );\n        _;\n    }\n}\n\ncontract VaccineFactory {\n    Vaccine[] public vaccines;\n    struct VaccineDetails {\n        string name;\n        uint256[] schedule;\n        string platform;\n        string route;\n        string ipfs_hash;\n    }\n    mapping(address => uint256) vaccineIndex;\n\n    function createVaccine(\n        string memory name,\n        uint256[] memory schedule,\n        string memory platform,\n        string memory route,\n        string memory ipfs_hash\n    ) public {\n        Vaccine v = new Vaccine(name, schedule, platform, route, ipfs_hash);\n        vaccines.push(v);\n    }\n\n    function getVaccineAddresses() public view returns (Vaccine[] memory) {\n        return vaccines;\n    }\n\n    function getVaccineDetails(address vaccineAddress)\n        public\n        view\n        returns (VaccineDetails memory)\n    {\n        IFVaccine vaccine = IFVaccine(vaccineAddress);\n        string memory name = vaccine.name();\n        uint256[] memory schedule = vaccine.schedule();\n        string memory platform = vaccine.platform();\n        string memory route = vaccine.route();\n        string memory ipfs_hash = vaccine.ipfs_hash();\n        return VaccineDetails(name, schedule, platform, route, ipfs_hash);\n    }\n\n    function getAllVaccinesWithDetails()\n        public\n        view\n        returns (VaccineDetails[] memory)\n    {\n        VaccineDetails[] memory vDetails = new VaccineDetails[](\n            vaccines.length\n        );\n        for (uint256 i = 0; i < vaccines.length; i++) {\n            vDetails[i] = getVaccineDetails(address(vaccines[i]));\n        }\n        return vDetails;\n    }\n\n    function getSpecifiedVaccinesDetails(address[] memory vaccineAddress)\n        public\n        view\n        returns (VaccineDetails[] memory)\n    {\n        VaccineDetails[] memory vDetails = new VaccineDetails[](\n            vaccineAddress.length\n        );\n        for (uint256 i = 0; i < vaccineAddress.length; i++) {\n            vDetails[i] = getVaccineDetails(vaccineAddress[i]);\n        }\n        return vDetails;\n    }\n}\n",
  "sourcePath": "/home/prajwolrg/School/Vaccination/vaccine-solidity/contracts/Vaccine.sol",
  "compiler": {
    "name": "solc",
    "version": "0.8.5+commit.a4f2e591.Emscripten.clang"
  },
  "schemaVersion": "3.4.4",
  "updatedAt": "2022-04-14T16:49:47.916Z",
  "networkType": "ethereum",
  "devdoc": {
    "kind": "dev",
    "methods": {},
    "version": 1
  },
  "userdoc": {
    "kind": "user",
    "methods": {},
    "version": 1
  }
}